:020000040000FA
:0600000088EF7AF0120007
:020006001200E6
:06000800E9EF5DF01200BB
:02000E00C250DE
:08001000020B01E0010E1200D9
:06001800B5EF64F01200D8
:02001E000600DA
:100020008FF60000FE030000020000008BF60000C7
:10003000FC01000004000000F6F500006000000074
:1000400095000000E4F50000EA0300001200000043
:10005000E2F50000FC03000002000000B2F5000021
:08006000A706000030000000BB
:080068006DEC34F0E652FE0ECF
:10007000DB50050802E2FE0EDB6AFD0EDB5003E0FA
:10008000BFEC35F0EF6AFE0EDBCFACF6970E036ED9
:10009000A80E046E000E0CEC37F0140E48EC36F08F
:1000A000A8EC38F0026EBFEC35F0EFCF09F00A6A29
:1000B0000B6A00500924F36E01500A20F46E0250BE
:1000C0000B20F86EF4CFF7FFF3CFF6FF0800F550E2
:1000D000DF6EBFEC35F0EF2AEFCF00F0016A026A65
:1000E0005EEC36F0970E066EA80E076E000E086ED8
:1000F000FE0EDBCF09F00A6A0B6A140E306E316A0D
:10010000326A09C02BF00AC02CF00BC02DF0F3ECC2
:100110006CF028C009F029C00AF02AC00BF0065084
:100120002824036E07502920046E08502A20056EEB
:1001300003C0E6FF04C0E6FFE66E65EC74F0F1EC88
:1001400037F0E7CF02F0E552E7CF01F0E552E7CF15
:1001500000F02B50005C2C5001582D50025803E346
:10016000BFEC35F0EF6ADF50E55272EF34F06DEC22
:1001700034F00001F2515CE0FC0EDB502AE0FD0E91
:10018000DBCFE6FFFE0EDB50E552E7240601AD6F44
:100190009EEC39F0560EE66EA70EE66E000EE66E89
:1001A000ECEC34F0B8EC74F025EC37F09EEC39F060
:1001B00084EC3AF00601ECEC34F08AEC74F0026E58
:1001C000060EE15E0250060164EC38F0140E83EC7A
:1001D00036F0FD0EDB50030A0CE0010A08E0030ACA
:1001E00004E0010A09E1E66A08D0400E03D0140ECB
:1001F00001D0540EE66E01D0E66A02EC78F0E552CA
:10020000FD0EDB5000019C250601AD6F00016A5117
:100210000FE000EC37F0FDE10601ECEC34F019ECF6
:1002200079F0E552E55200EC37F0FDE1010E901651
:1002300072EF34F000016E5104E0A2EC48F00001CE
:100240006E6B725107E0726BF45102E0000E01D048
:10025000010EF46F755104E0A7EC12F00001756B0C
:10026000685103E02CDB0001686B715104E0EDEC98
:1002700007F00001716B6F5103E043DB00016F6B0E
:100280001200D9CFE6FFE1CFD9FF0401766B776B7F
:10029000786B796BD950FB0FE96EFF0EDA20EA6EAE
:1002A00004017651EE5C04017751EE580401785157
:1002B000EE5804017951EE5809E3000004000401EE
:1002C000762B000E772378237923E4D7E552E7CF06
:1002D000D9FF1200D9CFE6FFE1CFD9FF030EE66EBA
:1002E00056EC72F0E55292C67AF493C67BF494C64B
:1002F0007CF495C67DF4A3EC72F0D950FB0FE96E47
:10030000FF0EDA20EA6E04017A51EE240401826FB6
:1003100004017B51EE200401836F04017C51EE2027
:100320000401846F04017D51EE200401856F030EEA
:10033000E66E56EC72F0E55292C67EF493C67FF4F8
:1003400094C680F495C681F4A3EC72F004007E0E8E
:10035000E96E040EEA6E04018251EE5C04018351E1
:10036000EE5804018451EE5804018551EE58DFE344
:10037000E552E7CFD9FF120049EC38F019E0C8EC9C
:1003800034F092C686F493C687F494C688F495C672
:1003900089F402EC35F004018651EE248E6F87510A
:1003A000EE208F6F8851EE20906F8951EE20916F73
:1003B000C8EC34F092C68AF493C68BF494C68CF4DD
:1003C00095C68DF4A3EC72F08A0EE96E040EEA6E07
:1003D00004018E51EE5C8F51EE589051EE589151C0
:1003E000EE5802E2000E01D0010E72EF34F049EC3B
:1003F00038F019E0C8EC34F092C692F493C693F446
:1004000094C694F495C695F402EC35F0040192512B
:10041000EE249A6F9351EE209B6F9451EE209C6FC7
:100420009551EE209D6FC8EC34F092C696F493C6B9
:1004300097F494C698F495C699F4A3EC72F0960ECE
:10044000E96E040EEA6E04019A51EE5C9B51EE587F
:100450009C51EE589D51EE5802E2000E01D0010E63
:1004600072EF34F049EC38F019E0C8EC34F092C681
:100470009EF493C69FF494C6A0F495C6A1F402EC32
:1004800035F004019E51EE24A66F9F51EE20A76F18
:10049000A051EE20A86FA151EE20A96FC8EC34F056
:1004A00092C6A2F493C6A3F494C6A4F495C6A5F488
:1004B000A3EC72F0A20EE96E040EEA6E0401A651DE
:1004C000EE5CA751EE58A851EE58A951EE5802E241
:1004D000000E01D0010E72EF34F049EC38F019E053
:1004E000C8EC34F092C6AAF493C6ABF494C6ACF44C
:1004F00095C6ADF402EC35F00401AA51EE24B26FBA
:10050000AB51EE20B36FAC51EE20B46FAD51EE2085
:10051000B56FC8EC34F092C6AEF493C6AFF494C68F
:10052000B0F495C6B1F4A3EC72F0AE0EE96E040E11
:10053000EA6E0401B251EE5CB351EE58B451EE587C
:10054000B551EE5802E2000E01D0010E72EF34F008
:1005500049EC38F019E0C8EC34F092C6B6F493C612
:10056000B7F494C6B8F495C6B9F402EC35F00401BA
:10057000B651EE24BE6FB751EE20BF6FB851EE20DA
:10058000C06FB951EE20C16FC8EC34F092C6BAF416
:1005900093C6BBF494C6BCF495C6BDF4A3EC72F04C
:1005A000BA0EE96E040EEA6E0401BE51EE5CBF5154
:1005B000EE58C051EE58C151EE5802E2000E01D083
:1005C000010E72EF34F049EC38F019E0C8EC34F069
:1005D00092C6C2F493C6C3F494C6C4F495C6C5F4D7
:1005E00002EC35F00401C251EE24CA6FC351EE2073
:1005F000CB6FC451EE20CC6FC551EE20CD6FC8EC4F
:1006000034F092C6C6F493C6C7F494C6C8F495C62F
:10061000C9F4A3EC72F0C60EE96E040EEA6E040192
:10062000CA51EE5CCB51EE58CC51EE58CD51EE583C
:1006300002E2000E01D0010E72EF34F0000004015E
:10064000CE6B0601A7510401CE5D04E20000040157
:10065000CE2BF7D712000F0EE66E05EC7AF0E552BE
:100660001200050EE66E05EC7AF0E55212006DEC14
:1006700034F06CA2FED7FE0EDBCFE6FF1CEC7AF066
:10068000E55272EF34F0050E52EF34F000016A517A
:1006900001E1120000EC37F0FDE112006DEC34F0E6
:1006A000F90EDBCF00F0FA0EDBCF01F001340AE2E5
:1006B00000500808000E015405E244EC35F090ECBF
:1006C00036F0CCD013EC37F0EE50ED1009E000011D
:1006D0008F0E8E6FC20E8F6F750E906F3D0E06D00F
:1006E00000018E6B8F6B800E906F3E0E916F94ECBD
:1006F00034F0EECF08F0EECF09F0EECF0AF0EFCFF6
:100700000BF0FFEC3AF008C02BF009C02CF00AC047
:100710002DF00BC02EF02CEC6CF0B1EC38F0FB0E91
:10072000DBCF18F0FC0EDBCF19F0FD0EDBCF1AF09B
:10073000FE0EDBCF1BF0FFEC3AF018C02BF019C017
:100740002CF01AC02DF01BC02EF02CEC6CF02BC03E
:1007500014F02CC015F02DC016F02EC017F094EC3C
:1007600034F0EECF20F0EECF21F0EECF22F0EFCF3D
:1007700023F0FFEC3AF020C02BF021C02CF022C077
:100780002DF023C02EF02CEC6CF02BC01CF02CC0F4
:100790001DF02DC01EF02EC01FF099EC36F014C0D5
:1007A0002BF015C02CF016C02DF017C02EF042EC27
:1007B0006BF02BC010F02CC011F02DC012F02EC029
:1007C00013F08EC030F08FC031F090C032F091C085
:1007D00033F02CEC6CF02BC00CF02CC00DF02DC0C5
:1007E0000EF02EC00FF099EC36F048EC39F007C04F
:1007F0002EF043EC6BF0C3EC37F080EC38F0D9EC22
:100800006BF02BC092F02CC093F02DC094F02EC052
:1008100095F094EC34F02BC0EEFF93C0EEFF94C043
:10082000EEFF95C0EEFF13EC37F0FF0EEE180EE171
:10083000FF0EED180BE10001926B936B946B956BBF
:1008400094EC34F0EE6AEE6AEE6AEE6A92C02AF038
:1008500093C02BF094C02CF095C02DF072EF34F0C3
:1008600004004EC6E6FF4FC6E6FF50C6E6FF51C67F
:10087000E6FFCCDBE552E552E552E552F3CF00F05E
:10088000F4CF01F000C0E6FF01C0E6FF4F0EE66EB8
:10089000A70EE66E000EE66E200EE66E030EE66E06
:1008A000ECEC74F0026E070EE15E0250200EE66E74
:1008B000030EE66EDCEC77F0E552E5521200D0DF75
:1008C0001E0EE66EB10EE66E000E43EC37F004012C
:1008D000236B040123510BE10A0E85EC38F0D1DCC7
:1008E000F1EC37F09EEC3BF0C6EC64F0F2D7020E70
:1008F000235DB6DF7C0EE66EB10EE66E000E43EFB2
:1009000037F004004C0EE66EA70EE66E000EE66EA3
:10091000000EE66E020EE66EECEC74F0006E050E54
:10092000E15E0050000EE66E020EE66EDCEC77F043
:10093000E552E55295DF470EE66EA70EE66E000E15
:10094000E66E52EC77F0E552E552E55299C0E6FFCB
:100950009AC0E6FF9BC0E6FF000EE66E020EE66E52
:100960004CEC74F0006E050EE15E0050000EE66E79
:10097000020EE66EDCEC77F0E552E552450EE66ECF
:10098000A70EE66E000EE66E52EC77F0E552E552E9
:10099000E55296C0E6FF97C0E6FF98C0E6FF000E5E
:1009A000E66E020EE66E4CEC74F0006E050EE15E33
:1009B0000050000EE66E020EE66EDCEC77F0E552BB
:1009C000E5522F0EE66EA70EE66E000EE66E000EE6
:1009D000E66E020EE66E4CEC74F0006E050EE15E03
:1009E0000050000EE66E020EE66EDCEC77F0E5528B
:1009F000E55200018351E66EE66A00016451E66E3D
:100A0000E66A5AC6E6FF5BC6E6FF5CC6E6FF5DC661
:100A1000E6FF56C6E6FF57C6E6FF58C6E6FF59C6CC
:100A2000E6FF44C6E6FF45C6E6FF01C6E6FF02C68E
:100A3000E6FF03C6E6FF04C6E6FF8350800B01E035
:100A4000010EE66EE66A8350400B01E0010EE66E91
:100A5000E66A8350200B01E0010EE66EE66A8350E1
:100A6000100B01E0010EE66EE66A8350080B01E010
:100A7000010EE66EE66A8350040B01E0010EE66E9D
:100A8000E66A8350020B01E0010EE66EE66A8350CF
:100A9000010BE66EE66A00016151E66EE66AA00EA1
:100AA000E66EA60EE66E000EE66E000EE66E020E16
:100AB000E66EECEC74F0006E290EE15E0050000E64
:100AC000E66E020EE66EDCEC77F0E552E5520601CA
:100AD000A651E66EE66A7850E66EE66A6AC6E6FFFA
:100AE0006BC6E6FF6CC6E6FF6DC6E6FF92C62AF04F
:100AF00093C62BF094C62CF095C62DF04EC62FF061
:100B00004FC630F050C631F051C632F04AEC78F0A2
:100B10002AC000F02BC001F02CC002F02DC003F061
:100B200000C0E6FF01C0E6FF02C0E6FF03C0E6FF2B
:100B300092C6E6FF93C6E6FF94C6E6FF95C6E6FFBB
:100B40008EC6E6FF8FC6E6FF90C6E6FF91C6E6FFBB
:100B500052C6E6FF53C6E6FF54C6E6FF55C6E6FF9B
:100B60004AC6E6FF4BC6E6FF4CC6E6FF4DC6E6FFAB
:100B700062C6E6FF63C6E6FF64C6E6FF65C6E6FF3B
:100B80008AC6E6FF8BC6E6FF8CC6E6FF8DC6E6FF8B
:100B900086C6E6FF87C6E6FF88C6E6FF89C6E6FF8B
:100BA0006EC6E6FF6FC6E6FF70C6E6FF71C6E6FFDB
:100BB0004EC6E6FF4FC6E6FF50C6E6FF51C6E6FF4B
:100BC000E10EE66EA50EE66E000EE66E000EE66E17
:100BD000020EE66EECEC74F0046E350EE15E04502D
:100BE000000EE66E020EE66EDCEC77F0E552E552A2
:100BF00029C4E6FF2AC4E6FF2BC4E6FF2CC4E6FFA7
:100C000066C6E6FF67C6E6FF68C6E6FF69C6E6FF9A
:100C100072C6E6FF73C6E6FF74C6E6FF75C6E6FF5A
:100C200076C6E6FF77C6E6FF78C6E6FF79C6E6FF3A
:100C30007AC6E6FF7BC6E6FF7CC6E6FF7DC6E6FF1A
:100C40007EC6E6FF7FC6E6FF80C6E6FF81C6E6FFFA
:100C5000820EE66EA50EE66E000EE66E000EE66EE5
:100C6000020EE66EECEC74F0006E1D0EE15E0050BC
:100C7000000EE66E020EE66EDCEC77F0E552E55211
:100C80000401CF6B030E0401CF5D01E396D1040193
:100C9000CF513A0DF3CFE9FFF4CFEAFF000EE9267A
:100CA000050EEA22060EE926000EEA22EF5001E1C7
:100CB00081D10401CF513A0DF3CFE9FFF4CFEAFF20
:100CC000000EE926050EEA220D0EE926000EEA22A4
:100CD000170EE926000EEA22EECFE6FFEFCFE6FF81
:100CE0000401CF513A0DF3CFE9FFF4CFEAFF000E34
:100CF000E926050EEA220D0EE926000EEA22150E5F
:100D0000E926000EEA22EECFE6FFEFCFE6FF040170
:100D1000CF513A0DF3CFE9FFF4CFEAFF000EE926F9
:100D2000050EEA220D0EE926000EEA22290EE9261A
:100D3000000EEA22EECFE6FFEFCFE6FF0401CF512F
:100D40003A0DF3CFE9FFF4CFEAFF000EE926050ED6
:100D5000EA220D0EE926000EEA22270EE926000EF1
:100D6000EA22EECFE6FFEFCFE6FF0401CF513A0DC6
:100D7000F3CFE9FFF4CFEAFF000EE926050EEA22E1
:100D80000D0EE926000EEA22090EE926000EEA22DF
:100D9000EECFE6FFEFCFE6FF0401CF513A0DF3CFE0
:100DA000E9FFF4CFEAFF000EE926050EEA220D0E58
:100DB000E926000EEA22110EE926000EEA22EECF05
:100DC000E6FFEFCFE6FF0401CF513A0DF3CFE9FF85
:100DD000F4CFEAFF000EE926050EEA220D0EE92601
:100DE000000EEA22130EE926000EEA22EECFE6FFFD
:100DF000EFCFE6FF0401CF513A0DF3CFE9FFF4CF77
:100E0000EAFF000EE926050EEA220D0EE926000E85
:100E1000EA22050EE926000EEA22EECFE6FFEFCF2A
:100E2000E6FF0401CF513A0DF3CFE9FFF4CFEAFF1B
:100E3000000EE926050EEA220D0EE926000EEA2232
:100E4000030EE926000EEA22EECFE6FFEFCFE6FF23
:100E50000401CF513A0DF3CFE9FFF4CFEAFF000EC2
:100E6000E926050EEA220D0EE926000EEA22EE52D0
:100E7000EECFE6FFEFCFE6FF0401CF51E66EE66A64
:100E80000A0EE66EA50EE66E000EE66E000EE66E2B
:100E9000020EE66EECEC74F0006E1B0EE15E00508C
:100EA000000EE66E020EE66EDCEC77F0E552E552DF
:100EB0000401CF513A0DF3CFE9FFF4CFEAFF000E62
:100EC000E926050EEA220D0EE926000EEA221F0E83
:100ED000E926000EEA22EECF02F0EECF03F0EECFCD
:100EE00004F0EFCF05F0306A316A7A0E326E440EAC
:100EF000336E02C02BF003C02CF004C02DF005C0EF
:100F00002EF02CEC6CF03CEC6DF02CC000F02DC001
:100F100001F000C0E6FF01C0E6FF0401CF513A0D29
:100F2000F3CFE9FFF4CFEAFF000EE926050EEA222F
:100F30000D0EE926000EEA22230EE926000EEA2213
:100F4000EECF08F0EECF09F0EECF0AF0EFCF0BF0C6
:100F5000306A316A7A0E326E440E336E08C02BF05E
:100F600009C02CF00AC02DF00BC02EF02CEC6CF058
:100F70003CEC6DF02CC006F02DC007F006C0E6FF7B
:100F800007C0E6FFE90EE66EA40EE66E000EE66E02
:100F9000000EE66E020EE66EECEC74F00C6E090EBE
:100FA000E15E0C50000EE66E020EE66EDCEC77F0B1
:100FB000E552E5520401CF2B65D60001F4510BE058
:100FC000D10EE66EA40EE66E000EE66E52EC77F0E1
:100FD000E552E552E55204001200250EE66EB20E0F
:100FE000E66E000E43EC37F06F0EE66EB20EE66E64
:100FF000000E43EC37F00001F45107E0D10EE66E2D
:10100000A40EE66E000E43EC37F012006DEC34F0E7
:10101000DAEC35F002E27AEC35F0FB0EDBCFB6F617
:10102000FC0EDBCFB7F6FD0EDBCFB8F6FE0EDBCF46
:10103000B9F6B6C6AEF6B7C6AFF6B8C6B0F6B9C61C
:10104000B1F612EC39F0A2EC36F0B9C62DF04AEC4C
:1010500078F02AC0AEF62BC0AFF62CC0B0F62DC08B
:10106000B1F612EC39F09FEC35F0B6C6B2F6B7C661
:10107000B3F6B8C6B4F6B56F3C0E2F6E306AA2EC6C
:1010800036F0B5C62DF04AEC78F02AC0B2F62BC087
:10109000B3F62CC0B4F62DC0B5F63C0E2F6E306AF8
:1010A0009FEC35F0B6C6E6FFB7C6E6FFB8C6E6FF6A
:1010B000E66EB2C6E6FFB3C6E6FFB4C6E6FFB5C647
:1010C000E6FFAEC6E6FFAFC6E6FFB0C6E6FFB1C6B6
:1010D000E6FFBF0EE66EA40EE66E000EABEC36F039
:1010E000110E91EF38F06DEC34F0DAEC35F002E2ED
:1010F0007AEC35F0FB0EDBCFC2F6FC0EDBCFC3F68D
:10110000FD0EDBCFC4F6FE0EDBCFC5F6C2C6BAF6C7
:10111000C3C6BBF6C4C6BCF6C5C6BDF612EC39F0F4
:10112000B4EC36F0C5C62DF04AEC78F02AC0BAF619
:101130002BC0BBF62CC0BCF62DC0BDF612EC39F0AE
:10114000AFEC35F0C2C6BEF6C3C6BFF6C4C6C0F625
:10115000C16F3C0E2F6E306AB4EC36F0C1C62DF074
:101160004AEC78F02AC0BEF62BC0BFF62CC0C0F601
:101170002DC0C1F63C0E2F6E306AAFEC35F0BEC606
:10118000E6FFBFC6E6FFC0C6E6FFC1C6E6FFBAC6B9
:10119000E6FFBBC6E6FFBCC6E6FFBDC6E6FFB30E74
:1011A000E66EA40EE66E000EABEC36F00D0E91EF7F
:1011B00038F06DEC34F0FE0EDBCF01F0800E011440
:1011C00007E01AEC37F0006C011E000E012202D07D
:1011D0001AEC37F000C0F3FF01C0F4FF72EF34F0F7
:1011E0006DEC34F093EC35F002E6E6EC35F00BE212
:1011F00044EC35F0000E006C011E0122021E02229A
:10120000031E032202D044EC35F090EC36F072EF6E
:1012100034F04FEC39F0C3EC37F080EC39F026ECC9
:1012200034F017EC39F0AB0EE66EA40EE66E000E4D
:1012300093EF3AF04FEC39F008EC34F085EC39F0EC
:1012400017EC39F0A30EE66EA40EE66E000E93EFD7
:101250003AF036EC39F002E6E6EC35F002E22D0E1B
:101260008D6F58EC34F029EC6BF008EC34F02FEC77
:1012700035F0D8902D50000A08E6DC0E2A5C050EE9
:101280002B58000E2C58000E2D5815E22FEC35F07F
:10129000A5EC34F08DC004F0056A04BE0568F1ECDD
:1012A00036F09D0EE66EA40EE66E000E1CEC35F0D8
:1012B0002AEC37F035D0306A316A80EC39F00FEC27
:1012C00038F026EC34F0DFC0E6FFE66EBFEC3AF013
:1012D000A5EC34F02FEC35F02AC004F02BC005F05B
:1012E0002CC006F02DC007F02AC0E6FF2BC0E6FF99
:1012F0002CC0E6FF2DC0E6FF8DC008F0096A08BECD
:10130000096808C0E6FF09C0E6FF900EE66EA40E6D
:10131000E66E000E1CEC35F00A6E0F0EE15E0A5010
:10132000F3EF37F036EC39F002E6E6EC35F002E2A6
:101330002D0E8D6F58EC34F029EC6BF0C3EC37F0C8
:10134000200E326E410E336ED9EC6BF02BC0C3F021
:101350002CC0C4F02DC0C5F02EC0C6F0AFEC37F0E5
:10136000C3C02BF0C4C02CF0C5C02DF0C6C02EF0F9
:1013700091EC37F085EC39F01CDFE552E552C3EC17
:101380003AF02FEC37F017EC39F013DFE552E55265
:10139000F3CF02F0F4CF03F02FEC37F08DC004F060
:1013A000056A04BE0568F1EC36F0860EE66EA40E02
:1013B000E66E000E1CEC35F02AEC37F0F3EF37F058
:1013C0006DEC34F0C8EC34F034EC36F001344FE21C
:1013D0000050FA08000E01544AE234EC36F0FF0ED9
:1013E00000180AE1015008E10001775101E191D1B3
:1013F000A3EC72F0010E90D134EC36F0FE0E001822
:1014000009E1015007E1A3EC72F00001B8EC34F0FF
:10141000040E2AD034EC36F0FD0E001809E101501C
:1014200007E10001010E776FA3EC72F0FD0E74D19D
:1014300034EC36F0FC0E001808E1015006E1000122
:10144000776BA3EC72F0FC0E67D134EC36F0FB0E38
:1014500000180DE101500BE10001776BA3EC72F075
:101460000001B8EC34F0050E1CEC39F055D1000148
:10147000775101E14ED10001FF51000801E349D14C
:10148000FF07B8EC34F0040E2DEC3AF0EFCFC7F6BE
:1014900030EC04F0FB0EDBCFE6FFFC0EDBCFE6FF0B
:1014A000FD0EDBCFE6FF52EC77F0E552E552E55258
:1014B0000001B8EC34F02AEC35F0FF51E66EE66A34
:1014C000740EE66EA40EE66E000E69EC3AF00601AC
:1014D000C66BC651C62BC75D07E1000EE66EB50EA2
:1014E000E66E000E43EC37F08FEC34F007E1200E8F
:1014F000E66EB50EE66E000E43EC37F08FEC34F07E
:1015000007E1500EE66EB50EE66E000E43EC37F0C6
:101510008FEC34F007E1730EE66EB50EE66E000E4A
:1015200043EC37F08FEC34F007E1960EE66EB50E23
:10153000E66E000E43EC37F08FEC34F007E1C70E97
:10154000E66EB50EE66E000E43EC37F08FEC34F02D
:1015500007E1FB0EE66EB50EE66E000E43EC37F0CB
:101560008FEC34F007E1300EE66EB60EE66E000E3C
:1015700043EC37F08FEC34F007E1690EE66EB60EFF
:10158000E66E000E43EC37F08FEC34F007E1970E77
:10159000E66EB60EE66E000E43EC37F08FEC34F0DC
:1015A00007E1BE0EE66EB40EE66E000E43EC37F0B9
:1015B0008FEC34F007E1DE0EE66EB40EE66E000E40
:1015C00043EC37F08FEC34F007E1EE0EE66EB30E2D
:1015D000E66E000E43EC37F08FEC34F007E1C70EF7
:1015E000E66EB60EE66E000E43EC37F08FEC34F08C
:1015F00007E1080EE66EB70EE66E000E43EC37F01C
:101600008FEC34F007E12E0EE66EB70EE66E000E9C
:1016100043EC37F08FEC34F007E1540EE66EB70E72
:10162000E66E000E43EC37F08FEC34F007E1800EED
:10163000E66EB70EE66E000E43EC37F08FEC34F03A
:1016400007E1980EE66EB70EE66E000E43EC37F03B
:101650008FEC34F007E1AF0EE66EB70EE66E000ECB
:1016600043EC37F08FEC34F007E1530EE66EBB0E1F
:10167000E66E000E43EC37F08FEC34F007E1910E8C
:10168000E66EBB0EE66E000E43EC37F08FEC34F0E6
:1016900007E1B00EE66EBB0EE66E000E43EC37F0CF
:1016A0008FEC34F007E1DC0EE66EB70EE66E000E4E
:1016B00043EC37F00601C651D880C75518E2C75130
:1016C000006E016AD890015004E6FA0E005C000E2C
:1016D00001580DE2C751E66EE66A5A0EE66EA40E98
:1016E000E66E000E7FEC37F0070EFFEC33F00001E2
:1016F000FF5102E10001776B0001B8EC34F0050EF8
:1017000083EC36F0B8EC34F0EE6AEE6AEE6AEE6A1C
:10171000B2D6A3EC72F0000E72EF34F00001010EAD
:10172000666F83A470D09EEC3BF005C600F006C641
:1017300001F007C602F008C603F0640E2F6E306A8F
:10174000316A326A05C62AF006C62BF007C62CF0AD
:1017500008C62DF04AEC78F0A5EC34F0BDEC36F07C
:1017600055DCF1EC37F0F3CF04F0F4CF05F02FECBB
:1017700037F0400EE66EA40EE66E000ED1EC33F0AC
:101780002AEC37F0010EE66EE66AC6EC36F0E66E3D
:10179000C6EC36F0020EAAEC37F092C62AF093C6D9
:1017A0002BF094C62CF095C62DF04EC62FF04FC6E8
:1017B00030F050C631F051C632F04AEC78F0A5EC6A
:1017C00034F092C6E6FF93C6E6FF94C6E6FF95C6E0
:1017D000E6FFBDEC36F0200EE66EA40EE66E000EBF
:1017E000D1EC33F0046E110EE15E0450010EE66E92
:1017F000030EAAEC37F0880EE66E130E9AEC3AF060
:10180000C6EC64F08ED70001666B12006DEC34F00C
:101810001B0EF6EC36F05B0EF6EC36F0320EF6EC04
:1018200036F04A0EF6EC36F0110EE66EB10EE66EAC
:10183000000E43EC37F0C40EE66EB00EE66E000EFE
:1018400043EC37F072EF34F06DEC34F000017A5174
:1018500024E17B5108E09EEC39F09F0E036EAA0E46
:10186000046E000E07D09EEC39F0650E036EAB0ED1
:10187000046E000E0CEC37F0160E48EC36F028C063
:1018800006F029C007F02AC008F0A8EC38F00CECEC
:1018900035F0FE0EDBCF7CF027D0FE0EDB500601CC
:1018A000C85D1DE00001816BFBEC6FF08B920401C1
:1018B000D06BD0510A080FE313EC36F0D02532EC90
:1018C00038F0010EE66EE66A5AEC35F0FDEC34F0C5
:1018D0000401D02BEED7FE0EDBCFC8F605D013ECFB
:1018E00036F00A0F32EC38F0010EE66EE66A5AEC7A
:1018F00035F0E66A010EE66E5AEC35F0E66A020E45
:10190000E66E5AEC35F0E66A030EE66E5AEC35F0F8
:1019100072EF34F00401D16B030ED15D07E2D151B7
:10192000E5EC36F0FE0EEF6ED12BF6D70001D85164
:101930008AEC39F002E1765124E076510EE00401A0
:10194000D251D22B32080DE20601C92BC95105082C
:1019500001E2C96B0401D26B04D0030ED825060145
:10196000C96FE66AC9C6E6FF34EC00F0E552E552FD
:10197000E66E0001D851E5EC36F0E552E750EF6E27
:101980001200D851E5EC36F0EF6812006DEC34F03F
:10199000030EE126010EDB6A00017B5104E1825156
:1019A00002E1855102E0030E79D2D8C0DFFFDEEC00
:1019B0003AF01FEC39F0EE6AED6A010EE66E51EC7A
:1019C00035F0DEEC3AF0CFEC36F0EE50ED1006E0FC
:1019D00063EC36F00BE1010EE66E05D063EC36F0F9
:1019E00005E0E66A010EE66E34EC37F0D950020FDE
:1019F000E66E000EDA20E66E5DDAE552E552020E82
:101A0000DB500001F35D0AE18B96010E7B6F020E45
:101A1000DBCFE6FF19DFE552020E40D29EEC3BF031
:101A20003AEC11F05AEC38F00DE200500408000EC8
:101A3000015408E206019A0ECA6F990ECB6FCC6F63
:101A40003E0E11D0DF508AEC39F007E00601CA6B78
:101A5000CB6BC00ECC6F3F0E06D00601EAEC35F022
:101A600003E067EC36F0CD6F0001865169E08EEC43
:101A700037F021EC37F001AE02D00268036855EC74
:101A800039F004E6D8802C0E04EC37F014E28DBE59
:101A900025D0BAEC38F0CFEC35F08D8E0001806F98
:101AA000F45107E0060EE66EA40EE66E000E43EC5F
:101AB00037F08D8013D08DAE11D0BAEC38F083ECB6
:101AC00036F08D9E0001806BF45107E0ED0EE66E5E
:101AD000A30EE66E000E43EC37F08D808EEC37F0EF
:101AE00021EC37F001AE02D00268036855EC39F002
:101AF00004E6D880900E04EC37F012E28DB620D0C8
:101B00008DAE1ED00001010E876FF45107E0C90EA3
:101B1000E66EA30EE66E000E43EC37F08D8610D015
:101B20008DA60ED08DAE0CD00001876BF45107E06E
:101B3000A60EE66EA30EE66E000E43EC37F08D9611
:101B4000A1EC3AF02D500118E8AE02D0013404D0D7
:101B50000050025C0150035801E3A1D08EEC37F035
:101B6000EECF08F0EFCF09F00C6A0D6A200E0E6E72
:101B7000410E0F6EC1EC38F00CC02BF00DC02CF0F4
:101B80000EC02DF02E6ED9EC6BF03CEC6DF02CC03D
:101B90000AF02DC00BF009502D18E8AE02D00B341E
:101BA00004D00A50085C0B50095801E378D0010EAC
:101BB000DB5045E00001865142E00601CE51CF11D5
:101BC00017E05AEC39F00001F45112E02AEC38F039
:101BD00001E0010EA5EC39F022EC39F0590EE66E69
:101BE000A30EE66E000E7FEC37F00D0EFFEC33F027
:101BF000DF5012EC34F004013F0551E1DF5027ECD7
:101C000039F00601CE51CF114AE0EAEC35F003E09D
:101C100067EC36F0CD6F0001F4513DE02AEC38F06E
:101C200001E0010EA5EC39F022EC39F0120EE66E5F
:101C3000A30EE66E000E7FEC37F00D0E23D0DF50C2
:101C400027EC39F0DF5012EC34F00601CE51CF1101
:101C500026E0EAEC35F003E067EC36F0CD6F0001EA
:101C6000F45119E02AEC38F001E0010EA5EC39F04E
:101C70002FEC36F0BA0EE66EA20EE66E000E7FEC8A
:101C800037F00F0EFFEC33F0F70EE66EA20EE66EA5
:101C9000000E43EC37F00601CE6BCF6B8B968EECCB
:101CA00037F0EEEC35F0410E80EC34F02D50011899
:101CB000E8AE02D0013404D00050025C0150035859
:101CC00046E23FEC38F01CEC39F014E1DEEC3AF07F
:101CD0001FEC39F0EE2AEF225AEC38F00BE20050FC
:101CE0000108000E015406E20601662B000E672370
:101CF00068236923DEEC3AF0020ECFEC35F059ECA4
:101D00003AF002E10150D11922E0A7EC3AF003AE1B
:101D100002D004680568CAEC38F004E6D880E10E09
:101D200060EC35F014E20001F4510FE02AEC38F0D9
:101D300001E0010EA5EC39F031EC3AF06D0EE66EE3
:101D4000A20EE66E000E43EC37F0ADEC3AF0A1ECDB
:101D50003AF001502D18E8AE02D0033404D00250FE
:101D6000005C035001582CE23FEC38F083EC36F075
:101D700059EC3AF002E10150D11922E0A7EC3AF017
:101D800003AE02D004680568CAEC38F004E6D880D7
:101D9000E10E60EC35F014E20001F4510FE02AECA2
:101DA00038F001E0010EA5EC39F031EC3AF0560EB6
:101DB000E66EA20EE66E000E43EC37F0ADEC3AF0A4
:101DC0005AEC38F00AE200500108000E015405E216
:101DD000DEEC3AF0050ECFEC35F05AEC38F00AE2C2
:101DE00000500208000E015405E2DEEC3AF0090E44
:101DF000CFEC35F0DF508AEC39F010E006010051ED
:101E0000010B0CE10051020B09E10051040B06E14A
:101E1000E66A51EC35F0000901E1E8D50001865190
:101E200003E0876B8D9E806BE66A51EC35F000090C
:101E300013E00001F45107E0070EE66EA20EE66E15
:101E4000000E43EC37F00001865102E0D3EC36F08F
:101E5000EBEC36F0040E22D006010051010B06E136
:101E60000051020B03E10051040B1AE00001F45190
:101E700007E0B10EE66EA10EE66E000E43EC37F001
:101E80000001865102E0D3EC36F0060100A105D036
:101E900000910001010E7B6F8B96020EF36E01D054
:101EA000F36AF46A030EE15C02E2E16AE552E16E74
:101EB00072EF34F06DEC34F083380F0B0001F31542
:101EC0000401D36F0001F3510401D35D43E100012C
:101ED000F3510601D25D03E0040E52EC34F0DCEC69
:101EE00036F02FE10001F3510601D25D13E0C1ECA1
:101EF00034F0070EEF6E61EC39F00401D451E66E58
:101F0000E66A950EE66EA10EE66E000EE1EC3AF082
:101F10003DEC39F00001845110E0750EE66EA10E23
:101F2000E66E000E7FEC37F0050EFFEC33F0F3C0E9
:101F3000D2F6C1EC34F0070EEF6E0001846BF35162
:101F400050D0D4516EEC36F0210EE66EA10EE66E46
:101F5000000E40D0D3510601D25D3EE0030EE66E86
:101F6000DDEC64F0E552040E52EC34F0DCEC36F0BB
:101F700029E1C1EC34F0D3C4EFFF61EC39F0C1ECDE
:101F800034F0EF506EEC36F0E20EE66EA00EE66E28
:101F9000000E69EC3AF0C1EC34F0EFCFD2F63DEC34
:101FA00039F0000184510AE1C00EE66EA00EE66E23
:101FB000000E7FEC37F0050EFFEC33F00001010E50
:101FC000846F0ED0D4516EEC36F06D0EE66EA00E1E
:101FD000E66E000E69EC3AF0C1EC34F0D2C6EFFFC9
:101FE000000E72EF34F024EC38F00AE10401D56BF6
:101FF00039EC37F001E3D86BB3EC3AF0F9E08ADC66
:10200000060100A31ED08B840401D56B39EC37F098
:1020100001E3D86BB3EC3AF0F9E07CDC75EC36F018
:102020005B0EE66EA00EE66E000EE1EC3AF0400E9E
:10203000E66EA00EE66E000E43EC37F08B940601C0
:1020400000930051010B08E1E66A53EC36F00009F9
:102050001BE000017A5118E000017A5106E17B5142
:1020600002E0000E01D0010E7B6FACEC39F0160ED1
:10207000E66EA00EE66E000E43EC37F000017A6BC0
:10208000060100918B906FD004010F056AE0E66AAB
:102090007AEC34F0000967E0010EE66E53EC36F09E
:1020A0000001010E7A6F8B8004010F512BE16CEC63
:1020B00038F004E6D880230E60EC35F023E200010E
:1020C000010E7A6F8B90845111E10601D32B8AECBB
:1020D00038F0080E0601D35D01E3D36BE4EC3AF06F
:1020E000FE0EE66E9F0EE66E000E37D0B9EC3AF0AB
:1020F00001E39E6B12EC3AF0D70EE66E9F0EE66E91
:10210000000E2BD06CEC38F004E6D880230E60EC87
:1021100035F025E20001010E7A6F8B90845112E1B7
:102120000601D3078AEC38F0080E0601D35D02E3FE
:10213000070ED36FE4EC3AF0C00EE66E9F0EE66E2B
:10214000000E0BD0B9EC3AF001E39E6B12EC3AF0C2
:10215000A90EE66E9F0EE66E000E43EC37F08B8004
:1021600002D08AEC38F000017A5102E08B8001D075
:102170008B9085516AE17B5102E1825164E063EC0E
:1021800036F005E0E66A010EE66E34EC37F0040145
:102190001F0543E0E66A25EC35F0000956E08B8424
:1021A00004011F511AE11B35000E1B1909E6D880E6
:1021B000010E1855000E1955000E1A55000E1B552C
:1021C0000CE252EC38F0CFEC35F0F8EC39F06D0E53
:1021D000E66EA20EE66E000E1DD01F5136E118C449
:1021E000E6FF19C4E6FF1AC4E6FF1BC4E6FFACEC29
:1021F00034F004E6D880010E60EC35F026E252ECB3
:1022000038F083EC36F0F8EC39F0560EE66EA20E9C
:10221000E66E000E43EC37F018D0000182510CE15D
:10222000D85127EC39F047EC3AF0020ECFEC35F0FC
:10223000D85112EC34F003D0D85127EC39F08FECA0
:1022400039F08B9402D0C6EC0CF000017B5107E012
:10225000E66A93EC39F00BE1010EE66E05D0E66A12
:1022600093EC39F004E0E66AE66A34EC37F00601F4
:10227000D35112008AEC0CF000017C51070A18E0DF
:10228000010A14E0050A10E0010A0CE0060A08E061
:10229000050A04E0010A0EE19BEF13F04AEF13F088
:1022A00024EF14F00AEF13F0EDEF13F0CEEF14F07B
:1022B000DAEF12F086EF14F06DEC34F0070EE12641
:1022C000050EDB6A060EDB6AFBEC6FF000017B514A
:1022D00004E105012A512B1102E0030E09D000018F
:1022E000806B0401355136113711381104E1020EAB
:1022F000F36EF46A82D0DF6AFE0EDB50D880DF54C2
:1023000074E3C7EC37F076EC34F00A0E306ED70E7B
:10231000316E230E326E3C0ECEEC34F018EC38F0F9
:1023200064E1010EDB6AF4EC35F0D950010FC7EC23
:1023300035F002E68FEC35F00DE2D9EC34F02A0EE0
:10234000326E3F0ED2EC39F005E1D950010F3AEC74
:1023500035F0EBD7010EDB6AF4EC35F0D950010F04
:10236000C7EC35F002E68FEC35F00DE2D9EC34F035
:10237000AA0E326E3E0ED2EC39F005E1D950010FB3
:102380003AEC35F0EBD776EC34F0660E306E316E09
:10239000326E3F0E3CEC3AF028E176EC34F0CD0E94
:1023A000306ECC0E316E326E3D0E3CEC3AF01DE1DB
:1023B00076EC34F0306A316A326A3F0E3CEC3AF027
:1023C00014E106010051010B06E10051020B03E18B
:1023D0000051040B08E0010EF36E050EF3CFDBFF96
:1023E000060EDB6A02D0DF2A87D79BEC38F0050E99
:1023F000DBCF00F0060E64EC35F0070EE15C02E284
:10240000E16AE552E16E72EF34F06DEC34F0080EE3
:10241000E126060EDB6A070EDB6AFBEC6FF00001BB
:102420007B5104E105012A512B1104E0030EF36EE8
:10243000F46A85D00001806BDF6AFE0EDB50DF5C42
:1024400076E2010EDB6A030EF36E010EDBCFF4FFC2
:10245000F350F45C6AE2010EDBCFD8F024EC38F0E4
:1024600061E0C7EC37F0DCEC37F0640EEE6EED6A3D
:1024700018EC38F05AE1F4EC35F0050EDB6AD9506F
:10248000020FC7EC35F002E68FEC35F00BE29A0E46
:10249000006E020EB9EC39F005E1D950020F3AECAA
:1024A00035F0EDD7F4EC35F0050EDB6AD950020FAC
:1024B000C7EC35F002E68FEC35F00BE24D0E006E06
:1024C000010EB9EC39F005E1D950020F3AEC35F0C4
:1024D000EDD7DCEC37F0840EEE6E030EED6E55ECAE
:1024E0003AF0DCEC37F0640EEE6EED6A55EC3AF043
:1024F000DCEC37F0F40EEE6E010EED6E55EC3AF0BA
:1025000006010051010B06E10051020B03E10051ED
:10251000040B08E0010EF36E060EF3CFDBFF070E8F
:10252000DB6A03D0010EDB2A8ED7DF2A86D79BEC2D
:1025300038F0060EDBCF00F0070E64EC35F0080E25
:10254000E15C02E2E16AE552E16E72EF34F08AEC9E
:102550000CF000017C51070A18E0010A11E0050A9D
:102560000DE0010A0BE0060A05E0050A07E0010A92
:102570000EE104D0030EE66E9FDE05D0020E01D000
:10258000040EE66E42DFE5521200DAEF12F086EF3B
:1025900014F029DD0601D46FD40EE66E060EE66E49
:1025A00089DCE552E552D4C6E6FF24EC0CF0E55296
:1025B0003AEF11F000019E5120E12CEC39F0550E5C
:1025C000E66E9F0EE66E000E7FEC37F0070E42ECD3
:1025D00034F039EC36F03F0EE66E9F0EE66E000EDC
:1025E0006DEC3AF03EEC37F0290EE66E9F0EE66E8B
:1025F000000E7FEC37F0070E0BD043EC3AF0A2EC64
:1026000039F043EC3AF045EC39F043EC3AF0050E82
:1026100028EF38F000019E511BE119EC35F025EC54
:1026200036F0EA0EE66E9E0EE66E000E7FEC37F098
:10263000130E42EC34F0C90EE66E9E0EE66E000EEE
:10264000F6EC3AF0AC0EE66E9E0EE66E000E20D072
:10265000E0EC37F00DE073EC37F086EC36F0850EE9
:10266000E66E9E0EE66E000ED1EC33F075EC35F0A2
:10267000010EE66E71EC3AF06B0EE66E9E0EE66EA3
:10268000000EF6EC3AF06B0EE66E9E0EE66E000E55
:10269000C8EF3AF000019E513BE119EC35F025EC12
:1026A00036F0420EE66E9E0EE66E000E7FEC37F0C0
:1026B000130E42EC34F0D7EC35F070C5E6FF71C56F
:1026C000E6FF6EC5E6FF6FC5E6FF39EC36F0190E82
:1026D000E66E9E0EE66E000E7FEC37F0130E20ECD9
:1026E00034F0D4EC35F0AAC5E6FFABC5E6FFA8C5CB
:1026F000E6FFA9C5E6FF3EEC37F0F00EE66E9D0E54
:10270000E66E000E7FEC37F0130EB2EC34F011D011
:10271000E0EC37F002E0CBEC3AF0EFEC39F002E01D
:1027200058EC37F0F4EC39F002E0CEEC3AF02DEC56
:1027300038F0CEEF39F000019E513CE119EC35F054
:1027400036C500F037C501F0D6EC33F034C502F0E1
:1027500035C503F0F0EC33F02CEC39F0520EE66E98
:102760009D0EE66E000E98EC39F0AAEC37F039ECCD
:1027700036F03A0EE66E9D0EE66E000E6DEC3AF007
:10278000D4EC35F0AAC500F0ABC501F0D6EC33F0BF
:10279000A8C502F0A9C503F0F0EC33F03EEC37F029
:1027A000110EE66E9D0EE66E000E98EC39F077EC99
:1027B0003AF011D0E0EC37F002E0CBEC3AF0EFEC7D
:1027C00039F002E058EC37F0F4EC39F002E0CEECEE
:1027D0003AF02DEC38F0CEEF39F000019E5121E1B6
:1027E000D1EC3AF0A2EC39F0D7EC35F070C500F03E
:1027F00071C501F0D6EC33F06EC502F06FC503F081
:10280000F0EC33F039EC36F0D30EE66E9C0EE66E4B
:10281000000E98EC39F0020EAAEC37F058EC36F0C6
:1028200011D043EC3AF0A2EC39F0D5EC3AF070EC70
:1028300035F002E058EC37F0A4EC38F071EC3AF0E7
:1028400048EC34F0C8EF3AF000019E5148E112C55F
:10285000E6FF13C5E6FF10C4E6FF11C4E6FF12C48D
:10286000E6FF13C4E6FF29C4E6FF2AC4E6FF2BC433
:10287000E6FF2CC4E6FF2CEC39F0B10EE66E9C0EA0
:10288000E66E000E7FEC37F0110E42EC34F00501DD
:1028900001511BE00251E66EE66A8A0EE66E9C0E5E
:1028A000E66E000E6DEC3AF031C4E6FF32C4E6FF8E
:1028B00033C4E6FF34C4E6FF690EE66E9C0EE66E96
:1028C000000E7FEC37F0090E07D0D1EC3AF045EC62
:1028D00039F0D1EC3AF0050EB2EC34F015D0E0EC62
:1028E00037F004E073EC37F0F9EC37F0EFEC39F047
:1028F00002E0B7EC37F0F4EC39F004E082EC37F0AA
:1029000004EC38F02DEC38F0CEEF39F000019E5198
:102910001BE1DE0EE66E9B0EE66E000E7FEC37F0DE
:10292000A2EC39F0C80EE66E9B0EE66E000EF6ECD9
:102930003AF0B20EE66E9B0EE66E000E7FEC37F0BC
:10294000050EB2EC34F011D0E0EC37F002E0CBEC45
:102950003AF0EFEC39F002E058EC37F0F4EC39F0F3
:1029600002E0CEEC3AF02DEC38F0CEEF39F09B0ED1
:10297000E66E9B0EE66E000E7FEC37F0A2EC39F0AF
:10298000840EE66E9B0EE66E000EF6EC3AF06D0ECF
:10299000E66E9B0EE66E000EC8EF3AF000019E5107
:1029A00054E1F9EC3AF0050183AF02D0D89003D09E
:1029B000825D000E83590BE268EC39F04E0EE66E34
:1029C0009B0EE66E000ED1EC33F025EC37F0010ED5
:1029D000E66EAAEC37F08DB20AD068EC39F039EC2B
:1029E00036F02F0EE66E9B0EE66E000E09D06EECF2
:1029F00039F039EC36F0100EE66E9B0EE66E000EE6
:102A0000D1EC33F0026E090EE15E0250A4EC38F016
:102A1000AAEC37F0F9EC3AF005010FAF02D0D890EC
:102A200003D00E5D000E0F590BE26EEC39F0F20E82
:102A3000E66E9A0EE66E000ED1EC33F025EC37F020
:102A4000010EE66E77EC3AF015D0E0EC37F004E0DA
:102A500073EC37F0F9EC37F0EFEC39F002E0B7EC5B
:102A600037F0F4EC39F004E082EC37F004EC38F0A5
:102A70002DEC38F0CEEF39F06DEC34F0020EE1269B
:102A8000DE6ADD6ADECF00F0DDCF01F0D8900150C4
:102A900004E6030E005C000E01581FE2FE0EDB5040
:102AA000E66EDECFE9FFDDCFEAFF3A0EEA02F3CFB2
:102AB000EAFFE902F3CFE9FFF450EA26000EE92627
:102AC000050EEA22CFEC36F0E552E750EE6EED6AE5
:102AD000DF2A010ED7E3DB2AD5D7020EE15C02E242
:102AE000E16AE552E16E72EF34F0D8C0D6F400012D
:102AF000D86B47EC3AF0FBEC35F002E0C6EC0CF09A
:102B000039EC37F0F6E3FBEC6FF0D6C4D8F0010EE9
:102B100052EF34F0D9CFE6FFE1CFD9FF110EE12615
:102B2000E80EF36E040EF3CFDBFF030EF36E050E1B
:102B3000F3CFDBFF060EDB6A070EDB6A080EDB6AEB
:102B4000090EDB6A0A0EDB6A0B0EDB6A580EF36EA7
:102B50000C0EF3CFDBFF0F0EDB6A100EDB6A0001F9
:102B6000816B9EEC3BF09EEC3BF006010095000172
:102B70009E6B7CC0E6FFB6EC70F0E552000185511B
:102B800007E08B9200017B6B0001806B1EEF2FF042
:102B9000CE0EE66E9A0EE66E000EE66E52EC77F002
:102BA000E552E552E552020E00017C5D0EE1D00EC9
:102BB000F36E040EF3CFDBFF070EF36E050EF3CFBB
:102BC000DBFF060EDB6A070EDB6A0001010E7B6F7E
:102BD0000501080503E10001010E806FFBEC6FF0B9
:102BE000010EE66EE66AE66AE66A6AEC01F0E55214
:102BF000E552E552E55200017C510DE1D950040F38
:102C0000E96EDACFEAFFD890EF36010EEB36020E0E
:102C1000EB36030EEB36E66A2FDFE552FEEC6FF083
:102C2000010EE66ED950040FE96EDACFEAFFEECF5F
:102C3000E6FFEECFE6FFEECFE6FFEFCFE6FF6DEC6F
:102C400002F0006E050EE15E0050DE6ADE6ADE6AAA
:102C5000DD6ADD52DD520001865102E0ABEF21F06A
:102C6000060E00017C5D02E01DEF1BF00D0EDB6A1D
:102C70000E0EDB6A0D0EDBCF00F00E0EDBCF01F087
:102C8000013404E200500108000E015401E285D332
:102C9000640EF36E040EF3CFDBFF050EDB6A060E47
:102CA000DB6A070EDB6A010EE66ED950040FE96E8F
:102CB000DACFEAFFEECFE6FFEECFE6FFEECFE6FF9C
:102CC000EFCFE6FF6DEC02F0006E050EE15E005006
:102CD000FEEC6FF0DE6ADE6ADE6ADD6ADD52DD522E
:102CE00080C0E6FF01EC70F0E552D9CFE9FFDACF02
:102CF000EAFFEECF00F0EECF01F0EECF02F0EFCF23
:102D000003F0D00E2F6E070E306E316A326A00C0AB
:102D10002AF001C02BF002C02CF003C02DF04AECC9
:102D200078F026C000F027C001F028C002F029C0CA
:102D300003F0005001100210031001E02BD1060136
:102D400000A530D0FBEC6FF0010EE66E95DEE5528B
:102D5000D3EC64F0060EE66EE66AE66AE66A6AECB2
:102D600001F0E552E552E552E5528B920001010E69
:102D70007B6F0001806B80C0E6FF01EC70F0E552D4
:102D80007CC0E6FFB6EC70F0E552A00EE66E9A0E3F
:102D9000E66E000EE66E52EC77F0E552E552E55233
:102DA0001EEF2FF028EC2FF00D0EDBCFE6FF0E0EFE
:102DB000DBCFE6FF840EE66E9A0EE66E000EE66E40
:102DC000000EE66E020EE66EECEC74F0006E070E7E
:102DD000E15E0050010EE66EE66A9CC0E6FFB7ECCD
:102DE00000F0E552E552E55282C500F083C501F0DE
:102DF0000A0E316E326A00C02CF001C02DF099EC41
:102E00006CF02CC000F02DC001F000C0E6FF01C046
:102E1000E6FF590EE66E9A0EE66E000EE66E000EA6
:102E2000E66E020EE66EECEC74F0026E070EE15EEA
:102E30000250640E050183AF02D0D89003D0825DAA
:102E4000000E835925E282C500F083C501F00A0E09
:102E5000316E326A00C02CF001C02DF099EC6CF09C
:102E60002CC000F02DC001F000C0E6FF01C0E6FF5D
:102E70003A0EE66E9A0EE66E000EE66E000EE66EF6
:102E8000020EE66EECEC74F0026E070EE15E02508C
:102E9000010EE66E010EE66EE66AB7EC00F0E55252
:102EA000E552E552120EE66E9A0EE66E000EE66EE2
:102EB000000EE66E020EE66EECEC74F0006E050E8F
:102EC000E15E0050010EE66E020EE66EE66AB7ECB9
:102ED00000F0E552E552E5520EC500F00FC501F0D5
:102EE0000A0E316E326A00C02CF001C02DF099EC50
:102EF0006CF02CC000F02DC001F000C0E6FF01C056
:102F0000E6FFE50EE66E990EE66E000EE66E000E2A
:102F1000E66E020EE66EECEC74F0026E070EE15EF9
:102F20000250640E05010FAF02D0D89003D00E5DA1
:102F3000000E0F5925E20EC500F00FC501F00A0E74
:102F4000316E326A00C02CF001C02DF099EC6CF0AB
:102F50002CC000F02DC001F000C0E6FF01C0E6FF6C
:102F6000F20EE66E9A0EE66E000EE66E000EE66E4D
:102F7000020EE66EECEC74F0026E070EE15E02509B
:102F8000010EE66E030EE66EE66AB7EC00F0E5525F
:102F9000E552E552D9CFE9FFDACFEAFFEE2A000E7B
:102FA000EE22EE22EE22E66AD950040FE96EDACF65
:102FB000EAFFEECFE6FFEECFE6FFEECFE6FFEFCF84
:102FC000E6FF6DEC02F0006E050EE15E00500009B8
:102FD00001E186D6640E050183AF02D0D89003D0FC
:102FE000825D000E83590CE205010F3504E20E519B
:102FF0009008010E0F5504E2010E0501626F636B2C
:10300000640E05010FAF02D0D89003D00E5D000E04
:103010000F5903E20501606B616B010EE66ED9503A
:10302000040FE96EDACFEAFFEECFE6FFEECFE6FF60
:10303000EECFE6FFEFCFE6FF6DEC02F0006E050E7F
:10304000E15E0050FBEC6FF0DE6ADE6ADE6ADD6A8C
:10305000DD52DD5280C0E6FF01EC70F0E552D9CFC1
:10306000E9FFDACFEAFFEECF00F0EECF01F0EECFCE
:1030700002F0EFCF03F0D00E2F6E070E306E316AE4
:10308000326A00C02AF001C02BF002C02CF003C04D
:103090002DF04AEC78F026C000F027C001F028C0DF
:1030A00002F029C003F0005001100210031001E0EB
:1030B0002BD1060100A530D0FBEC6FF0010EE66EBF
:1030C000DBDCE552D3EC64F0060EE66EE66AE66AF7
:1030D000E66A6AEC01F0E552E552E552E5528B9260
:1030E0000001010E7B6F0001806B80C0E6FF01ECE8
:1030F00070F0E5527CC0E6FFB6EC70F0E552A00E31
:10310000E66E9A0EE66E000EE66E52EC77F0E55231
:10311000E552E5521EEF2FF028EC2FF00D0EDBCF1D
:10312000E6FF0E0EDBCFE6FFCA0EE66E990EE66EE8
:10313000000EE66E000EE66E020EE66EECEC74F02B
:10314000006E070EE15E0050010EE66EE66A9CC05E
:10315000E6FFB7EC00F0E552E552E55282C500F01B
:1031600083C501F00A0E316E326A00C02CF001C036
:103170002DF099EC6CF02CC000F02DC001F000C0D7
:10318000E6FF01C0E6FF590EE66E9A0EE66E000EEF
:10319000E66E000EE66E020EE66EECEC74F0026E69
:1031A000070EE15E0250640E050183AF02D0D89095
:1031B00003D0825D000E835925E282C500F083C5ED
:1031C00001F00A0E316E326A00C02CF001C02DF001
:1031D00099EC6CF02CC000F02DC001F000C0E6FFAF
:1031E00001C0E6FF3A0EE66E9A0EE66E000EE66E3F
:1031F000000EE66E020EE66EECEC74F0026E070E48
:10320000E15E0250010EE66E010EE66EE66AB7EC74
:1032100000F0E552E552E5529F0EE66E990EE66E1D
:10322000000EE66E000EE66E020EE66EECEC74F03A
:10323000006E050EE15E0050010EE66E020EE66EB7
:10324000E66AB7EC00F0E552E552E5520EC500F033
:103250000FC501F00A0E316E326A00C02CF001C0B9
:103260002DF099EC6CF02CC000F02DC001F000C0E6
:10327000E6FF01C0E6FFE50EE66E990EE66E000E73
:10328000E66E000EE66E020EE66EECEC74F0026E78
:10329000070EE15E0250640E05010FAF02D0D89018
:1032A00003D00E5D000E0F5925E20EC500F00FC5CC
:1032B00001F00A0E316E326A00C02CF001C02DF010
:1032C00099EC6CF02CC000F02DC001F000C0E6FFBE
:1032D00001C0E6FFF20EE66E9A0EE66E000EE66E96
:1032E000000EE66E020EE66EECEC74F0026E070E57
:1032F000E15E0250010EE66E030EE66EE66AB7EC82
:1033000000F0E552E552E552D9CFE9FFDACFEAFF06
:10331000EE2A000EEE22EE22EE22E66AD950040FCB
:10332000E96EDACFEAFFEECFE6FFEECFE6FFEECFB3
:10333000E6FFEFCFE6FF6DEC02F0006E050EE15EFA
:103340000050000901E186D6640E05010FAF02D0DE
:10335000D89003D00E5D000E0F590CE205018335A5
:1033600004E282519008010E835504E2010E05012A
:10337000606F616B640E050183AF02D0D89003D0FB
:10338000825D000E835903E20501626B636B0D0ED3
:10339000DB2A0E0E01E3DB2A6DD48B9200017B6BDE
:1033A0000001806B05016051611105E0050162516A
:1033B000631101E035D10501405101E131D1060130
:1033C0000095590EF36E0C0EF3CFDBFF0C0EDBCF26
:1033D00000F0016A00BE016800C0E6FF01C0E6FF20
:1033E0007F0EE66E990EE66E000EE66E000EE66E3D
:1033F000020EE66EECEC74F0026E070EE15E025017
:10340000010EE66EE66A9CC0E6FFB7EC00F0E552FE
:10341000E552E552000EE66E020EE66EDCEC77F049
:10342000E552E5524C0EE66EA70EE66E000EE66E15
:1034300052EC77F0E552E552E55260C5E6FF61C512
:10344000E6FF62C5E6FF63C5E6FF680EE66E990E0D
:10345000E66E000EE66E000EE66E020EE66EECEC18
:1034600074F0006E090EE15E0050010EE66E010E72
:10347000E66EE66AB7EC00F0E552E552E552000E62
:10348000E66E020EE66EDCEC77F0E552E5524C0E8D
:10349000E66EA70EE66E000EE66E52EC77F0E55291
:1034A000E552E552510EE66E990EE66E000EE66E9E
:1034B000000EE66E020EE66EECEC74F0006E050E89
:1034C000E15E005005016251631110E1350EE66EB8
:1034D000990EE66E000EE66E000EE66E020EE66EC9
:1034E000ECEC74F0006E050EE15E0050010EE66E2D
:1034F000020EE66EE66AB7EC00F0E552E552E552E0
:10350000000EE66E020EE66EDCEC77F0E552E55258
:103510004C0EE66EA70EE66E000EE66E52EC77F0ED
:10352000E552E552E552510EE66E990EE66E000E3A
:10353000E66E000EE66E020EE66EECEC74F0006EC7
:10354000050EE15E005005016051611110E1170E9A
:10355000E66E990EE66E000EE66E000EE66E020E48
:10356000E66EECEC74F0006E050EE15E0050010EAC
:10357000E66E030EE66EE66AB7EC00F0E552E55241
:10358000E552000EE66E020EE66EDCEC77F0E552D8
:10359000E5524C0EE66EA70EE66E000EE66E52EC9D
:1035A00077F0E552E552E552010EE66E010EE66E49
:1035B00013EC70F0E552E552020EE66EDDEC64F0BD
:1035C000E5520400060100A5F7D7E66A010EE66E93
:1035D00013EC70F0E552E552FBEC6FF0010EE66E75
:1035E0003CEC15F0E552D3EC64F0060EE66EE66AAC
:1035F000E66AE66A6AEC01F0E552E552E552E55208
:103600008B920001010E7B6F0001806B80C0E6FF92
:1036100001EC70F0E5527CC0E6FFB6EC70F0E552CC
:10362000F10EE66E980EE66E000EE66E52EC77F046
:10363000E552E552E5521EEF2FF0FBEC6FF0060E5F
:10364000E66EE66AE66AE66A6AEC01F0E552E55281
:10365000E552E552F1EC6FF0010EE66EE66AE66ABD
:10366000E66A6AEC01F0E552E552E552E5520F0ECA
:10367000DB6A100EDB6AFEEC6FF0010EE66ED950CD
:10368000040FE96EDACFEAFFEECFE6FFEECFE6FFFA
:10369000EECFE6FFEFCFE6FF6DEC02F0006E050E19
:1036A000E15E00501DEC3BF080C0E6FF01EC70F0E5
:1036B000E552D9CFE9FFDACFEAFFEECF00F0EECF47
:1036C00001F0EECF02F0EFCF03F0D00E2F6E070E19
:1036D000306E316A326A00C02AF001C02BF002C09D
:1036E0002CF003C02DF04AEC78F026C000F027C083
:1036F00001F028C002F029C003F0005001100210B0
:10370000031001E0B3D23DEC3BF0000901E1DBD056
:10371000210EE96E060EEA6EEE500601155D046E8E
:10372000EE5006011659056EEE5006011759066E49
:10373000EE5006011859076E04C0E6FF05C0E6FF0B
:1037400006C0E6FF07C0E6FFF0EC08F0E552E552E0
:10375000E552E5522AC000F02BC001F02CC002F067
:103760002DC003F000C0E6FF01C0E6FF02C0E6FF87
:1037700003C0E6FF1D0EE96E060EEA6EEE5006016E
:10378000115D0C6EEE50060112590D6EEE500601E1
:1037900013590E6EEE50060114590F6E0CC0E6FF61
:1037A0000DC0E6FF0EC0E6FF0FC0E6FFF0EC08F02C
:1037B000E552E552E552E5522AC008F02BC009F067
:1037C0002CC00AF02DC00BF008C0E6FF09C0E6FFD0
:1037D0000AC0E6FF0BC0E6FF190EE96E060EEA6EA0
:1037E000EE5006010D5D146EEE5006010E59156E79
:1037F000EE5006010F59166EEE5006011059176E65
:1038000014C0E6FF15C0E6FF16C0E6FF17C0E6FFCE
:10381000F0EC08F0E552E552E552E5522AC010F00E
:103820002BC011F02CC012F02DC013F010C0E6FF19
:1038300011C0E6FF12C0E6FF13C0E6FFD40EE66E2D
:10384000980EE66E000EE66E000EE66E020EE66E56
:10385000ECEC74F0186E110EE15E1850000EE66E7E
:10386000020EE66EDCEC77F0E552E55206013D51C2
:1038700028E006013E5125E006013F5122E000010B
:103880007C5107E0010EF36E0F0EF3CFDBFF100E3D
:10389000DB6AAF0EE66E980EE66E000EE66E000E68
:1038A000E66E020EE66EECEC74F0006E050EE15E64
:1038B0000050000EE66E020EE66EDCEC77F0E5528C
:1038C000E5521DEC3BF0060100A531D0FBEC6FF09A
:1038D000010EE66E3CEC15F0E552D3EC64F0060EFA
:1038E000E66EE66AE66AE66A6AEC01F0E552E552DF
:1038F000E552E5528B920001010E7B6F0001806B57
:1039000080C0E6FF01EC70F0E5527CC0E6FFB6EC4B
:1039100070F0E552A00EE66E9A0EE66E000EE66EB0
:1039200052EC77F0E552E552E5521EEF2FF028EC0D
:103930002FF0D9CFE9FFDACFEAFFEECFE6FFEECFE7
:10394000E6FFEECFE6FFEFCFE6FF970EE66E980EAE
:10395000E66E000EE66E000EE66E020EE66EECEC13
:1039600074F0006E090EE15E0050010EE66EE66A2C
:103970009CC0E6FFB7EC00F0E552E552E552020EBE
:1039800000017C5D5AE0130EE66E9F0EE66E000E9F
:10399000E66E000EE66E020EE66EECEC74F0006E63
:1039A000050EE15E00500501065146E031C6E6FF16
:1039B00032C6E6FF33C6E6FF34C6E6FF24C500F094
:1039C00025C501F00A0E316E326A00C02CF001C02C
:1039D0002DF099EC6CF02CC000F02DC001F000C06F
:1039E000E6FF01C0E6FF34C502F035C503F00A0E5C
:1039F000316E326A02C02CF003C02DF099EC6CF0ED
:103A00002CC002F02DC003F002C0E6FF03C0E6FFA9
:103A10000EC5E6FF0FC5E6FF6F0EE66E980EE66E6A
:103A2000000EE66E000EE66E020EE66EECEC74F032
:103A3000046E0F0EE15E045049D00501065146E0C8
:103A400031C6E6FF32C6E6FF33C6E6FF34C6E6FF00
:103A500024C500F025C501F00A0E316E326A00C09F
:103A60002CF001C02DF099EC6CF02CC000F02DC0B2
:103A700001F000C0E6FF01C0E6FF34C502F035C525
:103A800003F00A0E316E326A02C02CF003C02DF032
:103A900099EC6CF02CC002F02DC003F002C0E6FFE0
:103AA00003C0E6FF0EC5E6FF0FC5E6FF470EE66E54
:103AB000980EE66E000EE66E000EE66E020EE66EE4
:103AC000ECEC74F0046E0F0EE15E0450010EE66E35
:103AD000010EE66EE66AB7EC00F0E552E552E552FB
:103AE000130EE66E9F0EE66E000EE66E000EE66E9C
:103AF000020EE66EECEC74F0006E050EE15E005016
:103B00000501405146E035C6E6FF36C6E6FF37C63A
:103B1000E6FF38C6E6FF5EC500F05FC501F00A0E9D
:103B2000316E326A00C02CF001C02DF099EC6CF0BF
:103B30002CC000F02DC001F000C0E6FF01C0E6FF80
:103B40006EC502F06FC503F00A0E316E326A02C014
:103B50002CF003C02DF099EC6CF02CC002F02DC0BD
:103B600003F002C0E6FF03C0E6FF48C5E6FF49C513
:103B7000E6FF1F0EE66E980EE66E000EE66E000E75
:103B8000E66E020EE66EECEC74F0046E0F0EE15E73
:103B90000450010EE66E020EE66EE66AB7EC00F027
:103BA000E552E552E552130EE66E9F0EE66E000EEC
:103BB000E66E000EE66E020EE66EECEC74F0006E41
:103BC000050EE15E005005017A5146E039C6E6FF78
:103BD0003AC6E6FF3BC6E6FF3CC6E6FF98C500F0E6
:103BE00099C501F00A0E316E326A00C02CF001C096
:103BF0002DF099EC6CF02CC000F02DC001F000C04D
:103C0000E6FF01C0E6FFA8C502F0A9C503F00A0E51
:103C1000316E326A02C02CF003C02DF099EC6CF0CA
:103C20002CC002F02DC003F002C0E6FF03C0E6FF87
:103C300082C5E6FF83C5E6FFF70EE66E970EE66ED9
:103C4000000EE66E000EE66E020EE66EECEC74F010
:103C5000046E0F0EE15E0450010EE66E030EE66E7A
:103C6000E66AB7EC00F0E552E552E552D9CFE9FF3C
:103C7000DACFEAFFEE2A000EEE22EE22EE22E66A0C
:103C8000D950040FE96EDACFEAFFEECFE6FFEECFB0
:103C9000E6FFEECFE6FFEFCFE6FF6DEC02F0006E41
:103CA000050EE15E0050000909E1D9500F0FE96EE1
:103CB000DACFEAFFEE50ED1001E1F6D4FBEC6FF045
:103CC000060EE66EE66AE66AE66A6AEC01F0E5521E
:103CD000E552E552E552F8EC6FF0010EE66EE66A49
:103CE000E66AE66A6AEC01F0E552E552E552E55211
:103CF0000F0EDB6A100EDB6A00017C5101E129D353
:103D0000FEEC6FF0010EE66ED950040FE96EDACFCB
:103D1000EAFFEECFE6FFEECFE6FFEECFE6FFEFCF16
:103D2000E6FF6DEC02F0006E050EE15E0050DE6A0B
:103D3000DE6ADE6ADD6ADD52DD521DEC3BF080C0DA
:103D4000E6FF01EC70F0E552D9CFE9FFDACFEAFFE8
:103D5000EECF00F0EECF01F0EECF02F0EFCF03F0A8
:103D6000D00E2F6E070E306E316A326A00C02AF014
:103D700001C02BF002C02CF003C02DF04AEC78F00B
:103D800026C000F027C001F028C002F029C003F0CF
:103D9000005001100210031001E0B3D23DEC3BF0E3
:103DA000000901E1DBD0210EE96E060EEA6EEE504D
:103DB0000601155D046EEE5006011659056EEE50B3
:103DC00006011759066EEE5006011859076E04C019
:103DD000E6FF05C0E6FF06C0E6FF07C0E6FFF0EC21
:103DE00008F0E552E552E552E5522AC000F02BC03A
:103DF00001F02CC002F02DC003F000C0E6FF01C0AE
:103E0000E6FF02C0E6FF03C0E6FF1D0EE96E060EE8
:103E1000EA6EEE500601115D0C6EEE50060112596D
:103E20000D6EEE50060113590E6EEE500601145938
:103E30000F6E0CC0E6FF0DC0E6FF0EC0E6FF0FC020
:103E4000E6FFF0EC08F0E552E552E552E5522AC0F3
:103E500008F02BC009F02CC00AF02DC00BF008C0F0
:103E6000E6FF09C0E6FF0AC0E6FF0BC0E6FF190E39
:103E7000E96E060EEA6EEE5006010D5D146EEE5010
:103E800006010E59156EEE5006010F59166EEE50D2
:103E900006011059176E14C0E6FF15C0E6FF16C0E4
:103EA000E6FF17C0E6FFF0EC08F0E552E552E552F8
:103EB000E5522AC010F02BC011F02CC012F02DC01A
:103EC00013F010C0E6FF11C0E6FF12C0E6FF13C0FA
:103ED000E6FFD40EE66E980EE66E000EE66E000E5D
:103EE000E66E020EE66EECEC74F0186E110EE15EFA
:103EF0001850000EE66E020EE66EDCEC77F0E5522E
:103F0000E55206013D5128E006013E5125E006013B
:103F10003F5122E000017C5107E0010EF36E0F0ECD
:103F2000F3CFDBFF100EDB6AAF0EE66E980EE66E87
:103F3000000EE66E000EE66E020EE66EECEC74F01D
:103F4000006E050EE15E0050000EE66E020EE66E9B
:103F5000DCEC77F0E552E5521DEC3BF0060100A5E4
:103F600031D0FBEC6FF0010EE66E3CEC15F0E55243
:103F7000D3EC64F0060EE66EE66AE66AE66A6AEC80
:103F800001F0E552E552E552E5528B920001010E37
:103F90007B6F0001806B80C0E6FF01EC70F0E552A2
:103FA0007CC0E6FFB6EC70F0E552A00EE66E9A0E0D
:103FB000E66E000EE66E52EC77F0E552E552E55201
:103FC0001EEF2FF028EC2FF0D9CFE9FFDACFEAFF70
:103FD000EECFE6FFEECFE6FFEECFE6FFEFCFE6FF58
:103FE000E00EE66E970EE66E000EE66E000EE66ED2
:103FF000020EE66EECEC74F0006E090EE15E00500D
:10400000010EE66EE66A9CC0E6FFB7EC00F0E552F2
:10401000E552E552130EE66E9F0EE66E000EE66E5A
:10402000000EE66E020EE66EECEC74F0006E050E0D
:10403000E15E0050020E00017C5D4AE00501065180
:1040400046E031C6E6FF32C6E6FF33C6E6FF34C6B9
:10405000E6FF24C500F025C501F00A0E316E326A74
:1040600000C02CF001C02DF099EC6CF02CC000F0D9
:104070002DC001F000C0E6FF01C0E6FF34C502F02C
:1040800035C503F00A0E316E326A02C02CF003C04F
:104090002DF099EC6CF02CC002F02DC003F002C0A2
:1040A000E6FF03C0E6FF0EC5E6FF0FC5E6FF6F0E95
:1040B000E66E980EE66E000EE66E000EE66E020EDE
:1040C000E66EECEC74F0046E0F0EE15E045049D025
:1040D0000501065146E031C6E6FF32C6E6FF33C6AB
:1040E000E6FF34C6E6FF24C500F025C501F00A0E40
:1040F000316E326A00C02CF001C02DF099EC6CF0EA
:104100002CC000F02DC001F000C0E6FF01C0E6FFAA
:1041100034C502F035C503F00A0E316E326A02C0B2
:104120002CF003C02DF099EC6CF02CC002F02DC0E7
:1041300003F002C0E6FF03C0E6FF0EC5E6FF0FC5B1
:10414000E6FF470EE66E980EE66E000EE66E000E77
:10415000E66E020EE66EECEC74F0046E0F0EE15E9D
:104160000450010EE66E010EE66EE66AB7EC00F052
:10417000E552E552E552130EE66E9F0EE66E000E16
:10418000E66E000EE66E020EE66EECEC74F0006E6B
:10419000050EE15E00500501405146E035C6E6FFE0
:1041A00036C6E6FF37C6E6FF38C6E6FF5EC500F056
:1041B0005FC501F00A0E316E326A00C02CF001C0FA
:1041C0002DF099EC6CF02CC000F02DC001F000C077
:1041D000E6FF01C0E6FF6EC502F06FC503F00A0EF0
:1041E000316E326A02C02CF003C02DF099EC6CF0F5
:1041F0002CC002F02DC003F002C0E6FF03C0E6FFB2
:1042000048C5E6FF49C5E6FF1F0EE66E980EE66E4E
:10421000000EE66E000EE66E020EE66EECEC74F03A
:10422000046E0F0EE15E0450010EE66E020EE66EA5
:10423000E66AB7EC00F0E552E552E552130EE66E81
:104240009F0EE66E000EE66E000EE66E020EE66E45
:10425000ECEC74F0006E050EE15E005005017A5141
:1042600046E039C6E6FF3AC6E6FF3BC6E6FF3CC677
:10427000E6FF98C500F099C501F00A0E316E326A6A
:1042800000C02CF001C02DF099EC6CF02CC000F0B7
:104290002DC001F000C0E6FF01C0E6FFA8C502F096
:1042A000A9C503F00A0E316E326A02C02CF003C0B9
:1042B0002DF099EC6CF02CC002F02DC003F002C080
:1042C000E6FF03C0E6FF82C5E6FF83C5E6FFF70E03
:1042D000E66E970EE66E000EE66E000EE66E020EBD
:1042E000E66EECEC74F0046E0F0EE15E0450010E0D
:1042F000E66E030EE66EE66AB7EC00F0E552E552B4
:10430000E552D9CFE9FFDACFEAFFEE2A000EEE221E
:10431000EE22EE22E66AD950040FE96EDACFEAFF08
:10432000EECFE6FFEECFE6FFEECFE6FFEFCFE6FF04
:104330006DEC02F0006E050EE15E0050000909E12F
:10434000D9500F0FE96EDACFEAFFEE50ED1001E120
:10435000F6D499EF26F00401296B2A6B2B6B2C6B9A
:10436000080E29C4DBFF090E2AC4DBFF0A0E2BC48A
:10437000DBFF0B0E2CC4DBFFFEEC6FF0140EE66EC1
:10438000E66AE66AE66A6AEC01F0E552E552E55251
:10439000E552DE6ADE6ADE6ADD6ADD52DD52D9CFC1
:1043A000E9FFDACFEAFFDE0EEE5C030EEE58000EF8
:1043B000EE58000EEE5801E31AD1D9CFE9FFDACF5B
:1043C000EAFFEECFE6FFEECFE6FFEECFE6FFEFCF60
:1043D000E6FFE00EE66E970EE66E000EE66E000E4D
:1043E000E66E020EE66EECEC74F0006E090EE15E15
:1043F0000050010EE66EE66A9CC0E6FFB7EC00F0E6
:10440000E552E552E552130EE66E9F0EE66E000E83
:10441000E66E000EE66E020EE66EECEC74F0006ED8
:10442000050EE15E00500501065118E029C4E6FFC3
:104430002AC4E6FF2BC4E6FF2CC4E6FFBE0EE66EE0
:10444000970EE66E000EE66E000EE66E020EE66E4B
:10445000ECEC74F0006E090EE15E0050010EE66EA9
:10446000010EE66EE66AB7EC00F0E552E552E55261
:10447000130EE66E9F0EE66E000EE66E000EE66E02
:10448000020EE66EECEC74F0006E050EE15E00507C
:10449000010EE66E020EE66EE66AB7EC00F0E5523B
:1044A000E552E552010EE66E030EE66EE66AB7ECE3
:1044B00000F0E552E552E552010EE66EE66AE66A64
:1044C000E66A6AEC01F0E552E552E552E552D9CFD1
:1044D000E9FFDACFEAFFEECF00F0EECF01F0EECF4A
:1044E00002F0EFCF03F0190E2F6E306A316A326A94
:1044F00000C02AF001C02BF002C02CF003C02DF048
:104500004AEC78F026C000F027C001F028C002F085
:1045100029C003F000500110021003102AE1D95005
:10452000080FE96EDACFEAFFEE50040129190CE119
:10453000EE5004012A1908E1EE5004012B1904E1A0
:10454000EE5004012C1900E108E1E80EDE6E030EC6
:10455000DE6EDE6ADD6ADD52DD52080E29C4DBFF45
:10456000090E2AC4DBFF0A0E2BC4DBFF0B0E2CC482
:10457000DBFF060100A531D0FBEC6FF0010EE66E0B
:104580003CEC15F0E552D3EC64F0060EE66EE66AFC
:10459000E66AE66A6AEC01F0E552E552E552E55258
:1045A0008B920001010E7B6F0001806B80C0E6FFE3
:1045B00001EC70F0E5527CC0E6FFB6EC70F0E5521D
:1045C000A00EE66E9A0EE66E000EE66E52EC77F0E6
:1045D000E552E552E5521EEF2FF0D9CFE9FFDACFD1
:1045E000EAFFEE2A000EEE22EE22EE22D8D6FBECF7
:1045F0006FF0060EE66EE66AE66AE66A6AEC01F0BD
:10460000E552E552E552E552F1EC6FF0010EE66E2F
:10461000E66AE66AE66A6AEC01F0E552E552E552BE
:10462000E5520401296B2A6B2B6B2C6B080E29C4F5
:10463000DBFF090E2AC4DBFF0A0E2BC4DBFF0B0EC7
:104640002CC4DBFFFEEC6FF0140EE66EE66AE66A41
:10465000E66A6AEC01F0E552E552E552E552DE6A9F
:10466000DE6ADE6ADD6ADD52DD52D9CFE9FFDACFDC
:10467000EAFFDE0EEE5C030EEE58000EEE58000E62
:10468000EE5801E31AD1D9CFE9FFDACFEAFFEECF36
:10469000E6FFEECFE6FFEECFE6FFEFCFE6FF970EA9
:1046A000E66E980EE66E000EE66E000EE66E020EE8
:1046B000E66EECEC74F0006E090EE15E0050010E47
:1046C000E66EE66A9CC0E6FFB7EC00F0E552E55204
:1046D000E552130EE66E9F0EE66E000EE66E000EBD
:1046E000E66E020EE66EECEC74F0006E050EE15E16
:1046F00000500501065118E029C4E6FF2AC4E6FF70
:104700002BC4E6FF2CC4E6FFBE0EE66E970EE66EE7
:10471000000EE66E000EE66E020EE66EECEC74F035
:10472000006E090EE15E0050010EE66E010EE66EAF
:10473000E66AB7EC00F0E552E552E552130EE66E7C
:104740009F0EE66E000EE66E000EE66E020EE66E40
:10475000ECEC74F0006E050EE15E0050010EE66EAA
:10476000020EE66EE66AB7EC00F0E552E552E5525D
:10477000010EE66E030EE66EE66AB7EC00F0E55257
:10478000E552E552010EE66EE66AE66AE66A6AEC12
:1047900001F0E552E552E552E552D9CFE9FFDACF13
:1047A000EAFFEECF00F0EECF01F0EECF02F0EFCF58
:1047B00003F0190E2F6E306A316A326A00C02AF097
:1047C00001C02BF002C02CF003C02DF04AEC78F0B1
:1047D00026C000F027C001F028C002F029C003F075
:1047E00000500110021003102AE1D950080FE96EA1
:1047F000DACFEAFFEE50040129190CE1EE50040172
:104800002A1908E1EE5004012B1904E1EE500401CD
:104810002C1900E108E1E80EDE6E030EDE6EDE6AA2
:10482000DD6ADD52DD52080E29C4DBFF090E2AC401
:10483000DBFF0A0E2BC4DBFF0B0E2CC4DBFF0601D3
:1048400000A531D0FBEC6FF0010EE66E3CEC15F0EC
:10485000E552D3EC64F0060EE66EE66AE66AE66AB6
:104860006AEC01F0E552E552E552E5528B92000107
:10487000010E7B6F0001806B80C0E6FF01EC70F0E1
:10488000E5527CC0E6FFB6EC70F0E552A00EE66E95
:104890009A0EE66E000EE66E52EC77F0E552E552A7
:1048A000E5521EEF2FF0D9CFE9FFDACFEAFFEE2A6B
:1048B000000EEE22EE22EE22D8D629C435F42AC408
:1048C00036F42BC437F42CC438F4FBEC6FF0000141
:1048D0007B6B0001806B35C42AF036C42BF037C4E3
:1048E0002CF038C42DF029EC6BF02BC000F02CC05C
:1048F00001F02DC002F02EC003F00A0E306ED70E6C
:10490000316E230E326E3C0E336E00C02BF001C0B0
:104910002CF002C02DF003C02EF02CEC6CF06BECF0
:104920006DF02AC010F42BC011F42CC012F42DC06D
:1049300013F4C6EC0CF035C42AF036C42BF037C49F
:104940002CF038C42DF029EC6BF02BC000F02CC0FB
:1049500001F02DC002F02EC003F0FA0E306E7E0E74
:10496000316E2A0E326E3F0E336E00C02BF001C046
:104970002CF002C02DF003C02EF02CEC6CF06BEC90
:104980006DF02AC010F42BC011F42CC012F42DC00D
:1049900013F4290EE96E040EEA6EEE500401105D68
:1049A000006EEE5004011159016EEE5004011259CF
:1049B000026EEE5004011359036E0001D8513A0DF6
:1049C000F3CFE9FFF4CFEAFF000EE926050EEA2255
:1049D0000D0EE926000EEA22050EE926000EEA2257
:1049E00000C0EEFF01C0EDFFC6EC0CF035C42AF0AC
:1049F00036C42BF037C42CF038C42DF029EC6BF002
:104A00002BC000F02CC001F02DC002F02EC003F02E
:104A1000FA0E306E7E0E316EAA0E326E3E0E336E80
:104A200000C02BF001C02CF002C02DF003C02EF00E
:104A30002CEC6CF06BEC6DF02AC010F42BC011F470
:104A40002CC012F42DC013F4290EE96E040EEA6E88
:104A5000EE500401105D006EEE5004011159016E1C
:104A6000EE5004011259026EEE5004011359036E08
:104A70000001D8513A0DF3CFE9FFF4CFEAFF000E61
:104A8000E926050EEA220D0EE926000EEA22050EA1
:104A9000E926000EEA2200C0EEFF01C0EDFFC6ECE1
:104AA0000CF035C42AF036C42BF037C42CF038C4CF
:104AB0002DF029EC6BF02BC000F02CC001F02DC0C4
:104AC00002F02EC003F0660E306E660E316E660E7A
:104AD000326E3F0E336E00C02BF001C02CF002C0CE
:104AE0002DF003C02EF02CEC6CF06BEC6DF02AC0B6
:104AF00010F42BC011F42CC012F42DC013F4290EA5
:104B0000E96E040EEA6EEE500401105D006EEE5088
:104B100004011159016EEE5004011259026EEE505B
:104B200004011359036E0001D8513A0DF3CFE9FF88
:104B3000F4CFEAFF000EE926050EEA220D0EE92663
:104B4000000EEA22050EE926000EEA2200C0EEFF62
:104B500001C0EDFFC6EC0CF035C42AF036C42BF0D2
:104B600037C42CF038C42DF029EC6BF02BC000F0CA
:104B70002CC001F02DC002F02EC003F0CD0E306E1F
:104B8000CC0E316ECC0E326E3D0E336E00C02BF06B
:104B900001C02CF002C02DF003C02EF02CEC6CF004
:104BA0006BEC6DF02AC010F42BC011F42CC012F481
:104BB0002DC013F4290EE96E040EEA6EEE500401C6
:104BC000105D006EEE5004011159016EEE500401AB
:104BD0001259026EEE5004011359036E0001D851B0
:104BE0003A0DF3CFE9FFF4CFEAFF000EE926050EF8
:104BF000EA220D0EE926000EEA22050EE926000E35
:104C0000EA2200C0EEFF01C0EDFFC6EC0CF035C497
:104C10002AF036C42BF037C42CF038C42DF029EC20
:104C20006BF02BC000F02CC001F02DC002F02EC0A4
:104C300003F0306A316A326A3F0E336E00C02BF0E7
:104C400001C02CF002C02DF003C02EF02CEC6CF053
:104C50006BEC6DF02AC010F42BC011F42CC012F4D0
:104C60002DC013F4290EE96E040EEA6EEE50040115
:104C7000105D006EEE5004011159016EEE500401FA
:104C80001259026EEE5004011359036E0001D851FF
:104C90003A0DF3CFE9FFF4CFEAFF000EE926050E47
:104CA000EA220D0EE926000EEA22050EE926000E84
:104CB000EA2200C0EEFF01C0EDFFC6EC0CF0DE6A98
:104CC000DE6ADE6ADD6ADD52DD52D9CFE9FFDACF76
:104CD000EAFF030EEE5C000EEE58000EEE58000EDA
:104CE000EE5827E2DFCFE9FF010EDBCFEAFF3A0EF5
:104CF000EA02F3CFEAFF3A0EE902F3CFE9FFF450FC
:104D0000EA26000EE926050EEA220D0EE926000E1F
:104D1000EA221D0EE926000EEA22EE6AED6AD9CFDC
:104D2000E9FFDACFEAFFEE2A000EEE22EE22EE22B3
:104D3000CCD7DE6ADE6ADE6ADD6ADD52DD52D9CFAB
:104D4000E9FFDACFEAFF030EEE5C000EEE58000E2C
:104D5000EE58000EEE5802E3A3EF2DF000017C5157
:104D600001E000D1DFCFE9FF010EDBCFEAFF3A0E11
:104D7000EA02F3CFEAFF3A0EE902F3CFE9FFF4507B
:104D8000EA26000EE926050EEA220D0EE926000E9F
:104D9000EA22090EE926000EEA22EECF00F0EFCF5C
:104DA00001F0DFCFE9FF010EDBCFEAFF3A0EEA02A6
:104DB000F3CFEAFF3A0EE902F3CFE9FFF450EA2617
:104DC000000EE926050EEA220D0EE926000EEA2263
:104DD0000B0EE926000EEA22EECF02F0EFCF03F031
:104DE00003500118E8AE02D0013404D00050025C38
:104DF0000150035837E2DFCFE9FF010EDBCFEAFFB6
:104E00003A0EEA02F3CFEAFF3A0EE902F3CFE9FFE6
:104E1000F450EA26000EE926050EEA22060EE926DF
:104E2000000EEA22EF501EE0DFCFE9FF010EDBCFDC
:104E3000EAFF3A0EEA02F3CFEAFF3A0EE902F3CFB5
:104E4000E9FFF450EA26000EE926050EEA220D0ECF
:104E5000E926000EEA221D0EE926000EEA22010EC6
:104E6000EE6EED6ADFCFE9FF010EDBCFEAFF3A0E0F
:104E7000EA02F3CFEAFF3A0EE902F3CFE9FFF4507A
:104E8000EA26000EE926050EEA220D0EE926000E9E
:104E9000EA22170EE926000EEA22EECF00F0EFCF4D
:104EA00001F0DFCFE9FF010EDBCFEAFF3A0EEA02A5
:104EB000F3CFEAFF3A0EE902F3CFE9FFF450EA2616
:104EC000000EE926050EEA220D0EE926000EEA2262
:104ED0000D0EE926000EEA22EECF02F0EFCF03F02E
:104EE00001500318E8AE02D0033404D00250005C35
:104EF0000350015837E2DFCFE9FF010EDBCFEAFFB5
:104F00003A0EEA02F3CFEAFF3A0EE902F3CFE9FFE5
:104F1000F450EA26000EE926050EEA22060EE926DE
:104F2000000EEA22EF501EE0DFCFE9FF010EDBCFDB
:104F3000EAFF3A0EEA02F3CFEAFF3A0EE902F3CFB4
:104F4000E9FFF450EA26000EE926050EEA220D0ECE
:104F5000E926000EEA221D0EE926000EEA22010EC5
:104F6000EE6EED6A030E00017C5D01E000D1DFCF43
:104F7000E9FF010EDBCFEAFF3A0EEA02F3CFEAFFC8
:104F80003A0EE902F3CFE9FFF450EA26000EE926D3
:104F9000050EEA220D0EE926000EEA22090EE92688
:104FA000000EEA22EECF00F0EFCF01F0DFCFE9FFF5
:104FB000010EDBCFEAFF3A0EEA02F3CFEAFF3A0E28
:104FC000E902F3CFE9FFF450EA26000EE926050EC8
:104FD000EA220D0EE926000EEA220B0EE926000E4B
:104FE000EA22EECF02F0EFCF03F003500118E8AE53
:104FF00002D0013404D00050025C0150035837E263
:10500000DFCFE9FF010EDBCFEAFF3A0EEA02F3CF72
:10501000EAFF3A0EE902F3CFE9FFF450EA26000E68
:10502000E926050EEA22060EE926000EEA22EF50D6
:105030001EE0DFCFE9FF010EDBCFEAFF3A0EEA0206
:10504000F3CFEAFF3A0EE902F3CFE9FFF450EA2684
:10505000000EE926050EEA220D0EE926000EEA22D0
:105060001D0EE926000EEA22010EEE6EED6ADFCF7C
:10507000E9FF010EDBCFEAFF3A0EEA02F3CFEAFFC7
:105080003A0EE902F3CFE9FFF450EA26000EE926D2
:10509000050EEA220D0EE926000EEA22170EE92679
:1050A000000EEA22EECF00F0EFCF01F0DFCFE9FFF4
:1050B000010EDBCFEAFF3A0EEA02F3CFEAFF3A0E27
:1050C000E902F3CFE9FFF450EA26000EE926050EC7
:1050D000EA220D0EE926000EEA220D0EE926000E48
:1050E000EA22EECF02F0EFCF03F001500318E8AE52
:1050F00002D0033404D00250005C0350015837E260
:10510000DFCFE9FF010EDBCFEAFF3A0EEA02F3CF71
:10511000EAFF3A0EE902F3CFE9FFF450EA26000E67
:10512000E926050EEA22060EE926000EEA22EF50D5
:105130001EE0DFCFE9FF010EDBCFEAFF3A0EEA0205
:10514000F3CFEAFF3A0EE902F3CFE9FFF450EA2683
:10515000000EE926050EEA220D0EE926000EEA22CF
:105160001D0EE926000EEA22010EEE6EED6A000128
:105170007C0501E000D1DFCFE9FF010EDBCFEAFFC4
:105180003A0EEA02F3CFEAFF3A0EE902F3CFE9FF63
:10519000F450EA26000EE926050EEA220D0EE92655
:1051A000000EEA22090EE926000EEA22EECF00F0F8
:1051B000EFCF01F0DFCFE9FF010EDBCFEAFF3A0EC0
:1051C000EA02F3CFEAFF3A0EE902F3CFE9FFF45027
:1051D000EA26000EE926050EEA220D0EE926000E4B
:1051E000EA220B0EE926000EEA22EECF02F0EFCF04
:1051F00003F003500118E8AE02D0013404D000508F
:10520000025C0150035837E2DFCFE9FF010EDBCF2C
:10521000EAFF3A0EEA02F3CFEAFF3A0EE902F3CFD1
:10522000E9FFF450EA26000EE926050EEA22060EF2
:10523000E926000EEA22EF501EE0DFCFE9FF010E63
:10524000DBCFEAFF3A0EEA02F3CFEAFF3A0EE902B9
:10525000F3CFE9FFF450EA26000EE926050EEA2214
:105260000D0EE926000EEA221D0EE926000EEA22A6
:10527000010EEE6EED6ADFCFE9FF010EDBCFEAFF34
:105280003A0EEA02F3CFEAFF3A0EE902F3CFE9FF62
:10529000F450EA26000EE926050EEA220D0EE92654
:1052A000000EEA22170EE926000EEA22EECF00F0E9
:1052B000EFCF01F0DFCFE9FF010EDBCFEAFF3A0EBF
:1052C000EA02F3CFEAFF3A0EE902F3CFE9FFF45026
:1052D000EA26000EE926050EEA220D0EE926000E4A
:1052E000EA220D0EE926000EEA22EECF02F0EFCF01
:1052F00003F001500318E8AE02D0033404D002508A
:10530000005C0350015837E2DFCFE9FF010EDBCF2D
:10531000EAFF3A0EEA02F3CFEAFF3A0EE902F3CFD0
:10532000E9FFF450EA26000EE926050EEA22060EF1
:10533000E926000EEA22EF501EE0DFCFE9FF010E62
:10534000DBCFEAFF3A0EEA02F3CFEAFF3A0EE902B8
:10535000F3CFE9FFF450EA26000EE926050EEA2213
:105360000D0EE926000EEA221D0EE926000EEA22A5
:10537000010EEE6EED6ADFCFE9FF010EDBCFEAFF33
:105380003A0EEA02F3CFEAFF3A0EE902F3CFE9FF61
:10539000F450EA26000EE926050EEA220D0EE92653
:1053A000000EEA221D0EE926000EEA22EE50ED1054
:1053B00001E0CCD1DFCFE9FF010EDBCFEAFF3A0EEF
:1053C000EA02F3CFEAFF3A0EE902F3CFE9FFF45025
:1053D000EA26000EE926050EEA220D0EE926000E49
:1053E000EA22190EE926000EEA22010EEE6EED6A9F
:1053F000DFCFE9FF010EDBCFEAFF3A0EEA02F3CF7F
:10540000EAFF3A0EE902F3CFE9FFF450EA26000E74
:10541000E926050EEA220D0EE926000EEA221B0EF1
:10542000E926000EEA22010EEE6EED6ADFCFE9FFFB
:10543000010EDBCFEAFF3A0EEA02F3CFEAFF3A0EA3
:10544000E902F3CFE9FFF450EA26000EE926050E43
:10545000EA220D0EE926000EEA22290EE926000EA8
:10546000EA22F40EEE6E010EED6EDFCFE9FF010EC3
:10547000DBCFEAFF3A0EEA02F3CFEAFF3A0EE90287
:10548000F3CFE9FFF450EA26000EE926050EEA22E2
:10549000060EE926000EEA22EF5001E156D1020E77
:1054A00000017C5D08E0000EDB50580FE76E0C0E2B
:1054B000E7CFDBFF05D0410EF36E0C0EF3CFDBFF21
:1054C0000C0EDBCF00F0016A00BE016800C0E6FFF1
:1054D00001C0E6FF920EE66E970EE66E000EE66ED7
:1054E000000EE66E020EE66EECEC74F0026E070E35
:1054F000E15E0250000EE66E020EE66EDCEC77F026
:10550000E552E552DFCFE9FF010EDBCFEAFF3A0EAD
:10551000EA02F3CFEAFF3A0EE902F3CFE9FFF450D3
:10552000EA26000EE926050EEA220D0EE926000EF7
:10553000EA220B0EE926000EEA22EECFE6FFEFCFBD
:10554000E6FFDFCFE9FF010EDBCFEAFF3A0EEA020A
:10555000F3CFEAFF3A0EE902F3CFE9FFF450EA266F
:10556000000EE926050EEA220D0EE926000EEA22BB
:10557000090EE926000EEA22EECFE6FFEFCFE6FFA6
:105580007C0EE66E970EE66E000EE66E000EE66E80
:10559000020EE66EECEC74F0006E090EE15E005057
:1055A000000EE66E020EE66EDCEC77F0E552E55298
:1055B0004C0EE66EA70EE66E000EE66E52EC77F02D
:1055C000E552E552E552DFCFE9FF010EDBCFEAFFFE
:1055D0003A0EEA02F3CFEAFF3A0EE902F3CFE9FF0F
:1055E000F450EA26000EE926050EEA220D0EE92601
:1055F000000EEA220D0EE926000EEA22EECFE6FFAB
:10560000EFCFE6FFDFCFE9FF010EDBCFEAFF3A0E77
:10561000EA02F3CFEAFF3A0EE902F3CFE9FFF450D2
:10562000EA26000EE926050EEA220D0EE926000EF6
:10563000EA22170EE926000EEA22EECFE6FFEFCFB0
:10564000E6FF660EE66E970EE66E000EE66E000E44
:10565000E66E020EE66EECEC74F0006E090EE15E92
:105660000050000EE66E020EE66EDCEC77F0E552BE
:10567000E5524C0EE66EA70EE66E000EE66E52EC9C
:1056800077F0E552E552E552DFCFE9FF010EDBCFBF
:10569000EAFF3A0EEA02F3CFEAFF3A0EE902F3CF4D
:1056A000E9FFF450EA26000EE926050EEA220D0E67
:1056B000E926000EEA220F0EE926000EEA22EECFBE
:1056C000E6FFEFCFE6FFDFCFE9FF010EDBCFEAFF1A
:1056D0003A0EEA02F3CFEAFF3A0EE902F3CFE9FF0E
:1056E000F450EA26000EE926050EEA220D0EE92600
:1056F000000EEA22150EE926000EEA22EECFE6FFA2
:10570000EFCFE6FF520EE66E970EE66E000EE66EE7
:10571000000EE66E020EE66EECEC74F0006E090E02
:10572000E15E0050000EE66E020EE66EDCEC77F0F5
:10573000E552E5524C0EE66EA70EE66E000EE66EE2
:1057400052EC77F0E552E552E552F2D1DFCFE9FFB6
:10575000010EDBCFEAFF3A0EEA02F3CFEAFF3A0E80
:10576000E902F3CFE9FFF450EA26000EE926050E20
:10577000EA22060EE926000EEA22EF5001E1D8D116
:1057800006010095020E00017C5D08E0000EDB5072
:10579000580FE76E0C0EE7CFDBFF05D0410EF36E1E
:1057A0000C0EF3CFDBFF0C0EDBCF00F0016A00BE66
:1057B000016800C0E6FF01C0E6FF3C0EE66E970EF2
:1057C000E66E000EE66E000EE66E020EE66EECEC85
:1057D00074F0026E070EE15E0250010EE66EE66A9C
:1057E0009CC0E6FFB7EC00F0E552E552E552000E32
:1057F000E66E020EE66EDCEC77F0E552E5524C0EFA
:10580000E66EA70EE66E000EE66E52EC77F0E552FD
:10581000E552E552DFCFE9FF010EDBCFEAFF3A0E9A
:10582000EA02F3CFEAFF3A0EE902F3CFE9FFF450C0
:10583000EA26000EE926050EEA220D0EE926000EE4
:10584000EA220B0EE926000EEA22EECFE6FFEFCFAA
:10585000E6FFDFCFE9FF010EDBCFEAFF3A0EEA02F7
:10586000F3CFEAFF3A0EE902F3CFE9FFF450EA265C
:10587000000EE926050EEA220D0EE926000EEA22A8
:10588000090EE926000EEA22EECFE6FFEFCFE6FF93
:105890007C0EE66E970EE66E000EE66E000EE66E6D
:1058A000020EE66EECEC74F0006E090EE15E005044
:1058B000010EE66E010EE66EE66AB7EC00F0E55208
:1058C000E552E552000EE66E020EE66EDCEC77F075
:1058D000E552E5524C0EE66EA70EE66E000EE66E41
:1058E00052EC77F0E552E552E552DFCFE9FF010EC9
:1058F000DBCFEAFF3A0EEA02F3CFEAFF3A0EE90203
:10590000F3CFE9FFF450EA26000EE926050EEA225D
:105910000D0EE926000EEA220D0EE926000EEA22FF
:10592000EECFE6FFEFCFE6FFDFCFE9FF010EDBCFE3
:10593000EAFF3A0EEA02F3CFEAFF3A0EE902F3CFAA
:10594000E9FFF450EA26000EE926050EEA220D0EC4
:10595000E926000EEA22170EE926000EEA22EECF13
:10596000E6FFEFCFE6FF660EE66E970EE66E000EE0
:10597000E66E000EE66E020EE66EECEC74F0006E63
:10598000090EE15E0050010EE66E020EE66EE66A5A
:10599000B7EC00F0E552E552E552000EE66E020E5D
:1059A000E66EDCEC77F0E552E5524C0EE66EA70EA3
:1059B000E66E000EE66E52EC77F0E552E552E552E7
:1059C000DFCFE9FF010EDBCFEAFF3A0EEA02F3CFA9
:1059D000EAFF3A0EE902F3CFE9FFF450EA26000E9F
:1059E000E926050EEA220D0EE926000EEA220F0E28
:1059F000E926000EEA22EECFE6FFEFCFE6FFDFCF8B
:105A0000E9FF010EDBCFEAFF3A0EEA02F3CFEAFF2D
:105A10003A0EE902F3CFE9FFF450EA26000EE92638
:105A2000050EEA220D0EE926000EEA22150EE926E1
:105A3000000EEA22EECFE6FFEFCFE6FF520EE66E53
:105A4000970EE66E000EE66E000EE66E020EE66E35
:105A5000ECEC74F0006E090EE15E0050010EE66E93
:105A6000030EE66EE66AB7EC00F0E552E552E55249
:105A7000000EE66E020EE66EDCEC77F0E552E552C3
:105A80004C0EE66EA70EE66E000EE66E52EC77F058
:105A9000E552E552E552010EE66E010EE66E13EC9C
:105AA00070F0E552E552020E00017C5D08E0000E48
:105AB000DB50580FE76E0C0EE7CFDBFF05D0410E31
