:020000040000FA
:060000003BEF76F0120058
:020006001200E6
:0600080007EF5AF01200A0
:02000E00C250DE
:08001000020B01E0010E1200D9
:060018009BEF60F01200F6
:02001E000700D9
:10002000EFEC00002A00000001000000E0ED0000FD
:10003000FB05000002000000DCED0000FB020000F8
:100040000400000043ED0000600000009900000083
:1000500031ED0000EA030000120000002FED000067
:10006000FD04000002000000FCEC0000C8050000D8
:040070003300000059
:0C007400DEEC2DF083E941E801500508A6
:1000800001E2016A005003E02CEC2FF0EF6A01EB73
:10009000CDF50001460E036F9F0E046F000E056F35
:1000A0006CEC2FF0E5CF08F0A9EC30F000011EEC6D
:1000B00032F02CEC2FF0EFCF09F00A6B0B6B0051F4
:1000C0000925F36E01510A21F46E02510B21F86EDD
:1000D000F4CFF7FFF3CFF6FF0800F550036E2CECDA
:1000E0002FF0EF2AEFCF00F0016B026B92EC32F0B1
:1000F00002C0E6FF460E096F9F0E0A6F000E0B6FDF
:100100006CEC2FF0E5CF0EF0E5CF0DF0E7CF0CF063
:10011000000109510C25066F0A510D21076F0B5183
:100120000E21086FCFEC33F0E66E1AEC70F043E965
:10013000E552E7CF02F0E552E7CF01F0E552E7CF15
:1001400000F0FCC303F0FDC304F0FEC305F00001A2
:100150000351005D045101590551025903E32CEC90
:100160002FF0EF6A035042E9E7CFD9FF1200DEEC2F
:100170002DF084E90001F6514FE0005021E00250DB
:1001800001240501CE6FB7EC32F0B90EE66E9D0E7C
:10019000E66E000EE66E24EC2EF06DEC70F047E992
:1001A000B7EC32F091EC33F0050124EC2EF03FEC8B
:1001B00070F046E9050109EC32F0140EACEC2FF0BA
:1001C0000150030A0CE0010A08E0030A04E0010AF6
:1001D00009E1E66A08D0400E03D0140E01D0540E97
:1001E000E66E01D0E66AC7EC73F041E90150000108
:1001F000A0250501CE6F00016A510EE070EC30F0D1
:10020000FDE1050124EC2EF0F6EC74F042E970EC0F
:1002100030F0FDE1010E9016F5EF2DF000016E516A
:1002200004E07FEC43F000016E6B725107E0726BEB
:10023000F85102E0000E01D0010EF86F755104E094
:1002400023EC11F00001756B685103E0A7DA00019F
:10025000686B715104E001EC07F00001716B6F51A4
:1002600003E0BDDA00016F6B1200D9CFE6FFE1CFEA
:10027000D9FF85E90401776B786B796B7A6B0401A0
:100280007751005C78510158795102587A510358DE
:1002900009E3000004000401772B000E7823792382
:1002A0007A23EDD741E9E7CFD9FF1200D9CFE6FF96
:1002B000E1CFD9FF85E9030EE66EF8EC6EF041E977
:1002C00091C67BF492C67CF493C67DF494C67EF40A
:1002D00044EC6FF0D9CFE9FFDACFEAFF04017B519C
:1002E000EE240401836F04017C51EE200401846F2D
:1002F00004017D51EE200401856F04017E51EE2042
:100300000401866F030EE66EF8EC6EF041E991C6CB
:100310007FF492C680F493C681F494C682F444ECD0
:100320006FF004007F0EE96E040EEA6E0401835143
:10033000EE5C8451EE588551EE588651EE58E2E35A
:1003400041E9E7CFD9FF1200EEEC31F019E016ECED
:100350002EF091C687F492C688F493C689F494C6A9
:100360008AF455EC2EF004018751EE248F6F8851EA
:10037000EE20906F8951EE20916F8A51EE20926F9E
:1003800016EC2EF091C68BF492C68CF493C68DF4C5
:1003900094C68EF444EC6FF08B0EE96E040EEA6E98
:1003A00004018F51EE5C9051EE589151EE589251EC
:1003B000EE5802E2000E01D0010EF5EF2DF0EEEC4A
:1003C00031F019E016EC2EF091C693F492C694F435
:1003D00093C695F494C696F455EC2EF0040193510F
:1003E000EE249B6F9451EE209C6F9551EE209D6FF3
:1003F0009651EE209E6F16EC2EF091C697F492C6A1
:1004000098F493C699F494C69AF444EC6FF0970E5E
:10041000E96E040EEA6E04019B51EE5C9C51EE58AD
:100420009D51EE589E51EE5802E2000E01D0010E91
:10043000F5EF2DF0EEEC31F019E016EC2EF091C650
:100440009FF492C6A0F493C6A1F494C6A2F455EC0E
:100450002EF004019F51EE24A76FA051EE20A86F4B
:10046000A151EE20A96FA251EE20AA6F16EC2EF03A
:1004700091C6A3F492C6A4F493C6A5F494C6A6F4B8
:1004800044EC6FF0A30EE96E040EEA6E0401A7516E
:10049000EE5CA851EE58A951EE58AA51EE5802E26E
:1004A000000E01D0010EF5EF2DF0EEEC31F019E069
:1004B00016EC2EF091C6ABF492C6ACF493C6ADF434
:1004C00094C6AEF455EC2EF00401AB51EE24B36F9C
:1004D000AC51EE20B46FAD51EE20B56FAE51EE20B1
:1004E000B66F16EC2EF091C6AFF492C6B0F493C678
:1004F000B1F494C6B2F444EC6FF0AF0EE96E040EA2
:10050000EA6E0401B351EE5CB451EE58B551EE58A9
:10051000B651EE5802E2000E01D0010EF5EF2DF0BB
:10052000EEEC31F019E016EC2EF091C6B7F492C65D
:10053000B8F493C6B9F494C6BAF455EC2EF004019D
:10054000B751EE24BF6FB851EE20C06FB951EE2005
:10055000C16FBA51EE20C26F16EC2EF091C6BBF4FB
:1005600092C6BCF493C6BDF494C6BEF444EC6FF0DE
:10057000BB0EE96E040EEA6E0401BF51EE5CC05181
:10058000EE58C151EE58C251EE5802E2000E01D0B1
:10059000010EF5EF2DF0EEEC31F019E016EC2EF037
:1005A00091C6C3F492C6C4F493C6C5F494C6C6F407
:1005B00055EC2EF00401C351EE24CB6FC451EE2054
:1005C000CC6FC551EE20CD6FC651EE20CE6F16EC2C
:1005D0002EF091C6C7F492C6C8F493C6C9F494C667
:1005E000CAF444EC6FF0C70EE96E040EEA6E040123
:1005F000CB51EE5CCC51EE58CD51EE58CE51EE5869
:1006000002E2000E01D0010EF5EF2DF00000040112
:10061000CF6B0501C8510401CF5D04E20000040165
:10062000CF2BF7D712000F0EE66E54EC75F041E9B0
:100630001200050EE66E54EC75F041E91200DEEC96
:100640002DF082E96CA2FED700EBE6FFECEC75F032
:1006500041E9F5EF2DF0050E1FEF2EF000016A5174
:1006600001E1120070EC30F0FDE11200DEEC2DF043
:1006700089E903340EE202500808000E035409E22F
:1006800004EBFCF305EBFDF306EBFEF307EBFFF3E6
:100690005FD00050011009E000018F0E926FC20E72
:1006A000936F750E946F3D0E06D00001926B936BA5
:1006B000800E946F3E0E956F9EEC31F092C0E6FF77
:1006C00093C0E6FF94C0E6FF95C0E6FFA9EC33F0C7
:1006D0009EEC31F004EBE6FF05EBE6FF06EBE6FFF0
:1006E00007EBE6FF65EC65F0E5EC60F065EC65F0C6
:1006F000A9EC33F0E7EC60F0E7EC63F0E552E5CF0E
:1007000099F0E5CF98F0E5CF97F0E7CF96F004ECBD
:100710002EF096C0EEFF97C0EEFF98C0EEFF99C096
:10072000EEFF001C0DE1011C0BE10001966B976BC5
:10073000986B996B04EC2EF0EE6AEE6AEE6AEE6A44
:1007400096C0FCF397C0FDF398C0FEF399C0FFF389
:10075000F5EF2DF004004DC6E6FF4EC6E6FF4FC68E
:10076000E6FF50C6E6FF66DB44E9F3CFE6FFF4CFD1
:10077000E6FFB20EE66E9D0EE66E000EE66E200EF1
:10078000E66E030EE66E7FEC72F047E9200EE66E31
:10079000030EE66EA4EC73F042E91200DBDF5B0EA1
:1007A000E66EA90EE66E000EF2EC30F00401236B4B
:1007B000040123510AE10A0E6AEC31F056DD44E9E6
:1007C000B0EC34F0ACEC60F0F3D7020E235DC2DF86
:1007D000B90EE66EA90EE66E000EF2EF30F00400E0
:1007E000AF0EE66E9D0EE66E000EE66E000EE66E35
:1007F000020EE66E7FEC72F045E9000EE66E020E28
:10080000E66EA4EC73F042E9A5DFAA0EE66E9D0E3B
:10081000E66E000EE66E4FEC73F043E99DC0E6FF16
:100820009EC0E6FF9FC0E6FF000EE66E020EE66E7B
:1008300001EC70F045E9000EE66E020EE66EA4ECE7
:1008400073F042E9A80EE66E9D0EE66E000EE66EAF
:100850004FEC73F043E99AC0E6FF9BC0E6FF9CC0F3
:10086000E6FF000EE66E020EE66E01EC70F045E962
:10087000000EE66E020EE66EA4EC73F042E9920EF4
:10088000E66E9D0EE66E000EE66E000EE66E020E41
:10089000E66E01EC70F045E9000EE66E020EE66EC3
:1008A000A4EC73F042E900018351E66EE66A0001B0
:1008B0006051E66EE66A59C6E6FF5AC6E6FF5BC6B9
:1008C000E6FF5CC6E6FF55C6E6FF56C6E6FF57C61E
:1008D000E6FF58C6E6FF43C6E6FF44C6E6FF00C68D
:1008E000E6FF01C6E6FF02C6E6FF03C6E6FF835049
:1008F000800B01E0010EE66EE66A8350400B01E0DA
:10090000010EE66EE66A8350200B01E0010EE66EF2
:10091000E66A8350100B01E0010EE66EE66A835032
:10092000080B01E0010EE66EE66A8350040B01E05D
:10093000010EE66EE66A8350020B01E0010EE66EE0
:10094000E66A8350010BE66EE66A00016351E66ECB
:10095000E66A030EE66E9D0EE66E000EE66E000E73
:10096000E66E020EE66E7FEC72F069E9000EE66E4E
:10097000020EE66EA4EC73F042E90601A551E66EA4
:10098000E66A7850E66EE66A69C6E6FF6AC6E6FF82
:100990006BC6E6FF6CC6E6FF4DC6E6FF4EC6E6FF39
:1009A0004FC6E6FF50C6E6FF91C6E6FF92C6E6FFD9
:1009B00093C6E6FF94C6E6FFA1EC63F091C6E6FF9E
:1009C00092C6E6FF93C6E6FF94C6E6FF8DC6E6FF35
:1009D0008EC6E6FF8FC6E6FF90C6E6FF51C6E6FF6D
:1009E00052C6E6FF53C6E6FF54C6E6FF49C6E6FF19
:1009F0004AC6E6FF4BC6E6FF4CC6E6FF61C6E6FF09
:100A000062C6E6FF63C6E6FF64C6E6FF89C6E6FF88
:100A10008AC6E6FF8BC6E6FF8CC6E6FF85C6E6FF04
:100A200086C6E6FF87C6E6FF88C6E6FF6DC6E6FF18
:100A30006EC6E6FF6FC6E6FF70C6E6FF4DC6E6FF70
:100A40004EC6E6FF4FC6E6FF50C6E6FF440EE66E12
:100A50009C0EE66E000EE66E000EE66E020EE66E70
:100A60007FEC72F075E9000EE66E020EE66EA4EC05
:100A700073F042E929C4E6FF2AC4E6FF2BC4E6FF6F
:100A80002CC4E6FF65C6E6FF66C6E6FF67C6E6FF5E
:100A900068C6E6FF71C6E6FF72C6E6FF73C6E6FFEC
:100AA00074C6E6FF75C6E6FF76C6E6FF77C6E6FFC4
:100AB00078C6E6FF79C6E6FF7AC6E6FF7BC6E6FFA4
:100AC0007CC6E6FF7DC6E6FF7EC6E6FF7FC6E6FF84
:100AD00080C6E6FFE50EE66E9B0EE66E000EE66E45
:100AE000000EE66E020EE66E7FEC72F05DE9000E1F
:100AF000E66E020EE66EA4EC73F042E90401D06BE0
:100B0000030E0401D05D01E36ED10401D051420D0A
:100B1000F3CFE9FFF4CFEAFF000EE926050EEA2243
:100B2000060EE926000EEA22EF5001E159D1040138
:100B3000D051420DF3CFE9FFF4CFEAFF000EE926D2
:100B4000050EEA220F0EE926000EEA221B0EE92608
:100B5000000EEA22EECFE6FFEECFE6FF0401D05111
:100B6000420DF3CFE9FFF4CFEAFF000EE926050EB0
:100B7000EA220F0EE926000EEA22190EE926000EDF
:100B8000EA22EECFE6FFEECFE6FF0401D051420DA0
:100B9000F3CFE9FFF4CFEAFF000EE926050EEA22C3
:100BA0000F0EE926000EEA222F0EE926000EEA2299
:100BB000EECFE6FFEECFE6FF0401D051420DF3CFBA
:100BC000E9FFF4CFEAFF000EE926050EEA220F0E38
:100BD000E926000EEA222D0EE926000EEA22EECFCB
:100BE000E6FFEECFE6FF0401D051420DF3CFE9FF5F
:100BF000F4CFEAFF000EE926050EEA220F0EE926E1
:100C0000000EEA22090EE926000EEA22EECFE6FFE8
:100C1000EECFE6FF0401D051420DF3CFE9FFF4CF50
:100C2000EAFF000EE926050EEA220F0EE926000E65
:100C3000EA22150EE926000EEA22EECFE6FFEECFFD
:100C4000E6FF0401D051420DF3CFE9FFF4CFEAFFF4
:100C5000000EE926050EEA220F0EE926000EEA2212
:100C6000170EE926000EEA22EECFE6FFEECFE6FFF2
:100C70000401D051420DF3CFE9FFF4CFEAFF000E9B
:100C8000E926050EEA220F0EE926000EEA22050EDD
:100C9000E926000EEA22EECFE6FFEECFE6FF0401E2
:100CA000D051420DF3CFE9FFF4CFEAFF000EE92661
:100CB000050EEA220F0EE926000EEA22030EE926AF
:100CC000000EEA22EECFE6FFEECFE6FF0401D051A0
:100CD000420DF3CFE9FFF4CFEAFF000EE926050E3F
:100CE000EA220F0EE926000EEA22EE52EECFE6FFD0
:100CF000EECFE6FF0401D051E66EE66A6D0EE66EB9
:100D00009B0EE66E000EE66E000EE66E020EE66EBE
:100D10007FEC72F05BE9000EE66E020EE66EA4EC6C
:100D200073F042E9E66AE66A7A0EE66E440EE66E13
:100D30000401D051420DF3CFE9FFF4CFEAFF000EDA
:100D4000E926050EEA220F0EE926000EEA22250EFC
:100D5000E926000EEA22EECFE6FFEECFE6FFEECF69
:100D6000E6FFEECFE6FF65EC65F05DEC62F0E66A6B
:100D7000E66A7A0EE66E440EE66E0401D051420D2C
:100D8000F3CFE9FFF4CFEAFF000EE926050EEA22D1
:100D90000F0EE926000EEA22290EE926000EEA22AD
:100DA000EECFE6FFEECFE6FFEECFE6FFEECFE6FFBB
:100DB00065EC65F05DEC62F04C0EE66E9B0EE66E47
:100DC000000EE66E000EE66E020EE66E7FEC72F02E
:100DD00049E9000EE66E020EE66EA4EC73F042E9FD
:100DE0000401D02B8DD60001F85109E0340EE66ED7
:100DF0009B0EE66E000EE66E4FEC73F043E90400C6
:100E00001200620EE66EAA0EE66E000EF2EC30F0F4
:100E1000AC0EE66EAA0EE66E000EF2EC30F00001AB
:100E2000F85107E0340EE66E9B0EE66E000EF2EC13
:100E300030F01200DEEC2DF0BEEC2FF002E2D2EC2E
:100E40002FF000EBD7F501EBD8F502EBD9F503EB6A
:100E5000DAF533EC2FF076EC2FF0E5CFD2F5E5CFD5
:100E6000D1F5E5CFD0F5E7CFCFF533EC2FF0DBECC4
:100E70002FF015EC32F06AEC2EF089EC2FF076ECC6
:100E80002FF0E5CFD6F5E5CFD5F5E5CFD4F5E7CF13
:100E9000D3F589EC2FF0E4EC2FF015EC32F06AEC8E
:100EA0002EF0BBEC32F0E66EE4EC2FF0DBEC2FF032
:100EB000220EE66E9B0EE66E000E78EC30F051E9E5
:100EC00043EF32F0DEEC2DF0BEEC2FF002E2D2EC7C
:100ED0002FF000EBE3F501EBE4F502EBE5F503EBB6
:100EE000E6F533EC2FF07DEC2FF0E5CFDEF5E5CF26
:100EF000DDF5E5CFDCF5E7CFDBF533EC2FF0EDECFE
:100F00002FF015EC32F083EC2EF089EC2FF07DEC15
:100F10002FF0E5CFE2F5E5CFE1F5E5CFE0F5E7CF5E
:100F2000DFF589EC2FF0F6EC2FF015EC32F083ECC6
:100F30002EF0F6EC2FF0EDEC2FF0160EE66E9B0E79
:100F4000E66E000E78EC30F04DE943EF32F0DEEC67
:100F50002DF083E901340EE300EB00F001EB01F02A
:100F60000001006D011F000E012300C0F3FF01C04E
:100F7000F4FF02D0AFEC2FF0F5EF2DF0DEEC2DF00A
:100F800085E9033413E3E668E668E668E6689BEC07
:100F900030F003EBE6FF15EC32F000C0FCF301C0CB
:100FA000FDF302C0FEF303C0FFF308D000EBFCF337
:100FB00001EBFDF302EBFEF303EBFFF3F5EF2DF096
:100FC00028EC32F0AEEC33F034EC2DF0FFEC2FF0E7
:100FD0000E0EE66E9B0EE66E000EC2EF32F028ECAF
:100FE00032F083EC33F0FFEC2FF0060EE66E9B0E32
:100FF000E66E000EC2EF32F0AFEC32F002E32D0EDF
:10100000916F63EC2EF038EC62F081EC2DF083EC04
:1010100033F057EC31F0CFEC2DF0D89000010351B4
:10102000000A08E6DC0E005D050E0159000E0259AB
:10103000000E035917E257EC31F0CFEC2DF013EC12
:101040002FF091C004F00001056B04BF0569AEEC00
:1010500030F0000EE66E9B0EE66E000EE1EC2EF018
:101060004BE934D0E66AE66A7A0EE66E440E4DEC41
:101070002EF081EC2DF0AEEC33F0C7EC32F0E3C093
:10108000E6FFE66ECFEC2DF013EC2FF057EC31F0CD
:1010900075DF44E9FCC304F0FDC305F0FEC306F0B0
:1010A000FFC307F013EC2FF091C008F00001096BAB
:1010B00008BF096908C0E6FF09C0E6FFF30EE66E47
:1010C0009A0EE66E000EE1EC2EF04FE9AFEC2FF039
:1010D000F5EF2DF0AFEC32F002E32D0E916FE66AE2
:1010E000E66A200EE66E410E30EC32F038EC62F02B
:1010F000E7EC63F0E552E5CFCAF0E5CFC9F0E5CF04
:10110000C8F0E7CFC7F005EC30F0B5EC31F0200EB9
:10111000E66E410EE66E05EC30F0B4EC33F00A0EEC
:10112000C7EC32F07FEC30F0D4EC33F07FEC30F0F1
:1011300091C000F00001016B00BF016992EC32F038
:10114000E90EE66E9A0EE66E000EE1EC2EF04BE92B
:10115000AFEC2FF0F5EF2DF0DEEC2DF085E916EC7D
:101160002EF003500001006F016B01354AE200517F
:10117000FA08000E015545E2FF0EB4EC2FF00AE12B
:10118000F45008E10001775101E183D144EC6FF0A4
:10119000010E82D1FE0EB4EC2FF009E1F45007E10C
:1011A00044EC6FF00001ECEC2DF0040E27D0FD0EA6
:1011B000B4EC2FF009E1F45007E10001010E776F64
:1011C00044EC6FF0FD0E68D1FC0EB4EC2FF008E19A
:1011D000F45006E10001776B44EC6FF0FC0E5CD13B
:1011E000FB0EB4EC2FF00DE1F4500BE10001776B36
:1011F00044EC6FF00001ECEC2DF0050E97EC32F0B2
:101200004BD10001775101E144D10001FF510008A9
:1012100001E33FD1FF07ECEC2DF0040E53EC33F06B
:10122000EFCFE8F5AAEC03F09BEC30F04FEC73F055
:1012300043E90001ECEC2DF05DEC2EF0FF51E66E81
:10124000E66AD70EE66E9A0EE66E000E96EC33F066
:101250000501E76BE751E72BE85D07E13D0EE66E20
:10126000AD0EE66E000EF2EC30F0E3EC2DF007E18F
:101270005D0EE66EAD0EE66E000EF2EC30F0E3ECC5
:101280002DF007E18D0EE66EAD0EE66E000EF2EC6F
:1012900030F0E3EC2DF007E1B00EE66EAD0EE66E39
:1012A000000EF2EC30F0E3EC2DF007E1D30EE66E29
:1012B000AD0EE66E000EF2EC30F0E3EC2DF007E13F
:1012C000040EE66EAE0EE66E000EF2EC30F0E3ECCD
:1012D0002DF007E1380EE66EAE0EE66E000EF2EC73
:1012E00030F0E3EC2DF007E16D0EE66EAE0EE66E2B
:1012F000000EF2EC30F0E3EC2DF007E1A60EE66E06
:10130000AE0EE66E000EF2EC30F0E3EC2DF007E1ED
:10131000D40EE66EAE0EE66E000EF2EC30F0E3ECAC
:101320002DF007E1FB0EE66EAC0EE66E000EF2EC61
:1013300030F0E3EC2DF007E11B0EE66EAD0EE66E2D
:10134000000EF2EC30F0E3EC2DF007E12B0EE66E30
:10135000AC0EE66E000EF2EC30F0E3EC2DF007E19F
:10136000040EE66EAF0EE66E000EF2EC30F0E3EC2B
:101370002DF007E1450EE66EAF0EE66E000EF2ECC4
:1013800030F0E3EC2DF007E16B0EE66EAF0EE66E8B
:10139000000EF2EC30F0E3EC2DF007E1910EE66E7A
:1013A000AF0EE66E000EF2EC30F0E3EC2DF007E14C
:1013B000BD0EE66EAF0EE66E000EF2EC30F0E3EC22
:1013C0002DF007E1D50EE66EAF0EE66E000EF2ECE4
:1013D00030F0E3EC2DF007E1EC0EE66EAF0EE66EBA
:1013E000000EF2EC30F0E3EC2DF007E1900EE66E2B
:1013F000B30EE66E000EF2EC30F0E3EC2DF007E1F8
:10140000CE0EE66EB30EE66E000EF2EC30F0E3ECBC
:101410002DF007E1ED0EE66EB30EE66E000EF2EC77
:1014200030F0E3EC2DF007E1190EE66EB00EE66E3B
:10143000000EF2EC30F00501E751D880E85517E2D4
:10144000E8510001006F016BFA0ED89001BF03D084
:10145000005D000E01590BE20501E851E66EE66AF7
:10146000BD0EE66E9A0EE66E000E60EC33F00001E3
:10147000FF5102E10001776B0001ECEC2DF0050E4D
:10148000ACEC2FF0ECEC2DF0EE6AEE6AEE6AEE6A50
:10149000BCD644EC6FF0000EF5EF2DF00001010E0C
:1014A000666F83A449D0B0EC34F0640E6AEC31F07E
:1014B00004C6E6FF05C6E6FF06C6E6FF07C6E6FF6A
:1014C000A1EC63F01CEC2FF0B5DC44E9F3CFE6FFB0
:1014D000F4CFE6FFA30EE66E9A0EE66E000E25EC44
:1014E0002DF04BE9010EE66EE66AA2EC30F0E66EF6
:1014F000A2EC30F0020EFDEC30F01CEC2FF00EEC04
:1015000030F0A1EC63F00EEC30F01CEC2FF0830E09
:10151000E66E9A0EE66E000E25EC2DF051E9010EF6
:10152000E66E030EFDEC30F0880EE66E130ECEEC88
:1015300032F0ACEC60F0B5D70001666B1200DEEC67
:101540002DF083E91B0E6BEC30F05B0E6BEC30F092
:10155000320E6BEC30F04A0E6BEC30F04E0EE66E55
:10156000A90EE66E000EF2EC30F0010EE66EA90E4A
:10157000E66E000EF2EC30F0F5EF2DF0DEEC2DF023
:1015800082E900017A5103E0070E005C28E17B51FB
:1015900009E0B7EC32F00001500E036FA10E046FAA
:1015A000000E08D0B7EC32F00001DC0E036FA20E83
:1015B000046F000E056F160EEBEC33F000EBE6FF48
:1015C000E66AE66AB4EC64F0E552E5CF08F0A9EC0F
:1015D00030F00001F9EC2DF000EB7CF02DD0005044
:1015E0000501E95D21E00001816B41EC6EF08B9219
:1015F0000401D16BD1510A0814E34CEC2FF0040123
:10160000D1250001066F076B086BF9EC2DF0010E78
:10161000E66EE66A38EC2FF0B7EC2EF00401D12B21
:10162000E9D700EBE9F508D04CEC2FF00A0F066F74
:10163000076B086BF9EC2DF0010EE66EE66A38ECEC
:101640002FF0E66A010EE66E38EC2FF0E66A020E25
:10165000E66E38EC2FF0E66A030EE66E38EC2FF0FB
:10166000F5EF2DF00401D26B030ED25D07E2D251EB
:101670005FEC30F0FE0EEF6ED22BF6D70001DC519E
:10168000FDEC32F002E1765123E076510EE00401E8
:10169000D351D32B32080DE20501EA2BEA5105089C
:1016A00001E2EA6B0401D36B04D0030EDC250501D3
:1016B000EA6FE66AEAC5E6FF3AEC00F042E9E66E58
:1016C0000001DC515FEC30F0E552E750EF6E1200A4
:1016D000DC515FEC30F0EF681200DEEC2DF081E9B8
:1016E00043E8026A00017B5104E1825102E1855125
:1016F00002E0030E69D2DC51016EEFEC33F09AEC9C
:1017000032F0EE6AED6A010EE66E0AEC2FF0EFECB5
:1017100033F017EC30F0EE50ED1006E093EC2FF0C4
:101720000CE1010EE66E05D093EC2FF006E0E66AC0
:10173000010EE66E5BEC6EF042E9D950030FE66EE7
:10174000DACFE6FF47DA42E90001F751035C08E12E
:101750008B96010E7B6F03EBE6FF10DF41E931D280
:10176000B0EC34F0F3EC0FF0E9EC31F00DE20051A5
:101770000408000E015508E205019A0EEB6F990E60
:10178000EC6FED6F3E0E11D00150FDEC32F007E032
:101790000501EB6BEC6BC00EED6F3F0E06D0050143
:1017A00025EC2FF003E097EC2FF0EE6F000186514F
:1017B0006DE0F7EC30F087EC30F005AF02D0066951
:1017C000076911EC32F006E6D8802C0E0055010EA8
:1017D0003EEC2FF014E28DBE25D04CEC32F0FCEC48
:1017E0002EF08D8E0001806FF85107E0690EE66ED5
:1017F0009A0EE66E000EF2EC30F08D8013D08DAEB6
:1018000011D04CEC32F0ACEC2FF08D9E0001806BCF
:10181000F85107E0500EE66E9A0EE66E000EF2ECFE
:1018200030F08D80F7EC30F087EC30F005AF02D06F
:101830000669076911EC32F006E6D880900E005573
:10184000010E3EEC2FF012E28DB620D08DAE1ED0F0
:101850000001010E876FF85107E02C0EE66E9A0E1C
:10186000E66E000EF2EC30F08D8610D08DA60ED014
:101870008DAE0CD00001876BF85107E0090EE66EC3
:101880009A0EE66E000EF2EC30F08D966FEC33F0AF
:10189000C10ED3EC32F004E60051025D0151035950
:1018A00001E38FD0F7EC30F0EECF04F0EFCF05F08E
:1018B00038EC2EF0410ED9EC32F0A9EC30F00001FA
:1018C00007350751051904E60651045D075105590E
:1018D00001E377D0025045E00001865142E0050166
:1018E000EF51F01117E0E0EC32F00001F85112E096
:1018F000A8EC31F001E0010E11EC33F019EC32F0FC
:10190000BC0EE66E990EE66E000E25EC2DF04DE94C
:1019100003EC31F0015090EC2DF004013F0551E152
:1019200001509DEC32F00501EF51F0114AE025EC39
:101930002FF003E097EC2FF0EE6F0001F8513DE03F
:10194000A8EC31F001E0010E11EC33F019EC32F0AB
:10195000750EE66E990EE66E000E25EC2DF04DE943
:1019600023D001509DEC32F0015090EC2DF0050198
:10197000EF51F01126E025EC2FF003E097EC2FF06B
:10198000EE6F0001F85119E0A8EC31F001E0010E12
:1019900011EC33F062EC2FF01D0EE66E990EE66E40
:1019A000000E25EC2DF04FE903EC31F05A0EE66EF7
:1019B000990EE66E000EF2EC30F00501EF6BF06B65
:1019C0008B966FEC33F0410ED3EC32F004E600510D
:1019D000025D0151035948E2C3EC31F097EC32F05B
:1019E00014E1EFEC33F09AEC32F0EE2AEF22E9EC5E
:1019F00031F00BE200510108000E015506E206012C
:101A0000652B000E662367236823EFEC33F0020E8C
:101A1000FCEC2EF08AEC33F004E1000101510501E9
:101A2000F21922E0F7EC30F08FEC30F007AF02D083
:101A300008690969A1EC2EF002E6C8EC2FF014E267
:101A40000001F8510FE0A8EC31F001E0010E11ECBB
:101A500033F0F8EC31F0D00EE66E980EE66E000E24
:101A6000F2EC30F0BAEC33F06FEC33F0C10EF1EC85
:101A70002EF0000103350351011904E60251005D07
:101A8000035101592EE2C3EC31F0ACEC2FF08AEC9B
:101A900033F004E1000101510501F21922E0F7ECF5
:101AA00030F08FEC30F007AF02D008690969A1EC83
:101AB0002EF002E6C8EC2FF014E20001F8510FE01E
:101AC000A8EC31F001E0010E11EC33F0F8EC31F04C
:101AD000B90EE66E980EE66E000EF2EC30F0BAEC3F
:101AE00033F0E9EC31F00AE200510108000E015533
:101AF00005E2EFEC33F0050EFCEC2EF0EFEC33F0EA
:101B0000E8EC2EF001350AE200510208000E015502
:101B100005E2EFEC33F0090EFCEC2EF00150FDEC89
:101B200032F010E004017051010B0CE17051020B16
:101B300009E17051040B06E1E66A0AEC2FF0000996
:101B400001E1FBD50001865103E0876B8D9E806B20
:101B5000E66A0AEC2FF0000913E00001F85107E0F3
:101B60006A0EE66E980EE66E000EF2EC30F00001A2
:101B7000865102E023EC30F065EC30F0040E24D006
:101B800004017051010B06E17051020B03E1705129
:101B9000040B19E00001F85107E0140EE66E980EF0
:101BA000E66E000EF2EC30F00001865102E023EC0C
:101BB00030F0040170A105D070910001010E7B6F1F
:101BC0008B96020E01D0000EF36EF46A44E9E7CF63
:101BD000D9FF1200DEEC2DF083E983380F0B0001F2
:101BE000F7150501F46F0001F7510501F45D59E1A6
:101BF0000001F7510501F35D03E0040E1FEC2EF028
:101C00002CEC30F03BE10001F7510501F35D11E0F0
:101C1000F7EC2EF0070EEF6EE7EC32F09EEC2FF0B3
:101C2000FA0EE66E970EE66E000E60EC33F0F7C02B
:101C3000F3F50001845115E0AAEC03F0DB0EE66E2B
:101C4000970EE66E000E25EC2DF035EC30F0F7C067
:101C5000F3F5F7EC2EF0070EEF6E0001010E7A6F30
:101C6000886B846B7CC0E6FF57EC6AF041E97CC06E
:101C7000E6FF84DC41E9F7C0F6F510D09EEC2FF0CA
:101C8000F351E66EE66A890EE66E970EE66E000E7A
:101C9000EDEC32F0F3C5EFFF0501F66B0501F651EF
:101CA00057D0F451F35D4FE0030EE66EC3EC60F0E5
:101CB00041E9040E1FEC2EF02CEC30F038E1F7EC8B
:101CC0002EF0F4C5EFFFE7EC32F0AAEC03F0F7ECEE
:101CD0002EF0EF50E66EE66A0501F351E66EE66A15
:101CE0004C0EE66E970EE66E000EEDEC32F0EFCF86
:101CF000F3F5000184510DE1AAEC03F02F0EE66E1E
:101D0000970EE66E000E25EC2DF035EC30F000015C
:101D1000886B010E846F7CC0E6FF57EC6AF041E9E6
:101D200000017A6B7CC0E6FF29DC41E910D09EEC13
:101D30002FF0F351E66EE66ADE0EE66E960EE66E64
:101D4000000E96EC33F0F7EC2EF0F3C5EFFF000E2B
:101D5000F5EF2DF0A5EC31F00AE10401D46BB3EC02
:101D600030F001E3DC6BC0EC33F0F9E07BDC040124
:101D700070A31DD08B84D46BB3EC30F001E3DC6B2B
:101D8000C0EC33F0F9E06EDCA5EC2FF0CC0EE66E83
:101D9000960EE66E000E60EC33F0B10EE66E960E17
:101DA000E66E000EF2EC30F08B94040170937051EB
:101DB000010B08E1E66A38EC30F000091BE0000195
:101DC0007A5118E000017A5106E17B5102E0000EE1
:101DD00001D0010E7B6F18EC31F0870EE66E960E87
:101DE000E66E000EF2EC30F000017A6B04017091A7
:101DF0008B906BD004010F0566E0E66AC6EC33F009
:101E0000000963E0010EE66E38EC30F00001010ECF
:101E10007A6F8B8004010F5129E1CDEC31F002E69D
:101E2000F0EC32F023E20001010E7A6F8B908451C6
:101E300011E10501F72B34EC2EF0110E0501F75DD1
:101E400001E3F76B7BEC33F06F0EE66E960EE66EF9
:101E5000000E35D0F6EC32F001E3A26B8DEC31F0E0
:101E6000480EE66E960EE66E000E29D0CDEC31F0EF
:101E700002E6F0EC32F025E20001010E7A6F8B9061
:101E8000845112E10501F70734EC2EF0110E050123
:101E9000F75D02E3100EF76F7BEC33F0310EE66E68
:101EA000960EE66E000E0BD0F6EC32F001E3A26B5C
:101EB0008DEC31F01A0EE66E960EE66E000EF2EC28
:101EC00030F08B8002D034EC2EF000017A5102E029
:101ED0008B8001D08B90855170E17B5102E1825162
:101EE0006AE093EC2FF006E0E66A010EE66E5BEC2A
:101EF0006EF042E904011F0546E0E66AEBEC2EF0C5
:101F000000095BE08B8404011F511AE11B35000EB0
:101F10001B1909E6D880010E1855000E1955000E40
:101F20001A55000E1B550CE202EC32F0FCEC2EF0C0
:101F30005DEC31F0D00EE66E980EE66E000E20D00D
:101F4000020E1F5D3AE118C4E6FF19C4E6FF1AC489
:101F5000E6FF1BC4E6FFD9EC33F006E6D880010E9D
:101F60000055000E3EEC2FF028E202EC32F0ACEC13
:101F70002FF05DEC31F0B90EE66E980EE66E000EB5
:101F8000F2EC30F01AD0000182510CE1DC519DECF2
:101F900032F068EC33F0020EFCEC2EF0DC5190ECE9
:101FA0002DF003D0DC519DEC32F0010EE66EEBEC2F
:101FB0002EF08B9402D06DEC0BF000017B5107E00A
:101FC000E66A02EC33F00CE1010EE66E05D0E66A3B
:101FD00002EC33F005E0E66AE66A5BEC6EF042E99B
:101FE0000501F751120032EC0BF08BC0FBFF8AC0E9
:101FF000FAFF0001895114001200DEEC2DF082E995
:1020000047E8076A086A41EC6EF000017B5104E181
:1020100005013051311102E0030E09D00001806B3F
:102020000401355136113711381104E1020EF36EF7
:10203000F46A72D0026A0250005C68E33CEC31F052
:102040000A0EE66ED70EE66E230EE66E3C0EC1EC6F
:102050002DF083EC31F05AE1036A046A056A066ADE
:10206000D890065002E63EEC30F00FE2FA0EE66E33
:102070007E0EE66E2A0EE66E3F0E1FEC33F005E193
:10208000D950030FBCEC2EF0EBD7036A046A056A43
:10209000066AD890065002E63EEC30F00FE2FA0EE7
:1020A000E66E7E0EE66EAA0EE66E3E0E1FEC33F076
:1020B00005E1D950030FBCEC2EF0EBD7660EE66EAF
:1020C000E66EE66E3F0EDDEC33F020E1CD0EE66EFF
:1020D000CC0EE66EE66E3D0EDDEC33F017E1E66AFF
:1020E000E66AE66A3F0EDDEC33F010E10401705160
:1020F000010B06E17051020B03E17051040B04E087
:10210000010E076E086A02D0022A95D73AEC32F027
:1021100007EBF3FF08EBF4FF48E9E7CFD9FF120024
:10212000DEEC2DF082E948E8086A096A41EC6EF0BD
:1021300000017B5104E105013051311104E0030E2F
:10214000F36EF46A7CD00001806B026A0050025C7E
:1021500070E2036A030E035C6AE203EBDCF0A5ECB9
:1021600031F063E03CEC31F051EC31F0640EEE6E96
:10217000ED6A83EC31F05BE1046A056A066A076A7E
:10218000D890075002E647EC30F00DE250EC30F00A
:102190009A0E0027020E57EC33F005E1D950040FD8
:1021A000BCEC2EF0EDD7046A056A066A076AD8907F
:1021B000075002E647EC30F00DE250EC30F04D0EE7
:1021C0000027010E57EC33F005E1D950040FBCECA9
:1021D0002EF0EDD751EC31F0840EEE6E030EED6E65
:1021E00073EC33F051EC31F0640EEE6EED6A73EC8B
:1021F00033F002501DEC2DF00D0E53EC33F0F3ECE8
:1022000031F051EC31F0B0EC31F073EC33F004010B
:102210007051010B06E17051020B03E17051040B88
:1022200004E0010E086E096A02D0032A93D7022A3D
:102230008DD73AEC32F008EBF3FF09EBF4FF49E9F4
:10224000E7CFD9FF120032EC0BF000017C51070AF6
:102250001CE0010A15E0030A11E0080A0FE00E0A6B
:102260000DE0010A0BE0060A05E0050A07E0010A95
:102270000CE104D0030EE66EC0DE05D0020E01D0E4
:10228000040EE66E4DDF41E912008BC0FBFF8AC0F1
:10229000FAFF8951140012005DDD0501F86FF80E98
:1022A000E66E050EE66E96DC42E9F8C5E6FFBEEC8A
:1022B0000AF041E9F3EF0FF00001A2511EE1A2EC98
:1022C00032F0C60EE66E950EE66E000E0DEC33F0A3
:1022D00077EC33F067EC2FF0B00EE66E950EE66EFD
:1022E000000ECCEC33F0B8EC30F09A0EE66E950EA2
:1022F000E66E000E0DEC33F007D0F5EC33F01CEC7D
:102300002EF0FAEC30F045E950EF2EF00001A2512A
:1023100018E1E8EC2DF058EC2FF05B0EE66E950E10
:10232000E66E000E07EC33F03A0EE66E950EE66EA2
:10233000000E9AEC33F01D0EE66E950EE66E000E62
:102340001DD050EC33F00CE05DEC2DF09EEC33F042
:10235000F60EE66E940EE66E000E25EC2DF04DE9BD
:1023600079EC31F0DC0EE66E940EE66E000E9AEC1F
:1023700033F0DC0EE66E940EE66E000EA7EF32F040
:102380000001A25135E1E8EC2DF058EC2FF0B30E2E
:10239000E66E940EE66E000E07EC33F007EC2FF0BD
:1023A00080C5E6FF81C5E6FF7EC5E6FF7FC5E6FF87
:1023B00067EC2FF08A0EE66E940EE66E000E25ECAA
:1023C0002DF053E99CEC2EF0C2C5E6FFC3C5E6FF35
:1023D000C0C5E6FFC1C5E6FFB8EC30F0610EE66EA1
:1023E000940EE66E000E25EC2DF059EC30F011D075
:1023F00050EC33F002E008EC31F03AEC33F002E05C
:1024000010EC31F018EC33F002E034EC31F0ABECCE
:1024100031F043E912000001A25130E1E8EC2DF067
:10242000D2EC2EF0C30EE66E930EE66E000E07ECB5
:1024300033F067EC2FF0AB0EE66E930EE66E000EF7
:102440000DEC33F09CEC2EF06BEC33F0C2C5E6FFE4
:10245000C3C5E6FF7FEC31F0C0C5E6FFC1C5E6FFAE
:10246000FBEC62F0B8EC30F0820EE66E930EE66E96
:10247000000E25EC2DF059EC30F011D050EC33F07B
:1024800002E008EC31F03AEC33F002E010EC31F00D
:1024900018EC33F002E034EC31F0ABEC31F043E90E
:1024A00012000001A25119E1ACEC32F013EC2EF055
:1024B00007EC2FF06BEC33F080C5E6FF81C5E6FF3B
:1024C0007FEC31F07EC5E6FF7FC5E6FFFBEC62F0F6
:1024D00067EC2FF045EC33F009D0F5EC33F097ECD6
:1024E00030F002E010EC31F0A3EC33F0A7EF32F063
:1024F0000001A2510BE1ACEC32F013EC2EF0E8EC51
:102500002DF0D2EC2EF045EC33F00BD0FAEC30F09D
:1025100013EC2EF050EC33F002E008EC31F0A3ECB9
:1025200033F0A7EF32F00001A25148E114C5E6FFF5
:1025300015C5E6FF10C4E6FF11C4E6FF12C4E6FFAE
:1025400013C4E6FF29C4E6FF2AC4E6FF2BC4E6FF56
:102550002CC4E6FFA2EC32F0220EE66E930EE66E7D
:10256000000E25EC2DF051E977EC33F00501015117
:102570001BE00251E66EE66AFB0EE66E920EE66E18
:10258000000ECCEC33F031C4E6FF32C4E6FF33C4B6
:10259000E6FF34C4E6FFDA0EE66E920EE66E000E3B
:1025A00025EC2DF049E907D0ACEC32F01CEC2EF014
:1025B000ACEC32F045E93EEC33F011D050EC33F0A6
:1025C00002E0D7EC31F03AEC33F002E06DEC31F0A0
:1025D00018EC33F002E0E0EC31F0ABEC31F043E921
:1025E00012000001A2511BE14F0EE66E920EE66E44
:1025F000000E25EC2DF013EC2EF0390EE66E920E47
:10260000E66E000E9AEC33F0230EE66E920EE66E46
:10261000000E25EC2DF045E93EEC33F011D050ECE6
:1026200033F002E008EC31F03AEC33F002E010EC69
:1026300031F018EC33F002E034EC31F0ABEC31F077
:1026400043E912000C0EE66E920EE66E000E25ECCB
:102650002DF013EC2EF0F50EE66E910EE66E000EE8
:102660009AEC33F0DE0EE66E910EE66E000EA7EFEA
:1026700032F00001A2514BE1FAEC30F045E9640E72
:102680000501D89095BF03D0945D000E95590AE2DC
:10269000CCEC2EF0BF0EE66E910EE66E000E25EC31
:1026A0002DF047E977EC33F08DB20AD0CCEC2EF068
:1026B00067EC2FF0A00EE66E910EE66E000E09D0CC
:1026C000C6EC2EF067EC2FF0810EE66E910EE66EF2
:1026D000000E25EC2DF049E9F2EC33F0FAEC30F085
:1026E00045E9640E0501D89011BF03D0105D000EBE
:1026F00011590AE2C6EC2EF0630EE66E910EE66EFC
:10270000000E25EC2DF047E93EEC33F011D050ECF3
:1027100033F002E0D7EC31F03AEC33F002E06DEC4C
:1027200031F018EC33F002E0E0EC31F0ABEC31F0DA
:1027300043E91200DEEC2DF082E942E8026A036A06
:10274000030ED89003BE03D0025C000E03581DE2B6
:102750000050E66E02EBE9FF03EBEAFF420EEA02ED
:10276000F3CFEAFFE902F3CFE9FFF450EA26000EC7
:10277000E926050EEA2217EC30F0E552E750EE6E3E
:10278000ED6A022A000E0322DBD743E9E7CFD9FF27
:102790001200DCC0D5F40001DC6B68EC33F044ECD3
:1027A0002FF002E06DEC0BF0B3EC30F0F6E341EC0F
:1027B0006EF0D5C4DCF0010E1FEF2EF0D9CFE6FF8E
:1027C000E1CFD9FF81E951E8DC0E056E050E066EFA
:1027D000076A086A096A0A6A0B6A0C6A580E0D6E63
:1027E000106A116A0001816BB0EC34F0B0EC34F087
:1027F0000001010E886F040170950001A26B7CC07E
:10280000E6FF57EC6AF041E90001855107E08B9241
:1028100000017B6B0001806BE0EF28F0AAEC03F075
:102820003F0EE66E910EE66E000EE66E4FEC73F014
:1028300043E9020E00017C5D06E1D00E056E070E35
:10284000066E076A086A030E00017C5D06E1A00EB1
:10285000056E0F0E066E076A086A0001010E7B6F97
:102860000501080503E10001010E806F41EC6EF0E7
:10287000010EE66EE66AE66AE66A56EC01F044E9A5
:1028800000017C5100E1030E00017C5D18E1020EA5
:10289000E66EE66AE66AE66A05EBE6FF06EBE6FF49
:1028A00007EBE6FF08EBE6FF14EC65F0E552E550B8
:1028B000086EE550076EE550066EE750056E0001A4
:1028C0007C0518E1020EE66EE66AE66AE66A05EB4A
:1028D000E6FF06EBE6FF07EBE6FF08EBE6FF14EC8E
:1028E00065F0E552E550086EE550076EE550066E5E
:1028F000E750056EE66A1EDF41E944EC6EF0010E1A
:10290000E66E05EBE6FF06EBE6FF07EBE6FF08EBFE
:10291000E6FF55EC02F045E9016A026A036A046ABF
:102920000001865102E0B1EF1DF0060E00017C5D52
:1029300001E0CDD30E6A0F6A0F3404E20E50010895
:10294000000E0F5401E2A1D2640E056E066A076AFA
:10295000086A010EE66E05EBE6FF06EBE6FF07EB05
:10296000E6FF08EBE6FF55EC02F045E944EC6EF0BB
:10297000016A026A036A046A80C0E6FF47EC6EF0EF
:1029800041E9D00EE66E070EE66EE66AE66A01EBF6
:10299000E6FF02EBE6FF03EBE6FF04EBE6FFA4EC49
:1029A00063F0E552E5CF03F0E5CF02F0E5CF01F0AB
:1029B000E7CF00F00001005101110211031101E005
:1029C000DAD0040170A52DD041EC6EF0010EE66E58
:1029D000B1DE41E9B9EC60F0060EE66EE66AE66A41
:1029E000E66A56EC01F044E98B920001010E7B6F20
:1029F0000001806B80C0E6FF47EC6EF041E97CC0CF
:102A0000E6FF57EC6AF041E9AAEC03F0110EE66E1E
:102A1000910EE66E000EE66E4FEC73F043E9E0EFC8
:102A200028F0E4EC28F00EEBE6FF0FEBE6FFF50EE6
:102A3000E66E900EE66E000EE66E000EE66E020E7C
:102A4000E66E7FEC72F047E9010EE66EE66AA0C022
:102A5000E6FFB7EC00F043E90A0EE66EE66A94C5BD
:102A6000E6FF95C5E6FFFBEC62F0CA0EE66E900E3F
:102A7000E66E000EE66E000EE66E020EE66E7FEC6F
:102A800072F047E9640E0501D89095BF03D0945DBC
:102A9000000E955916E20A0EE66EE66A94C5E6FF48
:102AA00095C5E6FFFBEC62F0AB0EE66E900EE66EAF
:102AB000000EE66E000EE66E020EE66E7FEC72F021
:102AC00047E9010EE66E010EE66EE66AB7EC00F02D
:102AD00043E9830EE66E900EE66E000EE66E000E83
:102AE000E66E020EE66E7FEC72F045E9010EE66ED0
:102AF000020EE66EE66AB7EC00F043E90A0EE66EF7
:102B0000E66A10C5E6FF11C5E6FFFBEC62F0560E63
:102B1000E66E900EE66E000EE66E000EE66E020E9B
:102B2000E66E7FEC72F047E9640E0501D89011BFA4
:102B300003D0105D000E115916E20A0EE66EE66A29
:102B400010C5E6FF11C5E6FFFBEC62F0630EE66E12
:102B5000910EE66E000EE66E000EE66E020EE66E5A
:102B60007FEC72F047E9010EE66E030EE66EE66A50
:102B7000B7EC00F043E9D950010FE96EDACFEAFF74
:102B8000EE2A000EEE22EE22EE22E66A05EBE6FFCA
:102B900006EBE6FF07EBE6FF08EBE6FF55EC02F07D
:102BA00045E9000901E1E8D6640E0501D89095BF1A
:102BB00003D0945D000E95590CE20501113504E235
:102BC00010519008010E115504E2010E0501706FBD
:102BD000716B640E0501D89011BF03D0105D000E1B
:102BE000115903E205016E6B6F6B010EE66E05EB8A
:102BF000E6FF06EBE6FF07EBE6FF08EBE6FF55EC2A
:102C000002F045E941EC6EF0016A026A036A046A67
:102C100080C0E6FF47EC6EF041E9D00EE66E070E8D
:102C2000E66EE66AE66A01EBE6FF02EBE6FF03EB1F
:102C3000E6FF04EBE6FFA4EC63F0E552E5CF03F01A
:102C4000E5CF02F0E5CF01F0E7CF00F00001005141
:102C500001110211031101E0DAD0040170A52DD099
:102C600041EC6EF0010EE66E65DD41E9B9EC60F015
:102C7000060EE66EE66AE66AE66A56EC01F044E99C
:102C80008B920001010E7B6F0001806B80C0E6FF1C
:102C900047EC6EF041E97CC0E6FF57EC6AF041E991
:102CA000AAEC03F0110EE66E910EE66E000EE66ED3
:102CB0004FEC73F043E9E0EF28F0E4EC28F00EEB82
:102CC000E6FF0FEBE6FF3B0EE66E900EE66E000EA3
:102CD000E66E000EE66E020EE66E7FEC72F047E9DD
:102CE000010EE66EE66AA0C0E6FFB7EC00F043E92D
:102CF0000A0EE66EE66A94C5E6FF95C5E6FFFBECB4
:102D000062F0CA0EE66E900EE66E000EE66E000EE3
:102D1000E66E020EE66E7FEC72F047E9640E050186
:102D2000D89095BF03D0945D000E955916E20A0E17
:102D3000E66EE66A94C5E6FF95C5E6FFFBEC62F039
:102D4000AB0EE66E900EE66E000EE66E000EE66EC0
:102D5000020EE66E7FEC72F047E9010EE66E010EA0
:102D6000E66EE66AB7EC00F043E9100EE66E900EF0
:102D7000E66E000EE66E000EE66E020EE66E7FEC6C
:102D800072F045E9010EE66E020EE66EE66AB7ECF9
:102D900000F043E90A0EE66EE66A10C5E6FF11C5CB
:102DA000E6FFFBEC62F0560EE66E900EE66E000E4D
:102DB000E66E000EE66E020EE66E7FEC72F047E9FC
:102DC000640E0501D89011BF03D0105D000E11599B
:102DD00016E20A0EE66EE66A10C5E6FF11C5E6FFCA
:102DE000FBEC62F0630EE66E910EE66E000EE66E90
:102DF000000EE66E020EE66E7FEC72F047E9010E01
:102E0000E66E030EE66EE66AB7EC00F043E9D950D1
:102E1000010FE96EDACFEAFFEE2A000EEE22EE2273
:102E2000EE22E66A05EBE6FF06EBE6FF07EBE6FFC0
:102E300008EBE6FF55EC02F045E9000901E1E8D6B0
:102E4000640E0501D89011BF03D0105D000E11591A
:102E50000CE20501953504E294519008010E955558
:102E600004E2010E05016E6F6F6B640E0501D890D0
:102E700095BF03D0945D000E955903E20501706B78
:102E8000716B0E2A000E0F2257D58B9200017B6BBF
:102E90000001806B05016E516F1105E00501705155
:102EA000711101E007D10501485101E103D104018D
:102EB0007095590E0D6E0DEB00F00001016B00BF17
:102EC000016900C0E6FF01C0E6FFF00EE66E8F0E5E
:102ED000E66E000EE66E000EE66E020EE66E7FEC0B
:102EE00072F047E9010EE66EE66AA0C0E6FFB7ECB5
:102EF00000F043E9000EE66E020EE66EA4EC73F0FD
:102F000042E9AF0EE66E9D0EE66E000EE66E4FECE9
:102F100073F043E96EC5E6FF6FC5E6FF70C5E6FFD7
:102F200071C5E6FFD90EE66E8F0EE66E000EE66EF8
:102F3000000EE66E020EE66E7FEC72F049E9010EBD
:102F4000E66E010EE66EE66AB7EC00F043E9000EAD
:102F5000E66E020EE66EA4EC73F042E9AF0EE66E8A
:102F60009D0EE66E000EE66E4FEC73F043E9C20E66
:102F7000E66E8F0EE66E000EE66E000EE66E020E38
:102F8000E66E7FEC72F045E90501705171110DE1BB
:102F9000A60EE66E8F0EE66E000EE66E000EE66E74
:102FA000020EE66E7FEC72F045E9010EE66E020E4F
:102FB000E66EE66AB7EC00F043E9000EE66E020E3C
:102FC000E66EA4EC73F042E9AF0EE66E9D0EE66E7F
:102FD000000EE66E4FEC73F043E9C20EE66E8F0E04
:102FE000E66E000EE66E000EE66E020EE66E7FECFA
:102FF00072F045E905016E516F110DE1880EE66E24
:103000008F0EE66E000EE66E000EE66E020EE66EA7
:103010007FEC72F045E9010EE66E030EE66EE66A9D
:10302000B7EC00F043E9000EE66E020EE66EA4EC8B
:1030300073F042E9AF0EE66E9D0EE66E000EE66E90
:103040004FEC73F043E9010EE66E010EE66E5BECA9
:103050006EF042E9020EE66EC3EC60F041E9040056
:10306000040170A5F7D7E66A010EE66E5BEC6EF020
:1030700042E941EC6EF0010EE66E9AEC13F041E984
:10308000B9EC60F0060EE66EE66AE66AE66A56ECB1
:1030900001F044E98B920001010E7B6F0001806B0F
:1030A00080C0E6FF47EC6EF041E97CC0E6FF57ECDC
:1030B0006AF041E9AAEC03F0620EE66E8F0EE66E4E
:1030C000000EE66E4FEC73F043E9E0EF28F041ECC0
:1030D0006EF0060EE66EE66AE66AE66A56EC01F007
:1030E00044E937EC6EF0010EE66EE66AE66AE66ADF
:1030F00056EC01F044E9106A116A44EC6EF0010EDE
:10310000E66E05EBE6FF06EBE6FF07EBE6FF08EBF6
:10311000E6FF55EC02F045E9030E00017C5D0DE190
:1031200080C0E6FF47EC6EF041E9140EE66EE66AF9
:10313000E66AE66A56EC01F044E913EC34F080C02C
:10314000E6FF47EC6EF041E9E80EE66E030EE66E30
:10315000E66AE66A01EBE6FF02EBE6FF03EBE6FF59
:1031600004EBE6FFA4EC63F0E552E5CF03F0E5CF16
:1031700002F0E5CF01F0E7CF00F0000100510111AE
:103180000211031101E027D233EC34F0000901E110
:10319000D6D0AAEC03F0200EE96E060EEA6EEE50D1
:1031A0000601145D0001046FEE500601155900017F
:1031B000056FEE50060116590001066FEE5006012C
:1031C00017590001076F04C0E6FF05C0E6FF06C0FF
:1031D000E6FF07C0E6FFBEEC07F044E9FCC300F0E1
:1031E000FDC301F0FEC302F0FFC303F000C0E6FF21
:1031F00001C0E6FF02C0E6FF03C0E6FF1C0EE96E59
:10320000060EEA6EEE500601105D00010C6FEE50E6
:103210000601115900010D6FEE500601125900010F
:103220000E6FEE500601135900010F6F0CC0E6FF40
:103230000DC0E6FF0EC0E6FF0FC0E6FFBEEC07F0D4
:1032400044E9FCC308F0FDC309F0FEC30AF0FFC364
:103250000BF008C0E6FF09C0E6FF0AC0E6FF0BC09E
:10326000E6FF180EE96E060EEA6EEE5006010C5DE2
:103270000001146FEE5006010D590001156FEE505C
:1032800006010E590001166FEE5006010F5900019C
:10329000176F14C0E6FF15C0E6FF16C0E6FF17C0A3
:1032A000E6FFBEEC07F044E9FCC310F0FDC311F0EB
:1032B000FEC312F0FFC313F010C0E6FF11C0E6FF1B
:1032C00012C0E6FF13C0E6FF450EE66E8F0EE66EF7
:1032D000000EE66E000EE66E020EE66E7FEC72F0F9
:1032E00051E9000EE66E020EE66EA4EC73F042E9C0
:1032F00006013C5122E006013D511FE006013E510E
:103300001CE000017C5103E0010E106E116AAAEC72
:1033100003F0200EE66E8F0EE66E000EE66E000ED7
:10332000E66E020EE66E7FEC72F045E9000EE66E88
:10333000020EE66EA4EC73F042E913EC34F00401E3
:1033400070A52ED041EC6EF0010EE66E9AEC13F0F3
:1033500041E9B9EC60F0060EE66EE66AE66AE66AF6
:1033600056EC01F044E98B920001010E7B6F0001E5
:10337000806B80C0E6FF47EC6EF041E97CC0E6FF61
:1033800057EC6AF041E9AAEC03F0110EE66E910EDB
:10339000E66E000EE66E4FEC73F043E9E0EF28F0C6
:1033A000E4EC28F001EBE6FF02EBE6FF03EBE6FFBF
:1033B00004EBE6FF080EE66E8F0EE66E000EE66E7C
:1033C000000EE66E020EE66E7FEC72F049E9010E29
:1033D000E66EE66AA0C0E6FFB7EC00F043E9020E35
:1033E00000017C5D3CE0840EE66E950EE66E000EFC
:1033F000E66E000EE66E020EE66E7FEC72F045E9B8
:10340000050106512BE030C6E6FF31C6E6FF32C6A5
:10341000E6FF33C6E6FF0A0EE66EE66A2AC5E6FF59
:103420002BC5E6FFFBEC62F00A0EE66EE66A3CC5D1
:10343000E6FF3DC5E6FFFBEC62F010C5E6FF11C5F7
:10344000E6FFE00EE66E8E0EE66E000EE66E000EF5
:10345000E66E020EE66E7FEC72F04FE92ED00501AB
:1034600006512BE030C6E6FF31C6E6FF32C6E6FF66
:1034700033C6E6FF0A0EE66EE66A2AC5E6FF2BC5EE
:10348000E6FFFBEC62F00A0EE66EE66A3CC5E6FF7C
:103490003DC5E6FFFBEC62F010C5E6FF11C5E6FF97
:1034A000B80EE66E8E0EE66E000EE66E000EE66E4E
:1034B000020EE66E7FEC72F04FE9010EE66E010E31
:1034C000E66EE66AB7EC00F043E9840EE66E950E10
:1034D000E66E000EE66E000EE66E020EE66E7FEC05
:1034E00072F045E9050148512BE034C6E6FF35C6C8
:1034F000E6FF36C6E6FF37C6E6FF0A0EE66EE66A68
:103500006CC5E6FF6DC5E6FFFBEC62F00A0EE66EE9
:10351000E66A7EC5E6FF7FC5E6FFFBEC62F052C5BA
:10352000E6FF53C5E6FF900EE66E8E0EE66E000EC9
:10353000E66E000EE66E020EE66E7FEC72F04FE96C
:10354000010EE66E020EE66EE66AB7EC00F043E9A5
:10355000840EE66E950EE66E000EE66E000EE66ECA
:10356000020EE66E7FEC72F045E905018A512BE010
:1035700038C6E6FF39C6E6FF3AC6E6FF3BC6E6FFB9
:103580000A0EE66EE66AAEC5E6FFAFC5E6FFFBECE7
:1035900062F00A0EE66EE66AC0C5E6FFC1C5E6FF48
:1035A000FBEC62F094C5E6FF95C5E6FF680EE66E9B
:1035B0008E0EE66E000EE66E000EE66E020EE66EF3
:1035C0007FEC72F04FE9010EE66E030EE66EE66ADE
:1035D000B7EC00F043E9D950010FE96EDACFEAFF0A
:1035E000EE2A000EEE22EE22EE22E66A05EBE6FF60
:1035F00006EBE6FF07EBE6FF08EBE6FF55EC02F013
:1036000045E9000904E11050111001E198D541ECA1
:103610006EF0060EE66EE66AE66AE66A56EC01F0C1
:1036200044E93EEC6EF0010EE66EE66AE66AE66A92
:1036300056EC01F044E9106A116A00017C5101E185
:103640008ED244EC6EF0010EE66E05EBE6FF06EB63
:10365000E6FF07EBE6FF08EBE6FF55EC02F045E975
:10366000016A026A036A046A030E00017C5D0DE1CF
:1036700080C0E6FF47EC6EF041E9140EE66EE66AA4
:10368000E66AE66A56EC01F044E913EC34F080C0D7
:10369000E6FF47EC6EF041E9E80EE66E030EE66EDB
:1036A000E66AE66A01EBE6FF02EBE6FF03EBE6FF04
:1036B00004EBE6FFA4EC63F0E552E5CF03F0E5CFC1
:1036C00002F0E5CF01F0E7CF00F000010051011159
:1036D0000211031101E027D233EC34F0000901E1BB
:1036E000D6D0AAEC03F0200EE96E060EEA6EEE507C
:1036F0000601145D0001046FEE500601155900012A
:10370000056FEE50060116590001066FEE500601D6
:1037100017590001076F04C0E6FF05C0E6FF06C0A9
:10372000E6FF07C0E6FFBEEC07F044E9FCC300F08B
:10373000FDC301F0FEC302F0FFC303F000C0E6FFCB
:1037400001C0E6FF02C0E6FF03C0E6FF1C0EE96E03
:10375000060EEA6EEE500601105D00010C6FEE5091
:103760000601115900010D6FEE50060112590001BA
:103770000E6FEE500601135900010F6F0CC0E6FFEB
:103780000DC0E6FF0EC0E6FF0FC0E6FFBEEC07F07F
:1037900044E9FCC308F0FDC309F0FEC30AF0FFC30F
:1037A0000BF008C0E6FF09C0E6FF0AC0E6FF0BC049
:1037B000E6FF180EE96E060EEA6EEE5006010C5D8D
:1037C0000001146FEE5006010D590001156FEE5007
:1037D00006010E590001166FEE5006010F59000147
:1037E000176F14C0E6FF15C0E6FF16C0E6FF17C04E
:1037F000E6FFBEEC07F044E9FCC310F0FDC311F096
:10380000FEC312F0FFC313F010C0E6FF11C0E6FFC5
:1038100012C0E6FF13C0E6FF450EE66E8F0EE66EA1
:10382000000EE66E000EE66E020EE66E7FEC72F0A3
:1038300051E9000EE66E020EE66EA4EC73F042E96A
:1038400006013C5122E006013D511FE006013E51B8
:103850001CE000017C5103E0010E106E116AAAEC1D
:1038600003F0200EE66E8F0EE66E000EE66E000E82
:10387000E66E020EE66E7FEC72F045E9000EE66E33
:10388000020EE66EA4EC73F042E913EC34F004018E
:1038900070A52ED041EC6EF0010EE66E9AEC13F09E
:1038A00041E9B9EC60F0060EE66EE66AE66AE66AA1
:1038B00056EC01F044E98B920001010E7B6F000190
:1038C000806B80C0E6FF47EC6EF041E97CC0E6FF0C
:1038D00057EC6AF041E9AAEC03F0110EE66E910E86
:1038E000E66E000EE66E4FEC73F043E9E0EF28F071
:1038F000E4EC28F001EBE6FF02EBE6FF03EBE6FF6A
:1039000004EBE6FF510EE66E8E0EE66E000EE66EDE
:10391000000EE66E020EE66E7FEC72F049E9010ED3
:10392000E66EE66AA0C0E6FFB7EC00F043E9840E5D
:10393000E66E950EE66E000EE66E000EE66E020E68
:10394000E66E7FEC72F045E9020E00017C5D2FE02F
:10395000050106512BE030C6E6FF31C6E6FF32C650
:10396000E6FF33C6E6FF0A0EE66EE66A2AC5E6FF04
:103970002BC5E6FFFBEC62F00A0EE66EE66A3CC57C
:10398000E6FF3DC5E6FFFBEC62F010C5E6FF11C5A2
:10399000E6FFE00EE66E8E0EE66E000EE66E000EA0
:1039A000E66E020EE66E7FEC72F04FE92ED0050156
:1039B00006512BE030C6E6FF31C6E6FF32C6E6FF11
:1039C00033C6E6FF0A0EE66EE66A2AC5E6FF2BC599
:1039D000E6FFFBEC62F00A0EE66EE66A3CC5E6FF27
:1039E0003DC5E6FFFBEC62F010C5E6FF11C5E6FF42
:1039F000B80EE66E8E0EE66E000EE66E000EE66EF9
:103A0000020EE66E7FEC72F04FE9010EE66E010EDB
:103A1000E66EE66AB7EC00F043E9840EE66E950EBA
:103A2000E66E000EE66E000EE66E020EE66E7FECAF
:103A300072F045E9050148512BE034C6E6FF35C672
:103A4000E6FF36C6E6FF37C6E6FF0A0EE66EE66A12
:103A50006CC5E6FF6DC5E6FFFBEC62F00A0EE66E94
:103A6000E66A7EC5E6FF7FC5E6FFFBEC62F052C565
:103A7000E6FF53C5E6FF900EE66E8E0EE66E000E74
:103A8000E66E000EE66E020EE66E7FEC72F04FE917
:103A9000010EE66E020EE66EE66AB7EC00F043E950
:103AA000840EE66E950EE66E000EE66E000EE66E75
:103AB000020EE66E7FEC72F045E905018A512BE0BB
:103AC00038C6E6FF39C6E6FF3AC6E6FF3BC6E6FF64
:103AD0000A0EE66EE66AAEC5E6FFAFC5E6FFFBEC92
:103AE00062F00A0EE66EE66AC0C5E6FFC1C5E6FFF3
:103AF000FBEC62F094C5E6FF95C5E6FF680EE66E46
:103B00008E0EE66E000EE66E000EE66E020EE66E9D
:103B10007FEC72F04FE9010EE66E030EE66EE66A88
:103B2000B7EC00F043E9D950010FE96EDACFEAFFB4
:103B3000EE2A000EEE22EE22EE22E66A05EBE6FF0A
:103B400006EBE6FF07EBE6FF08EBE6FF55EC02F0BD
:103B500045E9000904E11050111001E198D5CBEFBF
:103B600021F00401296B2A6B2B6B2C6B040129516A
:103B7000096E2A510A6E2B510B6E2C510C6E44ECBF
:103B80006EF0140EE66EE66AE66AE66A56EC01F03E
:103B900044E9016A026A036A046ADE0E015C030EEC
:103BA0000258000E0358000E045801E3E5D001EB63
:103BB000E6FF02EBE6FF03EBE6FF04EBE6FF510E48
:103BC000E66E8E0EE66E000EE66E000EE66E020EDD
:103BD000E66E7FEC72F049E9010EE66EE66AA0C07F
:103BE000E6FFB7EC00F043E9840EE66E950EE66E54
:103BF000000EE66E000EE66E020EE66E7FEC72F0D0
:103C000045E90501065115E029C4E6FF2AC4E6FF8F
:103C10002BC4E6FF2CC4E6FF2F0EE66E8E0EE66E7A
:103C2000000EE66E000EE66E020EE66E7FEC72F09F
:103C300049E9010EE66E010EE66EE66AB7EC00F0A9
:103C400043E9840EE66E950EE66E000EE66E000EFB
:103C5000E66E020EE66E7FEC72F045E9010EE66E4E
:103C6000020EE66EE66AB7EC00F043E9010EE66E7E
:103C7000030EE66EE66AB7EC00F043E9010EE66E6D
:103C8000E66AE66AE66A56EC01F044E9190EE66E69
:103C9000E66AE66AE66A01EBE6FF02EBE6FF03EBA3
:103CA000E6FF04EBE6FFA4EC63F0E552E5CF03F09A
:103CB000E5CF02F0E5CF01F0E7CF00F000010051C1
:103CC0000111021103111CE109500401291908E135
:103CD0000A502A1905E10B502B1902E10C502C193E
:103CE00006E1E80E016E030E026E036A046A040127
:103CF0002951096E2A510A6E2B510B6E2C510C6EF4
:103D0000040170A52ED041EC6EF0010EE66E9AEC27
:103D100013F041E9B9EC60F0060EE66EE66AE66A79
:103D2000E66A56EC01F044E98B920001010E7B6FCC
:103D30000001806B80C0E6FF47EC6EF041E97CC07B
:103D4000E6FF57EC6AF041E9AAEC03F0110EE66ECB
:103D5000910EE66E000EE66E4FEC73F043E9E0EF75
:103D600028F0D950010FE96EDACFEAFFEE2A000EF3
:103D7000EE22EE22EE2211D741EC6EF0060EE66E38
:103D8000E66AE66AE66A56EC01F044E937EC6EF062
:103D9000010EE66EE66AE66AE66A56EC01F044E970
:103DA0000401296B2A6B2B6B2C6B04012951096EC2
:103DB0002A510A6E2B510B6E2C510C6E44EC6EF096
:103DC000140EE66EE66AE66AE66A56EC01F044E92D
:103DD000016A026A036A046ADE0E015C030E02587D
:103DE000000E0358000E045801E3E5D001EBE6FF96
:103DF00002EBE6FF03EBE6FF04EBE6FF080EE66EE0
:103E00008F0EE66E000EE66E000EE66E020EE66E99
:103E10007FEC72F049E9010EE66EE66AA0C0E6FFAB
:103E2000B7EC00F043E9840EE66E950EE66E000EE8
:103E3000E66E000EE66E020EE66E7FEC72F045E96D
:103E40000501065115E029C4E6FF2AC4E6FF2BC48C
:103E5000E6FF2CC4E6FF2F0EE66E8E0EE66E000E19
:103E6000E66E000EE66E020EE66E7FEC72F049E939
:103E7000010EE66E010EE66EE66AB7EC00F043E96D
:103E8000840EE66E950EE66E000EE66E000EE66E91
:103E9000020EE66E7FEC72F045E9010EE66E020E50
:103EA000E66EE66AB7EC00F043E9010EE66E030E3B
:103EB000E66EE66AB7EC00F043E9010EE66EE66AEC
:103EC000E66AE66A56EC01F044E9190EE66EE66A27
:103ED000E66AE66A01EBE6FF02EBE6FF03EBE6FFCC
:103EE00004EBE6FFA4EC63F0E552E5CF03F0E5CF89
:103EF00002F0E5CF01F0E7CF00F000010051011121
:103F0000021103111CE109500401291908E10A50AA
:103F10002A1905E10B502B1902E10C502C1906E16E
:103F2000E80E016E030E026E036A046A0401295151
:103F3000096E2A510A6E2B510B6E2C510C6E040126
:103F400070A52ED041EC6EF0010EE66E9AEC13F0E7
:103F500041E9B9EC60F0060EE66EE66AE66AE66AEA
:103F600056EC01F044E98B920001010E7B6F0001D9
:103F7000806B80C0E6FF47EC6EF041E97CC0E6FF55
:103F800057EC6AF041E9AAEC03F0110EE66E910ECF
:103F9000E66E000EE66E4FEC73F043E9E0EF28F0BA
:103FA000D950010FE96EDACFEAFFEE2A000EEE22B9
:103FB000EE22EE2211D729C435F42AC436F42BC4DC
:103FC00037F42CC438F441EC6EF000017B6B000137
:103FD000806B0A0EE66ED70EE66E230EE66E3C0E82
:103FE000E66E35C4E6FF36C4E6FF37C4E6FF38C4E4
:103FF000E6FF38EC62F065EC65F0A0EC62F0E552AB
:10400000E5CF13F4E5CF12F4E5CF11F4E7CF10F4C8
:104010006DEC0BF0FA0EE66E7E0EE66E2A0EE66E84
:104020003F0EE66E35C4E6FF36C4E6FF37C4E6FF52
:1040300038C4E6FF38EC62F065EC65F0A0EC62F0A5
:10404000E552E5CF13F4E5CF12F4E5CF11F4E7CF55
:1040500010F4290EE96E040EEA6EEE500401105DB4
:104060000001006FEE50040111590001016FEE5084
:10407000040112590001026FEE50040113590001AE
:10408000036F0001DC51420DF3CFE9FFF4CFEAFFEB
:10409000000EE926050EEA220F0EE926000EEA229E
:1040A000050EE926000EEA2200C0EEFF01C0EDFF7A
:1040B0006DEC0BF0FA0EE66E7E0EE66EAA0EE66E64
:1040C0003E0EE66E35C4E6FF36C4E6FF37C4E6FFB3
:1040D00038C4E6FF38EC62F065EC65F0A0EC62F005
:1040E000E552E5CF13F4E5CF12F4E5CF11F4E7CFB5
:1040F00010F4290EE96E040EEA6EEE500401105D14
:104100000001006FEE50040111590001016FEE50E3
:10411000040112590001026FEE500401135900010D
:10412000036F0001DC51420DF3CFE9FFF4CFEAFF4A
:10413000000EE926050EEA220F0EE926000EEA22FD
:10414000050EE926000EEA2200C0EEFF01C0EDFFD9
:104150006DEC0BF0660EE66E660EE66E660EE66EB3
:104160003F0EE66E35C4E6FF36C4E6FF37C4E6FF11
:1041700038C4E6FF38EC62F065EC65F0A0EC62F064
:10418000E552E5CF13F4E5CF12F4E5CF11F4E7CF14
:1041900010F4290EE96E040EEA6EEE500401105D73
:1041A0000001006FEE50040111590001016FEE5043
:1041B000040112590001026FEE500401135900016D
:1041C000036F0001DC51420DF3CFE9FFF4CFEAFFAA
:1041D000000EE926050EEA220F0EE926000EEA225D
:1041E000050EE926000EEA2200C0EEFF01C0EDFF39
:1041F0006DEC0BF0CD0EE66ECC0EE66ECC0EE66EE0
:104200003D0EE66E35C4E6FF36C4E6FF37C4E6FF72
:1042100038C4E6FF38EC62F065EC65F0A0EC62F0C3
:10422000E552E5CF13F4E5CF12F4E5CF11F4E7CF73
:1042300010F4290EE96E040EEA6EEE500401105DD2
:104240000001006FEE50040111590001016FEE50A2
:10425000040112590001026FEE50040113590001CC
:10426000036F0001DC51420DF3CFE9FFF4CFEAFF09
:10427000000EE926050EEA220F0EE926000EEA22BC
:10428000050EE926000EEA2200C0EEFF01C0EDFF98
:104290006DEC0BF0E66AE66AE66A3F0EE66E35C440
:1042A000E6FF36C4E6FF37C4E6FF38C4E6FF38EC65
:1042B00062F065EC65F0A0EC62F0E552E5CF13F436
:1042C000E5CF12F4E5CF11F4E7CF10F4290EE96E33
:1042D000040EEA6EEE500401105D0001006FEE5016
:1042E000040111590001016FEE500401125900013F
:1042F000026FEE50040113590001036F0001DC51FD
:10430000420DF3CFE9FFF4CFEAFF000EE926050ED8
:10431000EA220F0EE926000EEA22050EE926000E1B
:10432000EA2200C0EEFF01C0EDFF6DEC0BF0016A68
:10433000026A036A046A030E015C000E0258000E52
:104340000358000E045827E201EBE9FF02EBEAFFF5
:10435000420EEA02F3CFEAFF420EE902F3CFE9FF91
:10436000F450EA26000EE926050EEA220F0EE92691
:10437000000EEA22210EE926000EEA22EE6AED6A1C
:10438000D950010FE96EDACFEAFFEE2A000EEE22D5
:10439000EE22EE22D0D7016A026A036A046A030E93
:1043A000015C000E0258000E0358000E045802E390
:1043B0007EEF27F001EBE9FF02EBEAFF420EEA0293
:1043C000F3CFEAFF420EE902F3CFE9FFF450EA2609
:1043D000000EE926050EEA22060EE926000EEA2264
:1043E000EF5001E1A0D101EBE9FF02EBEAFF420E41
:1043F000EA02F3CFEAFF420EE902F3CFE9FFF450FD
:10440000EA26000EE926050EEA220F0EE926000E26
:10441000EA22090EE926000EEA22EECF00F0EFCFE5
:1044200001F001EBE9FF02EBEAFF420EEA02F3CFF3
:10443000EAFF420EE902F3CFE9FFF450EA26000E4C
:10444000E926050EEA220F0EE926000EEA220B0EDF
:10445000E926000EEA22EECF02F0EFCF03F00001D2
:10446000013501510001031908E600010051000166
:10447000025D00010151000103591DE201EBE9FF5A
:1044800002EBEAFF420EEA02F3CFEAFF420EE90234
:10449000F3CFE9FFF450EA26000EE926050EEA22E2
:1044A0000F0EE926000EEA22210EE926000EEA226E
:1044B000010EEE6EED6A01EBE9FF02EBEAFF420E40
:1044C000EA02F3CFEAFF420EE902F3CFE9FFF4502C
:1044D000EA26000EE926050EEA220F0EE926000E56
:1044E000EA221B0EE926000EEA22EECF00F0EFCF03
:1044F00001F001EBE9FF02EBEAFF420EEA02F3CF23
:10450000EAFF420EE902F3CFE9FFF450EA26000E7B
:10451000E926050EEA220F0EE926000EEA220D0E0C
:10452000E926000EEA22EECF02F0EFCF03F0000101
:10453000033503510001011908E600010251000191
:10454000005D00010351000101591DE201EBE9FF8B
:1045500002EBEAFF420EEA02F3CFEAFF420EE90263
:10456000F3CFE9FFF450EA26000EE926050EEA2211
:104570000F0EE926000EEA22210EE926000EEA229D
:10458000010EEE6EED6A01EBE9FF02EBEAFF420E6F
:10459000EA02F3CFEAFF420EE902F3CFE9FFF4505B
:1045A000EA26000EE926050EEA220F0EE926000E85
:1045B000EA22190EE926000EEA22EECF00F0EFCF34
:1045C00001F001EBE9FF02EBEAFF420EEA02F3CF52
:1045D000EAFF420EE902F3CFE9FFF450EA26000EAB
:1045E000E926050EEA220F0EE926000EEA22130E36
:1045F000E926000EEA22EECF02F0EFCF03F0000131
:10460000013501510001031908E6000100510001C4
:10461000025D00010151000103591DE201EBE9FFB8
:1046200002EBEAFF420EEA02F3CFEAFF420EE90292
:10463000F3CFE9FFF450EA26000EE926050EEA2240
:104640000F0EE926000EEA22210EE926000EEA22CC
:10465000010EEE6EED6A01EBE9FF02EBEAFF420E9E
:10466000EA02F3CFEAFF420EE902F3CFE9FFF4508A
:10467000EA26000EE926050EEA220F0EE926000EB4
:10468000EA22190EE926000EEA22EECF00F0EFCF63
:1046900001F001EBE9FF02EBEAFF420EEA02F3CF81
:1046A000EAFF420EE902F3CFE9FFF450EA26000EDA
:1046B000E926050EEA220F0EE926000EEA22110E67
:1046C000E926000EEA22EECF02F0EFCF03F0000160
:1046D000033503510001011908E6000102510001F0
:1046E000005D00010351000101591DE201EBE9FFEA
:1046F00002EBEAFF420EEA02F3CFEAFF420EE902C2
:10470000F3CFE9FFF450EA26000EE926050EEA226F
:104710000F0EE926000EEA22230EE926000EEA22F9
:10472000010EEE6EED6A01EBE9FF02EBEAFF420ECD
:10473000EA02F3CFEAFF420EE902F3CFE9FFF450B9
:10474000EA26000EE926050EEA220F0EE926000EE3
:10475000EA22210EE926000EEA22EE50ED1001E0D9
:10476000DFD101EBE9FF02EBEAFF420EEA02F3CFF1
:10477000EAFF420EE902F3CFE9FFF450EA26000E09
:10478000E926050EEA220F0EE926000EEA221D0E8A
:10479000E926000EEA22010EEE6EED6A01EBE9FF5A
:1047A00002EBEAFF420EEA02F3CFEAFF420EE90211
:1047B000F3CFE9FFF450EA26000EE926050EEA22BF
:1047C0000F0EE926000EEA221F0EE926000EEA224D
:1047D000010EEE6EED6A01EBE9FF02EBEAFF420E1D
:1047E000EA02F3CFEAFF420EE902F3CFE9FFF45009
:1047F000EA26000EE926050EEA220D0EE926000E35
:10480000EA22EECF00F0EFCF01F001EBE9FF02EB7F
:10481000EAFF420EEA02F3CFEAFF420EE902F3CFCB
:10482000E9FFF450EA26000EE926050EEA220F0EF3
:10483000E926000EEA222F0EE926000EEA2200C029
:10484000EEFF01C0EDFF01EBE9FF02EBEAFF420ED4
:10485000EA02F3CFEAFF420EE902F3CFE9FFF45098
:10486000EA26000EE926050EEA22060EE926000ECB
:10487000EA22EF5001E153D1020E00017C5D04E019
:10488000580E01240D6E02D0410E0D6EAAEC03F0FD
:104890000DEB00F00001016B00BF016900C0E6FFF5
:1048A00001C0E6FF030EE66E8E0EE66E000EE66EAB
:1048B000000EE66E020EE66E7FEC72F047E9000E27
:1048C000E66E020EE66EA4EC73F042E901EBE9FF3E
:1048D00002EBEAFF420EEA02F3CFEAFF420EE902E0
:1048E000F3CFE9FFF450EA26000EE926050EEA228E
:1048F0000F0EE926000EEA220B0EE926000EEA2230
:10490000EECFE6FFEECFE6FF01EBE9FF02EBEAFFB9
:10491000420EEA02F3CFEAFF420EE902F3CFE9FFCB
:10492000F450EA26000EE926050EEA220F0EE926CB
:10493000000EEA22090EE926000EEA22EECFE6FF7B
:10494000EECFE6FFEC0EE66E8D0EE66E000EE66E26
:10495000000EE66E020EE66E7FEC72F049E9000E84
:10496000E66E020EE66EA4EC73F042E9AF0EE66E60
:104970009D0EE66E000EE66E4FEC73F043E901EB20
:10498000E9FF02EBEAFF420EEA02F3CFEAFF420E32
:10499000E902F3CFE9FFF450EA26000EE926050EFE
:1049A000EA220F0EE926000EEA220D0EE926000E7D
:1049B000EA22EECFE6FFEECFE6FF01EBE9FF02EBE6
:1049C000EAFF420EEA02F3CFEAFF420EE902F3CF1A
:1049D000E9FFF450EA26000EE926050EEA220F0E42
:1049E000E926000EEA221B0EE926000EEA22EECF8F
:1049F000E6FFEECFE6FFD50EE66E8D0EE66E000EFC
:104A0000E66E000EE66E020EE66E7FEC72F049E98D
:104A1000000EE66E020EE66EA4EC73F042E9AF0EF5
:104A2000E66E9D0EE66E000EE66E4FEC73F043E907
:104A300001EBE9FF02EBEAFF420EEA02F3CFEAFFE5
:104A4000420EE902F3CFE9FFF450EA26000EE92610
:104A5000050EEA220F0EE926000EEA22110EE926C3
:104A6000000EEA22EECFE6FFEECFE6FF01EBE9FF14
:104A700002EBEAFF420EEA02F3CFEAFF420EE9023E
:104A8000F3CFE9FFF450EA26000EE926050EEA22EC
:104A90000F0EE926000EEA22190EE926000EEA2280
:104AA000EECFE6FFEECFE6FF01EBE9FF02EBEAFF18
:104AB000420EEA02F3CFEAFF420EE902F3CFE9FF2A
:104AC000F450EA26000EE926050EEA220F0EE9262A
:104AD000000EEA22130EE926000EEA22EECFE6FFD0
:104AE000EECFE6FFBE0EE66E8D0EE66E000EE66EB3
:104AF000000EE66E020EE66E7FEC72F04BE9000EE1
:104B0000E66E020EE66EA4EC73F042E9AF0EE66EBE
:104B10009D0EE66E000EE66E4FEC73F043E9E2D1B7
:104B200001EBE9FF02EBEAFF420EEA02F3CFEAFFF4
:104B3000420EE902F3CFE9FFF450EA26000EE9261F
:104B4000050EEA22060EE926000EEA22EF5001E1E8
:104B5000C9D104017095020E00017C5D04E0580E7D
:104B600001240D6E02D0410E0D6EAAEC03F0A80ECA
:104B7000E66E9D0EE66E000EE66E4FEC73F043E9B6
:104B80000DEB00F00001016B00BF016900C0E6FF02
:104B900001C0E6FFA80EE66E8D0EE66E000EE66E14
:104BA000000EE66E020EE66E7FEC72F047E9010E33
:104BB000E66EE66AA0C0E6FFB7EC00F043E9000E3F
:104BC000E66E020EE66EA4EC73F042E9AF0EE66EFE
:104BD0009D0EE66E000EE66E4FEC73F043E901EBBE
:104BE000E9FF02EBEAFF420EEA02F3CFEAFF420ED0
:104BF000E902F3CFE9FFF450EA26000EE926050E9C
:104C0000EA220F0EE926000EEA220B0EE926000E1C
:104C1000EA22EECFE6FFEECFE6FF01EBE9FF02EB83
:104C2000EAFF420EEA02F3CFEAFF420EE902F3CFB7
:104C3000E9FFF450EA26000EE926050EEA220F0EDF
:104C4000E926000EEA22090EE926000EEA22EECF3E
:104C5000E6FFEECFE6FF910EE66E8D0EE66E000EDD
:104C6000E66E000EE66E020EE66E7FEC72F049E92B
:104C7000010EE66E010EE66EE66AB7EC00F043E95F
:104C8000000EE66E020EE66EA4EC73F042E9AF0E83
:104C9000E66E9D0EE66E000EE66E4FEC73F043E995
:104CA00001EBE9FF02EBEAFF420EEA02F3CFEAFF73
:104CB000420EE902F3CFE9FFF450EA26000EE9269E
:104CC000050EEA220F0EE926000EEA220D0EE92655
:104CD000000EEA22EECFE6FFEECFE6FF01EBE9FFA2
:104CE00002EBEAFF420EEA02F3CFEAFF420EE902CC
:104CF000F3CFE9FFF450EA26000EE926050EEA227A
:104D00000F0EE926000EEA221B0EE926000EEA220B
:104D1000EECFE6FFEECFE6FF7A0EE66E8D0EE66E84
:104D2000000EE66E000EE66E020EE66E7FEC72F08E
:104D300049E9010EE66E020EE66EE66AB7EC00F097
:104D400043E9000EE66E020EE66EA4EC73F042E953
:104D5000AF0EE66E9D0EE66E000EE66E4FEC73F043
:104D600043E901EBE9FF02EBEAFF420EEA02F3CF6F
:104D7000EAFF420EE902F3CFE9FFF450EA26000E03
:104D8000E926050EEA220F0EE926000EEA22110E90
:104D9000E926000EEA22EECFE6FFEECFE6FF01EBBA
:104DA000E9FF02EBEAFF420EEA02F3CFEAFF420E0E
:104DB000E902F3CFE9FFF450EA26000EE926050EDA
:104DC000EA220F0EE926000EEA22190EE926000E4D
:104DD000EA22EECFE6FFEECFE6FF01EBE9FF02EBC2
:104DE000EAFF420EEA02F3CFEAFF420EE902F3CFF6
:104DF000E9FFF450EA26000EE926050EEA220F0E1E
:104E0000E926000EEA22130EE926000EEA22EECF72
:104E1000E6FFEECFE6FFBE0EE66E8D0EE66E000EEE
:104E2000E66E000EE66E020EE66E7FEC72F04BE967
:104E3000010EE66E030EE66EE66AB7EC00F043E99B
:104E4000000EE66E020EE66EA4EC73F042E9AF0EC1
:104E5000E66E9D0EE66E000EE66E4FEC73F043E9D3
:104E6000010EE66E010EE66E5BEC6EF042E9020E9C
:104E700000017C5D04E0580E01240D6E02D0410E4D
:104E80000D6EAAEC03F00DEB00F00001016B00BF0A
:104E9000016900C0E6FF01C0E6FF4E0EE66E8D0E12
:104EA000E66E000EE66E000EE66E020EE66E7FEC1B
:104EB00072F047E9000EE66E020EE66EA4EC73F0A7
:104EC00042E9020EE66EC3EC60F041E90400040121
:104ED00070A5F7D7E66A010EE66E5BEC6EF042E96C
:104EE000B9EC60F0D950010FE96EDACFEAFFEE2A93
:104EF000000EEE22EE22EE22CFEF21F041EC6EF01A
:104F0000060EE66EE66AE66AE66A56EC01F044E9E9
:104F10008B9200017B6B0001806BB9EC60F00001AB
:104F2000865101E032D1016A026A036A046A050E01
:104F3000E66EC3EC60F041E9390EE66E8D0EE66E6A
:104F4000000EE66E000EE66E020EE66E7FEC72F06C
:104F500045E9010EE66EE66AA0C0E6FFB7EC00F098
:104F600043E9040170A59AD08F80AAEC03F01B0ED0
:104F7000E66E8D0EE66E000EE66E000EE66E020E1A
:104F8000E66E7FEC72F045E9000EE66E020EE66E0C
:104F9000A4EC73F042E9010EE66EE66AA0C0E6FFFB
:104FA000B7EC00F043E9060EE66EE66AE66AE66AEA
:104FB00056EC01F044E9B9EC60F0840EE66E950E13
:104FC000E66E000EE66E000EE66E020EE66E7FECFA
:104FD00072F045E9010EE66E010EE66EE66AB7EC88
:104FE00000F043E9840EE66E950EE66E000EE66E66
:104FF000000EE66E020EE66E7FEC72F045E9010EE1
:10500000E66E020EE66EE66AB7EC00F043E9840E47
:10501000E66E950EE66E000EE66E000EE66E020E71
:10502000E66E7FEC72F045E9010EE66E030EE66E69
:10503000E66AB7EC00F043E9020EE66E90EC10F081
:1050400041E9AAEC03F0FE0EE66E8C0EE66E000E51
:10505000E66E000EE66E020EE66E7FEC72F045E93B
:10506000000EE66E020EE66EA4EC73F042E9010E4D
:10507000E66EE66AA0C0E6FFB7EC00F043E9060E74
:10508000E66EE66AE66AE66A56EC01F044E9A00ECE
:10509000016E860E026E010E036E046A04000401A6
:1050A00004017051040B1DE1D950010FE96EDACFF4
:1050B000EAFFEFCF00F0EE2A000EEFCF01F0EE2274
:1050C000EFCF02F0EE22EFCF03F0EF22E80E000167
:1050D000005D030E0159000E0259000E035901E252
:1050E0002BD7E00EE66E8C0EE66E000EE66E000E1E
:1050F000E66E020EE66E7FEC72F045E9010EE66E9A
:10510000E66AE66AB7EC00F043E9840EE66E950EB7
:10511000E66E000EE66E000EE66E020EE66E7FECA8
:1051200072F045E9010EE66E010EE66EE66AB7EC36
:1051300000F043E9840EE66E950EE66E000EE66E14
:10514000000EE66E020EE66E7FEC72F045E9010E8F
:10515000E66E020EE66EE66AB7EC00F043E9840EF6
:10516000E66E950EE66E000EE66E000EE66E020E20
:10517000E66E7FEC72F045E9010EE66E030EE66E18
:10518000E66AB7EC00F043E900D000017B6B000158
:10519000806B060EE66EE66AE66AE66A56EC01F099
:1051A00044E9B9EC60F0C9EC13F0AAEC03F0620E2C
:1051B000E66E8F0EE66E000EE66E4FEC73F043E97E
:1051C00052E9E7CFD9FF1200B0EC34F000018C5166
:1051D00051E0EBC4E6FFECC4E6FFE9C4E6FFEAC435
:1051E000E6FFE7C4E6FFE8C4E6FF65EC32F077ECE3
:1051F00032F053EC32F0AB0EE66E8C0EE66E000E23
:1052000025EC2DF05CEC30F06EEC32F080EC32F0FE
:105210005CEC32F0880EE66E8C0EE66E000E25EC2D
:105220002DF051E903EC31F09CC5E6FF9DC5E6FF8A
:1052300096C5E6FF97C5E6FFE1EC33F05AC5E6FFF9
:105240005BC5E6FF54C5E6FF55C5E6FF47EC2FF00A
:1052500018C5E6FF19C5E6FF12C5E6FF13C5E6FF50
:105260009EEC33F04A0EE66E8C0EE66E000EEDDB21
:105270005CEC30F012000501C80EC86FB7EC2EF0E0
:1052800070EC30F027E02B0EE66EB3EC71F041E9E4
:1052900070EC30F0FDE1B7EC2EF02B0EE66EB3ECC7
:1052A00071F041E970EC30F0FDE10C0EE66E2FEC90
:1052B00074F041E970EC30F0FDE1010EE66E2FEC88
:1052C00074F041E9B7EC2EF00001010EF66F050114
:1052D000180EC86F12000001806B120EE66E220ECF
:1052E000E66EA1EC70F042E9350EE66E8C0EE66ECD
:1052F000000EE66E000EE66E020EE66E7FEC72F0B9
:1053000045E9010EE66EE66AE66AB7EC00F043E9AD
:10531000010EE66E010EE66EE66AB7EC00F043E9B8
:10532000010EE66E020EE66EE66AB7EC00F043E9A7
:10533000010EE66E030EE66EE66AB7EC00F043E996
:10534000120EE66E220EE66E52EC71F042E98F907C
:1053500092DF8B68FCAE15D0FC9EAF0EE66E9D0E04
:10536000E66E000EE66E4FEC73F043E9AAEC03F034
:10537000100EE66E8C0EE66E000EE66E4FEC73F0CD
:1053800043E9FCAC15D0FC9CAF0EE66E9D0EE66EBC
:10539000000EE66E4FEC73F043E9AAEC03F0E60E64
:1053A000E66E8B0EE66E000EE66E4FEC73F043E990
:1053B0000001735114E0AF0EE66E9D0EE66E000E16
:1053C000E66E4FEC73F043E9AAEC03F0BD0EE66E17
:1053D0008B0EE66E000EE66E4FEC73F043E90001B3
:1053E000745114E0AF0EE66E9D0EE66E000EE66E92
:1053F0004FEC73F043E9AAEC03F0940EE66E8B0ECB
:10540000E66E000EE66E4FEC73F043E9140EE66EA6
:10541000E66A7C0EE66E8B0EE66E000EE66E000E01
:10542000E66E020EE66E6DEC70F047E9010EE66E78
:10543000E66AE66AB7EC00F043E9AA0EE66E9D0E56
:10544000E66E000EE66E4FEC73F043E9140EE66E66
:10545000E66A9DC0E6FF9EC0E6FF9FC0E6FF000E25
:10546000E66E020EE66E6DEC70F047E9010EE66E38
:10547000010EE66EE66AB7EC00F043E9000EE66E58
:10548000020EE66EA4EC73F042E9A80EE66E9D0EE5
:10549000E66E000EE66E4FEC73F043E9140EE66E16
:1054A000E66A9AC0E6FF9BC0E6FF9CC0E6FF000EDE
:1054B000E66E020EE66E6DEC70F047E9000EE66EE9
:1054C000020EE66EA4EC73F042E9010EE66E020EE7
:1054D000E66EE66AB7EC00F043E9140EE66EE66AA3
:1054E000920EE66E9D0EE66E000EE66E000EE66E05
:1054F000020EE66E6DEC70F047E9000EE66E020EED
:10550000E66EA4EC73F042E9AF0EE66E9D0EE66E19
:10551000000EE66E4FEC73F043E9010EE66E030EEB
:10552000E66EE66AB7EC00F043E9AAEC03F05D0E24
:10553000E66E8B0EE66E000EE66E4FEC73F043E9FE
:1055400083A20CD00001010E8C6F450EE66E8B0E0F
:10555000E66E000EE66E4FEC73F043E983A039D09F
:10556000AAEC03F02C0EE66E8B0EE66E000EE66ED5
:105570004FEC73F043E9000EE66EE66A000EE66E4D
:10558000E66A010EE66EE66A7DEC6FF046E9AAEC8B
:1055900003F00F0EE66E8B0EE66E000EE66E4FEC1D
:1055A00073F043E90501FA6B0F0E0501FA5D11E294
:1055B000080EE66EE66A0501FA51E66EE66A0F0E1F
:1055C000E66E7F0EE66E7DEC6FF046E90501FA2B84
:1055D000EBD7AAEC03F0EF0EE66E8A0EE66E000E35
:1055E000E66E4FEC73F043E9000EE66EE66A000EDD
:1055F000E66EE66AAFEC6FF044E959080CE1000E84
:10560000E66EE66A020EE66EE66AAFEC6FF044E91B
:105610000501F96F22D0AAEC03F0CC0EE66E8A0EDB
:10562000E66E000EE66E4FEC73F043E9000EE66E98
:10563000E66A000EE66EE66A010EE66EE66A7DEC4C
:105640006FF046E9AAEC03F0AC0EE66E8A0EE66E49
:10565000000EE66E4FEC73F043E9AAEC03F0930EF4
:10566000E66E8A0EE66E000EE66E4FEC73F043E9CE
:10567000080EE66EE66A000EE66EE66AAFEC6FF0C4
:1056800044E959081FE10501FA6B0F0E0501FA5DA7
:1056900018E20501FA51E66EE66A0A0EE66EE66A5F
:1056A000AFEC6FF044E9E66E0501FA51EA6AE50FE6
:1056B000E96E000EEA22E552E750EF6E0501FA2B83
:1056C000E4D734D0AAEC03F0770EE66E8A0EE66ECD
:1056D000000EE66E4FEC73F043E90501FA6B0F0E16
:1056E0000501FA5D18E2080EE66EE66A0501FA5158
:1056F000E66EE66A0F0EE66E0501FA51EA6AE50FFC
:10570000E96E000EEA22EFCFE6FF7DEC6FF046E98E
:105710000501FA2BE4D7AAEC03F05E0EE66E8A0EC2
:10572000E66E000EE66E4FEC73F043E983A403D0FF
:105730004EEC0AF0FFD77FEC43F0AAEC03F0450EE5
:10574000E66E8A0EE66E000EE66E4FEC73F043E9ED
:10575000050EE66EE66AE66AE66A56EC01F044E992
:10576000B0EC34F083A00BD0AAEC03F02F0EE66E61
:105770008A0EE66E000EE66E4FEC73F043E983A6E8
:105780000ED0AAEC03F0120EE66E8A0EE66E000E44
:10579000E66E4FEC73F043E900010F0EF76F740EE5
:1057A000E66E030EE66E04C6E6FF05C6E6FF06C615
:1057B000E6FF07C6E6FFEFEC07F046E97B0EE66E74
:1057C000030EE66E08C6E6FF09C6E6FF0AC6E6FF58
:1057D0000BC6E6FFEFEC07F046E97B0EE66E030E24
:1057E000E66E740EE66E030EE66EF90EE66E890E38
:1057F000E66E000EE66E000EE66E020EE66E7FECC2
:1058000072F049E9010EE66EE66AE66AB7EC00F06E
:1058100043E98350010BE66EE66A8350020B01E018
:10582000010EE66EE66A8350040B01E0010EE66E9F
:10583000E66A8350080B01E0010EE66EE66A8350CB
:10584000100B01E0010EE66EE66A8350200B01E0CA
:10585000010EE66EE66A8350400B01E0010EE66E33
:10586000E66A8350800B01E0010EE66EE66AD00E18
:10587000E66E890EE66E000EE66E000EE66E020E15
:10588000E66E7FEC72F055E9010EE66E010EE66EF3
:10589000E66AB7EC00F043E9AAEC03F0000EE66E0E
:1058A000020EE66EA4EC73F042E92BEC03F0050E59
:1058B000E66EE66AE66AE66A56EC01F044E9B0ECA8
:1058C00034F004C6E6FF05C6E6FFB6EC74F042E924
:1058D00062EC71F08B6A0001846B0001886B00013F
:1058E0007A6B00017C51E66EE66AEAEC0DF042E963
:1058F0007CC0E6FF57EC6AF041E90001010E676FDA
:10590000740EE66E030EE66E04C6E6FF05C6E6FFFD
:1059100006C6E6FF07C6E6FFEFEC07F046E97B0E9A
:10592000E66E030EE66E08C6E6FF09C6E6FF0AC687
:10593000E6FF0BC6E6FFEFEC07F046E910C4E6FF12
:1059400011C4E6FF12C4E6FF13C4E6FF00C4E6FF7D
:1059500001C4E6FF02C4E6FF03C4E6FF7B0EE66E69
:10596000030EE66E740EE66E030EE66EAF0EE66E86
:10597000890EE66E000EE66E000EE66E020EE66E14
:105980007FEC72F051E9010EE66EE66AE66AB7EC6A
:1059900000F043E9AAEC03F0000EE66E020EE66E9C
:1059A000A4EC73F042E92BEC03F0280EE66EC8EC91
:1059B00060F041E9050EE66EE66AE66AE66A56ECD4
:1059C00001F044E932EC0BF0010EE66E010EE66EDA
:1059D000E66AE66AE66A90EC02F045E9B0EC34F07B
:1059E00032EC6EF0000905E00001655102E07FEC49
:1059F00043F04CEC11F004000001815112E0DEECA8
:105A000013F0AAEC0EF00401D66FD60EE66E040E6B
:105A1000E66EEAEC0DF042E9D6C4E6FFBEEC0AF011
:105A200041E904000EEC01F06DEC0BF00001835134
:105A300002E00001A26BD2D71200420DE6EC33F077
:105A4000000EE926050EEA221200E66E91EC33F014
:105A50007FEF72F0D2DBD7DBAF0EE66E9D0EE66E07
:105A6000000EE66E4FEF73F06AEC31F057EC31F058
:105A700014EC65F0E552E5CF07F0E5CF06F0E5CF91
:105A800005F0E7CF04F000010451005D0001E16F73
:105A90000001055101590001E26F00010651025950
:105AA0000001E36F0001075103590001E46F120088
:105AB000FAEC33F0050E0BEF33F018C5E6FF19C50D
