:020000040000FA
:0600000047EF74F012004E
:020006001200E6
:060008000CEF58F012009D
:02000E00C250DE
:08001000020B01E0010E1200D9
:06001800A0EF5EF01200F3
:02001E000700D9
:10002000E7E80000F904000001000000D8E9000042
:10003000F404000002000000D4E90000FB0200000C
:10004000040000003BE9000060000000990000008F
:1000500029E90000EA0300001200000027E900007F
:10006000F204000002000000F4E80000C2050000F5
:040070003300000059
:0C00740020EC2DF083E941E80150050864
:1000800001E2016A005003E06EEC2EF0EF6A01EB32
:10009000C7F50001500E036F9B0E046F000E056F35
:1000A000AEEC2EF0E5CF08F0EBEC2FF0000160ECA9
:1000B00031F06EEC2EF0EFCF09F00A6B0B6B0051B4
:1000C0000925F36E01510A21F46E02510B21F86EDD
:1000D000F4CFF7FFF3CFF6FF0800F550036E6EEC98
:1000E0002EF0EF2AEFCF00F0016B026BD4EC31F071
:1000F00002C0E6FF500E096F9B0E0A6F000E0B6FD9
:10010000AEEC2EF0E5CF0EF0E5CF0DF0E7CF0CF022
:10011000000109510C25066F0A510D21076F0B5183
:100120000E21086F11EC33F0E66E18EC6EF043E927
:10013000E552E7CF02F0E552E7CF01F0E552E7CF15
:1001400000F0FCC303F0FDC304F0FEC305F00001A2
:100150000351005D045101590551025903E36EEC4E
:100160002EF0EF6A035042E9E7CFD9FF120020ECEE
:100170002DF084E90001F6514FE0005021E00250DB
:1001800001240501C86FF9EC31F0C30EE66E990E3B
:10019000E66E000EE66E66EC2DF06BEC6EF047E955
:1001A000F9EC31F0D3EC32F0050166EC2DF03DECCA
:1001B0006EF046E905014BEC31F0140EEEEC2EF03A
:1001C0000150030A0CE0010A08E0030A04E0010AF6
:1001D00009E1E66A08D0400E03D0140E01D0540E97
:1001E000E66E01D0E66AC5EC71F041E9015000010C
:1001F000A0250501C86F00016A510EE0B2EC2FF096
:10020000FDE1050166EC2DF0F4EC72F042E9B2EC90
:100210002FF0FDE1010E901637EF2DF000016E5129
:1002200004E082EC41F000016E6B725107E0726BEA
:10023000F85102E0000E01D0010EF86F755104E094
:1002400021EC11F00001756B685103E0A7DA0001A1
:10025000686B715104E001EC07F00001716B6F51A4
:1002600003E0BDDA00016F6B1200D9CFE6FFE1CFEA
:10027000D9FF85E90401766B776B786B796B0401A4
:100280007651005C775101587851025879510358E2
:1002900009E3000004000401762B000E7723782385
:1002A0007923EDD741E9E7CFD9FF1200D9CFE6FF97
:1002B000E1CFD9FF85E9030EE66EF6EC6CF041E97B
:1002C00092C67AF493C67BF494C67CF495C67DF40A
:1002D00042EC6DF0D9CFE9FFDACFEAFF04017A51A1
:1002E000EE240401826F04017B51EE200401836F30
:1002F00004017C51EE200401846F04017D51EE2045
:100300000401856F030EE66EF6EC6CF041E992C6CF
:100310007EF493C67FF494C680F495C681F442ECD3
:100320006DF004007E0EE96E040EEA6E0401825147
:10033000EE5C8351EE588451EE588551EE58E2E35D
:1003400041E9E7CFD9FF120030EC31F019E058EC69
:100350002DF092C686F493C687F494C688F495C6A9
:1003600089F497EC2DF004018651EE248E6F8751AD
:10037000EE208F6F8851EE20906F8951EE20916FA3
:1003800058EC2DF092C68AF493C68BF494C68CF484
:1003900095C68DF442EC6DF08A0EE96E040EEA6E9D
:1003A00004018E51EE5C8F51EE589051EE589151F0
:1003B000EE5802E2000E01D0010E37EF2DF030ECC6
:1003C00031F019E058EC2DF092C692F493C693F4F4
:1003D00094C694F495C695F497EC2DF004019251CF
:1003E000EE249A6F9351EE209B6F9451EE209C6FF8
:1003F0009551EE209D6F58EC2DF092C696F493C661
:1004000097F494C698F495C699F442EC6DF0960E64
:10041000E96E040EEA6E04019A51EE5C9B51EE58AF
:100420009C51EE589D51EE5802E2000E01D0010E93
:1004300037EF2DF030EC31F019E058EC2DF092C68A
:100440009EF493C69FF494C6A0F495C6A1F497ECCD
:100450002DF004019E51EE24A66F9F51EE20A76F50
:10046000A051EE20A86FA151EE20A96F58EC2DF0FD
:1004700092C6A2F493C6A3F494C6A4F495C6A5F4B8
:1004800042EC6DF0A20EE96E040EEA6E0401A65174
:10049000EE5CA751EE58A851EE58A951EE5802E271
:1004A000000E01D0010E37EF2DF030EC31F019E0E5
:1004B00058EC2DF092C6AAF493C6ABF494C6ACF4F3
:1004C00095C6ADF497EC2DF00401AA51EE24B26F5D
:1004D000AB51EE20B36FAC51EE20B46FAD51EE20B6
:1004E000B56F58EC2DF092C6AEF493C6AFF494C637
:1004F000B0F495C6B1F442EC6DF0AE0EE96E040EA8
:10050000EA6E0401B251EE5CB351EE58B451EE58AC
:10051000B551EE5802E2000E01D0010E37EF2DF07A
:1005200030EC31F019E058EC2DF092C6B6F493C6D9
:10053000B7F494C6B8F495C6B9F497EC2DF004015D
:10054000B651EE24BE6FB751EE20BF6FB851EE200A
:10055000C06FB951EE20C16F58EC2DF092C6BAF4BD
:1005600093C6BBF494C6BCF495C6BDF442EC6DF0E2
:10057000BA0EE96E040EEA6E0401BE51EE5CBF5184
:10058000EE58C051EE58C151EE5802E2000E01D0B3
:10059000010E37EF2DF030EC31F019E058EC2DF072
:1005A00092C6C2F493C6C3F494C6C4F495C6C5F407
:1005B00097EC2DF00401C251EE24CA6FC351EE2016
:1005C000CB6FC451EE20CC6FC551EE20CD6F58ECEF
:1005D0002DF092C6C6F493C6C7F494C6C8F495C667
:1005E000C9F442EC6DF0C60EE96E040EEA6E040129
:1005F000CA51EE5CCB51EE58CC51EE58CD51EE586D
:1006000002E2000E01D0010E37EF2DF000000401D0
:10061000CE6B0501C2510401CE5D04E2000004016D
:10062000CE2BF7D712000F0EE66E52EC73F041E9B5
:100630001200050EE66E52EC73F041E9120020EC58
:100640002DF082E96CA2FED700EBE6FFEAEC73F036
:1006500041E937EF2DF0050E61EF2DF000016A51F1
:1006600001E11200B2EC2FF0FDE1120020EC2DF0C0
:1006700089E903340EE202500808000E035409E22F
:1006800004EBFCF305EBFDF306EBFEF307EBFFF3E6
:100690005FD00050011009E000018F0E926FC20E72
:1006A000936F750E946F3D0E06D00001926B936BA5
:1006B000800E946F3E0E956FE0EC30F092C0E6FF36
:1006C00093C0E6FF94C0E6FF95C0E6FFEBEC32F086
:1006D000E0EC30F004EBE6FF05EBE6FF06EBE6FFAF
:1006E00007EBE6FF6AEC63F0EAEC5EF06AEC63F0BD
:1006F000EBEC32F0ECEC5EF0ECEC61F0E552E5CFC7
:1007000099F0E5CF98F0E5CF97F0E7CF96F046EC7B
:100710002DF096C0EEFF97C0EEFF98C0EEFF99C097
:10072000EEFF001C0DE1011C0BE10001966B976BC5
:10073000986B996B46EC2DF0EE6AEE6AEE6AEE6A03
:1007400096C0FCF397C0FDF398C0FEF399C0FFF389
:1007500037EF2DF004004EC6E6FF4FC6E6FF50C649
:10076000E6FF51C6E6FF66DB44E9F3CFE6FFF4CFD0
:10077000E6FFBC0EE66E990EE66E000EE66E200EEB
:10078000E66E030EE66E7DEC70F047E9200EE66E35
:10079000030EE66EA2EC71F042E91200DBDF650E9B
:1007A000E66EA50EE66E000E34EC30F00401236B0D
:1007B000040123510AE10A0EACEC30F056DD44E9A5
:1007C000F2EC33F0B1EC5EF0F3D7020E235DC2DF42
:1007D000C30EE66EA50EE66E000E34EF30F0040098
:1007E000B90EE66E990EE66E000EE66E000EE66E2F
:1007F000020EE66E7DEC70F045E9000EE66E020E2C
:10080000E66EA2EC71F042E9A5DFB40EE66E990E39
:10081000E66E000EE66E4DEC71F043E99DC0E6FF1A
:100820009EC0E6FF9FC0E6FF000EE66E020EE66E7B
:10083000FFEC6DF045E9000EE66E020EE66EA2ECEE
:1008400071F042E9B20EE66E990EE66E000EE66EAB
:100850004DEC71F043E99AC0E6FF9BC0E6FF9CC0F7
:10086000E6FF000EE66E020EE66EFFEC6DF045E967
:10087000000EE66E020EE66EA2EC71F042E99C0EEE
:10088000E66E990EE66E000EE66E000EE66E020E45
:10089000E66EFFEC6DF045E9000EE66E020EE66EC8
:1008A000A2EC71F042E900018351E66EE66A0001B4
:1008B0006051E66EE66A5AC6E6FF5BC6E6FF5CC6B6
:1008C000E6FF5DC6E6FF56C6E6FF57C6E6FF58C61A
:1008D000E6FF59C6E6FF44C6E6FF45C6E6FF01C689
:1008E000E6FF02C6E6FF03C6E6FF04C6E6FF835046
:1008F000800B01E0010EE66EE66A8350400B01E0DA
:10090000010EE66EE66A8350200B01E0010EE66EF2
:10091000E66A8350100B01E0010EE66EE66A835032
:10092000080B01E0010EE66EE66A8350040B01E05D
:10093000010EE66EE66A8350020B01E0010EE66EE0
:10094000E66A8350010BE66EE66A00016351E66ECB
:10095000E66A0D0EE66E990EE66E000EE66E000E6D
:10096000E66E020EE66E7DEC70F069E9000EE66E52
:10097000020EE66EA2EC71F042E90601A651E66EA7
:10098000E66A7850E66EE66A6AC6E6FF6BC6E6FF80
:100990006CC6E6FF6DC6E6FF4EC6E6FF4FC6E6FF35
:1009A00050C6E6FF51C6E6FF92C6E6FF93C6E6FFD5
:1009B00094C6E6FF95C6E6FFA6EC61F092C6E6FF98
:1009C00093C6E6FF94C6E6FF95C6E6FF8EC6E6FF31
:1009D0008FC6E6FF90C6E6FF91C6E6FF52C6E6FF69
:1009E00053C6E6FF54C6E6FF55C6E6FF4AC6E6FF15
:1009F0004BC6E6FF4CC6E6FF4DC6E6FF62C6E6FF05
:100A000063C6E6FF64C6E6FF65C6E6FF8AC6E6FF84
:100A10008BC6E6FF8CC6E6FF8DC6E6FF86C6E6FF00
:100A200087C6E6FF88C6E6FF89C6E6FF6EC6E6FF14
:100A30006FC6E6FF70C6E6FF71C6E6FF4EC6E6FF6C
:100A40004FC6E6FF50C6E6FF51C6E6FF4E0EE66E05
:100A5000980EE66E000EE66E000EE66E020EE66E74
:100A60007DEC70F075E9000EE66E020EE66EA2EC0B
:100A700071F042E929C4E6FF2AC4E6FF2BC4E6FF71
:100A80002CC4E6FF66C6E6FF67C6E6FF68C6E6FF5B
:100A900069C6E6FF72C6E6FF73C6E6FF74C6E6FFE8
:100AA00075C6E6FF76C6E6FF77C6E6FF78C6E6FFC0
:100AB00079C6E6FF7AC6E6FF7BC6E6FF7CC6E6FFA0
:100AC0007DC6E6FF7EC6E6FF7FC6E6FF80C6E6FF80
:100AD00081C6E6FFEB0EE66E970EE66E000EE66E42
:100AE000000EE66E020EE66E7DEC70F05DE9000E23
:100AF000E66E020EE66EA2EC71F042E90401CF6BE5
:100B0000030E0401CF5D01E36ED10401CF51400D0E
:100B1000F3CFE9FFF4CFEAFF000EE926050EEA2243
:100B2000060EE926000EEA22EF5001E159D1040138
:100B3000CF51400DF3CFE9FFF4CFEAFF000EE926D5
:100B4000050EEA220F0EE926000EEA221B0EE92608
:100B5000000EEA22EECFE6FFEECFE6FF0401CF5112
:100B6000400DF3CFE9FFF4CFEAFF000EE926050EB2
:100B7000EA220F0EE926000EEA22190EE926000EDF
:100B8000EA22EECFE6FFEECFE6FF0401CF51400DA3
:100B9000F3CFE9FFF4CFEAFF000EE926050EEA22C3
:100BA0000F0EE926000EEA222D0EE926000EEA229B
:100BB000EECFE6FFEECFE6FF0401CF51400DF3CFBD
:100BC000E9FFF4CFEAFF000EE926050EEA220F0E38
:100BD000E926000EEA222B0EE926000EEA22EECFCD
:100BE000E6FFEECFE6FF0401CF51400DF3CFE9FF62
:100BF000F4CFEAFF000EE926050EEA220F0EE926E1
:100C0000000EEA22090EE926000EEA22EECFE6FFE8
:100C1000EECFE6FF0401CF51400DF3CFE9FFF4CF53
:100C2000EAFF000EE926050EEA220F0EE926000E65
:100C3000EA22150EE926000EEA22EECFE6FFEECFFD
:100C4000E6FF0401CF51400DF3CFE9FFF4CFEAFFF7
:100C5000000EE926050EEA220F0EE926000EEA2212
:100C6000170EE926000EEA22EECFE6FFEECFE6FFF2
:100C70000401CF51400DF3CFE9FFF4CFEAFF000E9E
:100C8000E926050EEA220F0EE926000EEA22050EDD
:100C9000E926000EEA22EECFE6FFEECFE6FF0401E2
:100CA000CF51400DF3CFE9FFF4CFEAFF000EE92664
:100CB000050EEA220F0EE926000EEA22030EE926AF
:100CC000000EEA22EECFE6FFEECFE6FF0401CF51A1
:100CD000400DF3CFE9FFF4CFEAFF000EE926050E41
:100CE000EA220F0EE926000EEA22EE52EECFE6FFD0
:100CF000EECFE6FF0401CF51E66EE66A730EE66EB4
:100D0000970EE66E000EE66E000EE66E020EE66EC2
:100D10007DEC70F05BE9000EE66E020EE66EA2EC72
:100D200071F042E9E66AE66A7A0EE66E440EE66E15
:100D30000401CF51400DF3CFE9FFF4CFEAFF000EDD
:100D4000E926050EEA220F0EE926000EEA22230EFE
:100D5000E926000EEA22EECFE6FFEECFE6FFEECF69
:100D6000E6FFEECFE6FF6AEC63F062EC60F0E66A65
:100D7000E66A7A0EE66E440EE66E0401CF51400D2F
:100D8000F3CFE9FFF4CFEAFF000EE926050EEA22D1
:100D90000F0EE926000EEA22270EE926000EEA22AF
:100DA000EECFE6FFEECFE6FFEECFE6FFEECFE6FFBB
:100DB0006AEC63F062EC60F0520EE66E970EE66E3F
:100DC000000EE66E000EE66E020EE66E7DEC70F032
:100DD00049E9000EE66E020EE66EA2EC71F042E901
:100DE0000401CF2B8DD60001F85109E03A0EE66ED2
:100DF000970EE66E000EE66E4DEC71F043E90400CE
:100E000012006C0EE66EA60EE66E000E34EC30F0AC
:100E1000B60EE66EA60EE66E000E34EC30F0000163
:100E2000F85107E03A0EE66E970EE66E000E34ECCF
:100E300030F0120020EC2DF000EC2FF002E214EC68
:100E40002FF000EBD1F501EBD2F502EBD3F503EB7C
:100E5000D4F575EC2EF0B8EC2EF0E5CFCCF5E5CF5F
:100E6000CBF5E5CFCAF5E7CFC9F575EC2EF01DEC53
:100E70002FF057EC31F0ACEC2DF0CBEC2EF0B8ECC1
:100E80002EF0E5CFD0F5E5CFCFF5E5CFCEF5E7CF26
:100E9000CDF5CBEC2EF026EC2FF057EC31F0ACEC8E
:100EA0002DF0FDEC31F0E66E26EC2FF01DEC2FF06E
:100EB000280EE66E970EE66E000EBAEC2FF051E9A2
:100EC00085EF31F020EC2DF000EC2FF002E214EC75
:100ED0002FF000EBDDF501EBDEF502EBDFF503EBC8
:100EE000E0F575EC2EF0BFEC2EF0E5CFD8F5E5CFB0
:100EF000D7F5E5CFD6F5E7CFD5F575EC2EF02FEC8D
:100F00002FF057EC31F0C5EC2DF0CBEC2EF0BFEC10
:100F10002EF0E5CFDCF5E5CFDBF5E5CFDAF5E7CF71
:100F2000D9F5CBEC2EF038EC2FF057EC31F0C5ECC6
:100F30002DF038EC2FF02FEC2FF01C0EE66E970EF4
:100F4000E66E000EBAEC2FF04DE985EF31F020ECA3
:100F50002DF083E901340EE300EB00F001EB01F02A
:100F60000001006D011F000E012300C0F3FF01C04E
:100F7000F4FF02D0F1EC2EF037EF2DF020EC2DF045
:100F800085E9033413E3E668E668E668E668DDECC5
:100F90002FF003EBE6FF57EC31F000C0FCF301C08B
:100FA000FDF302C0FEF303C0FFF308D000EBFCF337
:100FB00001EBFDF302EBFEF303EBFFF337EF2DF054
:100FC0006AEC31F0F0EC32F076EC2CF041EC2FF0E2
:100FD000140EE66E970EE66E000E04EF32F06AEC29
:100FE00031F0C5EC32F041EC2FF00C0EE66E970EAE
:100FF000E66E000E04EF32F0F1EC31F002E32D0E5C
:10100000916FA5EC2DF03DEC60F0C3EC2CF0C5EC3D
:1010100032F099EC30F011EC2DF0D8900001035132
:10102000000A08E6DC0E005D050E0159000E0259AB
:10103000000E035917E299EC30F011EC2DF055EC4D
:101040002EF091C004F00001056B04BF0569F0ECBF
:101050002FF0060EE66E970EE66E000E23EC2EF0D5
:101060004BE934D0E66AE66A7A0EE66E440E8FECFF
:101070002DF0C3EC2CF0F0EC32F009EC32F0E3C0D0
:10108000E6FFE66E11EC2DF055EC2EF099EC30F009
:1010900075DF44E9FCC304F0FDC305F0FEC306F0B0
:1010A000FFC307F055EC2EF091C008F00001096B6A
:1010B00008BF096908C0E6FF09C0E6FFF90EE66E41
:1010C000960EE66E000E23EC2EF04FE9F1EC2EF0BA
:1010D00037EF2DF0F1EC31F002E32D0E916FE66A5F
:1010E000E66A200EE66E410E72EC31F03DEC60F0E7
:1010F000ECEC61F0E552E5CFCAF0E5CFC9F0E5CF01
:10110000C8F0E7CFC7F047EC2FF0F7EC30F0200E37
:10111000E66E410EE66E47EC2FF0F6EC32F00A0E6A
:1011200009EC32F0C1EC2FF016EC33F0C1EC2FF0EB
:1011300091C000F00001016B00BF0169D4EC31F0F7
:10114000EF0EE66E960EE66E000E23EC2EF04BE9E7
:10115000F1EC2EF037EF2DF020EC2DF085E958EC76
:101160002DF003500001006F016B01354AE2005180
:10117000FA08000E015545E2FF0EF6EC2EF00AE1EA
:10118000F45008E10001775101E183D142EC6DF0A8
:10119000010E82D1FE0EF6EC2EF009E1F45007E1CB
:1011A00042EC6DF000012EEC2DF0040E27D0FD0E68
:1011B000F6EC2EF009E1F45007E10001010E776F23
:1011C00042EC6DF0FD0E68D1FC0EF6EC2EF008E15D
:1011D000F45006E10001776B42EC6DF0FC0E5CD13F
:1011E000FB0EF6EC2EF00DE1F4500BE10001776BF5
:1011F00042EC6DF000012EEC2DF0050ED9EC31F033
:101200004BD10001775101E144D10001FF510008A9
:1012100001E33FD1FF072EEC2DF0040E95EC32F0E8
:10122000EFCFE2F5AAEC03F0DDEC2FF04DEC71F01E
:1012300043E900012EEC2DF09FEC2DF0FF51E66EFE
:10124000E66ADD0EE66E960EE66E000ED8EC32F023
:101250000501E16BE151E12BE25D07E1470EE66E2E
:10126000A90EE66E000E34EC30F025EC2DF007E10F
:10127000670EE66EA90EE66E000E34EC30F025EC3B
:101280002DF007E1970EE66EA90EE66E000E34EC27
:1012900030F025EC2DF007E1BA0EE66EA90EE66EF1
:1012A000000E34EC30F025EC2DF007E1DD0EE66E9B
:1012B000A90EE66E000E34EC30F025EC2DF007E1BF
:1012C0000E0EE66EAA0EE66E000E34EC30F025EC43
:1012D0002DF007E1420EE66EAA0EE66E000E34EC2B
:1012E00030F025EC2DF007E1770EE66EAA0EE66EE3
:1012F000000E34EC30F025EC2DF007E1B00EE66E78
:10130000AA0EE66E000E34EC30F025EC2DF007E16D
:10131000DE0EE66EAA0EE66E000E34EC30F025EC22
:101320002DF007E1050EE66EA90EE66E000E34EC18
:1013300030F025EC2DF007E1250EE66EA90EE66EE5
:10134000000E34EC30F025EC2DF007E1350EE66EA2
:10135000A80EE66E000E34EC30F025EC2DF007E11F
:101360000E0EE66EAB0EE66E000E34EC30F025ECA1
:101370002DF007E14F0EE66EAB0EE66E000E34EC7C
:1013800030F025EC2DF007E1750EE66EAB0EE66E43
:10139000000E34EC30F025EC2DF007E19B0EE66EEC
:1013A000AB0EE66E000E34EC30F025EC2DF007E1CC
:1013B000C70EE66EAB0EE66E000E34EC30F025EC98
:1013C0002DF007E1DF0EE66EAB0EE66E000E34EC9C
:1013D00030F025EC2DF007E1F60EE66EAB0EE66E72
:1013E000000E34EC30F025EC2DF007E19A0EE66E9D
:1013F000AF0EE66E000E34EC30F025EC2DF007E178
:10140000D80EE66EAF0EE66E000E34EC30F025EC32
:101410002DF007E1F70EE66EAF0EE66E000E34EC2F
:1014200030F025EC2DF007E1230EE66EAC0EE66EF3
:10143000000E34EC30F00501E151D880E25517E29E
:10144000E2510001006F016BFA0ED89001BF03D08A
:10145000005D000E01590BE20501E251E66EE66AFD
:10146000C30EE66E960EE66E000EA2EC32F00001A0
:10147000FF5102E10001776B00012EEC2DF0050E0B
:10148000EEEC2EF02EEC2DF0EE6AEE6AEE6AEE6ACD
:10149000BCD642EC6DF0000E37EF2DF00001010ECE
:1014A000666F83A449D0F2EC33F0640EACEC30F0FC
:1014B00005C6E6FF06C6E6FF07C6E6FF08C6E6FF66
:1014C000A6EC61F05EEC2EF0B5DC44E9F3CFE6FF6C
:1014D000F4CFE6FFA90EE66E960EE66E000E67EC00
:1014E0002CF04BE9010EE66EE66AE4EC2FF0E66EB6
:1014F000E4EC2FF0020E3FEC30F05EEC2EF050ECFE
:101500002FF0A6EC61F050EC2FF05EEC2EF0890E7F
:10151000E66E960EE66E000E67EC2CF051E9010EB9
:10152000E66E030E3FEC30F0880EE66E130E10EC04
:1015300032F0B1EC5EF0B5D70001666B120020EC22
:101540002DF083E91B0EADEC2FF05B0EADEC2FF010
:10155000320EADEC2FF04A0EADEC2FF0580EE66EC9
:10156000A50EE66E000E34EC30F00B0EE66EA50E06
:10157000E66E000E34EC30F037EF2DF020EC2DF05D
:1015800082E900017A5128E17B5109E0F9EC31F060
:1015900000015A0E036F9D0E046F000E08D0F9EC87
:1015A00031F00001E60E036F9E0E046F000E056F12
:1015B000160E2DEC33F000EBE6FFE66AE66AB9ECB6
:1015C00062F0E552E5CF08F0EBEC2FF000013BECC8
:1015D0002DF000EB7CF02DD000500501E35D21E003
:1015E0000001816B3FEC6CF08B920401D06BD05109
:1015F0000A0814E38EEC2EF00401D0250001066FDA
:10160000076B086B3BEC2DF0010EE66EE66A7AEC98
:101610002EF0F9EC2DF00401D02BE9D700EBE3F527
:1016200008D08EEC2EF00A0F066F076B086B3BECB0
:101630002DF0010EE66EE66A7AEC2EF0E66A010EF7
:10164000E66E7AEC2EF0E66A020EE66E7AEC2EF08A
:10165000E66A030EE66E7AEC2EF037EF2DF0040109
:10166000D16B030ED15D07E2D151A1EC2FF0FE0E3C
:10167000EF6ED12BF6D70001DC513FEC32F002E1E6
:10168000765123E076510EE00401D251D22B32087C
:101690000DE20501E42BE451050801E2E46B0401CD
:1016A000D26B04D0030EDC250501E46FE66AE4C5C5
:1016B000E6FF3AEC00F042E9E66E0001DC51A1ECF5
:1016C0002FF0E552E750EF6E1200DC51A1EC2FF045
:1016D000EF68120020EC2DF081E943E8026A000176
:1016E0007B5104E1825102E1855102E0030E69D28F
:1016F000DC51016E31EC33F0DCEC31F0EE6AED6A76
:10170000010EE66E4CEC2EF031EC33F059EC2FF07C
:10171000EE50ED1006E0D5EC2EF00CE1010EE66E79
:1017200005D0D5EC2EF006E0E66A010EE66E59EC27
:101730006CF042E9D950030FE66EDACFE6FF47DAE4
:1017400042E90001F751035C08E18B96010E7B6FC3
:1017500003EBE6FF13DF41E931D2F2EC33F0F1ECB9
:101760000FF02BEC31F00DE200510408000E015592
:1017700008E205019A0EE56F990EE66FE76F3E0EDF
:1017800011D001503FEC32F007E00501E56BE66B4C
:10179000C00EE76F3F0E06D0050167EC2EF003E0A8
:1017A000D9EC2EF0E86F000186516DE039EC30F095
:1017B000C9EC2FF005AF02D00669076953EC31F090
:1017C00006E6D8802C0E0055010E80EC2EF014E2B7
:1017D0008DBE25D08EEC31F03EEC2EF08D8E0001CA
:1017E000806FF85107E06F0EE66E960EE66E000E03
:1017F00034EC30F08D8013D08DAE11D08EEC31F002
:10180000EEEC2EF08D9E0001806BF85107E0560E35
:10181000E66E960EE66E000E34EC30F08D8039ECFC
:1018200030F0C9EC2FF005AF02D00669076953EC20
:1018300031F006E6D880900E0055010E80EC2EF0B7
:1018400012E28DB620D08DAE1ED00001010E876F42
:10185000F85107E0320EE66E960EE66E000E34EC9E
:1018600030F08D8610D08DA60ED08DAE0CD000013C
:10187000876BF85107E00F0EE66E960EE66E000ECF
:1018800034EC30F08D96B1EC32F0C10E15EC32F044
:1018900004E60051025D0151035901E38FD039EC98
:1018A00030F0EECF04F0EFCF05F07AEC2DF0410EE2
:1018B0001BEC32F0EBEC2FF0000107350751051956
:1018C00004E60651045D0751055901E377D0025043
:1018D00045E00001865142E00501E951EA1117E0B7
:1018E00022EC32F00001F85112E0EAEC30F001E0B5
:1018F000010E53EC32F05BEC31F0C20EE66E950E49
:10190000E66E000E67EC2CF04DE945EC30F001502E
:10191000D2EC2CF004013F0551E10150DFEC31F035
:101920000501E951EA114AE067EC2EF003E0D9EC39
:101930002EF0E86F0001F8513DE0EAEC30F001E0F4
:10194000010E53EC32F05BEC31F07B0EE66E950E3F
:10195000E66E000E67EC2CF04DE923D00150DFEC71
:1019600031F00150D2EC2CF00501E951EA1126E0EA
:1019700067EC2EF003E0D9EC2EF0E86F0001F8518F
:1019800019E0EAEC30F001E0010E53EC32F0A4EC87
:101990002EF0230EE66E950EE66E000E67EC2CF030
:1019A0004FE945EC30F0600EE66E950EE66E000EE7
:1019B00034EC30F00501E96BEA6B8B96B1EC32F058
:1019C000410E15EC32F004E60051025D015103595D
:1019D00048E205EC31F0D9EC31F014E131EC33F0B0
:1019E000DCEC31F0EE2AEF222BEC31F00BE200516F
:1019F0000108000E015506E20601662B000E672362
:101A00006823692331EC33F0020E3EEC2EF0CCEC6F
:101A100032F004E1000101510501EC1922E039EC3A
:101A200030F0D1EC2FF007AF02D008690969E3EC80
:101A30002DF002E60AEC2FF014E20001F8510FE05D
:101A4000EAEC30F001E0010E53EC32F03AEC31F008
:101A5000D60EE66E940EE66E000E34EC30F0FCEC22
:101A600032F0B1EC32F0C10E33EC2EF00001033550
:101A70000351011904E60251005D035101592EE2A0
:101A800005EC31F0EEEC2EF0CCEC32F004E100018C
:101A900001510501EC1922E039EC30F0D1EC2FF0C6
:101AA00007AF02D008690969E3EC2DF002E60AEC01
:101AB0002FF014E20001F8510FE0EAEC30F001E001
:101AC000010E53EC32F03AEC31F0BF0EE66E940E9C
:101AD000E66E000E34EC30F0FCEC32F02BEC31F022
:101AE0000AE200510108000E015505E231EC33F025
:101AF000050E3EEC2EF031EC33F02AEC2EF00135E1
:101B00000AE200510208000E015505E231EC33F003
:101B1000090E3EEC2EF001503FEC32F010E00601D1
:101B20000051010B0CE10051020B09E10051040BC3
:101B300006E1E66A4CEC2EF0000901E1FBD500015C
:101B4000865103E0876B8D9E806BE66A4CEC2EF02D
:101B5000000913E00001F85107E0700EE66E940EE4
:101B6000E66E000E34EC30F00001865102E065ECC8
:101B70002FF0A7EC2FF0040E24D006010051010B2A
:101B800006E10051020B03E10051040B19E00001D2
:101B9000F85107E01A0EE66E940EE66E000E34EC75
:101BA00030F00001865102E065EC2FF0060100A143
:101BB00005D000910001010E7B6F8B96020E01D0C3
:101BC000000EF36EF46A44E9E7CFD9FF120020EC6F
:101BD0002DF083E983380F0B0001F7150501EE6F37
:101BE0000001F7510501EE5D59E10001F7510501D2
:101BF000ED5D03E0040E61EC2DF06EEC2FF03BE1A7
:101C00000001F7510501ED5D11E039EC2EF0070EF2
:101C1000EF6E29EC32F0E0EC2EF0000EE66E940E42
:101C2000E66E000EA2EC32F0F7C0EDF50001845133
:101C300015E0AAEC03F0E10EE66E930EE66E000EE0
:101C400067EC2CF077EC2FF0F7C0EDF539EC2EF0C7
:101C5000070EEF6E0001010E7A6F886B846B7CC0FB
:101C6000E6FF5CEC68F041E97CC0E6FF87DC41E917
:101C7000F7C0F0F510D0E0EC2EF0ED51E66EE66A1C
:101C80008F0EE66E930EE66E000E2FEC32F0EDC571
:101C9000EFFF0501F06B0501F05157D0EE51ED5DFE
:101CA0004FE0030EE66EC8EC5EF041E9040E61EC15
:101CB0002DF06EEC2FF038E139EC2EF0EEC5EFFF91
:101CC00029EC32F0AAEC03F039EC2EF0EF50E66E7E
:101CD000E66A0501ED51E66EE66A520EE66E930E77
:101CE000E66E000E2FEC32F0EFCFEDF500018451DF
:101CF0000DE1AAEC03F0350EE66E930EE66E000ED3
:101D000067EC2CF077EC2FF00001886B010E846FEC
:101D10007CC0E6FF5CEC68F041E900017A6B7CC0B6
:101D2000E6FF2CDC41E910D0E0EC2EF0ED51E66E40
:101D3000E66AE40EE66E920EE66E000ED8EC32F025
:101D400039EC2EF0EDC5EFFF000E37EF2DF0E7EC8C
:101D500030F00AE10401D36BF5EC2FF001E3DC6B0A
:101D600002EC33F0F9E07BDC060100A31ED08B848B
:101D70000401D36BF5EC2FF001E3DC6B02EC33F0E4
:101D8000F9E06DDCE7EC2EF0D20EE66E920EE66E18
:101D9000000EA2EC32F0B70EE66E920EE66E000E6A
:101DA00034EC30F08B94060100930051010B08E1F4
:101DB000E66A7AEC2FF000091BE000017A5118E086
:101DC00000017A5106E17B5102E0000E01D0010EC4
:101DD0007B6F5AEC30F08D0EE66E920EE66E000EC2
:101DE00034EC30F000017A6B060100918B906BD0DF
:101DF00004010F0566E0E66A08EC33F0000963E0D1
:101E0000010EE66E7AEC2FF00001010E7A6F8B80E6
:101E100004010F5129E10FEC31F002E632EC32F00F
:101E200023E20001010E7A6F8B90845111E10501CC
:101E3000F12B76EC2DF0110E0501F15D01E3F16B54
:101E4000BDEC32F0750EE66E920EE66E000E35D0E9
:101E500038EC32F001E3A26BCFEC30F04E0EE66EC0
:101E6000920EE66E000E29D00FEC31F002E632EC55
:101E700032F025E20001010E7A6F8B90845112E15D
:101E80000501F10776EC2DF0110E0501F15D02E37D
:101E9000100EF16FBDEC32F0370EE66E920EE66E6C
:101EA000000E0BD038EC32F001E3A26BCFEC30F037
:101EB000200EE66E920EE66E000E34EC30F08B8053
:101EC00002D076EC2DF000017A5102E08B8001D037
:101ED0008B90855170E17B5102E182516AE0D5EC33
:101EE0002EF006E0E66A010EE66E59EC6CF042E96F
:101EF00004011F0546E0E66A2DEC2EF000095BE0C8
:101F00008B8404011F511AE11B35000E1B1909E6D1
:101F1000D880010E1855000E1955000E1A55000EE6
:101F20001B550CE244EC31F03EEC2EF09FEC30F00F
:101F3000D60EE66E940EE66E000E20D0020E1F5DE9
:101F40003AE118C4E6FF19C4E6FF1AC4E6FF1BC451
:101F5000E6FF1BEC33F006E6D880010E0055000EBC
:101F600080EC2EF028E244EC31F0EEEC2EF09FEC09
:101F700030F0BF0EE66E940EE66E000E34EC30F0DC
:101F80001AD0000182510CE1DC51DFEC31F0AAECF7
:101F900032F0020E3EEC2EF0DC51D2EC2CF003D0ED
:101FA000DC51DFEC31F0010EE66E2DEC2EF08B945F
:101FB00002D06AEC0BF000017B5107E0E66A44ECCA
:101FC00032F00CE1010EE66E05D0E66A44EC32F028
:101FD00005E0E66AE66A59EC6CF042E90501F15168
:101FE00012002FEC0BF08BC0FBFF8AC0FAFF000140
:101FF00089511400120020EC2DF082E947E8076AAD
:10200000086A3FEC6CF000017B5104E1050130519E
:10201000311102E0030E09D00001806B040135513B
:1020200036113711381104E1020EF36EF46A72D0E2
:10203000026A0250005C68E37EEC30F00A0EE66E45
:10204000D70EE66E230EE66E3C0E03EC2DF0C5ECCB
:1020500030F05AE1036A046A056A066AD8900650AD
:1020600002E680EC2FF00FE2FA0EE66E7E0EE66ED0
:102070002A0EE66E3F0E61EC32F005E1D950030FF7
:10208000FEEC2DF0EBD7036A046A056A066AD89065
:10209000065002E680EC2FF00FE2FA0EE66E7E0E9E
:1020A000E66EAA0EE66E3E0E61EC32F005E1D95006
:1020B000030FFEEC2DF0EBD7660EE66EE66EE66ED5
:1020C0003F0E1FEC33F020E1CD0EE66ECC0EE66E37
:1020D000E66E3D0E1FEC33F017E1E66AE66AE66A4B
:1020E0003F0E1FEC33F010E106010051010B06E139
:1020F0000051020B03E10051040B04E0010E076ED6
:10210000086A02D0022A95D77CEC31F007EBF3FF86
:1021100008EBF4FF48E9E7CFD9FF120020EC2DF0DF
:1021200082E948E8086A096A3FEC6CF000017B51DB
:1021300004E105013051311104E0030EF36EF46A3D
:102140007CD00001806B026A0050025C70E2036A7E
:10215000030E035C6AE203EBDCF0E7EC30F063E0D3
:102160007EEC30F093EC30F0640EEE6EED6AC5EC70
:1021700030F05BE1046A056A066A076AD890075086
:1021800002E689EC2FF00DE292EC2FF09A0E002778
:10219000020E99EC32F005E1D950040FFEEC2DF05F
:1021A000EDD7046A056A066A076AD890075002E606
:1021B00089EC2FF00DE292EC2FF04D0E0027010E6E
:1021C00099EC32F005E1D950040FFEEC2DF0EDD77B
:1021D00093EC30F0840EEE6E030EED6EB5EC32F043
:1021E00093EC30F0640EEE6EED6AB5EC32F0025016
:1021F0005FEC2CF00D0E95EC32F035EC31F093ECF9
:1022000030F0F2EC30F0B5EC32F006010051010B89
:1022100006E10051020B03E10051040B04E0010E42
:10222000086E096A02D0032A93D7022A8DD77CEC64
:1022300031F008EBF3FF09EBF4FF49E9E7CFD9FFF1
:1022400012002FEC0BF000017C51070A1CE0010A80
:1022500015E0030A11E0080A0FE00E0A0DE0010A7A
:102260000BE0060A05E0050A07E0010A0CE104D0CC
:10227000030EE66EC0DE05D0020E01D0040EE66E3F
:102280004DDF41E912008BC0FBFF8AC0FAFF895184
:10229000140012005CDD0501F26FF20EE66E050E11
:1022A000E66E95DC42E9F2C5E6FFBEEC0AF041E9D4
:1022B000F1EF0FF00001A2511EE1E4EC31F0CC0E81
:1022C000E66E910EE66E000E4FEC32F0B9EC32F095
:1022D000A9EC2EF0B60EE66E910EE66E000E0EEC38
:1022E00033F0FAEC2FF0A00EE66E910EE66E000EC3
:1022F0004FEC32F007D037EC33F05EEC2DF03CECD5
:1023000030F045E992EF2DF00001A25118E12AECDE
:102310002DF09AEC2EF0610EE66E910EE66E000E38
:1023200049EC32F0400EE66E910EE66E000EDCECEB
:1023300032F0230EE66E910EE66E000E1DD092EC8A
:1023400032F00CE09FEC2CF0E0EC32F0FC0EE66E8C
:10235000900EE66E000E67EC2CF04DE9BBEC30F011
:10236000E20EE66E900EE66E000EDCEC32F0E20E4F
:10237000E66E900EE66E000EE9EF31F00001A2511C
:1023800035E12AEC2DF09AEC2EF0B90EE66E900EA7
:10239000E66E000E49EC32F049EC2EF07CC5E6FF0B
:1023A0007DC5E6FF7AC5E6FF7BC5E6FFA9EC2EF00A
:1023B000900EE66E900EE66E000E67EC2CF053E980
:1023C000DEEC2DF0BCC5E6FFBDC5E6FFBAC5E6FFF5
:1023D000BBC5E6FFFAEC2FF0670EE66E900EE66ED8
:1023E000000E67EC2CF09BEC2FF011D092EC32F049
:1023F00002E04AEC30F07CEC32F002E052EC30F0DB
:102400005AEC32F002E076EC30F0EDEC30F043E9DB
:1024100012000001A25130E12AEC2DF014EC2EF054
:10242000C90EE66E8F0EE66E000E49EC32F0A9EC96
:102430002EF0B10EE66E8F0EE66E000E4FEC32F00F
:10244000DEEC2DF0ADEC32F0BCC5E6FFBDC5E6FF1D
:10245000C1EC30F0BAC5E6FFBBC5E6FF00EC61F0A9
:10246000FAEC2FF0880EE66E8F0EE66E000E67EC2B
:102470002CF09BEC2FF011D092EC32F002E04AEC01
:1024800030F07CEC32F002E052EC30F05AEC32F0FA
:1024900002E076EC30F0EDEC30F043E912000001A0
:1024A000A25119E1EEEC31F055EC2DF049EC2EF093
:1024B000ADEC32F07CC5E6FF7DC5E6FFC1EC30F047
:1024C0007AC5E6FF7BC5E6FF00EC61F0A9EC2EF0D3
:1024D00087EC32F009D037EC33F0D9EC2FF002E082
:1024E00052EC30F0E5EC32F0E9EF31F00001A251AE
:1024F0000BE1EEEC31F055EC2DF02AEC2DF014EC64
:102500002EF087EC32F00BD03CEC30F055EC2DF097
:1025100092EC32F002E04AEC30F0E5EC32F0E9EF18
:1025200031F00001A25148E114C5E6FF15C5E6FFF0
:1025300010C4E6FF11C4E6FF12C4E6FF13C4E6FFB1
:1025400029C4E6FF2AC4E6FF2BC4E6FF2CC4E6FF3D
:10255000E4EC31F0280EE66E8F0EE66E000E67ECAE
:102560002CF051E9B9EC32F0050101511BE00251A8
:10257000E66EE66A010EE66E8F0EE66E000E0EEC5B
:1025800033F031C4E6FF32C4E6FF33C4E6FF34C49F
:10259000E6FFE00EE66E8E0EE66E000E67EC2CF0A7
:1025A00049E907D0EEEC31F05EEC2DF0EEEC31F0C5
:1025B00045E980EC32F011D092EC32F002E019ECF7
:1025C00031F07CEC32F002E0AFEC30F05AEC32F05B
:1025D00002E022EC31F0EDEC30F043E912000001B2
:1025E000A2511BE1550EE66E8E0EE66E000E67ECF4
:1025F0002CF055EC2DF03F0EE66E8E0EE66E000EC2
:10260000DCEC32F0290EE66E8E0EE66E000E67EC04
:102610002CF045E980EC32F011D092EC32F002E07F
:102620004AEC30F07CEC32F002E052EC30F05AEC44
:1026300032F002E076EC30F0EDEC30F043E91200DD
:10264000120EE66E8E0EE66E000E67EC2CF055EC68
:102650002DF0FB0EE66E8D0EE66E000EDCEC32F019
:10266000E40EE66E8D0EE66E000EE9EF31F000012D
:10267000A2514BE13CEC30F045E9640E0501D890E5
:1026800091BF03D0905D000E91590AE20EEC2EF03E
:10269000C50EE66E8D0EE66E000E67EC2CF047E977
:1026A000B9EC32F08DB20AD00EEC2EF0A9EC2EF07F
:1026B000A60EE66E8D0EE66E000E09D008EC2EF02A
:1026C000A9EC2EF0870EE66E8D0EE66E000E67EC1E
:1026D0002CF049E934EC33F03CEC30F045E9640E81
:1026E0000501D89011BF03D0105D000E11590AE208
:1026F00008EC2EF0690EE66E8D0EE66E000E67ECAD
:102700002CF047E980EC32F011D092EC32F002E08C
:1027100019EC31F07CEC32F002E0AFEC30F05AEC26
:1027200032F002E022EC31F0EDEC30F043E912003F
:1027300020EC2DF082E942E8026A036A030ED89089
:1027400003BE03D0025C000E03581AE20050E66E8E
:1027500002EBE9FF03EBEAFF060ED890E936EA3612
:10276000E806FBE1000EE926050EEA2259EC2FF0FF
:10277000E552E750EE6EED6A022A000E0322DED724
:1027800043E9E7CFD9FF1200DCC0D4F40001DC6BD1
:10279000AAEC32F086EC2EF002E06AEC0BF0F5ECDD
:1027A0002FF0F6E33FEC6CF0D4C4DCF0010E61EFE7
:1027B0002DF0D9CFE6FFE1CFD9FF81E951E8E80E4E
:1027C000056E030E066E076A086A096A0A6A0B6AD2
:1027D0000C6A580E0D6E106A116A0001816BF2ECE2
:1027E00033F0F2EC33F00001010E886F0601009522
:1027F0000001A26B7CC0E6FF5CEC68F041E90001DF
:10280000855107E08B9200017B6B0001806B22EF0A
:1028100028F0AAEC03F0450EE66E8D0EE66E000E73
:10282000E66E4DEC71F043E9020E00017C5D06E1BD
:10283000D00E056E070E066E076A086A0001010ECB
:102840007B6F0501080503E10001010E806F3FEC7D
:102850006CF0010EE66EE66AE66AE66A56EC01F096
:1028600044E900017C5118E1020EE66EE66AE66A70
:10287000E66A05EBE6FF06EBE6FF07EBE6FF08EB93
:10288000E6FF19EC63F0E552E550086EE550076E7F
:10289000E550066EE750056E030E00017C5D18E101
:1028A000020EE66EE66AE66AE66A05EBE6FF06EB0E
:1028B000E6FF07EBE6FF08EBE6FF19EC63F0E552F5
:1028C000E550086EE550076EE550066EE750056E60
:1028D00000017C0518E1020EE66EE66AE66AE66A29
:1028E00005EBE6FF06EBE6FF07EBE6FF08EBE6FF8E
:1028F00019EC63F0E552E550086EE550076EE550BF
:10290000066EE750056EE66A13DF41E942EC6CF0B3
:10291000010EE66E05EBE6FF06EBE6FF07EBE6FFD2
:1029200008EBE6FF55EC02F045E9016A026A036A2A
:10293000046A0001865102E098EF1DF0060E0001C6
:102940007C5D01E0CDD30E6A0F6A0F3404E20E50B5
:102950000108000E0F5401E2A1D2640E056E066A52
:10296000076A086A010EE66E05EBE6FF06EBE6FF76
:1029700007EBE6FF08EBE6FF55EC02F045E942EC19
:102980006CF0016A026A036A046A80C0E6FF45ECE3
:102990006CF041E9D00EE66E070EE66EE66AE66A76
:1029A00001EBE6FF02EBE6FF03EBE6FF04EBE6FFDD
:1029B000A9EC61F0E552E5CF03F0E5CF02F0E5CFF9
:1029C00001F0E7CF00F000010051011102110311E5
:1029D00001E0DAD0060100A52DD03FEC6CF0010E2D
:1029E000E66EA6DE41E9BEEC5EF0060EE66EE66A35
:1029F000E66AE66A56EC01F044E98B920001010EAA
:102A00007B6F0001806B80C0E6FF45EC6CF041E914
:102A10007CC0E6FF5CEC68F041E9AAEC03F0170E1D
:102A2000E66E8D0EE66E000EE66E4DEC71F043E93B
:102A300022EF28F026EC28F00EEBE6FF0FEBE6FF86
:102A4000FB0EE66E8C0EE66E000EE66E000EE66E77
:102A5000020EE66E7DEC70F047E9010EE66EE66A66
:102A6000A0C0E6FFB7EC00F043E90A0EE66EE66AA6
:102A700090C5E6FF91C5E6FF00EC61F0D00EE66E72
:102A80008C0EE66E000EE66E000EE66E020EE66E30
:102A90007DEC70F047E9640E0501D89091BF03D03A
:102AA000905D000E915916E20A0EE66EE66A90C538
:102AB000E6FF91C5E6FF00EC61F0B10EE66E8C0E0C
:102AC000E66E000EE66E000EE66E020EE66E7DEC21
:102AD00070F047E9010EE66E010EE66EE66AB7ECAD
:102AE00000F043E9890EE66E8C0EE66E000EE66E8F
:102AF000000EE66E020EE66E7DEC70F045E9010E0A
:102B0000E66E020EE66EE66AB7EC00F043E90A0EE6
:102B1000E66EE66A10C5E6FF11C5E6FF00EC61F05F
:102B20005C0EE66E8C0EE66E000EE66E000EE66E35
:102B3000020EE66E7DEC70F047E9640E0501D89058
:102B400011BF03D0105D000E115916E20A0EE66E99
:102B5000E66A10C5E6FF11C5E6FF00EC61F0690EFC
:102B6000E66E8D0EE66E000EE66E000EE66E020E4E
:102B7000E66E7DEC70F047E9010EE66E030EE66E40
:102B8000E66AB7EC00F043E9D950010FE96EDACFFD
:102B9000EAFFEE2A000EEE22EE22EE22E66A05EBB6
:102BA000E6FF06EBE6FF07EBE6FF08EBE6FF55EC7A
:102BB00002F045E9000901E1E8D6640E0501D8906C
:102BC00091BF03D0905D000E91590CE205011135C3
:102BD00004E210519008010E115504E2010E0501A6
:102BE0006E6F6F6B640E0501D89011BF03D0105D3E
:102BF000000E115903E205016C6B6D6B010EE66E60
:102C000005EBE6FF06EBE6FF07EBE6FF08EBE6FF6A
:102C100055EC02F045E93FEC6CF0016A026A036A88
:102C2000046A80C0E6FF45EC6CF041E9D00EE66E28
:102C3000070EE66EE66AE66A01EBE6FF02EBE6FFE8
:102C400003EBE6FF04EBE6FFA9EC61F0E552E5CF0C
:102C500003F0E5CF02F0E5CF01F0E7CF00F000018F
:102C6000005101110211031101E0DAD0060100A5A3
:102C70002DD03FEC6CF0010EE66E5ADD41E9BEEC62
:102C80005EF0060EE66EE66AE66AE66A56EC01F06B
:102C900044E98B920001010E7B6F0001806B80C0C4
:102CA000E6FF45EC6CF041E97CC0E6FF5CEC68F0C7
:102CB00041E9AAEC03F0170EE66E8D0EE66E000EEB
:102CC000E66E4DEC71F043E922EF28F026EC28F097
:102CD0000EEBE6FF0FEBE6FF410EE66E8C0EE66EA6
:102CE000000EE66E000EE66E020EE66E7DEC70F0F3
:102CF00047E9010EE66EE66AA0C0E6FFB7EC00F019
:102D000043E90A0EE66EE66A90C5E6FF91C5E6FF66
:102D100000EC61F0D00EE66E8C0EE66E000EE66EF4
:102D2000000EE66E020EE66E7DEC70F047E9640E72
:102D30000501D89091BF03D0905D000E915916E225
:102D40000A0EE66EE66A90C5E6FF91C5E6FF00EC66
:102D500061F0B10EE66E8C0EE66E000EE66E000EB1
:102D6000E66E020EE66E7DEC70F047E9010EE66E4F
:102D7000010EE66EE66AB7EC00F043E9160EE66E69
:102D80008C0EE66E000EE66E000EE66E020EE66E2D
:102D90007DEC70F045E9010EE66E020EE66EE66A25
:102DA000B7EC00F043E90A0EE66EE66A10C5E6FFEE
:102DB00011C5E6FF00EC61F05C0EE66E8C0EE66E6F
:102DC000000EE66E000EE66E020EE66E7DEC70F012
:102DD00047E9640E0501D89011BF03D0105D000EC5
:102DE000115916E20A0EE66EE66A10C5E6FF11C535
:102DF000E6FF00EC61F0690EE66E8D0EE66E000EE9
:102E0000E66E000EE66E020EE66E7DEC70F047E9AF
:102E1000010EE66E030EE66EE66AB7EC00F043E9DB
:102E2000D950010FE96EDACFEAFFEE2A000EEE224A
:102E3000EE22EE22E66A05EBE6FF06EBE6FF07EB85
:102E4000E6FF08EBE6FF55EC02F045E9000901E179
:102E5000E8D6640E0501D89011BF03D0105D000EB6
:102E600011590CE20501913504E290519008010ED0
:102E7000915504E2010E05016C6F6D6B640E050146
:102E8000D89091BF03D0905D000E915903E20501E7
:102E90006E6B6F6B0E2A000E0F2257D58B920001BE
:102EA0007B6B0001806B05016C516D1105E0050124
:102EB0006E516F1101E007D10501465101E103D1C7
:102EC00006010095590E0D6E0DEB00F00001016B2F
:102ED00000BF016900C0E6FF01C0E6FFF60EE66E26
:102EE0008B0EE66E000EE66E000EE66E020EE66ECD
:102EF0007DEC70F047E9010EE66EE66AA0C0E6FFE1
:102F0000B7EC00F043E9000EE66E020EE66EA2ECAE
:102F100071F042E9B90EE66E990EE66E000EE66EAD
:102F20004DEC71F043E96CC5E6FF6DC5E6FF6EC57B
:102F3000E6FF6FC5E6FFDF0EE66E8B0EE66E000E57
:102F4000E66E000EE66E020EE66E7DEC70F049E96C
:102F5000010EE66E010EE66EE66AB7EC00F043E99C
:102F6000000EE66E020EE66EA2EC71F042E9B90EBA
:102F7000E66E990EE66E000EE66E4DEC71F043E9DA
:102F8000C80EE66E8B0EE66E000EE66E000EE66E66
:102F9000020EE66E7DEC70F045E905016E516F1191
:102FA0000DE1AC0EE66E8B0EE66E000EE66E000EC8
:102FB000E66E020EE66E7DEC70F045E9010EE66EFF
:102FC000020EE66EE66AB7EC00F043E9000EE66E2C
:102FD000020EE66EA2EC71F042E9B90EE66E990EB1
:102FE000E66E000EE66E4DEC71F043E9C80EE66E3B
:102FF0008B0EE66E000EE66E000EE66E020EE66EBC
:103000007DEC70F045E905016C516D110DE18E0EFE
:10301000E66E8B0EE66E000EE66E000EE66E020E9B
:10302000E66E7DEC70F045E9010EE66E030EE66E8D
:10303000E66AB7EC00F043E9000EE66E020EE66EBB
:10304000A2EC71F042E9B90EE66E990EE66E000E42
:10305000E66E4DEC71F043E9010EE66E010EE66E90
:1030600059EC6CF042E9020EE66EC8EC5EF041E904
:103070000400060100A5F7D7E66A010EE66E59ECDA
:103080006CF042E93FEC6CF0010EE66E98EC13F048
:1030900041E9BEEC5EF0060EE66EE66AE66AE66AB6
:1030A00056EC01F044E98B920001010E7B6F0001A8
:1030B000806B80C0E6FF45EC6CF041E97CC0E6FF28
:1030C0005CEC68F041E9AAEC03F0680EE66E8B0E4A
:1030D000E66E000EE66E4DEC71F043E922EF28F04B
:1030E0003FEC6CF0060EE66EE66AE66AE66A56ECBF
:1030F00001F044E935EC6CF0010EE66EE66AE66A32
:10310000E66A56EC01F044E9106A116A42EC6CF090
:10311000010EE66E05EBE6FF06EBE6FF07EBE6FFCA
:1031200008EBE6FF55EC02F045E955EC33F080C0C2
:10313000E6FF45EC6CF041E9E80EE66E030EE66E44
:10314000E66AE66A01EBE6FF02EBE6FF03EBE6FF69
:1031500004EBE6FFA9EC61F0E552E5CF03F0E5CF23
:1031600002F0E5CF01F0E7CF00F0000100510111BE
:103170000211031101E027D275EC33F0000901E1DF
:10318000D6D0AAEC03F0210EE96E060EEA6EEE50E0
:103190000601155D0001046FEE500601165900018D
:1031A000056FEE50060117590001066FEE5006013B
:1031B00018590001076F04C0E6FF05C0E6FF06C00E
:1031C000E6FF07C0E6FFBEEC07F044E9FCC300F0F1
:1031D000FDC301F0FEC302F0FFC303F000C0E6FF31
:1031E00001C0E6FF02C0E6FF03C0E6FF1D0EE96E68
:1031F000060EEA6EEE500601115D00010C6FEE50F6
:103200000601125900010D6FEE500601135900011D
:103210000E6FEE500601145900010F6F0CC0E6FF4F
:103220000DC0E6FF0EC0E6FF0FC0E6FFBEEC07F0E4
:1032300044E9FCC308F0FDC309F0FEC30AF0FFC374
:103240000BF008C0E6FF09C0E6FF0AC0E6FF0BC0AE
:10325000E6FF190EE96E060EEA6EEE5006010D5DF0
:103260000001146FEE5006010E590001156FEE506B
:1032700006010F590001166FEE50060110590001AA
:10328000176F14C0E6FF15C0E6FF16C0E6FF17C0B3
:10329000E6FFBEEC07F044E9FCC310F0FDC311F0FB
:1032A000FEC312F0FFC313F010C0E6FF11C0E6FF2B
:1032B00012C0E6FF13C0E6FF4B0EE66E8B0EE66E05
:1032C000000EE66E000EE66E020EE66E7DEC70F00D
:1032D00051E9000EE66E020EE66EA2EC71F042E9D4
:1032E00006013D5122E006013E511FE006013F511B
:1032F0001CE000017C5103E0010E106E116AAAEC83
:1033000003F0260EE66E8B0EE66E000EE66E000EE5
:10331000E66E020EE66E7DEC70F045E9000EE66E9C
:10332000020EE66EA2EC71F042E955EC33F00601B4
:1033300000A52ED03FEC6CF0010EE66E98EC13F079
:1033400041E9BEEC5EF0060EE66EE66AE66AE66A03
:1033500056EC01F044E98B920001010E7B6F0001F5
:10336000806B80C0E6FF45EC6CF041E97CC0E6FF75
:103370005CEC68F041E9AAEC03F0170EE66E8D0EE6
:10338000E66E000EE66E4DEC71F043E922EF28F098
:1033900026EC28F001EBE6FF02EBE6FF03EBE6FF8D
:1033A00004EBE6FF0E0EE66E8B0EE66E000EE66E8A
:1033B000000EE66E020EE66E7DEC70F049E9010E3D
:1033C000E66EE66AA0C0E6FFB7EC00F043E9020E45
:1033D00000017C5D3CE08A0EE66E910EE66E000E0A
:1033E000E66E000EE66E020EE66E7DEC70F045E9CC
:1033F000050106512BE031C6E6FF32C6E6FF33C6B3
:10340000E6FF34C6E6FF0A0EE66EE66A2AC5E6FF68
:103410002BC5E6FF00EC61F00A0EE66EE66A3AC5DF
:10342000E6FF3BC5E6FF00EC61F010C5E6FF11C505
:10343000E6FFE60EE66E8A0EE66E000EE66E000E03
:10344000E66E020EE66E7DEC70F04FE92ED00501BF
:1034500006512BE031C6E6FF32C6E6FF33C6E6FF73
:1034600034C6E6FF0A0EE66EE66A2AC5E6FF2BC5FD
:10347000E6FF00EC61F00A0EE66EE66A3AC5E6FF8A
:103480003BC5E6FF00EC61F010C5E6FF11C5E6FFA5
:10349000BE0EE66E8A0EE66E000EE66E000EE66E5C
:1034A000020EE66E7DEC70F04FE9010EE66E010E45
:1034B000E66EE66AB7EC00F043E98A0EE66E910E1E
:1034C000E66E000EE66E000EE66E020EE66E7DEC17
:1034D00070F045E9050146512BE035C6E6FF36C6DA
:1034E000E6FF37C6E6FF38C6E6FF0A0EE66EE66A76
:1034F0006AC5E6FF6BC5E6FF00EC61F00A0EE66EFA
:10350000E66A7AC5E6FF7BC5E6FF00EC61F050C5D0
:10351000E6FF51C5E6FF960EE66E8A0EE66E000ED9
:10352000E66E000EE66E020EE66E7DEC70F04FE980
:10353000010EE66E020EE66EE66AB7EC00F043E9B5
:103540008A0EE66E910EE66E000EE66E000EE66ED8
:10355000020EE66E7DEC70F045E9050186512BE028
:1035600039C6E6FF3AC6E6FF3BC6E6FF3CC6E6FFC5
:103570000A0EE66EE66AAAC5E6FFABC5E6FF00ECFA
:1035800061F00A0EE66EE66ABAC5E6FFBBC5E6FF65
:1035900000EC61F090C5E6FF91C5E6FF6E0EE66EA9
:1035A0008A0EE66E000EE66E000EE66E020EE66E07
:1035B0007DEC70F04FE9010EE66E030EE66EE66AF2
:1035C000B7EC00F043E9D950010FE96EDACFEAFF1A
:1035D000EE2A000EEE22EE22EE22E66A05EBE6FF70
:1035E00006EBE6FF07EBE6FF08EBE6FF55EC02F023
:1035F00045E9000904E11050111001E198D53FECB4
:103600006CF0060EE66EE66AE66AE66A56EC01F0D3
:1036100044E93CEC6CF0010EE66EE66AE66AE66AA6
:1036200056EC01F044E9106A116A00017C5101E195
:103630007DD242EC6CF0010EE66E05EBE6FF06EB88
:10364000E6FF07EBE6FF08EBE6FF55EC02F045E985
:10365000016A026A036A046A55EC33F080C0E6FF2F
:1036600045EC6CF041E9E80EE66E030EE66EE66AA4
:10367000E66A01EBE6FF02EBE6FF03EBE6FF04EB95
:10368000E6FFA9EC61F0E552E5CF03F0E5CF02F0EB
:10369000E5CF01F0E7CF00F0000100510111021168
:1036A000031101E027D275EC33F0000901E1D6D017
:1036B000AAEC03F0210EE96E060EEA6EEE5006014A
:1036C000155D0001046FEE50060116590001056FEB
:1036D000EE50060117590001066FEE500601185909
:1036E0000001076F04C0E6FF05C0E6FF06C0E6FF65
:1036F00007C0E6FFBEEC07F044E9FCC300F0FDC3E1
:1037000001F0FEC302F0FFC303F000C0E6FF01C0FA
:10371000E6FF02C0E6FF03C0E6FF1D0EE96E060EDF
:10372000EA6EEE500601115D00010C6FEE500601CD
:10373000125900010D6FEE500601135900010E6F72
:10374000EE500601145900010F6F0CC0E6FF0DC0CA
:10375000E6FF0EC0E6FF0FC0E6FFBEEC07F044E94F
:10376000FCC308F0FDC309F0FEC30AF0FFC30BF071
:1037700008C0E6FF09C0E6FF0AC0E6FF0BC0E6FF8F
:10378000190EE96E060EEA6EEE5006010D5D00019F
:10379000146FEE5006010E590001156FEE50060130
:1037A0000F590001166FEE50060110590001176FF6
:1037B00014C0E6FF15C0E6FF16C0E6FF17C0E6FF1F
:1037C000BEEC07F044E9FCC310F0FDC311F0FEC3EA
:1037D00012F0FFC313F010C0E6FF11C0E6FF12C0E5
:1037E000E6FF13C0E6FF4B0EE66E8B0EE66E000E94
:1037F000E66E000EE66E020EE66E7DEC70F051E9AC
:10380000000EE66E020EE66EA2EC71F042E90601D1
:103810003D5122E006013E511FE006013F511CE0F0
:1038200000017C5103E0010E106E116AAAEC03F056
:10383000260EE66E8B0EE66E000EE66E000EE66E4F
:10384000020EE66E7DEC70F045E9000EE66E020EAB
:10385000E66EA2EC71F042E955EC33F0060100A5EA
:103860002ED03FEC6CF0010EE66E98EC13F041E9BF
:10387000BEEC5EF0060EE66EE66AE66AE66A56ECB6
:1038800001F044E98B920001010E7B6F0001806B17
:1038900080C0E6FF45EC6CF041E97CC0E6FF5CECE3
:1038A00068F041E9AAEC03F0170EE66E8D0EE66EA5
:1038B000000EE66E4DEC71F043E922EF28F026ECA5
:1038C00028F001EBE6FF02EBE6FF03EBE6FF04EB7B
:1038D000E6FF570EE66E8A0EE66E000EE66E000EEE
:1038E000E66E020EE66E7DEC70F049E9010EE66EC2
:1038F000E66AA0C0E6FFB7EC00F043E98A0EE66E88
:10390000910EE66E000EE66E000EE66E020EE66E9C
:103910007DEC70F045E9020E00017C5D2FE00501B1
:1039200006512BE031C6E6FF32C6E6FF33C6E6FF9E
:1039300034C6E6FF0A0EE66EE66A2AC5E6FF2BC528
:10394000E6FF00EC61F00A0EE66EE66A3AC5E6FFB5
:103950003BC5E6FF00EC61F010C5E6FF11C5E6FFD0
:10396000E60EE66E8A0EE66E000EE66E000EE66E5F
:10397000020EE66E7DEC70F04FE92ED00501065187
:103980002BE031C6E6FF32C6E6FF33C6E6FF34C69B
:10399000E6FF0A0EE66EE66A2AC5E6FF2BC5E6FFDD
:1039A00000EC61F00A0EE66EE66A3AC5E6FF3BC53A
:1039B000E6FF00EC61F010C5E6FF11C5E6FFBE0EA4
:1039C000E66E8A0EE66E000EE66E000EE66E020EE3
:1039D000E66E7DEC70F04FE9010EE66E010EE66ECC
:1039E000E66AB7EC00F043E98A0EE66E910EE66EE9
:1039F000000EE66E000EE66E020EE66E7DEC70F0D6
:103A000045E9050146512BE035C6E6FF36C6E6FF1F
:103A100037C6E6FF38C6E6FF0A0EE66EE66A6AC5F6
:103A2000E6FF6BC5E6FF00EC61F00A0EE66EE66AA3
:103A30007AC5E6FF7BC5E6FF00EC61F050C5E6FF06
:103A400051C5E6FF960EE66E8A0EE66E000EE66E35
:103A5000000EE66E020EE66E7DEC70F04FE9010E90
:103A6000E66E020EE66EE66AB7EC00F043E98A0EF7
:103A7000E66E910EE66E000EE66E000EE66E020E2B
:103A8000E66E7DEC70F045E9050186512BE039C604
:103A9000E6FF3AC6E6FF3BC6E6FF3CC6E6FF0A0E77
:103AA000E66EE66AAAC5E6FFABC5E6FF00EC61F08C
:103AB0000A0EE66EE66ABAC5E6FFBBC5E6FF00EC95
:103AC00061F090C5E6FF91C5E6FF6E0EE66E8A0EC8
:103AD000E66E000EE66E000EE66E020EE66E7DEC01
:103AE00070F04FE9010EE66E030EE66EE66AB7EC83
:103AF00000F043E9D950010FE96EDACFEAFFEE2A70
:103B0000000EEE22EE22EE22E66A05EBE6FF06EB61
:103B1000E6FF07EBE6FF08EBE6FF55EC02F045E9B0
:103B2000000904E11050111001E198D5AEEF21F029
:103B30000401296B2A6B2B6B2C6B04012951096E34
:103B40002A510A6E2B510B6E2C510C6E42EC6CF00C
:103B5000140EE66EE66AE66AE66A56EC01F044E99F
:103B6000016A026A036A046ADE0E015C030E0258EF
:103B7000000E0358000E045801E3E5D001EBE6FF08
:103B800002EBE6FF03EBE6FF04EBE6FF570EE66E03
:103B90008A0EE66E000EE66E000EE66E020EE66E11
:103BA0007DEC70F049E9010EE66EE66AA0C0E6FF22
:103BB000B7EC00F043E98A0EE66E910EE66E000E59
:103BC000E66E000EE66E020EE66E7DEC70F045E9E4
:103BD0000501065115E029C4E6FF2AC4E6FF2BC4FF
:103BE000E6FF2CC4E6FF350EE66E8A0EE66E000E8A
:103BF000E66E000EE66E020EE66E7DEC70F049E9B0
:103C0000010EE66E010EE66EE66AB7EC00F043E9DF
:103C10008A0EE66E910EE66E000EE66E000EE66E01
:103C2000020EE66E7DEC70F045E9010EE66E020EC6
:103C3000E66EE66AB7EC00F043E9010EE66E030EAD
:103C4000E66EE66AB7EC00F043E9010EE66EE66A5E
:103C5000E66AE66A56EC01F044E9190EE66EE66A99
:103C6000E66AE66A01EBE6FF02EBE6FF03EBE6FF3E
:103C700004EBE6FFA9EC61F0E552E5CF03F0E5CFF8
:103C800002F0E5CF01F0E7CF00F000010051011193
:103C9000021103111CE109500401291908E10A501D
:103CA0002A1905E10B502B1902E10C502C1906E1E1
:103CB000E80E016E030E026E036A046A04012951C4
:103CC000096E2A510A6E2B510B6E2C510C6E060197
:103CD00000A52ED03FEC6CF0010EE66E98EC13F0D0
:103CE00041E9BEEC5EF0060EE66EE66AE66AE66A5A
:103CF00056EC01F044E98B920001010E7B6F00014C
:103D0000806B80C0E6FF45EC6CF041E97CC0E6FFCB
:103D10005CEC68F041E9AAEC03F0170EE66E8D0E3C
:103D2000E66E000EE66E4DEC71F043E922EF28F0EE
:103D3000D950010FE96EDACFEAFFEE2A000EEE222B
:103D4000EE22EE2211D73FEC6CF0060EE66EE66A2C
:103D5000E66AE66A56EC01F044E935EC6CF0010ED7
:103D6000E66EE66AE66AE66A56EC01F044E90401AA
:103D7000296B2A6B2B6B2C6B04012951096E2A517C
:103D80000A6E2B510B6E2C510C6E42EC6CF0140E23
:103D9000E66EE66AE66AE66A56EC01F044E9016A14
:103DA000026A036A046ADE0E015C030E0258000E0A
:103DB0000358000E045801E3E5D001EBE6FF02EBE7
:103DC000E6FF03EBE6FF04EBE6FF0E0EE66E8B0E5E
:103DD000E66E000EE66E000EE66E020EE66E7DECFE
:103DE00070F049E9010EE66EE66AA0C0E6FFB7ECA6
:103DF00000F043E98A0EE66E910EE66E000EE66E66
:103E0000000EE66E020EE66E7DEC70F045E90501EF
:103E1000065115E029C4E6FF2AC4E6FF2BC4E6FFDD
:103E20002CC4E6FF350EE66E8A0EE66E000EE66ED8
:103E3000000EE66E020EE66E7DEC70F049E9010EB2
:103E4000E66E010EE66EE66AB7EC00F043E98A0E14
:103E5000E66E910EE66E000EE66E000EE66E020E47
:103E6000E66E7DEC70F045E9010EE66E020EE66E40
:103E7000E66AB7EC00F043E9010EE66E030EE66E6B
:103E8000E66AB7EC00F043E9010EE66EE66AE66A20
:103E9000E66A56EC01F044E9190EE66EE66AE66A57
:103EA000E66A01EBE6FF02EBE6FF03EBE6FF04EB5D
:103EB000E6FFA9EC61F0E552E5CF03F0E5CF02F0B3
:103EC000E5CF01F0E7CF00F0000100510111021130
:103ED00003111CE109500401291908E10A502A19AB
:103EE00005E10B502B1902E10C502C1906E1E80EEC
:103EF000016E030E026E036A046A04012951096E01
:103F00002A510A6E2B510B6E2C510C6E060100A526
:103F10002ED03FEC6CF0010EE66E98EC13F041E908
:103F2000BEEC5EF0060EE66EE66AE66AE66A56ECFF
:103F300001F044E98B920001010E7B6F0001806B60
:103F400080C0E6FF45EC6CF041E97CC0E6FF5CEC2C
:103F500068F041E9AAEC03F0170EE66E8D0EE66EEE
:103F6000000EE66E4DEC71F043E922EF28F0D950D7
:103F7000010FE96EDACFEAFFEE2A000EEE22EE2202
:103F8000EE2211D729C435F42AC436F42BC437F4F1
:103F90002CC438F43FEC6CF000017B6B0001806BAB
:103FA0000A0EE66ED70EE66E230EE66E3C0EE66E49
:103FB00035C4E6FF36C4E6FF37C4E6FF38C4E6FF83
:103FC0003DEC60F06AEC63F0A5EC60F0E552E5CF03
:103FD00013F4E5CF12F4E5CF11F4E7CF10F46AEC57
:103FE0000BF0FA0EE66E7E0EE66E2A0EE66E3F0EC1
:103FF000E66E35C4E6FF36C4E6FF37C4E6FF38C4D4
:10400000E6FF3DEC60F06AEC63F0A5EC60F0E55291
:10401000E5CF13F4E5CF12F4E5CF11F4E7CF10F4B8
:10402000290EE96E040EEA6EEE500401105D0001E7
:10403000006FEE50040111590001016FEE500401B0
:1040400012590001026FEE50040113590001036F71
:104050000001DC51400DF3CFE9FFF4CFEAFF000E81
:10406000E926050EEA220F0EE926000EEA22050EC9
:10407000E926000EEA2200C0EEFF01C0EDFF6AEC67
:104080000BF0FA0EE66E7E0EE66EAA0EE66E3E0EA1
:10409000E66E35C4E6FF36C4E6FF37C4E6FF38C433
:1040A000E6FF3DEC60F06AEC63F0A5EC60F0E552F1
:1040B000E5CF13F4E5CF12F4E5CF11F4E7CF10F418
:1040C000290EE96E040EEA6EEE500401105D000147
:1040D000006FEE50040111590001016FEE50040110
:1040E00012590001026FEE50040113590001036FD1
:1040F0000001DC51400DF3CFE9FFF4CFEAFF000EE1
:10410000E926050EEA220F0EE926000EEA22050E28
:10411000E926000EEA2200C0EEFF01C0EDFF6AECC6
:104120000BF0660EE66E660EE66E660EE66E3F0EEF
:10413000E66E35C4E6FF36C4E6FF37C4E6FF38C492
:10414000E6FF3DEC60F06AEC63F0A5EC60F0E55250
:10415000E5CF13F4E5CF12F4E5CF11F4E7CF10F477
:10416000290EE96E040EEA6EEE500401105D0001A6
:10417000006FEE50040111590001016FEE5004016F
:1041800012590001026FEE50040113590001036F30
:104190000001DC51400DF3CFE9FFF4CFEAFF000E40
:1041A000E926050EEA220F0EE926000EEA22050E88
:1041B000E926000EEA2200C0EEFF01C0EDFF6AEC26
:1041C0000BF0CD0EE66ECC0EE66ECC0EE66E3D0E1E
:1041D000E66E35C4E6FF36C4E6FF37C4E6FF38C4F2
:1041E000E6FF3DEC60F06AEC63F0A5EC60F0E552B0
:1041F000E5CF13F4E5CF12F4E5CF11F4E7CF10F4D7
:10420000290EE96E040EEA6EEE500401105D000105
:10421000006FEE50040111590001016FEE500401CE
:1042200012590001026FEE50040113590001036F8F
:104230000001DC51400DF3CFE9FFF4CFEAFF000E9F
:10424000E926050EEA220F0EE926000EEA22050EE7
:10425000E926000EEA2200C0EEFF01C0EDFF6AEC85
:104260000BF0E66AE66AE66A3F0EE66E35C4E6FFE4
:1042700036C4E6FF37C4E6FF38C4E6FF3DEC60F025
:104280006AEC63F0A5EC60F0E552E5CF13F4E5CFFE
:1042900012F4E5CF11F4E7CF10F4290EE96E040E05
:1042A000EA6EEE500401105D0001006FEE50040153
:1042B00011590001016FEE50040112590001026F03
:1042C000EE50040113590001036F0001DC51400D51
:1042D000F3CFE9FFF4CFEAFF000EE926050EEA224C
:1042E0000F0EE926000EEA22050EE926000EEA224C
:1042F00000C0EEFF01C0EDFF6AEC0BF0016A026A3C
:10430000036A046A030E015C000E0258000E035893
:10431000000E045823E201EBE9FF02EBEAFF060E70
:10432000D890E936EA36E806FBE1000EE926050EEC
:10433000EA220F0EE926000EEA22210EE926000EDF
:10434000EA22EE6AED6AD950010FE96EDACFEAFF90
:10435000EE2A000EEE22EE22EE22D4D7016A026A85
:10436000036A046A030E015C000E0258000E035833
:10437000000E045802E3C0EF26F001EBE9FF02EB68
:10438000EAFF060ED890E936EA36E806FBE1000EB1
:10439000E926050EEA22060EE926000EEA22EF5073
:1043A00001E157D101EBE9FF02EBEAFF060ED890DD
:1043B000E936EA36E806FBE1000EE926050EEA22B8
:1043C0000F0EE926000EEA22090EE926000EEA2267
:1043D000EECF00F0EFCF01F001EBE9FF02EBEAFFD7
:1043E000060ED890E936EA36E806FBE1000EE9262B
:1043F000050EEA220F0EE926000EEA220B0EE92630
:10440000000EEA22EECF02F0EFCF03F000010135FB
:1044100001510001031908E6000100510001025D8D
:10442000000101510001035919E201EBE9FF02EB20
:10443000EAFF060ED890E936EA36E806FBE1000E00
:10444000E926050EEA220F0EE926000EEA22210EC9
:10445000E926000EEA22010EEE6EED6A01EBE9FF9D
:1044600002EBEAFF060ED890E936EA36E806FBE1F1
:10447000000EE926050EEA220F0EE926000EEA22BA
:104480001B0EE926000EEA22EECF00F0EFCF01F07E
:1044900001EBE9FF02EBEAFF060ED890E936EA36B7
:1044A000E806FBE1000EE926050EEA220F0EE926DA
:1044B000000EEA220D0EE926000EEA22EECF02F0EF
:1044C000EFCF03F00001033503510001011908E6A5
:1044D000000102510001005D00010351000101597A
:1044E00019E201EBE9FF02EBEAFF060ED890E9368C
:1044F000EA36E806FBE1000EE926050EEA220F0E79
:10450000E926000EEA22210EE926000EEA22010E1B
:10451000EE6EED6A01EBE9FF02EBEAFF060ED890C2
:10452000E936EA36E806FBE1000EE926050EEA2246
:104530000F0EE926000EEA22190EE926000EEA22E5
:10454000EECF00F0EFCF01F001EBE9FF02EBEAFF65
:10455000060ED890E936EA36E806FBE1000EE926B9
:10456000050EEA220F0EE926000EEA22110EE926B8
:10457000000EEA22EECF02F0EFCF03F00001033588
:1045800003510001011908E6000102510001005D1C
:10459000000103510001015943E301EBE9FF02EB84
:1045A000EAFF060ED890E936EA36E806FBE1000E8F
:1045B000E926050EEA220F0EE926000EEA22190E60
:1045C000E926000EEA22EECF04F0EFCF05F001EB72
:1045D000E9FF02EBEAFF060ED890E936EA36E80674
:1045E000FBE1000EE926050EEA220F0EE926000E79
:1045F000EA22130EE926000EEA22EECF06F0EFCFF4
:1046000007F00001053505510001071908E6000112
:1046100004510001065D000105510001075919E22E
:1046200001EBE9FF02EBEAFF060ED890E936EA3625
:10463000E806FBE1000EE926050EEA220F0EE92648
:10464000000EEA22210EE926000EEA22010EEE6E8D
:10465000ED6A01EBE9FF02EBEAFF060ED890E936BE
:10466000EA36E806FBE1000EE926050EEA220F0E07
:10467000E926000EEA22210EE926000EEA22EE507B
:10468000ED1001E0AFD101EBE9FF02EBEAFF060E0E
:10469000D890E936EA36E806FBE1000EE926050E79
:1046A000EA220F0EE926000EEA221D0EE926000E70
:1046B000EA22010EEE6EED6A01EBE9FF02EBEAFF82
:1046C000060ED890E936EA36E806FBE1000EE92648
:1046D000050EEA220F0EE926000EEA221F0EE92639
:1046E000000EEA22010EEE6EED6A01EBE9FF02EB2D
:1046F000EAFF060ED890E936EA36E806FBE1000E3E
:10470000E926050EEA220D0EE926000EEA22EECF7A
:1047100000F0EFCF01F001EBE9FF02EBEAFF060E3C
:10472000D890E936EA36E806FBE1000EE926050EE8
:10473000EA220F0EE926000EEA222D0EE926000ECF
:10474000EA2200C0EEFF01C0EDFF01EBE9FF02EB42
:10475000EAFF060ED890E936EA36E806FBE1000EDD
:10476000E926050EEA22060EE926000EEA22EF509F
:1047700001E137D1020E00017C5D04E0580E0124F6
:104780000D6E02D0410E0D6EAAEC03F00DEB00F0A1
:104790000001016B00BF016900C0E6FF01C0E6FF38
:1047A000090EE66E8A0EE66E000EE66E000EE66EEE
:1047B000020EE66E7DEC70F047E9000EE66E020E2A
:1047C000E66EA2EC71F042E901EBE9FF02EBEAFFD1
:1047D000060ED890E936EA36E806FBE1000EE92637
:1047E000050EEA220F0EE926000EEA220B0EE9263C
:1047F000000EEA22EECFE6FFEECFE6FF01EBE9FF87
:1048000002EBEAFF060ED890E936EA36E806FBE14D
:10481000000EE926050EEA220F0EE926000EEA2216
:10482000090EE926000EEA22EECFE6FFEECFE6FF04
:10483000F20EE66E890EE66E000EE66E000EE66E75
:10484000020EE66E7DEC70F049E9000EE66E020E97
:10485000E66EA2EC71F042E9B90EE66E990EE66ED4
:10486000000EE66E4DEC71F043E901EBE9FF02EB5F
:10487000EAFF060ED890E936EA36E806FBE1000EBC
:10488000E926050EEA220F0EE926000EEA220D0E99
:10489000E926000EEA22EECFE6FFEECFE6FF01EBBF
:1048A000E9FF02EBEAFF060ED890E936EA36E806A1
:1048B000FBE1000EE926050EEA220F0EE926000EA6
:1048C000EA221B0EE926000EEA22EECFE6FFEECF2B
:1048D000E6FFDB0EE66E890EE66E000EE66E000E5B
:1048E000E66E020EE66E7DEC70F049E9000EE66EB3
:1048F000020EE66EA2EC71F042E9B90EE66E990E78
:10490000E66E000EE66E4DEC71F043E901EBE9FF57
:1049100002EBEAFF060ED890E936EA36E806FBE13C
:10492000000EE926050EEA220F0EE926000EEA2205
:10493000130EE926000EEA22EECFE6FFEECFE6FFE9
:1049400001EBE9FF02EBEAFF060ED890E936EA3602
:10495000E806FBE1000EE926050EEA220F0EE92625
:10496000000EEA22110EE926000EEA22EECFE6FF43
:10497000EECFE6FF01EBE9FF02EBEAFF060ED8906F
:10498000E936EA36E806FBE1000EE926050EEA22E2
:104990000F0EE926000EEA22190EE926000EEA2281
:1049A000EECFE6FFEECFE6FFC40EE66E890EE66EB2
:1049B000000EE66E000EE66E020EE66E7DEC70F006
:1049C0004BE9000EE66E020EE66EA2EC71F042E9D3
:1049D000B90EE66E990EE66E000EE66E4DEC71F0C5
:1049E00043E9C2D101EBE9FF02EBEAFF060ED890E2
:1049F000E936EA36E806FBE1000EE926050EEA2272
:104A0000060EE926000EEA22EF5001E1ADD10601C3
:104A10000095020E00017C5D04E0580E01240D6E2D
:104A200002D0410E0D6EAAEC03F0B20EE66E990EA6
:104A3000E66E000EE66E4DEC71F043E90DEB00F012
:104A40000001016B00BF016900C0E6FF01C0E6FF85
:104A5000AE0EE66E890EE66E000EE66E000EE66E97
:104A6000020EE66E7DEC70F047E9010EE66EE66A36
:104A7000A0C0E6FFB7EC00F043E9000EE66E020EC0
:104A8000E66EA2EC71F042E9B90EE66E990EE66EA2
:104A9000000EE66E4DEC71F043E901EBE9FF02EB2D
:104AA000EAFF060ED890E936EA36E806FBE1000E8A
:104AB000E926050EEA220F0EE926000EEA220B0E69
:104AC000E926000EEA22EECFE6FFEECFE6FF01EB8D
:104AD000E9FF02EBEAFF060ED890E936EA36E8066F
:104AE000FBE1000EE926050EEA220F0EE926000E74
:104AF000EA22090EE926000EEA22EECFE6FFEECF0B
:104B0000E6FF970EE66E890EE66E000EE66E000E6C
:104B1000E66E020EE66E7DEC70F049E9010EE66E7F
:104B2000010EE66EE66AB7EC00F043E9000EE66EB1
:104B3000020EE66EA2EC71F042E9B90EE66E990E35
:104B4000E66E000EE66E4DEC71F043E901EBE9FF15
:104B500002EBEAFF060ED890E936EA36E806FBE1FA
:104B6000000EE926050EEA220F0EE926000EEA22C3
:104B70000D0EE926000EEA22EECFE6FFEECFE6FFAD
:104B800001EBE9FF02EBEAFF060ED890E936EA36C0
:104B9000E806FBE1000EE926050EEA220F0EE926E3
:104BA000000EEA221B0EE926000EEA22EECFE6FFF7
:104BB000EECFE6FF800EE66E890EE66E000EE66E24
:104BC000000EE66E020EE66E7DEC70F049E9010E15
:104BD000E66E020EE66EE66AB7EC00F043E9000E00
:104BE000E66E020EE66EA2EC71F042E9B90EE66ED8
:104BF000990EE66E000EE66E4DEC71F043E901EBA6
:104C0000E9FF02EBEAFF060ED890E936EA36E8063D
:104C1000FBE1000EE926050EEA220F0EE926000E42
:104C2000EA22130EE926000EEA22EECFE6FFEECFCF
:104C3000E6FF01EBE9FF02EBEAFF060ED890E9364A
:104C4000EA36E806FBE1000EE926050EEA220F0E21
:104C5000E926000EEA22110EE926000EEA22EECF26
:104C6000E6FFEECFE6FF01EBE9FF02EBEAFF060EFF
:104C7000D890E936EA36E806FBE1000EE926050E93
:104C8000EA220F0EE926000EEA22190EE926000E8E
:104C9000EA22EECFE6FFEECFE6FFC40EE66E890E07
:104CA000E66E000EE66E000EE66E020EE66E7DEC1F
:104CB00070F04BE9010EE66E030EE66EE66AB7ECA5
:104CC00000F043E9000EE66E020EE66EA2EC71F013
:104CD00042E9B90EE66E990EE66E000EE66E4DECF8
:104CE00071F043E9010EE66E010EE66E59EC6CF0D0
:104CF00042E9020E00017C5D04E0580E01240D6EB5
:104D000002D0410E0D6EAAEC03F00DEB00F0000195
:104D1000016B00BF016900C0E6FF01C0E6FF540E51
:104D2000E66E890EE66E000EE66E000EE66E020E70
:104D3000E66E7DEC70F047E9000EE66E020EE66E60
:104D4000A2EC71F042E9020EE66EC8EC5EF041E9B9
:104D50000400060100A5F7D7E66A010EE66E59ECDD
:104D60006CF042E9BEEC5EF0D950010FE96EDACF8B
:104D7000EAFFEE2A000EEE22EE22EE22B2EF21F042
:104D80003FEC6CF0060EE66EE66AE66AE66A56EC02
:104D900001F044E98B9200017B6B0001806BBEEC5B
:104DA0005EF00001865101E032D1016A026A036AB5
:104DB000046A050EE66EC8EC5EF041E93F0EE66E51
:104DC000890EE66E000EE66E000EE66E020EE66ED0
:104DD0007DEC70F045E9010EE66EE66AA0C0E6FFE4
:104DE000B7EC00F043E9060100A59AD08F80AAEC49
:104DF00003F0210EE66E890EE66E000EE66E000EE2
:104E0000E66E020EE66E7DEC70F045E9000EE66E91
:104E1000020EE66EA2EC71F042E9010EE66EE66A61
:104E2000A0C0E6FFB7EC00F043E9060EE66EE66AC6
:104E3000E66AE66A56EC01F044E9BEEC5EF08A0EE2
:104E4000E66E910EE66E000EE66E000EE66E020E47
:104E5000E66E7DEC70F045E9010EE66E010EE66E41
:104E6000E66AB7EC00F043E98A0EE66E910EE66E54
:104E7000000EE66E000EE66E020EE66E7DEC70F041
:104E800045E9010EE66E020EE66EE66AB7EC00F04A
:104E900043E98A0EE66E910EE66E000EE66E000E97
:104EA000E66E020EE66E7DEC70F045E9010EE66EF0
:104EB000030EE66EE66AB7EC00F043E9020EE66E1A
:104EC0008EEC10F041E9AAEC03F0040EE66E890EB8
:104ED000E66E000EE66E000EE66E020EE66E7DECED
:104EE00070F045E9000EE66E020EE66EA2EC71F07F
:104EF00042E9010EE66EE66AA0C0E6FFB7EC00F0FC
:104F000043E9060EE66EE66AE66AE66A56EC01F0EA
:104F100044E9A00E016E860E026E010E036E046A55
:104F20000400060106010051040B1DE1D950010FD8
:104F3000E96EDACFEAFFEFCF00F0EE2A000EEFCFF6
:104F400001F0EE22EFCF02F0EE22EFCF03F0EF22DE
:104F5000E80E0001005D030E0159000E0259000E1B
:104F6000035901E22BD7E60EE66E880EE66E000EC0
:104F7000E66E000EE66E020EE66E7DEC70F045E920
:104F8000010EE66EE66AE66AB7EC00F043E98A0EC7
:104F9000E66E910EE66E000EE66E000EE66E020EF6
:104FA000E66E7DEC70F045E9010EE66E010EE66EF0
:104FB000E66AB7EC00F043E98A0EE66E910EE66E03
:104FC000000EE66E000EE66E020EE66E7DEC70F0F0
:104FD00045E9010EE66E020EE66EE66AB7EC00F0F9
:104FE00043E98A0EE66E910EE66E000EE66E000E46
:104FF000E66E020EE66E7DEC70F045E9010EE66E9F
:10500000030EE66EE66AB7EC00F043E900D000015B
:105010007B6B0001806B060EE66EE66AE66AE66A66
:1050200056EC01F044E9BEEC5EF0C4EC13F0AAECDF
:1050300003F0680EE66E8B0EE66E000EE66E4DEC2B
:1050400071F043E952E9E7CFD9FF1200F2EC33F0F7
:1050500000018C5151E0EAC4E6FFEBC4E6FFE8C46E
:10506000E6FFE9C4E6FFE6C4E6FFE7C4E6FFA7EC17
:1050700031F0B9EC31F095EC31F0B10EE66E880EFE
:10508000E66E000E67EC2CF09EEC2FF0B0EC31F0E9
:10509000C2EC31F09EEC31F08E0EE66E880EE66EBC
:1050A000000E67EC2CF051E945EC30F098C5E6FFB6
:1050B00099C5E6FF92C5E6FF93C5E6FF23EC33F002
:1050C00058C5E6FF59C5E6FF52C5E6FF53C5E6FFE2
:1050D00089EC2EF018C5E6FF19C5E6FF12C5E6FFFC
:1050E00013C5E6FFE0EC32F0500EE66E880EE66E79
:1050F000000EEDDB9EEC2FF012000501C80EC26F12
:10510000F9EC2DF0B2EC2FF027E02B0EE66EB1ECAF
:105110006FF041E9B2EC2FF0FDE1F9EC2DF02B0E30
:10512000E66EB1EC6FF041E9B2EC2FF0FDE10C0E50
:10513000E66E2DEC72F041E9B2EC2FF0FDE1010ECC
:10514000E66E2DEC72F041E9F9EC2DF00001010E54
:10515000F66F0501180EC26F12000001806B120E6F
:10516000E66E220EE66E9FEC6EF042E93B0EE66EB6
:10517000880EE66E000EE66E000EE66E020EE66E1D
:105180007DEC70F045E9010EE66EE66AE66AB7EC82
:1051900000F043E9010EE66E010EE66EE66AB7EC3A
:1051A00000F043E9010EE66E020EE66EE66AB7EC29
:1051B00000F043E9010EE66E030EE66EE66AB7EC18
:1051C00000F043E9120EE66E220EE66E50EC6FF030
:1051D00042E98F9092DF8B68FCAE15D0FC9EB90E31
:1051E000E66E990EE66E000EE66E4DEC71F043E948
:1051F000AAEC03F0160EE66E880EE66E000EE66E62
:105200004DEC71F043E9FCAC15D0FC9CB90EE66E98
:10521000990EE66E000EE66E4DEC71F043E9AAECD5
:1052200003F0EC0EE66E870EE66E000EE66E4DECB9
:1052300071F043E90001735114E0B90EE66E990E66
:10524000E66E000EE66E4DEC71F043E9AAEC03F059
:10525000C30EE66E870EE66E000EE66E4DEC71F044
:1052600043E90001745114E0B90EE66E990EE66E42
:10527000000EE66E4DEC71F043E9AAEC03F09A0ED5
:10528000E66E870EE66E000EE66E4DEC71F043E9B9
:10529000140EE66EE66A820EE66E870EE66E000E6D
:1052A000E66E000EE66E020EE66E6BEC6EF047E9FF
:1052B000010EE66EE66AE66AB7EC00F043E9B40E6A
:1052C000E66E990EE66E000EE66E4DEC71F043E967
:1052D000140EE66EE66A9DC0E6FF9EC0E6FF9FC024
:1052E000E6FF000EE66E020EE66E6BEC6EF047E92E
:1052F000010EE66E010EE66EE66AB7EC00F043E9D9
:10530000000EE66E020EE66EA2EC71F042E9B20EFD
:10531000E66E990EE66E000EE66E4DEC71F043E916
:10532000140EE66EE66A9AC0E6FF9BC0E6FF9CC0DC
:10533000E6FF000EE66E020EE66E6BEC6EF047E9DD
:10534000000EE66E020EE66EA2EC71F042E9010E6E
:10535000E66E020EE66EE66AB7EC00F043E9140E64
:10536000E66EE66A9C0EE66E990EE66E000EE66E3E
:10537000000EE66E020EE66E6BEC6EF047E9000E74
:10538000E66E020EE66EA2EC71F042E9B90EE66E30
:10539000990EE66E000EE66E4DEC71F043E9010EDB
:1053A000E66E030EE66EE66AB7EC00F043E9AAEC9F
:1053B00003F0630EE66E870EE66E000EE66E4DECB1
:1053C00071F043E983A20CD00001010E8C6F4B0EEB
:1053D000E66E870EE66E000EE66E4DEC71F043E968
:1053E00083A039D0AAEC03F0320EE66E870EE66E8B
:1053F000000EE66E4DEC71F043E9000EE66EE66AD3
:10540000000EE66EE66A010EE66EE66A7BEC6DF073
:1054100046E9AAEC03F0150EE66E870EE66E000E66
:10542000E66E4DEC71F043E90501F46B0F0E0501DA
:10543000F45D11E2080EE66EE66A0501F451E66ECF
:10544000E66A0F0EE66E7F0EE66E7BEC6DF046E9C7
:105450000501F42BEBD7AAEC03F0F50EE66E860EF1
:10546000E66E000EE66E4DEC71F043E9000EE66E5E
:10547000E66A000EE66EE66AADEC6DF044E95908A6
:105480000CE1000EE66EE66A020EE66EE66AADEC30
:105490006DF044E90501F36F22D0AAEC03F0D20EBF
:1054A000E66E860EE66E000EE66E4DEC71F043E998
:1054B000000EE66EE66A000EE66EE66A010EE66E25
:1054C000E66A7BEC6DF046E9AAEC03F0B20EE66EFC
:1054D000860EE66E000EE66E4DEC71F043E9AAEC26
:1054E00003F0990EE66E860EE66E000EE66E4DEC4B
:1054F00071F043E9080EE66EE66A000EE66EE66AB3
:10550000ADEC6DF044E959081FE10501F46B0F0E95
:105510000501F45D18E20501F451E66EE66A0A0E33
:10552000E66EE66AADEC6DF044E9E66E0501F45115
:10553000EA6AE50FE96E000EEA22E552E750EF6EE7
:105540000501F42BE4D734D0AAEC03F07D0EE66E0F
:10555000860EE66E000EE66E4DEC71F043E9050135
:10556000F46B0F0E0501F45D18E2080EE66EE66AB4
:105570000501F451E66EE66A0F0EE66E0501F45180
:10558000EA6AE50FE96E000EEA22EFCFE6FF7BEC58
:105590006DF046E90501F42BE4D7AAEC03F0640EA4
:1055A000E66E860EE66E000EE66E4DEC71F043E997
:1055B00083A403D04EEC0AF0FFD782EC41F0AAECB2
:1055C00003F04B0EE66E860EE66E000EE66E4DECB8
:1055D00071F043E9050EE66EE66AE66AE66A56ECA5
:1055E00001F044E9F2EC33F083A00BD0AAEC03F015
:1055F000350EE66E860EE66E000EE66E4DEC71F030
:1056000043E983A60ED0AAEC03F0180EE66E860ED0
:10561000E66E000EE66E4DEC71F043E900010F0EF0
:10562000F76F740EE66E030EE66E05C6E6FF06C65D
:10563000E6FF07C6E6FF08C6E6FFEFEC07F046E91F
:105640007B0EE66E030EE66E09C6E6FF0AC6E6FFAF
:105650000BC6E6FF0CC6E6FFEFEC07F046E97B0E53
:10566000E66E030EE66E740EE66E030EE66EFF0E39
:10567000E66E850EE66E000EE66E000EE66E020E1B
:10568000E66E7DEC70F049E9010EE66EE66AE66AC8
:10569000B7EC00F043E98350010BE66EE66A8350F5
:1056A000020B01E0010EE66EE66A8350040B01E096
:1056B000010EE66EE66A8350080B01E0010EE66E0D
:1056C000E66A8350100B01E0010EE66EE66A835035
:1056D000200B01E0010EE66EE66A8350400B01E00C
:1056E000010EE66EE66A8350800B01E0010EE66E65
:1056F000E66AD60EE66E850EE66E000EE66E000ECB
:10570000E66E020EE66E7DEC70F055E9010EE66E77
:10571000010EE66EE66AB7EC00F043E9AAEC03F08E
:10572000000EE66E020EE66EA2EC71F042E92BEC82
:1057300003F0050EE66EE66AE66AE66A56EC01F0EC
:1057400044E9F2EC33F005C6E6FF06C6E6FFB4EC2A
:1057500072F042E960EC6FF08B6A0001846B00012B
:10576000886B00017A6B00017C51E66EE66AE7EC1B
:105770000DF042E97CC0E6FF5CEC68F041E9000115
:10578000010E676F740EE66E030EE66E05C6E6FF49
:1057900006C6E6FF07C6E6FF08C6E6FFEFEC07F021
:1057A00046E97B0EE66E030EE66E09C6E6FF0AC604
:1057B000E6FF0BC6E6FF0CC6E6FFEFEC07F046E996
:1057C00010C4E6FF11C4E6FF12C4E6FF13C4E6FFEF
:1057D00000C4E6FF01C4E6FF02C4E6FF03C4E6FF1F
:1057E0007B0EE66E030EE66E740EE66E030EE66E3C
:1057F000B50EE66E850EE66E000EE66E000EE66EE7
:10580000020EE66E7DEC70F051E9010EE66EE66A7E
:10581000E66AB7EC00F043E9AAEC03F0000EE66E8E
:10582000020EE66EA2EC71F042E92BEC03F0280EBA
:10583000E66ECDEC5EF041E9050EE66EE66AE66ADC
:10584000E66A56EC01F044E92FEC0BF0010EE66E2F
:10585000010EE66EE66AE66AE66A90EC02F045E959
:10586000F2EC33F030EC6CF0000905E0000165511A
:1058700002E082EC41F04AEC11F004000001815199
:1058800012E0D9EC13F0A7EC0EF00401D56FD50EA1
:10589000E66E040EE66EE7EC0DF042E9D5C4E6FFD5
:1058A000BEEC0AF041E904000EEC01F06AEC0BF0EA
:1058B0000001835102E00001A26BD2D71200400D1B
:1058C00028EC33F0000EE926050EEA221200E66EFF
:1058D000D3EC32F07DEF70F0D2DBD7DBB90EE66EA1
:1058E000990EE66E000EE66E4DEF71F0ACEC30F006
:1058F00099EC30F019EC63F0E552E5CF07F0E5CF15
:1059000006F0E5CF05F0E7CF04F000010451005D9B
:105910000001E16F0001055101590001E26F000132
:10592000065102590001E36F0001075103590001BC
:10593000E46F12003CEC33F0050E4DEF32F018C569
:10594000E6FF19C5E6FFADEC32F02AC5E6FF2BC530
:10595000E6FFC1EC30F028C5E6FF29C5E6FF00EF01
:1059600061F058C5E6FF59C5E6FFADEC32F06AC5F7
:10597000E6FF6BC5E6FFC1EC30F068C5E6FF69C520
:10598000E6FF00EF61F0ECEC61F0E552E5CFC6F028
:10599000E5CFC5F0E5CFC4F0E7CFC3F0CBEC31F0F5
:1059A000F7EF30F0400DF3CF00F0F4CF01F0000E30
:1059B00000010027050E0123D4EC31F0D6EC6AF08B
:1059C00042E9120098C5E6FF99C5E6FFADEC32F05A
:1059D000AAC5E6FFABC5E6FFD4DBA8C5E6FFA9C5AF
:1059E000E6FF00EF61F08A0EE66E910EE66E000EA5
:1059F0001200E552E5CF03F0E5CF02F0E5CF01F06C
:105A0000E7CF00F0120063DBE552E5CF13F4E5CFFA
:105A100012F4E5CF11F4E7CF10F41200E3DBC5EF89
:105A200030F0BEEC07F044E9FCC300F0FDC301F028
:105A3000FEC302F0FFC303F0120047E945EF30F068
:105A4000D9CFE6FFE1CFD9FF12000501E151E12BEB
:105A5000E25D120095EC31F09EEF31F0FF51060D42
:105A600028EC33F0A00EE926030EEA22120041E9E9
:105A7000E7CFD9FF120060EC31F0D4EC31F0E66EE4
:105A8000D3EC32F06BEC6EF047E9120002EBE9FF69
:105A900003EBEAFFD890E936EA36D890E936EA36E1
:105AA000CA0EE926030EEA22120045E9B9EF32F0E8
:105AB000030EE66EF6EC6CF041E9120045E934EFB6
