:020000040000FA
:060000007AEF73F012001C
:020006001200E6
:060008009CEF57F012000E
:02000E00C250DE
:08001000020B01E0010E1200D9
:060018002EEF5EF0120065
:02001E000600DA
:1000200073E80000FC040000020000006FE800001C
:10003000FC01000004000000DAE7000000060000F8
:1000400095000000C8E70000EA040000120000006C
:10005000C6E70000FE0300000200000096E7000073
:08006000CE0300003000000097
:08006800CFEC2FF0E652FE0E72
:10007000DB50050802E2FE0EDB6AFD0EDB5003E0FA
:100080001CEC31F0EF6AFE0EDBCFD3F3FD0E036EF6
:100090009B0E046E000E59EC32F0140E9EEC31F003
:1000A00004EC34F0026E1CEC31F0EFCF09F00A6A78
:1000B0000B6A00500924F36E01500A20F46E0250BE
:1000C0000B20F86EF4CFF7FFF3CFF6FF0800F550E2
:1000D000DF6E1CEC31F0EF2AEFCF00F0016A026A0C
:1000E000B5EC31F0FD0E066E9B0E076E000E086E2D
:1000F000FE0EDBCF09F00A6A0B6A140E306E316A0D
:10010000326A09C02BF00AC02CF00BC02DF06CEC49
:1001100066F028C009F029C00AF02AC00BF006508A
:100120002824036E07502920046E08502A20056EEB
:1001300003C0E6FF04C0E6FFE66E04EC6DF036ECAB
:1001400033F0E7CF02F0E552E7CF01F0E552E7CF19
:1001500000F02B50005C2C5001582D50025803E346
:100160001CEC31F0EF6ADF50E552D4EF2FF0CFEC0A
:100170002FF0060192515CE0FC0EDB502AE0FD0EF0
:10018000DBCFE6FFFE0EDB50E552E7240301D46F20
:1001900018EC35F0BC0EE66E9A0EE66E000EE66EBA
:1001A0003FEC30F057EC6DF079EC32F018EC35F0B4
:1001B00071EC34F003013FEC30F029EC6DF0026E8D
:1001C000060EE15E02500301B5EC33F0140E3BEC79
:1001D00032F0FD0EDB50030A0CE0010A08E0030ACE
:1001E00004E0010A09E1E66A08D0400E03D0140ECB
:1001F00001D0540EE66E01D0E66A13EC71F0E552C0
:10020000FD0EDB5006013C250301D46F06010A51A7
:100210000FE04DEC32F0FDE103013FEC30F02AEC51
:1002200072F0E552E5524DEC32F0FDE1010E901610
:10023000D4EF2FF006010E5104E0A5EC42F00601C8
:100240000E6B125107E0126B945102E0000E01D0C8
:10025000010E946F155104E067EC12F00601156B66
:10026000085103E02CDB0601086B115104E0DFECC0
:1002700007F00601116B0F5103E043DB06010F6B22
:100280001200D9CFE6FFE1CFD9FF0501466B476BDE
:10029000486B496BD950FB0FE96EFF0EDA20EA6E0E
:1002A00005014651EE5C05014751EE5805014851E4
:1002B000EE5805014951EE5809E30000040005011C
:1002C000462B000E472348234923E4D7E552E7CFC6
:1002D000D9FF1200D9CFE6FFE1CFD9FF030EE66EBA
:1002E000C9EC6BF0E552E6C04AF5E7C04BF5E8C053
:1002F0004CF5E9C04DF516EC6CF0D950FB0FE96EEA
:10030000FF0EDA20EA6E05014A51EE240501526F14
:1003100005014B51EE200501536F05014C51EE20B4
:100320000501546F05014D51EE200501556F030E77
:10033000E66EC9EC6BF0E552E6C04EF5E7C04FF54E
:10034000E8C050F5E9C051F516EC6CF004004E0E13
:10035000E96E050EEA6E05015251EE5C050153513E
:10036000EE5805015451EE5805015551EE58DFE3A2
:10037000E552E7CFD9FF120095EC33F019E01BEC02
:1003800030F0E6C056F5E7C057F5E8C058F5E9C0CB
:1003900059F562EC30F005015651EE245E6F57516D
:1003A000EE205F6F5851EE20606F5951EE20616F63
:1003B0001BEC30F0E6C05AF5E7C05BF5E8C05CF531
:1003C000E9C05DF516EC6CF05A0EE96E050EEA6EAA
:1003D00005015E51EE5C5F51EE586051EE5861517F
:1003E000EE5802E2000E01D0010ED4EF2FF095EC92
:1003F00033F019E01BEC30F0E6C062F5E7C063F5BE
:10040000E8C064F5E9C065F562EC30F005016251C1
:10041000EE246A6F6351EE206B6F6451EE206C6FB7
:100420006551EE206D6F1BEC30F0E6C066F5E7C05D
:1004300067F5E8C068F5E9C069F516EC6CF0660E82
:10044000E96E050EEA6E05016A51EE5C6B51EE58DD
:100450006C51EE586D51EE5802E2000E01D0010EC3
:10046000D4EF2FF095EC33F019E01BEC30F0E6C040
:100470006EF5E7C06FF5E8C070F5E9C071F562ECA4
:1004800030F005016E51EE24766F6F51EE20776FDC
:100490007051EE20786F7151EE20796F1BEC30F0C7
:1004A000E6C072F5E7C073F5E8C074F5E9C075F50C
:1004B00016EC6CF0720EE96E050EEA6E05017651CF
:1004C000EE5C7751EE587851EE587951EE5802E2D1
:1004D000000E01D0010ED4EF2FF095EC33F019E0AF
:1004E0001BEC30F0E6C07AF5E7C07BF5E8C07CF5A0
:1004F000E9C07DF562EC30F005017A51EE24826F9F
:100500007B51EE20836F7C51EE20846F7D51EE2075
:10051000856F1BEC30F0E6C07EF5E7C07FF5E8C0E4
:1005200080F5E9C081F516EC6CF07E0EE96E050EE3
:10053000EA6E05018251EE5C8351EE588451EE580B
:100540008551EE5802E2000E01D0010ED4EF2FF0DB
:1005500095EC33F019E01BEC30F0E6C086F5E7C00F
:1005600087F5E8C088F5E9C089F562EC30F005014F
:100570008651EE248E6F8751EE208F6F8851EE20CA
:10058000906F8951EE20916F1BEC30F0E6C08AF538
:10059000E7C08BF5E8C08CF5E9C08DF516EC6CF082
:1005A0008A0EE96E050EEA6E05018E51EE5C8F51E2
:1005B000EE589051EE589151EE5802E2000E01D0E3
:1005C000010ED4EF2FF095EC33F019E01BEC30F076
:1005D000E6C092F5E7C093F5E8C094F5E9C095F55B
:1005E00062EC30F005019251EE249A6F9351EE20A7
:1005F0009B6F9451EE209C6F9551EE209D6F1BECEC
:1006000030F0E6C096F5E7C097F5E8C098F5E9C088
:1006100099F516EC6CF0960EE96E050EEA6E050182
:100620009A51EE5C9B51EE589C51EE589D51EE58FC
:1006300002E2000E01D0010ED4EF2FF00000050100
:100640009E6B0301CE5105019E5D04E20000050191
:100650009E2BF7D712000F0EE66EF7EC72F0E55204
:100660001200050EE66EF7EC72F0E5521200CFECC8
:100670002FF06CA2FED7FE0EDBCFE6FF0EEC73F080
:10068000E552D4EF2FF0050EB0EF2FF006010A511E
:1006900001E112004DEC32F0FDE11200CFEC2FF041
:1006A000F90EDBCF00F0FA0EDBCF01F001340AE2E5
:1006B00000500808000E015405E2A0EC30F0E3EC15
:1006C00031F0CCD060EC32F0EE50ED1009E00601D4
:1006D0008F0E2E6FC20E2F6F750E306F3D0E06D02F
:1006E00006012E6B2F6B800E306F3E0E316FF6ECD5
:1006F0002FF0EECF08F0EECF09F0EECF0AF0EFCFFB
:100700000BF035EC36F008C02BF009C02CF00AC015
:100710002DF00BC02EF0A5EC65F00DEC34F0FB0EC7
:10072000DBCF18F0FC0EDBCF19F0FD0EDBCF1AF09B
:10073000FE0EDBCF1BF035EC36F018C02BF019C0E5
:100740002CF01AC02DF01BC02EF0A5EC65F02BC0CC
:1007500014F02CC015F02DC016F02EC017F0F6ECDA
:100760002FF0EECF20F0EECF21F0EECF22F0EFCF42
:1007700023F035EC36F020C02BF021C02CF022C045
:100780002DF023C02EF0A5EC65F02BC01CF02CC082
:100790001DF02DC01EF02EC01FF0ECEC31F014C087
:1007A0002BF015C02CF016C02DF017C02EF0BBECAE
:1007B00064F02BC010F02CC011F02DC012F02EC030
:1007C00013F02EC630F02FC631F030C632F031C6ED
:1007D00033F0A5EC65F02BC00CF02CC00DF02DC053
:1007E0000EF02EC00FF0ECEC31F0ACEC34F007C0A2
:1007F0002EF0BCEC64F015EC33F0D8EC33F052EC96
:1008000065F02BC032F62CC033F62DC034F62EC066
:1008100035F6F6EC2FF02BC0EEFF33C6EEFF34C6F4
:10082000EEFF35C6EEFF60EC32F0FF0EEE180EE183
:10083000FF0EED180BE10601326B336B346B356B39
:10084000F6EC2FF0EE6AEE6AEE6AEE6A32C62AF035
:1008500033C62BF034C62CF035C62DF0D4EF2FF074
:100860000400A2C0E6FFA3C0E6FFA4C0E6FFA5C047
:10087000E6FFB3DBE552E552E552E552F3CF00F077
:10088000F4CF01F000C0E6FF01C0E6FFB50EE66E52
:100890009A0EE66E000EE66E200EE66E030EE66E13
:1008A0004BEC6EF0026E070EE15E0250200EE66E1B
:1008B000030EE66EEDEC70F0E552E5521200D0DF6B
:1008C000840EE66EA40EE66E000E6AEC2FF00501B3
:1008D000236B050123510BE10A0EDDEC33F0D1DC73
:1008E00036EC33F0DBEC36F03FEC5EF0F2D7020E84
:1008F000235DB6DFE20EE66EA40EE66E000E6AEF32
:100900002FF00400B20EE66E9A0EE66E000EE66E52
:10091000000EE66E020EE66E4BEC6EF0006E050EFB
:10092000E15E0050000EE66E020EE66EEDEC70F039
:10093000E552E55295DFAD0EE66E9A0EE66E000EBC
:10094000E66E33EC70F0E552E552E55239C6E6FF4B
:100950003AC6E6FF3BC6E6FF000EE66E020EE66E06
:10096000EBEC6CF0006E050EE15E0050000EE66EE2
:10097000020EE66EEDEC70F0E552E552AB0EE66E5F
:100980009A0EE66E000EE66E33EC70F0E552E5521C
:10099000E55236C6E6FF37C6E6FF38C6E6FF000E6C
:1009A000E66E020EE66EEBEC6CF0006E050EE15E9C
:1009B0000050000EE66E020EE66EEDEC70F0E552B1
:1009C000E552950EE66E9A0EE66E000EE66E000E8D
:1009D000E66E020EE66EEBEC6CF0006E050EE15E6C
:1009E0000050000EE66E020EE66EEDEC70F0E55281
:1009F000E55206012351E66EE66A06010451E66EF1
:100A0000E66AAEC0E6FFAFC0E6FFB0C0E6FFB1C029
:100A1000E6FFAAC0E6FFABC0E6FFACC0E6FFADC094
:100A2000E6FF98C0E6FF99C0E6FF61C0E6FF62C03E
:100A3000E6FF63C0E6FF64C0E6FF8350800B01E081
:100A4000010EE66EE66A8350400B01E0010EE66E91
:100A5000E66A8350200B01E0010EE66EE66A8350E1
:100A6000100B01E0010EE66EE66A8350080B01E010
:100A7000010EE66EE66A8350040B01E0010EE66E9D
:100A8000E66A8350020B01E0010EE66EE66A8350CF
:100A9000010BE66EE66A06010151E66EE66A060E95
:100AA000E66E9A0EE66E000EE66E000EE66E020E22
:100AB000E66E4BEC6EF0006E290EE15E0050000E0B
:100AC000E66E020EE66EEDEC70F0E552E5520001C6
:100AD000FA51E66EE66A7850E66EE66ABEC0E6FF58
:100AE000BFC0E6FFC0C0E6FFC1C0E6FFE6C02AF017
:100AF000E7C02BF0E8C02CF0E9C02DF0A2C02FF029
:100B0000A3C030F0A4C031F0A5C032F05BEC71F0AE
:100B10002AC000F02BC001F02CC002F02DC003F061
:100B200000C0E6FF01C0E6FF02C0E6FF03C0E6FF2B
:100B3000E6C0E6FFE7C0E6FFE8C0E6FFE9C0E6FF83
:100B4000E2C0E6FFE3C0E6FFE4C0E6FFE5C0E6FF83
:100B5000A6C0E6FFA7C0E6FFA8C0E6FFA9C0E6FF63
:100B60009EC0E6FF9FC0E6FFA0C0E6FFA1C0E6FF73
:100B7000B6C0E6FFB7C0E6FFB8C0E6FFB9C0E6FF03
:100B8000DEC0E6FFDFC0E6FFE0C0E6FFE1C0E6FF53
:100B9000DAC0E6FFDBC0E6FFDCC0E6FFDDC0E6FF53
:100BA000C2C0E6FFC3C0E6FFC4C0E6FFC5C0E6FFA3
:100BB000A2C0E6FFA3C0E6FFA4C0E6FFA5C0E6FF13
:100BC000470EE66E990EE66E000EE66E000EE66EBD
:100BD000020EE66E4BEC6EF0046E350EE15E0450D4
:100BE000000EE66E020EE66EEDEC70F0E552E55298
:100BF00029C5E6FF2AC5E6FF2BC5E6FF2CC5E6FFA3
:100C0000BAC0E6FFBBC0E6FFBCC0E6FFBDC0E6FF62
:100C1000C6C0E6FFC7C0E6FFC8C0E6FFC9C0E6FF22
:100C2000CAC0E6FFCBC0E6FFCCC0E6FFCDC0E6FF02
:100C3000CEC0E6FFCFC0E6FFD0C0E6FFD1C0E6FFE2
:100C4000D2C0E6FFD3C0E6FFD4C0E6FFD5C0E6FFC2
:100C5000E80EE66E980EE66E000EE66E000EE66E8C
:100C6000020EE66E4BEC6EF0006E1D0EE15E005063
:100C7000000EE66E020EE66EEDEC70F0E552E55207
:100C800005019F6B030E05019F5D01E396D10501F0
:100C90009F513A0DF3CFE9FFF4CFEAFF000EE926AA
:100CA000040EEA22060EE926000EEA22EF5001E1C8
:100CB00081D105019F513A0DF3CFE9FFF4CFEAFF4F
:100CC000000EE926040EEA220D0EE926000EEA22A5
:100CD000170EE926000EEA22EECFE6FFEFCFE6FF81
:100CE00005019F513A0DF3CFE9FFF4CFEAFF000E63
:100CF000E926040EEA220D0EE926000EEA22150E60
:100D0000E926000EEA22EECFE6FFEFCFE6FF05016F
:100D10009F513A0DF3CFE9FFF4CFEAFF000EE92629
:100D2000040EEA220D0EE926000EEA22290EE9261B
:100D3000000EEA22EECFE6FFEFCFE6FF05019F515E
:100D40003A0DF3CFE9FFF4CFEAFF000EE926040ED7
:100D5000EA220D0EE926000EEA22270EE926000EF1
:100D6000EA22EECFE6FFEFCFE6FF05019F513A0DF5
:100D7000F3CFE9FFF4CFEAFF000EE926040EEA22E2
:100D80000D0EE926000EEA22090EE926000EEA22DF
:100D9000EECFE6FFEFCFE6FF05019F513A0DF3CF0F
:100DA000E9FFF4CFEAFF000EE926040EEA220D0E59
:100DB000E926000EEA22110EE926000EEA22EECF05
:100DC000E6FFEFCFE6FF05019F513A0DF3CFE9FFB4
:100DD000F4CFEAFF000EE926040EEA220D0EE92602
:100DE000000EEA22130EE926000EEA22EECFE6FFFD
:100DF000EFCFE6FF05019F513A0DF3CFE9FFF4CFA6
:100E0000EAFF000EE926040EEA220D0EE926000E86
:100E1000EA22050EE926000EEA22EECFE6FFEFCF2A
:100E2000E6FF05019F513A0DF3CFE9FFF4CFEAFF4A
:100E3000000EE926040EEA220D0EE926000EEA2233
:100E4000030EE926000EEA22EECFE6FFEFCFE6FF23
:100E500005019F513A0DF3CFE9FFF4CFEAFF000EF1
:100E6000E926040EEA220D0EE926000EEA22EE52D1
:100E7000EECFE6FFEFCFE6FF05019F51E66EE66A93
:100E8000700EE66E980EE66E000EE66E000EE66ED2
:100E9000020EE66E4BEC6EF0006E1B0EE15E005033
:100EA000000EE66E020EE66EEDEC70F0E552E552D5
:100EB00005019F513A0DF3CFE9FFF4CFEAFF000E91
:100EC000E926040EEA220D0EE926000EEA221F0E84
:100ED000E926000EEA22EECF02F0EECF03F0EECFCD
:100EE00004F0EFCF05F0306A316A7A0E326E440EAC
:100EF000336E02C02BF003C02CF004C02DF005C0EF
:100F00002EF0A5EC65F0B5EC66F02CC000F02DC01D
:100F100001F000C0E6FF01C0E6FF05019F513A0D58
:100F2000F3CFE9FFF4CFEAFF000EE926040EEA2230
:100F30000D0EE926000EEA22230EE926000EEA2213
:100F4000EECF08F0EECF09F0EECF0AF0EFCF0BF0C6
:100F5000306A316A7A0E326E440E336E08C02BF05E
:100F600009C02CF00AC02DF00BC02EF0A5EC65F0E6
:100F7000B5EC66F02CC006F02DC007F006C0E6FF09
:100F800007C0E6FF4F0EE66E980EE66E000EE66EA8
:100F9000000EE66E020EE66E4BEC6EF00C6E090E65
:100FA000E15E0C50000EE66E020EE66EEDEC70F0A7
:100FB000E552E55205019F2B65D6040012008B0E09
:100FC000E66EA50EE66E000E6AEC2FF0D50EE66E0C
:100FD000A50EE66E000E6AEF2FF0CFEC2FF037EC87
:100FE00031F002E2D2EC30F0FB0EDBCFDDF3FC0E91
:100FF000DBCFDEF3FD0EDBCFDFF3FE0EDBCFE0F366
:10100000DDC3D5F3DEC3D6F3DFC3D7F3E0C3D8F334
:1010100076EC34F0F5EC31F0E0C32DF05BEC71F0E0
:101020002AC0D5F32BC0D6F32CC0D7F32DC0D8F3EC
:1010300076EC34F0FCEC30F0DDC3D9F3DEC3DAF348
:10104000DFC3DBF3DC6F3C0E2F6E306AF5EC31F062
:10105000DCC32DF05BEC71F02AC0D9F32BC0DAF3BE
:101060002CC0DBF32DC0DCF33C0E2F6E306AFCECA1
:1010700030F0DDC3E6FFDEC3E6FFDFC3E6FFE66E6A
:10108000D9C3E6FFDAC3E6FFDBC3E6FFDCC3E6FF56
:10109000D5C3E6FFD6C3E6FFD7C3E6FFD8C3E6FF56
:1010A0003D0EE66E980EE66E000EFEEC31F0110E6F
:1010B000E6EF33F0CFEC2FF037EC31F002E2D2EC78
:1010C00030F0FB0EDBCFE9F3FC0EDBCFEAF3FD0ED5
:1010D000DBCFEBF3FE0EDBCFECF3E9C3E1F3EAC3C6
:1010E000E2F3EBC3E3F3ECC3E4F376EC34F007ECA8
:1010F00032F0ECC32DF05BEC71F02AC0E1F32BC0B1
:10110000E2F32CC0E3F32DC0E4F376EC34F00CEC06
:1011100031F0E9C3E5F3EAC3E6F3EBC3E7F3E86FC5
:101120003C0E2F6E306A07EC32F0E8C32DF05BEC1A
:1011300071F02AC0E5F32BC0E6F32CC0E7F32DC015
:10114000E8F33C0E2F6E306A0CEC31F0E5C3E6FF9D
:10115000E6C3E6FFE7C3E6FFE8C3E6FFE1C3E6FF59
:10116000E2C3E6FFE3C3E6FFE4C3E6FF310EE66E4B
:10117000980EE66E000EFEEC31F00D0EE6EF33F049
:10118000CFEC2FF0FE0EDBCF01F0800E011407E054
:1011900067EC32F0006C011E000E012202D067ECF9
:1011A00032F000C0F3FF01C0F4FFD4EF2FF0CFEC1A
:1011B0002FF0F1EC30F002E643EC31F00BE2A0EC62
:1011C00030F0000E006C011E0122021E0222031EDE
:1011D000032202D0A0EC30F0E3EC31F0D4EF2FF09A
:1011E000B3EC34F015EC33F0F4EC34F08BEC2FF07E
:1011F0007BEC34F0290EE66E980EE66E000EE5EFFD
:1012000035F0B3EC34F074EC2FF0F9EC34F07BEC07
:1012100034F0210EE66E980EE66E000EE5EF35F026
:1012200092EC34F002E643EC31F002E22D0E2D6F29
:10123000B6EC2FF0A2EC64F074EC2FF08BEC30F0F5
:10124000D8902D50000A08E6DC0E2A5C050E2B58BB
:10125000000E2C58000E2D5815E28BEC30F007ECE8
:1012600030F02DC604F0056A04BE05683EEC32F08D
:101270001B0EE66E980EE66E000E7CEC30F07EECF7
:1012800032F035D0306A316AF4EC34F05CEC33F093
:101290008BEC2FF07FC6E6FFE66E04EC36F007EC31
:1012A00030F08BEC30F02AC004F02BC005F02CC0DD
:1012B00006F02DC007F02AC0E6FF2BC0E6FF2CC0C9
:1012C000E6FF2DC0E6FF2DC608F0096A08BE0968D2
:1012D00008C0E6FF09C0E6FF0E0EE66E980EE66E49
:1012E000000E7CEC30F00A6E0F0EE15E0A5038EF13
:1012F00033F092EC34F002E643EC31F002E22D0ED2
:101300002D6FB6EC2FF0A2EC64F015EC33F0200E4C
:10131000326E410E336E52EC65F02BC063F62CC07A
:1013200064F62DC065F62EC066F601EC33F063C698
:101330002BF064C62CF065C62DF066C62EF0E4ECEA
:1013400032F0F9EC34F01CDFE552E55208EC36F0EF
:1013500083EC32F07BEC34F013DFE552E552F3CF4F
:1013600002F0F4CF03F083EC32F02DC604F0056AEE
:1013700004BE05683EEC32F0040EE66E980EE66E92
:10138000000E7CEC30F07EEC32F038EF33F0CFEC36
:101390002FF01BEC30F08AEC31F001344BE20050BE
:1013A000FA08000E015446E28AEC31F0FF0E0018F4
:1013B0000AE1015008E10601175101E17ED116EC66
:1013C0006CF0010E7DD18AEC31F0FE0E001808E1C0
:1013D000015006E116EC6CF0040149EC30F028D025
:1013E0008AEC31F0FD0E001809E1015007E1060119
:1013F000010E176F16EC6CF0FD0E62D18AEC31F025
:10140000FC0E001808E1015006E10601176B16EC0E
:101410006CF0FC0E55D18AEC31F0FB0E00180AE19D
:10142000015008E10601176B16EC6CF0FEEC34F08D
:10143000EF5046D10601175101E13FD10401FE51A1
:10144000000801E33AD1FE0749EC30F0EFCFEEF3AC
:1014500030EC04F0FB0EDBCFE6FFFC0EDBCFE6FF4B
:10146000FD0EDBCFE6FF33EC70F0E552E552E552BE
:10147000FEEC34F0EF50E66EE66AFE51E66EE66A88
:10148000F20EE66E970EE66E000ED4EC33F003011A
:10149000ED6BED51ED2BEE5D07E1660EE66EA80EED
:1014A000E66E000E6AEC2FF0F1EC2FF007E1860EED
:1014B000E66EA80EE66E000E6AEC2FF0F1EC2FF04F
:1014C00007E1B60EE66EA80EE66E000E6AEC2FF08F
:1014D000F1EC2FF007E1D90EE66EA80EE66E000ED5
:1014E0006AEC2FF0F1EC2FF007E1FC0EE66EA80E8F
:1014F000E66E000E6AEC2FF0F1EC2FF007E12D0EF6
:10150000E66EA90EE66E000E6AEC2FF0F1EC2FF0FD
:1015100007E1610EE66EA90EE66E000E6AEC2FF092
:10152000F1EC2FF007E1960EE66EA90EE66E000EC6
:101530006AEC2FF0F1EC2FF007E1CF0EE66EA90E6A
:10154000E66E000E6AEC2FF0F1EC2FF007E1FD0ED5
:10155000E66EA90EE66E000E6AEC2FF0F1EC2FF0AD
:1015600007E1240EE66EA80EE66E000E6AEC2FF080
:10157000F1EC2FF007E1440EE66EA80EE66E000EC9
:101580006AEC2FF0F1EC2FF007E1540EE66EA70E97
:10159000E66E000E6AEC2FF0F1EC2FF007E12D0E55
:1015A000E66EAA0EE66E000E6AEC2FF0F1EC2FF05C
:1015B00007E16E0EE66EAA0EE66E000E6AEC2FF0E4
:1015C000F1EC2FF007E1940EE66EAA0EE66E000E27
:1015D0006AEC2FF0F1EC2FF007E1BA0EE66EAA0EDE
:1015E000E66E000E6AEC2FF0F1EC2FF007E1E60E4C
:1015F000E66EAA0EE66E000E6AEC2FF0F1EC2FF00C
:1016000007E1FE0EE66EAA0EE66E000E6AEC2FF003
:10161000F1EC2FF007E1150EE66EAB0EE66E000E54
:101620006AEC2FF0F1EC2FF007E1B90EE66EAE0E8A
:10163000E66E000E6AEC2FF0F1EC2FF007E1F70EEA
:10164000E66EAE0EE66E000E6AEC2FF0F1EC2FF0B7
:1016500007E1160EE66EAF0EE66E000E6AEC2FF096
:10166000F1EC2FF007E1420EE66EAB0EE66E000ED7
:101670006AEC2FF00301ED51D880EE5515E2EE51E2
:10168000006E016AD890015004E6FA0E005C000E6C
:1016900001580AE2EE51E66EE66AD80EE66E970E43
:1016A000E66E000EFDEC32F00401FE5102E106018F
:1016B000176BFEEC34F0EF6AC1D616EC6CF0000E3E
:1016C000D4EF2FF00601010E066F83A471D0DBEC7E
:1016D00036F065C000F066C001F067C002F068C077
:1016E00003F0640E2F6E306A316A326A65C02AF0E8
:1016F00066C02BF067C02CF068C02DF05BEC71F079
:1017000007EC30F010EC32F068DC36EC33F0F3CF5D
:1017100004F0F4CF05F083EC32F0BE0EE66E970EC7
:10172000E66E000E3AEC2FF07EEC32F0010EE66E23
:10173000E66AE66A63EC34F00DEC36F0010EE66E14
:10174000CAEC35F0E6C02AF0E7C02BF0E8C02CF078
:10175000E9C02DF0A2C02FF0A3C030F0A4C031F03A
:10176000A5C032F05BEC71F007EC30F0E6C0E6FFAC
:10177000E7C0E6FFE8C0E6FFE9C0E6FF10EC32F0A4
:101780009E0EE66E970EE66E000E3AEC2FF0046E9B
:10179000110EE15E0450010EE66E030E5DEC2FF0BB
:1017A000880EE66E130EECEC35F03FEC5EF08DD754
:1017B0000601066B1200CFEC2FF01B0E43EC32F04B
:1017C0005B0E43EC32F0320E43EC32F04A0E43EC47
:1017D00032F0770EE66EA40EE66E000E6AEC2FF085
:1017E0002A0EE66EA40EE66E000E6AEC2FF0D4EF21
:1017F0002FF0CFEC2FF006011A5124E11B5108E025
:1018000018EC35F0050E036E9E0E046E000E07D028
:1018100018EC35F0CB0E036E9E0E046E000E59ECE4
:1018200032F0160E9EEC31F028C006F029C007F009
:101830002AC008F004EC34F06CEC30F0FE0EDBCF84
:101840001CF627D0FE0EDB500301EF5D1DE0060104
:10185000216B74EC69F08B920501A06BA0510A0812
:101860000FE374EC31F0A02576EC33F0010EE66E58
:10187000E66AB7EC30F05DEC30F00501A02BEED756
:10188000FE0EDBCFEFF305D074EC31F00A0F76ECEF
:1018900033F0010EE66EE66AB7EC30F0E66A010E50
:1018A000E66EB7EC30F0E66A020EE66EB7EC30F0AA
:1018B000E66A030EE66EB7EC30F0D4EF2FF00501C8
:1018C000A16B030EA15D07E2A1512FEC32F0FE0ED9
:1018D000EF6EA12BF6D70601785103EC35F002E14B
:1018E000165124E016510EE00501A251A22B320838
:1018F0000DE20301F02BF051050801E2F06B050148
:10190000A26B04D0030E78250301F06FE66AF0C3E2
:10191000E6FF34EC00F0E552E552E66E0601785140
:101920002FEC32F0E552E750EF6E120078512FECB9
:1019300032F0EF681200CFEC2FF0030EE126010E1B
:10194000DB6A06011B5104E1225102E1255102E04C
:10195000030E65D278C6DFFF1CEC36F080EC34F065
:10196000EE6AED6A010EE66EADEC30F01CEC36F07E
:1019700019EC32F0EE50ED1006E0B9EC31F00BE16D
:10198000010EE66E05D0B9EC31F005E0E66A010E15
:10199000E66E88EC32F0D950020FE66E000EDA20C7
:1019A000E66E49DAE552E552020EDB500601935D20
:1019B0000AE18B96010E1B6F020EDBCFE6FF19DFEB
:1019C000E552020E2CD2DBEC36F0F8EC10F0ADEC68
:1019D00033F00DE200500408000E015408E2030148
:1019E0009A0EF16F990EF26FF36F3E0E11D0DF5029
:1019F00003EC35F007E00301F16BF26BC00EF36FFF
:101A00003F0E06D0030147EC31F003E0BDEC31F0AE
:101A1000F46F0601265165E099EC34F001AE02D076
:101A200002680368B9EC34F004E6D8802C0E51EC5F
:101A300032F014E28DBE25D016EC34F02CEC31F0EF
:101A40008D8E0601206F945107E0840EE66E970E8E
:101A5000E66E000E6AEC2FF08D8013D08DAE11D0A3
:101A600016EC34F03BEC32F08D9E0601206B945165
:101A700007E06B0EE66E970EE66E000E6AEC2FF036
:101A80008D8099EC34F001AE02D002680368B9ECA5
:101A900034F004E6D880900E51EC32F012E28DB6AC
:101AA00020D08DAE1ED00601010E276F945107E0A5
:101AB000470EE66E970EE66E000E6AEC2FF08D86EE
:101AC00010D08DA60ED08DAE0CD00601276B945190
:101AD00007E0240EE66E970EE66E000E6AEC2FF01D
:101AE0008D968DEC33F0C10EE2EC2FF02D500118E5
:101AF000E8AE02D0013404D00050025C015003581B
:101B000001E391D044EC35F0EECF08F0EFCF09F0CF
:101B10000C6A0D6A200E0E6E410E0F6E1DEC34F035
:101B20000CC02BF00DC02CF00EC02DF02E6E52EC20
:101B300065F0B5EC66F02CC00AF02DC00BF0095032
:101B40002D18E8AE02D00B3404D00A50085C0B50BC
:101B5000095869E2010EDB503BE00601265138E0EE
:101B60000301F551F61112E0BEEC34F00601945178
:101B70000DE073EC33F001E0010EACEC32F0D70E67
:101B8000E66E960EE66E000E6FEC33F0DF507DECE5
:101B90002FF005013F0547E1DF5083EC34F00301EE
:101BA000F551F61140E047EC31F003E0BDEC31F0C7
:101BB000F46F0601945133E073EC33F001E0010E51
:101BC000ACEC32F0900EE66E960EE66E000E1ED075
:101BD000DF5083EC34F0DF507DEC2FF00301F55142
:101BE000F61121E047EC31F003E0BDEC31F0F46F89
:101BF0000601945114E073EC33F001E0010EACECFB
:101C000032F03B0EE66E960EE66E000E6FEC33F091
:101C1000750EE66E960EE66E000E6AEC2FF003016E
:101C2000F56BF66B8B968DEC33F0410EE2EC2FF0FA
:101C30002D500118E8AE02D0013404D00050025CEF
:101C40000150035844E283EC33F0CEEC30F014E161
:101C50001CEC36F080EC34F0EE2AEF22ADEC33F0E1
:101C60000BE200500108000E015406E20001BA2BFD
:101C7000000EBB23BC23BD231CEC36F0020E2CEC63
:101C800031F09EEC33F002E10150F81920E0F0EC65
:101C900033F003AE02D00468056826EC34F004E6A5
:101CA000D880E10EBBEC30F012E2060194510DE059
:101CB00073EC33F001E0010ED0EC35F0F10EE66E7E
:101CC000950EE66E000E6AEC2FF0F5EC33F08DEC1D
:101CD00033F0C10EE2EC2FF001502D18E8AE02D027
:101CE000033404D00250005C035001582AE283EC14
:101CF00033F03BEC32F09EEC33F002E10150F81986
:101D000020E0F0EC33F003AE02D00468056826EC66
:101D100034F004E6D880E10EBBEC30F012E20601AC
:101D200094510DE073EC33F001E0010ED0EC35F08E
:101D3000DA0EE66E950EE66E000E6AEC2FF0F5EC0C
:101D400033F0ADEC33F00AE200500108000E01540C
:101D500005E21CEC36F0050E2CEC31F0ADEC33F066
:101D60000AE200500208000E015405E21CEC36F0B5
:101D7000090E2CEC31F0DF5003EC35F010E00001DF
:101D80006051010B0CE16051020B09E16051040B41
:101D900006E1E66AADEC30F0000901E1FCD5060190
:101DA000265103E0276B8D9E206BE66AADEC30F088
:101DB000000913E00601945107E08B0EE66E950EC4
:101DC000E66E000E6AEC2FF00601265102E01DECD3
:101DD00032F035EC32F0040E22D000016051010BDC
:101DE00006E16051020B03E16051040B1AE00601A9
:101DF000945107E0350EE66E950EE66E000E6AEC25
:101E00002FF00601265102E01DEC32F0000160A126
:101E100005D060910601010E1B6F8B96020EF36ECA
:101E200001D0F36AF46A030EE15C02E2E16AE55272
:101E3000E16ED4EF2FF0CFEC2FF083380F0B0601BB
:101E400093150501A36F060193510501A35D40E1C0
:101E5000060193510301F95D03E0040EB0EC2FF08D
:101E600026EC32F02CE1060193510301F95D13E0F9
:101E700014EC30F0070EEF6EC5EC34F00501A45100
:101E8000E66EE66A190EE66E950EE66E000EFDEC45
:101E900032F09CEC34F0060124510DE0F90EE66EB0
:101EA000940EE66E000ECCEC34F093C6F9F314EC0D
:101EB00030F0070EEF6E0601246B93514DD0A45104
:101EC000C4EC31F0A50EE66E940EE66E000E3DD029
:101ED000A3510301F95D3BE0030EE66E56EC5EF0A4
:101EE000E552040EB0EC2FF026EC32F026E114ECB3
:101EF00030F0A3C5EFFFC5EC34F014EC30F0EF5038
:101F0000C4EC31F0660EE66E940EE66E000ED4EC74
:101F100033F014EC30F0EFCFF9F39CEC34F0060121
:101F2000245107E1440EE66E940EE66E000ECCECF2
:101F300034F00601010E246F0ED0A451C4EC31F030
:101F4000F10EE66E930EE66E000ED4EC33F014EC58
:101F500030F0F9C3EFFF000ED4EF2FF0060132ECA2
:101F600033F00CE10501A56B0601782B030E785DBB
:101F700001E3786BF3EC35F0F7E0A1DC000160A33E
:101F800020D08B840501A56B0601782B030E785DAC
:101F900001E3786BF3EC35F0F7E091DCCBEC31F05A
:101FA000DF0EE66E930EE66E000EFDEC32F0C40E10
:101FB000E66E930EE66E000E6AEC2FF08B94000135
:101FC00060936051010B08E1E66AA9EC31F0000969
:101FD0001BE006011A5118E006011A5106E11B51D7
:101FE00002E0000E01D0010E1B6F31EC35F09A0EAD
:101FF000E66E930EE66E000E6AEC2FF006011A6B89
:10200000000160918B906FD005010F056AE0E66AD0
:10201000DBEC2FF0000967E0010EE66EA9EC31F071
:102020000601010E1A6F8B8005010F512BE1C0ECE8
:1020300033F004E6D880230EBBEC30F023E2060137
:10204000010E1A6F8B90245111E10301FA2BE2EC7F
:1020500033F0080E0301FA5D01E3FA6B1FEC36F072
:10206000820EE66E930EE66E000E37D0FAEC35F077
:1020700001E33E6B95EC35F05B0EE66E930EE66E7B
:10208000000E2BD0C0EC33F004E6D880230EBBEC5E
:1020900030F025E20601010E1A6F8B90245112E1F7
:1020A0000301FA07E2EC33F0080E0301FA5D02E3E4
:1020B000070EFA6F1FEC36F0440EE66E930EE66ED6
:1020C000000E0BD0FAEC35F001E33E6B95EC35F0E9
:1020D0002D0EE66E930EE66E000E6AEC2FF08B80EE
:1020E00002D0E2EC33F006011A5102E08B8001D0FD
:1020F0008B90255168E11B5102E1225162E0B9EC5D
:1021000031F005E0E66A010EE66E88EC32F005017A
:102110001F0541E0E66A85EC30F0000954E08B844D
:1021200005011F511AE11B35000E1B1909E6D88065
:10213000010E1855000E1955000E1A55000E1B55AC
:102140000CE2A5EC33F02CEC31F07BEC35F0F10E29
:10215000E66E950EE66E000E1BD018C5E6FF19C59B
:10216000E6FF1AC5E6FF1BC5E6FF0EEC30F004E6FD
:10217000D880010EBBEC30F026E2A5EC33F03BEC4E
:1021800032F07BEC35F0DA0EE66E950EE66E000E60
:102190006AEC2FF018D0060122510CE1785183EC43
:1021A00034F0CDEC35F0020E2CEC31F078517DECB2
:1021B0002FF003D0785183EC34F008EC35F08B9499
:1021C00002D09BEC0CF006011B5107E0E66A0CEC18
:1021D00035F00BE1010EE66E05D0E66A0CEC35F049
:1021E00004E0E66AE66A88EC32F00301FA51120074
:1021F0005FEC0CF006011C51070A18E0010A14E01C
:10220000050A10E0010A0CE0060A08E0050A04E0ED
:10221000010A0EE14CEF13F0FFEF12F0D8EF13F0CC
:10222000CBEF12F0A4EF13F081EF14F09AEF12F05D
:102230003CEF14F0CFEC2FF0070EE126050EDB6A21
:10224000060EDB6A74EC69F006011B5104E104011F
:102250002A512B1102E0030E09D00601206B050163
:10226000355136113711381104E1020EF36EF46A5C
:1022700082D0DF6AFE0EDB50D880DF5474E3B1EC0D
:1022800035F0D8EC2FF00A0E306ED70E316E230EDB
:10229000326E3C0E21EC30F065EC33F064E1010E5F
:1022A000DB6A51EC31F0D950010F24EC31F002E639
:1022B000E7EC30F00DE22CEC30F02A0E326E3F0EDF
:1022C0004BEC35F005E1D950010F96EC30F0EBD72F
:1022D000010EDB6A51EC31F0D950010F24EC31F0E2
:1022E00002E6E7EC30F00DE22CEC30F0AA0E326E94
:1022F0003E0E4BEC35F005E1D950010F96EC30F075
:10230000EBD7D8EC2FF0660E306E316E326E3F0E8A
:10231000A2EC35F028E1D8EC2FF0CD0E306ECC0ECB
:10232000316E326E3D0EA2EC35F01DE1D8EC2FF08F
:10233000306A316A326A3F0EA2EC35F014E10001D6
:102340006051010B06E16051020B03E16051040B87
:1023500008E0010EF36E050EF3CFDBFF060EDB6A1D
:1023600002D0DF2A87D7FBEC33F0050EDBCF00F07D
:10237000060EBFEC30F0070EE15C02E2E16AE552C6
:10238000E16ED4EF2FF0CFEC2FF0080EE126060E11
:10239000DB6A070EDB6A74EC69F006011B5104E18D
:1023A00004012A512B1104E0030EF36EF46A87D066
:1023B0000601206BDF6AFE0EDB50DF5C01E377D0A5
:1023C000010EDB6A030EF36E010EDBCFF4FFF35058
:1023D000F45C6BE2010EDBCF78F6060132EC33F0F1
:1023E00061E0B1EC35F019EC33F0640EEE6EED6A9D
:1023F00065EC33F05AE151EC31F0050EDB6AD9504F
:10240000020F24EC31F002E6E7EC30F00BE29A0E1A
:10241000006E020E1CEC35F005E1D950020F96EC6F
:1024200030F0EDD751EC31F0050EDB6AD950020FD8
:1024300024EC31F002E6E7EC30F00BE24D0E006EDA
:10244000010E1CEC35F005E1D950020F96EC30F08E
:10245000EDD719EC33F0840EEE6E030EED6EC6EC84
:1024600035F019EC33F0640EEE6EED6AC6EC35F023
:1024700019EC33F0F40EEE6E010EED6EC6EC35F095
:1024800000016051010B06E16051020B03E1605154
:10249000040B08E0010EF36E060EF3CFDBFF070E10
:1024A000DB6A03D0010EDB2A8DD7DF2A84D7FBEC51
:1024B00033F0060EDBCF00F0070EBFEC30F0080E55
:1024C000E15C02E2E16AE552E16ED4EF2FF05FECED
:1024D0000CF006011C51070A18E0010A11E0050A78
:1024E0000DE0010A0BE0060A05E0050A07E0010A13
:1024F0000EE104D0030EE66E9DDE05D0020E01D083
:10250000040EE66E40DFE55212009AEF12F03CEF47
:1025100014F024DD0301FB6FFB0EE66E030EE66E86
:102520008ADCE552E552FBC3E6FFF9EC0BF0E5521D
:10253000F8EF10F006013E5121E188EC34F0DF0E97
:10254000E66E920EE66E000E3AEC2FF058EC31F08B
:102550005DEC2FF08FEC31F0C90EE66E920EE66E58
:10256000000E90EC33F08DEC32F0B30EE66E920E6E
:10257000E66E000EA9EC35F0070E09D030EC36F00F
:10258000CBEC2FF0020ED5EC32F0006E050EE15EC2
:1025900000501DEF33F006013E5118E179EC30F0A8
:1025A00080EC31F0740EE66E920EE66E000ED0EC0A
:1025B00034F0530EE66E920EE66E000E39EC36F0F5
:1025C000360EE66E920EE66E000E17D022EC33F059
:1025D0000BE0C9EC32F0D9EC31F00F0EE66E920E42
:1025E000E66E000E11EC36F0010EE66EA4EC34F04F
:1025F00047EC35F0020EA4EC34F06BEF33F006013B
:102600003E5139E179EC30F080EC31F0CC0EE66EE1
:10261000910EE66E000ED0EC34F034EC31F070C464
:10262000E6FF71C4E6FF6EC4E6FF6FC4E6FF8FEC01
:1026300031F0A30EE66E910EE66E000E3AEC2FF02E
:10264000D2EC31F0CAEC35F031EC31F0AAC4E6FF3F
:10265000ABC4E6FFA8C4E6FFA9C4E6FF8DEC32F0E8
:102660007A0EE66E910EE66E000EA9EC35F0130EB2
:10267000E15E00500FD022EC33F002E015EC36F0B2
:1026800068EC35F002E0A3EC32F03EEC35F002E00D
:1026900000EC36F01DEF33F006013E513EE179ECDF
:1026A00030F036C400F037C401F03FEC2FF034C4F2
:1026B00002F035C403F04EEC2FF088EC34F0DC0E61
:1026C000E66E900EE66E000E3AEC2FF072EC32F0F1
:1026D0005DEC2FF08FEC31F0C40EE66E900EE66EDE
:1026E000000E90EC33F031EC31F0AAC400F0ABC432
:1026F00001F03FEC2FF0A8C402F0A9C403F04EECA7
:102700002FF08DEC32F09B0EE66E900EE66E000E12
:102710003AEC2FF0046E130E13D022EC33F002E0EB
:1027200015EC36F068EC35F002E0A3EC32F03EEC4C
:1027300035F008E0D8EC32F03EEC33F0046E0D0ECC
:10274000E15E04501DEF33F006013E5122E1D5EC6D
:1027500034F05DEC2FF034EC31F070C400F071C453
:1027600001F03FEC2FF06EC402F06FC403F04EECAA
:102770002FF08FEC31F05D0EE66E900EE66E000EDF
:102780003AEC2FF072EC32F0CAEC35F0AFEC31F0ED
:102790000DD030EC36F0CAEC30F002E0A3EC32F0B1
:1027A000010EE66ECAEC35F0A7EC2FF06BEF33F0BC
:1027B00006013E514CE112C4E6FF13C4E6FF10C50A
:1027C000E6FF11C5E6FF12C5E6FF13C5E6FF29C502
:1027D000E6FF2AC5E6FF2BC5E6FF2CC5E6FF88EC21
:1027E00034F03B0EE66E900EE66E000EA9EC35F06E
:1027F000110EE15E00500DEC36F0040101511BE0BA
:102800000251E66EE66A140EE66E900EE66E000E5B
:1028100090EC33F031C5E6FF32C5E6FF33C5E6FF85
:1028200034C5E6FFF30EE66E8F0EE66E000EA9ECE1
:1028300035F0090E09D0D5EC34F0CAEC35F0AFEC28
:1028400031F0A9EC35F0050EE15E005013D022EC1A
:1028500033F004E0C9EC32F046EC33F068EC35F0CC
:1028600002E009EC33F03EEC35F004E0D8EC32F055
:1028700051EC33F01DEF33F006013E511AE1680EC2
:10288000E66E8F0EE66E000E47EC35F05DEC2FF035
:10289000520EE66E8F0EE66E000E39EC36F03C0EF0
:1028A000E66E8F0EE66E000E3AEC2FF025EC33F05C
:1028B0000FD022EC33F002E015EC36F068EC35F086
:1028C00002E0A3EC32F03EEC35F002E000EC36F032
:1028D0001DEF33F0250EE66E8F0EE66E000E47EC10
:1028E00035F05DEC2FF00E0EE66E8F0EE66E000EEC
:1028F00039EC36F0F70EE66E8E0EE66E000E6BEFDC
:1029000033F006013E5153E13CEC36F025EC33F058
:10291000640E040183AF02D0D89003D0825D000E14
:1029200083590BE2D8EC34F0D80EE66E8E0EE66ECC
:10293000000E3AEC2FF079EC32F00DEC36F08DB25F
:102940000AD0D8EC34F08FEC31F0B90EE66E8E0E72
:10295000E66E000E09D0DEEC34F08FEC31F09A0E0A
:10296000E66E8E0EE66E000E3AEC2FF0026E090E49
:10297000E15E0250010EE66E020ED5EC32F025EC5F
:1029800033F0640E04010FAF02D0D89003D00E5D77
:10299000000E0F591FE2DEEC34F07C0EE66E8E0E58
:1029A000E66E000E3AEC2FF079EC32F013D022EC08
:1029B00033F004E0C9EC32F046EC33F068EC35F06B
:1029C00002E009EC33F03EEC35F004E0D8EC32F0F4
:1029D00051EC33F01DEF33F0CFEC2FF0020EE12677
:1029E000DE6ADD6ADECF00F0DDCF01F0D890015065
:1029F00004E6030E005C000E01581FE2FE0EDB50E1
:102A0000E66EDECFE9FFDDCFEAFF3A0EEA02F3CF52
:102A1000EAFFE902F3CFE9FFF450EA26000EE926C7
:102A2000040EEA2219EC32F0E552E750EE6EED6A40
:102A3000DF2A010ED7E3DB2AD5D7020EE15C02E2E2
:102A4000E16AE552E16ED4EF2FF0CFEC2FF0020EE9
:102A5000E12606017851DE6EDD6A786B32EC33F0E8
:102A600002E09BEC0CF006017851782B006E030E0F
:102A7000005CF4E374EC69F0DFCF78F6010EB0ECA3
:102A80002FF0020EE15C02E2E16AE552E16ED4EF62
:102A90002FF0D9CFE6FFE1CFD9FF110EE126E80EE6
:102AA000F36E040EF3CFDBFF030EF36E050EF3CFD0
:102AB000DBFF060EDB6A070EDB6A080EDB6A090E17
:102AC000DB6A0A0EDB6A0B0EDB6A580EF36E0C0E25
:102AD000F3CFDBFF0F0EDB6A100EDB6A0601216B02
:102AE000DBEC36F0DBEC36F00001609506013E6B66
:102AF0001CC6E6FF2FEC6AF0E5520601255107E0FF
:102B00008B9206011B6B0601206B96EF2AF0580E84
:102B1000E66E8E0EE66E000EE66E33EC70F0E55259
:102B2000E552E552020E06011C5D0EE1D00EF36E79
:102B3000040EF3CFDBFF070EF36E050EF3CFDBFFC2
:102B4000060EDB6A070EDB6A0601010E1B6F04012D
:102B5000080503E10601010E206F74EC69F0010E17
:102B6000E66EE66AE66AE66A6AEC01F0E552E5526C
:102B7000E552E55206011C510DE1D950040FE96EF2
:102B8000DACFEAFFD890EF36010EEB36020EEB36C5
:102B9000030EEB36E66A20DFE55277EC69F0010EB2
:102BA000E66ED950040FE96EDACFEAFFEECFE6FF0A
:102BB000EECFE6FFEECFE6FFEFCFE6FF6DEC02F0E3
:102BC000006E050EE15E0050DE6ADE6ADE6ADD6AD6
:102BD000DD52DD520601265102E01EEF21F0060E05
:102BE00006011C5D02E090EF1AF00D0EDB6A0E0E7E
:102BF000DB6A0D0EDBCF00F00E0EDBCF01F00134EF
:102C000004E200500108000E015401E285D3640E75
:102C1000F36E040EF3CFDBFF050EDB6A060EDB6AF4
:102C2000070EDB6A010EE66ED950040FE96EDACFAB
:102C3000EAFFEECFE6FFEECFE6FFEECFE6FFEFCF07
:102C4000E6FF6DEC02F0006E050EE15E005077ECE1
:102C500069F0DE6ADE6ADE6ADD6ADD52DD5220C6B8
:102C6000E6FF7AEC69F0E552D9CFE9FFDACFEAFF67
:102C7000EECF00F0EECF01F0EECF02F0EFCF03F099
:102C8000D00E2F6E070E306E316A326A00C02AF005
:102C900001C02BF002C02CF003C02DF05BEC71F0F2
:102CA00026C000F027C001F028C002F029C003F0C0
:102CB000005001100210031001E02BD1000160A5AB
:102CC00030D074EC69F0010EE66E86DEE5524CEC15
:102CD0005EF0060EE66EE66AE66AE66A6AEC01F007
:102CE000E552E552E552E5528B920601010E1B6F4B
:102CF0000601206B20C6E6FF7AEC69F0E5521CC69F
:102D0000E6FF2FEC6AF0E5522A0EE66E8E0EE66EB6
:102D1000000EE66E33EC70F0E552E552E55296EFA8
:102D20002AF0A0EC2AF00D0EDBCFE6FF0E0EDBCF73
:102D3000E6FF0E0EE66E8E0EE66E000EE66E000EDE
:102D4000E66E020EE66E4BEC6EF0006E070EE15E74
:102D50000050010EE66EE66A3CC6E6FFB7EC00F0F6
:102D6000E552E552E55282C400F083C401F00A0E38
:102D7000316E326A00C02CF001C02DF012EC66F00A
:102D80002CC000F02DC001F000C0E6FF01C0E6FF3E
:102D9000E30EE66E8D0EE66E000EE66E000EE66E3B
:102DA000020EE66E4BEC6EF0026E070EE15E025014
:102DB000640E040183AF02D0D89003D0825D000E70
:102DC000835925E282C400F083C401F00A0E316EFB
:102DD000326A00C02CF001C02DF012EC66F02CC05D
:102DE00000F02DC001F000C0E6FF01C0E6FFC40EF8
:102DF000E66E8D0EE66E000EE66E000EE66E020EBC
:102E0000E66E4BEC6EF0026E070EE15E0250010EB4
:102E1000E66E010EE66EE66AB7EC00F0E552E552AA
:102E2000E5529C0EE66E8D0EE66E000EE66E000E0E
:102E3000E66E020EE66E4BEC6EF0006E050EE15E85
:102E40000050010EE66E020EE66EE66AB7EC00F088
:102E5000E552E552E5520EC400F00FC401F00A0E2F
:102E6000316E326A00C02CF001C02DF012EC66F019
:102E70002CC000F02DC001F000C0E6FF01C0E6FF4D
:102E80006F0EE66E8D0EE66E000EE66E000EE66EBE
:102E9000020EE66E4BEC6EF0026E070EE15E025023
:102EA000640E04010FAF02D0D89003D00E5D000E67
:102EB0000F5925E20EC400F00FC401F00A0E316E66
:102EC000326A00C02CF001C02DF012EC66F02CC06C
:102ED00000F02DC001F000C0E6FF01C0E6FF7C0E4F
:102EE000E66E8E0EE66E000EE66E000EE66E020ECA
:102EF000E66E4BEC6EF0026E070EE15E0250010EC4
:102F0000E66E030EE66EE66AB7EC00F0E552E552B7
:102F1000E552D9CFE9FFDACFEAFFEE2A000EEE2222
:102F2000EE22EE22E66AD950040FE96EDACFEAFF0C
:102F3000EECFE6FFEECFE6FFEECFE6FFEFCFE6FF08
:102F40006DEC02F0006E050EE15E0050000901E13B
:102F500086D6640E040183AF02D0D89003D0825D80
:102F6000000E83590CE204010F3504E20E51900863
:102F7000010E0F5504E2010E0401626F636B640ED3
:102F800004010FAF02D0D89003D00E5D000E0F5990
:102F900003E20401606B616B010EE66ED950040F11
:102FA000E96EDACFEAFFEECFE6FFEECFE6FFEECF37
:102FB000E6FFEFCFE6FF6DEC02F0006E050EE15E7E
:102FC000005074EC69F0DE6ADE6ADE6ADD6ADD52AA
:102FD000DD5220C6E6FF7AEC69F0E552D9CFE9FF71
:102FE000DACFEAFFEECF00F0EECF01F0EECF02F045
:102FF000EFCF03F0D00E2F6E070E306E316A326ABB
:1030000000C02AF001C02BF002C02CF003C02DF04C
:103010005BEC71F026C000F027C001F028C002F080
:1030200029C003F0005001100210031001E02BD161
:10303000000160A530D074EC69F0010EE66ECCDCC6
:10304000E5524CEC5EF0060EE66EE66AE66AE66A6B
:103050006AEC01F0E552E552E552E5528B92060129
:10306000010E1B6F0601206B20C6E6FF7AEC69F0AB
:10307000E5521CC6E6FF2FEC6AF0E5522A0EE66E1A
:103080008E0EE66E000EE66E33EC70F0E552E55201
:10309000E55296EF2AF0A0EC2AF00D0EDBCFE6FF0A
:1030A0000E0EDBCFE6FF540EE66E8D0EE66E000EC2
:1030B000E66E000EE66E020EE66E4BEC6EF0006EF3
:1030C000070EE15E0050010EE66EE66A3CC6E6FFC2
:1030D000B7EC00F0E552E552E55282C400F083C43B
:1030E00001F00A0E316E326A00C02CF001C02DF0E2
:1030F00012EC66F02CC000F02DC001F000C0E6FF1D
:1031000001C0E6FFE30EE66E8D0EE66E000EE66E83
:10311000000EE66E020EE66E4BEC6EF0026E070ECF
:10312000E15E0250640E040183AF02D0D89003D058
:10313000825D000E835925E282C400F083C401F051
:103140000A0E316E326A00C02CF001C02DF012EC74
:1031500066F02CC000F02DC001F000C0E6FF01C0F9
:10316000E6FFC40EE66E8D0EE66E000EE66E000EF5
:10317000E66E020EE66E4BEC6EF0026E070EE15E3E
:103180000250010EE66E010EE66EE66AB7EC00F044
:10319000E552E552E552290EE66E8D0EE66E000E02
:1031A000E66E000EE66E020EE66E4BEC6EF0006E02
:1031B000050EE15E0050010EE66E020EE66EE66A56
:1031C000B7EC00F0E552E552E5520EC400F00FC432
:1031D00001F00A0E316E326A00C02CF001C02DF0F1
:1031E00012EC66F02CC000F02DC001F000C0E6FF2C
:1031F00001C0E6FF6F0EE66E8D0EE66E000EE66E07
:10320000000EE66E020EE66E4BEC6EF0026E070EDE
:10321000E15E0250640E04010FAF02D0D89003D0DB
:103220000E5D000E0F5925E20EC400F00FC401F030
:103230000A0E316E326A00C02CF001C02DF012EC83
:1032400066F02CC000F02DC001F000C0E6FF01C008
:10325000E6FF7C0EE66E8E0EE66E000EE66E000E4B
:10326000E66E020EE66E4BEC6EF0026E070EE15E4D
:103270000250010EE66E030EE66EE66AB7EC00F051
:10328000E552E552E552D9CFE9FFDACFEAFFEE2A5F
:10329000000EEE22EE22EE22E66AD950040FE96E0D
:1032A000DACFEAFFEECFE6FFEECFE6FFEECFE6FFA6
:1032B000EFCFE6FF6DEC02F0006E050EE15E005010
:1032C000000901E186D6640E04010FAF02D0D89048
:1032D00003D00E5D000E0F590CE20401833504E2A9
:1032E00082519008010E835504E2010E0401606FC3
:1032F000616B640E040183AF02D0D89003D0825D6D
:10330000000E835903E20401626B636B0D0EDB2A2E
:103310000E0E01E3DB2A6DD48B9206011B6B0601B6
:10332000206B04016051611105E0040162516311D9
:1033300001E0E9D00401405101E1E5D000016095D0
:10334000590EF36E0C0EF3CFDBFF0C0EDBCF00F04B
:10335000016A00BE016800C0E6FF01C0E6FF090E79
:10336000E66E8D0EE66E000EE66E000EE66E020E46
:10337000E66E4BEC6EF0026E070EE15E0250010E3F
:10338000E66EE66A3CC6E6FFB7EC00F0E552E552B1
:10339000E55260C4E6FF61C4E6FF62C4E6FF63C4B1
:1033A000E6FFF20EE66E8C0EE66E000EE66E000E86
:1033B000E66E020EE66E4BEC6EF0006E090EE15EFC
:1033C0000050010EE66E010EE66EE66AB7EC00F004
:1033D000E552E552E552DB0EE66E8C0EE66E000E0F
:1033E000E66E000EE66E020EE66E4BEC6EF0006EC0
:1033F000050EE15E005004016251631110E1BF0E41
:10340000E66E8C0EE66E000EE66E000EE66E020EA6
:10341000E66E4BEC6EF0006E050EE15E0050010EA4
:10342000E66E020EE66EE66AB7EC00F0E552E55293
:10343000E552DB0EE66E8C0EE66E000EE66E000EBA
:10344000E66E020EE66E4BEC6EF0006E050EE15E6F
:10345000005004016051611110E1A10EE66E8C0E66
:10346000E66E000EE66E000EE66E020EE66E4BECA9
:103470006EF0006E050EE15E0050010EE66E030E6A
:10348000E66EE66AB7EC00F0E552E552E552010E51
:10349000E66E010EE66E8CEC69F0E552E552020E26
:1034A000E66E56EC5EF0E5520400000160A5F7D729
:1034B000E66A010EE66E8CEC69F0E552E55274ECBA
:1034C00069F0010EE66EECEC14F0E5524CEC5EF0A7
:1034D000060EE66EE66AE66AE66A6AEC01F0E55216
:1034E000E552E552E5528B920601010E1B6F060173
:1034F000206B20C6E6FF7AEC69F0E5521CC6E6FFB9
:103500002FEC6AF0E5527B0EE66E8C0EE66E000E36
:10351000E66E33EC70F0E552E552E55296EF2AF094
:1035200074EC69F0060EE66EE66AE66AE66A6AEC34
:1035300001F0E552E552E552E5526AEC69F0010E00
:10354000E66EE66AE66AE66A6AEC01F0E552E55282
:10355000E552E5520F0EDB6A100EDB6A77EC69F07C
:10356000010EE66ED950040FE96EDACFEAFFEECF16
:10357000E6FFEECFE6FFEECFE6FFEFCFE6FF6DEC26
:1035800002F0006E050EE15E00505AEC36F020C6E7
:10359000E6FF7AEC69F0E552D9CFE9FFDACFEAFF2E
:1035A000EECF00F0EECF01F0EECF02F0EFCF03F060
:1035B000D00E2F6E070E306E316A326A00C02AF0CC
:1035C00001C02BF002C02CF003C02DF05BEC71F0B9
:1035D00026C000F027C001F028C002F029C003F087
:1035E000005001100210031001E0B3D27AEC36F063
:1035F000000901E1DBD0810EE96E000EEA6EEE50AB
:103600000001755D046EEE5000017659056EEE50B6
:1036100000017759066EEE5000017859076E04C01C
:10362000E6FF05C0E6FF06C0E6FF07C0E6FFD7ECF1
:1036300008F0E552E552E552E5522AC000F02BC0F1
:1036400001F02CC002F02DC003F000C0E6FF01C065
:10365000E6FF02C0E6FF03C0E6FF7D0EE96E000E46
:10366000EA6EEE500001715D0C6EEE500001725971
:103670000D6EEE50000173590E6EEE50000174593C
:103680000F6E0CC0E6FF0DC0E6FF0EC0E6FF0FC0D8
:10369000E6FFD7EC08F0E552E552E552E5522AC0C4
:1036A00008F02BC009F02CC00AF02DC00BF008C0A8
:1036B000E6FF09C0E6FF0AC0E6FF0BC0E6FF790E91
:1036C000E96E000EEA6EEE5000016D5D146EEE5074
:1036D00000016E59156EEE5000016F59166EEE50D6
:1036E00000017059176E14C0E6FF15C0E6FF16C042
:1036F000E6FF17C0E6FFD7EC08F0E552E552E552C9
:10370000E5522AC010F02BC011F02CC012F02DC0D1
:1037100013F010C0E6FF11C0E6FF12C0E6FF13C0B1
:10372000E6FF5E0EE66E8C0EE66E000EE66E000E96
:10373000E66E020EE66E4BEC6EF0186E110EE15E58
:103740001850000EE66E020EE66EEDEC70F0E552DB
:10375000E5520001915128E00001925125E000015D
:10376000935122E006011C5107E0010EF36E0F0E8B
:10377000F3CFDBFF100EDB6A390EE66E8C0EE66EC1
:10378000000EE66E000EE66E020EE66E4BEC6EF07C
:10379000006E050EE15E0050000EE66E020EE66E53
:1037A000EDEC70F0E552E5525AEC36F0000160A500
:1037B00031D074EC69F0010EE66EECEC14F0E552D9
:1037C0004CEC5EF0060EE66EE66AE66AE66A6AECC5
:1037D00001F0E552E552E552E5528B920601010EE9
:1037E0001B6F0601206B20C6E6FF7AEC69F0E552FC
:1037F0001CC6E6FF2FEC6AF0E5522A0EE66E8E0E2E
:10380000E66E000EE66E33EC70F0E552E552E552DE
:1038100096EF2AF0A0EC2AF0D9CFE9FFDACFEAFF41
:10382000EECFE6FFEECFE6FFEECFE6FFEFCFE6FF0F
:10383000210EE66E8C0EE66E000EE66E000EE66E53
:10384000020EE66E4BEC6EF0006E090EE15E00506B
:10385000010EE66EE66A3CC6E6FFB7EC00F0E55204
:10386000E552E552020E06011C5D5AE09D0EE66E21
:10387000920EE66E000EE66E000EE66E020EE66E2C
:103880004BEC6EF0006E050EE15E00500401065137
:1038900046E085C0E6FF86C0E6FF87C0E6FF88C039
:1038A000E6FF24C400F025C401F00A0E316E326A2E
:1038B00000C02CF001C02DF012EC66F02CC000F01E
:1038C0002DC001F000C0E6FF01C0E6FF34C402F0E5
:1038D00035C403F00A0E316E326A02C02CF003C008
:1038E0002DF012EC66F02CC002F02DC003F002C0E7
:1038F000E6FF03C0E6FF0EC4E6FF0FC4E6FFF90EC5
:10390000E66E8B0EE66E000EE66E000EE66E020EA2
:10391000E66E4BEC6EF0046E0F0EE15E045049D083
:103920000401065146E085C0E6FF86C0E6FF87C079
:10393000E6FF88C0E6FF24C400F025C401F00A0EAB
:10394000316E326A00C02CF001C02DF012EC66F02E
:103950002CC000F02DC001F000C0E6FF01C0E6FF62
:1039600034C402F035C403F00A0E316E326A02C06C
:103970002CF003C02DF012EC66F02CC002F02DC02C
:1039800003F002C0E6FF03C0E6FF0EC4E6FF0FC46B
:10399000E6FFD10EE66E8B0EE66E000EE66E000EB2
:1039A000E66E020EE66E4BEC6EF0046E0F0EE15EFC
:1039B0000450010EE66E010EE66EE66AB7EC00F00A
:1039C000E552E552E5529D0EE66E920EE66E000E51
:1039D000E66E000EE66E020EE66E4BEC6EF0006ECA
:1039E000050EE15E00500401405146E089C0E6FF4B
:1039F0008AC0E6FF8BC0E6FF8CC0E6FF5EC400F025
:103A00005FC401F00A0E316E326A00C02CF001C0B2
:103A10002DF012EC66F02CC000F02DC001F000C0BB
:103A2000E6FF01C0E6FF6EC402F06FC403F00A0EA9
:103A3000316E326A02C02CF003C02DF012EC66F039
:103A40002CC002F02DC003F002C0E6FF03C0E6FF69
:103A500048C4E6FF49C4E6FFA90EE66E8B0EE66E8B
:103A6000000EE66E000EE66E020EE66E4BEC6EF099
:103A7000046E0F0EE15E0450010EE66E020EE66E5D
:103A8000E66AB7EC00F0E552E552E5529D0EE66EAF
:103A9000920EE66E000EE66E000EE66E020EE66E0A
:103AA0004BEC6EF0006E050EE15E005004017A51A1
:103AB00046E08DC0E6FF8EC0E6FF8FC0E6FF90C0F7
:103AC000E6FF98C400F099C401F00A0E316E326A24
:103AD00000C02CF001C02DF012EC66F02CC000F0FC
:103AE0002DC001F000C0E6FF01C0E6FFA8C402F04F
:103AF000A9C403F00A0E316E326A02C02CF003C072
:103B00002DF012EC66F02CC002F02DC003F002C0C4
:103B1000E6FF03C0E6FF82C4E6FF83C4E6FF810E32
:103B2000E66E8B0EE66E000EE66E000EE66E020E80
:103B3000E66E4BEC6EF0046E0F0EE15E0450010E6B
:103B4000E66E030EE66EE66AB7EC00F0E552E5526B
:103B5000E552D9CFE9FFDACFEAFFEE2A000EEE22D6
:103B6000EE22EE22E66AD950040FE96EDACFEAFFC0
:103B7000EECFE6FFEECFE6FFEECFE6FFEFCFE6FFBC
:103B80006DEC02F0006E050EE15E0050000909E1E7
:103B9000D9500F0FE96EDACFEAFFEE50ED1001E1D8
:103BA000F6D474EC69F0060EE66EE66AE66AE66A3A
:103BB0006AEC01F0E552E552E552E55271EC69F02C
:103BC000010EE66EE66AE66AE66A6AEC01F0E55224
:103BD000E552E552E5520F0EDB6A100EDB6A060174
:103BE0001C5101E129D377EC69F0010EE66ED95042
:103BF000040FE96EDACFEAFFEECFE6FFEECFE6FF85
:103C0000EECFE6FFEFCFE6FF6DEC02F0006E050EA3
:103C1000E15E0050DE6ADE6ADE6ADD6ADD52DD5298
:103C20005AEC36F020C6E6FF7AEC69F0E552D9CFBF
:103C3000E9FFDACFEAFFEECF00F0EECF01F0EECFF2
:103C400002F0EFCF03F0D00E2F6E070E306E316A08
:103C5000326A00C02AF001C02BF002C02CF003C071
:103C60002DF05BEC71F026C000F027C001F028C0F9
:103C700002F029C003F0005001100210031001E00F
:103C8000B3D27AEC36F0000901E1DBD0810EE96EA7
:103C9000000EEA6EEE500001755D046EEE500001FC
:103CA0007659056EEE5000017759066EEE50000110
:103CB0007859076E04C0E6FF05C0E6FF06C0E6FFC0
:103CC00007C0E6FFD7EC08F0E552E552E552E552B1
:103CD0002AC000F02BC001F02CC002F02DC003F070
:103CE00000C0E6FF01C0E6FF02C0E6FF03C0E6FF3A
:103CF0007D0EE96E000EEA6EEE500001715D0C6EF5
:103D0000EE50000172590D6EEE50000173590E6EA7
:103D1000EE50000174590F6E0CC0E6FF0DC0E6FFB7
:103D20000EC0E6FF0FC0E6FFD7EC08F0E552E55203
:103D3000E552E5522AC008F02BC009F02CC00AF069
:103D40002DC00BF008C0E6FF09C0E6FF0AC0E6FF81
:103D50000BC0E6FF790EE96E000EEA6EEE50000130
:103D60006D5D146EEE5000016E59156EEE5000013F
:103D70006F59166EEE5000017059176E14C0E6FFB1
:103D800015C0E6FF16C0E6FF17C0E6FFD7EC08F047
:103D9000E552E552E552E5522AC010F02BC011F071
:103DA0002CC012F02DC013F010C0E6FF11C0E6FFCA
:103DB00012C0E6FF13C0E6FF5E0EE66E8C0EE66EE6
:103DC000000EE66E000EE66E020EE66E4BEC6EF036
:103DD000186E110EE15E1850000EE66E020EE66ED1
:103DE000EDEC70F0E552E5520001915128E0000140
:103DF000925125E00001935122E006011C5107E099
:103E0000010EF36E0F0EF3CFDBFF100EDB6A390EDF
:103E1000E66E8C0EE66E000EE66E000EE66E020E8C
:103E2000E66E4BEC6EF0006E050EE15E0050000E8B
:103E3000E66E020EE66EEDEC70F0E552E5525AECDD
:103E400036F0000160A531D074EC69F0010EE66E29
:103E5000ECEC14F0E5524CEC5EF0060EE66EE66A11
:103E6000E66AE66A6AEC01F0E552E552E552E5528F
:103E70008B920601010E1B6F0601206B20C6E6FF28
:103E80007AEC69F0E5521CC6E6FF2FEC6AF0E552C9
:103E90002A0EE66E8E0EE66E000EE66E33EC70F0C5
:103EA000E552E552E55296EF2AF0A0EC2AF0D9CF80
:103EB000E9FFDACFEAFFEECFE6FFEECFE6FFEECF87
:103EC000E6FFEFCFE6FF6A0EE66E8B0EE66E000EA3
:103ED000E66E000EE66E020EE66E4BEC6EF0006EC5
:103EE000090EE15E0050010EE66EE66A3CC6E6FF92
:103EF000B7EC00F0E552E552E5529D0EE66E920EEB
:103F0000E66E000EE66E000EE66E020EE66E4BECFE
:103F10006EF0006E050EE15E0050020E06011C5DA3
:103F20004AE00401065146E085C0E6FF86C0E6FF90
:103F300087C0E6FF88C0E6FF24C400F025C401F076
:103F40000A0E316E326A00C02CF001C02DF012EC66
:103F500066F02CC000F02DC001F000C0E6FF01C0EB
:103F6000E6FF34C402F035C403F00A0E316E326A43
:103F700002C02CF003C02DF012EC66F02CC002F051
:103F80002DC003F002C0E6FF03C0E6FF0EC4E6FF4B
:103F90000FC4E6FFF90EE66E8B0EE66E000EE66EBF
:103FA000000EE66E020EE66E4BEC6EF0046E0F0E27
:103FB000E15E045049D00401065146E085C0E6FFA9
:103FC00086C0E6FF87C0E6FF88C0E6FF24C400F095
:103FD00025C401F00A0E316E326A00C02CF001C017
:103FE0002DF012EC66F02CC000F02DC001F000C0E6
:103FF000E6FF01C0E6FF34C402F035C403F00A0E48
:10400000316E326A02C02CF003C02DF012EC66F063
:104010002CC002F02DC003F002C0E6FF03C0E6FF93
:104020000EC4E6FF0FC4E6FFD10EE66E8B0EE66E01
:10403000000EE66E000EE66E020EE66E4BEC6EF0C3
:10404000046E0F0EE15E0450010EE66E010EE66E88
:10405000E66AB7EC00F0E552E552E5529D0EE66ED9
:10406000920EE66E000EE66E000EE66E020EE66E34
:104070004BEC6EF0006E050EE15E00500401405105
:1040800046E089C0E6FF8AC0E6FF8BC0E6FF8CC031
:10409000E6FF5EC400F05FC401F00A0E316E326AC2
:1040A00000C02CF001C02DF012EC66F02CC000F026
:1040B0002DC001F000C0E6FF01C0E6FF6EC402F0B3
:1040C0006FC403F00A0E316E326A02C02CF003C0D6
:1040D0002DF012EC66F02CC002F02DC003F002C0EF
:1040E000E6FF03C0E6FF48C4E6FF49C4E6FFA90EA9
:1040F000E66E8B0EE66E000EE66E000EE66E020EAB
:10410000E66E4BEC6EF0046E0F0EE15E0450010E95
:10411000E66E020EE66EE66AB7EC00F0E552E55296
:10412000E5529D0EE66E920EE66E000EE66E000EF5
:10413000E66E020EE66E4BEC6EF0006E050EE15E72
:10414000005004017A5146E08DC0E6FF8EC0E6FFC4
:104150008FC0E6FF90C0E6FF98C400F099C401F05C
:104160000A0E316E326A00C02CF001C02DF012EC44
:1041700066F02CC000F02DC001F000C0E6FF01C0C9
:10418000E6FFA8C402F0A9C403F00A0E316E326A39
:1041900002C02CF003C02DF012EC66F02CC002F02F
:1041A0002DC003F002C0E6FF03C0E6FF82C4E6FFB5
:1041B00083C4E6FF810EE66E8B0EE66E000EE66EA1
:1041C000000EE66E020EE66E4BEC6EF0046E0F0E05
:1041D000E15E0450010EE66E030EE66EE66AB7EC91
:1041E00000F0E552E552E552D9CFE9FFDACFEAFF18
:1041F000EE2A000EEE22EE22EE22E66AD950040FDD
:10420000E96EDACFEAFFEECFE6FFEECFE6FFEECFC4
:10421000E6FFEFCFE6FF6DEC02F0006E050EE15E0B
:104220000050000909E1D9500F0FE96EDACFEAFF1B
:10423000EE50ED1001E1F6D40CEF26F00501296BEC
:104240002A6B2B6B2C6B080E29C5DBFF090E2AC5C8
:10425000DBFF0A0E2BC5DBFF0B0E2CC5DBFF77EC5B
:1042600069F0140EE66EE66AE66AE66A6AEC01F048
:10427000E552E552E552E552DE6ADE6ADE6ADD6A43
:10428000DD52DD52D9CFE9FFDACFEAFFDE0EEE5C78
:10429000030EEE58000EEE58000EEE5801E31AD150
:1042A000D9CFE9FFDACFEAFFEECFE6FFEECFE6FFA8
:1042B000EECFE6FFEFCFE6FF6A0EE66E8B0EE66E00
:1042C000000EE66E000EE66E020EE66E4BEC6EF031
:1042D000006E090EE15E0050010EE66EE66A3CC615
:1042E000E6FFB7EC00F0E552E552E5529D0EE66EB2
:1042F000920EE66E000EE66E000EE66E020EE66EA2
:104300004BEC6EF0006E050EE15E005004010651AC
:1043100018E029C5E6FF2AC5E6FF2BC5E6FF2CC538
:10432000E6FF480EE66E8B0EE66E000EE66E000EA1
:10433000E66E020EE66E4BEC6EF0006E090EE15E6C
:104340000050010EE66E010EE66EE66AB7EC00F074
:10435000E552E552E5529D0EE66E920EE66E000EB7
:10436000E66E000EE66E020EE66E4BEC6EF0006E30
:10437000050EE15E0050010EE66E020EE66EE66A84
:10438000B7EC00F0E552E552E552010EE66E030E81
:10439000E66EE66AB7EC00F0E552E552E552010E32
:1043A000E66EE66AE66AE66A6AEC01F0E552E55214
:1043B000E552E552D9CFE9FFDACFEAFFEECF00F0C0
:1043C000EECF01F0EECF02F0EFCF03F0190E2F6E1B
:1043D000306A316A326A00C02AF001C02BF002C094
:1043E0002CF003C02DF05BEC71F026C000F027C06C
:1043F00001F028C002F029C003F0005001100210A3
:1044000003102AE1D950080FE96EDACFEAFFEE5027
:10441000050129190CE1EE5005012A1908E1EE50B9
:1044200005012B1904E1EE5005012C1900E108E10A
:10443000E80EDE6E030EDE6EDE6ADD6ADD52DD52F0
:10444000080E29C5DBFF090E2AC5DBFF0A0E2BC5A6
:10445000DBFF0B0E2CC5DBFF000160A531D074EC37
:1044600069F0010EE66EECEC14F0E5524CEC5EF0F7
:10447000060EE66EE66AE66AE66A6AEC01F0E55266
:10448000E552E552E5528B920601010E1B6F0601C3
:10449000206B20C6E6FF7AEC69F0E5521CC6E6FF09
:1044A0002FEC6AF0E5522A0EE66E8E0EE66E000ED6
:1044B000E66E33EC70F0E552E552E55296EF2AF0E5
:1044C000D9CFE9FFDACFEAFFEE2A000EEE22EE2284
:1044D000EE22D8D674EC69F0060EE66EE66AE66A5D
:1044E000E66A6AEC01F0E552E552E552E5526AEC03
:1044F00069F0010EE66EE66AE66AE66A6AEC01F0C9
:10450000E552E552E552E5520501296B2A6B2B6B0A
:104510002C6B080E29C5DBFF090E2AC5DBFF0A0E2E
:104520002BC5DBFF0B0E2CC5DBFF77EC69F0140EFF
:10453000E66EE66AE66AE66A6AEC01F0E552E55282
:10454000E552E552DE6ADE6ADE6ADD6ADD52DD5280
:10455000D9CFE9FFDACFEAFFDE0EEE5C030EEE58AC
:10456000000EEE58000EEE5801E31AD1D9CFE9FF44
:10457000DACFEAFFEECFE6FFEECFE6FFEECFE6FFC3
:10458000EFCFE6FF210EE66E8C0EE66E000EE66EB5
:10459000000EE66E020EE66E4BEC6EF0006E090E3B
:1045A000E15E0050010EE66EE66A3CC6E6FFB7EC3F
:1045B00000F0E552E552E5529D0EE66E920EE66E73
:1045C000000EE66E000EE66E020EE66E4BEC6EF02E
:1045D000006E050EE15E00500401065118E029C589
:1045E000E6FF2AC5E6FF2BC5E6FF2CC5E6FF480E11
:1045F000E66E8B0EE66E000EE66E000EE66E020EA6
:10460000E66E4BEC6EF0006E090EE15E0050010E9E
:10461000E66E010EE66EE66AB7EC00F0E552E55292
:10462000E5529D0EE66E920EE66E000EE66E000EF0
:10463000E66E020EE66E4BEC6EF0006E050EE15E6D
:104640000050010EE66E020EE66EE66AB7EC00F070
:10465000E552E552E552010EE66E030EE66EE66A9D
:10466000B7EC00F0E552E552E552010EE66EE66A5F
:10467000E66AE66A6AEC01F0E552E552E552E55277
:10468000D9CFE9FFDACFEAFFEECF00F0EECF01F0AD
:10469000EECF02F0EFCF03F0190E2F6E306A316AC1
:1046A000326A00C02AF001C02BF002C02CF003C017
:1046B0002DF05BEC71F026C000F027C001F028C09F
:1046C00002F029C003F000500110021003102AE18B
:1046D000D950080FE96EDACFEAFFEE50050129192B
:1046E0000CE1EE5005012A1908E1EE5005012B19E5
:1046F00004E1EE5005012C1900E108E1E80EDE6E40
:10470000030EDE6EDE6ADD6ADD52DD52080E29C55B
:10471000DBFF090E2AC5DBFF0A0E2BC5DBFF0B0EE4
:104720002CC5DBFF000160A531D074EC69F0010EEF
:10473000E66EECEC14F0E5524CEC5EF0060EE66E24
:10474000E66AE66AE66A6AEC01F0E552E552E5528D
:10475000E5528B920601010E1B6F0601206B20C6ED
:10476000E6FF7AEC69F0E5521CC6E6FF2FEC6AF032
:10477000E5522A0EE66E8E0EE66E000EE66E33EC05
:1047800070F0E552E552E55296EF2AF0D9CFE9FFF5
:10479000DACFEAFFEE2A000EEE22EE22EE22D8D683
:1047A00029C535F52AC536F52BC537F52CC538F59D
:1047B00074EC69F006011B6B0601206B35C52AF00D
:1047C00036C52BF037C52CF038C52DF0A2EC64F0BF
:1047D0002BC000F02CC001F02DC002F02EC003F061
:1047E0000A0E306ED70E316E230E326E3C0E336ED3
:1047F00000C02BF001C02CF002C02DF003C02EF041
:10480000A5EC65F0E4EC66F02AC010F52BC011F5BC
:104810002CC012F52DC013F59BEC0CF035C52AF019
:1048200036C52BF037C52CF038C52DF0A2EC64F05E
:104830002BC000F02CC001F02DC002F02EC003F000
:10484000FA0E306E7E0E316E2A0E326E3F0E336ED1
:1048500000C02BF001C02CF002C02DF003C02EF0E0
:10486000A5EC65F0E4EC66F02AC010F52BC011F55C
:104870002CC012F52DC013F5290EE96E050EEA6E57
:10488000EE500501105D006EEE5005011159016EEC
:10489000EE5005011259026EEE5005011359036ED8
:1048A000060178513A0DF3CFE9FFF4CFEAFF000E8D
:1048B000E926040EEA220D0EE926000EEA22050E74
:1048C000E926000EEA2200C0EEFF01C0EDFF9BECDE
:1048D0000CF035C52AF036C52BF037C52CF038C59D
:1048E0002DF0A2EC64F02BC000F02CC001F02DC024
:1048F00002F02EC003F0FA0E306E7E0E316EAA0E5C
:10490000326E3E0E336E00C02BF001C02CF002C0A0
:104910002DF003C02EF0A5EC65F0E4EC66F02AC0A3
:1049200010F52BC011F52CC012F52DC013F5290E72
:10493000E96E050EEA6EEE500501105D006EEE5058
:1049400005011159016EEE5005011259026EEE502B
:1049500005011359036E060178513A0DF3CFE9FFB3
:10496000F4CFEAFF000EE926040EEA220D0EE92636
:10497000000EEA22050EE926000EEA2200C0EEFF34
:1049800001C0EDFF9BEC0CF035C52AF036C52BF0CD
:1049900037C52CF038C52DF0A2EC64F02BC000F028
:1049A0002CC001F02DC002F02EC003F0660E306E58
:1049B000660E316E660E326E3F0E336E00C02BF007
:1049C00001C02CF002C02DF003C02EF0A5EC65F064
:1049D000E4EC66F02AC010F52BC011F52CC012F5DE
:1049E0002DC013F5290EE96E050EEA6EEE50050195
:1049F000105D006EEE5005011159016EEE5005017B
:104A00001259026EEE5005011359036E06017851DA
:104A10003A0DF3CFE9FFF4CFEAFF000EE926040ECA
:104A2000EA220D0EE926000EEA22050EE926000E06
:104A3000EA2200C0EEFF01C0EDFF9BEC0CF035C593
:104A40002AF036C52BF037C52CF038C52DF0A2EC76
:104A500064F02BC000F02CC001F02DC002F02EC07D
:104A600003F0CD0E306ECC0E316ECC0E326E3D0E9C
:104A7000336E00C02BF001C02CF002C02DF003C03B
:104A80002EF0A5EC65F0E4EC66F02AC010F52BC022
:104A900011F52CC012F52DC013F5290EE96E050E87
:104AA000EA6EEE500501105D006EEE5005011159E1
:104AB000016EEE5005011259026EEE5005011359B8
:104AC000036E060178513A0DF3CFE9FFF4CFEAFF08
:104AD000000EE926040EEA220D0EE926000EEA2257
:104AE000050EE926000EEA2200C0EEFF01C0EDFF30
:104AF0009BEC0CF035C52AF036C52BF037C52CF0F1
:104B000038C52DF0A2EC64F02BC000F02CC001F0F1
:104B10002DC002F02EC003F0306A316A326A3F0EB7
:104B2000336E00C02BF001C02CF002C02DF003C08A
:104B30002EF0A5EC65F0E4EC66F02AC010F52BC071
:104B400011F52CC012F52DC013F5290EE96E050ED6
:104B5000EA6EEE500501105D006EEE500501115930
:104B6000016EEE5005011259026EEE500501135907
:104B7000036E060178513A0DF3CFE9FFF4CFEAFF57
:104B8000000EE926040EEA220D0EE926000EEA22A6
:104B9000050EE926000EEA2200C0EEFF01C0EDFF7F
:104BA0009BEC0CF0DE6ADE6ADE6ADD6ADD52DD5205
:104BB000D9CFE9FFDACFEAFF030EEE5C000EEE5824
:104BC000000EEE58000EEE5827E2DFCFE9FF010E8F
:104BD000DBCFEAFF3A0EEA02F3CFEAFF3A0EE90230
:104BE000F3CFE9FFF450EA26000EE926040EEA228C
:104BF0000D0EE926000EEA221D0EE926000EEA221D
:104C0000EE6AED6AD9CFE9FFDACFEAFFEE2A000EAD
:104C1000EE22EE22EE22CCD7DE6ADE6ADE6ADD6AA2
:104C2000DD52DD52D9CFE9FFDACFEAFF030EEE5CA9
:104C3000000EEE58000EEE58000EEE5801E3FBD2C7
:104C400006011C5101E000D1DFCFE9FF010EDBCFEF
:104C5000EAFF3A0EEA02F3CFEAFF3A0EE902F3CF97
:104C6000E9FFF450EA26000EE926040EEA220D0EB2
:104C7000E926000EEA22090EE926000EEA22EECF0E
:104C800000F0EFCF01F0DFCFE9FF010EDBCFEAFF4D
:104C90003A0EEA02F3CFEAFF3A0EE902F3CFE9FF58
:104CA000F450EA26000EE926040EEA220D0EE9264B
:104CB000000EEA220B0EE926000EEA22EECF02F0E9
:104CC000EFCF03F003500118E8AE02D0013404D056
:104CD0000050025C0150035837E2DFCFE9FF010EBC
:104CE000DBCFEAFF3A0EEA02F3CFEAFF3A0EE9021F
:104CF000F3CFE9FFF450EA26000EE926040EEA227B
:104D0000060EE926000EEA22EF501EE0DFCFE9FF93
:104D1000010EDBCFEAFF3A0EEA02F3CFEAFF3A0ECA
:104D2000E902F3CFE9FFF450EA26000EE926040E6B
:104D3000EA220D0EE926000EEA221D0EE926000EDB
:104D4000EA22010EEE6EED6ADFCFE9FF010EDBCF46
:104D5000EAFF3A0EEA02F3CFEAFF3A0EE902F3CF96
:104D6000E9FFF450EA26000EE926040EEA220D0EB1
:104D7000E926000EEA22170EE926000EEA22EECFFF
:104D800000F0EFCF01F0DFCFE9FF010EDBCFEAFF4C
:104D90003A0EEA02F3CFEAFF3A0EE902F3CFE9FF57
:104DA000F450EA26000EE926040EEA220D0EE9264A
:104DB000000EEA220D0EE926000EEA22EECF02F0E6
:104DC000EFCF03F001500318E8AE02D0033404D053
:104DD0000250005C0350015837E2DFCFE9FF010EBB
:104DE000DBCFEAFF3A0EEA02F3CFEAFF3A0EE9021E
:104DF000F3CFE9FFF450EA26000EE926040EEA227A
:104E0000060EE926000EEA22EF501EE0DFCFE9FF92
:104E1000010EDBCFEAFF3A0EEA02F3CFEAFF3A0EC9
:104E2000E902F3CFE9FFF450EA26000EE926040E6A
:104E3000EA220D0EE926000EEA221D0EE926000EDA
:104E4000EA22010EEE6EED6ADFCFE9FF010EDBCF45
:104E5000EAFF3A0EEA02F3CFEAFF3A0EE902F3CF95
:104E6000E9FFF450EA26000EE926040EEA220D0EB0
:104E7000E926000EEA221D0EE926000EEA22EE5077
:104E8000ED105CE1DFCFE9FF010EDBCFEAFF3A0E68
:104E9000EA02F3CFEAFF3A0EE902F3CFE9FFF4505A
:104EA000EA26000EE926040EEA220D0EE926000E7F
:104EB000EA22190EE926000EEA22010EEE6EED6AD4
:104EC000DFCFE9FF010EDBCFEAFF3A0EEA02F3CFB4
:104ED000EAFF3A0EE902F3CFE9FFF450EA26000EAA
:104EE000E926040EEA220D0EE926000EEA221B0E28
:104EF000E926000EEA22010EEE6EED6ADFCFE9FF31
:104F0000010EDBCFEAFF3A0EEA02F3CFEAFF3A0ED8
:104F1000E902F3CFE9FFF450EA26000EE926040E79
:104F2000EA220D0EE926000EEA22290EE926000EDD
:104F3000EA22F40EEE6E010EED6E73D1DFCFE9FFC3
:104F4000010EDBCFEAFF3A0EEA02F3CFEAFF3A0E98
:104F5000E902F3CFE9FFF450EA26000EE926040E39
:104F6000EA22060EE926000EEA22EF5001E159D1AD
:104F700000016095020E06011C5D08E0000EDB508A
:104F8000580FE76E0C0EE7CFDBFF05D0410EF36E36
:104F90000C0EF3CFDBFF0C0EDBCF00F0016A00BE7E
:104FA000016800C0E6FF01C0E6FF320EE66E8B0E20
:104FB000E66E000EE66E000EE66E020EE66E4BEC3E
:104FC0006EF0026E070EE15E0250010EE66EE66ABA
:104FD0003CC6E6FFB7EC00F0E552E552E552DFCF04
:104FE000E9FF010EDBCFEAFF3A0EEA02F3CFEAFF58
:104FF0003A0EE902F3CFE9FFF450EA26000EE92663
:10500000040EEA220D0EE926000EEA220B0EE92616
:10501000000EEA22EECFE6FFEFCFE6FFDFCFE9FF9B
:10502000010EDBCFEAFF3A0EEA02F3CFEAFF3A0EB7
:10503000E902F3CFE9FFF450EA26000EE926040E58
:10504000EA220D0EE926000EEA22090EE926000EDC
:10505000EA22EECFE6FFEFCFE6FF1C0EE66E8B0EE8
:10506000E66E000EE66E000EE66E020EE66E4BEC8D
:105070006EF0006E090EE15E0050010EE66E010E4C
:10508000E66EE66AB7EC00F0E552E552E552DFCF96
:10509000E9FF010EDBCFEAFF3A0EEA02F3CFEAFFA7
:1050A0003A0EE902F3CFE9FFF450EA26000EE926B2
:1050B000040EEA220D0EE926000EEA220D0EE92664
:1050C000000EEA22EECFE6FFEFCFE6FFDFCFE9FFEB
:1050D000010EDBCFEAFF3A0EEA02F3CFEAFF3A0E07
:1050E000E902F3CFE9FFF450EA26000EE926040EA8
:1050F000EA220D0EE926000EEA22170EE926000E1E
:10510000EA22EECFE6FFEFCFE6FF060EE66E8B0E4D
:10511000E66E000EE66E000EE66E020EE66E4BECDC
:105120006EF0006E090EE15E0050010EE66E020E9A
:10513000E66EE66AB7EC00F0E552E552E552DFCFE5
:10514000E9FF010EDBCFEAFF3A0EEA02F3CFEAFFF6
:105150003A0EE902F3CFE9FFF450EA26000EE92601
:10516000040EEA220D0EE926000EEA220F0EE926B1
:10517000000EEA22EECFE6FFEFCFE6FFDFCFE9FF3A
:10518000010EDBCFEAFF3A0EEA02F3CFEAFF3A0E56
:10519000E902F3CFE9FFF450EA26000EE926040EF7
:1051A000EA220D0EE926000EEA22150EE926000E6F
:1051B000EA22EECFE6FFEFCFE6FFEF0EE66E8A0EB5
:1051C000E66E000EE66E000EE66E020EE66E4BEC2C
:1051D0006EF0006E090EE15E0050010EE66E030EE9
:1051E000E66EE66AB7EC00F0E552E552E552010ED4
:1051F000E66E010EE66E8CEC69F0E552E552020EA9
:10520000E66E56EC5EF0E5520400000160A5F7D7AB
:10521000E66A010EE66E8CEC69F0E552E5524CEC64
:105220005EF0D9CFE9FFDACFEAFFEE2A000EEE22D8
:10523000EE22EE22F7D474EC69F0060EE66EE66A12
:10524000E66AE66A6AEC01F0E552E552E552E5529B
:105250008B9206011B6B0601206B4CEC5EF0060185
:10526000265101E052D1DE6ADE6ADE6ADD6ADD5275
:10527000DD52050EE66E56EC5EF0E552DA0EE66E95
:105280008A0EE66E000EE66E000EE66E020EE66E0A
:105290004BEC6EF0006E050EE15E0050010EE66E06
:1052A000E66A3CC6E6FFB7EC00F0E552E552E5528F
:1052B000000160A59DD08F80C50EE66E8A0EE66E59
:1052C000000EE66E000EE66E020EE66E4BEC6EF021
:1052D000006E050EE15E0050010EE66EE66A3CC609
:1052E000E6FFB7EC00F0E552E552E552060EE66E39
:1052F000E66AE66AE66A6AEC01F0E552E552E552D2
:10530000E5524CEC5EF09D0EE66E920EE66E000EDF
:10531000E66E000EE66E020EE66E4BEC6EF0006E70
:10532000050EE15E0050010EE66EE66AE66AB7EC35
:1053300000F0E552E552E5529D0EE66E920EE66EE5
:10534000000EE66E000EE66E020EE66E4BEC6EF0A0
:10535000006E050EE15E0050010EE66E010EE66E77
:10536000E66AB7EC00F0E552E552E5529D0EE66EB6
:10537000920EE66E000EE66E000EE66E020EE66E11
:105380004BEC6EF0006E050EE15E0050010EE66E15
:10539000020EE66EE66AB7EC00F0E552E552E55221
:1053A0009D0EE66E920EE66E000EE66E000EE66E46
:1053B000020EE66E4BEC6EF0006E050EE15E0050E4
:1053C000010EE66E030EE66EE66AB7EC00F0E552FB
:1053D000E552E552020EE66EC3EC11F0E552A00E66
:1053E000DE6E860EDE6E010EDE6EDD6ADD52DD5291
:1053F0000400000100016051040B1BE1D9CFE9FF5B
:10540000DACFEAFFEFCF00F0EE2A000EEFCF01F087
:10541000EE22EFCF02F0EE22EFCF03F0EF22E80E04
:10542000005C030E0158000E0258000E035801E202
:1054300025D79D0EE66E920EE66E000EE66E000E0D
:10544000E66E020EE66E4BEC6EF0006E050EE15E4F
:105450000050010EE66EE66AE66AB7EC00F0E5522F
:10546000E552E5529D0EE66E920EE66E000EE66E79
:10547000000EE66E020EE66E4BEC6EF0006E050E50
:10548000E15E0050010EE66E010EE66EE66AB7ECD4
:1054900000F0E552E552E5529D0EE66E920EE66E84
:1054A000000EE66E000EE66E020EE66E4BEC6EF03F
:1054B000006E050EE15E0050010EE66E020EE66E15
:1054C000E66AB7EC00F0E552E552E5529D0EE66E55
:1054D000920EE66E000EE66E000EE66E020EE66EB0
:1054E0004BEC6EF0006E050EE15E0050010EE66EB4
:1054F000030EE66EE66AB7EC00F0E552E552E552BF
:105500004CEC5EF025EC15F000D006011B6B06019B
:10551000206B4CEC5EF0970EE66E8A0EE66E000E87
:10552000E66E33EC70F0E552E552E552110EE15CA7
:1055300002E2E16AE552E16EE552E7CFD9FF1200DF
:10554000DBEC36F00601285148E0BBC5E6FFBCC5E0
:10555000E6FFB9C5E6FFBAC5E6FFB7C5E6FFB8C5C1
:10556000E6FF3FEC34F051EC34F02DEC34F0620EF9
:10557000E66E8A0EE66E000EE4EC34F048EC34F091
:105580005AEC34F036EC34F03F0EE66E8A0EE66EDE
:10559000000EA9EC35F0110E61EC2FF094EC31F017
:1055A00084C4E6FF85C4E6FF48EC32F06FEC31F0CE
:1055B0004AC4E6FF4BC4E6FFDEEC31F06AEC31F0A2
:1055C00010C4E6FF11C4E6FFD9EC31F0010EE66E1F
:1055D0008A0EE66E000EE4EC34F012000301C80EF1
:1055E000CE6F5DEC30F04DEC32F027E02B0EE66E26
:1055F000F0EC6EF0E5524DEC32F0FDE15DEC30F098
:105600002B0EE66EF0EC6EF0E5524DEC32F0FDE163
:105610000C0EE66EA2EC71F0E5524DEC32F0FDE1BD
:10562000010EE66EA2EC71F0E5525DEC30F0060181
:10563000010E926F0301180ECE6F12000601206B4F
:10564000120EE66E220EE66E8BEC6DF0E552E55220
:10565000EC0EE66E890EE66E000EE66E000EE66E4D
:10566000020EE66E4BEC6EF0006E050EE15E005031
:10567000010EE66EE66AE66AB7EC00F0E552E55226
:10568000E552010EE66E010EE66EE66AB7EC00F03A
:10569000E552E552E552010EE66E020EE66EE66A4E
:1056A000B7EC00F0E552E552E552010EE66E030E4E
:1056B000E66EE66AB7EC00F0E552E552E552120EEE
:1056C000E66E220EE66E36EC6EF0E552E5528F90F5
:1056D00085DF8B68FCAE19D0FC9EB20EE66E9A0E8A
:1056E000E66E000EE66E33EC70F0E552E552E552E0
:1056F00030EC04F0C70EE66E890EE66E000EE66E24
:1057000033EC70F0E552E552E552FCAC19D0FC9C4C
:10571000B20EE66E9A0EE66E000EE66E33EC70F098
:10572000E552E552E55230EC04F09D0EE66E890E2E
:10573000E66E000EE66E33EC70F0E552E552E5528F
:105740000601135118E0B20EE66E9A0EE66E000ED8
:10575000E66E33EC70F0E552E552E55230EC04F0C1
:10576000740EE66E890EE66E000EE66E33EC70F097
:10577000E552E552E5520601145118E0B20EE66E0C
:105780009A0EE66E000EE66E33EC70F0E552E552CE
:10579000E55230EC04F04B0EE66E890EE66E000E1C
:1057A000E66E33EC70F0E552E552E552140EE66E0B
:1057B000E66A330EE66E890EE66E000EE66E000EA9
:1057C000E66E020EE66E57EC6DF0006E070EE15EBF
:1057D0000050010EE66EE66AE66AB7EC00F0E552AC
:1057E000E552E552AD0EE66E9A0EE66E000EE66EDE
:1057F00033EC70F0E552E552E552140EE66EE66ABF
:1058000039C6E6FF3AC6E6FF3BC6E6FF000EE66E87
:10581000020EE66E57EC6DF0006E070EE15E005072
:10582000010EE66E010EE66EE66AB7EC00F0E55298
:10583000E552E552000EE66E020EE66EEDEC70F0FB
:10584000E552E552AB0EE66E9A0EE66E000EE66E7F
:1058500033EC70F0E552E552E552140EE66EE66A5E
:1058600036C6E6FF37C6E6FF38C6E6FF000EE66E30
:10587000020EE66E57EC6DF0006E070EE15E005012
:10588000000EE66E020EE66EEDEC70F0E552E552AB
:10589000010EE66E020EE66EE66AB7EC00F0E55227
:1058A000E552E552140EE66EE66A950EE66E9A0E25
:1058B000E66E000EE66E000EE66E020EE66E57EC29
:1058C0006DF0006E070EE15E0050000EE66E020EF7
:1058D000E66EEDEC70F0E552E552B20EE66E9A0E11
:1058E000E66E000EE66E33EC70F0E552E552E552DE
:1058F000010EE66E030EE66EE66AB7EC00F0E552C6
:10590000E552E55230EC04F0140EE66E890EE66EB8
:10591000000EE66E33EC70F0E552E552E55283A2DC
:1059200003D00601010E286F83A043D030EC04F0B1
:10593000FB0EE66E880EE66E000EE66E33EC70F03F
:10594000E552E552E552000EE66EE66A000EE66E9E
:10595000E66A010EE66EE66A4FEC6CF0006E060E2B
:10596000E15E005030EC04F0DE0EE66E880EE66E6E
:10597000000EE66E33EC70F0E552E552E55203019D
:10598000FD6B0F0E0301FD5D14E2080EE66EE66A84
:105990000301FD51E66EE66A0F0EE66E7F0EE66EBF
:1059A0004FEC6CF0006E060EE15E00500301FD2B23
:1059B000E8D730EC04F0BE0EE66E880EE66E000E00
:1059C000E66E33EC70F0E552E552E552000EE66EFD
:1059D000E66A000EE66EE66A92EC6CF0E552E5527D
:1059E000E552E55259080FE1000EE66EE66A020E36
:1059F000E66EE66A92EC6CF0E552E552E552E5524D
:105A00000301FC6F29D030EC04F09B0EE66E880E8B
:105A1000E66E000EE66E33EC70F0E552E552E552AC
:105A2000000EE66EE66A000EE66EE66A010EE66EAF
:105A3000E66A4FEC6CF0006E060EE15E005030EC52
:105A400004F07B0EE66E880EE66E000EE66E33EC1A
:105A500070F0E552E552E55230EC04F0620EE66E6D
:105A6000880EE66E000EE66E33EC70F0E552E552FD
:105A7000E552080EE66EE66A000EE66EE66A92EC05
:105A80006CF0E552E552E552E552590822E1030176
:105A9000FD6B0F0E0301FD5D1BE20301FD51E66E80
:105AA000E66A0A0EE66EE66A92EC6CF0E552E552A2
:105AB000E552E552E66E0301FD51EA6A810FE96E97
