:020000040000FA
:06000000E4EF72F01200B3
:020006001200E6
:0600080077EF57F0120033
:02000E00C250DE
:08001000020B01E0010E1200D9
:060018000BEF5EF0120088
:02001E000600DA
:100020000BE70000FC0400000200000007E70000EE
:10003000FB0200000400000072E600006000000007
:100040009500000060E60000EA03000012000000D6
:100050005EE60000FA040000020000002EE6000048
:08006000A706000030000000BB
:0800680043EC2EF083E941E8AE
:100070000150050801E2016A005003E07CEC2FF01A
:10008000EF6A01EBACF60001B30E036F9B0E046F39
:10009000000E056FBCEC2FF0E5CF08F0FFEC30F060
:1000A000000177EC32F07CEC2FF0EFCF09F00A6B17
:1000B0000B6B00510925F36E01510A21F46E0251B8
:1000C0000B21F86EF4CFF7FFF3CFF6FF0800F550E1
:1000D000036E7CEC2FF0EF2AEFCF00F0016B026B88
:1000E000EEEC32F002C0E6FFB30E096F9B0E0A6F12
:1000F000000E0B6FBCEC2FF0E5CF0EF0E5CF0DF04E
:10010000E7CF0CF0000109510C25066F0A510D21B3
:10011000076F0B510E21086F16EC34F0E66EB5EC4C
:100120006CF043E9E552E7CF02F0E552E7CF01F08A
:10013000E552E7CF00F0FCC303F0FDC304F0FEC3BB
:1001400005F000010351005D0451015905510259A8
:1001500003E37CEC2FF0EF6A035042E9E7CFD9FFCD
:10016000120043EC2EF084E90001F2514FE0005000
:1001700021E0025001240601AD6F12EC33F0720E43
:10018000E66E9A0EE66E000EE66E82EC2EF008EC3D
:100190006DF047E912EC33F0E1EC33F0060182EC4C
:1001A0002EF0DAEC6CF046E906015EEC32F0140E4B
:1001B00002EC30F00150030A0CE0010A08E0030AE7
:1001C00004E0010A09E1E66A08D0400E03D0140EEB
:1001D00001D0540EE66E01D0E66A62EC70F041E99F
:1001E000015000019C250601AD6F00016A510EE02F
:1001F000C6EC30F0FDE1060182EC2EF091EC71F0DE
:1002000042E9C6EC30F0FDE1010E901656EF2EF0FB
:1002100000016E5104E01BEC42F000016E6B725164
:1002200007E0726BF45102E0000E01D0010EF46F92
:10023000755104E00BEC11F00001756B685103E09F
:10024000A7DA0001686B715104E0FBEC06F00001D5
:10025000716B6F5103E0BDDA00016F6B1200D9CFF3
:10026000E6FFE1CFD9FF85E90401766B776B786B08
:10027000796B04017651005C77510158785102582E
:100280007951035809E3000004000401762B000EA5
:10029000772378237923EDD741E9E7CFD9FF1200FF
:1002A000D9CFE6FFE1CFD9FF85E9030EE66E93ECE7
:1002B0006BF041E992C67AF493C67BF494C67CF461
:1002C00095C67DF4DFEC6BF0D9CFE9FFDACFEAFF1A
:1002D00004017A51EE240401826F04017B51EE2067
:1002E0000401836F04017C51EE200401846F04013A
:1002F0007D51EE200401856F030EE66E93EC6BF0EA
:1003000041E992C67EF493C67FF494C680F495C604
:1003100081F4DFEC6BF004007E0EE96E040EEA6EF1
:1003200004018251EE5C8351EE588451EE588551A0
:10033000EE58E2E341E9E7CFD9FF12003FEC32F09B
:1003400019E074EC2EF092C686F493C687F494C636
:1003500088F495C689F4AFEC2EF004018651EE24A2
:100360008E6F8751EE208F6F8851EE20906F8951EC
:10037000EE20916F74EC2EF092C68AF493C68BF443
:1003800094C68CF495C68DF4DFEC6BF08A0EE96EA2
:10039000040EEA6E04018E51EE5C8F51EE589051BE
:1003A000EE589151EE5802E2000E01D0010E56EFC8
:1003B0002EF03FEC32F019E074EC2EF092C692F47D
:1003C00093C693F494C694F495C695F4AFEC2EF0CE
:1003D00004019251EE249A6F9351EE209B6F945139
:1003E000EE209C6F9551EE209D6F74EC2EF092C61E
:1003F00096F493C697F494C698F495C699F4DFECF6
:100400006BF0960EE96E040EEA6E04019A51EE5CF2
:100410009B51EE589C51EE589D51EE5802E2000E51
:1004200001D0010E56EF2EF03FEC32F019E074ECE3
:100430002EF092C69EF493C69FF494C6A0F495C67F
:10044000A1F4AFEC2EF004019E51EE24A66F9F5153
:10045000EE20A76FA051EE20A86FA151EE20A96F4A
:1004600074EC2EF092C6A2F493C6A3F494C6A4F43E
:1004700095C6A5F4DFEC6BF0A20EE96E040EEA6EF1
:100480000401A651EE5CA751EE58A851EE58A951AF
:10049000EE5802E2000E01D0010E56EF2EF03FECB6
:1004A00032F019E074EC2EF092C6AAF493C6ABF4C5
:1004B00094C6ACF495C6ADF4AFEC2EF00401AA518D
:1004C000EE24B26FAB51EE20B36FAC51EE20B46F9F
:1004D000AD51EE20B56F74EC2EF092C6AEF493C61B
:1004E000AFF494C6B0F495C6B1F4DFEC6BF0AE0E89
:1004F000E96E040EEA6E0401B251EE5CB351EE589F
:10050000B451EE58B551EE5802E2000E01D0010E82
:1005100056EF2EF03FEC32F019E074EC2EF092C65C
:10052000B6F493C6B7F494C6B8F495C6B9F4AFEC74
:100530002EF00401B651EE24BE6FB751EE20BF6F0E
:10054000B851EE20C06FB951EE20C16F74EC2EF09F
:1005500092C6BAF493C6BBF494C6BCF495C6BDF477
:10056000DFEC6BF0BA0EE96E040EEA6E0401BE51C8
:10057000EE5CBF51EE58C051EE58C151EE5802E248
:10058000000E01D0010E56EF2EF03FEC32F019E0D4
:1005900074EC2EF092C6C2F493C6C3F494C6C4F4AD
:1005A00095C6C5F4AFEC2EF00401C251EE24CA6F1B
:1005B000C351EE20CB6FC451EE20CC6FC551EE205D
:1005C000CD6F74EC2EF092C6C6F493C6C7F494C6F1
:1005D000C8F495C6C9F4DFEC6BF0C60EE96E040EE4
:1005E000EA6E0401CA51EE5CCB51EE58CC51EE5884
:1005F000CD51EE5802E2000E01D0010E56EF2EF062
:1006000000000401CE6B0601A7510401CE5D04E297
:1006100000000401CE2BF7D712000F0EE66EEFECB0
:1006200071F041E91200050EE66EEFEC71F041E960
:10063000120043EC2EF082E96CA2FED700EBE6FF3D
:1006400087EC72F041E956EF2EF0050E7DEF2EF0AB
:1006500000016A5101E11200C6EC30F0FDE1120028
:1006600043EC2EF089E903340EE202500808000E34
:10067000035409E204EBFCF305EBFDF306EBFEF398
:1006800007EBFFF35FD00050011009E000018F0E6F
:100690008E6FC20E8F6F750E906F3D0E06D00001EB
:1006A0008E6B8F6B800E906F3E0E916FEBEC31F086
:1006B0008EC0E6FF8FC0E6FF90C0E6FF91C0E6FF68
:1006C000F3EC33F0EBEC31F004EBE6FF05EBE6FF87
:1006D00006EBE6FF07EBE6FFD5EC62F055EC5EF0CB
:1006E000D5EC62F0F3EC33F057EC5EF057EC61F0D0
:1006F000E552E5CF95F0E5CF94F0E5CF93F0E7CF65
:1007000092F065EC2EF092C0EEFF93C0EEFF94C025
:10071000EEFF95C0EEFF001C0DE1011C0BE1000196
:10072000926B936B946B956B65EC2EF0EE6AEE6AB0
:10073000EE6AEE6A92C0FCF393C0FDF394C0FEF340
:1007400095C0FFF356EF2EF004004EC6E6FF4FC6ED
:10075000E6FF50C6E6FF51C6E6FF66DB44E9F3CF8D
:10076000E6FFF4CFE6FF6B0EE66E9A0EE66E000E25
:10077000E66E200EE66E030EE66E1AEC6FF047E9A9
:10078000200EE66E030EE66E3FEC70F042E91200BA
:10079000DBDF3A0EE66EA40EE66E000E48EC31F09A
:1007A0000401236B040123510AE10A0EC2EC31F06B
:1007B00056DD44E9E6EC34F01CEC5EF0F3D7020EB3
:1007C000235DC2DF980EE66EA40EE66E000E48EFC3
:1007D00031F00400680EE66E9A0EE66E000EE66ECC
:1007E000000EE66E020EE66E1AEC6FF045E9000EA2
:1007F000E66E020EE66E3FEC70F042E9A5DF630E96
:10080000E66E9A0EE66E000EE66EEAEC6FF043E9D5
:1008100099C0E6FF9AC0E6FF9BC0E6FF000EE66EB9
:10082000020EE66E9CEC6CF045E9000EE66E020EE0
:10083000E66E3FEC70F042E9610EE66E9A0EE66EEF
:10084000000EE66EEAEC6FF043E996C0E6FF97C053
:10085000E6FF98C0E6FF000EE66E020EE66E9CEC28
:100860006CF045E9000EE66E020EE66E3FEC70F0AD
:1008700042E94B0EE66E9A0EE66E000EE66E000E34
:10088000E66E020EE66E9CEC6CF045E9000EE66E3C
:10089000020EE66E3FEC70F042E900018351E66E15
:1008A000E66A00016051E66EE66A5AC6E6FF5BC67C
:1008B000E6FF5CC6E6FF5DC6E6FF56C6E6FF57C626
:1008C000E6FF58C6E6FF59C6E6FF44C6E6FF45C642
:1008D000E6FF01C6E6FF02C6E6FF03C6E6FF04C662
:1008E000E6FF8350800B01E0010EE66EE66A83505E
:1008F000400B01E0010EE66EE66A8350200B01E03A
:10090000010EE66EE66A8350100B01E0010EE66E02
:10091000E66A8350080B01E0010EE66EE66A83503A
:10092000040B01E0010EE66EE66A8350020B01E063
:10093000010EE66EE66A8350010BE66EE66A000180
:100940006351E66EE66ABC0EE66E990EE66E000E28
:10095000E66E000EE66E020EE66E1AEC6FF069E9C6
:10096000000EE66E020EE66E3FEC70F042E9060104
:10097000A651E66EE66A7850E66EE66A6AC6E6FF5B
:100980006BC6E6FF6CC6E6FF6DC6E6FF4EC6E6FF29
:100990004FC6E6FF50C6E6FF51C6E6FF92C6E6FF29
:1009A00093C6E6FF94C6E6FF95C6E6FF11EC61F03C
:1009B00092C6E6FF93C6E6FF94C6E6FF95C6E6FF3D
:1009C0008EC6E6FF8FC6E6FF90C6E6FF91C6E6FF3D
:1009D00052C6E6FF53C6E6FF54C6E6FF55C6E6FF1D
:1009E0004AC6E6FF4BC6E6FF4CC6E6FF4DC6E6FF2D
:1009F00062C6E6FF63C6E6FF64C6E6FF65C6E6FFBD
:100A00008AC6E6FF8BC6E6FF8CC6E6FF8DC6E6FF0C
:100A100086C6E6FF87C6E6FF88C6E6FF89C6E6FF0C
:100A20006EC6E6FF6FC6E6FF70C6E6FF71C6E6FF5C
:100A30004EC6E6FF4FC6E6FF50C6E6FF51C6E6FFCC
:100A4000FD0EE66E980EE66E000EE66E000EE66E89
:100A5000020EE66E1AEC6FF075E9000EE66E020EFD
:100A6000E66E3FEC70F042E929C4E6FF2AC4E6FFD7
:100A70002BC4E6FF2CC4E6FF66C6E6FF67C6E6FFAA
:100A800068C6E6FF69C6E6FF72C6E6FF73C6E6FF04
:100A900074C6E6FF75C6E6FF76C6E6FF77C6E6FFD4
:100AA00078C6E6FF79C6E6FF7AC6E6FF7BC6E6FFB4
:100AB0007CC6E6FF7DC6E6FF7EC6E6FF7FC6E6FF94
:100AC00080C6E6FF81C6E6FF9E0EE66E980EE66ED5
:100AD000000EE66E000EE66E020EE66E1AEC6FF089
:100AE0005DE9000EE66E020EE66E3FEC70F042E944
:100AF0000401CF6B030E0401CF5D01E36ED104014D
:100B0000CF513C0DF3CFE9FFF4CFEAFF000EE92609
:100B1000050EEA22060EE926000EEA22EF5001E158
:100B200059D10401CF513C0DF3CFE9FFF4CFEAFFD7
:100B3000000EE926050EEA220F0EE926000EEA2233
:100B4000170EE926000EEA22EECFE6FFEECFE6FF13
:100B50000401CF513C0DF3CFE9FFF4CFEAFF000EC3
:100B6000E926050EEA220F0EE926000EEA22150EEE
:100B7000E926000EEA22EECFE6FFEECFE6FF040103
:100B8000CF513C0DF3CFE9FFF4CFEAFF000EE92689
:100B9000050EEA220F0EE926000EEA22290EE926AA
:100BA000000EEA22EECFE6FFEECFE6FF0401CF51C2
:100BB0003C0DF3CFE9FFF4CFEAFF000EE926050E66
:100BC000EA220F0EE926000EEA22270EE926000E81
:100BD000EA22EECFE6FFEECFE6FF0401CF513C0D57
:100BE000F3CFE9FFF4CFEAFF000EE926050EEA2273
:100BF0000F0EE926000EEA22090EE926000EEA226F
:100C0000EECFE6FFEECFE6FF0401CF513C0DF3CF70
:100C1000E9FFF4CFEAFF000EE926050EEA220F0EE7
:100C2000E926000EEA22110EE926000EEA22EECF96
:100C3000E6FFEECFE6FF0401CF513C0DF3CFE9FF15
:100C4000F4CFEAFF000EE926050EEA220F0EE92690
:100C5000000EEA22130EE926000EEA22EECFE6FF8E
:100C6000EECFE6FF0401CF513C0DF3CFE9FFF4CF07
:100C7000EAFF000EE926050EEA220F0EE926000E15
:100C8000EA22050EE926000EEA22EECFE6FFEECFBD
:100C9000E6FF0401CF513C0DF3CFE9FFF4CFEAFFAB
:100CA000000EE926050EEA220F0EE926000EEA22C2
:100CB000030EE926000EEA22EECFE6FFEECFE6FFB6
:100CC0000401CF513C0DF3CFE9FFF4CFEAFF000E52
:100CD000E926050EEA220F0EE926000EEA22EE5260
:100CE000EECFE6FFEECFE6FF0401CF51E66EE66AF7
:100CF000260EE66E980EE66E000EE66E000EE66EAE
:100D0000020EE66E1AEC6FF05BE9000EE66E020E64
:100D1000E66E3FEC70F042E9E66AE66A7A0EE66E4D
:100D2000440EE66E0401CF513C0DF3CFE9FFF4CF42
:100D3000EAFF000EE926050EEA220F0EE926000E54
:100D4000EA221F0EE926000EEA22EECFE6FFEECFE2
:100D5000E6FFEECFE6FFEECFE6FFD5EC62F0CDEC9E
:100D60005FF0E66AE66A7A0EE66E440EE66E04010D
:100D7000CF513C0DF3CFE9FFF4CFEAFF000EE92697
:100D8000050EEA220F0EE926000EEA22230EE926BE
:100D9000000EEA22EECFE6FFEECFE6FFEECFE6FF53
:100DA000EECFE6FFD5EC62F0CDEC5FF0050EE66E1F
:100DB000980EE66E000EE66E000EE66E020EE66E11
:100DC0001AEC6FF049E9000EE66E020EE66E3FEC9B
:100DD00070F042E90401CF2B8DD60001F45109E0F7
:100DE000ED0EE66E970EE66E000EE66EEAEC6FF024
:100DF00043E904001200410EE66EA50EE66E000EF9
:100E000048EC31F08B0EE66EA50EE66E000E48EC57
:100E100031F00001F45107E0ED0EE66E970EE66E3C
:100E2000000E48EC31F0120043EC2EF014EC30F0E0
:100E300002E228EC30F000EBB6F601EBB7F602EB7D
:100E4000B8F603EBB9F683EC2FF0C6EC2FF0E5CF44
:100E5000B1F6E5CFB0F6E5CFAFF6E7CFAEF683EC6F
:100E60002FF031EC30F06AEC32F0CAEC2EF0D9EC15
:100E70002FF0C6EC2FF0E5CFB5F6E5CFB4F6E5CF11
:100E8000B3F6E7CFB2F6D9EC2FF03AEC30F06AECDB
:100E900032F0CAEC2EF016EC33F0E66E3AEC30F09D
:100EA00031EC30F0DB0EE66E970EE66E000ECAEC0B
:100EB00030F051E99CEF32F043EC2EF014EC30F0BE
:100EC00002E228EC30F000EBC2F601EBC3F602EBD5
:100ED000C4F603EBC5F683EC2FF0CDEC2FF0E5CF95
:100EE000BDF6E5CFBCF6E5CFBBF6E7CFBAF683ECAF
:100EF0002FF043EC30F06AEC32F0E3EC2EF0D9EC5A
:100F00002FF0CDEC2FF0E5CFC1F6E5CFC0F6E5CF61
:100F1000BFF6E7CFBEF6D9EC2FF04CEC30F06AEC20
:100F200032F0E3EC2EF04CEC30F043EC30F0CF0E2E
:100F3000E66E970EE66E000ECAEC30F04DE99CEFBF
:100F400032F043EC2EF083E901340EE300EB00F0C5
:100F500001EB01F00001006D011F000E012300C034
:100F6000F3FF01C0F4FF02D005EC30F056EF2EF095
:100F700043EC2EF085E9033413E3E668E668E6689F
:100F8000E668F1EC30F003EBE6FF6AEC32F000C00B
:100F9000FCF301C0FDF302C0FEF303C0FFF308D071
:100FA00000EBFCF301EBFDF302EBFEF303EBFFF3CD
:100FB00056EF2EF081EC32F0F8EC33F09AEC2DF095
:100FC00055EC30F0C70EE66E970EE66E000E1DEF84
:100FD00033F081EC32F0D3EC33F055EC30F0BF0E4F
:100FE000E66E970EE66E000E1DEF33F003EC33F065
:100FF00002E32D0E8D6FBDEC2EF0A8EC5FF0E6EC59
:101000002DF0D3EC33F0AFEC31F034EC2EF0D8907F
:1010100000010351000A08E6DC0E005D050E0159CF
:10102000000E0259000E035917E2AFEC31F034EC18
:101030002EF063EC2FF08DC004F00001056B04BFAF
:10104000056904EC31F0B90EE66E970EE66E000EFF
:1010500037EC2FF04BE934D0E66AE66A7A0EE66E9A
:10106000440EACEC2EF0E6EC2DF0F8EC33F022EC74
:1010700033F0DFC0E6FFE66E34EC2EF063EC2FF0C9
:10108000AFEC31F075DF44E9FCC304F0FDC305F0BB
:10109000FEC306F0FFC307F063EC2FF08DC008F02D
:1010A0000001096B08BF096908C0E6FF09C0E6FF37
:1010B000AC0EE66E970EE66E000E37EC2FF04FE9A1
:1010C00005EC30F056EF2EF003EC33F002E32D0E7A
:1010D0008D6FE66AE66A200EE66E410E89EC32F00C
:1010E000A8EC5FF057EC61F0E552E5CFC6F0E5CF34
:1010F000C5F0E5CFC4F0E7CFC3F05BEC30F002EC15
:1011000032F0200EE66E410EE66E5BEC30F0FEEC47
:1011100033F00A0E22EC33F0D1EC30F01BEC34F05B
:10112000D1EC30F08DC000F00001016B00BF01690F
:10113000EEEC32F0A20EE66E970EE66E000E37EC85
:101140002FF04BE905EC30F056EF2EF043EC2EF08B
:1011500085E974EC2EF003500001006F016B01353E
:101160004AE20051FA08000E015545E2FF0E0AEC72
:1011700030F00AE1F45008E10001775101E183D138
:10118000DFEC6BF0010E82D1FE0E0AEC30F009E1CB
:10119000F45007E1DFEC6BF000014DEC2EF0040E93
:1011A00027D0FD0E0AEC30F009E1F45007E1000110
:1011B000010E776FDFEC6BF0FD0E68D1FC0E0AECD0
:1011C00030F008E1F45006E10001776BDFEC6BF0E2
:1011D000FC0E5CD1FB0E0AEC30F00DE1F4500BE19B
:1011E0000001776BDFEC6BF000014DEC2EF0050E8B
:1011F000F3EC32F04BD10001775101E144D1000111
:10120000FF51000801E33FD1FF074DEC2EF0040E23
:10121000A0EC33F0EFCFC7F6A4EC03F0F1EC30F024
:10122000EAEC6FF043E900014DEC2EF0B7EC2EF044
:10123000FF51E66EE66A900EE66E970EE66E000EC1
:10124000E6EC33F00601C66BC651C62BC75D07E15D
:101250001C0EE66EA80EE66E000E48EC31F048EC6F
:101260002EF007E13C0EE66EA80EE66E000E48EC8E
:1012700031F048EC2EF007E16C0EE66EA80EE66E3B
:10128000000E48EC31F048EC2EF007E18F0EE66ED0
:10129000A80EE66E000E48EC31F048EC2EF007E1A7
:1012A000B20EE66EA80EE66E000E48EC31F048EC89
:1012B0002EF007E1E30EE66EA80EE66E000E48EC97
:1012C00031F048EC2EF007E1170EE66EA90EE66E3F
:1012D000000E48EC31F048EC2EF007E14C0EE66EC3
:1012E000A90EE66E000E48EC31F048EC2EF007E156
:1012F000850EE66EA90EE66E000E48EC31F048EC65
:101300002EF007E1B30EE66EA90EE66E000E48EC75
:1013100031F048EC2EF007E1DA0EE66EA70EE66E2D
:10132000000E48EC31F048EC2EF007E1FA0EE66EC4
:10133000A70EE66E000E48EC31F048EC2EF007E107
:101340000A0EE66EA70EE66E000E48EC31F048EC91
:101350002EF007E1E30EE66EA90EE66E000E48ECF5
:1013600031F048EC2EF007E1240EE66EAA0EE66E90
:10137000000E48EC31F048EC2EF007E14A0EE66E24
:10138000AA0EE66E000E48EC31F048EC2EF007E1B4
:10139000700EE66EAA0EE66E000E48EC31F048ECD8
:1013A0002EF007E19C0EE66EAA0EE66E000E48ECEB
:1013B00031F048EC2EF007E1B40EE66EAA0EE66EB0
:1013C000000E48EC31F048EC2EF007E1CB0EE66E53
:1013D000AA0EE66E000E48EC31F048EC2EF007E164
:1013E0006F0EE66EAE0EE66E000E48EC31F048EC85
:1013F0002EF007E1AD0EE66EAE0EE66E000E48EC86
:1014000031F048EC2EF007E1CC0EE66EAE0EE66E43
:10141000000E48EC31F048EC2EF007E1F80EE66ED5
:10142000AA0EE66E000E48EC31F00601C651D880D7
:10143000C75517E2C7510001006F016BFA0ED89033
:1014400001BF03D0005D000E01590BE20601C75138
:10145000E66EE66A760EE66E970EE66E000EADEC70
:1014600033F00001FF5102E10001776B00014DEC08
:101470002EF0050E02EC30F04DEC2EF0EE6AEE6A26
:10148000EE6AEE6ABCD6DFEC6BF0000E56EF2EF083
:101490000001010E666F83A449D0E6EC34F0640EBF
:1014A000C2EC31F005C6E6FF06C6E6FF07C6E6FF5A
:1014B00008C6E6FF11EC61F06CEC2FF0B5DC44E9F6
:1014C000F3CFE6FFF4CFE6FF5C0EE66E970EE66E16
:1014D000000E8BEC2DF04BE9010EE66EE66AF8EC9F
:1014E00030F0E66EF8EC30F0020E54EC31F06CECBB
:1014F0002FF064EC30F011EC61F064EC30F06CEC47
:101500002FF03C0EE66E970EE66E000E8BEC2DF083
:1015100051E9010EE66E030E54EC31F0880EE66ED2
:10152000130E29EC33F01CEC5EF0B5D70001666BAE
:10153000120043EC2EF083E91B0EC1EC30F05B0E81
:10154000C1EC30F0320EC1EC30F04A0EC1EC30F09C
:101550002D0EE66EA40EE66E000E48EC31F0E00EA5
:10156000E66EA30EE66E000E48EC31F056EF2EF05C
:1015700043EC2EF082E900017A5128E17B5109E029
:1015800012EC33F00001BB0E036F9D0E046F000ED2
:1015900008D012EC33F00001810E036F9E0E046F31
:1015A000000E056F160E32EC34F000EBE6FFE66A33
:1015B000E66A24EC62F0E552E5CF08F0FFEC30F08B
:1015C00000015AEC2EF000EB7CF02DD0005006010B
:1015D000C85D21E00001816B43EC69F08B9204014E
:1015E000D06BD0510A0814E39CEC2FF00401D025F5
:1015F0000001066F076B086B5AEC2EF0010EE66EC9
:10160000E66A88EC2FF017EC2FF00401D02BE9D715
:1016100000EBC8F608D09CEC2FF00A0F066F076BA2
:10162000086B5AEC2EF0010EE66EE66A88EC2FF09D
:10163000E66A010EE66E88EC2FF0E66A020EE66EB0
:1016400088EC2FF0E66A030EE66E88EC2FF056EF7A
:101650002EF00401D16B030ED15D07E2D151B5EC40
:1016600030F0FE0EEF6ED12BF6D70001D85155ECBD
:1016700033F002E1765123E076510EE00401D251BD
:10168000D22B32080DE20601C92BC951050801E22F
:10169000C96B0401D26B04D0030ED8250601C96FB3
:1016A000E66AC9C6E6FF34EC00F042E9E66E0001E6
:1016B000D851B5EC30F0E552E750EF6E1200D8513A
:1016C000B5EC30F0EF68120043EC2EF081E943E80E
:1016D000026A00017B5104E1825102E1855102E07E
:1016E000030E69D2D851016E36EC34F0F6EC32F0CC
:1016F000EE6AED6A010EE66E5AEC2FF036EC34F02D
:101700006DEC30F0EE50ED1006E0E9EC2FF00CE15E
:10171000010EE66E05D0E9EC2FF006E0E66A010E58
:10172000E66E5DEC69F042E9D950030FE66EDACF60
:10173000E6FF47DA42E90001F351035C08E18B96CA
:10174000010E7B6F03EBE6FF13DF41E931D2E6ECDC
:1017500034F0C3EC0FF03AEC32F00DE20051040823
:10176000000E015508E206019A0ECA6F990ECB6F62
:10177000CC6F3E0E11D0015055EC33F007E006015E
:10178000CA6BCB6BC00ECC6F3F0E06D0060175EC5A
:101790002FF003E0EDEC2FF0CD6F000186516DE0EE
:1017A0004DEC31F0D9EC30F005AF02D00669076995
:1017B00066EC32F006E6D8802C0E0055010E8EEC59
:1017C0002FF014E28DBE25D0A5EC32F052EC2FF0B4
:1017D0008D8E0001806FF45107E0220EE66E970EA9
:1017E000E66E000E48EC31F08D8013D08DAE11D036
:1017F000A5EC32F002EC30F08D9E0001806BF451CC
:1018000007E0090EE66E970EE66E000E48EC31F02A
:101810008D804DEC31F0D9EC30F005AF02D0066987
:10182000076966EC32F006E6D880900E0055010E8E
:101830008EEC2FF012E28DB620D08DAE1ED00001BE
:10184000010E876FF45107E0E50EE66E960EE66E28
:10185000000E48EC31F08D8610D08DA60ED08DAEE6
:101860000CD00001876BF45107E0C20EE66E960EB5
:10187000E66E000E48EC31F08D96BFEC33F0C10EF1
:101880002EEC33F004E60051025D0151035901E3EF
:101890008FD04DEC31F0EECF04F0EFCF05F096ECA9
:1018A0002EF0410E34EC33F0FFEC30F00001073540
:1018B0000751051904E60651045D0751055901E376
:1018C00077D0025045E00001865142E00601CE513A
:1018D000CF1117E03BEC33F00001F45112E0F5ECCE
:1018E00031F001E0010E6EEC33F06EEC32F0750E6B
:1018F000E66E960EE66E000E8BEC2DF04DE95AEC7E
:1019000031F00150F5EC2DF004013F0551E101509B
:10191000F9EC32F00601CE51CF114AE075EC2FF010
:1019200003E0EDEC2FF0CD6F0001F4513DE0F5EC5C
:1019300031F001E0010E6EEC33F06EEC32F02E0E61
:10194000E66E960EE66E000E8BEC2DF04DE923D080
:101950000150F9EC32F00150F5EC2DF00601CE51BA
:10196000CF1126E075EC2FF003E0EDEC2FF0CD6FFA
:101970000001F45119E0F5EC31F001E0010E6EECDC
:1019800033F0B2EC2FF0D60EE66E950EE66E000E3A
:101990008BEC2DF04FE95AEC31F0130EE66E960EFB
:1019A000E66E000E48EC31F00601CE6BCF6B8B96E5
:1019B000BFEC33F0410E2EEC33F004E60051025D33
:1019C0000151035948E210EC32F0F3EC32F014E12B
:1019D00036EC34F0F6EC32F0EE2AEF223AEC32F04C
:1019E0000BE200510108000E015506E20601662BCC
:1019F000000E67236823692336EC34F0020E52ECA4
:101A00002FF0DAEC33F004E1000101510601D119A5
:101A100022E04DEC31F0E1EC30F007AF02D0086984
:101A2000096901EC2FF002E61EEC30F014E200012F
:101A3000F4510FE0F5EC31F001E0010E6EEC33F003
:101A40004DEC32F0890EE66E950EE66E000E48EC17
:101A500031F004EC34F0BFEC33F0C10E4CEC2FF05D
:101A6000000103350351011904E60251005D0351E1
:101A700001592EE210EC32F002EC30F0DAEC33F0E7
:101A800004E1000101510601D11922E04DEC31F0D1
:101A9000E1EC30F007AF02D00869096901EC2FF0E2
:101AA00002E61EEC30F014E20001F4510FE0F5EC18
:101AB00031F001E0010E6EEC33F04DEC32F0720EBD
:101AC000E66E950EE66E000E48EC31F004EC34F054
:101AD0003AEC32F00AE200510108000E015505E22D
:101AE00036EC34F0050E52EC2FF036EC34F03EECD0
:101AF0002FF001350AE200510208000E015505E2FF
:101B000036EC34F0090E52EC2FF0015055EC33F066
:101B100010E006010051010B0CE10051020B09E13C
:101B20000051040B06E1E66A5AEC2FF0000901E1CE
:101B3000FBD50001865103E0876B8D9E806BE66AC2
:101B40005AEC2FF0000913E00001F45107E0230ED6
:101B5000E66E950EE66E000E48EC31F000018651FF
:101B600002E079EC30F0BBEC30F0040E24D006013A
:101B70000051010B06E10051020B03E10051040B7F
:101B800019E00001F45107E0CD0EE66E940EE66E0A
:101B9000000E48EC31F00001865102E079EC30F0A3
:101BA000060100A105D000910001010E7B6F8B960C
:101BB000020E01D0000EF36EF46A44E9E7CFD9FFBC
:101BC000120043EC2EF083E983380F0B0001F3156C
:101BD0000401D36F0001F3510401D35D42E1000120
:101BE000F3510601D25D03E0040E7DEC2EF082EC91
:101BF00030F02EE10001F3510601D25D13E047EC15
:101C00002FF0070EEF6E42EC33F00401D451E66E74
:101C1000E66AB10EE66E940EE66E000EADEC33F0A1
:101C20000BEC33F0000184510FE0900EE66E940E41
:101C3000E66E000E8BEC2DF08BEC30F0F3C0D2F69C
:101C400047EC2FF0070EEF6E0001846BF3514FD07D
:101C5000D451F4EC2FF03C0EE66E940EE66E000EBE
:101C60003FD0D3510601D25D3DE0030EE66E33EC6A
:101C70005EF041E9040E7DEC2EF082EC30F028E1BC
:101C800047EC2FF0D3C4EFFF42EC33F047EC2FF0DA
:101C9000EF50F4EC2FF0FD0EE66E930EE66E000EA4
:101CA000E6EC33F047EC2FF0EFCFD2F60BEC33F04D
:101CB0000001845109E1DE0EE66E930EE66E000E21
:101CC0008BEC2DF08BEC30F00001010E846F0ED008
:101CD000D451F4EC2FF08B0EE66E930EE66E000EF0
:101CE000E6EC33F047EC2FF0D2C6EFFF000E56EFD4
:101CF0002EF0F2EC31F00AE10401D56B09EC31F081
:101D000001E3D86B0AEC34F0F9E0A3DC060100A390
:101D10001ED08B840401D56B09EC31F001E3D86B44
:101D20000AEC34F0F9E095DCFBEC2FF0790EE66E6E
:101D3000930EE66E000EADEC33F05E0EE66E930E83
:101D4000E66E000E48EC31F08B94060100930051D2
:101D5000010B08E1E66A8EEC30F000091BE000019F
:101D60007A5118E000017A5106E17B5102E0000E41
:101D700001D0010E7B6F67EC31F0340EE66E930EEE
:101D8000E66E000E48EC31F000017A6B060100911E
:101D90008B906BD004010F0566E0E66A10EC34F01E
:101DA000000963E0010EE66E8EEC30F00001010EDA
:101DB0007A6F8B8004010F5129E11EEC32F002E6AC
:101DC00048EC33F023E20001010E7A6F8B908451CE
:101DD00011E10601D32B92EC2EF0080E0601D35D23
:101DE00001E3D36BCBEC33F01C0EE66E930EE66E84
:101DF000000E35D04EEC33F001E39E6BDEEC31F09B
:101E0000F50EE66E920EE66E000E29D01EEC32F054
:101E100002E648EC33F025E20001010E7A6F8B9068
:101E2000845112E10601D30792EC2EF0080E060150
:101E3000D35D02E3070ED36FCBEC33F0DE0EE66E1C
:101E4000920EE66E000E0BD04EEC33F001E39E6B6B
:101E5000DEEC31F0C70EE66E920EE66E000E48EC38
:101E600031F08B8002D092EC2EF000017A5102E02A
:101E70008B8001D08B90855170E17B5102E18251C2
:101E80006AE0E9EC2FF006E0E66A010EE66E5DEC32
:101E900069F042E904011F0546E0E66A41EC2FF0D3
:101EA00000095BE08B8404011F511AE11B35000E11
:101EB0001B1909E6D880010E1855000E1955000EA1
:101EC0001A55000E1B550CE257EC32F052EC2FF075
:101ED000B5EC31F0890EE66E950EE66E000E20D060
:101EE000020E1F5D3AE118C4E6FF19C4E6FF1AC4EA
:101EF000E6FF1BC4E6FF20EC34F006E6D880010EB6
:101F00000055000E8EEC2FF028E257EC32F002EC78
:101F100030F0B5EC31F0720EE66E950EE66E000E06
:101F200048EC31F01AD0000182510CE1D851F9ECA3
:101F300032F0B8EC33F0020E52EC2FF0D851F5EC41
:101F40002DF003D0D851F9EC32F0010EE66E41ECE1
:101F50002FF08B9402D064EC0BF000017B5107E072
:101F6000E66A5AEC33F00CE1010EE66E05D0E66A43
:101F70005AEC33F005E0E66AE66A5DEC69F042E9A6
:101F80000601D351120029EC0BF000017C51070A25
:101F900018E0010A14E0050A10E0010A0CE0060A44
:101FA00008E0050A04E0010A0EE1F4EF11F0A9EFE0
:101FB00011F082EF12F06CEF11F048EF12F028EF01
:101FC00013F03DEF11F0E4EF12F043EC2EF082E954
:101FD00047E8076A086A43EC69F000017B5104E1B5
:101FE00005012C512D1102E0030E09D00001806B78
:101FF0000401355136113711381104E1020EF36E28
:10200000F46A72D0026A0250005C68E399EC31F025
:102010000A0EE66ED70EE66E230EE66E3C0E26EC3A
:102020002EF0D4EC31F05AE1036A046A056A066ABC
:10203000D890065002E694EC30F00FE2FA0EE66E0D
:102040007E0EE66E2A0EE66E3F0E75EC33F005E16D
:10205000D950030F1CEC2FF0EBD7036A046A056A12
:10206000066AD890065002E694EC30F00FE2FA0EC1
:10207000E66E7E0EE66EAA0EE66E3E0E75EC33F050
:1020800005E1D950030F1CEC2FF0EBD7660EE66E7E
:10209000E66EE66E3F0E24EC34F020E1CD0EE66EE7
:1020A000CC0EE66EE66E3D0E24EC34F017E1E66AE7
:1020B000E66AE66A3F0E24EC34F010E106010051B6
:1020C000010B06E10051020B03E10051040B04E097
:1020D000010E076E086A02D0022A95D793EC32F0FF
:1020E00007EBF3FF08EBF4FF48E9E7CFD9FF120055
:1020F00043EC2EF082E948E8086A096A43EC69F08B
:1021000000017B5104E105012C512D1104E0030E67
:10211000F36EF46A7CD00001806B026A0050025CAE
:1021200070E2036A030E035C6AE203EBD8F0F2ECA0
:1021300031F063E099EC31F093EC31F0640EEE6E27
:10214000ED6AD4EC31F05BE1046A056A066A076A5D
:10215000D890075002E69DEC30F00DE2A6EC30F08E
:102160009A0E0027020EA4EC33F005E1D950040FBB
:102170001CEC2FF0EDD7046A056A066A076AD8904E
:10218000075002E69DEC30F00DE2A6EC30F04D0E6B
:102190000027010EA4EC33F005E1D950040F1CEC2C
:1021A0002FF0EDD793EC31F0840EEE6E030EED6E52
:1021B000C3EC33F093EC31F0640EEE6EED6AC3ECD9
:1021C00033F0025083EC2DF00D0EA0EC33F044EC14
:1021D00032F093EC31F0FDEC31F0C3EC33F006015A
:1021E0000051010B06E10051020B03E10051040B09
:1021F00004E0010E086E096A02D0032A93D7022A6E
:102200008DD793EC32F008EBF3FF09EBF4FF49E9CB
:10221000E7CFD9FF120029EC0BF000017C51070A2F
:1022200018E0010A11E0050A0DE0010A0BE0060AB8
:1022300005E0050A07E0010A0EE104D0030EE66E90
:10224000C4DE05D0020E01D0040EE66E51DF41E976
:1022500012003DEF11F0E4EF12F04BDD0601D46FF8
:10226000D40EE66E060EE66EACDC42E9D4C6E6FF9E
:10227000B8EC0AF041E9C3EF0FF000019E5120E1F4
:10228000FEEC32F0730EE66E920EE66E000E6AEC15
:1022900033F0C7EC33F0B7EC2FF05D0EE66E920E24
:1022A000E66E000E6AEC33F0B1EC33F00EEC31F078
:1022B000470EE66E920EE66E000E6AEC33F00AD020
:1022C00020EC2EF073EC32F020EC2EF049EC32F0E2
:1022D000EBEC32F026EF2FF000019E5118E1A8EC54
:1022E0002EF0A8EC2FF0080EE66E920EE66E000EB1
:1022F0005FEC33F0E70EE66E910EE66E000E49ECF1
:1023000032F0CA0EE66E910EE66E000E20D096EC0C
:1023100031F00CE0C3EC2DF0EAEC33F0A30EE66EE6
:10232000910EE66E000E8BEC2DF04DE9010EE66E7F
:1023300090EC2DF043E9890EE66E910EE66E000EEC
:1023400049EC32F0890EE66E910EE66E000E63EFF8
:1023500033F000019E5135E1A8EC2EF0A8EC2FF0EF
:10236000600EE66E910EE66E000E5FEC33F057ECF9
:102370002FF074C5E6FF75C5E6FF72C5E6FF73C5AD
:10238000E6FFB7EC2FF0370EE66E910EE66E000E0C
:102390008BEC2DF053E9FCEC2EF0B0C5E6FFB1C597
:1023A000E6FFAEC5E6FFAFC5E6FF0EEC31F00E0E60
:1023B000E66E910EE66E000E8BEC2DF0AFEC30F079
:1023C00011D096EC31F002E083EC31F090EC33F078
:1023D00002E05FEC31F095EC33F002E08BEC31F091
:1023E000F8EC31F043E9120000019E513EE1A8EC07
:1023F0002EF0BBEC33F038C5E6FF39C5E6FFD0EC74
:1024000031F036C5E6FF37C5E6FF6BEC60F0FEEC59
:1024100032F0700EE66E900EE66E000E5FEC33F05A
:10242000B7EC2FF0580EE66E900EE66E000E6AECDA
:1024300033F0FCEC2EF0BBEC33F0B0C5E6FFB1C5D9
:10244000E6FFD0EC31F0AEC5E6FFAFC5E6FF6BECC2
:1024500060F00EEC31F02F0EE66E900EE66E000E80
:102460008BEC2DF0AFEC30F011D096EC31F002E0B7
:1024700083EC31F090EC33F002E05FEC31F095EC5E
:1024800033F002E08BEC31F0F8EC31F043E912006C
:1024900000019E5123E1DCEC2FF073EC32F057EC9D
:1024A0002FF0BBEC33F074C5E6FF75C5E6FFD0EC4A
:1024B00031F072C5E6FF73C5E6FF6BEC60F0B7EC78
:1024C0002FF0F10EE66E8F0EE66E000E8BEC2DF007
:1024D00053E9B1EC33F0DCEC2FF012D020EC2EF00D
:1024E00073EC32F0EFEC33F0EDEC30F002E05FEC47
:1024F00031F01AEC32F090EC2DF043E920EC2EF0A4
:1025000063EF33F000019E514CE114C5E6FF15C5A1
:10251000E6FF10C4E6FF11C4E6FF12C4E6FF13C4D1
:10252000E6FF29C4E6FF2AC4E6FF2BC4E6FF2CC45D
:10253000E6FFFEEC32F0CF0EE66E8F0EE66E000E7A
:102540008BEC2DF051E9C7EC33F0050101511DE092
:102550000251E66EE66AA80EE66E8F0EE66E000E7B
:102560006AEC33F0B1EC33F031C4E6FF32C4E6FF7D
:1025700033C4E6FF34C4E6FF870EE66E8F0EE66EC8
:10258000000E8BEC2DF049E909D0DCEC2FF049EC82
:1025900032F0DCEC2FF08BEC2DF045E999EC33F0C8
:1025A00011D096EC31F002E028EC32F090EC33F0F0
:1025B00002E0C5EC31F095EC33F002E031EC32F0A2
:1025C000F8EC31F043E9120000019E5119E1FC0ED4
:1025D000E66E8E0EE66E000E73EC32F0E60EE66EE0
:1025E0008E0EE66E000E49EC32F0D00EE66E8E0EC8
:1025F000E66E000E8BEC2DF045E999EC33F011D02E
:1026000096EC31F002E083EC31F090EC33F002E034
:102610005FEC31F095EC33F002E08BEC31F0F8EC4C
:1026200031F043E91200B90EE66E8E0EE66E000E32
:1026300073EC32F0A20EE66E8E0EE66E000E49ECE2
:1026400032F08B0EE66E8E0EE66E000E63EF33F008
:1026500000019E5149E1EBEC32F0640E0501D89087
:1026600089BF03D0885D000E89590AE231EC2FF052
:102670006C0EE66E8E0EE66E000E8BEC2DF047E9CA
:10268000C7EC33F08DB20AD031EC2FF0B7EC2FF05D
:102690004D0EE66E8E0EE66E000E09D02BEC2FF07E
:1026A000B7EC2FF02E0EE66E8E0EE66E000E8BEC63
:1026B0002DF049E9B1EC33F0EBEC32F0640E05019A
:1026C000D89011BF03D0105D000E11590AE22BEC17
:1026D0002FF0100EE66E8E0EE66E000E8BEC2DF0D7
:1026E00047E999EC33F011D096EC31F002E028EC98
:1026F00032F090EC33F002E0C5EC31F095EC33F0C1
:1027000002E031EC32F0F8EC31F043E9120043EC36
:102710002EF082E942E8026A036A030ED89003BEF3
:1027200003D0025C000E03581DE20050E66E02EB7F
:10273000E9FF03EBEAFF3C0EEA02F3CFEAFFE9020E
:10274000F3CFE9FFF450EA26000EE926050EEA224F
:102750006DEC30F0E552E750EE6EED6A022A000EA5
:102760000322DBD743E9E7CFD9FF1200D8C0D6F464
:102770000001D86BB8EC33F094EC2FF002E064EC7D
:102780000BF009EC31F0F6E343EC69F0D6C4D8F075
:10279000010E7DEF2EF0D9CFE6FFE1CFD9FF81E921
:1027A00051E8E80E056E030E066E076A086A096AAC
:1027B0000A6A0B6A0C6A580E0D6E106A116A0001E3
:1027C000816BE6EC34F0E6EC34F006010095000194
:1027D0009E6B7CC0E6FFFAEC69F041E9000185518F
:1027E00007E08B9200017B6B0001806B69EF29F0A1
:1027F000EC0EE66E8D0EE66E000EE66EEAEC6FF005
:1028000043E9020E00017C5D06E1D00E056E070E65
:10281000066E076A086A0001010E7B6F0501080554
:1028200003E10001010E806F43EC69F0010EE66EDA
:10283000E66AE66AE66A50EC01F044E900017C5180
:1028400018E1020EE66EE66AE66AE66A05EBE6FF66
:1028500006EBE6FF07EBE6FF08EBE6FF84EC62F031
:10286000E552E550086EE550076EE550066EE750FC
:10287000056E030E00017C5D18E1020EE66EE66A4D
:10288000E66AE66A05EBE6FF06EBE6FF07EBE6FF26
:1028900008EBE6FF84EC62F0E552E550086EE55087
:1028A000076EE550066EE750056EE66A30DF41E9D7
:1028B00046EC69F0010EE66E05EBE6FF06EBE6FF7F
:1028C00007EBE6FF08EBE6FF4FEC02F045E9016A93
:1028D000026A036A046A0001865102E058EF1DF0A3
:1028E000060E00017C5D01E0C7D30E6A0F6A0F344B
:1028F00004E20E500108000E0F5401E29DD2640E56
:10290000056E066A076A086A010EE66E05EBE6FFC9
:1029100006EBE6FF07EBE6FF08EBE6FF4FEC02F005
:1029200045E946EC69F0016A026A036A046A80C0FC
:10293000E6FF49EC69F041E9D00EE66E070EE66E5F
:10294000E66AE66A01EBE6FF02EBE6FF03EBE6FF71
:1029500004EBE6FF14EC61F0E552E5CF03F0E5CFC0
:1029600002F0E5CF01F0E7CF00F0000100510111C6
:102970000211031101E0D8D0060100A52BD043ECD1
:1029800069F0010EE66EC3DE41E929EC5EF0060E49
:10299000E66EE66AE66AE66A50EC01F044E98B927C
:1029A0000001010E7B6F0001806B80C0E6FF49ECE7
:1029B00069F041E97CC0E6FFFAEC69F041E9BE0E3E
:1029C000E66E8D0EE66E000EE66EEAEC6FF043E901
:1029D00069EF29F06DEC29F00EEBE6FF0FEBE6FF57
:1029E000A20EE66E8D0EE66E000EE66E000EE66E30
:1029F000020EE66E1AEC6FF047E9010EE66EE66A2B
:102A00009CC0E6FFB1EC00F043E90A0EE66EE66A10
:102A100088C5E6FF89C5E6FF6BEC60F0770EE66ED1
:102A20008D0EE66E000EE66E000EE66E020EE66E8F
:102A30001AEC6FF047E9640E0501D89089BF03D006
:102A4000885D000E895916E20A0EE66EE66A88C5B0
:102A5000E6FF89C5E6FF6BEC60F0580EE66E8D0E62
:102A6000E66E000EE66E000EE66E020EE66E1AECE4
:102A70006FF047E9010EE66E010EE66EE66AB1EC14
:102A800000F043E9300EE66E8D0EE66E000EE66E47
:102A9000000EE66E020EE66E1AEC6FF045E9010ECE
:102AA000E66E020EE66EE66AB1EC00F043E90A0E4D
:102AB000E66EE66A10C5E6FF11C5E6FF6BEC60F056
:102AC000030EE66E8D0EE66E000EE66E000EE66EEE
:102AD000020EE66E1AEC6FF047E9640E0501D8901D
:102AE00011BF03D0105D000E115916E20A0EE66EFA
:102AF000E66A10C5E6FF11C5E6FF6BEC60F0100E4C
:102B0000E66E8E0EE66E000EE66E000EE66E020EAD
:102B1000E66E1AEC6FF047E9010EE66E030EE66E04
:102B2000E66AB1EC00F043E9D950010FE96EDACF63
:102B3000EAFFEE2A000EEE22EE22EE22E66A05EB16
:102B4000E6FF06EBE6FF07EBE6FF08EBE6FF4FECE0
:102B500002F045E9000901E1EAD6640E0501D890CA
:102B600089BF03D0885D000E89590CE2050111353B
:102B700004E210519008010E115504E2010E050106
:102B8000666F676B640E0501D89011BF03D0105DAE
:102B9000000E115903E20501646B656B010EE66ED0
:102BA00005EBE6FF06EBE6FF07EBE6FF08EBE6FFCB
:102BB0004FEC02F045E943EC69F0016A026A036AEE
:102BC000046A80C0E6FF49EC69F041E9D00EE66E88
:102BD000070EE66EE66AE66A01EBE6FF02EBE6FF49
:102BE00003EBE6FF04EBE6FF14EC61F0E552E5CF02
:102BF00003F0E5CF02F0E5CF01F0E7CF00F00001F0
:102C0000005101110211031101E0D8D0060100A505
:102C10002BD043EC69F0010EE66E79DD41E929EC39
:102C20005EF0060EE66EE66AE66AE66A50EC01F0D1
:102C300044E98B920001010E7B6F0001806B80C024
:102C4000E6FF49EC69F041E97CC0E6FFFAEC69F087
:102C500041E9BE0EE66E8D0EE66E000EE66EEAEC03
:102C60006FF043E969EF29F06DEC29F00EEBE6FF18
:102C70000FEBE6FFE80EE66E8C0EE66E000EE66EDB
:102C8000000EE66E020EE66E1AEC6FF047E9010EDA
:102C9000E66EE66A9CC0E6FFB1EC00F043E90A0E7E
:102CA000E66EE66A88C5E6FF89C5E6FF6BEC60F074
:102CB000770EE66E8D0EE66E000EE66E000EE66E88
:102CC000020EE66E1AEC6FF047E9640E0501D8902B
:102CD00089BF03D0885D000E895916E20A0EE66EA0
:102CE000E66A88C5E6FF89C5E6FF6BEC60F0580E22
:102CF000E66E8D0EE66E000EE66E000EE66E020EBD
:102D0000E66E1AEC6FF047E9010EE66E010EE66E14
:102D1000E66AB1EC00F043E9BD0EE66E8C0EE66E9D
:102D2000000EE66E000EE66E020EE66E1AEC6FF016
:102D300045E9010EE66E020EE66EE66AB1EC00F0C1
:102D400043E90A0EE66EE66A10C5E6FF11C5E6FF26
:102D50006BEC60F0030EE66E8D0EE66E000EE66E16
:102D6000000EE66E020EE66E1AEC6FF047E9640E96
:102D70000501D89011BF03D0105D000E115916E265
:102D80000A0EE66EE66A10C5E6FF11C5E6FF6BECBB
:102D900060F0100EE66E8E0EE66E000EE66E000E11
:102DA000E66E020EE66E1AEC6FF047E9010EE66E73
:102DB000030EE66EE66AB1EC00F043E9D950010F6C
:102DC000E96EDACFEAFFEE2A000EEE22EE22EE22C4
:102DD000E66A05EBE6FF06EBE6FF07EBE6FF08EB2E
:102DE000E6FF4FEC02F045E9000901E1EAD6640E86
:102DF0000501D89011BF03D0105D000E11590CE2EF
:102E00000501893504E288519008010E895504E2D4
:102E1000010E0501646F656B640E0501D89089BFD2
:102E200003D0885D000E895903E20501666B676B6C
:102E30000E2A000E0F225BD58B9200017B6B0001E6
:102E4000806B05016451651105E00501665167114C
:102E500001E007D10501425101E103D106010095CE
:102E6000590E0D6E0DEB00F00001016B00BF016902
:102E700000C0E6FF01C0E6FF9D0EE66E8C0EE66E1A
:102E8000000EE66E000EE66E020EE66E1AEC6FF0B5
:102E900047E9010EE66EE66A9CC0E6FFB1EC00F081
:102EA00043E9000EE66E020EE66E3FEC70F042E97A
:102EB000680EE66E9A0EE66E000EE66EEAEC6FF0B5
:102EC00043E964C5E6FF65C5E6FF66C5E6FF67C57D
:102ED000E6FF860EE66E8C0EE66E000EE66E000EC7
:102EE000E66E020EE66E1AEC6FF049E9010EE66E30
:102EF000010EE66EE66AB1EC00F043E9000EE66E04
:102F0000020EE66E3FEC70F042E9680EE66E9A0E35
:102F1000E66E000EE66EEAEC6FF043E96F0EE66EC9
:102F20008C0EE66E000EE66E000EE66E020EE66E8B
:102F30001AEC6FF045E90501665167110DE1530E7A
:102F4000E66E8C0EE66E000EE66E000EE66E020E6B
:102F5000E66E1AEC6FF045E9010EE66E020EE66EC3
:102F6000E66AB1EC00F043E9000EE66E020EE66E92
:102F70003FEC70F042E9680EE66E9A0EE66E000EC7
:102F8000E66EEAEC6FF043E96F0EE66E8C0EE66ECD
:102F9000000EE66E000EE66E020EE66E1AEC6FF0A4
:102FA00045E90501645165110DE1350EE66E8C0EA3
:102FB000E66E000EE66E000EE66E020EE66E1AEC8F
:102FC0006FF045E9010EE66E030EE66EE66AB1ECBF
:102FD00000F043E9000EE66E020EE66E3FEC70F084
:102FE00042E9680EE66E9A0EE66E000EE66EEAECB8
:102FF0006FF043E9010EE66E010EE66E5DEC69F0DE
:1030000042E9020EE66E33EC5EF041E9040006018F
:1030100000A5F7D7E66A010EE66E5DEC69F042E9BD
:1030200043EC69F0010EE66E87EC13F041E929EC00
:103030005EF0060EE66EE66AE66AE66A50EC01F0BD
:1030400044E98B920001010E7B6F0001806B80C010
:10305000E6FF49EC69F041E97CC0E6FFFAEC69F073
:1030600041E90F0EE66E8C0EE66E000EE66EEAEC9F
:103070006FF043E969EF29F043EC69F0060EE66E64
:10308000E66AE66AE66A50EC01F044E939EC69F078
:10309000010EE66EE66AE66AE66A50EC01F044E983
:1030A000106A116A46EC69F0010EE66E05EBE6FF68
:1030B00006EBE6FF07EBE6FF08EBE6FF4FEC02F05E
:1030C00045E952EC34F080C0E6FF49EC69F041E993
:1030D000D00EE66E070EE66EE66AE66A01EBE6FFE4
:1030E00002EBE6FF03EBE6FF04EBE6FF14EC61F016
:1030F000E552E5CF03F0E5CF02F0E5CF01F0E7CFF1
:1031000000F00001005101110211031101E021D270
:1031100072EC34F0000901E1D2D0210EE96E060E06
:10312000EA6EEE500601155D0001046FEE500601D7
:1031300016590001056FEE50060117590001066F80
:10314000EE50060118590001076F04C0E6FF05C0E4
:10315000E6FF06C0E6FF07C0E6FFB8EC07F044E96B
:10316000FCC300F0FDC301F0FEC302F0FFC303F097
:1031700000C0E6FF01C0E6FF02C0E6FF03C0E6FFB5
:103180001D0EE96E060EEA6EEE500601115D00019D
:103190000C6FEE500601125900010D6FEE50060142
:1031A000135900010E6FEE500601145900010F6F04
:1031B0000CC0E6FF0DC0E6FF0EC0E6FF0FC0E6FF45
:1031C000B8EC07F044E9FCC308F0FDC309F0FEC306
:1031D0000AF0FFC30BF008C0E6FF09C0E6FF0AC013
:1031E000E6FF0BC0E6FF190EE96E060EEA6EEE5022
:1031F00006010D5D0001146FEE5006010E5900012D
:10320000156FEE5006010F590001166FEE500601C2
:1032100010590001176F14C0E6FF15C0E6FF16C075
:10322000E6FF17C0E6FFB8EC07F044E9FCC310F076
:10323000FDC311F0FEC312F0FFC313F010C0E6FF90
:1032400011C0E6FF12C0E6FF13C0E6FFF20EE66E05
:103250008B0EE66E000EE66E000EE66E020EE66E59
:103260001AEC6FF051E9000EE66E020EE66E3FECCE
:1032700070F042E906013D5120E006013E511DE09B
:1032800006013F511AE000017C5103E0010E106E6F
:10329000116ACD0EE66E8B0EE66E000EE66E000E27
:1032A000E66E020EE66E1AEC6FF045E9000EE66E71
:1032B000020EE66E3FEC70F042E952EC34F006018B
:1032C00000A52CD043EC69F0010EE66E87EC13F0FC
:1032D00041E929EC5EF0060EE66EE66AE66AE66A09
:1032E00050EC01F044E98B920001010E7B6F00016C
:1032F000806B80C0E6FF49EC69F041E97CC0E6FFE5
:10330000FAEC69F041E9BE0EE66E8D0EE66E000E37
:10331000E66EEAEC6FF043E969EF29F06DEC29F015
:1033200001EBE6FF02EBE6FF03EBE6FF04EBE6FF53
:10333000B50EE66E8B0EE66E000EE66E000EE66EC5
:10334000020EE66E1AEC6FF049E9010EE66EE66ACF
:103350009CC0E6FFB1EC00F043E9020E00017C5D89
:103360003CE0310EE66E920EE66E000EE66E000E4A
:10337000E66E020EE66E1AEC6FF045E905010651A5
:103380002BE031C6E6FF32C6E6FF33C6E6FF34C6A1
:10339000E6FF0A0EE66EE66A26C5E6FF27C5E6FFEB
:1033A0006BEC60F00A0EE66EE66A36C5E6FF37C5DE
:1033B000E6FF6BEC60F010C5E6FF11C5E6FF8D0E71
:1033C000E66E8B0EE66E000EE66E000EE66E020EE8
:1033D000E66E1AEC6FF04FE92ED0050106512BE096
:1033E00031C6E6FF32C6E6FF33C6E6FF34C6E6FF67
:1033F0000A0EE66EE66A26C5E6FF27C5E6FF6BEC19
:1034000060F00A0EE66EE66A36C5E6FF37C5E6FFEF
:103410006BEC60F010C5E6FF11C5E6FF650EE66EC9
:103420008B0EE66E000EE66E000EE66E020EE66E87
:103430001AEC6FF04FE9010EE66E010EE66EE66AD9
:10344000B1EC00F043E9310EE66E920EE66E000E2E
:10345000E66E000EE66E020EE66E1AEC6FF045E9BF
:10346000050142512BE035C6E6FF36C6E6FF37C6FA
:10347000E6FF38C6E6FF0A0EE66EE66A62C5E6FFBC
:1034800063C5E6FF6BEC60F00A0EE66EE66A72C595
:10349000E6FF73C5E6FF6BEC60F04CC5E6FF4DC57B
:1034A000E6FF3D0EE66E8B0EE66E000EE66E000E3B
:1034B000E66E020EE66E1AEC6FF04FE9010EE66E54
:1034C000020EE66EE66AB1EC00F043E9310EE66EFC
:1034D000920EE66E000EE66E000EE66E020EE66ED0
:1034E0001AEC6FF045E905017E512BE039C6E6FF85
:1034F0003AC6E6FF3BC6E6FF3CC6E6FF0A0EE66EAE
:10350000E66A9EC5E6FF9FC5E6FF6BEC60F00A0E1B
:10351000E66EE66AAEC5E6FFAFC5E6FF6BEC60F0AF
:1035200088C5E6FF89C5E6FF150EE66E8B0EE66ED2
:10353000000EE66E000EE66E020EE66E1AEC6FF0FE
:103540004FE9010EE66E030EE66EE66AB1EC00F09E
:1035500043E9D950010FE96EDACFEAFFEE2A000EF7
:10356000EE22EE22EE22E66A05EBE6FF06EBE6FF30
:1035700007EBE6FF08EBE6FF4FEC02F045E9000938
:1035800004E11050111001E19ED543EC69F0060EE4
:10359000E66EE66AE66AE66A50EC01F044E940EC61
:1035A00069F0010EE66EE66AE66AE66A50EC01F042
:1035B00044E9106A116A00017C5101E177D246ECBE
:1035C00069F0010EE66E05EBE6FF06EBE6FF07EBA2
:1035D000E6FF08EBE6FF4FEC02F045E9016A026AFC
:1035E000036A046A52EC34F080C0E6FF49EC69F0EB
:1035F00041E9D00EE66E070EE66EE66AE66A01EB7A
:10360000E6FF02EBE6FF03EBE6FF04EBE6FF14EC5C
:1036100061F0E552E5CF03F0E5CF02F0E5CF01F030
:10362000E7CF00F00001005101110211031101E088
:1036300021D272EC34F0000901E1D2D0210EE96E02
:10364000060EEA6EEE500601155D0001046FEE50A5
:10365000060116590001056FEE50060117590001C9
:10366000066FEE50060118590001076F04C0E6FF0F
:1036700005C0E6FF06C0E6FF07C0E6FFB8EC07F0AE
:1036800044E9FCC300F0FDC301F0FEC302F0FFC338
:1036900003F000C0E6FF01C0E6FF02C0E6FF03C082
:1036A000E6FF1D0EE96E060EEA6EEE500601115D94
:1036B00000010C6FEE500601125900010D6FEE5023
:1036C0000601135900010E6FEE5006011459000156
:1036D0000F6F0CC0E6FF0DC0E6FF0EC0E6FF0FC087
:1036E000E6FFB8EC07F044E9FCC308F0FDC309F0BD
:1036F000FEC30AF0FFC30BF008C0E6FF09C0E6FFF7
:103700000AC0E6FF0BC0E6FF190EE96E060EEA6E70
:10371000EE5006010D5D0001146FEE5006010E59CA
:103720000001156FEE5006010F590001166FEE50A3
:10373000060110590001176F14C0E6FF15C0E6FF1F
:1037400016C0E6FF17C0E6FFB8EC07F044E9FCC37B
:1037500010F0FDC311F0FEC312F0FFC313F010C050
:10376000E6FF11C0E6FF12C0E6FF13C0E6FFF20E4F
:10377000E66E8B0EE66E000EE66E000EE66E020E34
:10378000E66E1AEC6FF051E9000EE66E020EE66E80
:103790003FEC70F042E906013D5120E006013E5148
:1037A0001DE006013F511AE000017C5103E0010ECB
:1037B000106E116ACD0EE66E8B0EE66E000EE66E92
:1037C000000EE66E020EE66E1AEC6FF045E9000E92
:1037D000E66E020EE66E3FEC70F042E952EC34F019
:1037E000060100A52CD043EC69F0010EE66E87ECD3
:1037F00013F041E929EC5EF0060EE66EE66AE66A31
:10380000E66A50EC01F044E98B920001010E7B6FF7
:103810000001806B80C0E6FF49EC69F041E97CC0A3
:10382000E6FFFAEC69F041E9BE0EE66E8D0EE66E3B
:10383000000EE66EEAEC6FF043E969EF29F06DECFB
:1038400029F001EBE6FF02EBE6FF03EBE6FF04EBFA
:10385000E6FFFE0EE66E8A0EE66E000EE66E000EC7
:10386000E66E020EE66E1AEC6FF049E9010EE66EA6
:10387000E66A9CC0E6FFB1EC00F043E9310EE66E6B
:10388000920EE66E000EE66E000EE66E020EE66E1C
:103890001AEC6FF045E9020E00017C5D2FE0050196
:1038A00006512BE031C6E6FF32C6E6FF33C6E6FF1F
:1038B00034C6E6FF0A0EE66EE66A26C5E6FF27C5B1
:1038C000E6FF6BEC60F00A0EE66EE66A36C5E6FFD0
:1038D00037C5E6FF6BEC60F010C5E6FF11C5E6FFEB
:1038E0008D0EE66E8B0EE66E000EE66E000EE66E38
:1038F000020EE66E1AEC6FF04FE92ED0050106516C
:103900002BE031C6E6FF32C6E6FF33C6E6FF34C61B
:10391000E6FF0A0EE66EE66A26C5E6FF27C5E6FF65
:103920006BEC60F00A0EE66EE66A36C5E6FF37C558
:10393000E6FF6BEC60F010C5E6FF11C5E6FF650E13
:10394000E66E8B0EE66E000EE66E000EE66E020E62
:10395000E66E1AEC6FF04FE9010EE66E010EE66EB0
:10396000E66AB1EC00F043E9310EE66E920EE66EC7
:10397000000EE66E000EE66E020EE66E1AEC6FF0BA
:1039800045E9050142512BE035C6E6FF36C6E6FFA4
:1039900037C6E6FF38C6E6FF0A0EE66EE66A62C57F
:1039A000E6FF63C5E6FF6BEC60F00A0EE66EE66AC2
:1039B00072C5E6FF73C5E6FF6BEC60F04CC5E6FF31
:1039C0004DC5E6FF3D0EE66E8B0EE66E000EE66E12
:1039D000000EE66E020EE66E1AEC6FF04FE9010E75
:1039E000E66E020EE66EE66AB1EC00F043E9310ED7
:1039F000E66E920EE66E000EE66E000EE66E020EAB
:103A0000E66E1AEC6FF045E905017E512BE039C6F0
:103A1000E6FF3AC6E6FF3BC6E6FF3CC6E6FF0A0EF7
:103A2000E66EE66A9EC5E6FF9FC5E6FF6BEC60F0BA
:103A30000A0EE66EE66AAEC5E6FFAFC5E6FF6BECC2
:103A400060F088C5E6FF89C5E6FF150EE66E8B0EB1
:103A5000E66E000EE66E000EE66E020EE66E1AECE4
:103A60006FF04FE9010EE66E030EE66EE66AB1EC0A
:103A700000F043E9D950010FE96EDACFEAFFEE2AF0
:103A8000000EEE22EE22EE22E66A05EBE6FF06EBE2
:103A9000E6FF07EBE6FF08EBE6FF4FEC02F045E937
:103AA000000904E11050111001E19ED56EEF21F0E4
:103AB0000401296B2A6B2B6B2C6B04012951096EB5
:103AC0002A510A6E2B510B6E2C510C6E46EC69F08C
:103AD000140EE66EE66AE66AE66A50EC01F044E926
:103AE000016A026A036A046ADE0E015C030E025870
:103AF000000E0358000E045801E3E3D001EBE6FF8B
:103B000002EBE6FF03EBE6FF04EBE6FFFE0EE66EDC
:103B10008A0EE66E000EE66E000EE66E020EE66E91
:103B20001AEC6FF049E9010EE66EE66A9CC0E6FF0A
:103B3000B1EC00F043E9310EE66E920EE66E000E37
:103B4000E66E000EE66E020EE66E1AEC6FF045E9C8
:103B50000501065115E029C4E6FF2AC4E6FF2BC47F
:103B6000E6FF2CC4E6FFDC0EE66E8A0EE66E000E63
:103B7000E66E000EE66E020EE66E1AEC6FF049E994
:103B8000010EE66E010EE66EE66AB1EC00F043E966
:103B9000310EE66E920EE66E000EE66E000EE66EDA
:103BA000020EE66E1AEC6FF045E9010EE66E020EAB
:103BB000E66EE66AB1EC00F043E9010EE66E030E34
:103BC000E66EE66AB1EC00F043E9010EE66EE66AE5
:103BD000E66AE66A50EC01F044E9190EE66EE66A20
:103BE000E66AE66A01EBE6FF02EBE6FF03EBE6FFBF
:103BF00004EBE6FF14EC61F0E552E5CF03F0E5CF0E
:103C000002F0E5CF01F0E7CF00F000010051011113
:103C1000021103111CE109500401291908E10A509D
:103C20002A1905E10B502B1902E10C502C1906E161
:103C3000E80E016E030E026E036A046A0401295144
:103C4000096E2A510A6E2B510B6E2C510C6E060117
:103C500000A52CD043EC69F0010EE66E87EC13F062
:103C600041E929EC5EF0060EE66EE66AE66AE66A6F
:103C700050EC01F044E98B920001010E7B6F0001D2
:103C8000806B80C0E6FF49EC69F041E97CC0E6FF4B
:103C9000FAEC69F041E9BE0EE66E8D0EE66E000E9E
:103CA000E66EEAEC6FF043E969EF29F0D950010FB5
:103CB000E96EDACFEAFFEE2A000EEE22EE22EE22C5
:103CC00013D743EC69F0060EE66EE66AE66AE66A2A
:103CD00050EC01F044E939EC69F0010EE66EE66A59
:103CE000E66AE66A50EC01F044E90401296B2A6BAC
:103CF0002B6B2C6B04012951096E2A510A6E2B5132
:103D00000B6E2C510C6E46EC69F0140EE66EE66AF2
:103D1000E66AE66A50EC01F044E9016A026A036A65
:103D2000046ADE0E015C030E0258000E0358000EFA
:103D3000045801E3E3D001EBE6FF02EBE6FF03EBFF
:103D4000E6FF04EBE6FFB50EE66E8B0EE66E000EA8
:103D5000E66E000EE66E020EE66E1AEC6FF049E9B2
:103D6000010EE66EE66A9CC0E6FFB1EC00F043E9A6
:103D7000310EE66E920EE66E000EE66E000EE66EF8
:103D8000020EE66E1AEC6FF045E90501065115E0EA
:103D900029C4E6FF2AC4E6FF2BC4E6FF2CC4E6FFD5
:103DA000DC0EE66E8A0EE66E000EE66E000EE66E25
:103DB000020EE66E1AEC6FF049E9010EE66E010E96
:103DC000E66EE66AB1EC00F043E9310EE66E920E63
:103DD000E66E000EE66E000EE66E020EE66E1AEC61
:103DE0006FF045E9010EE66E020EE66EE66AB1EC92
:103DF00000F043E9010EE66E030EE66EE66AB1ECF2
:103E000000F043E9010EE66EE66AE66AE66A50EC07
:103E100001F044E9190EE66EE66AE66AE66A01EB2D
:103E2000E6FF02EBE6FF03EBE6FF04EBE6FF14EC34
:103E300061F0E552E5CF03F0E5CF02F0E5CF01F008
:103E4000E7CF00F0000100510111021103111CE144
:103E500009500401291908E10A502A1905E10B50FB
:103E60002B1902E10C502C1906E1E80E016E030E2D
:103E7000026E036A046A04012951096E2A510A6E0E
:103E80002B510B6E2C510C6E060100A52CD043EC6F
:103E900069F0010EE66E87EC13F041E929EC5EF063
:103EA000060EE66EE66AE66AE66A50EC01F044E960
:103EB0008B920001010E7B6F0001806B80C0E6FFDA
:103EC00049EC69F041E97CC0E6FFFAEC69F041E9B0
:103ED000BE0EE66E8D0EE66E000EE66EEAEC6FF03C
:103EE00043E969EF29F0D950010FE96EDACFEAFF13
:103EF000EE2A000EEE22EE22EE2213D729C435F46C
:103F00002AC436F42BC437F42CC438F443EC69F0DB
:103F100000017B6B0001806B0A0EE66ED70EE66E29
:103F2000230EE66E3C0EE66E35C4E6FF36C4E6FFB1
:103F300037C4E6FF38C4E6FFA8EC5FF0D5EC62F0CA
:103F400010EC60F0E552E5CF13F4E5CF12F4E5CFC5
:103F500011F4E7CF10F464EC0BF0FA0EE66E7E0E6F
:103F6000E66E2A0EE66E3F0EE66E35C4E6FF36C4F8
:103F7000E6FF37C4E6FF38C4E6FFA8EC5FF0D5ECF7
:103F800062F010EC60F0E552E5CF13F4E5CF12F4E7
:103F9000E5CF11F4E7CF10F4290EE96E040EEA6EB6
:103FA000EE500401105D0001006FEE500401115944
:103FB0000001016FEE50040112590001026FEE5032
:103FC000040113590001036F0001D8513C0DF3CFD8
:103FD000E9FFF4CFEAFF000EE926050EEA220F0EF4
:103FE000E926000EEA22050EE926000EEA2200C0AC
:103FF000EEFF01C0EDFF64EC0BF0FA0EE66E7E0EF4
:10400000E66EAA0EE66E3E0EE66E35C4E6FF36C4D8
:10401000E6FF37C4E6FF38C4E6FFA8EC5FF0D5EC56
:1040200062F010EC60F0E552E5CF13F4E5CF12F446
:10403000E5CF11F4E7CF10F4290EE96E040EEA6E15
:10404000EE500401105D0001006FEE5004011159A3
:104050000001016FEE50040112590001026FEE5091
:10406000040113590001036F0001D8513C0DF3CF37
:10407000E9FFF4CFEAFF000EE926050EEA220F0E53
:10408000E926000EEA22050EE926000EEA2200C00B
:10409000EEFF01C0EDFF64EC0BF0660EE66E660EFF
:1040A000E66E660EE66E3F0EE66E35C4E6FF36C47B
:1040B000E6FF37C4E6FF38C4E6FFA8EC5FF0D5ECB6
:1040C00062F010EC60F0E552E5CF13F4E5CF12F4A6
:1040D000E5CF11F4E7CF10F4290EE96E040EEA6E75
:1040E000EE500401105D0001006FEE500401115903
:1040F0000001016FEE50040112590001026FEE50F1
:10410000040113590001036F0001D8513C0DF3CF96
:10411000E9FFF4CFEAFF000EE926050EEA220F0EB2
:10412000E926000EEA22050EE926000EEA2200C06A
:10413000EEFF01C0EDFF64EC0BF0CD0EE66ECC0E91
:10414000E66ECC0EE66E3D0EE66E35C4E6FF36C476
:10415000E6FF37C4E6FF38C4E6FFA8EC5FF0D5EC15
:1041600062F010EC60F0E552E5CF13F4E5CF12F405
:10417000E5CF11F4E7CF10F4290EE96E040EEA6ED4
:10418000EE500401105D0001006FEE500401115962
:104190000001016FEE50040112590001026FEE5050
:1041A000040113590001036F0001D8513C0DF3CFF6
:1041B000E9FFF4CFEAFF000EE926050EEA220F0E12
:1041C000E926000EEA22050EE926000EEA2200C0CA
:1041D000EEFF01C0EDFF64EC0BF0E66AE66AE66A0A
:1041E0003F0EE66E35C4E6FF36C4E6FF37C4E6FF91
:1041F00038C4E6FFA8EC5FF0D5EC62F010EC60F09C
:10420000E552E5CF13F4E5CF12F4E5CF11F4E7CF93
:1042100010F4290EE96E040EEA6EEE500401105DF2
:104220000001006FEE50040111590001016FEE50C2
:10423000040112590001026FEE50040113590001EC
:10424000036F0001D8513C0DF3CFE9FFF4CFEAFF33
:10425000000EE926050EEA220F0EE926000EEA22DC
:10426000050EE926000EEA2200C0EEFF01C0EDFFB8
:1042700064EC0BF0016A026A036A046A030E015CD3
:10428000000E0258000E0358000E045827E201EBFE
:10429000E9FF02EBEAFF3C0EEA02F3CFEAFF3C0E35
:1042A000E902F3CFE9FFF450EA26000EE926050EF5
:1042B000EA220F0EE926000EEA221D0EE926000E64
:1042C000EA22EE6AED6AD950010FE96EDACFEAFF11
:1042D000EE2A000EEE22EE22EE22D0D7016A026A0A
:1042E000036A046A030E015C000E0258000E0358B4
:1042F000000E045802E32AEF28F000017C5101E08F
:1043000000D101EBE9FF02EBEAFF3C0EEA02F3CF3A
:10431000EAFF3C0EE902F3CFE9FFF450EA26000E73
:10432000E926050EEA220F0EE926000EEA22090E02
:10433000E926000EEA22EECF00F0EFCF01F001EB0C
:10434000E9FF02EBEAFF3C0EEA02F3CFEAFF3C0E84
:10435000E902F3CFE9FFF450EA26000EE926050E44
:10436000EA220F0EE926000EEA220B0EE926000EC5
:10437000EA22EECF02F0EFCF03F000010135015148
:104380000001031908E6000100510001025D00016F
:1043900001510001035935E201EBE9FF02EBEAFFAD
:1043A0003C0EEA02F3CFEAFF3C0EE902F3CFE9FF4D
:1043B000F450EA26000EE926050EEA22060EE9264A
:1043C000000EEA22EF501DE001EBE9FF02EBEAFFED
:1043D0003C0EEA02F3CFEAFF3C0EE902F3CFE9FF1D
:1043E000F450EA26000EE926050EEA220F0EE92611
:1043F000000EEA221D0EE926000EEA22010EEE6EE4
:10440000ED6A01EBE9FF02EBEAFF3C0EEA02F3CFB3
:10441000EAFF3C0EE902F3CFE9FFF450EA26000E72
:10442000E926050EEA220F0EE926000EEA22170EF3
:10443000E926000EEA22EECF00F0EFCF01F001EB0B
:10444000E9FF02EBEAFF3C0EEA02F3CFEAFF3C0E83
:10445000E902F3CFE9FFF450EA26000EE926050E43
:10446000EA220F0EE926000EEA220D0EE926000EC2
:10447000EA22EECF02F0EFCF03F000010335035143
:104480000001011908E6000102510001005D000170
:1044900003510001015935E201EBE9FF02EBEAFFAC
:1044A0003C0EEA02F3CFEAFF3C0EE902F3CFE9FF4C
:1044B000F450EA26000EE926050EEA22060EE92649
:1044C000000EEA22EF501DE001EBE9FF02EBEAFFEC
:1044D0003C0EEA02F3CFEAFF3C0EE902F3CFE9FF1C
:1044E000F450EA26000EE926050EEA220F0EE92610
:1044F000000EEA221D0EE926000EEA22010EEE6EE3
:10450000ED6A030E00017C5D01E000D101EBE9FFE3
:1045100002EBEAFF3C0EEA02F3CFEAFF3C0EE902AF
:10452000F3CFE9FFF450EA26000EE926050EEA2251
:104530000F0EE926000EEA22090EE926000EEA22F5
:10454000EECF00F0EFCF01F001EBE9FF02EBEAFF65
:104550003C0EEA02F3CFEAFF3C0EE902F3CFE9FF9B
:10456000F450EA26000EE926050EEA220F0EE9268F
:10457000000EEA220B0EE926000EEA22EECF02F030
:10458000EFCF03F00001013501510001031908E6E6
:10459000000100510001025D0001015100010359B9
:1045A00035E201EBE9FF02EBEAFF3C0EEA02F3CF52
:1045B000EAFF3C0EE902F3CFE9FFF450EA26000ED1
:1045C000E926050EEA22060EE926000EEA22EF5041
:1045D0001DE001EBE9FF02EBEAFF3C0EEA02F3CF3C
:1045E000EAFF3C0EE902F3CFE9FFF450EA26000EA1
:1045F000E926050EEA220F0EE926000EEA221D0E1C
:10460000E926000EEA22010EEE6EED6A01EBE9FFEB
:1046100002EBEAFF3C0EEA02F3CFEAFF3C0EE902AE
:10462000F3CFE9FFF450EA26000EE926050EEA2250
:104630000F0EE926000EEA22170EE926000EEA22E6
:10464000EECF00F0EFCF01F001EBE9FF02EBEAFF64
:104650003C0EEA02F3CFEAFF3C0EE902F3CFE9FF9A
:10466000F450EA26000EE926050EEA220F0EE9268E
:10467000000EEA220D0EE926000EEA22EECF02F02D
:10468000EFCF03F00001033503510001011908E6E3
:10469000000102510001005D0001035100010159B8
:1046A00035E201EBE9FF02EBEAFF3C0EEA02F3CF51
:1046B000EAFF3C0EE902F3CFE9FFF450EA26000ED0
:1046C000E926050EEA22060EE926000EEA22EF5040
:1046D0001DE001EBE9FF02EBEAFF3C0EEA02F3CF3B
:1046E000EAFF3C0EE902F3CFE9FFF450EA26000EA0
:1046F000E926050EEA220F0EE926000EEA221D0E1B
:10470000E926000EEA22010EEE6EED6A00017C053C
:1047100001E000D101EBE9FF02EBEAFF3C0EEA0207
:10472000F3CFEAFF3C0EE902F3CFE9FFF450EA26AB
:10473000000EE926050EEA220F0EE926000EEA22F7
:10474000090EE926000EEA22EECF00F0EFCF01F0CD
:1047500001EBE9FF02EBEAFF3C0EEA02F3CFEAFFCE
:104760003C0EE902F3CFE9FFF450EA26000EE926F9
:10477000050EEA220F0EE926000EEA220B0EE926AC
:10478000000EEA22EECF02F0EFCF03F00001013578
:1047900001510001031908E6000100510001025D0A
:1047A000000101510001035935E201EBE9FF02EB81
:1047B000EAFF3C0EEA02F3CFEAFF3C0EE902F3CF38
:1047C000E9FFF450EA26000EE926050EEA22060E5D
:1047D000E926000EEA22EF501DE001EBE9FF02EBB3
:1047E000EAFF3C0EEA02F3CFEAFF3C0EE902F3CF08
:1047F000E9FFF450EA26000EE926050EEA220F0E24
:10480000E926000EEA221D0EE926000EEA22010E1C
:10481000EE6EED6A01EBE9FF02EBEAFF3C0EEA0205
:10482000F3CFEAFF3C0EE902F3CFE9FFF450EA26AA
:10483000000EE926050EEA220F0EE926000EEA22F6
:10484000170EE926000EEA22EECF00F0EFCF01F0BE
:1048500001EBE9FF02EBEAFF3C0EEA02F3CFEAFFCD
:104860003C0EE902F3CFE9FFF450EA26000EE926F8
:10487000050EEA220F0EE926000EEA220D0EE926A9
:10488000000EEA22EECF02F0EFCF03F00001033575
:1048900003510001011908E6000102510001005D09
:1048A000000103510001015935E201EBE9FF02EB80
:1048B000EAFF3C0EEA02F3CFEAFF3C0EE902F3CF37
:1048C000E9FFF450EA26000EE926050EEA22060E5C
:1048D000E926000EEA22EF501DE001EBE9FF02EBB2
:1048E000EAFF3C0EEA02F3CFEAFF3C0EE902F3CF07
:1048F000E9FFF450EA26000EE926050EEA220F0E23
:10490000E926000EEA221D0EE926000EEA22010E1B
:10491000EE6EED6A01EBE9FF02EBEAFF3C0EEA0204
:10492000F3CFEAFF3C0EE902F3CFE9FFF450EA26A9
:10493000000EE926050EEA220F0EE926000EEA22F5
:104940001D0EE926000EEA22EE50ED1001E0BFD167
:1049500001EBE9FF02EBEAFF3C0EEA02F3CFEAFFCC
:104960003C0EE902F3CFE9FFF450EA26000EE926F7
:10497000050EEA220F0EE926000EEA22190EE9269C
:10498000000EEA22010EEE6EED6A01EBE9FF02EB8A
:10499000EAFF3C0EEA02F3CFEAFF3C0EE902F3CF56
:1049A000E9FFF450EA26000EE926050EEA220F0E72
:1049B000E926000EEA221B0EE926000EEA22010E6D
:1049C000EE6EED6A01EBE9FF02EBEAFF3C0EEA0254
:1049D000F3CFEAFF3C0EE902F3CFE9FFF450EA26F9
:1049E000000EE926050EEA220D0EE926000EEA2247
:1049F000EECF00F0EFCF01F001EBE9FF02EBEAFFB1
:104A00003C0EEA02F3CFEAFF3C0EE902F3CFE9FFE6
:104A1000F450EA26000EE926050EEA220F0EE926DA
:104A2000000EEA22290EE926000EEA2200C0EEFF5F
:104A300001C0EDFF01EBE9FF02EBEAFF3C0EEA02E9
:104A4000F3CFEAFF3C0EE902F3CFE9FFF450EA2688
:104A5000000EE926050EEA22060EE926000EEA22DD
:104A6000EF5001E133D1020E00017C5D04E0580EED
:104A700001240D6E02D0410E0D6E0DEB00F0000111
:104A8000016B00BF016900C0E6FF01C0E6FFB00E88
:104A9000E66E8A0EE66E000EE66E000EE66E020E02
:104AA000E66E1AEC6FF047E9000EE66E020EE66E57
:104AB0003FEC70F042E901EBE9FF02EBEAFF3C0E4C
:104AC000EA02F3CFEAFF3C0EE902F3CFE9FFF4502C
:104AD000EA26000EE926050EEA220F0EE926000E50
:104AE000EA220B0EE926000EEA22EECFE6FFEECF19
:104AF000E6FF01EBE9FF02EBEAFF3C0EEA02F3CF2F
:104B0000EAFF3C0EE902F3CFE9FFF450EA26000E7B
:104B1000E926050EEA220F0EE926000EEA22090E0A
:104B2000E926000EEA22EECFE6FFEECFE6FF9A0E70
:104B3000E66E8A0EE66E000EE66E000EE66E020E61
:104B4000E66E1AEC6FF049E9000EE66E020EE66EB4
:104B50003FEC70F042E9680EE66E9A0EE66E000ECB
:104B6000E66EEAEC6FF043E901EBE9FF02EBEAFFE6
:104B70003C0EEA02F3CFEAFF3C0EE902F3CFE9FF75
:104B8000F450EA26000EE926050EEA220F0EE92669
:104B9000000EEA220D0EE926000EEA22EECFE6FF15
:104BA000EECFE6FF01EBE9FF02EBEAFF3C0EEA0283
:104BB000F3CFEAFF3C0EE902F3CFE9FFF450EA2617
:104BC000000EE926050EEA220F0EE926000EEA2263
:104BD000170EE926000EEA22EECFE6FFEECFE6FF43
:104BE000840EE66E8A0EE66E000EE66E000EE66E2F
:104BF000020EE66E1AEC6FF049E9000EE66E020E48
:104C0000E66E3FEC70F042E9680EE66E9A0EE66ED4
:104C1000000EE66EEAEC6FF043E901EBE9FF02EB10
:104C2000EAFF3C0EEA02F3CFEAFF3C0EE902F3CFC3
:104C3000E9FFF450EA26000EE926050EEA220F0EDF
:104C4000E926000EEA220F0EE926000EEA22EECF38
:104C5000E6FFEECFE6FF01EBE9FF02EBEAFF3C0ED9
:104C6000EA02F3CFEAFF3C0EE902F3CFE9FFF4508A
:104C7000EA26000EE926050EEA220F0EE926000EAE
:104C8000EA22150EE926000EEA22EECFE6FFEECF6D
:104C9000E6FF700EE66E8A0EE66E000EE66E000E01
:104CA000E66E020EE66E1AEC6FF049E9000EE66E53
:104CB000020EE66E3FEC70F042E9680EE66E9A0E68
:104CC000E66E000EE66EEAEC6FF043E9B7D101EB59
:104CD000E9FF02EBEAFF3C0EEA02F3CFEAFF3C0EEB
:104CE000E902F3CFE9FFF450EA26000EE926050EAB
:104CF000EA22060EE926000EEA22EF5001E19ED1DB
:104D000006010095020E00017C5D04E0580E0124AE
:104D10000D6E02D0410E0D6E0DEB00F00001016B27
:104D200000BF016900C0E6FF01C0E6FF5A0EE66E53
:104D30008A0EE66E000EE66E000EE66E020EE66E5F
:104D40001AEC6FF047E9010EE66EE66A9CC0E6FFDA
:104D5000B1EC00F043E9000EE66E020EE66E3FECA9
:104D600070F042E9680EE66E9A0EE66E000EE66E90
:104D7000EAEC6FF043E901EBE9FF02EBEAFF3C0EDE
:104D8000EA02F3CFEAFF3C0EE902F3CFE9FFF45069
:104D9000EA26000EE926050EEA220F0EE926000E8D
:104DA000EA220B0EE926000EEA22EECFE6FFEECF56
:104DB000E6FF01EBE9FF02EBEAFF3C0EEA02F3CF6C
:104DC000EAFF3C0EE902F3CFE9FFF450EA26000EB9
:104DD000E926050EEA220F0EE926000EEA22090E48
:104DE000E926000EEA22EECFE6FFEECFE6FF440E04
:104DF000E66E8A0EE66E000EE66E000EE66E020E9F
:104E0000E66E1AEC6FF049E9010EE66E010EE66EF1
:104E1000E66AB1EC00F043E9000EE66E020EE66EC3
:104E20003FEC70F042E9680EE66E9A0EE66E000EF8
:104E3000E66EEAEC6FF043E901EBE9FF02EBEAFF13
:104E40003C0EEA02F3CFEAFF3C0EE902F3CFE9FFA2
:104E5000F450EA26000EE926050EEA220F0EE92696
:104E6000000EEA220D0EE926000EEA22EECFE6FF42
:104E7000EECFE6FF01EBE9FF02EBEAFF3C0EEA02B0
:104E8000F3CFEAFF3C0EE902F3CFE9FFF450EA2644
:104E9000000EE926050EEA220F0EE926000EEA2290
:104EA000170EE926000EEA22EECFE6FFEECFE6FF70
:104EB0002E0EE66E8A0EE66E000EE66E000EE66EB2
:104EC000020EE66E1AEC6FF049E9010EE66E020E74
:104ED000E66EE66AB1EC00F043E9000EE66E020E03
:104EE000E66E3FEC70F042E9680EE66E9A0EE66EF2
:104EF000000EE66EEAEC6FF043E901EBE9FF02EB2E
:104F0000EAFF3C0EEA02F3CFEAFF3C0EE902F3CFE0
:104F1000E9FFF450EA26000EE926050EEA220F0EFC
:104F2000E926000EEA220F0EE926000EEA22EECF55
:104F3000E6FFEECFE6FF01EBE9FF02EBEAFF3C0EF6
:104F4000EA02F3CFEAFF3C0EE902F3CFE9FFF450A7
:104F5000EA26000EE926050EEA220F0EE926000ECB
:104F6000EA22150EE926000EEA22EECFE6FFEECF8A
:104F7000E6FF700EE66E8A0EE66E000EE66E000E1E
:104F8000E66E020EE66E1AEC6FF049E9010EE66E6F
:104F9000030EE66EE66AB1EC00F043E9000EE66E41
:104FA000020EE66E3FEC70F042E9680EE66E9A0E75
:104FB000E66E000EE66EEAEC6FF043E9010EE66E77
:104FC000010EE66E5DEC69F042E9020E00017C5DC7
:104FD00004E0580E01240D6E02D0410E0D6E0DEB53
:104FE00000F00001016B00BF016900C0E6FF01C0D5
:104FF000E6FF020EE66E8A0EE66E000EE66E000E0C
:10500000E66E020EE66E1AEC6FF047E9000EE66EF1
:10501000020EE66E3FEC70F042E9020EE66E33ECF3
:105020005EF041E90400060100A5F7D7E66A010E2B
:10503000E66E5DEC69F042E929EC5EF0D950010FB3
:10504000E96EDACFEAFFEE2A000EEE22EE22EE2221
:1050500072EF21F043EC69F0060EE66EE66AE66A4E
:10506000E66A50EC01F044E98B9200017B6B000191
:10507000806B29EC5EF00001865101E01BD1016AD2
:10508000026A036A046A050EE66E33EC5EF041E9DB
:10509000ED0EE66E890EE66E000EE66E000EE66E12
:1050A000020EE66E1AEC6FF045E9010EE66EE66A56
:1050B0009CC0E6FFB1EC00F043E9060100A57FD0FB
:1050C0008F80D80EE66E890EE66E000EE66E000E3C
:1050D000E66E020EE66E1AEC6FF045E9010EE66E22
:1050E000E66A9CC0E6FFB1EC00F043E9060EE66E0E
:1050F000E66AE66AE66A50EC01F044E929EC5EF003
:10510000310EE66E920EE66E000EE66E000EE66E54
:10511000020EE66E1AEC6FF045E9010EE66EE66AE5
:10512000E66AB1EC00F043E9310EE66E920EE66EEF
:10513000000EE66E000EE66E020EE66E1AEC6FF0E2
:1051400045E9010EE66E010EE66EE66AB1EC00F08E
:1051500043E9310EE66E920EE66E000EE66E000E2C
:10516000E66E020EE66E1AEC6FF045E9010EE66E91
:10517000020EE66EE66AB1EC00F043E9310EE66E2F
:10518000920EE66E000EE66E000EE66E020EE66E03
:105190001AEC6FF045E9010EE66E030EE66EE66A64
:1051A000B1EC00F043E9020EE66E78EC10F041E954
:1051B000A00E016E860E026E010E036E046A0400DC
:1051C000060106010051040B1DE1D950010FE96EE3
:1051D000DACFEAFFEFCF00F0EE2A000EEFCF01F0BA
:1051E000EE22EFCF02F0EE22EFCF03F0EF22E80E37
:1051F0000001005D030E0159000E0259000E035913
:1052000001E246D7310EE66E920EE66E000EE66EB5
:10521000000EE66E020EE66E1AEC6FF045E9010E26
:10522000E66EE66AE66AB1EC00F043E9310EE66E3E
:10523000920EE66E000EE66E000EE66E020EE66E52
:105240001AEC6FF045E9010EE66E010EE66EE66AB5
:10525000B1EC00F043E9310EE66E920EE66E000E00
:10526000E66E000EE66E020EE66E1AEC6FF045E991
:10527000010EE66E020EE66EE66AB1EC00F043E95E
:10528000310EE66E920EE66E000EE66E000EE66ED3
:10529000020EE66E1AEC6FF045E9010EE66E030EA3
:1052A000E66EE66AB1EC00F043E929EC5EF0B6EC9C
:1052B00013F000D000017B6B0001806B29EC5EF0E5
:1052C0000F0EE66E8C0EE66E000EE66EEAEC6FF0E8
:1052D00043E952E9E7CFD9FF1200E6EC34F00001D0
:1052E000885150E0ECC4E6FFEDC4E6FFEAC4E6FFF7
:1052F000EBC4E6FFE8C4E6FFE9C4E6FFBEEC32F02B
:10530000D0EC32F0ACEC32F0A30EE66E890EE66E15
:10531000000E8BEC2DF0B2EC30F0C7EC32F0D9EC93
:1053200032F0B5EC32F0800EE66E890EE66E000EBD
:10533000F2DB51E95AEC31F090C5E6FF91C5E6FF8A
:105340008AC5E6FF8BC5E6FF28EC34F054C5E6FFBE
:1053500055C5E6FF4EC5E6FF4FC5E6FF97EC2FF0BB
:1053600018C5E6FF19C5E6FF12C5E6FF13C5E6FF3F
:10537000EAEC33F0420EE66E890EE66E000ECBDBF1
:10538000B2EC30F012000601C80EA76F17EC2FF038
:10539000C6EC30F027E02B0EE66E4EEC6EF041E9E5
:1053A000C6EC30F0FDE117EC2FF02B0EE66E4EEC64
:1053B0006EF041E9C6EC30F0FDE10C0EE66ECAEC91
:1053C00070F041E9C6EC30F0FDE1010EE66ECAEC8A
:1053D00070F041E917EC2FF00001010EF26F0601A9
:1053E000180EA76F12000001806B120EE66E220EDF
:1053F000E66E3CEC6DF042E92D0EE66E890EE66E2F
:10540000000EE66E000EE66E020EE66E1AEC6FF00F
:1054100045E9010EE66EE66AE66AB1EC00F043E9A2
:10542000010EE66E010EE66EE66AB1EC00F043E9AD
:10543000010EE66E020EE66EE66AB1EC00F043E99C
:10544000010EE66E030EE66EE66AB1EC00F043E98B
:10545000120EE66E220EE66EEDEC6DF042E98F90D4
:1054600092DF8B68FCAE15D0FC9E680EE66E9A0E3D
:10547000E66E000EE66EEAEC6FF043E9A4EC03F092
:10548000080EE66E890EE66E000EE66EEAEC6FF030
:1054900043E9FCAC15D0FC9C680EE66E9A0EE66EF5
:1054A000000EE66EEAEC6FF043E9A4EC03F0DE0ECA
:1054B000E66E880EE66E000EE66EEAEC6FF043E9EB
:1054C0000001735114E0680EE66E9A0EE66E000E4F
:1054D000E66EEAEC6FF043E9A4EC03F0B50EE66E7D
:1054E000880EE66E000EE66EEAEC6FF043E900010E
:1054F000745114E0680EE66E9A0EE66E000EE66ECB
:10550000EAEC6FF043E9A4EC03F08C0EE66E880E33
:10551000E66E000EE66EEAEC6FF043E9140EE66EFE
:10552000E66A740EE66E880EE66E000EE66E000EFB
:10553000E66E020EE66E08EC6DF047E9010EE66ECF
:10554000E66AE66AB1EC00F043E9630EE66E9A0E95
:10555000E66E000EE66EEAEC6FF043E9140EE66EBE
:10556000E66A99C0E6FF9AC0E6FF9BC0E6FF000E20
:10557000E66E020EE66E08EC6DF047E9010EE66E8F
:10558000010EE66EE66AB1EC00F043E9000EE66E4D
:10559000020EE66E3FEC70F042E9610EE66E9A0E86
:1055A000E66E000EE66EEAEC6FF043E9140EE66E6E
:1055B000E66A96C0E6FF97C0E6FF98C0E6FF000ED9
:1055C000E66E020EE66E08EC6DF047E9000EE66E40
:1055D000020EE66E3FEC70F042E9010EE66E020E3E
:1055E000E66EE66AB1EC00F043E9140EE66EE66A98
:1055F0004B0EE66E9A0EE66E000EE66E000EE66E3E
:10560000020EE66E08EC6DF047E9000EE66E020E43
:10561000E66E3FEC70F042E9680EE66E9A0EE66EBA
:10562000000EE66EEAEC6FF043E9010EE66E030E43
:10563000E66EE66AB1EC00F043E9A4EC03F0550E27
:10564000E66E880EE66E000EE66EEAEC6FF043E959
:1056500083A20CD00001010E886F3D0EE66E880E0D
:10566000E66E000EE66EEAEC6FF043E983A039D0F7
:10567000A4EC03F0240EE66E880EE66E000EE66ED5
:10568000EAEC6FF043E9000EE66EE66A000EE66EA5
:10569000E66A010EE66EE66A18EC6CF046E9A4ECE8
:1056A00003F0070EE66E880EE66E000EE66EEAEC7C
:1056B0006FF043E90601D66B0F0E0601D65D11E2CD
:1056C000080EE66EE66A0601D651E66EE66A0F0E31
:1056D000E66E7F0EE66E18EC6CF046E90601D62BFE
:1056E000EBD7A4EC03F0E70EE66E870EE66E000E35
:1056F000E66EEAEC6FF043E9000EE66EE66A000E35
:10570000E66EE66A4AEC6CF044E959080CE1000EDA
:10571000E66EE66A020EE66EE66A4AEC6CF044E972
:105720000601D56F22D0A4EC03F0C40EE66E870EFE
:10573000E66E000EE66EEAEC6FF043E9000EE66EF0
:10574000E66A000EE66EE66A010EE66EE66A18ECA0
:105750006CF046E9A4EC03F0A40EE66E870EE66E4C
:10576000000EE66EEAEC6FF043E9A4EC03F08B0E5A
:10577000E66E870EE66E000EE66EEAEC6FF043E929
:10578000080EE66EE66A000EE66EE66A4AEC6CF01B
:1057900044E959081FE10601D66B0F0E0601D65DDC
:1057A00018E20601D651E66EE66A0A0EE66EE66A71
:1057B0004AEC6CF044E9E66E0601D651EA6AE10F64
:1057C000E96E000EEA22E552E750EF6E0601D62B95
:1057D000E4D734D0A4EC03F06F0EE66E870EE66ECD
:1057E000000EE66EEAEC6FF043E90601D66B0F0E91
:1057F0000601D65D18E2080EE66EE66A0601D6518D
:10580000E66EE66A0F0EE66E0601D651EA6AE10F11
:10581000E96E000EEA22EFCFE6FF18EC6CF046E9E5
:105820000601D62BE4D7A4EC03F0560EE66E870EE5
:10583000E66E000EE66EEAEC6FF043E983A403D057
:1058400048EC0AF0FFD71BEC42F0A4EC03F03D0E4D
:10585000E66E870EE66E000EE66EEAEC6FF043E948
:10586000050EE66EE66AE66AE66A50EC01F044E987
:10587000E6EC34F083A00BD0A4EC03F0270EE66E28
:10588000870EE66E000EE66EEAEC6FF043E9740EEA
:10589000E66E030EE66E05C6E6FF06C6E6FF07C621
:1058A000E6FF08C6E6FFE9EC07F046E97B0EE66E88
:1058B000030EE66E09C6E6FF0AC6E6FF0BC6E6FF64
:1058C0000CC6E6FFE9EC07F046E97B0EE66E030E38
:1058D000E66E740EE66E030EE66E0E0EE66E870E34
:1058E000E66E000EE66E000EE66E020EE66E1AEC36
:1058F0006FF049E9010EE66EE66AE66AB1EC00F087
:1059000043E98350800B01E0010EE66EE66A8350A6
:10591000400B01E0010EE66EE66A8350200B01E0C9
:10592000010EE66EE66A8350100B01E0010EE66E92
:10593000E66A8350080B01E0010EE66EE66A8350CA
:10594000040B01E0010EE66EE66A8350020B01E0F3
:10595000010EE66EE66A8350010BE66EE66AEC0E17
:10596000E66E860EE66E000EE66E000EE66E020E27
:10597000E66E1AEC6FF055E9010EE66E010EE66E6A
:10598000E66AB1EC00F043E925EC03F0050EE66EA3
:10599000E66AE66AE66A50EC01F044E9E6EC34F0C7
:1059A00005C6E6FF06C6E6FF51EC71F042E9FDECE4
:1059B0006DF08B6A00017C51E66EE66AE1EC0DF059
:1059C00042E97CC0E6FFFAEC69F041E90001010E12
:1059D000676F740EE66E030EE66E05C6E6FF06C63A
:1059E000E6FF07C6E6FF08C6E6FFE9EC07F046E972
:1059F0007B0EE66E030EE66E09C6E6FF0AC6E6FFFC
:105A00000BC6E6FF0CC6E6FFE9EC07F046E910C45A
:105A1000E6FF11C4E6FF12C4E6FF13C4E6FF00C4AC
:105A2000E6FF01C4E6FF02C4E6FF03C4E6FF7B0E07
:105A3000E66E030EE66E740EE66E030EE66ECE0E96
:105A4000E66E860EE66E000EE66E000EE66E020E46
:105A5000E66E1AEC6FF051E9010EE66EE66AE66A50
:105A6000B1EC00F043E9000EE66E020EE66E3FEC8C
:105A700070F042E925EC03F0280EE66E38EC5EF09B
:105A800041E9050EE66EE66AE66AE66A50EC01F068
:105A900044E90001010E7A6F29EC0BF0010EE66E6D
:105AA000010EE66EE66AE66AE66A8AEC02F045E90D
:105AB000E6EC34F034EC69F0000905E000016551D2
