:020000040000FA
:06000000D1EF74F01200C4
:020006001200E6
:06000800A3EF58F0120006
:02000E00C250DE
:08001000020B01E0010E1200D9
:0600180037EF5FF012005B
:02001E000700D9
:100020001BEA0000F9040000010000000CEB0000D6
:10003000F30400000200000008EB0000FB020000D7
:10004000040000006FEA000060000000990000005A
:100050005DEA0000EA030000120000005BEA000015
:10006000FE0600000200000028EA0000C2050000B1
:040070003300000059
:0C0074004EEC2DF083E941E80150050836
:1000800001E2016A005003E09CEC2EF0EF6A01EB04
:10009000C7F500017E0E036F9C0E046F000E056F06
:1000A000DCEC2EF0E5CF08F019EC30F000018EEC1E
:1000B00031F09CEC2EF0EFCF09F00A6B0B6B005186
:1000C0000925F36E01510A21F46E02510B21F86EDD
:1000D000F4CFF7FFF3CFF6FF0800F550036E9CEC6A
:1000E0002EF0EF2AEFCF00F0016B026B02EC32F042
:1000F00002C0E6FF7E0E096F9C0E0A6F000E0B6FAA
:10010000DCEC2EF0E5CF0EF0E5CF0DF0E7CF0CF0F4
:10011000000109510C25066F0A510D21076F0B5183
:100120000E21086F3FEC33F0E66EB0EC6EF043E961
:10013000E552E7CF02F0E552E7CF01F0E552E7CF15
:1001400000F0FCC303F0FDC304F0FEC305F00001A2
:100150000351005D045101590551025903E39CEC20
:100160002EF0EF6A035042E9E7CFD9FF12004EECC0
:100170002DF084E90001F6514FE0005021E00250DB
:1001800001240501C86F27EC32F0F10EE66E9A0EDD
:10019000E66E000EE66E94EC2DF003EC6FF047E98E
:1001A00027EC32F001EC33F0050194EC2DF0D5ECA6
:1001B0006EF046E9050179EC31F0140E1CEC2FF0DD
:1001C0000150030A0CE0010A08E0030A04E0010AF6
:1001D00009E1E66A08D0400E03D0140E01D0540E97
:1001E000E66E01D0E66A5DEC72F041E90150000173
:1001F000A0250501C86F00016A510EE0E0EC2FF068
:10020000FDE1050194EC2DF08CEC73F042E9E0EC9B
:100210002FF0FDE1010E901665EF2DF000016E51FB
:1002200004E01BEC42F000016E6B725107E0726B50
:10023000F85102E0000E01D0010EF86F755104E094
:1002400023EC11F00001756B685103E0A7DA00019F
:10025000686B715104E001EC07F00001716B6F51A4
:1002600003E0BDDA00016F6B1200D9CFE6FFE1CFEA
:10027000D9FF85E90401776B786B796B7A6B0401A0
:100280007751005C78510158795102587A510358DE
:1002900009E3000004000401772B000E7823792382
:1002A0007A23EDD741E9E7CFD9FF1200D9CFE6FF96
:1002B000E1CFD9FF85E9030EE66E8EEC6DF041E9E2
:1002C00091C67BF492C67CF493C67DF494C67EF40A
:1002D000DAEC6DF0D9CFE9FFDACFEAFF04017B5108
:1002E000EE240401836F04017C51EE200401846F2D
:1002F00004017D51EE200401856F04017E51EE2042
:100300000401866F030EE66E8EEC6DF041E991C636
:100310007FF492C680F493C681F494C682F4DAEC3A
:100320006DF004007F0EE96E040EEA6E0401835145
:10033000EE5C8451EE588551EE588651EE58E2E35A
:1003400041E9E7CFD9FF12005EEC31F019E086EC0D
:100350002DF091C687F492C688F493C689F494C6AA
:100360008AF4C5EC2DF004018751EE248F6F88517B
:10037000EE20906F8951EE20916F8A51EE20926F9E
:1003800086EC2DF091C68BF492C68CF493C68DF456
:1003900094C68EF4DAEC6DF08B0EE96E040EEA6E04
:1003A00004018F51EE5C9051EE589151EE589251EC
:1003B000EE5802E2000E01D0010E65EF2DF05EEC6A
:1003C00031F019E086EC2DF091C693F492C694F4C6
:1003D00093C695F494C696F4C5EC2DF004019351A0
:1003E000EE249B6F9451EE209C6F9551EE209D6FF3
:1003F0009651EE209E6F86EC2DF091C697F492C632
:1004000098F493C699F494C69AF4DAEC6DF0970ECA
:10041000E96E040EEA6E04019B51EE5C9C51EE58AD
:100420009D51EE589E51EE5802E2000E01D0010E91
:1004300065EF2DF05EEC31F019E086EC2DF091C601
:100440009FF492C6A0F493C6A1F494C6A2F4C5EC9E
:100450002DF004019F51EE24A76FA051EE20A86F4C
:10046000A151EE20A96FA251EE20AA6F86EC2DF0CB
:1004700091C6A3F492C6A4F493C6A5F494C6A6F4B8
:10048000DAEC6DF0A30EE96E040EEA6E0401A751DA
:10049000EE5CA851EE58A951EE58AA51EE5802E26E
:1004A000000E01D0010E65EF2DF05EEC31F019E089
:1004B00086EC2DF091C6ABF492C6ACF493C6ADF4C5
:1004C00094C6AEF4C5EC2DF00401AB51EE24B36F2D
:1004D000AC51EE20B46FAD51EE20B56FAE51EE20B1
:1004E000B66F86EC2DF091C6AFF492C6B0F493C609
:1004F000B1F494C6B2F4DAEC6DF0AF0EE96E040E0E
:10050000EA6E0401B351EE5CB451EE58B551EE58A9
:10051000B651EE5802E2000E01D0010E65EF2DF04B
:100520005EEC31F019E086EC2DF091C6B7F492C67E
:10053000B8F493C6B9F494C6BAF4C5EC2DF004012E
:10054000B751EE24BF6FB851EE20C06FB951EE2005
:10055000C16FBA51EE20C26F86EC2DF091C6BBF48C
:1005600092C6BCF493C6BDF494C6BEF4DAEC6DF04A
:10057000BB0EE96E040EEA6E0401BF51EE5CC05181
:10058000EE58C151EE58C251EE5802E2000E01D0B1
:10059000010E65EF2DF05EEC31F019E086EC2DF0E8
:1005A00091C6C3F492C6C4F493C6C5F494C6C6F407
:1005B000C5EC2DF00401C351EE24CB6FC451EE20E5
:1005C000CC6FC551EE20CD6FC651EE20CE6F86ECBC
:1005D0002DF091C6C7F492C6C8F493C6C9F494C668
:1005E000CAF4DAEC6DF0C70EE96E040EEA6E04018F
:1005F000CB51EE5CCC51EE58CD51EE58CE51EE5869
:1006000002E2000E01D0010E65EF2DF000000401A2
:10061000CF6B0501C2510401CF5D04E2000004016B
:10062000CF2BF7D712000F0EE66EEAEC73F041E91C
:100630001200050EE66EEAEC73F041E912004EEC92
:100640002DF082E96CA2FED700EBE6FF82EC74F09D
:1006500041E965EF2DF0050E8FEF2DF000016A5195
:1006600001E11200E0EC2FF0FDE112004EEC2DF064
:1006700089E903340EE202500808000E035409E22F
:1006800004EBFCF305EBFDF306EBFEF307EBFFF3E6
:100690005FD00050011009E000018F0E926FC20E72
:1006A000936F750E946F3D0E06D00001926B936BA5
:1006B000800E946F3E0E956F0EEC31F092C0E6FF07
:1006C00093C0E6FF94C0E6FF95C0E6FF19EC33F057
:1006D0000EEC31F004EBE6FF05EBE6FF06EBE6FF80
:1006E00007EBE6FF01EC64F081EC5FF001EC64F0F5
:1006F00019EC33F083EC5FF083EC62F0E552E5CF68
:1007000099F0E5CF98F0E5CF97F0E7CF96F074EC4D
:100710002DF096C0EEFF97C0EEFF98C0EEFF99C097
:10072000EEFF001C0DE1011C0BE10001966B976BC5
:10073000986B996B74EC2DF0EE6AEE6AEE6AEE6AD5
:1007400096C0FCF397C0FDF398C0FEF399C0FFF389
:1007500065EF2DF004004DC6E6FF4EC6E6FF4FC61E
:10076000E6FF50C6E6FF66DB44E9F3CFE6FFF4CFD1
:10077000E6FFEA0EE66E9A0EE66E000EE66E200EBC
:10078000E66E030EE66E15EC71F047E9200EE66E9C
:10079000030EE66E3AEC72F042E91200DBDF930ED4
:1007A000E66EA60EE66E000E62EC30F00401236BDE
:1007B000040123510AE10A0EDAEC30F056DD44E977
:1007C00020EC34F048EC5FF0F3D7020E235DC2DF7B
:1007D000F10EE66EA60EE66E000E62EF30F004003B
:1007E000E70EE66E9A0EE66E000EE66E000EE66E00
:1007F000020EE66E15EC71F045E9000EE66E020E93
:10080000E66E3AEC72F042E9A5DFE20EE66E9A0E71
:10081000E66E000EE66EE5EC71F043E99DC0E6FF82
:100820009EC0E6FF9FC0E6FF000EE66E020EE66E7B
:1008300097EC6EF045E9000EE66E020EE66E3AECBD
:1008400072F042E9E00EE66E9A0EE66E000EE66E7B
:10085000E5EC71F043E99AC0E6FF9BC0E6FF9CC05F
:10086000E6FF000EE66E020EE66E97EC6EF045E9CE
:10087000000EE66E020EE66E3AEC72F042E9CA0E27
:10088000E66E9A0EE66E000EE66E000EE66E020E44
:10089000E66E97EC6EF045E9000EE66E020EE66E2F
:1008A0003AEC72F042E900018351E66EE66A00011B
:1008B0006051E66EE66A59C6E6FF5AC6E6FF5BC6B9
:1008C000E6FF5CC6E6FF55C6E6FF56C6E6FF57C61E
:1008D000E6FF58C6E6FF43C6E6FF44C6E6FF00C68D
:1008E000E6FF01C6E6FF02C6E6FF03C6E6FF835049
:1008F000800B01E0010EE66EE66A8350400B01E0DA
:10090000010EE66EE66A8350200B01E0010EE66EF2
:10091000E66A8350100B01E0010EE66EE66A835032
:10092000080B01E0010EE66EE66A8350040B01E05D
:10093000010EE66EE66A8350020B01E0010EE66EE0
:10094000E66A8350010BE66EE66A00016351E66ECB
:10095000E66A3B0EE66E9A0EE66E000EE66E000E3E
:10096000E66E020EE66E15EC71F069E9000EE66EB9
:10097000020EE66E3AEC72F042E90601A551E66E0F
:10098000E66A7850E66EE66A69C6E6FF6AC6E6FF82
:100990006BC6E6FF6CC6E6FF4DC6E6FF4EC6E6FF39
:1009A0004FC6E6FF50C6E6FF91C6E6FF92C6E6FFD9
:1009B00093C6E6FF94C6E6FF3DEC62F091C6E6FF03
:1009C00092C6E6FF93C6E6FF94C6E6FF8DC6E6FF35
:1009D0008EC6E6FF8FC6E6FF90C6E6FF51C6E6FF6D
:1009E00052C6E6FF53C6E6FF54C6E6FF49C6E6FF19
:1009F0004AC6E6FF4BC6E6FF4CC6E6FF61C6E6FF09
:100A000062C6E6FF63C6E6FF64C6E6FF89C6E6FF88
:100A10008AC6E6FF8BC6E6FF8CC6E6FF85C6E6FF04
:100A200086C6E6FF87C6E6FF88C6E6FF6DC6E6FF18
:100A30006EC6E6FF6FC6E6FF70C6E6FF4DC6E6FF70
:100A40004EC6E6FF4FC6E6FF50C6E6FF7C0EE66EDA
:100A5000990EE66E000EE66E000EE66E020EE66E73
:100A600015EC71F075E9000EE66E020EE66E3AECDA
:100A700072F042E929C4E6FF2AC4E6FF2BC4E6FF70
:100A80002CC4E6FF65C6E6FF66C6E6FF67C6E6FF5E
:100A900068C6E6FF71C6E6FF72C6E6FF73C6E6FFEC
:100AA00074C6E6FF75C6E6FF76C6E6FF77C6E6FFC4
:100AB00078C6E6FF79C6E6FF7AC6E6FF7BC6E6FFA4
:100AC0007CC6E6FF7DC6E6FF7EC6E6FF7FC6E6FF84
:100AD00080C6E6FF1D0EE66E990EE66E000EE66E0F
:100AE000000EE66E020EE66E15EC71F05DE9000E8A
:100AF000E66E020EE66E3AEC72F042E90401D06B4B
:100B0000030E0401D05D01E36ED10401D051400D0C
:100B1000F3CFE9FFF4CFEAFF000EE926050EEA2243
:100B2000060EE926000EEA22EF5001E159D1040138
:100B3000D051400DF3CFE9FFF4CFEAFF000EE926D4
:100B4000050EEA220F0EE926000EEA221B0EE92608
:100B5000000EEA22EECFE6FFEECFE6FF0401D05111
:100B6000400DF3CFE9FFF4CFEAFF000EE926050EB2
:100B7000EA220F0EE926000EEA22190EE926000EDF
:100B8000EA22EECFE6FFEECFE6FF0401D051400DA2
:100B9000F3CFE9FFF4CFEAFF000EE926050EEA22C3
:100BA0000F0EE926000EEA222D0EE926000EEA229B
:100BB000EECFE6FFEECFE6FF0401D051400DF3CFBC
:100BC000E9FFF4CFEAFF000EE926050EEA220F0E38
:100BD000E926000EEA222B0EE926000EEA22EECFCD
:100BE000E6FFEECFE6FF0401D051400DF3CFE9FF61
:100BF000F4CFEAFF000EE926050EEA220F0EE926E1
:100C0000000EEA22090EE926000EEA22EECFE6FFE8
:100C1000EECFE6FF0401D051400DF3CFE9FFF4CF52
:100C2000EAFF000EE926050EEA220F0EE926000E65
:100C3000EA22150EE926000EEA22EECFE6FFEECFFD
:100C4000E6FF0401D051400DF3CFE9FFF4CFEAFFF6
:100C5000000EE926050EEA220F0EE926000EEA2212
:100C6000170EE926000EEA22EECFE6FFEECFE6FFF2
:100C70000401D051400DF3CFE9FFF4CFEAFF000E9D
:100C8000E926050EEA220F0EE926000EEA22050EDD
:100C9000E926000EEA22EECFE6FFEECFE6FF0401E2
:100CA000D051400DF3CFE9FFF4CFEAFF000EE92663
:100CB000050EEA220F0EE926000EEA22030EE926AF
:100CC000000EEA22EECFE6FFEECFE6FF0401D051A0
:100CD000400DF3CFE9FFF4CFEAFF000EE926050E41
:100CE000EA220F0EE926000EEA22EE52EECFE6FFD0
:100CF000EECFE6FF0401D051E66EE66AA50EE66E81
:100D0000980EE66E000EE66E000EE66E020EE66EC1
:100D100015EC71F05BE9000EE66E020EE66E3AEC41
:100D200072F042E9E66AE66A7A0EE66E440EE66E14
:100D30000401D051400DF3CFE9FFF4CFEAFF000EDC
:100D4000E926050EEA220F0EE926000EEA22230EFE
:100D5000E926000EEA22EECFE6FFEECFE6FFEECF69
:100D6000E6FFEECFE6FF01EC64F0F9EC60F0E66A36
:100D7000E66A7A0EE66E440EE66E0401D051400D2E
:100D8000F3CFE9FFF4CFEAFF000EE926050EEA22D1
:100D90000F0EE926000EEA22270EE926000EEA22AF
:100DA000EECFE6FFEECFE6FFEECFE6FFEECFE6FFBB
:100DB00001EC64F0F9EC60F0840EE66E980EE66EDD
:100DC000000EE66E000EE66E020EE66E15EC71F099
:100DD00049E9000EE66E020EE66E3AEC72F042E968
:100DE0000401D02B8DD60001F85109E06C0EE66E9F
:100DF000980EE66E000EE66EE5EC71F043E9040035
:100E000012009A0EE66EA70EE66E000E62EC30F04F
:100E1000E40EE66EA70EE66E000E62EC30F0000106
:100E2000F85107E06C0EE66E980EE66E000E62EC6E
:100E300030F012004EEC2DF02EEC2FF002E242ECDE
:100E40002FF000EBD1F501EBD2F502EBD3F503EB7C
:100E5000D4F5A3EC2EF0E6EC2EF0E5CFCCF5E5CF03
:100E6000CBF5E5CFCAF5E7CFC9F5A3EC2EF04BECF7
:100E70002FF085EC31F0DAEC2DF0F9EC2EF0E6EC09
:100E80002EF0E5CFD0F5E5CFCFF5E5CFCEF5E7CF26
:100E9000CDF5F9EC2EF054EC2FF085EC31F0DAECD6
:100EA0002DF02BEC32F0E66E54EC2FF04BEC2FF0E3
:100EB0005A0EE66E980EE66E000EE8EC2FF051E941
:100EC000B3EF31F04EEC2DF02EEC2FF002E242ECBD
:100ED0002FF000EBDDF501EBDEF502EBDFF503EBC8
:100EE000E0F5A3EC2EF0EDEC2EF0E5CFD8F5E5CF54
:100EF000D7F5E5CFD6F5E7CFD5F5A3EC2EF05DEC31
:100F00002FF085EC31F0F3EC2DF0F9EC2EF0EDEC58
:100F10002EF0E5CFDCF5E5CFDBF5E5CFDAF5E7CF71
:100F2000D9F5F9EC2EF066EC2FF085EC31F0F3EC0E
:100F30002DF066EC2FF05DEC2FF04E0EE66E980E65
:100F4000E66E000EE8EC2FF04DE9B3EF31F04EEC19
:100F50002DF083E901340EE300EB00F001EB01F02A
:100F60000001006D011F000E012300C0F3FF01C04E
:100F7000F4FF02D01FEC2FF065EF2DF04EEC2DF0BA
:100F800085E9033413E3E668E668E668E6680BEC97
:100F900030F003EBE6FF85EC31F000C0FCF301C05C
:100FA000FDF302C0FEF303C0FFF308D000EBFCF337
:100FB00001EBFDF302EBFEF303EBFFF365EF2DF026
:100FC00098EC31F01EEC33F0A4EC2CF06FEC2FF029
:100FD000460EE66E980EE66E000E32EF32F098EC9A
:100FE00031F0F3EC32F06FEC2FF03E0EE66E980E1F
:100FF000E66E000E32EF32F01FEC32F002E32D0EFF
:10100000916FD3EC2DF0D4EC60F0F1EC2CF0F3EC1C
:1010100032F0C7EC30F03FEC2DF0D89000010351D6
:10102000000A08E6DC0E005D050E0159000E0259AB
:10103000000E035917E2C7EC30F03FEC2DF083ECC3
:101040002EF091C004F00001056B04BF05691EEC91
:1010500030F0380EE66E980EE66E000E51EC2EF073
:101060004BE934D0E66AE66A7A0EE66E440EBDECD1
:101070002DF0F1EC2CF01EEC33F037EC32F0E3C045
:10108000E6FFE66E3FEC2DF083EC2EF0C7EC30F07F
:1010900075DF44E9FCC304F0FDC305F0FEC306F0B0
:1010A000FFC307F083EC2EF091C008F00001096B3C
:1010B00008BF096908C0E6FF09C0E6FF2B0EE66E0F
:1010C000980EE66E000E51EC2EF04FE91FEC2FF05B
:1010D00065EF2DF01FEC32F002E32D0E916FE66A02
:1010E000E66A200EE66E410EA0EC31F0D4EC60F022
:1010F00083EC62F0E552E5CFCAF0E5CFC9F0E5CF69
:10110000C8F0E7CFC7F075EC2FF025EC31F0200EDA
:10111000E66E410EE66E75EC2FF024EC33F00A0E0D
:1011200037EC32F0EFEC2FF044EC33F0EFEC2FF033
:1011300091C000F00001016B00BF016902EC32F0C8
:10114000210EE66E980EE66E000E51EC2EF04BE985
:101150001FEC2FF065EF2DF04EEC2DF085E986ECBD
:101160002DF003500001006F016B01354AE2005180
:10117000FA08000E015545E2FF0E24EC2FF00AE1BB
:10118000F45008E10001775101E183D1DAEC6DF010
:10119000010E82D1FE0E24EC2FF009E1F45007E19C
:1011A000DAEC6DF000015CEC2DF0040E27D0FD0EA2
:1011B00024EC2FF009E1F45007E10001010E776FF4
:1011C000DAEC6DF0FD0E68D1FC0E24EC2FF008E196
:1011D000F45006E10001776BDAEC6DF0FC0E5CD1A7
:1011E000FB0E24EC2FF00DE1F4500BE10001776BC6
:1011F000DAEC6DF000015CEC2DF0050E07EC32F03E
:101200004BD10001775101E144D10001FF510008A9
:1012100001E33FD1FF075CEC2DF0040EC3EC32F08C
:10122000EFCFE2F5AAEC03F00BEC30F0E5EC71F057
:1012300043E900015CEC2DF0CDEC2DF0FF51E66EA2
:10124000E66A0F0EE66E980EE66E000E06EC33F0C0
:101250000501E16BE151E12BE25D07E1750EE66E00
:10126000AA0EE66E000E62EC30F053EC2DF007E1B2
:10127000950EE66EAA0EE66E000E62EC30F053ECB0
:101280002DF007E1C50EE66EAA0EE66E000E62ECCA
:1012900030F053EC2DF007E1E80EE66EAA0EE66E94
:1012A000000E62EC30F053EC2DF007E10B0EE66E11
:1012B000AB0EE66E000E62EC30F053EC2DF007E161
:1012C0003C0EE66EAB0EE66E000E62EC30F053ECB8
:1012D0002DF007E1700EE66EAB0EE66E000E62ECCE
:1012E00030F053EC2DF007E1A50EE66EAB0EE66E86
:1012F000000E62EC30F053EC2DF007E1DE0EE66EEE
:10130000AB0EE66E000E62EC30F053EC2DF007E110
:101310000C0EE66EAC0EE66E000E62EC30F053EC96
:101320002DF007E1330EE66EAA0EE66E000E62ECBB
:1013300030F053EC2DF007E1530EE66EAA0EE66E88
:10134000000E62EC30F053EC2DF007E1630EE66E18
:10135000A90EE66E000E62EC30F053EC2DF007E1C2
:101360003C0EE66EAC0EE66E000E62EC30F053EC16
:101370002DF007E17D0EE66EAC0EE66E000E62EC1F
:1013800030F053EC2DF007E1A30EE66EAC0EE66EE6
:10139000000E62EC30F053EC2DF007E1C90EE66E62
:1013A000AC0EE66E000E62EC30F053EC2DF007E16F
:1013B000F50EE66EAC0EE66E000E62EC30F053EC0D
:1013C0002DF007E10D0EE66EAD0EE66E000E62EC3E
:1013D00030F053EC2DF007E1240EE66EAD0EE66E14
:1013E000000E62EC30F053EC2DF007E1C80EE66E13
:1013F000B00EE66E000E62EC30F053EC2DF007E11B
:10140000060EE66EB10EE66E000E62EC30F053ECA6
:101410002DF007E1250EE66EB10EE66E000E62ECD1
:1014200030F053EC2DF007E1510EE66EAD0EE66E96
:10143000000E62EC30F00501E151D880E25517E270
:10144000E2510001006F016BFA0ED89001BF03D08A
:10145000005D000E01590BE20501E251E66EE66AFD
:10146000F50EE66E970EE66E000ED0EC32F000013F
:10147000FF5102E10001776B00015CEC2DF0050EDD
:101480001CEC2FF05CEC2DF0EE6AEE6AEE6AEE6A70
:10149000BCD6DAEC6DF0000E65EF2DF00001010E08
:1014A000666F83A449D020EC34F0640EDAEC30F09F
:1014B00004C6E6FF05C6E6FF06C6E6FF07C6E6FF6A
:1014C0003DEC62F08CEC2EF0B5DC44E9F3CFE6FFA6
:1014D000F4CFE6FFDB0EE66E970EE66E000E95EC9F
:1014E0002CF04BE9010EE66EE66A12EC30F0E66E87
:1014F00012EC30F0020E6DEC30F08CEC2EF07EEC45
:101500002FF03DEC62F07EEC2FF08CEC2EF0BB0E59
:10151000E66E970EE66E000E95EC2CF051E9010E8A
:10152000E66E030E6DEC30F0880EE66E130E3EECA8
:1015300032F048EC5FF0B5D70001666B12004EEC5C
:101540002DF083E91B0EDBEC2FF05B0EDBEC2FF0B4
:10155000320EDBEC2FF04A0EDBEC2FF0860EE66E3F
:10156000A60EE66E000E62EC30F0390EE66EA60EA8
:10157000E66E000E62EC30F065EF2DF04EEC2DF0D3
:1015800082E900017A5103E0070E005C28E17B51FB
:1015900009E027EC32F00001880E036F9E0E046F05
:1015A000000E08D027EC32F00001140E036FA00EDD
:1015B000046F000E056F160E5BEC33F000EBE6FFD8
:1015C000E66AE66A50EC63F0E552E5CF08F019EC04
:1015D00030F0000169EC2DF000EB7CF02DD00050D4
:1015E0000501E35D21E00001816BD7EC6CF08B928B
:1015F0000401D16BD1510A0814E3BCEC2EF00401B4
:10160000D1250001066F076B086B69EC2DF0010E08
:10161000E66EE66AA8EC2EF027EC2EF00401D12B42
:10162000E9D700EBE3F508D0BCEC2EF00A0F066F0B
:10163000076B086B69EC2DF0010EE66EE66AA8EC0C
:101640002EF0E66A010EE66EA8EC2EF0E66A020EB7
:10165000E66EA8EC2EF0E66A030EE66EA8EC2EF01D
:1016600065EF2DF00401D26B030ED25D07E2D2517B
:10167000CFEC2FF0FE0EEF6ED22BF6D70001DC512F
:101680006DEC32F002E1765123E076510EE0040178
:10169000D351D32B32080DE20501E42BE4510508A8
:1016A00001E2E46B0401D36B04D0030EDC250501D9
:1016B000E46FE66AE4C5E6FF3AEC00F042E9E66E64
:1016C0000001DC51CFEC2FF0E552E750EF6E120035
:1016D000DC51CFEC2FF0EF6812004EEC2DF081E9D9
:1016E00043E8026A00017B5104E1825102E1855125
:1016F00002E0030E69D2DC51016E5FEC33F00AECBC
:1017000032F0EE6AED6A010EE66E7AEC2EF05FECD6
:1017100033F087EC2FF0EE50ED1006E003EC2FF0E5
:101720000CE1010EE66E05D003EC2FF006E0E66A50
:10173000010EE66EF1EC6CF042E9D950030FE66E53
:10174000DACFE6FF47DA42E90001F751035C08E12E
:101750008B96010E7B6F03EBE6FF10DF41E931D280
:1017600020EC34F0F3EC0FF059EC31F00DE20051C5
:101770000408000E015508E205019A0EE56F990E66
:10178000E66FE76F3E0E11D001506DEC32F007E0CE
:101790000501E56BE66BC00EE76F3F0E06D0050155
:1017A00095EC2EF003E007EC2FF0E86F0001865176
:1017B0006DE067EC30F0F7EC2FF005AF02D0066972
:1017C000076981EC31F006E6D8802C0E0055010E39
:1017D000AEEC2EF014E28DBE25D0BCEC31F06CECFA
:1017E0002EF08D8E0001806FF85107E0A10EE66E9D
:1017F000970EE66E000E62EC30F08D8013D08DAE49
:1018000011D0BCEC31F01CEC2FF08D9E0001806BF0
:10181000F85107E0880EE66E970EE66E000E62EC59
:1018200030F08D8067EC30F0F7EC2FF005AF02D090
:101830000669076981EC31F006E6D880900E005504
:10184000010EAEEC2EF012E28DB620D08DAE1ED081
:101850000001010E876FF85107E0640EE66E970EE7
:10186000E66E000E62EC30F08D8610D08DA60ED0A4
:101870008DAE0CD00001876BF85107E0410EE66E8B
:10188000970EE66E000E62EC30F08D96DFEC32F0D3
:10189000C10E43EC32F004E60051025D01510359E0
:1018A00001E38FD067EC30F0EECF04F0EFCF05F01E
:1018B000A8EC2DF0410E49EC32F019EC30F00001AB
:1018C00007350751051904E60651045D075105590E
:1018D00001E377D0025045E00001865142E0050166
:1018E000E951EA1117E050EC32F00001F85112E032
:1018F00018EC31F001E0010E81EC32F089EC31F0AE
:10190000F40EE66E960EE66E000E95EC2CF04DE9A8
:1019100073EC30F0015000EC2DF004013F0551E173
:1019200001500DEC32F00501E951EA114AE095EC65
:101930002EF003E007EC2FF0E86F0001F8513DE0D6
:1019400018EC31F001E0010E81EC32F089EC31F05D
:10195000AD0EE66E960EE66E000E95EC2CF04DE99F
:1019600023D001500DEC32F0015000EC2DF00501B8
:10197000E951EA1126E095EC2EF003E007EC2FF098
:10198000E86F0001F85119E018EC31F001E0010EA8
:1019900081EC32F0D2EC2EF0550EE66E960EE66E2D
:1019A000000E95EC2CF04FE973EC30F0920EE66EE1
:1019B000960EE66E000E62EC30F00501E96BEA6B04
:1019C0008B96DFEC32F0410E43EC32F004E600512E
:1019D000025D0151035948E233EC31F007EC32F07B
:1019E00014E15FEC33F00AEC32F0EE2AEF2259EC0E
:1019F00031F00BE200510108000E015506E206012C
:101A0000652B000E6623672368235FEC33F0020E1C
:101A10006CEC2EF0FAEC32F004E10001015105010A
:101A2000EC1922E067EC30F0FFEC2FF007AF02D0AA
:101A30000869096911EC2EF002E638EC2FF014E287
:101A40000001F8510FE018EC31F001E0010E81ECDB
:101A500032F068EC31F0080EE66E960EE66E000E7F
:101A600062EC30F02AEC33F0DFEC32F0C10E61ECC6
:101A70002EF0000103350351011904E60251005D07
:101A8000035101592EE233EC31F01CEC2FF0FAEC4B
:101A900032F004E1000101510501EC1922E067EC8C
:101AA00030F0FFEC2FF007AF02D00869096911ECA4
:101AB0002EF002E638EC2FF014E20001F8510FE0AE
:101AC00018EC31F001E0010E81EC32F068EC31F0FD
:101AD000F10EE66E950EE66E000E62EC30F02AEC2A
:101AE00033F059EC31F00AE200510108000E0155C3
:101AF00005E25FEC33F0050E6CEC2EF05FEC33F09A
:101B000058EC2EF001350AE200510208000E015592
:101B100005E25FEC33F0090E6CEC2EF001506DEC39
:101B200032F010E004017051010B0CE17051020B16
:101B300009E17051040B06E1E66A7AEC2EF0000927
:101B400001E1FBD50001865103E0876B8D9E806B20
:101B5000E66A7AEC2EF0000913E00001F85107E084
:101B6000A20EE66E950EE66E000E62EC30F00001FD
:101B7000865102E093EC2FF0D5EC2FF0040E24D028
:101B800004017051010B06E17051020B03E1705129
:101B9000040B19E00001F85107E04C0EE66E950EBB
:101BA000E66E000E62EC30F00001865102E093EC2C
:101BB0002FF0040170A105D070910001010E7B6F20
:101BC0008B96020E01D0000EF36EF46A44E9E7CF63
:101BD000D9FF12004EEC2DF083E983380F0B000182
:101BE000F7150501EE6F0001F7510501EE5D59E1B2
:101BF0000001F7510501ED5D03E0040E8FEC2DF0BF
:101C00009CEC2FF03BE10001F7510501ED5D11E087
:101C100067EC2EF0070EEF6E57EC32F00EEC2FF063
:101C2000320EE66E950EE66E000ED0EC32F0F7C086
:101C3000EDF50001845115E0AAEC03F0130EE66EF9
:101C4000950EE66E000E95EC2CF0A5EC2FF0F7C08B
:101C5000EDF567EC2EF0070EEF6E0001010E7A6FC6
:101C6000886B846B7CC0E6FFF3EC68F041E97CC0D4
:101C7000E6FF84DC41E9F7C0F0F510D00EEC2FF060
:101C8000ED51E66EE66AC10EE66E940EE66E000E4B
:101C90005DEC32F0EDC5EFFF0501F06B0501F05191
:101CA00057D0EE51ED5D4FE0030EE66E5FEC5FF056
:101CB00041E9040E8FEC2DF09CEC2FF038E167EC3D
:101CC0002EF0EEC5EFFF57EC32F0AAEC03F067EC14
:101CD0002EF0EF50E66EE66A0501ED51E66EE66A1B
:101CE000840EE66E940EE66E000E5DEC32F0EFCFE1
:101CF000EDF5000184510DE1AAEC03F0670EE66EEC
:101D0000940EE66E000E95EC2CF0A5EC2FF0000181
:101D1000886B010E846F7CC0E6FFF3EC68F041E94C
:101D200000017A6B7CC0E6FF29DC41E910D00EECA3
:101D30002FF0ED51E66EE66A160EE66E940EE66E34
:101D4000000E06EC33F067EC2EF0EDC5EFFF000E51
:101D500065EF2DF015EC31F00AE10401D46B23ECB2
:101D600030F001E3DC6B30EC33F0F9E07BDC0401B4
:101D700070A31DD08B84D46B23EC30F001E3DC6BBB
:101D800030EC33F0F9E06EDC15EC2FF0040EE66E6B
:101D9000940EE66E000ED0EC32F0E90EE66E930E75
:101DA000E66E000E62EC30F08B940401709370517B
:101DB000010B08E1E66AA8EC2FF000091BE0000126
:101DC0007A5118E000017A5106E17B5102E0000EE1
:101DD00001D0010E7B6F88EC30F0BF0EE66E930EE3
:101DE000E66E000E62EC30F000017A6B0401709137
:101DF0008B906BD004010F0566E0E66A36EC33F099
:101E0000000963E0010EE66EA8EC2FF00001010E60
:101E10007A6F8B8004010F5129E13DEC31F002E62D
:101E200060EC32F023E20001010E7A6F8B90845156
:101E300011E10501F12BA4EC2DF0110E0501F15D6E
:101E400001E3F16BEBEC32F0A70EE66E930EE66E5B
:101E5000000E35D066EC32F001E3A26BFDEC30F001
:101E6000800EE66E930EE66E000E29D03DEC31F04A
:101E700002E660EC32F025E20001010E7A6F8B90F1
:101E8000845112E10501F107A4EC2DF0110E0501BA
:101E9000F15D02E3100EF16FEBEC32F0690EE66ECD
:101EA000930EE66E000E0BD066EC32F001E3A26BEF
:101EB000FDEC30F0520EE66E930EE66E000E62EC14
:101EC00030F08B8002D0A4EC2DF000017A5102E0BA
:101ED0008B8001D08B90855170E17B5102E1825162
:101EE0006AE003EC2FF006E0E66A010EE66EF1EC24
:101EF0006CF042E904011F0546E0E66A5BEC2EF057
:101F000000095BE08B8404011F511AE11B35000EB0
:101F10001B1909E6D880010E1855000E1955000E40
:101F20001A55000E1B550CE272EC31F06CEC2EF0E1
:101F3000CDEC30F0080EE66E960EE66E000E20D068
:101F4000020E1F5D3AE118C4E6FF19C4E6FF1AC489
:101F5000E6FF1BC4E6FF49EC33F006E6D880010E2D
:101F60000055000EAEEC2EF028E272EC31F01CECC5
:101F70002FF0CDEC30F0F10EE66E950EE66E000E11
:101F800062EC30F01AD0000182510CE1DC510DEC12
:101F900032F0D8EC32F0020E6CEC2EF0DC5100EC9A
:101FA0002DF003D0DC510DEC32F0010EE66E5BEC4F
:101FB0002EF08B9402D06DEC0BF000017B5107E00A
:101FC000E66A72EC32F00CE1010EE66E05D0E66ACC
:101FD00072EC32F005E0E66AE66AF1EC6CF042E998
:101FE0000501F151120032EC0BF08BC0FBFF8AC0EF
:101FF000FAFF00018951140012004EEC2DF082E925
:1020000047E8076A086AD7EC6CF000017B5104E1ED
:1020100005013051311102E0030E09D00001806B3F
:102020000401355136113711381104E1020EF36EF7
:10203000F46A72D0026A0250005C68E3ACEC30F0E3
:102040000A0EE66ED70EE66E230EE66E3C0E31ECFF
:102050002DF0F3EC30F05AE1036A046A056A066A6F
:10206000D890065002E6AEEC2FF00FE2FA0EE66EC4
:102070007E0EE66E2A0EE66E3F0E8FEC32F005E124
:10208000D950030F2CEC2EF0EBD7036A046A056AD3
:10209000066AD890065002E6AEEC2FF00FE2FA0E78
:1020A000E66E7E0EE66EAA0EE66E3E0E8FEC32F007
:1020B00005E1D950030F2CEC2EF0EBD7660EE66E3F
:1020C000E66EE66E3F0E4DEC33F020E1CD0EE66E8F
:1020D000CC0EE66EE66E3D0E4DEC33F017E1E66A8F
:1020E000E66AE66A3F0E4DEC33F010E104017051F0
:1020F000010B06E17051020B03E17051040B04E087
:10210000010E076E086A02D0022A95D7AAEC31F0B8
:1021100007EBF3FF08EBF4FF48E9E7CFD9FF120024
:102120004EEC2DF082E948E8086A096AD7EC6CF0B9
:1021300000017B5104E105013051311104E0030E2F
:10214000F36EF46A7CD00001806B026A0050025C7E
:1021500070E2036A030E035C6AE203EBDCF015EC49
:1021600031F063E0ACEC30F0C1EC30F0640EEE6EB8
:10217000ED6AF3EC30F05BE1046A056A066A076A0F
:10218000D890075002E6B7EC2FF00DE2C0EC2FF02C
:102190009A0E0027020EC7EC32F005E1D950040F69
:1021A0002CEC2EF0EDD7046A056A066A076AD8900F
:1021B000075002E6B7EC2FF00DE2C0EC2FF04D0E09
:1021C0000027010EC7EC32F005E1D950040F2CECCA
:1021D0002EF0EDD7C1EC30F0840EEE6E030EED6EF6
:1021E000E3EC32F0C1EC30F0640EEE6EED6AE3EC3D
:1021F00032F002508DEC2CF00D0EC3EC32F063EC9B
:1022000031F0C1EC30F020EC31F0E3EC32F00401BD
:102210007051010B06E17051020B03E17051040B88
:1022200004E0010E086E096A02D0032A93D7022A3D
:102230008DD7AAEC31F008EBF3FF09EBF4FF49E985
:10224000E7CFD9FF120032EC0BF000017C51070AF6
:102250001CE0010A15E0030A11E0080A0FE00E0A6B
:102260000DE0010A0BE0060A05E0050A07E0010A95
:102270000CE104D0030EE66EC0DE05D0020E01D0E4
:10228000040EE66E4DDF41E912008BC0FBFF8AC0F1
:10229000FAFF8951140012005DDD0501F26FF20EA4
:1022A000E66E050EE66E96DC42E9F2C5E6FFBEEC90
:1022B0000AF041E9F3EF0FF00001A2511EE112EC28
:1022C00032F0FE0EE66E920EE66E000E7DEC32F0FF
:1022D000E7EC32F0D7EC2EF0E80EE66E920EE66EEA
:1022E000000E3CEC33F028EC30F0D20EE66E920E8D
:1022F000E66E000E7DEC32F007D065EC33F08CEC2E
:102300002DF06AEC30F045E9C0EF2DF00001A2514C
:1023100018E158EC2DF0C8EC2EF0930EE66E920EFC
:10232000E66E000E77EC32F0720EE66E920EE66EFE
:10233000000E0AEC33F0550EE66E920EE66E000EBD
:102340001DD0C0EC32F00CE0CDEC2CF00EEC33F0F4
:102350002E0EE66E920EE66E000E95EC2CF04DE918
:10236000E9EC30F0140EE66E920EE66E000E0AEC0A
:1023700033F0140EE66E920EE66E000E17EF32F09A
:102380000001A25135E158EC2DF0C8EC2EF0EB0E17
:10239000E66E910EE66E000E77EC32F077EC2EF0E2
:1023A0007CC5E6FF7DC5E6FF7AC5E6FF7BC5E6FF97
:1023B000D7EC2EF0C20EE66E910EE66E000E95EC96
:1023C0002CF053E90CEC2EF0BCC5E6FFBDC5E6FFD2
:1023D000BAC5E6FFBBC5E6FF28EC30F0990EE66E05
:1023E000910EE66E000E95EC2CF0C9EC2FF011D09A
:1023F000C0EC32F002E078EC30F0AAEC32F002E00F
:1024000080EC30F088EC32F002E0A4EC30F01BEC11
:1024100031F043E912000001A25130E158EC2DF0F7
:1024200042EC2EF0FB0EE66E900EE66E000E77ECA0
:1024300032F0D7EC2EF0E30EE66E900EE66E000E54
:102440007DEC32F00CEC2EF0DBEC32F0BCC5E6FF9C
:10245000BDC5E6FFEFEC30F0BAC5E6FFBBC5E6FF51
:1024600097EC61F028EC30F0BA0EE66E900EE66E56
:10247000000E95EC2CF0C9EC2FF011D0C0EC32F02E
:1024800002E078EC30F0AAEC32F002E080EC30F0C0
:1024900088EC32F002E0A4EC30F01BEC31F043E9C0
:1024A00012000001A25119E11CEC32F083EC2DF076
:1024B00077EC2EF0DBEC32F07CC5E6FF7DC5E6FF65
:1024C000EFEC30F07AC5E6FF7BC5E6FF97EC61F0F4
:1024D000D7EC2EF0B5EC32F009D065EC33F007EC18
:1024E00030F002E080EC30F013EC33F017EF32F014
:1024F0000001A2510BE11CEC32F083EC2DF058EC02
:102500002DF042EC2EF0B5EC32F00BD06AEC30F04E
:1025100083EC2DF0C0EC32F002E078EC30F013ECFC
:1025200033F017EF32F00001A25148E114C5E6FF85
:1025300015C5E6FF10C4E6FF11C4E6FF12C4E6FFAE
:1025400013C4E6FF29C4E6FF2AC4E6FF2BC4E6FF56
:102550002CC4E6FF12EC32F05A0EE66E900EE66ED8
:10256000000E95EC2CF051E9E7EC32F00501015139
:102570001BE00251E66EE66A330EE66E900EE66EE2
:10258000000E3CEC33F031C4E6FF32C4E6FF33C446
:10259000E6FF34C4E6FF120EE66E900EE66E000E05
:1025A00095EC2CF049E907D01CEC32F08CEC2DF0C6
:1025B0001CEC32F045E9AEEC32F011D0C0EC32F058
:1025C00002E047EC31F0AAEC32F002E0DDEC30F052
:1025D00088EC32F002E050EC31F01BEC31F043E9D2
:1025E00012000001A2511BE1870EE66E8F0EE66E0F
:1025F000000E95EC2CF083EC2DF0710EE66E8F0E34
:10260000E66E000E0AEC33F05B0EE66E8F0EE66EA1
:10261000000E95EC2CF045E9AEEC32F011D0C0EC98
:1026200032F002E078EC30F0AAEC32F002E080EC1C
:1026300030F088EC32F002E0A4EC30F01BEC31F02A
:1026400043E91200440EE66E8F0EE66E000E95EC26
:102650002CF083EC2DF02D0EE66E8F0EE66E000E44
:102660000AEC33F0160EE66E8F0EE66E000E17EFD4
:1026700032F00001A2514BE16AEC30F045E9640E02
:102680000501D89091BF03D0905D000E91590AE2E8
:102690003CEC2EF0F70EE66E8E0EE66E000E95EC1C
:1026A0002CF047E9E7EC32F08DB20AD03CEC2EF08A
:1026B000D7EC2EF0D80EE66E8E0EE66E000E09D028
:1026C00036EC2EF0D7EC2EF0B90EE66E8E0EE66EDE
:1026D000000E95EC2CF049E962EC33F06AEC30F036
:1026E00045E9640E0501D89011BF03D0105D000EBE
:1026F00011590AE236EC2EF09B0EE66E8E0EE66E57
:10270000000E95EC2CF047E9AEEC32F011D0C0ECA5
:1027100032F002E047EC31F0AAEC32F002E0DDECFE
:1027200030F088EC32F002E050EC31F01BEC31F08C
:1027300043E912004EEC2DF082E942E8026A036A96
:10274000030ED89003BE03D0025C000E03581AE2B9
:102750000050E66E02EBE9FF03EBEAFF060ED890AD
:10276000E936EA36E806FBE1000EE926050EEA2224
:1027700087EC2FF0E552E750EE6EED6A022A000E6C
:102780000322DED743E9E7CFD9FF1200DCC0D5F43E
:102790000001DC6BD8EC32F0B4EC2EF002E06DEC12
:1027A0000BF023EC30F0F6E3D7EC6CF0D5C4DCF0A2
:1027B000010E8FEF2DF0D9CFE6FFE1CFD9FF81E9F0
:1027C00051E8DC0E056E050E066E076A086A096A96
:1027D0000A6A0B6A0C6A580E0D6E106A116A0001C3
:1027E000816B20EC34F020EC34F00001010E886F96
:1027F000040170950001A26B7CC0E6FFF3EC68F069
:1028000041E90001855107E08B9200017B6B0001DB
:10281000806B50EF28F0AAEC03F0770EE66E8E0E78
:10282000E66E000EE66EE5EC71F043E9020E000183
:102830007C5D06E1D00E056E070E066E076A086A1B
:10284000030E00017C5D06E1A00E056E0F0E066E04
:10285000076A086A0001010E7B6F0501080503E1A4
:102860000001010E806FD7EC6CF0010EE66EE66A97
:10287000E66AE66A56EC01F044E900017C5118E191
:10288000020EE66EE66AE66AE66A05EBE6FF06EB2E
:10289000E6FF07EBE6FF08EBE6FFB0EC63F0E5527E
:1028A000E550086EE550076EE550066EE750056E80
:1028B000030E00017C5D18E1020EE66EE66AE66A30
:1028C000E66A05EBE6FF06EBE6FF07EBE6FF08EB43
:1028D000E6FFB0EC63F0E552E550086EE550076E98
:1028E000E550066EE750056E00017C0518E1020E0A
:1028F000E66EE66AE66AE66A05EBE6FF06EBE6FFE9
:1029000007EBE6FF08EBE6FFB0EC63F0E552E550BD
:10291000086EE550076EE550066EE750056EE66AF4
:1029200009DF41E9DAEC6CF0010EE66E05EBE6FF3B
:1029300006EBE6FF07EBE6FF08EBE6FF55EC02F0DF
:1029400045E9016A026A036A046A0001865102E0ED
:10295000C6EF1DF0060E00017C5D01E0CDD30E6ACE
:102960000F6A0F3404E20E500108000E0F5401E20A
:10297000A1D2640E056E066A076A086A010EE66E49
:1029800005EBE6FF06EBE6FF07EBE6FF08EBE6FFED
:1029900055EC02F045E9DAEC6CF0016A026A036A70
:1029A000046A80C0E6FFDDEC6CF041E9D00EE66E13
:1029B000070EE66EE66AE66A01EBE6FF02EBE6FF6B
:1029C00003EBE6FF04EBE6FF40EC62F0E552E5CFF7
:1029D00003F0E5CF02F0E5CF01F0E7CF00F0000112
:1029E000005101110211031101E0DAD0040170A5B8
:1029F0002DD0D7EC6CF0010EE66E9CDE41E955EC73
:102A00005FF0060EE66EE66AE66AE66A56EC01F0EC
:102A100044E98B920001010E7B6F0001806B80C046
:102A2000E6FFDDEC6CF041E97CC0E6FFF3EC68F01A
:102A300041E9AAEC03F0490EE66E8E0EE66E000E3A
:102A4000E66EE5EC71F043E950EF28F054EC28F025
:102A50000EEBE6FF0FEBE6FF2D0EE66E8E0EE66E3A
:102A6000000EE66E000EE66E020EE66E15EC71F0DC
:102A700047E9010EE66EE66AA0C0E6FFB7EC00F09B
:102A800043E90A0EE66EE66A90C5E6FF91C5E6FFE9
:102A900097EC61F0020EE66E8E0EE66E000EE66EAC
:102AA000000EE66E020EE66E15EC71F047E9640E5C
:102AB0000501D89091BF03D0905D000E915916E2A8
:102AC0000A0EE66EE66A90C5E6FF91C5E6FF97EC52
:102AD00061F0E30EE66E8D0EE66E000EE66E000E01
:102AE000E66E020EE66E15EC71F047E9010EE66E39
:102AF000010EE66EE66AB7EC00F043E9BB0EE66E47
:102B00008D0EE66E000EE66E000EE66E020EE66EAE
:102B100015EC71F045E9010EE66E020EE66EE66A0E
:102B2000B7EC00F043E90A0EE66EE66A10C5E6FF70
:102B300011C5E6FF97EC61F08E0EE66E8D0EE66E27
:102B4000000EE66E000EE66E020EE66E15EC71F0FB
:102B500047E9640E0501D89011BF03D0105D000E47
:102B6000115916E20A0EE66EE66A10C5E6FF11C5B7
:102B7000E6FF97EC61F09B0EE66E8E0EE66E000EA1
:102B8000E66E000EE66E020EE66E15EC71F047E999
:102B9000010EE66E030EE66EE66AB7EC00F043E95E
:102BA000D950010FE96EDACFEAFFEE2A000EEE22CD
:102BB000EE22EE22E66A05EBE6FF06EBE6FF07EB08
:102BC000E6FF08EBE6FF55EC02F045E9000901E1FC
:102BD000E8D6640E0501D89091BF03D0905D000E39
:102BE00091590CE20501113504E210519008010ED3
:102BF000115504E2010E05016E6F6F6B640E050145
:102C0000D89011BF03D0105D000E115903E20501E9
:102C10006C6B6D6B010EE66E05EBE6FF06EBE6FFF7
:102C200007EBE6FF08EBE6FF55EC02F045E9D7ECD1
:102C30006CF0016A026A036A046A80C0E6FFDDEC98
:102C40006CF041E9D00EE66E070EE66EE66AE66AC3
:102C500001EBE6FF02EBE6FF03EBE6FF04EBE6FF2A
:102C600040EC62F0E552E5CF03F0E5CF02F0E5CFAE
:102C700001F0E7CF00F00001005101110211031132
:102C800001E0DAD0040170A52DD0D7EC6CF0010E74
:102C9000E66E50DD41E955EC5FF0060EE66EE66A41
:102CA000E66AE66A56EC01F044E98B920001010EF7
:102CB0007B6F0001806B80C0E6FFDDEC6CF041E9CA
:102CC0007CC0E6FFF3EC68F041E9AAEC03F0490EA2
:102CD000E66E8E0EE66E000EE66EE5EC71F043E9F0
:102CE00050EF28F054EC28F00EEBE6FF0FEBE6FF78
:102CF000730EE66E8D0EE66E000EE66E000EE66E4C
:102D0000020EE66E15EC71F047E9010EE66EE66A1A
:102D1000A0C0E6FFB7EC00F043E90A0EE66EE66AF3
:102D200090C5E6FF91C5E6FF97EC61F0020EE66EF6
:102D30008E0EE66E000EE66E000EE66E020EE66E7B
:102D400015EC71F047E9640E0501D89091BF03D0EE
:102D5000905D000E915916E20A0EE66EE66A90C585
:102D6000E6FF91C5E6FF97EC61F0E30EE66E8D0E8F
:102D7000E66E000EE66E000EE66E020EE66E15ECD6
:102D800071F047E9010EE66E010EE66EE66AB7ECF9
:102D900000F043E9480EE66E8D0EE66E000EE66E1C
:102DA000000EE66E020EE66E15EC71F045E9010EBE
:102DB000E66E020EE66EE66AB7EC00F043E90A0E34
:102DC000E66EE66A10C5E6FF11C5E6FF97EC61F016
:102DD0008E0EE66E8D0EE66E000EE66E000EE66E50
:102DE000020EE66E15EC71F047E9640E0501D8900D
:102DF00011BF03D0105D000E115916E20A0EE66EE7
:102E0000E66A10C5E6FF11C5E6FF97EC61F09B0E80
:102E1000E66E8E0EE66E000EE66E000EE66E020E9A
:102E2000E66E15EC71F047E9010EE66E030EE66EF4
:102E3000E66AB7EC00F043E9D950010FE96EDACF4A
:102E4000EAFFEE2A000EEE22EE22EE22E66A05EB03
:102E5000E6FF06EBE6FF07EBE6FF08EBE6FF55ECC7
:102E600002F045E9000901E1E8D6640E0501D890B9
:102E700011BF03D0105D000E11590CE20501913510
:102E800004E290519008010E915504E2010E0501F3
:102E90006C6F6D6B640E0501D89091BF03D0905D8F
:102EA000000E915903E205016E6B6F6B0E2A000E46
:102EB0000F2257D58B9200017B6B0001806B0501BF
:102EC0006C516D1105E005016E516F1101E007D1E4
:102ED0000501465101E103D104017095590E0D6EB3
:102EE0000DEB00F00001016B00BF016900C0E6FFBF
:102EF00001C0E6FF280EE66E8D0EE66E000EE66E51
:102F0000000EE66E020EE66E15EC71F047E9010E5A
:102F1000E66EE66AA0C0E6FFB7EC00F043E9000EFB
:102F2000E66E020EE66E3AEC72F042E9E70EE66EED
:102F30009A0EE66E000EE66EE5EC71F043E96CC5A4
:102F4000E6FF6DC5E6FF6EC5E6FF6FC5E6FF110E35
:102F5000E66E8D0EE66E000EE66E000EE66E020E5A
:102F6000E66E15EC71F049E9010EE66E010EE66EB3
:102F7000E66AB7EC00F043E9000EE66E020EE66E7C
:102F80003AEC72F042E9E70EE66E9A0EE66E000E3B
:102F9000E66EE5EC71F043E9FA0EE66E8C0EE66E35
:102FA000000EE66E000EE66E020EE66E15EC71F097
:102FB00045E905016E516F110DE1DE0EE66E8C0ED6
:102FC000E66E000EE66E000EE66E020EE66E15EC84
:102FD00071F045E9010EE66E020EE66EE66AB7ECA8
:102FE00000F043E9000EE66E020EE66E3AEC72F077
:102FF00042E9E70EE66E9A0EE66E000EE66EE5EC2E
:1030000071F043E9FA0EE66E8C0EE66E000EE66E87
:10301000000EE66E020EE66E15EC71F045E9050154
:103020006C516D110DE1C00EE66E8C0EE66E000E59
:10303000E66E000EE66E020EE66E15EC71F045E9E6
:10304000010EE66E030EE66EE66AB7EC00F043E9A9
:10305000000EE66E020EE66E3AEC72F042E9E70E02
:10306000E66E9A0EE66E000EE66EE5EC71F043E950
:10307000010EE66E010EE66EF1EC6CF042E9020E16
:10308000E66E5FEC5FF041E90400040170A5F7D73C
:10309000E66A010EE66EF1EC6CF042E9D7EC6CF0FA
:1030A000010EE66E9AEC13F041E955EC5FF0060E66
:1030B000E66EE66AE66AE66A56EC01F044E98B924F
:1030C0000001010E7B6F0001806B80C0E6FFDDEC2C
:1030D0006CF041E97CC0E6FFF3EC68F041E9AAEC52
:1030E00003F09A0EE66E8C0EE66E000EE66EE5ECD0
:1030F00071F043E950EF28F0D7EC6CF0060EE66E65
:10310000E66AE66AE66A56EC01F044E9CDEC6CF05A
:10311000010EE66EE66AE66AE66A56EC01F044E9FC
:10312000106A116ADAEC6CF0010EE66E05EBE6FF50
:1031300006EBE6FF07EBE6FF08EBE6FF55EC02F0D7
:1031400045E9030E00017C5D0DE180C0E6FFDDEC8A
:103150006CF041E9140EE66EE66AE66AE66A56EC41
:1031600001F044E983EC33F080C0E6FFDDEC6CF065
:1031700041E9E80EE66E030EE66EE66AE66A01EBEA
:10318000E6FF02EBE6FF03EBE6FF04EBE6FF40ECB5
:1031900062F0E552E5CF03F0E5CF02F0E5CF01F0B4
:1031A000E7CF00F00001005101110211031101E00D
:1031B00027D2A3EC33F0000901E1D6D0AAEC03F04A
:1031C000200EE96E060EEA6EEE500601145D000157
:1031D000046FEE50060115590001056FEE5006010F
:1031E00016590001066FEE50060117590001076FCE
:1031F00004C0E6FF05C0E6FF06C0E6FF07C0E6FF25
:10320000BEEC07F044E9FCC300F0FDC301F0FEC3CF
:1032100002F0FFC303F000C0E6FF01C0E6FF02C0FA
:10322000E6FF03C0E6FF1C0EE96E060EEA6EEE50E6
:103230000601105D00010C6FEE50060111590001EE
:103240000D6FEE500601125900010E6FEE5006018F
:10325000135900010F6F0CC0E6FF0DC0E6FF0EC052
:10326000E6FF0FC0E6FFBEEC07F044E9FCC308F040
:10327000FDC309F0FEC30AF0FFC30BF008C0E6FF70
:1032800009C0E6FF0AC0E6FF0BC0E6FF180EE96EB4
:10329000060EEA6EEE5006010C5D0001146FEE5052
:1032A00006010D590001156FEE5006010E5900017F
:1032B000166FEE5006010F590001176F14C0E6FF9C
:1032C00015C0E6FF16C0E6FF17C0E6FFBEEC07F02C
:1032D00044E9FCC310F0FDC311F0FEC312F0FFC3BC
:1032E00013F010C0E6FF11C0E6FF12C0E6FF13C0E6
:1032F000E6FF7D0EE66E8C0EE66E000EE66E000EAC
:10330000E66E020EE66E15EC71F051E9000EE66E07
:10331000020EE66E3AEC72F042E906013C5122E000
:1033200006013D511FE006013E511CE000017C51A9
:1033300003E0010E106E116AAAEC03F0580EE66E5F
:103340008C0EE66E000EE66E000EE66E020EE66E67
:1033500015EC71F045E9000EE66E020EE66E3AECF1
:1033600072F042E983EC33F0040170A52ED0D7EC63
:103370006CF0010EE66E9AEC13F041E955EC5FF04B
:10338000060EE66EE66AE66AE66A56EC01F044E985
:103390008B920001010E7B6F0001806B80C0E6FF05
:1033A000DDEC6CF041E97CC0E6FFF3EC68F041E94C
:1033B000AAEC03F0490EE66E8E0EE66E000EE66E87
:1033C000E5EC71F043E950EF28F054EC28F001EB04
:1033D000E6FF02EBE6FF03EBE6FF04EBE6FF400E41
:1033E000E66E8C0EE66E000EE66E000EE66E020EC7
:1033F000E66E15EC71F049E9010EE66EE66AA0C0D2
:10340000E6FFB7EC00F043E9020E00017C5D3CE012
:10341000BC0EE66E920EE66E000EE66E000EE66ED6
:10342000020EE66E15EC71F045E9050106512BE040
:1034300030C6E6FF31C6E6FF32C6E6FF33C6E6FF1A
:103440000A0EE66EE66A2AC5E6FF2BC5E6FF97EC94
:1034500061F00A0EE66EE66A3AC5E6FF3BC5E6FF96
:1034600097EC61F010C5E6FF11C5E6FF180EE66E99
:103470008C0EE66E000EE66E000EE66E020EE66E36
:1034800015EC71F04FE92ED0050106512BE030C646
:10349000E6FF31C6E6FF32C6E6FF33C6E6FF0A0E98
:1034A000E66EE66A2AC5E6FF2BC5E6FF97EC61F0FB
:1034B0000A0EE66EE66A3AC5E6FF3BC5E6FF97EC04
:1034C00061F010C5E6FF11C5E6FFF00EE66E8B0E4B
:1034D000E66E000EE66E000EE66E020EE66E15EC6F
:1034E00071F04FE9010EE66E010EE66EE66AB7EC8A
:1034F00000F043E9BC0EE66E920EE66E000EE66E3C
:10350000000EE66E020EE66E15EC71F045E905015F
:1035100046512BE034C6E6FF35C6E6FF36C6E6FF69
:1035200037C6E6FF0A0EE66EE66A6AC5E6FF6BC5B9
:10353000E6FF97EC61F00A0EE66EE66A7AC5E6FFF2
:103540007BC5E6FF97EC61F050C5E6FF51C5E6FF8D
:10355000C80EE66E8B0EE66E000EE66E000EE66E90
:10356000020EE66E15EC71F04FE9010EE66E020EEA
:10357000E66EE66AB7EC00F043E9BC0EE66E920E2A
:10358000E66E000EE66E000EE66E020EE66E15ECBE
:1035900071F045E9050186512BE038C6E6FF39C6D2
:1035A000E6FF3AC6E6FF3BC6E6FF0A0EE66EE66AAF
:1035B000AAC5E6FFABC5E6FF97EC61F00A0EE66E22
:1035C000E66ABAC5E6FFBBC5E6FF97EC61F090C5B9
:1035D000E6FF91C5E6FFA00EE66E8B0EE66E000ECE
:1035E000E66E000EE66E020EE66E15EC71F04FE927
:1035F000010EE66E030EE66EE66AB7EC00F043E9F4
:10360000D950010FE96EDACFEAFFEE2A000EEE2262
:10361000EE22EE22E66A05EBE6FF06EBE6FF07EB9D
:10362000E6FF08EBE6FF55EC02F045E9000904E18E
:103630001050111001E198D5D7EC6CF0060EE66E33
:10364000E66AE66AE66A56EC01F044E9D4EC6CF00E
:10365000010EE66EE66AE66AE66A56EC01F044E9B7
:10366000106A116A00017C5101E18ED2DAEC6CF033
:10367000010EE66E05EBE6FF06EBE6FF07EBE6FF65
:1036800008EBE6FF55EC02F045E9016A026A036ABD
:10369000046A030E00017C5D0DE180C0E6FFDDECF5
:1036A0006CF041E9140EE66EE66AE66AE66A56ECEC
:1036B00001F044E983EC33F080C0E6FFDDEC6CF010
:1036C00041E9E80EE66E030EE66EE66AE66A01EB95
:1036D000E6FF02EBE6FF03EBE6FF04EBE6FF40EC60
:1036E00062F0E552E5CF03F0E5CF02F0E5CF01F05F
:1036F000E7CF00F00001005101110211031101E0B8
:1037000027D2A3EC33F0000901E1D6D0AAEC03F0F4
:10371000200EE96E060EEA6EEE500601145D000101
:10372000046FEE50060115590001056FEE500601B9
:1037300016590001066FEE50060117590001076F78
:1037400004C0E6FF05C0E6FF06C0E6FF07C0E6FFCF
:10375000BEEC07F044E9FCC300F0FDC301F0FEC37A
:1037600002F0FFC303F000C0E6FF01C0E6FF02C0A5
:10377000E6FF03C0E6FF1C0EE96E060EEA6EEE5091
:103780000601105D00010C6FEE5006011159000199
:103790000D6FEE500601125900010E6FEE5006013A
:1037A000135900010F6F0CC0E6FF0DC0E6FF0EC0FD
:1037B000E6FF0FC0E6FFBEEC07F044E9FCC308F0EB
:1037C000FDC309F0FEC30AF0FFC30BF008C0E6FF1B
:1037D00009C0E6FF0AC0E6FF0BC0E6FF180EE96E5F
:1037E000060EEA6EEE5006010C5D0001146FEE50FD
:1037F00006010D590001156FEE5006010E5900012A
:10380000166FEE5006010F590001176F14C0E6FF46
:1038100015C0E6FF16C0E6FF17C0E6FFBEEC07F0D6
:1038200044E9FCC310F0FDC311F0FEC312F0FFC366
:1038300013F010C0E6FF11C0E6FF12C0E6FF13C090
:10384000E6FF7D0EE66E8C0EE66E000EE66E000E56
:10385000E66E020EE66E15EC71F051E9000EE66EB2
:10386000020EE66E3AEC72F042E906013C5122E0AB
:1038700006013D511FE006013E511CE000017C5154
:1038800003E0010E106E116AAAEC03F0580EE66E0A
:103890008C0EE66E000EE66E000EE66E020EE66E12
:1038A00015EC71F045E9000EE66E020EE66E3AEC9C
:1038B00072F042E983EC33F0040170A52ED0D7EC0E
:1038C0006CF0010EE66E9AEC13F041E955EC5FF0F6
:1038D000060EE66EE66AE66AE66A56EC01F044E930
:1038E0008B920001010E7B6F0001806B80C0E6FFB0
:1038F000DDEC6CF041E97CC0E6FFF3EC68F041E9F7
:10390000AAEC03F0490EE66E8E0EE66E000EE66E31
:10391000E5EC71F043E950EF28F054EC28F001EBAE
:10392000E6FF02EBE6FF03EBE6FF04EBE6FF890EA2
:10393000E66E8B0EE66E000EE66E000EE66E020E72
:10394000E66E15EC71F049E9010EE66EE66AA0C07C
:10395000E6FFB7EC00F043E9BC0EE66E920EE66EB1
:10396000000EE66E000EE66E020EE66E15EC71F0CD
:1039700045E9020E00017C5D2FE0050106512BE0B8
:1039800030C6E6FF31C6E6FF32C6E6FF33C6E6FFC5
:103990000A0EE66EE66A2AC5E6FF2BC5E6FF97EC3F
:1039A00061F00A0EE66EE66A3AC5E6FF3BC5E6FF41
:1039B00097EC61F010C5E6FF11C5E6FF180EE66E44
:1039C0008C0EE66E000EE66E000EE66E020EE66EE1
:1039D00015EC71F04FE92ED0050106512BE030C6F1
:1039E000E6FF31C6E6FF32C6E6FF33C6E6FF0A0E43
:1039F000E66EE66A2AC5E6FF2BC5E6FF97EC61F0A6
:103A00000A0EE66EE66A3AC5E6FF3BC5E6FF97ECAE
:103A100061F010C5E6FF11C5E6FFF00EE66E8B0EF5
:103A2000E66E000EE66E000EE66E020EE66E15EC19
:103A300071F04FE9010EE66E010EE66EE66AB7EC34
:103A400000F043E9BC0EE66E920EE66E000EE66EE6
:103A5000000EE66E020EE66E15EC71F045E905010A
:103A600046512BE034C6E6FF35C6E6FF36C6E6FF14
:103A700037C6E6FF0A0EE66EE66A6AC5E6FF6BC564
:103A8000E6FF97EC61F00A0EE66EE66A7AC5E6FF9D
:103A90007BC5E6FF97EC61F050C5E6FF51C5E6FF38
:103AA000C80EE66E8B0EE66E000EE66E000EE66E3B
:103AB000020EE66E15EC71F04FE9010EE66E020E95
:103AC000E66EE66AB7EC00F043E9BC0EE66E920ED5
:103AD000E66E000EE66E000EE66E020EE66E15EC69
:103AE00071F045E9050186512BE038C6E6FF39C67D
:103AF000E6FF3AC6E6FF3BC6E6FF0A0EE66EE66A5A
:103B0000AAC5E6FFABC5E6FF97EC61F00A0EE66ECC
:103B1000E66ABAC5E6FFBBC5E6FF97EC61F090C563
:103B2000E6FF91C5E6FFA00EE66E8B0EE66E000E78
:103B3000E66E000EE66E020EE66E15EC71F04FE9D1
:103B4000010EE66E030EE66EE66AB7EC00F043E99E
:103B5000D950010FE96EDACFEAFFEE2A000EEE220D
:103B6000EE22EE22E66A05EBE6FF06EBE6FF07EB48
:103B7000E6FF08EBE6FF55EC02F045E9000904E139
:103B80001050111001E198D5DCEF21F00401296BF0
:103B90002A6B2B6B2C6B04012951096E2A510A6E7A
:103BA0002B510B6E2C510C6EDAEC6CF0140EE66E91
:103BB000E66AE66AE66A56EC01F044E9016A026ADE
:103BC000036A046ADE0E015C030E0258000E0358FD
:103BD000000E045801E3E5D001EBE6FF02EBE6FF3F
:103BE00003EBE6FF04EBE6FF890EE66E8B0EE66E56
:103BF000000EE66E000EE66E020EE66E15EC71F03B
:103C000049E9010EE66EE66AA0C0E6FFB7EC00F0F7
:103C100043E9BC0EE66E920EE66E000EE66E000EF6
:103C2000E66E020EE66E15EC71F045E905010651EF
:103C300015E029C4E6FF2AC4E6FF2BC4E6FF2CC426
:103C4000E6FF670EE66E8B0EE66E000EE66E000E69
:103C5000E66E020EE66E15EC71F049E9010EE66EB5
:103C6000010EE66EE66AB7EC00F043E9BC0EE66EC4
:103C7000920EE66E000EE66E000EE66E020EE66E28
:103C800015EC71F045E9010EE66E020EE66EE66A8D
:103C9000B7EC00F043E9010EE66E030EE66EE66A4D
:103CA000B7EC00F043E9010EE66EE66AE66AE66A02
:103CB00056EC01F044E9190EE66EE66AE66AE66A39
:103CC00001EBE6FF02EBE6FF03EBE6FF04EBE6FFAA
:103CD00040EC62F0E552E5CF03F0E5CF02F0E5CF2E
:103CE00001F0E7CF00F000010051011102110311B2
:103CF0001CE109500401291908E10A502A1905E1BB
:103D00000B502B1902E10C502C1906E1E80E016E44
:103D1000030E026E036A046A04012951096E2A51D6
:103D20000A6E2B510B6E2C510C6E040170A52ED017
:103D3000D7EC6CF0010EE66E9AEC13F041E955EC0D
:103D40005FF0060EE66EE66AE66AE66A56EC01F099
:103D500044E98B920001010E7B6F0001806B80C0F3
:103D6000E6FFDDEC6CF041E97CC0E6FFF3EC68F0C7
:103D700041E9AAEC03F0490EE66E8E0EE66E000EE7
:103D8000E66EE5EC71F043E950EF28F0D950010FF1
:103D9000E96EDACFEAFFEE2A000EEE22EE22EE22E4
:103DA00011D7D7EC6CF0060EE66EE66AE66AE66AB4
:103DB00056EC01F044E9CDEC6CF0010EE66EE66ADB
:103DC000E66AE66A56EC01F044E90401296B2A6BC5
:103DD0002B6B2C6B04012951096E2A510A6E2B5151
:103DE0000B6E2C510C6EDAEC6CF0140EE66EE66A7B
:103DF000E66AE66A56EC01F044E9016A026A036A7F
:103E0000046ADE0E015C030E0258000E0358000E19
:103E1000045801E3E5D001EBE6FF02EBE6FF03EB1C
:103E2000E6FF04EBE6FF400EE66E8C0EE66E000E3B
:103E3000E66E000EE66E020EE66E15EC71F049E9D4
:103E4000010EE66EE66AA0C0E6FFB7EC00F043E9BB
:103E5000BC0EE66E920EE66E000EE66E000EE66E8C
:103E6000020EE66E15EC71F045E90501065115E00C
:103E700029C4E6FF2AC4E6FF2BC4E6FF2CC4E6FFF4
:103E8000670EE66E8B0EE66E000EE66E000EE66EB8
:103E9000020EE66E15EC71F049E9010EE66E010EB8
:103EA000E66EE66AB7EC00F043E9BC0EE66E920EF1
:103EB000E66E000EE66E000EE66E020EE66E15EC85
:103EC00071F045E9010EE66E020EE66EE66AB7ECA9
:103ED00000F043E9010EE66E030EE66EE66AB7EC0B
:103EE00000F043E9010EE66EE66AE66AE66A56EC21
:103EF00001F044E9190EE66EE66AE66AE66A01EB4D
:103F0000E6FF02EBE6FF03EBE6FF04EBE6FF40EC27
:103F100062F0E552E5CF03F0E5CF02F0E5CF01F026
:103F2000E7CF00F0000100510111021103111CE163
:103F300009500401291908E10A502A1905E10B501A
:103F40002B1902E10C502C1906E1E80E016E030E4C
:103F5000026E036A046A04012951096E2A510A6E2D
:103F60002B510B6E2C510C6E040170A52ED0D7EC8A
:103F70006CF0010EE66E9AEC13F041E955EC5FF03F
:103F8000060EE66EE66AE66AE66A56EC01F044E979
:103F90008B920001010E7B6F0001806B80C0E6FFF9
:103FA000DDEC6CF041E97CC0E6FFF3EC68F041E940
:103FB000AAEC03F0490EE66E8E0EE66E000EE66E7B
:103FC000E5EC71F043E950EF28F0D950010FE96EAC
:103FD000DACFEAFFEE2A000EEE22EE22EE2211D711
:103FE00029C435F42AC436F42BC437F42CC438F46D
:103FF000D7EC6CF000017B6B0001806B0A0EE66E63
:10400000D70EE66E230EE66E3C0EE66E35C4E6FF76
:1040100036C4E6FF37C4E6FF38C4E6FFD4EC60F0F0
:1040200001EC64F03CEC61F0E552E5CF13F4E5CF30
:1040300012F4E5CF11F4E7CF10F46DEC0BF0FA0EAB
:10404000E66E7E0EE66E2A0EE66E3F0EE66E35C416
:10405000E6FF36C4E6FF37C4E6FF38C4E6FFD4EC1B
:1040600060F001EC64F03CEC61F0E552E5CF13F454
:10407000E5CF12F4E5CF11F4E7CF10F4290EE96E85
:10408000040EEA6EEE500401105D0001006FEE5068
:10409000040111590001016FEE5004011259000191
:1040A000026FEE50040113590001036F0001DC514F
:1040B000400DF3CFE9FFF4CFEAFF000EE926050E2D
:1040C000EA220F0EE926000EEA22050EE926000E6E
:1040D000EA2200C0EEFF01C0EDFF6DEC0BF0FA0E1E
:1040E000E66E7E0EE66EAA0EE66E3E0EE66E35C4F7
:1040F000E6FF36C4E6FF37C4E6FF38C4E6FFD4EC7B
:1041000060F001EC64F03CEC61F0E552E5CF13F4B3
:10411000E5CF12F4E5CF11F4E7CF10F4290EE96EE4
:10412000040EEA6EEE500401105D0001006FEE50C7
:10413000040111590001016FEE50040112590001F0
:10414000026FEE50040113590001036F0001DC51AE
:10415000400DF3CFE9FFF4CFEAFF000EE926050E8C
:10416000EA220F0EE926000EEA22050EE926000ECD
:10417000EA2200C0EEFF01C0EDFF6DEC0BF0660E11
:10418000E66E660EE66E660EE66E3F0EE66E35C4B1
:10419000E6FF36C4E6FF37C4E6FF38C4E6FFD4ECDA
:1041A00060F001EC64F03CEC61F0E552E5CF13F413
:1041B000E5CF12F4E5CF11F4E7CF10F4290EE96E44
:1041C000040EEA6EEE500401105D0001006FEE5027
:1041D000040111590001016FEE5004011259000150
:1041E000026FEE50040113590001036F0001DC510E
:1041F000400DF3CFE9FFF4CFEAFF000EE926050EEC
:10420000EA220F0EE926000EEA22050EE926000E2C
:10421000EA2200C0EEFF01C0EDFF6DEC0BF0CD0E09
:10422000E66ECC0EE66ECC0EE66E3D0EE66E35C446
:10423000E6FF36C4E6FF37C4E6FF38C4E6FFD4EC39
:1042400060F001EC64F03CEC61F0E552E5CF13F472
:10425000E5CF12F4E5CF11F4E7CF10F4290EE96EA3
:10426000040EEA6EEE500401105D0001006FEE5086
:10427000040111590001016FEE50040112590001AF
:10428000026FEE50040113590001036F0001DC516D
:10429000400DF3CFE9FFF4CFEAFF000EE926050E4B
:1042A000EA220F0EE926000EEA22050EE926000E8C
:1042B000EA2200C0EEFF01C0EDFF6DEC0BF0E66AF4
:1042C000E66AE66A3F0EE66E35C4E6FF36C4E6FFF0
:1042D00037C4E6FF38C4E6FFD4EC60F001EC64F0CC
:1042E0003CEC61F0E552E5CF13F4E5CF12F4E5CFF5
:1042F00011F4E7CF10F4290EE96E040EEA6EEE50C9
:104300000401105D0001006FEE500401115900011D
:10431000016FEE50040112590001026FEE500401CA
:1043200013590001036F0001DC51400DF3CFE9FF89
:10433000F4CFEAFF000EE926050EEA220F0EE92669
:10434000000EEA22050EE926000EEA2200C0EEFF6A
:1043500001C0EDFF6DEC0BF0016A026A036A046AAA
:10436000030E015C000E0258000E0358000E0458A4
:1043700023E201EBE9FF02EBEAFF060ED890E936F3
:10438000EA36E806FBE1000EE926050EEA220F0EEA
:10439000E926000EEA22210EE926000EEA22EE6A44
:1043A000ED6AD950010FE96EDACFEAFFEE2A000E6E
:1043B000EE22EE22EE22D4D7016A026A036A046A70
:1043C000030E015C000E0258000E0358000E045844
:1043D00002E3EEEF26F001EBE9FF02EBEAFF060E47
:1043E000D890E936EA36E806FBE1000EE926050E2C
:1043F000EA22060EE926000EEA22EF5001E157D12B
:1044000001EBE9FF02EBEAFF060ED890E936EA3647
:10441000E806FBE1000EE926050EEA220F0EE9266A
:10442000000EEA22090EE926000EEA22EECF00F085
:10443000EFCF01F001EBE9FF02EBEAFF060ED890A7
:10444000E936EA36E806FBE1000EE926050EEA2227
:104450000F0EE926000EEA220B0EE926000EEA22D4
:10446000EECF02F0EFCF03F0000101350151000162
:10447000031908E6000100510001025D000101512D
:104480000001035919E201EBE9FF02EBEAFF060E16
:10449000D890E936EA36E806FBE1000EE926050E7B
:1044A000EA220F0EE926000EEA22210EE926000E6E
:1044B000EA22010EEE6EED6A01EBE9FF02EBEAFF84
:1044C000060ED890E936EA36E806FBE1000EE9264A
:1044D000050EEA220F0EE926000EEA221B0EE9263F
:1044E000000EEA22EECF00F0EFCF01F001EBE9FF82
:1044F00002EBEAFF060ED890E936EA36E806FBE161
:10450000000EE926050EEA220F0EE926000EEA2229
:104510000D0EE926000EEA22EECF02F0EFCF03F0F7
:104520000001033503510001011908E600010251A1
:104530000001005D000103510001015919E201EB86
:10454000E9FF02EBEAFF060ED890E936EA36E80604
:10455000FBE1000EE926050EEA220F0EE926000E09
:10456000EA22210EE926000EEA22010EEE6EED6A25
:1045700001EBE9FF02EBEAFF060ED890E936EA36D6
:10458000E806FBE1000EE926050EEA220F0EE926F9
:10459000000EEA22190EE926000EEA22EECF00F004
:1045A000EFCF01F001EBE9FF02EBEAFF060ED89036
:1045B000E936EA36E806FBE1000EE926050EEA22B6
:1045C0000F0EE926000EEA22110EE926000EEA225D
:1045D000EECF02F0EFCF03F00001033503510001ED
:1045E000011908E6000102510001005D00010351BC
:1045F0000001015943E301EBE9FF02EBEAFF060E7C
:10460000D890E936EA36E806FBE1000EE926050E09
:10461000EA220F0EE926000EEA22190EE926000E04
:10462000EA22EECF04F0EFCF05F001EBE9FF02EB59
:10463000EAFF060ED890E936EA36E806FBE1000EFE
:10464000E926050EEA220F0EE926000EEA22130ED5
:10465000E926000EEA22EECF06F0EFCF07F00001C8
:10466000053505510001071908E600010451000154
:10467000065D000105510001075919E201EBE9FF50
:1046800002EBEAFF060ED890E936EA36E806FBE1CF
:10469000000EE926050EEA220F0EE926000EEA2298
:1046A000210EE926000EEA22010EEE6EED6A01EB04
:1046B000E9FF02EBEAFF060ED890E936EA36E80693
:1046C000FBE1000EE926050EEA220F0EE926000E98
:1046D000EA22210EE926000EEA22EE50ED1001E05A
:1046E000AFD101EBE9FF02EBEAFF060ED890E93605
:1046F000EA36E806FBE1000EE926050EEA220F0E77
:10470000E926000EEA221D0EE926000EEA22010E1D
:10471000EE6EED6A01EBE9FF02EBEAFF060ED890C0
:10472000E936EA36E806FBE1000EE926050EEA2244
:104730000F0EE926000EEA221F0EE926000EEA22DD
:10474000010EEE6EED6A01EBE9FF02EBEAFF060EE9
:10475000D890E936EA36E806FBE1000EE926050EB8
:10476000EA220D0EE926000EEA22EECF00F0EFCF8E
:1047700001F001EBE9FF02EBEAFF060ED890E93603
:10478000EA36E806FBE1000EE926050EEA220F0EE6
:10479000E926000EEA222D0EE926000EEA2200C0CC
:1047A000EEFF01C0EDFF01EBE9FF02EBEAFF060EB1
:1047B000D890E936EA36E806FBE1000EE926050E58
:1047C000EA22060EE926000EEA22EF5001E137D177
:1047D000020E00017C5D04E0580E01240D6E02D033
:1047E000410E0D6EAAEC03F00DEB00F00001016B21
:1047F00000BF016900C0E6FF01C0E6FF3B0EE66EA8
:104800008B0EE66E000EE66E000EE66E020EE66E93
:1048100015EC71F047E9000EE66E020EE66E3AEC1A
:1048200072F042E901EBE9FF02EBEAFF060ED890D5
:10483000E936EA36E806FBE1000EE926050EEA2233
:104840000F0EE926000EEA220B0EE926000EEA22E0
:10485000EECFE6FFEECFE6FF01EBE9FF02EBEAFF6A
:10486000060ED890E936EA36E806FBE1000EE926A6
:10487000050EEA220F0EE926000EEA22090EE926AD
:10488000000EEA22EECFE6FFEECFE6FF240EE66E44
:104890008B0EE66E000EE66E000EE66E020EE66E03
:1048A00015EC71F049E9000EE66E020EE66E3AEC88
:1048B00072F042E9E70EE66E9A0EE66E000EE66EC4
:1048C000E5EC71F043E901EBE9FF02EBEAFF060ECC
:1048D000D890E936EA36E806FBE1000EE926050E37
:1048E000EA220F0EE926000EEA220D0EE926000E3E
:1048F000EA22EECFE6FFEECFE6FF01EBE9FF02EBA7
:10490000EAFF060ED890E936EA36E806FBE1000E2B
:10491000E926050EEA220F0EE926000EEA221B0EFA
:10492000E926000EEA22EECFE6FFEECFE6FF0D0EFF
:10493000E66E8B0EE66E000EE66E000EE66E020E62
:10494000E66E15EC71F049E9000EE66E020EE66EB9
:104950003AEC72F042E9E70EE66E9A0EE66E000E51
:10496000E66EE5EC71F043E901EBE9FF02EBEAFFEB
:10497000060ED890E936EA36E806FBE1000EE92695
:10498000050EEA220F0EE926000EEA22130EE92692
:10499000000EEA22EECFE6FFEECFE6FF01EBE9FFE5
:1049A00002EBEAFF060ED890E936EA36E806FBE1AC
:1049B000000EE926050EEA220F0EE926000EEA2275
:1049C000110EE926000EEA22EECFE6FFEECFE6FF5B
:1049D00001EBE9FF02EBEAFF060ED890E936EA3672
:1049E000E806FBE1000EE926050EEA220F0EE92695
:1049F000000EEA22190EE926000EEA22EECFE6FFAB
:104A0000EECFE6FFF60EE66E8A0EE66E000EE66E5E
:104A1000000EE66E020EE66E15EC71F04BE9000E2C
:104A2000E66E020EE66E3AEC72F042E9E70EE66ED2
:104A30009A0EE66E000EE66EE5EC71F043E9C2D127
:104A400001EBE9FF02EBEAFF060ED890E936EA3601
:104A5000E806FBE1000EE926050EEA22060EE9262D
:104A6000000EEA22EF5001E1ADD104017095020E73
:104A700000017C5D04E0580E01240D6E02D0410E51
:104A80000D6EAAEC03F0E00EE66E9A0EE66E000ED6
:104A9000E66EE5EC71F043E90DEB00F00001016B0F
:104AA00000BF016900C0E6FF01C0E6FFE00EE66E50
:104AB0008A0EE66E000EE66E000EE66E020EE66EE2
:104AC00015EC71F047E9010EE66EE66AA0C0E6FF5C
:104AD000B7EC00F043E9000EE66E020EE66E3AEC2B
:104AE00072F042E9E70EE66E9A0EE66E000EE66E92
:104AF000E5EC71F043E901EBE9FF02EBEAFF060E9A
:104B0000D890E936EA36E806FBE1000EE926050E04
:104B1000EA220F0EE926000EEA220B0EE926000E0D
:104B2000EA22EECFE6FFEECFE6FF01EBE9FF02EB74
:104B3000EAFF060ED890E936EA36E806FBE1000EF9
:104B4000E926050EEA220F0EE926000EEA22090EDA
:104B5000E926000EEA22EECFE6FFEECFE6FFC90E11
:104B6000E66E8A0EE66E000EE66E000EE66E020E31
:104B7000E66E15EC71F049E9010EE66E010EE66E87
:104B8000E66AB7EC00F043E9000EE66E020EE66E50
:104B90003AEC72F042E9E70EE66E9A0EE66E000E0F
:104BA000E66EE5EC71F043E901EBE9FF02EBEAFFA9
:104BB000060ED890E936EA36E806FBE1000EE92653
:104BC000050EEA220F0EE926000EEA220D0EE92656
:104BD000000EEA22EECFE6FFEECFE6FF01EBE9FFA3
:104BE00002EBEAFF060ED890E936EA36E806FBE16A
:104BF000000EE926050EEA220F0EE926000EEA2233
:104C00001B0EE926000EEA22EECFE6FFEECFE6FF0E
:104C1000B20EE66E8A0EE66E000EE66E000EE66ED0
:104C2000020EE66E15EC71F049E9010EE66E020E19
:104C3000E66EE66AB7EC00F043E9000EE66E020E9F
:104C4000E66E3AEC72F042E9E70EE66E9A0EE66E18
:104C5000000EE66EE5EC71F043E901EBE9FF02EBD3
:104C6000EAFF060ED890E936EA36E806FBE1000EC8
:104C7000E926050EEA220F0EE926000EEA22130E9F
:104C8000E926000EEA22EECFE6FFEECFE6FF01EBCB
:104C9000E9FF02EBEAFF060ED890E936EA36E806AD
:104CA000FBE1000EE926050EEA220F0EE926000EB2
:104CB000EA22110EE926000EEA22EECFE6FFEECF41
:104CC000E6FF01EBE9FF02EBEAFF060ED890E936BA
:104CD000EA36E806FBE1000EE926050EEA220F0E91
:104CE000E926000EEA22190EE926000EEA22EECF8E
:104CF000E6FFEECFE6FFF60EE66E8A0EE66E000EDB
:104D0000E66E000EE66E020EE66E15EC71F04BE9F3
:104D1000010EE66E030EE66EE66AB7EC00F043E9BC
:104D2000000EE66E020EE66E3AEC72F042E9E70E15
:104D3000E66E9A0EE66E000EE66EE5EC71F043E963
:104D4000010EE66E010EE66EF1EC6CF042E9020E29
:104D500000017C5D04E0580E01240D6E02D0410E6E
:104D60000D6EAAEC03F00DEB00F00001016B00BF2B
:104D7000016900C0E6FF01C0E6FF860EE66E8A0EFE
:104D8000E66E000EE66E000EE66E020EE66E15ECA6
:104D900071F047E9000EE66E020EE66E3AEC72F034
:104DA00042E9020EE66E5FEC5FF041E904000401A7
:104DB00070A5F7D7E66A010EE66EF1EC6CF042E9F9
:104DC00055EC5FF0D950010FE96EDACFEAFFEE2A19
:104DD000000EEE22EE22EE22E0EF21F0D7EC6CF096
:104DE000060EE66EE66AE66AE66A56EC01F044E90B
:104DF0008B9200017B6B0001806B55EC5FF0000132
:104E0000865101E032D1016A026A036A046A050E22
:104E1000E66E5FEC5FF041E9710EE66E8A0EE66EBB
:104E2000000EE66E000EE66E020EE66E15EC71F0F8
:104E300045E9010EE66EE66AA0C0E6FFB7EC00F0B9
:104E400043E9040170A59AD08F80AAEC03F0530EB9
:104E5000E66E8A0EE66E000EE66E000EE66E020E3E
:104E6000E66E15EC71F045E9000EE66E020EE66E98
:104E70003AEC72F042E9010EE66EE66AA0C0E6FF87
:104E8000B7EC00F043E9060EE66EE66AE66AE66A0B
:104E900056EC01F044E955EC5FF0BC0EE66E920E64
:104EA000E66E000EE66E000EE66E020EE66E15EC85
:104EB00071F045E9010EE66E010EE66EE66AB7ECAA
:104EC00000F043E9BC0EE66E920EE66E000EE66E52
:104ED000000EE66E020EE66E15EC71F045E9010E6D
:104EE000E66E020EE66EE66AB7EC00F043E9BC0E31
:104EF000E66E920EE66E000EE66E000EE66E020E96
:104F0000E66E15EC71F045E9010EE66E030EE66EF5
:104F1000E66AB7EC00F043E9020EE66E90EC10F0A2
:104F200041E9AAEC03F0360EE66E8A0EE66E000E3C
:104F3000E66E000EE66E020EE66E15EC71F045E9C7
:104F4000000EE66E020EE66E3AEC72F042E9010ED9
:104F5000E66EE66AA0C0E6FFB7EC00F043E9060E95
:104F6000E66EE66AE66AE66A56EC01F044E9A00EEF
:104F7000016E860E026E010E036E046A04000401C7
:104F800004017051040B1DE1D950010FE96EDACF15
:104F9000EAFFEFCF00F0EE2A000EEFCF01F0EE2295
:104FA000EFCF02F0EE22EFCF03F0EF22E80E000188
:104FB000005D030E0159000E0259000E035901E273
:104FC0002BD7180EE66E8A0EE66E000EE66E000E09
:104FD000E66E020EE66E15EC71F045E9010EE66E26
:104FE000E66AE66AB7EC00F043E9BC0EE66E920EA4
:104FF000E66E000EE66E000EE66E020EE66E15EC34
:1050000071F045E9010EE66E010EE66EE66AB7EC58
:1050100000F043E9BC0EE66E920EE66E000EE66E00
:10502000000EE66E020EE66E15EC71F045E9010E1B
:10503000E66E020EE66EE66AB7EC00F043E9BC0EDF
:10504000E66E920EE66E000EE66E000EE66E020E44
:10505000E66E15EC71F045E9010EE66E030EE66EA4
:10506000E66AB7EC00F043E900D000017B6B000179
:10507000806B060EE66EE66AE66AE66A56EC01F0BA
:1050800044E955EC5FF0C6EC13F0AAEC03F09A0E7D
:10509000E66E8C0EE66E000EE66EE5EC71F043E90E
:1050A00052E9E7CFD9FF120020EC34F000018C5117
:1050B00051E0EBC4E6FFECC4E6FFE9C4E6FFEAC456
:1050C000E6FFE7C4E6FFE8C4E6FFD5EC31F0E7EC25
:1050D00031F0C3EC31F0E30EE66E890EE66E000EA1
:1050E00095EC2CF0CCEC2FF0DEEC31F0F0EC31F064
:1050F000CCEC31F0C00EE66E890EE66E000E95EC3B
:105100002CF051E973EC30F098C5E6FF99C5E6FF45
:1051100092C5E6FF93C5E6FF51EC33F058C5E6FFB4
:1051200059C5E6FF52C5E6FF53C5E6FFB7EC2EF0C2
:1051300018C5E6FF19C5E6FF12C5E6FF13C5E6FF71
:105140000EEC33F0820EE66E890EE66E000EEDDB9D
:10515000CCEC2FF012000501C80EC26F27EC2EF028
:10516000E0EC2FF027E02B0EE66E49EC70F041E901
:10517000E0EC2FF0FDE127EC2EF02B0EE66E49EC73
:1051800070F041E9E0EC2FF0FDE10C0EE66EC5ECAD
:1051900072F041E9E0EC2FF0FDE1010EE66EC5ECA6
:1051A00072F041E927EC2EF00001010EF66F0501C7
:1051B000180EC26F12000001806B120EE66E220EF6
:1051C000E66E37EC6FF042E96D0EE66E890EE66E24
:1051D000000EE66E000EE66E020EE66E15EC71F045
:1051E00045E9010EE66EE66AE66AB7EC00F043E9CF
:1051F000010EE66E010EE66EE66AB7EC00F043E9DA
:10520000010EE66E020EE66EE66AB7EC00F043E9C8
:10521000010EE66E030EE66EE66AB7EC00F043E9B7
:10522000120EE66E220EE66EE8EC6FF042E98F9009
:1052300092DF8B68FCAE15D0FC9EE70EE66E9A0EF0
:10524000E66E000EE66EE5EC71F043E9AAEC03F0C1
:10525000480EE66E890EE66E000EE66EE5EC71F025
:1052600043E9FCAC15D0FC9CE70EE66E9A0EE66EA8
:10527000000EE66EE5EC71F043E9AAEC03F01E0EB9
:10528000E66E890EE66E000EE66EE5EC71F043E91F
:105290000001735114E0E70EE66E9A0EE66E000E02
:1052A000E66EE5EC71F043E9AAEC03F0F50EE66E6C
:1052B000880EE66E000EE66EE5EC71F043E9000143
:1052C000745114E0E70EE66E9A0EE66E000EE66E7E
:1052D000E5EC71F043E9AAEC03F0CC0EE66E880E23
:1052E000E66E000EE66EE5EC71F043E9140EE66E34
:1052F000E66AB40EE66E880EE66E000EE66E000EEE
:10530000E66E020EE66E03EC6FF047E9010EE66E04
:10531000E66AE66AB7EC00F043E9E20EE66E9A0E42
:10532000E66E000EE66EE5EC71F043E9140EE66EF3
:10533000E66A9DC0E6FF9EC0E6FF9FC0E6FF000E46
:10534000E66E020EE66E03EC6FF047E9010EE66EC4
:10535000010EE66EE66AB7EC00F043E9000EE66E79
:10536000020EE66E3AEC72F042E9E00EE66E9A0E3C
:10537000E66E000EE66EE5EC71F043E9140EE66EA3
:10538000E66A9AC0E6FF9BC0E6FF9CC0E6FF000EFF
:10539000E66E020EE66E03EC6FF047E9000EE66E75
:1053A000020EE66E3AEC72F042E9010EE66E020E73
:1053B000E66EE66AB7EC00F043E9140EE66EE66AC4
:1053C000CA0EE66E9A0EE66E000EE66E000EE66EF1
:1053D000020EE66E03EC6FF047E9000EE66E020E79
:1053E000E66E3AEC72F042E9E70EE66E9A0EE66E71
:1053F000000EE66EE5EC71F043E9010EE66E030E79
:10540000E66EE66AB7EC00F043E9AAEC03F0950E0D
:10541000E66E880EE66E000EE66EE5EC71F043E98E
:1054200083A20CD00001010E8C6F7D0EE66E880EFB
:10543000E66E000EE66EE5EC71F043E983A039D02C
:10544000AAEC03F0640EE66E880EE66E000EE66EC1
:10545000E5EC71F043E9000EE66EE66A000EE66EDA
:10546000E66A010EE66EE66A13EC6EF046E9AAEC17
:1054700003F0470EE66E880EE66E000EE66EE5EC73
:1054800071F043E90501F46B0F0E0501F45D11E2C3
:10549000080EE66EE66A0501F451E66EE66A0F0E46
:1054A000E66E7F0EE66E13EC6EF046E90501F42B16
:1054B000EBD7AAEC03F0270EE66E880EE66E000E20
:1054C000E66EE5EC71F043E9000EE66EE66A000E6A
:1054D000E66EE66A45EC6EF044E959080CE1000E10
:1054E000E66EE66A020EE66EE66A45EC6EF044E9A8
:1054F0000501F36F22D0AAEC03F0040EE66E880ECD
:10550000E66E000EE66EE5EC71F043E9000EE66E25
:10551000E66A000EE66EE66A010EE66EE66A13ECD7
:105520006EF046E9AAEC03F0E40EE66E870EE66E36
:10553000000EE66EE5EC71F043E9AAEC03F0CB0E49
:10554000E66E870EE66E000EE66EE5EC71F043E95E
:10555000080EE66EE66A000EE66EE66A45EC6EF050
:1055600044E959081FE10501F46B0F0E0501F45DD4
:1055700018E20501F451E66EE66A0A0EE66EE66A86
:1055800045EC6EF044E9E66E0501F451EA6AE50F78
:10559000E96E000EEA22E552E750EF6E0501F42BAA
:1055A000E4D734D0AAEC03F0AF0EE66E870EE66EB9
:1055B000000EE66EE5EC71F043E90501F46B0F0EA9
:1055C0000501F45D18E2080EE66EE66A0501F45185
:1055D000E66EE66A0F0EE66E0501F451EA6AE50F23
:1055E000E96E000EEA22EFCFE6FF13EC6EF046E91B
:1055F0000501F42BE4D7AAEC03F0960EE66E870EB5
:10560000E66E000EE66EE5EC71F043E983A403D08C
:105610004EEC0AF0FFD71BEC42F0AAEC03F07D0E33
:10562000E66E870EE66E000EE66EE5EC71F043E97D
:10563000050EE66EE66AE66AE66A56EC01F044E9B3
:1056400020EC34F083A00BD0AAEC03F0670EE66EDA
:10565000870EE66E000EE66EE5EC71F043E983A678
:105660000ED0AAEC03F04A0EE66E870EE66E000E30
:10567000E66EE5EC71F043E900010F0EF76F740E72
:10568000E66E030EE66E04C6E6FF05C6E6FF06C636
:10569000E6FF07C6E6FFEFEC07F046E97B0EE66E95
:1056A000030EE66E08C6E6FF09C6E6FF0AC6E6FF79
:1056B0000BC6E6FFEFEC07F046E97B0EE66E030E45
:1056C000E66E740EE66E030EE66E310EE66E870E23
:1056D000E66E000EE66E000EE66E020EE66E15EC4D
:1056E00071F049E9010EE66EE66AE66AB7EC00F091
:1056F00043E98350010BE66EE66A8350020B01E03A
:10570000010EE66EE66A8350040B01E0010EE66EC0
:10571000E66A8350080B01E0010EE66EE66A8350EC
:10572000100B01E0010EE66EE66A8350200B01E0EB
:10573000010EE66EE66A8350400B01E0010EE66E54
:10574000E66A8350800B01E0010EE66EE66A080E01
:10575000E66E870EE66E000EE66E000EE66E020E38
:10576000E66E15EC71F055E9010EE66E010EE66E7F
:10577000E66AB7EC00F043E9AAEC03F0000EE66E2F
:10578000020EE66E3AEC72F042E92BEC03F0050EE5
:10579000E66EE66AE66AE66A56EC01F044E920EC59
:1057A00034F004C6E6FF05C6E6FF4CEC73F042E9B0
:1057B000F8EC6FF08B6A0001846B0001886B0001CC
:1057C0007A6B00017C51E66EE66AEAEC0DF042E984
:1057D0007CC0E6FFF3EC68F041E90001010E676F61
:1057E000740EE66E030EE66E04C6E6FF05C6E6FF1F
:1057F00006C6E6FF07C6E6FFEFEC07F046E97B0EBC
:10580000E66E030EE66E08C6E6FF09C6E6FF0AC6A8
:10581000E6FF0BC6E6FFEFEC07F046E910C4E6FF33
:1058200011C4E6FF12C4E6FF13C4E6FF00C4E6FF9E
:1058300001C4E6FF02C4E6FF03C4E6FF7B0EE66E8A
:10584000030EE66E740EE66E030EE66EE70EE66E6F
:10585000860EE66E000EE66E000EE66E020EE66E38
:1058600015EC71F051E9010EE66EE66AE66AB7ECF6
:1058700000F043E9AAEC03F0000EE66E020EE66EBD
:105880003AEC72F042E92BEC03F0280EE66E64EC81
:105890005FF041E9050EE66EE66AE66AE66A56ECF6
:1058A00001F044E932EC0BF0010EE66E010EE66EFB
:1058B000E66AE66AE66A90EC02F045E920EC34F02C
:1058C000C8EC6CF0000905E00001655102E01BEC3A
:1058D00042F04CEC11F004000001815112E0DBECCD
:1058E00013F0AAEC0EF00401D66FD60EE66E040E8D
:1058F000E66EEAEC0DF042E9D6C4E6FFBEEC0AF033
:1059000041E904000EEC01F06DEC0BF00001835155
:1059100002E00001A26BD2D71200400D56EC33F02A
:10592000000EE926050EEA221200E66E01EC33F0C5
:1059300015EF71F0D2DBD7DBE70EE66E9A0EE66E5E
:10594000000EE66EE5EF71F0DAEC30F0C7EC30F007
:10595000B0EC63F0E552E5CF07F0E5CF06F0E5CF18
:1059600005F0E7CF04F000010451005D0001E16F94
:105970000001055101590001E26F00010651025971
:105980000001E36F0001075103590001E46F1200A9
:105990006AEC33F0050E7BEF32F018C5E6FF19C54F
:1059A000E6FFDBEC32F02AC5E6FF2BC5E6FFEFECA5
:1059B00030F028C5E6FF29C5E6FF97EF61F058C52E
:1059C000E6FF59C5E6FFDBEC32F06AC5E6FF6BC5C2
:1059D000E6FFEFEC30F068C5E6FF69C5E6FF97EF3C
:1059E00061F083EC62F0E552E5CFC6F0E5CFC5F09B
:1059F000E5CFC4F0E7CFC3F0F9EC31F025EF31F09B
:105A0000400DF3CF00F0F4CF01F0000E00010027AD
:105A1000050E012302EC32F06EEC6BF042E912004D
:105A200098C5E6FF99C5E6FFDBEC32F0AAC5E6FFB4
:105A3000ABC5E6FFD4DBA8C5E6FFA9C5E6FF97EF37
:105A400061F0BC0EE66E920EE66E000E1200E5529C
:105A5000E5CF03F0E5CF02F0E5CF01F0E7CF00F0AE
:105A6000120063DBE552E5CF13F4E5CF12F4E5CF86
:105A700011F4E7CF10F41200E3DBF3EF30F0BEECEB
:105A800007F044E9FCC300F0FDC301F0FEC302F0DF
:105A9000FFC303F0120047E973EF30F0D9CFE6FF00
:105AA000E1CFD9FF12000501E151E12BE25D1200C7
:105AB000C3EC31F0CCEF31F0FF51060D56EC33F072
