:020000040000FA
:0600000033EF74F0120062
:020006001200E6
:06000800B4EF58F01200F5
:02000E00C250DE
:08001000020B01E0010E1200D9
:0600180048EF5FF012004A
:02001E000600DA
:10002000A9E90000FC04000002000000A5E90000AE
:10003000FB0200000400000010E900006000000066
:1000400095000000FEE80000EA0300001200000036
:10005000FCE80000FA04000002000000CCE8000008
:08006000A706000030000000BB
:0800680042EC2FF083E941E8AE
:100070000150050801E2016A005003E08DEC30F008
:10008000EF6A01EBACF600012B0E036F9E0E046FBE
:10009000000E056FCDEC30F0E5CF08F00AEC32F041
:1000A00000017CEC33F08DEC30F0EFCF09F00A6BFF
:1000B0000B6B00510925F36E01510A21F46E0251B8
:1000C0000B21F86EF4CFF7FFF3CFF6FF0800F550E1
:1000D000036E8DEC30F0EF2AEFCF00F0016B026B76
:1000E000F3EC33F002C0E6FF2B0E096F9E0E0A6F91
:1000F000000E0B6FCDEC30F0E5CF0EF0E5CF0DF03C
:10010000E7CF0CF0000109510C25066F0A510D21B3
:10011000076F0B510E21086F24EC35F0E66E0FECE3
:100120006EF043E9E552E7CF02F0E552E7CF01F088
:10013000E552E7CF00F0FCC303F0FDC304F0FEC3BB
:1001400005F000010351005D0451015905510259A8
:1001500003E38DEC30F0EF6A035042E9E7CFD9FFBB
:10016000120042EC2FF084E90001F2514FE0005000
:1001700021E0025001240601AD6F1AEC34F0C80EE4
:10018000E66E9C0EE66E000EE66E87EC2FF062ECDB
:100190006EF047E91AEC34F0EDEC34F0060187EC30
:1001A0002FF034EC6EF046E9060167EC33F0140EE4
:1001B0000DEC31F00150030A0CE0010A08E0030ADB
:1001C00004E0010A09E1E66A08D0400E03D0140EEB
:1001D00001D0540EE66E01D0E66AB1EC71F041E94F
:1001E000015000019C250601AD6F00016A510EE02F
:1001F000D1EC31F0FDE1060187EC2FF0E0EC72F07C
:1002000042E9D1EC31F0FDE1010E90165BEF2FF0E9
:1002100000016E5104E046EC43F000016E6B725138
:1002200007E0726BF45102E0000E01D0010EF46F92
:10023000755104E00FEC11F00001756B685103E09B
:10024000A7DA0001686B715104E0FBEC06F00001D5
:10025000716B6F5103E0BDDA00016F6B1200D9CFF3
:10026000E6FFE1CFD9FF85E90401766B776B786B08
:10027000796B04017651005C77510158785102582E
:100280007951035809E3000004000401762B000EA5
:10029000772378237923EDD741E9E7CFD9FF1200FF
:1002A000D9CFE6FFE1CFD9FF85E9030EE66EEDEC8D
:1002B0006CF041E992C67AF493C67BF494C67CF460
:1002C00095C67DF439EC6DF0D9CFE9FFDACFEAFFBE
:1002D00004017A51EE240401826F04017B51EE2067
:1002E0000401836F04017C51EE200401846F04013A
:1002F0007D51EE200401856F030EE66EEDEC6CF08F
:1003000041E992C67EF493C67FF494C680F495C604
:1003100081F439EC6DF004007E0EE96E040EEA6E95
:1003200004018251EE5C8351EE588451EE588551A0
:10033000EE58E2E341E9E7CFD9FF12004CEC33F08D
:1003400019E079EC2FF092C686F493C687F494C630
:1003500088F495C689F4B9EC2FF004018651EE2497
:100360008E6F8751EE208F6F8851EE20906F8951EC
:10037000EE20916F79EC2FF092C68AF493C68BF43D
:1003800094C68CF495C68DF439EC6DF08A0EE96E46
:10039000040EEA6E04018E51EE5C8F51EE589051BE
:1003A000EE589151EE5802E2000E01D0010E5BEFC3
:1003B0002FF04CEC33F019E079EC2FF092C692F468
:1003C00093C693F494C694F495C695F4B9EC2FF0C3
:1003D00004019251EE249A6F9351EE209B6F945139
:1003E000EE209C6F9551EE209D6F79EC2FF092C618
:1003F00096F493C697F494C698F495C699F439EC9C
:100400006DF0960EE96E040EEA6E04019A51EE5CF0
:100410009B51EE589C51EE589D51EE5802E2000E51
:1004200001D0010E5BEF2FF04CEC33F019E079ECCA
:100430002FF092C69EF493C69FF494C6A0F495C67E
:10044000A1F4B9EC2FF004019E51EE24A66F9F5148
:10045000EE20A76FA051EE20A86FA151EE20A96F4A
:1004600079EC2FF092C6A2F493C6A3F494C6A4F438
:1004700095C6A5F439EC6DF0A20EE96E040EEA6E95
:100480000401A651EE5CA751EE58A851EE58A951AF
:10049000EE5802E2000E01D0010E5BEF2FF04CECA3
:1004A00033F019E079EC2FF092C6AAF493C6ABF4BE
:1004B00094C6ACF495C6ADF4B9EC2FF00401AA5182
:1004C000EE24B26FAB51EE20B36FAC51EE20B46F9F
:1004D000AD51EE20B56F79EC2FF092C6AEF493C615
:1004E000AFF494C6B0F495C6B1F439EC6DF0AE0E2D
:1004F000E96E040EEA6E0401B251EE5CB351EE589F
:10050000B451EE58B551EE5802E2000E01D0010E82
:100510005BEF2FF04CEC33F019E079EC2FF092C642
:10052000B6F493C6B7F494C6B8F495C6B9F4B9EC6A
:100530002FF00401B651EE24BE6FB751EE20BF6F0D
:10054000B851EE20C06FB951EE20C16F79EC2FF099
:1005500092C6BAF493C6BBF494C6BCF495C6BDF477
:1005600039EC6DF0BA0EE96E040EEA6E0401BE516C
:10057000EE5CBF51EE58C051EE58C151EE5802E248
:10058000000E01D0010E5BEF2FF04CEC33F019E0C0
:1005900079EC2FF092C6C2F493C6C3F494C6C4F4A7
:1005A00095C6C5F4B9EC2FF00401C251EE24CA6F10
:1005B000C351EE20CB6FC451EE20CC6FC551EE205D
:1005C000CD6F79EC2FF092C6C6F493C6C7F494C6EB
:1005D000C8F495C6C9F439EC6DF0C60EE96E040E88
:1005E000EA6E0401CA51EE5CCB51EE58CC51EE5884
:1005F000CD51EE5802E2000E01D0010E5BEF2FF05C
:1006000000000401CE6B0601A7510401CE5D04E297
:1006100000000401CE2BF7D712000F0EE66E3EEC61
:1006200073F041E91200050EE66E3EEC73F041E90D
:10063000120042EC2FF082E96CA2FED700EBE6FF3D
:10064000D6EC73F041E95BEF2FF0050E82EF2FF04F
:1006500000016A5101E11200D1EC31F0FDE112001C
:1006600042EC2FF089E903340EE202500808000E34
:10067000035409E204EBFCF305EBFDF306EBFEF398
:1006800007EBFFF35FD00050011009E000018F0E6F
:100690008E6FC20E8F6F750E906F3D0E06D00001EB
:1006A0008E6B8F6B800E906F3E0E916FFCEC32F074
:1006B0008EC0E6FF8FC0E6FF90C0E6FF91C0E6FF68
:1006C00001EC35F0FCEC32F004EBE6FF05EBE6FF65
:1006D00006EBE6FF07EBE6FF12EC64F092EC5FF04E
:1006E00012EC64F001EC35F094EC5FF094EC62F005
:1006F000E552E5CF95F0E5CF94F0E5CF93F0E7CF65
:1007000092F06AEC2FF092C0EEFF93C0EEFF94C01F
:10071000EEFF95C0EEFF001C0DE1011C0BE1000196
:10072000926B936B946B956B6AEC2FF0EE6AEE6AAA
:10073000EE6AEE6A92C0FCF393C0FDF394C0FEF340
:1007400095C0FFF35BEF2FF004004EC6E6FF4FC6E7
:10075000E6FF50C6E6FF51C6E6FF66DB44E9F3CF8D
:10076000E6FFF4CFE6FFC10EE66E9C0EE66E000ECD
:10077000E66E200EE66E030EE66E74EC70F047E94E
:10078000200EE66E030EE66E8EEC71F042E912006A
:10079000DBDFB50EE66EA60EE66E000E53EC32F011
:1007A0000401236B040123510AE10A0EC9EC32F063
:1007B00056DD44E911EC36F059EC5FF0F3D7020E48
:1007C000235DC2DF130EE66EA70EE66E000E53EF3A
:1007D00032F00400BE0EE66E9C0EE66E000EE66E73
:1007E000000EE66E020EE66E74EC70F045E9000E47
:1007F000E66E020EE66E8EEC71F042E9A5DFB90EF0
:10080000E66E9C0EE66E000EE66E12EC71F043E9A9
:1008100099C0E6FF9AC0E6FF9BC0E6FF000EE66EB9
:10082000020EE66EF6EC6DF045E9000EE66E020E85
:10083000E66E8EEC71F042E9B70EE66E9C0EE66E47
:10084000000EE66E12EC71F043E996C0E6FF97C029
:10085000E6FF98C0E6FF000EE66E020EE66EF6ECCE
:100860006DF045E9000EE66E020EE66E8EEC71F05C
:1008700042E9A10EE66E9C0EE66E000EE66E000EDC
:10088000E66E020EE66EF6EC6DF045E9000EE66EE1
:10089000020EE66E8EEC71F042E900018351E66EC5
:1008A000E66A00016051E66EE66A5AC6E6FF5BC67C
:1008B000E6FF5CC6E6FF5DC6E6FF56C6E6FF57C626
:1008C000E6FF58C6E6FF59C6E6FF44C6E6FF45C642
:1008D000E6FF01C6E6FF02C6E6FF03C6E6FF04C662
:1008E000E6FF8350800B01E0010EE66EE66A83505E
:1008F000400B01E0010EE66EE66A8350200B01E03A
:10090000010EE66EE66A8350100B01E0010EE66E02
:10091000E66A8350080B01E0010EE66EE66A83503A
:10092000040B01E0010EE66EE66A8350020B01E063
:10093000010EE66EE66A8350010BE66EE66A000180
:100940006351E66EE66A120EE66E9C0EE66E000ECF
:10095000E66E000EE66E020EE66E74EC70F069E96B
:10096000000EE66E020EE66E8EEC71F042E90601B4
:10097000A651E66EE66A7850E66EE66A6AC6E6FF5B
:100980006BC6E6FF6CC6E6FF6DC6E6FF4EC6E6FF29
:100990004FC6E6FF50C6E6FF51C6E6FF92C6E6FF29
:1009A00093C6E6FF94C6E6FF95C6E6FF4EEC62F0FE
:1009B00092C6E6FF93C6E6FF94C6E6FF95C6E6FF3D
:1009C0008EC6E6FF8FC6E6FF90C6E6FF91C6E6FF3D
:1009D00052C6E6FF53C6E6FF54C6E6FF55C6E6FF1D
:1009E0004AC6E6FF4BC6E6FF4CC6E6FF4DC6E6FF2D
:1009F00062C6E6FF63C6E6FF64C6E6FF65C6E6FFBD
:100A00008AC6E6FF8BC6E6FF8CC6E6FF8DC6E6FF0C
:100A100086C6E6FF87C6E6FF88C6E6FF89C6E6FF0C
:100A20006EC6E6FF6FC6E6FF70C6E6FF71C6E6FF5C
:100A30004EC6E6FF4FC6E6FF50C6E6FF51C6E6FFCC
:100A4000530EE66E9B0EE66E000EE66E000EE66E30
:100A5000020EE66E74EC70F075E9000EE66E020EA2
:100A6000E66E8EEC71F042E929C4E6FF2AC4E6FF87
:100A70002BC4E6FF2CC4E6FF66C6E6FF67C6E6FFAA
:100A800068C6E6FF69C6E6FF72C6E6FF73C6E6FF04
:100A900074C6E6FF75C6E6FF76C6E6FF77C6E6FFD4
:100AA00078C6E6FF79C6E6FF7AC6E6FF7BC6E6FFB4
:100AB0007CC6E6FF7DC6E6FF7EC6E6FF7FC6E6FF94
:100AC00080C6E6FF81C6E6FFF40EE66E9A0EE66E7D
:100AD000000EE66E000EE66E020EE66E74EC70F02E
:100AE0005DE9000EE66E020EE66E8EEC71F042E9F4
:100AF0000401CF6B030E0401CF5D01E36ED104014D
:100B0000CF513C0DF3CFE9FFF4CFEAFF000EE92609
:100B1000050EEA22060EE926000EEA22EF5001E158
:100B200059D10401CF513C0DF3CFE9FFF4CFEAFFD7
:100B3000000EE926050EEA220F0EE926000EEA2233
:100B4000170EE926000EEA22EECFE6FFEECFE6FF13
:100B50000401CF513C0DF3CFE9FFF4CFEAFF000EC3
:100B6000E926050EEA220F0EE926000EEA22150EEE
:100B7000E926000EEA22EECFE6FFEECFE6FF040103
:100B8000CF513C0DF3CFE9FFF4CFEAFF000EE92689
:100B9000050EEA220F0EE926000EEA22290EE926AA
:100BA000000EEA22EECFE6FFEECFE6FF0401CF51C2
:100BB0003C0DF3CFE9FFF4CFEAFF000EE926050E66
:100BC000EA220F0EE926000EEA22270EE926000E81
:100BD000EA22EECFE6FFEECFE6FF0401CF513C0D57
:100BE000F3CFE9FFF4CFEAFF000EE926050EEA2273
:100BF0000F0EE926000EEA22090EE926000EEA226F
:100C0000EECFE6FFEECFE6FF0401CF513C0DF3CF70
:100C1000E9FFF4CFEAFF000EE926050EEA220F0EE7
:100C2000E926000EEA22110EE926000EEA22EECF96
:100C3000E6FFEECFE6FF0401CF513C0DF3CFE9FF15
:100C4000F4CFEAFF000EE926050EEA220F0EE92690
:100C5000000EEA22130EE926000EEA22EECFE6FF8E
:100C6000EECFE6FF0401CF513C0DF3CFE9FFF4CF07
:100C7000EAFF000EE926050EEA220F0EE926000E15
:100C8000EA22050EE926000EEA22EECFE6FFEECFBD
:100C9000E6FF0401CF513C0DF3CFE9FFF4CFEAFFAB
:100CA000000EE926050EEA220F0EE926000EEA22C2
:100CB000030EE926000EEA22EECFE6FFEECFE6FFB6
:100CC0000401CF513C0DF3CFE9FFF4CFEAFF000E52
:100CD000E926050EEA220F0EE926000EEA22EE5260
:100CE000EECFE6FFEECFE6FF0401CF51E66EE66AF7
:100CF0007C0EE66E9A0EE66E000EE66E000EE66E56
:100D0000020EE66E74EC70F05BE9000EE66E020E09
:100D1000E66E8EEC71F042E9E66AE66A7A0EE66EFD
:100D2000440EE66E0401CF513C0DF3CFE9FFF4CF42
:100D3000EAFF000EE926050EEA220F0EE926000E54
:100D4000EA221F0EE926000EEA22EECFE6FFEECFE2
:100D5000E6FFEECFE6FFEECFE6FF12EC64F00AEC22
:100D600061F0E66AE66A7A0EE66E440EE66E04010B
:100D7000CF513C0DF3CFE9FFF4CFEAFF000EE92697
:100D8000050EEA220F0EE926000EEA22230EE926BE
:100D9000000EEA22EECFE6FFEECFE6FFEECFE6FF53
:100DA000EECFE6FF12EC64F00AEC61F05B0EE66E4B
:100DB0009A0EE66E000EE66E000EE66E020EE66E0F
:100DC00074EC70F049E9000EE66E020EE66E8EECF1
:100DD00071F042E90401CF2B8DD60001F45109E0F6
:100DE000430EE66E9A0EE66E000EE66E12EC71F0A1
:100DF00043E904001200BC0EE66EA70EE66E000E7C
:100E000053EC32F0060EE66EA80EE66E000E53ECC2
:100E100032F00001F45107E0430EE66E9A0EE66EE2
:100E2000000E53EC32F0120042EC2FF01FEC31F0C8
:100E300002E233EC31F000EBB6F601EBB7F602EB71
:100E4000B8F603EBB9F694EC30F0D7EC30F0E5CF20
:100E5000B1F6E5CFB0F6E5CFAFF6E7CFAEF694EC5E
:100E600030F03CEC31F073EC33F0D1EC2FF0EAECE5
:100E700030F0D7EC30F0E5CFB5F6E5CFB4F6E5CFFE
:100E8000B3F6E7CFB2F6EAEC30F045EC31F073ECB4
:100E900033F0D1EC2FF022EC34F0E66E45EC31F07B
:100EA0003CEC31F0310EE66E9A0EE66E000ED9EC97
:100EB00031F051E9A1EF33F042EC2FF01FEC31F0AB
:100EC00002E233EC31F000EBC2F601EBC3F602EBC9
:100ED000C4F603EBC5F694EC30F0DEEC30F0E5CF71
:100EE000BDF6E5CFBCF6E5CFBBF6E7CFBAF694EC9E
:100EF00030F04EEC31F073EC33F0EAEC2FF0EAEC2A
:100F000030F0DEEC30F0E5CFC1F6E5CFC0F6E5CF4E
:100F1000BFF6E7CFBEF6EAEC30F057EC31F073ECF9
:100F200033F0EAEC2FF057EC31F04EEC31F0250EB7
:100F3000E66E9A0EE66E000ED9EC31F04DE9A1EFA7
:100F400033F042EC2FF083E901340EE300EB00F0C4
:100F500001EB01F00001006D011F000E012300C034
:100F6000F3FF01C0F4FF02D010EC31F05BEF2FF083
:100F700042EC2FF085E9033413E3E668E668E6689F
:100F8000E668FCEC31F003EBE6FF73EC33F000C0F5
:100F9000FCF301C0FDF302C0FEF303C0FFF308D071
:100FA00000EBFCF301EBFDF302EBFEF303EBFFF3CD
:100FB0005BEF2FF086EC33F006EC35F098EC2EF07A
:100FC00060EC31F01D0EE66E9A0EE66E000E29EF13
:100FD00034F086EC33F0DFEC34F060EC31F0150ED9
:100FE000E66E9A0EE66E000E29EF34F00BEC34F04C
:100FF00002E32D0E8D6FC7EC2FF0E5EC60F0E5EC11
:101000002EF0DFEC34F0B6EC32F033EC2FF0D89069
:1010100000010351000A08E6DC0E005D050E0159CF
:10102000000E0259000E035917E2B6EC32F033EC11
:101030002FF077EC30F08DC004F00001056B04BF99
:1010400005690FEC32F00F0EE66E9A0EE66E000E9A
:1010500048EC30F04BE934D0E66AE66A7A0EE66E88
:10106000440EB1EC2FF0E5EC2EF006EC35F02EEC52
:1010700034F0DFC0E6FFE66E33EC2FF077EC30F0B3
:10108000B6EC32F075DF44E9FCC304F0FDC305F0B3
:10109000FEC306F0FFC307F077EC30F08DC008F018
:1010A0000001096B08BF096908C0E6FF09C0E6FF37
:1010B000020EE66E9A0EE66E000E48EC30F04FE936
:1010C00010EC31F05BEF2FF00BEC34F002E32D0E5F
:1010D0008D6FE66AE66A200EE66E410E8EEC33F006
:1010E000E5EC60F094EC62F0E552E5CFC6F0E5CFB8
:1010F000C5F0E5CFC4F0E7CFC3F066EC31F013ECF8
:1011000033F0200EE66E410EE66E66EC31F00CEC2C
:1011100035F00A0E2EEC34F0E0EC31F029EC35F02D
:10112000E0EC31F08DC000F00001016B00BF0169FF
:10113000F3EC33F0F80EE66E990EE66E000E48EC16
:1011400030F04BE910EC31F05BEF2FF042EC2FF078
:1011500085E979EC2FF003500001006F016B013538
:101160004AE20051FA08000E015545E2FF0E15EC67
:1011700031F00AE1F45008E10001775101E183D137
:1011800039EC6DF0010E82D1FE0E15EC31F009E163
:10119000F45007E139EC6DF0000152EC2FF0040E31
:1011A00027D0FD0E15EC31F009E1F45007E1000104
:1011B000010E776F39EC6DF0FD0E68D1FC0E15EC69
:1011C00031F008E1F45006E10001776B39EC6DF085
:1011D000FC0E5CD1FB0E15EC31F00DE1F4500BE18F
:1011E0000001776B39EC6DF0000152EC2FF0050E29
:1011F000F8EC33F04BD10001775101E144D100010B
:10120000FF51000801E33FD1FF0752EC2FF0040E1D
:10121000AFEC34F0EFCFC7F6A4EC03F0FCEC31F008
:1012200012EC71F043E9000152EC2FF0C1EC2FF009
:10123000FF51E66EE66AE60EE66E990EE66E000E69
:10124000F2EC34F00601C66BC651C62BC75D07E150
:10125000970EE66EAA0EE66E000E53EC32F047ECE7
:101260002FF007E1B70EE66EAA0EE66E000E53EC05
:1012700032F047EC2FF007E1E70EE66EAA0EE66EBD
:10128000000E53EC32F047EC2FF007E10A0EE66E49
:10129000AB0EE66E000E53EC32F047EC2FF007E198
:1012A0002D0EE66EAB0EE66E000E53EC32F047EC00
:1012B0002FF007E15E0EE66EAB0EE66E000E53EC0D
:1012C00032F047EC2FF007E1920EE66EAB0EE66EC1
:1012D000000E53EC32F047EC2FF007E1C70EE66E3C
:1012E000AB0EE66E000E53EC32F047EC2FF007E148
:1012F000000EE66EAC0EE66E000E53EC32F047ECDC
:101300002FF007E12E0EE66EAC0EE66E000E53ECEB
:1013100032F047EC2FF007E1550EE66EAA0EE66EAE
:10132000000E53EC32F047EC2FF007E1750EE66E3D
:10133000AA0EE66E000E53EC32F047EC2FF007E1F8
:10134000850EE66EA90EE66E000E53EC32F047EC09
:101350002FF007E15E0EE66EAC0EE66E000E53EC6B
:1013600032F047EC2FF007E19F0EE66EAC0EE66E12
:10137000000E53EC32F047EC2FF007E1C50EE66E9D
:10138000AC0EE66E000E53EC32F047EC2FF007E1A6
:10139000EB0EE66EAC0EE66E000E53EC32F047EC50
:1013A0002FF007E1170EE66EAD0EE66E000E53EC61
:1013B00032F047EC2FF007E12F0EE66EAD0EE66E31
:1013C000000E53EC32F047EC2FF007E1460EE66ECC
:1013D000AD0EE66E000E53EC32F047EC2FF007E155
:1013E000EA0EE66EB00EE66E000E53EC32F047ECFD
:1013F0002FF007E1280EE66EB10EE66E000E53ECFC
:1014000032F047EC2FF007E1470EE66EB10EE66EC4
:10141000000E53EC32F047EC2FF007E1730EE66E4E
:10142000AD0EE66E000E53EC32F00601C651D880C8
:10143000C75517E2C7510001006F016BFA0ED89033
:1014400001BF03D0005D000E01590BE20601C75138
:10145000E66EE66ACC0EE66E990EE66E000EBCEC09
:1014600034F00001FF5102E10001776B000152EC02
:101470002FF0050E0DEC31F052EC2FF0EE6AEE6A13
:10148000EE6AEE6ABCD639EC6DF0000E5BEF2FF021
:101490000001010E666F83A449D011EC36F0640E92
:1014A000C9EC32F005C6E6FF06C6E6FF07C6E6FF52
:1014B00008C6E6FF4EEC62F080EC30F0B5DC44E9A3
:1014C000F3CFE6FFF4CFE6FFB20EE66E990EE66EBE
:1014D000000E89EC2EF04BE9010EE66EE66A03EC95
:1014E00032F0E66E03EC32F0020E58EC32F080EC93
:1014F00030F06FEC31F04EEC62F06FEC31F080ECDC
:1015000030F0920EE66E990EE66E000E89EC2EF02B
:1015100051E9010EE66E030E58EC32F0880EE66ECD
:10152000130E35EC34F059EC5FF0B5D70001666B63
:10153000120042EC2FF083E91B0ECCEC31F05B0E75
:10154000CCEC31F0320ECCEC31F04A0ECCEC31F078
:10155000A80EE66EA60EE66E000E53EC32F05B0EA1
:10156000E66EA60EE66E000E53EC32F05BEF2FF047
:1015700042EC2FF082E900017A5128E17B5109E029
:101580001AEC34F00001360E036FA00E046F000E4B
:1015900008D01AEC34F00001FC0E036FA00E046FAB
:1015A000000E056F160E40EC35F000EBE6FFE66A24
:1015B000E66A61EC63F0E552E5CF08F00AEC32F040
:1015C00000015FEC2FF000EB7CF02DD00050060105
:1015D000C85D21E00001816B80EC6AF08B92040110
:1015E000D06BD0510A0814E3ADEC30F00401D025E3
:1015F0000001066F076B086B5FEC2FF0010EE66EC3
:10160000E66A99EC30F01EEC30F00401D02BE9D7FB
:1016100000EBC8F608D0ADEC30F00A0F066F076B90
:10162000086B5FEC2FF0010EE66EE66A99EC30F085
:10163000E66A010EE66E99EC30F0E66A020EE66E9E
:1016400099EC30F0E66A030EE66E99EC30F05BEF51
:101650002FF00401D16B030ED15D07E2D151C0EC34
:1016600031F0FE0EEF6ED12BF6D70001D85161ECB0
:1016700034F002E1765123E076510EE00401D251BC
:10168000D22B32080DE20601C92BC951050801E22F
:10169000C96B0401D26B04D0030ED8250601C96FB3
:1016A000E66AC9C6E6FF34EC00F042E9E66E0001E6
:1016B000D851C0EC31F0E552E750EF6E1200D8512E
:1016C000C0EC31F0EF68120042EC2FF081E943E802
:1016D000026A00017B5104E1825102E1855102E07E
:1016E000030E69D2D851016E4BEC35F0FBEC33F0B0
:1016F000EE6AED6A010EE66E6EEC30F04BEC35F002
:1017000078EC31F0EE50ED1006E0F4EC30F00CE146
:10171000010EE66E05D0F4EC30F006E0E66A010E4C
:10172000E66E9AEC6AF042E9D950030FE66EDACF22
:10173000E6FF47DA42E90001F351035C08E18B96CA
:10174000010E7B6F03EBE6FF13DF41E931D211ECB1
:1017500036F0C3EC0FF047EC33F00DE20051040813
:10176000000E015508E206019A0ECA6F990ECB6F62
:10177000CC6F3E0E11D0015061EC34F007E0060151
:10178000CA6BCB6BC00ECC6F3F0E06D0060189EC46
:1017900030F003E0F8EC30F0CD6F000186516DE0E1
:1017A0005EEC32F0E8EC31F005AF02D00669076973
:1017B0006FEC33F006E6D8802C0E0055010E9FEC3E
:1017C00030F014E28DBE25D0AAEC33F063EC30F09B
:1017D0008D8E0001806FF45107E0780EE66E990E51
:1017E000E66E000E53EC32F08D8013D08DAE11D02A
:1017F000AAEC33F00DEC31F08D9E0001806BF451BA
:1018000007E05F0EE66E990EE66E000E53EC32F0C6
:101810008D805EEC32F0E8EC31F005AF02D0066965
:1018200007696FEC33F006E6D880900E0055010E84
:101830009FEC30F012E28DB620D08DAE1ED00001AC
:10184000010E876FF45107E03B0EE66E990EE66ECF
:10185000000E53EC32F08D8610D08DA60ED08DAEDA
:101860000CD00001876BF45107E0180EE66E990E5C
:10187000E66E000E53EC32F08D96CBEC34F0C10ED8
:101880003AEC34F004E60051025D0151035901E3E2
:101890008FD05EEC32F0EECF04F0EFCF05F09BEC92
:1018A0002FF0410E40EC34F00AEC32F00001073525
:1018B0000751051904E60651045D0751055901E376
:1018C00077D0025045E00001865142E00601CE513A
:1018D000CF1117E047EC34F00001F45112E006ECB0
:1018E00033F001E0010E71EC34F077EC33F0CB0E05
:1018F000E66E980EE66E000E89EC2EF04DE964EC73
:1019000032F00150F4EC2EF004013F0551E101509A
:10191000FEEC33F00601CE51CF114AE089EC30F0F5
:1019200003E0F8EC30F0CD6F0001F4513DE006EC3F
:1019300033F001E0010E71EC34F077EC33F0840EFB
:10194000E66E980EE66E000E89EC2EF04DE923D07F
:101950000150FEEC33F00150F4EC2EF00601CE51B4
:10196000CF1126E089EC30F003E0F8EC30F0CD6FD9
:101970000001F45119E006EC33F001E0010E71ECC6
:1019800034F0C3EC30F02C0EE66E980EE66E000ECE
:1019900089EC2EF04FE964EC32F0690EE66E980E99
:1019A000E66E000E53EC32F00601CE6BCF6B8B96D9
:1019B000CBEC34F0410E3AEC34F004E60051025D19
:1019C0000151035948E221EC33F0F8EC33F014E113
:1019D0004BEC35F0FBEC33F0EE2AEF2247EC33F022
:1019E0000BE200510108000E015506E20601662BCC
:1019F000000E6723682369234BEC35F0020E63EC7D
:101A000030F0E6EC34F004E1000101510601D11997
:101A100022E05EEC32F0F0EC31F007AF02D0086962
:101A2000096908EC30F002E629EC31F014E200011B
:101A3000F4510FE006EC33F001E0010E71EC34F0EC
:101A400056EC33F0DF0EE66E970EE66E000E53ECAA
:101A500032F012EC35F0CBEC34F0C10E5DEC30F02E
:101A6000000103350351011904E60251005D0351E1
:101A700001592EE221EC33F00DEC31F0E6EC34F0BC
:101A800004E1000101510601D11922E05EEC32F0BF
:101A9000F0EC31F007AF02D00869096908EC30F0CA
:101AA00002E629EC31F014E20001F4510FE006ECFB
:101AB00033F001E0010E71EC34F056EC33F0C80E57
:101AC000E66E970EE66E000E53EC32F012EC35F037
:101AD00047EC33F00AE200510108000E015505E21F
:101AE0004BEC35F0050E63EC30F04BEC35F04FEC81
:101AF00030F001350AE200510208000E015505E2FE
:101B00004BEC35F0090E63EC30F0015061EC34F031
:101B100010E006010051010B0CE10051020B09E13C
:101B20000051040B06E1E66A6EEC30F0000901E1B9
:101B3000FBD50001865103E0876B8D9E806BE66AC2
:101B40006EEC30F0000913E00001F45107E0790E6B
:101B5000E66E970EE66E000E53EC32F000018651F1
:101B600002E084EC31F0C6EC31F0040E24D0060122
:101B70000051010B06E10051020B03E10051040B7F
:101B800019E00001F45107E0230EE66E970EE66EB1
:101B9000000E53EC32F00001865102E084EC31F08B
:101BA000060100A105D000910001010E7B6F8B960C
:101BB000020E01D0000EF36EF46A44E9E7CFD9FFBC
:101BC000120042EC2FF083E983380F0B0001F3156C
:101BD0000401D36F0001F3510401D35D42E1000120
:101BE000F3510601D25D03E0040E82EC2FF08DEC80
:101BF00031F02EE10001F3510601D25D13E058EC03
:101C000030F0070EEF6E4EEC34F00401D451E66E66
:101C1000E66A070EE66E970EE66E000EBCEC34F038
:101C200013EC34F0000184510FE0E60EE66E960EE0
:101C3000E66E000E89EC2EF096EC31F0F3C0D2F691
:101C400058EC30F0070EEF6E0001846BF3514FD06B
:101C5000D451FFEC30F0920EE66E960EE66E000E5A
:101C60003FD0D3510601D25D3DE0030EE66E70EC2D
:101C70005FF041E9040E82EC2FF08DEC31F028E1A9
:101C800058EC30F0D3C4EFFF4EEC34F058EC30F0A9
:101C9000EF50FFEC30F0530EE66E960EE66E000E3F
:101CA000F2EC34F058EC30F0EFCFD2F613EC34F025
:101CB0000001845109E1340EE66E960EE66E000EC8
:101CC00089EC2EF096EC31F00001010E846F0ED0FD
:101CD000D451FFEC30F0E10EE66E950EE66E000E8C
:101CE000F2EC34F058EC30F0D2C6EFFF000E5BEFB0
:101CF0002FF003EC33F00AE10401D56B14EC32F061
:101D000001E3D86B18EC35F0F9E0A3DC060100A381
:101D10001ED08B840401D56B14EC32F001E3D86B38
:101D200018EC35F0F9E095DC06EC31F0CF0EE66EFC
:101D3000950EE66E000EBCEC34F0B40EE66E950E19
:101D4000E66E000E53EC32F08B94060100930051C6
:101D5000010B08E1E66A99EC31F000091BE0000193
:101D60007A5118E000017A5106E17B5102E0000E41
:101D700001D0010E7B6F79EC32F08A0EE66E950E83
:101D8000E66E000E53EC32F000017A6B0601009112
:101D90008B906BD004010F0566E0E66A1EEC35F00F
:101DA000000963E0010EE66E99EC31F00001010ECE
:101DB0007A6F8B8004010F5129E12BEC33F002E69E
:101DC00054EC34F023E20001010E7A6F8B908451C1
:101DD00011E10601D32B97EC2FF0080E0601D35D1D
:101DE00001E3D36BD7EC34F0720EE66E950EE66E1F
:101DF000000E35D05AEC34F001E39E6BEBEC32F080
:101E00004B0EE66E950EE66E000E29D02BEC33F0ED
:101E100002E654EC34F025E20001010E7A6F8B905B
:101E2000845112E10601D30797EC2FF0080E06014A
:101E3000D35D02E3070ED36FD7EC34F0340EE66EB9
:101E4000950EE66E000E0BD05AEC34F001E39E6B5B
:101E5000EBEC32F01D0EE66E950EE66E000E53ECC6
:101E600032F08B8002D097EC2FF000017A5102E023
:101E70008B8001D08B90855170E17B5102E18251C2
:101E80006AE0F4EC30F006E0E66A010EE66E9AECE9
:101E90006AF042E904011F0546E0E66A52EC30F0C0
:101EA00000095BE08B8404011F511AE11B35000E11
:101EB0001B1909E6D880010E1855000E1955000EA1
:101EC0001A55000E1B550CE260EC33F063EC30F059
:101ED000BCEC32F0DF0EE66E970EE66E000E20D000
:101EE000020E1F5D3AE118C4E6FF19C4E6FF1AC4EA
:101EF000E6FF1BC4E6FF2EEC35F006E6D880010EA7
:101F00000055000E9FEC30F028E260EC33F00DEC51
:101F100031F0BCEC32F0C80EE66E970EE66E000EA5
:101F200053EC32F01AD0000182510CE1D851FEEC92
:101F300033F0C4EC34F0020E63EC30F0D851F4EC22
:101F40002EF003D0D851FEEC33F0010EE66E52ECC9
:101F500030F08B9402D064EC0BF000017B5107E071
:101F6000E66A66EC34F00CE1010EE66E05D0E66A36
:101F700066EC34F005E0E66AE66A9AEC6AF042E95B
:101F80000601D351120029EC0BF000017C51070A25
:101F90001CE0010A18E0030A14E0060A10E0010A36
:101FA0000CE0060A08E0050A04E0010A10E1F5EF7A
:101FB00011F0ABEF11F07BEF12F06FEF11F03DEF8E
:101FC00012F062EF12F021EF13F043EF11F0DAEFAD
:101FD00012F042EC2FF082E947E8076A086A80ECC9
:101FE0006AF000017B5104E105012C512D1102E042
:101FF000030E09D00001806B0401355136113711F1
:10200000381104E1020EF36EF46A72D0026A0250D3
:10201000005C68E3A0EC32F00A0EE66ED70EE66EC6
:10202000230EE66E3C0E25EC2FF0E1EC32F05AE187
:10203000036A046A056A066AD890065002E69FECB5
:1020400031F00FE2FA0EE66E7E0EE66E2A0EE66EB6
:102050003F0E7FEC34F005E1D950030F23EC30F054
:10206000EBD7036A046A056A066AD890065002E64E
:102070009FEC31F00FE2FA0EE66E7E0EE66EAA0ECF
:10208000E66E3E0E7FEC34F005E1D950030F23ECF1
:1020900030F0EBD7660EE66EE66EE66E3F0E32EC83
:1020A00035F020E1CD0EE66ECC0EE66EE66E3D0E0E
:1020B00032EC35F017E1E66AE66AE66A3F0E32EC8A
:1020C00035F010E106010051010B06E10051020B51
:1020D00003E10051040B04E0010E076E086A02D010
:1020E000022A95D798EC33F007EBF3FF08EBF4FFE7
:1020F00048E9E7CFD9FF120042EC2FF082E948E827
:10210000086A096A80EC6AF000017B5104E105016C
:102110002C512D1104E0030EF36EF46A7CD0000103
:10212000806B026A0050025C70E2036A030E035C7B
:102130006AE203EBD8F003EC33F063E0A0EC32F09A
:102140009DEC32F0640EEE6EED6AE1EC32F05BE194
:10215000046A056A066A076AD890075002E6A8EC86
:1021600031F00DE2B1EC31F09A0E0027020EB3EC23
:1021700034F005E1D950040F23EC30F0EDD7046AB8
:10218000056A066A076AD890075002E6A8EC31F0A3
:102190000DE2B1EC31F04D0E0027010EB3EC34F03E
:1021A00005E1D950040F23EC30F0EDD79DEC32F06F
:1021B000840EEE6E030EED6ECFEC34F09DEC32F03B
:1021C000640EEE6EED6ACFEC34F0025081EC2EF02E
:1021D0000D0EAFEC34F051EC33F09DEC32F00EEC20
:1021E00033F0CFEC34F006010051010B06E1005151
:1021F000020B03E10051040B04E0010E086E096AB2
:1022000002D0032A93D7022A8DD798EC33F008EB3B
:10221000F3FF09EBF4FF49E9E7CFD9FF120029ECFE
:102220000BF000017C51070A1AE0010A13E0030ACF
:102230000FE0060A0DE0010A0BE0060A05E0050AB8
:1022400007E0010A0EE104D0030EE66EC2DE05D0FF
:10225000020E01D0040EE66E4FDF41E9120043EF9B
:1022600011F0DAEF12F045DD0601D46FD40EE66E00
:10227000060EE66EA6DC42E9D4C6E6FFB8EC0AF02C
:1022800041E9C3EF0FF000019E5120E103EC34F06F
:10229000C90EE66E940EE66E000E6DEC34F09AEC0C
:1022A00034F0C8EC30F0B30EE66E940EE66E000E1D
:1022B0006DEC34F0A9EC34F019EC32F09D0EE66EC2
:1022C000940EE66E000E6DEC34F007D057EC35F04E
:1022D0007FEC2FF061EC32F045E9B4EF2FF0000114
:1022E0009E511AE1ADEC2FF0B9EC30F05E0EE66EC7
:1022F000940EE66E000E1EEC34F09AEC34F03D0EB7
:10230000E66E940EE66E000ED3EC34F0200EE66E10
:10231000940EE66E000E1DD0ACEC34F00CE0C1EC77
:102320002EF0F6EC34F0F90EE66E930EE66E000E2B
:1023300089EC2EF04DE9D7EC32F0DF0EE66E930E0D
:10234000E66E000ED3EC34F0DF0EE66E930EE66E12
:10235000000E08EF34F000019E5134E1ADEC2FF097
:10236000B9EC30F0B60EE66E930EE66E000E1EEC83
:1023700034F04CEC2FF074C5E6FF75C5E6FF72C56E
:10238000E6FF73C5E6FFC8EC30F08D0EE66E930EE7
:10239000E66E000E1EEC34F003EC30F0B0C5E6FF44
:1023A000B1C5E6FFAEC5E6FFAFC5E6FF19EC32F0FA
:1023B000640EE66E930EE66E000E89EC2EF0BAEC1B
:1023C00031F011D0ACEC34F002E069EC32F09EEC6C
:1023D00034F002E071EC32F078EC34F002E095EC8D
:1023E00032F009EC33F043E9120000019E5132E172
:1023F000ADEC2FF039EC30F0C60EE66E920EE66EC4
:10240000000E1EEC34F09AEC34F0C8EC30F0AE0E56
:10241000E66E920EE66E000E6DEC34F003EC30F0DA
:10242000C7EC34F0B0C5E6FFB1C5E6FFDDEC32F035
:10243000AEC5E6FFAFC5E6FFA8EC61F019EC32F0DF
:10244000850EE66E920EE66E000E89EC2EF0BAEC6A
:1024500031F011D0ACEC34F002E069EC32F09EECDB
:1024600034F002E071EC32F078EC34F002E095ECFC
:1024700032F009EC33F043E9120000019E5117E1FC
:10248000F0EC33F04CEC2FF0C7EC34F074C5E6FF01
:1024900075C5E6FFDDEC32F072C5E6FF73C5E6FFF9
:1024A000A8EC61F0C8EC30F04EEC35F009D057ECF8
:1024B00035F0F8EC31F002E071EC32F0FBEC34F086
:1024C00008EF34F000019E5109E1F0EC33F04CECE0
:1024D0002FF039EC30F04EEC35F00BD044EC35F009
:1024E0009AEC34F0ACEC34F002E069EC32F0FBEC46
:1024F00034F008EF34F000019E5149E114C5E6FFC5
:1025000015C5E6FF10C4E6FF11C4E6FF12C4E6FFDE
:1025100013C4E6FF29C4E6FF2AC4E6FF2BC4E6FF86
:102520002CC4E6FF03EC34F0250EE66E920EE66E48
:10253000000E89EC2EF051E99AEC34F005010151BE
:102540001DE00251E66EE66AFE0EE66E910EE66E44
:10255000000E6DEC34F0A9EC34F031C4E6FF32C467
:10256000E6FF33C4E6FF34C4E6FFDD0EE66E910EEF
:10257000E66E000E89EC2EF049E906D068EC30F0EA
:10258000D3EC34F0F0EC33F0A2EC34F011D0ACEC3E
:1025900034F002E035EC33F09EEC34F002E0CCECA9
:1025A00032F078EC34F002E03EEC33F009EC33F03A
:1025B00043E9120000019E511AE1520EE66E910E9F
:1025C000E66E000E47EC35F09AEC34F03C0EE66E09
:1025D000910EE66E000ED3EC34F0260EE66E910EF0
:1025E000E66E000E47EC35F0A2EC34F011D0ACEC06
:1025F00034F002E069EC32F09EEC34F002E071EC71
:1026000032F078EC34F002E095EC32F009EC33F083
:1026100043E912000F0EE66E910EE66E000E47ECD7
:1026200035F09AEC34F0F80EE66E900EE66E000E81
:10263000D3EC34F0E10EE66E900EE66E000E08EF7D
:1026400034F000019E5149E144EC35F0640E05017F
:10265000D89089BF03D0885D000E89590AE233EC17
:1026600030F0C20EE66E900EE66E000E89EC2EF093
:1026700047E99AEC34F08DB20AD033EC30F0C8EC74
:1026800030F0A30EE66E900EE66E000E09D02DEC33
:1026900030F0C8EC30F0840EE66E900EE66E000E60
:1026A00089EC2EF049E9A9EC34F044EC35F0640EE5
:1026B0000501D89011BF03D0105D000E11590AE238
:1026C0002DEC30F0660EE66E900EE66E000E89EC94
:1026D0002EF047E9A2EC34F011D0ACEC34F002E07B
:1026E00035EC33F09EEC34F002E0CCEC32F078ECD8
:1026F00034F002E03EEC33F009EC33F043E9120031
:1027000042EC2FF082E942E8026A036A030ED89095
:1027100003BE03D0025C000E03581DE20050E66EBB
:1027200002EBE9FF03EBEAFF3C0EEA02F3CFEAFF1C
:10273000E902F3CFE9FFF450EA26000EE926050E80
:10274000EA2278EC31F0E552E750EE6EED6A022AAB
:10275000000E0322DBD743E9E7CFD9FF1200D8C030
:10276000D6F40001D86BC4EC34F0A5EC30F002E0F4
:1027700064EC0BF014EC32F0F6E380EC6AF0D6C4B3
:10278000D8F0010E82EF2FF0D9CFE6FFE1CFD9FFCD
:1027900081E951E8E80E056E030E066E076A086AC5
:1027A000096A0A6A0B6A0C6A580E0D6E106A116A81
:1027B0000001816B11EC36F011EC36F0060100954A
:1027C00000019E6B7CC0E6FF37EC6BF041E9000135
:1027D000855107E08B9200017B6B0001806B67EFF6
:1027E0002AF0420EE66E900EE66E000EE66E12ECD9
:1027F00071F043E9020E00017C5D06E1D00E056E2A
:10280000070E066E076A086A0001010E7B6F05015C
:10281000080503E10001010E806F80EC6AF0010EF3
:10282000E66EE66AE66AE66A50EC01F044E9000109
:102830007C5118E1020EE66EE66AE66AE66A05EB8E
:10284000E6FF06EBE6FF07EBE6FF08EBE6FFC1EC71
:1028500063F0E552E550086EE550076EE550066EF0
:10286000E750056E030E00017C5D18E1020EE66E76
:10287000E66AE66AE66A05EBE6FF06EBE6FF07EBCB
:10288000E6FF08EBE6FFC1EC63F0E552E550086EA9
:10289000E550076EE550066EE750056EE66A30DFDC
:1028A00041E983EC6AF0010EE66E05EBE6FF06EB0C
:1028B000E6FF07EBE6FF08EBE6FF4FEC02F045E929
:1028C000016A026A036A046A0001865102E051EF5C
:1028D0001DF0060E00017C5D01E0C7D30E6A0F6A91
:1028E0000F3404E20E500108000E0F5401E29DD295
:1028F000640E056E066A076A086A010EE66E05EB4D
:10290000E6FF06EBE6FF07EBE6FF08EBE6FF4FEC22
:1029100002F045E983EC6AF0016A026A036A046A1C
:1029200080C0E6FF86EC6AF041E9D00EE66E070E45
:10293000E66EE66AE66A01EBE6FF02EBE6FF03EB12
:10294000E6FF04EBE6FF51EC62F0E552E5CF03F061
:10295000E5CF02F0E5CF01F0E7CF00F00001005134
:1029600001110211031101E0D8D0060100A52BD0FE
:1029700080EC6AF0010EE66EC3DE41E966EC5FF0C2
:10298000060EE66EE66AE66AE66A50EC01F044E995
:102990008B920001010E7B6F0001806B80C0E6FF0F
:1029A00086EC6AF041E97CC0E6FF37EC6BF041E968
:1029B000140EE66E900EE66E000EE66E12EC71F0EE
:1029C00043E967EF2AF06BEC2AF00EEBE6FF0FEB22
:1029D000E6FFF80EE66E8F0EE66E000EE66E000E57
:1029E000E66E020EE66E74EC70F047E9010EE66EDC
:1029F000E66A9CC0E6FFB1EC00F043E90A0EE66E21
:102A0000E66A88C5E6FF89C5E6FFA8EC61F0CD0E51
:102A1000E66E8F0EE66E000EE66E000EE66E020E9D
:102A2000E66E74EC70F047E9640E0501D89089BF3A
:102A300003D0885D000E895916E20A0EE66EE66A3A
:102A400088C5E6FF89C5E6FFA8EC61F0AE0EE66E2C
:102A50008F0EE66E000EE66E000EE66E020EE66E5D
:102A600074EC70F047E9010EE66E010EE66EE66A60
:102A7000B1EC00F043E9860EE66E8F0EE66E000EB6
:102A8000E66E000EE66E020EE66E74EC70F045E93E
:102A9000010EE66E020EE66EE66AB1EC00F043E966
:102AA0000A0EE66EE66A10C5E6FF11C5E6FFA8EC61
:102AB00061F0590EE66E8F0EE66E000EE66E000EA9
:102AC000E66E020EE66E74EC70F047E9640E0501E6
:102AD000D89011BF03D0105D000E115916E20A0EF6
:102AE000E66EE66A10C5E6FF11C5E6FFA8EC61F0E8
:102AF000660EE66E900EE66E000EE66E000EE66E58
:102B0000020EE66E74EC70F047E9010EE66E030EFD
:102B1000E66EE66AB1EC00F043E9D950010FE96EC8
:102B2000DACFEAFFEE2A000EEE22EE22EE22E66A6D
:102B300005EBE6FF06EBE6FF07EBE6FF08EBE6FF3B
:102B40004FEC02F045E9000901E1EAD6640E050107
:102B5000D89089BF03D0885D000E89590CE2050129
:102B6000113504E210519008010E115504E2010ED6
:102B70000501666F676B640E0501D89011BF03D025
:102B8000105D000E115903E20501646B656B010EC7
:102B9000E66E05EBE6FF06EBE6FF07EBE6FF08EB6C
:102BA000E6FF4FEC02F045E980EC6AF0016A026A48
:102BB000036A046A80C0E6FF86EC6AF041E9D00E41
:102BC000E66E070EE66EE66AE66A01EBE6FF02EBEA
:102BD000E6FF03EBE6FF04EBE6FF51EC62F0E552A3
:102BE000E5CF03F0E5CF02F0E5CF01F0E7CF00F04D
:102BF0000001005101110211031101E0D8D00601BA
:102C000000A52BD080EC6AF0010EE66E79DD41E97B
:102C100066EC5FF0060EE66EE66AE66AE66A50EC7F
:102C200001F044E98B920001010E7B6F0001806B83
:102C300080C0E6FF86EC6AF041E97CC0E6FF37EC35
:102C40006BF041E9140EE66E900EE66E000EE66E35
:102C500012EC71F043E967EF2AF06BEC2AF00EEB0F
:102C6000E6FF0FEBE6FF3E0EE66E8F0EE66E000E01
:102C7000E66E000EE66E020EE66E74EC70F047E94A
:102C8000010EE66EE66A9CC0E6FFB1EC00F043E997
:102C90000A0EE66EE66A88C5E6FF89C5E6FFA8EC7F
:102CA00061F0CD0EE66E8F0EE66E000EE66E000E43
:102CB000E66E020EE66E74EC70F047E9640E0501F4
:102CC000D89089BF03D0885D000E895916E20A0E9C
:102CD000E66EE66A88C5E6FF89C5E6FFA8EC61F006
:102CE000AE0EE66E8F0EE66E000EE66E000EE66E1F
:102CF000020EE66E74EC70F047E9010EE66E010E0E
:102D0000E66EE66AB1EC00F043E9130EE66E8F0E54
:102D1000E66E000EE66E000EE66E020EE66E74ECD7
:102D200070F045E9010EE66E020EE66EE66AB1EC61
:102D300000F043E90A0EE66EE66A10C5E6FF11C52B
:102D4000E6FFA8EC61F0590EE66E8F0EE66E000EFF
:102D5000E66E000EE66E020EE66E74EC70F047E969
:102D6000640E0501D89011BF03D0105D000E1159FB
:102D700016E20A0EE66EE66A10C5E6FF11C5E6FF2A
:102D8000A8EC61F0660EE66E900EE66E000EE66E42
:102D9000000EE66E020EE66E74EC70F047E9010E6E
:102DA000E66E030EE66EE66AB1EC00F043E9D95038
:102DB000010FE96EDACFEAFFEE2A000EEE22EE22D4
:102DC000EE22E66A05EBE6FF06EBE6FF07EBE6FF21
:102DD00008EBE6FF4FEC02F045E9000901E1EAD615
:102DE000640E0501D89011BF03D0105D000E11597B
:102DF0000CE20501893504E288519008010E8955DD
:102E000004E2010E0501646F656B640E0501D89044
:102E100089BF03D0885D000E895903E20501666B06
:102E2000676B0E2A000E0F225BD58B9200017B6B25
:102E30000001806B05016451651105E005016651D3
:102E4000671101E007D10501425101E103D10601FB
:102E50000095590E0D6E0DEB00F00001016B00BFE7
:102E6000016900C0E6FF01C0E6FFF30EE66E8E0EBC
:102E7000E66E000EE66E000EE66E020EE66E74EC76
:102E800070F047E9010EE66EE66A9CC0E6FFB1EC21
:102E900000F043E9000EE66E020EE66E8EEC71F075
:102EA00042E9BE0EE66E9C0EE66E000EE66E12EC79
:102EB00071F043E964C5E6FF65C5E6FF66C5E6FF58
:102EC00067C5E6FFDC0EE66E8E0EE66E000EE66E61
:102ED000000EE66E020EE66E74EC70F049E9010E2B
:102EE000E66E010EE66EE66AB1EC00F043E9000E14
:102EF000E66E020EE66E8EEC71F042E9BE0EE66EF4
:102F00009C0EE66E000EE66E12EC71F043E9C50E03
:102F1000E66E8E0EE66E000EE66E000EE66E020E99
:102F2000E66E74EC70F045E90501665167110DE13C
:102F3000A90EE66E8E0EE66E000EE66E000EE66ED2
:102F4000020EE66E74EC70F045E9010EE66E020EBC
:102F5000E66EE66AB1EC00F043E9000EE66E020EA2
:102F6000E66E8EEC71F042E9BE0EE66E9C0EE66EE9
:102F7000000EE66E12EC71F043E9C50EE66E8E0EA1
:102F8000E66E000EE66E000EE66E020EE66E74EC65
:102F900070F045E90501645165110DE18B0EE66E97
:102FA0008E0EE66E000EE66E000EE66E020EE66E09
:102FB00074EC70F045E9010EE66E030EE66EE66A0B
:102FC000B1EC00F043E9000EE66E020EE66E8EEC08
:102FD00071F042E9BE0EE66E9C0EE66E000EE66EE5
:102FE00012EC71F043E9010EE66E010EE66E9AEC0A
:102FF0006AF042E9020EE66E70EC5FF041E904000F
:10300000060100A5F7D7E66A010EE66E9AEC6AF0B3
:1030100042E980EC6AF0010EE66E80EC13F041E9C3
:1030200066EC5FF0060EE66EE66AE66AE66A50EC6B
:1030300001F044E98B920001010E7B6F0001806B6F
:1030400080C0E6FF86EC6AF041E97CC0E6FF37EC21
:103050006BF041E9650EE66E8E0EE66E000EE66ED2
:1030600012EC71F043E967EF2AF080EC6AF0060E8B
:10307000E66EE66AE66AE66A50EC01F044E976EC50
:103080006AF0010EE66EE66AE66AE66A50EC01F066
:1030900044E9106A116A83EC6AF0010EE66E05EBF2
:1030A000E6FF06EBE6FF07EBE6FF08EBE6FF4FEC7B
:1030B00002F045E974EC35F080C0E6FF86EC6AF07A
:1030C00041E9D00EE66E070EE66EE66AE66A01EBAF
:1030D000E6FF02EBE6FF03EBE6FF04EBE6FF51EC55
:1030E00062F0E552E5CF03F0E5CF02F0E5CF01F065
:1030F000E7CF00F00001005101110211031101E0BE
:1031000021D294EC35F0000901E1D2D0210EE96E14
:10311000060EEA6EEE500601155D0001046FEE50DA
:10312000060116590001056FEE50060117590001FE
:10313000066FEE50060118590001076F04C0E6FF44
:1031400005C0E6FF06C0E6FF07C0E6FFB8EC07F0E3
:1031500044E9FCC300F0FDC301F0FEC302F0FFC36D
:1031600003F000C0E6FF01C0E6FF02C0E6FF03C0B7
:10317000E6FF1D0EE96E060EEA6EEE500601115DC9
:1031800000010C6FEE500601125900010D6FEE5058
:103190000601135900010E6FEE500601145900018B
:1031A0000F6F0CC0E6FF0DC0E6FF0EC0E6FF0FC0BC
:1031B000E6FFB8EC07F044E9FCC308F0FDC309F0F2
:1031C000FEC30AF0FFC30BF008C0E6FF09C0E6FF2C
:1031D0000AC0E6FF0BC0E6FF190EE96E060EEA6EA6
:1031E000EE5006010D5D0001146FEE5006010E5900
:1031F0000001156FEE5006010F590001166FEE50D9
:10320000060110590001176F14C0E6FF15C0E6FF54
:1032100016C0E6FF17C0E6FFB8EC07F044E9FCC3B0
:1032200010F0FDC311F0FEC312F0FFC313F010C085
:10323000E6FF11C0E6FF12C0E6FF13C0E6FF480E2E
:10324000E66E8E0EE66E000EE66E000EE66E020E66
:10325000E66E74EC70F051E9000EE66E020EE66E5A
:103260008EEC71F042E906013D5120E006013E512D
:103270001DE006013F511AE000017C5103E0010E00
:10328000106E116A230EE66E8E0EE66E000EE66E6E
:10329000000EE66E020EE66E74EC70F045E9000E6C
:1032A000E66E020EE66E8EEC71F042E974EC35F0DB
:1032B000060100A52CD080EC6AF0010EE66E80ECD1
:1032C00013F041E966EC5FF0060EE66EE66AE66A28
:1032D000E66A50EC01F044E98B920001010E7B6F2D
:1032E0000001806B80C0E6FF86EC6AF041E97CC09B
:1032F000E6FF37EC6BF041E9140EE66E900EE66ED9
:10330000000EE66E12EC71F043E967EF2AF06BEC09
:103310002AF001EBE6FF02EBE6FF03EBE6FF04EB2E
:10332000E6FF0B0EE66E8E0EE66E000EE66E000EEB
:10333000E66E020EE66E74EC70F049E9010EE66E80
:10334000E66A9CC0E6FFB1EC00F043E9020E000122
:103350007C5D3CE0870EE66E940EE66E000EE66E37
:10336000000EE66E020EE66E74EC70F045E90501A3
:1033700006512BE031C6E6FF32C6E6FF33C6E6FF54
:1033800034C6E6FF0A0EE66EE66A26C5E6FF27C5E6
:10339000E6FFA8EC61F00A0EE66EE66A36C5E6FFC7
:1033A00037C5E6FFA8EC61F010C5E6FF11C5E6FFE2
:1033B000E30EE66E8D0EE66E000EE66E000EE66E15
:1033C000020EE66E74EC70F04FE92ED00501065146
:1033D0002BE031C6E6FF32C6E6FF33C6E6FF34C651
:1033E000E6FF0A0EE66EE66A26C5E6FF27C5E6FF9B
:1033F000A8EC61F00A0EE66EE66A36C5E6FF37C550
:10340000E6FFA8EC61F010C5E6FF11C5E6FFBB0EB4
:10341000E66E8D0EE66E000EE66E000EE66E020E95
:10342000E66E74EC70F04FE9010EE66E010EE66E8A
:10343000E66AB1EC00F043E9870EE66E940EE66EA4
:10344000000EE66E000EE66E020EE66E74EC70F094
:1034500045E9050142512BE035C6E6FF36C6E6FFD9
:1034600037C6E6FF38C6E6FF0A0EE66EE66A62C5B4
:10347000E6FF63C5E6FFA8EC61F00A0EE66EE66AB9
:1034800072C5E6FF73C5E6FFA8EC61F04CC5E6FF28
:103490004DC5E6FF930EE66E8D0EE66E000EE66EEF
:1034A000000EE66E020EE66E74EC70F04FE9010E4F
:1034B000E66E020EE66EE66AB1EC00F043E9870EB6
:1034C000E66E940EE66E000EE66E000EE66E020EDE
:1034D000E66E74EC70F045E905017E512BE039C6CB
:1034E000E6FF3AC6E6FF3BC6E6FF3CC6E6FF0A0E2D
:1034F000E66EE66A9EC5E6FF9FC5E6FFA8EC61F0B2
:103500000A0EE66EE66AAEC5E6FFAFC5E6FFA8ECBA
:1035100061F088C5E6FF89C5E6FF6B0EE66E8D0E8D
:10352000E66E000EE66E000EE66E020EE66E74ECBF
:1035300070F04FE9010EE66E030EE66EE66AB1EC3E
:1035400000F043E9D950010FE96EDACFEAFFEE2A25
:10355000000EEE22EE22EE22E66A05EBE6FF06EB17
:10356000E6FF07EBE6FF08EBE6FF4FEC02F045E96C
:10357000000904E11050111001E19ED580EC6AF0C1
:10358000060EE66EE66AE66AE66A50EC01F044E989
:103590007DEC6AF0010EE66EE66AE66AE66A50ECD9
:1035A00001F044E9106A116A00017C5101E177D20F
:1035B00083EC6AF0010EE66E05EBE6FF06EBE6FF34
:1035C00007EBE6FF08EBE6FF4FEC02F045E9016A86
:1035D000026A036A046A74EC35F080C0E6FF86EC88
:1035E0006AF041E9D00EE66E070EE66EE66AE66A1C
:1035F00001EBE6FF02EBE6FF03EBE6FF04EBE6FF81
:1036000051EC62F0E552E5CF03F0E5CF02F0E5CFF3
:1036100001F0E7CF00F00001005101110211031188
:1036200001E021D294EC35F0000901E1D2D0210E65
:10363000E96E060EEA6EEE500601155D0001046F9C
:10364000EE50060116590001056FEE50060117599C
:103650000001066FEE50060118590001076F04C003
:10366000E6FF05C0E6FF06C0E6FF07C0E6FFB8ECD0
:1036700007F044E9FCC300F0FDC301F0FEC302F013
:10368000FFC303F000C0E6FF01C0E6FF02C0E6FF93
:1036900003C0E6FF1D0EE96E060EEA6EEE5006014F
:1036A000115D00010C6FEE500601125900010D6F03
:1036B000EE500601135900010E6FEE500601145929
:1036C00000010F6F0CC0E6FF0DC0E6FF0EC0E6FF65
:1036D0000FC0E6FFB8EC07F044E9FCC308F0FDC3F7
:1036E00009F0FEC30AF0FFC30BF008C0E6FF09C0F3
:1036F000E6FF0AC0E6FF0BC0E6FF190EE96E060EF4
:10370000EA6EEE5006010D5D0001146FEE500601E9
:103710000E590001156FEE5006010F590001166F8A
:10372000EE50060110590001176F14C0E6FF15C0D6
:10373000E6FF16C0E6FF17C0E6FFB8EC07F044E965
:10374000FCC310F0FDC311F0FEC312F0FFC313F071
:1037500010C0E6FF11C0E6FF12C0E6FF13C0E6FF8F
:10376000480EE66E8E0EE66E000EE66E000EE66EFB
:10377000020EE66E74EC70F051E9000EE66E020E79
:10378000E66E8EEC71F042E906013D5120E0060143
:103790003E511DE006013F511AE000017C5103E05B
:1037A000010E106E116A230EE66E8E0EE66E000E8E
:1037B000E66E000EE66E020EE66E74EC70F045E901
:1037C000000EE66E020EE66E8EEC71F042E974ECCD
:1037D00035F0060100A52CD080EC6AF0010EE66EF3
:1037E00080EC13F041E966EC5FF0060EE66EE66AE7
:1037F000E66AE66A50EC01F044E98B920001010EA2
:103800007B6F0001806B80C0E6FF86EC6AF041E9C7
:103810007CC0E6FF37EC6BF041E9140EE66E900ECB
:10382000E66E000EE66E12EC71F043E967EF2AF0E7
:103830006BEC2AF001EBE6FF02EBE6FF03EBE6FFA1
:1038400004EBE6FF540EE66E8D0EE66E000EE66E9D
:10385000000EE66E020EE66E74EC70F049E9010EA1
:10386000E66EE66A9CC0E6FFB1EC00F043E9870E25
:10387000E66E940EE66E000EE66E000EE66E020E2A
:10388000E66E74EC70F045E9020E00017C5D2FE0FD
:10389000050106512BE031C6E6FF32C6E6FF33C60E
:1038A000E6FF34C6E6FF0A0EE66EE66A26C5E6FFC8
:1038B00027C5E6FFA8EC61F00A0EE66EE66A36C59B
:1038C000E6FF37C5E6FFA8EC61F010C5E6FF11C5BD
:1038D000E6FFE30EE66E8D0EE66E000EE66E000E5F
:1038E000E66E020EE66E74EC70F04FE92ED0050124
:1038F00006512BE031C6E6FF32C6E6FF33C6E6FFCF
:1039000034C6E6FF0A0EE66EE66A26C5E6FF27C560
:10391000E6FFA8EC61F00A0EE66EE66A36C5E6FF41
:1039200037C5E6FFA8EC61F010C5E6FF11C5E6FF5C
:10393000BB0EE66E8D0EE66E000EE66E000EE66EB7
:10394000020EE66E74EC70F04FE9010EE66E010EA9
:10395000E66EE66AB1EC00F043E9870EE66E940E7F
:10396000E66E000EE66E000EE66E020EE66E74EC7B
:1039700070F045E9050142512BE035C6E6FF36C639
:10398000E6FF37C6E6FF38C6E6FF0A0EE66EE66AD1
:1039900062C5E6FF63C5E6FFA8EC61F00A0EE66EBD
:1039A000E66A72C5E6FF73C5E6FFA8EC61F04CC598
:1039B000E6FF4DC5E6FF930EE66E8D0EE66E000E39
:1039C000E66E000EE66E020EE66E74EC70F04FE9E5
:1039D000010EE66E020EE66EE66AB1EC00F043E917
:1039E000870EE66E940EE66E000EE66E000EE66E34
:1039F000020EE66E74EC70F045E905017E512BE095
:103A000039C6E6FF3AC6E6FF3BC6E6FF3CC6E6FF20
:103A10000A0EE66EE66A9EC5E6FF9FC5E6FFA8ECC5
:103A200061F00A0EE66EE66AAEC5E6FFAFC5E6FFD8
:103A3000A8EC61F088C5E6FF89C5E6FF6B0EE66E6F
:103A40008D0EE66E000EE66E000EE66E020EE66E5F
:103A500074EC70F04FE9010EE66E030EE66EE66A56
:103A6000B1EC00F043E9D950010FE96EDACFEAFF7B
:103A7000EE2A000EEE22EE22EE22E66A05EBE6FFCB
:103A800006EBE6FF07EBE6FF08EBE6FF4FEC02F084
:103A900045E9000904E11050111001E19ED567EFDE
:103AA00021F00401296B2A6B2B6B2C6B040129512B
:103AB000096E2A510A6E2B510B6E2C510C6E83EC41
:103AC0006AF0140EE66EE66AE66AE66A50EC01F009
:103AD00044E9016A026A036A046ADE0E015C030EAD
:103AE0000258000E0358000E045801E3E3D001EB26
:103AF000E6FF02EBE6FF03EBE6FF04EBE6FF540E06
:103B0000E66E8D0EE66E000EE66E000EE66E020E9E
:103B1000E66E74EC70F049E9010EE66EE66A9CC050
:103B2000E6FFB1EC00F043E9870EE66E940EE66E18
:103B3000000EE66E000EE66E020EE66E74EC70F09D
:103B400045E90501065115E029C4E6FF2AC4E6FF50
:103B50002BC4E6FF2CC4E6FF320EE66E8D0EE66E39
:103B6000000EE66E000EE66E020EE66E74EC70F06D
:103B700049E9010EE66E010EE66EE66AB1EC00F070
:103B800043E9870EE66E940EE66E000EE66E000EBA
:103B9000E66E020EE66E74EC70F045E9010EE66E1C
:103BA000020EE66EE66AB1EC00F043E9010EE66E45
:103BB000030EE66EE66AB1EC00F043E9010EE66E34
:103BC000E66AE66AE66A50EC01F044E9190EE66E30
:103BD000E66AE66AE66A01EBE6FF02EBE6FF03EB64
:103BE000E6FF04EBE6FF51EC62F0E552E5CF03F0AF
:103BF000E5CF02F0E5CF01F0E7CF00F00001005182
:103C00000111021103111CE109500401291908E1F5
:103C10000A502A1905E10B502B1902E10C502C19FE
:103C200006E1E80E016E030E026E036A046A0401E7
:103C30002951096E2A510A6E2B510B6E2C510C6EB4
:103C4000060100A52CD080EC6AF0010EE66E80EC37
:103C500013F041E966EC5FF0060EE66EE66AE66A8E
:103C6000E66A50EC01F044E98B920001010E7B6F93
:103C70000001806B80C0E6FF86EC6AF041E97CC001
:103C8000E6FF37EC6BF041E9140EE66E900EE66E3F
:103C9000000EE66E12EC71F043E967EF2AF0D9509E
:103CA000010FE96EDACFEAFFEE2A000EEE22EE22D5
:103CB000EE2213D780EC6AF0060EE66EE66AE66A3C
:103CC000E66A50EC01F044E976EC6AF0010EE66E2B
:103CD000E66AE66AE66A50EC01F044E90401296B01
:103CE0002A6B2B6B2C6B04012951096E2A510A6E29
:103CF0002B510B6E2C510C6E83EC6AF0140EE66E99
:103D0000E66AE66AE66A50EC01F044E9016A026A92
:103D1000036A046ADE0E015C030E0258000E0358AB
:103D2000000E045801E3E3D001EBE6FF02EBE6FFEF
:103D300003EBE6FF04EBE6FF0B0EE66E8E0EE66E7F
:103D4000000EE66E000EE66E020EE66E74EC70F08B
:103D500049E9010EE66EE66A9CC0E6FFB1EC00F0B0
:103D600043E9870EE66E940EE66E000EE66E000ED8
:103D7000E66E020EE66E74EC70F045E90501065140
:103D800015E029C4E6FF2AC4E6FF2BC4E6FF2CC4D5
:103D9000E6FF320EE66E8D0EE66E000EE66E000E4B
:103DA000E66E020EE66E74EC70F049E9010EE66E06
:103DB000010EE66EE66AB1EC00F043E9870EE66EAE
:103DC000940EE66E000EE66E000EE66E020EE66ED5
:103DD00074EC70F045E9010EE66E020EE66EE66ADE
:103DE000B1EC00F043E9010EE66E030EE66EE66A02
:103DF000B1EC00F043E9010EE66EE66AE66AE66AB7
:103E000050EC01F044E9190EE66EE66AE66AE66AED
:103E100001EBE6FF02EBE6FF03EBE6FF04EBE6FF58
:103E200051EC62F0E552E5CF03F0E5CF02F0E5CFCB
:103E300001F0E7CF00F00001005101110211031160
:103E40001CE109500401291908E10A502A1905E169
:103E50000B502B1902E10C502C1906E1E80E016EF3
:103E6000030E026E036A046A04012951096E2A5185
:103E70000A6E2B510B6E2C510C6E060100A52CD036
:103E800080EC6AF0010EE66E80EC13F041E966EC1E
:103E90005FF0060EE66EE66AE66AE66A50EC01F04E
:103EA00044E98B920001010E7B6F0001806B80C0A2
:103EB000E6FF86EC6AF041E97CC0E6FF37EC6BF088
:103EC00041E9140EE66E900EE66E000EE66E12EC00
:103ED00071F043E967EF2AF0D950010FE96EDACFAC
:103EE000EAFFEE2A000EEE22EE22EE2213D729C4BC
:103EF00035F42AC436F42BC437F42CC438F480ECDF
:103F00006AF000017B6B0001806B0A0EE66ED70E33
:103F1000E66E230EE66E3C0EE66E35C4E6FF36C452
:103F2000E6FF37C4E6FF38C4E6FFE5EC60F012ECCC
:103F300064F04DEC61F0E552E5CF13F4E5CF12F4F7
:103F4000E5CF11F4E7CF10F464EC0BF0FA0EE66E57
:103F50007E0EE66E2A0EE66E3F0EE66E35C4E6FF76
:103F600036C4E6FF37C4E6FF38C4E6FFE5EC60F090
:103F700012EC64F04DEC61F0E552E5CF13F4E5CFBF
:103F800012F4E5CF11F4E7CF10F4290EE96E040E18
:103F9000EA6EEE500401105D0001006FEE50040166
:103FA00011590001016FEE50040112590001026F16
:103FB000EE50040113590001036F0001D8513C0D6C
:103FC000F3CFE9FFF4CFEAFF000EE926050EEA225F
:103FD0000F0EE926000EEA22050EE926000EEA225F
:103FE00000C0EEFF01C0EDFF64EC0BF0FA0EE66ED0
:103FF0007E0EE66EAA0EE66E3E0EE66E35C4E6FF57
:1040000036C4E6FF37C4E6FF38C4E6FFE5EC60F0EF
:1040100012EC64F04DEC61F0E552E5CF13F4E5CF1E
:1040200012F4E5CF11F4E7CF10F4290EE96E040E77
:10403000EA6EEE500401105D0001006FEE500401C5
:1040400011590001016FEE50040112590001026F75
:10405000EE50040113590001036F0001D8513C0DCB
:10406000F3CFE9FFF4CFEAFF000EE926050EEA22BE
:104070000F0EE926000EEA22050EE926000EEA22BE
:1040800000C0EEFF01C0EDFF64EC0BF0660EE66EC3
:10409000660EE66E660EE66E3F0EE66E35C4E6FF11
:1040A00036C4E6FF37C4E6FF38C4E6FFE5EC60F04F
:1040B00012EC64F04DEC61F0E552E5CF13F4E5CF7E
:1040C00012F4E5CF11F4E7CF10F4290EE96E040ED7
:1040D000EA6EEE500401105D0001006FEE50040125
:1040E00011590001016FEE50040112590001026FD5
:1040F000EE50040113590001036F0001D8513C0D2B
:10410000F3CFE9FFF4CFEAFF000EE926050EEA221D
:104110000F0EE926000EEA22050EE926000EEA221D
:1041200000C0EEFF01C0EDFF64EC0BF0CD0EE66EBB
:10413000CC0EE66ECC0EE66E3D0EE66E35C4E6FFA6
:1041400036C4E6FF37C4E6FF38C4E6FFE5EC60F0AE
:1041500012EC64F04DEC61F0E552E5CF13F4E5CFDD
:1041600012F4E5CF11F4E7CF10F4290EE96E040E36
:10417000EA6EEE500401105D0001006FEE50040184
:1041800011590001016FEE50040112590001026F34
:10419000EE50040113590001036F0001D8513C0D8A
:1041A000F3CFE9FFF4CFEAFF000EE926050EEA227D
:1041B0000F0EE926000EEA22050EE926000EEA227D
:1041C00000C0EEFF01C0EDFF64EC0BF0E66AE66AAA
:1041D000E66A3F0EE66E35C4E6FF36C4E6FF37C436
:1041E000E6FF38C4E6FFE5EC60F012EC64F04DEC5D
:1041F00061F0E552E5CF13F4E5CF12F4E5CF11F409
:10420000E7CF10F4290EE96E040EEA6EEE500401B9
:10421000105D0001006FEE50040111590001016FA3
:10422000EE50040112590001026FEE5004011359BF
:104230000001036F0001D8513C0DF3CFE9FFF4CF2B
:10424000EAFF000EE926050EEA220F0EE926000E0F
:10425000EA22050EE926000EEA2200C0EEFF01C0A8
:10426000EDFF64EC0BF0016A026A036A046A030E54
:10427000015C000E0258000E0358000E045827E29D
:1042800001EBE9FF02EBEAFF3C0EEA02F3CFEAFFA3
:104290003C0EE902F3CFE9FFF450EA26000EE926CE
:1042A000050EEA220F0EE926000EEA221D0EE9266F
:1042B000000EEA22EE6AED6AD950010FE96EDACFFC
:1042C000EAFFEE2A000EEE22EE22EE22D0D7016A9D
:1042D000026A036A046A030E015C000E0258000EB3
:1042E0000358000E045802E328EF29F000017C5126
:1042F00001E000D101EBE9FF02EBEAFF3C0EEA022C
:10430000F3CFEAFF3C0EE902F3CFE9FFF450EA26CF
:10431000000EE926050EEA220F0EE926000EEA221B
:10432000090EE926000EEA22EECF00F0EFCF01F0F1
:1043300001EBE9FF02EBEAFF3C0EEA02F3CFEAFFF2
:104340003C0EE902F3CFE9FFF450EA26000EE9261D
:10435000050EEA220F0EE926000EEA220B0EE926D0
:10436000000EEA22EECF02F0EFCF03F0000101359C
:1043700001510001031908E6000100510001025D2E
:10438000000101510001035935E201EBE9FF02EBA5
:10439000EAFF3C0EEA02F3CFEAFF3C0EE902F3CF5C
:1043A000E9FFF450EA26000EE926050EEA22060E81
:1043B000E926000EEA22EF501DE001EBE9FF02EBD7
:1043C000EAFF3C0EEA02F3CFEAFF3C0EE902F3CF2C
:1043D000E9FFF450EA26000EE926050EEA220F0E48
:1043E000E926000EEA221D0EE926000EEA22010E41
:1043F000EE6EED6A01EBE9FF02EBEAFF3C0EEA022A
:10440000F3CFEAFF3C0EE902F3CFE9FFF450EA26CE
:10441000000EE926050EEA220F0EE926000EEA221A
:10442000170EE926000EEA22EECF00F0EFCF01F0E2
:1044300001EBE9FF02EBEAFF3C0EEA02F3CFEAFFF1
:104440003C0EE902F3CFE9FFF450EA26000EE9261C
:10445000050EEA220F0EE926000EEA220D0EE926CD
:10446000000EEA22EECF02F0EFCF03F00001033599
:1044700003510001011908E6000102510001005D2D
:10448000000103510001015935E201EBE9FF02EBA4
:10449000EAFF3C0EEA02F3CFEAFF3C0EE902F3CF5B
:1044A000E9FFF450EA26000EE926050EEA22060E80
:1044B000E926000EEA22EF501DE001EBE9FF02EBD6
:1044C000EAFF3C0EEA02F3CFEAFF3C0EE902F3CF2B
:1044D000E9FFF450EA26000EE926050EEA220F0E47
:1044E000E926000EEA221D0EE926000EEA22010E40
:1044F000EE6EED6A030E00017C5D01E000D101EB80
:10450000E9FF02EBEAFF3C0EEA02F3CFEAFF3C0EC2
:10451000E902F3CFE9FFF450EA26000EE926050E82
:10452000EA220F0EE926000EEA22090EE926000E05
:10453000EA22EECF00F0EFCF01F001EBE9FF02EB52
:10454000EAFF3C0EEA02F3CFEAFF3C0EE902F3CFAA
:10455000E9FFF450EA26000EE926050EEA220F0EC6
:10456000E926000EEA220B0EE926000EEA22EECF23
:1045700002F0EFCF03F000010135015100010319F2
:1045800008E6000100510001025D00010151000137
:10459000035935E201EBE9FF02EBEAFF3C0EEA02C8
:1045A000F3CFEAFF3C0EE902F3CFE9FFF450EA262D
:1045B000000EE926050EEA22060EE926000EEA2282
:1045C000EF501DE001EBE9FF02EBEAFF3C0EEA02CF
:1045D000F3CFEAFF3C0EE902F3CFE9FFF450EA26FD
:1045E000000EE926050EEA220F0EE926000EEA2249
:1045F0001D0EE926000EEA22010EEE6EED6A01EBB9
:10460000E9FF02EBEAFF3C0EEA02F3CFEAFF3C0EC1
:10461000E902F3CFE9FFF450EA26000EE926050E81
:10462000EA220F0EE926000EEA22170EE926000EF6
:10463000EA22EECF00F0EFCF01F001EBE9FF02EB51
:10464000EAFF3C0EEA02F3CFEAFF3C0EE902F3CFA9
:10465000E9FFF450EA26000EE926050EEA220F0EC5
:10466000E926000EEA220D0EE926000EEA22EECF20
:1046700002F0EFCF03F000010335035100010119EF
:1046800008E6000102510001005D00010351000134
:10469000015935E201EBE9FF02EBEAFF3C0EEA02C9
:1046A000F3CFEAFF3C0EE902F3CFE9FFF450EA262C
:1046B000000EE926050EEA22060EE926000EEA2281
:1046C000EF501DE001EBE9FF02EBEAFF3C0EEA02CE
:1046D000F3CFEAFF3C0EE902F3CFE9FFF450EA26FC
:1046E000000EE926050EEA220F0EE926000EEA2248
:1046F0001D0EE926000EEA22010EEE6EED6A050E91
:1047000000017C5D01E000D101EBE9FF02EBEAFF73
:104710003C0EEA02F3CFEAFF3C0EE902F3CFE9FFD9
:10472000F450EA26000EE926050EEA220F0EE926CD
:10473000000EEA22090EE926000EEA22EECF00F072
:10474000EFCF01F001EBE9FF02EBEAFF3C0EEA02DA
:10475000F3CFEAFF3C0EE902F3CFE9FFF450EA267B
:10476000000EE926050EEA220F0EE926000EEA22C7
:104770000B0EE926000EEA22EECF02F0EFCF03F097
:104780000001013501510001031908E60001005143
:104790000001025D000101510001035935E201EB06
:1047A000E9FF02EBEAFF3C0EEA02F3CFEAFF3C0E20
:1047B000E902F3CFE9FFF450EA26000EE926050EE0
:1047C000EA22060EE926000EEA22EF501DE001EB78
:1047D000E9FF02EBEAFF3C0EEA02F3CFEAFF3C0EF0
:1047E000E902F3CFE9FFF450EA26000EE926050EB0
:1047F000EA220F0EE926000EEA221D0EE926000E1F
:10480000EA22010EEE6EED6A01EBE9FF02EBEAFF30
:104810003C0EEA02F3CFEAFF3C0EE902F3CFE9FFD8
:10482000F450EA26000EE926050EEA220F0EE926CC
:10483000000EEA22170EE926000EEA22EECF00F063
:10484000EFCF01F001EBE9FF02EBEAFF3C0EEA02D9
:10485000F3CFEAFF3C0EE902F3CFE9FFF450EA267A
:10486000000EE926050EEA220F0EE926000EEA22C6
:104870000D0EE926000EEA22EECF02F0EFCF03F094
:104880000001033503510001011908E6000102513E
:104890000001005D000103510001015935E201EB07
:1048A000E9FF02EBEAFF3C0EEA02F3CFEAFF3C0E1F
:1048B000E902F3CFE9FFF450EA26000EE926050EDF
:1048C000EA22060EE926000EEA22EF501DE001EB77
:1048D000E9FF02EBEAFF3C0EEA02F3CFEAFF3C0EEF
:1048E000E902F3CFE9FFF450EA26000EE926050EAF
:1048F000EA220F0EE926000EEA221D0EE926000E1E
:10490000EA22010EEE6EED6A00017C0501E000D1A5
:1049100001EBE9FF02EBEAFF3C0EEA02F3CFEAFF0C
:104920003C0EE902F3CFE9FFF450EA26000EE92637
:10493000050EEA220F0EE926000EEA22090EE926EC
:10494000000EEA22EECF00F0EFCF01F001EBE9FF1D
:1049500002EBEAFF3C0EEA02F3CFEAFF3C0EE9026B
:10496000F3CFE9FFF450EA26000EE926050EEA220D
:104970000F0EE926000EEA220B0EE926000EEA22AF
:10498000EECF02F0EFCF03F000010135015100013D
:10499000031908E6000100510001025D0001015108
:1049A0000001035935E201EBE9FF02EBEAFF3C0E9F
:1049B000EA02F3CFEAFF3C0EE902F3CFE9FFF4503D
:1049C000EA26000EE926050EEA22060EE926000E6A
:1049D000EA22EF501DE001EBE9FF02EBEAFF3C0E9B
:1049E000EA02F3CFEAFF3C0EE902F3CFE9FFF4500D
:1049F000EA26000EE926050EEA220F0EE926000E31
:104A0000EA221D0EE926000EEA22010EEE6EED6A84
:104A100001EBE9FF02EBEAFF3C0EEA02F3CFEAFF0B
:104A20003C0EE902F3CFE9FFF450EA26000EE92636
:104A3000050EEA220F0EE926000EEA22170EE926DD
:104A4000000EEA22EECF00F0EFCF01F001EBE9FF1C
:104A500002EBEAFF3C0EEA02F3CFEAFF3C0EE9026A
:104A6000F3CFE9FFF450EA26000EE926050EEA220C
:104A70000F0EE926000EEA220D0EE926000EEA22AC
:104A8000EECF02F0EFCF03F0000103350351000138
:104A9000011908E6000102510001005D0001035107
:104AA0000001015935E201EBE9FF02EBEAFF3C0EA0
:104AB000EA02F3CFEAFF3C0EE902F3CFE9FFF4503C
:104AC000EA26000EE926050EEA22060EE926000E69
:104AD000EA22EF501DE001EBE9FF02EBEAFF3C0E9A
:104AE000EA02F3CFEAFF3C0EE902F3CFE9FFF4500C
:104AF000EA26000EE926050EEA220F0EE926000E30
:104B0000EA221D0EE926000EEA22010EEE6EED6A83
:104B100001EBE9FF02EBEAFF3C0EEA02F3CFEAFF0A
:104B20003C0EE902F3CFE9FFF450EA26000EE92635
:104B3000050EEA220F0EE926000EEA221D0EE926D6
:104B4000000EEA22EE50ED1001E0BFD101EBE9FFCB
:104B500002EBEAFF3C0EEA02F3CFEAFF3C0EE90269
:104B6000F3CFE9FFF450EA26000EE926050EEA220B
:104B70000F0EE926000EEA22190EE926000EEA229F
:104B8000010EEE6EED6A01EBE9FF02EBEAFF3C0E6F
:104B9000EA02F3CFEAFF3C0EE902F3CFE9FFF4505B
:104BA000EA26000EE926050EEA220F0EE926000E7F
:104BB000EA221B0EE926000EEA22010EEE6EED6AD5
:104BC00001EBE9FF02EBEAFF3C0EEA02F3CFEAFF5A
:104BD0003C0EE902F3CFE9FFF450EA26000EE92685
:104BE000050EEA220D0EE926000EEA22EECF00F0B5
:104BF000EFCF01F001EBE9FF02EBEAFF3C0EEA0226
:104C0000F3CFEAFF3C0EE902F3CFE9FFF450EA26C6
:104C1000000EE926050EEA220F0EE926000EEA2212
:104C2000290EE926000EEA2200C0EEFF01C0EDFFCA
:104C300001EBE9FF02EBEAFF3C0EEA02F3CFEAFFE9
:104C40003C0EE902F3CFE9FFF450EA26000EE92614
:104C5000050EEA22060EE926000EEA22EF5001E1D7
:104C600033D1020E00017C5D04E0580E01240D6E6C
:104C700002D0410E0D6E0DEB00F00001016B00BF84
:104C8000016900C0E6FF01C0E6FF060EE66E8D0E6C
:104C9000E66E000EE66E000EE66E020EE66E74EC38
:104CA00070F047E9000EE66E020EE66E8EEC71F0D3
:104CB00042E901EBE9FF02EBEAFF3C0EEA02F3CF27
:104CC000EAFF3C0EE902F3CFE9FFF450EA26000EBA
:104CD000E926050EEA220F0EE926000EEA220B0E47
:104CE000E926000EEA22EECFE6FFEECFE6FF01EB6B
:104CF000E9FF02EBEAFF3C0EEA02F3CFEAFF3C0ECB
:104D0000E902F3CFE9FFF450EA26000EE926050E8A
:104D1000EA220F0EE926000EEA22090EE926000E0D
:104D2000EA22EECFE6FFEECFE6FFF00EE66E8C0E47
:104D3000E66E000EE66E000EE66E020EE66E74EC97
:104D400070F049E9000EE66E020EE66E8EEC71F030
:104D500042E9BE0EE66E9C0EE66E000EE66E12ECAA
:104D600071F043E901EBE9FF02EBEAFF3C0EEA02D6
:104D7000F3CFEAFF3C0EE902F3CFE9FFF450EA2655
:104D8000000EE926050EEA220F0EE926000EEA22A1
:104D90000D0EE926000EEA22EECFE6FFEECFE6FF8B
:104DA00001EBE9FF02EBEAFF3C0EEA02F3CFEAFF78
:104DB0003C0EE902F3CFE9FFF450EA26000EE926A3
:104DC000050EEA220F0EE926000EEA22170EE9264A
:104DD000000EEA22EECFE6FFEECFE6FFDA0EE66E39
:104DE0008C0EE66E000EE66E000EE66E020EE66EAD
:104DF00074EC70F049E9000EE66E020EE66E8EEC81
:104E000071F042E9BE0EE66E9C0EE66E000EE66E96
:104E100012EC71F043E901EBE9FF02EBEAFF3C0E13
:104E2000EA02F3CFEAFF3C0EE902F3CFE9FFF450C8
:104E3000EA26000EE926050EEA220F0EE926000EEC
:104E4000EA220F0EE926000EEA22EECFE6FFEECFB1
:104E5000E6FF01EBE9FF02EBEAFF3C0EEA02F3CFCB
:104E6000EAFF3C0EE902F3CFE9FFF450EA26000E18
:104E7000E926050EEA220F0EE926000EEA22150E9B
:104E8000E926000EEA22EECFE6FFEECFE6FFC60EE1
:104E9000E66E8C0EE66E000EE66E000EE66E020EFC
:104EA000E66E74EC70F049E9000EE66E020EE66EF6
:104EB0008EEC71F042E9BE0EE66E9C0EE66E000EC0
:104EC000E66E12EC71F043E9B7D101EBE9FF02EBBA
:104ED000EAFF3C0EEA02F3CFEAFF3C0EE902F3CF11
:104EE000E9FFF450EA26000EE926050EEA22060E36
:104EF000E926000EEA22EF5001E19ED1060100955D
:104F0000020E00017C5D04E0580E01240D6E02D0FB
:104F1000410E0D6E0DEB00F00001016B00BF016949
:104F200000C0E6FF01C0E6FFB00EE66E8C0EE66E36
:104F3000000EE66E000EE66E020EE66E74EC70F089
:104F400047E9010EE66EE66A9CC0E6FFB1EC00F0B0
:104F500043E9000EE66E020EE66E8EEC71F042E959
:104F6000BE0EE66E9C0EE66E000EE66E12EC71F062
:104F700043E901EBE9FF02EBEAFF3C0EEA02F3CF63
:104F8000EAFF3C0EE902F3CFE9FFF450EA26000EF7
:104F9000E926050EEA220F0EE926000EEA220B0E84
:104FA000E926000EEA22EECFE6FFEECFE6FF01EBA8
:104FB000E9FF02EBEAFF3C0EEA02F3CFEAFF3C0E08
:104FC000E902F3CFE9FFF450EA26000EE926050EC8
:104FD000EA220F0EE926000EEA22090EE926000E4B
:104FE000EA22EECFE6FFEECFE6FF9A0EE66E8C0EDB
:104FF000E66E000EE66E000EE66E020EE66E74ECD5
:1050000070F049E9010EE66E010EE66EE66AB1EC5B
:1050100000F043E9000EE66E020EE66E8EEC71F0D3
:1050200042E9BE0EE66E9C0EE66E000EE66E12ECD7
:1050300071F043E901EBE9FF02EBEAFF3C0EEA0203
:10504000F3CFEAFF3C0EE902F3CFE9FFF450EA2682
:10505000000EE926050EEA220F0EE926000EEA22CE
:105060000D0EE926000EEA22EECFE6FFEECFE6FFB8
:1050700001EBE9FF02EBEAFF3C0EEA02F3CFEAFFA5
:105080003C0EE902F3CFE9FFF450EA26000EE926D0
:10509000050EEA220F0EE926000EEA22170EE92677
:1050A000000EEA22EECFE6FFEECFE6FF840EE66EBC
:1050B0008C0EE66E000EE66E000EE66E020EE66EDA
:1050C00074EC70F049E9010EE66E020EE66EE66AD7
:1050D000B1EC00F043E9000EE66E020EE66E8EECD7
:1050E00071F042E9BE0EE66E9C0EE66E000EE66EB4
:1050F00012EC71F043E901EBE9FF02EBEAFF3C0E31
:10510000EA02F3CFEAFF3C0EE902F3CFE9FFF450E5
:10511000EA26000EE926050EEA220F0EE926000E09
:10512000EA220F0EE926000EEA22EECFE6FFEECFCE
:10513000E6FF01EBE9FF02EBEAFF3C0EEA02F3CFE8
:10514000EAFF3C0EE902F3CFE9FFF450EA26000E35
:10515000E926050EEA220F0EE926000EEA22150EB8
:10516000E926000EEA22EECFE6FFEECFE6FFC60EFE
:10517000E66E8C0EE66E000EE66E000EE66E020E19
:10518000E66E74EC70F049E9010EE66E030EE66E11
:10519000E66AB1EC00F043E9000EE66E020EE66E40
:1051A0008EEC71F042E9BE0EE66E9C0EE66E000ECD
:1051B000E66E12EC71F043E9010EE66E010EE66E4A
:1051C0009AEC6AF042E9020E00017C5D04E0580EA0
:1051D00001240D6E02D0410E0D6E0DEB00F00001AA
:1051E000016B00BF016900C0E6FF01C0E6FF580E79
:1051F000E66E8C0EE66E000EE66E000EE66E020E99
:10520000E66E74EC70F047E9000EE66E020EE66E94
:105210008EEC71F042E9020EE66E70EC5FF041E94F
:105220000400060100A5F7D7E66A010EE66E9AECC7
:105230006AF042E966EC5FF0D950010FE96EDACF0F
:10524000EAFFEE2A000EEE22EE22EE226BEF21F0B4
:1052500080EC6AF0060EE66EE66AE66AE66A50ECF4
:1052600001F044E98B9200017B6B0001806B66ECDE
:105270005FF00001865101E01BD1016A026A036AF6
:10528000046A050EE66E70EC5FF041E9430EE66ECF
:105290008C0EE66E000EE66E000EE66E020EE66EF8
:1052A00074EC70F045E9010EE66EE66A9CC0E6FF1C
:1052B000B1EC00F043E9060100A57FD08F802E0EEF
:1052C000E66E8C0EE66E000EE66E000EE66E020EC8
:1052D000E66E74EC70F045E9010EE66EE66A9CC07D
:1052E000E6FFB1EC00F043E9060EE66EE66AE66A18
:1052F000E66A50EC01F044E966EC5FF0870EE66E7A
:10530000940EE66E000EE66E000EE66E020EE66E7F
:1053100074EC70F045E9010EE66EE66AE66AB1ECFF
:1053200000F043E9870EE66E940EE66E000EE66E20
:10533000000EE66E020EE66E74EC70F045E9010EAA
:10534000E66E010EE66EE66AB1EC00F043E9870E08
:10535000E66E940EE66E000EE66E000EE66E020E2F
:10536000E66E74EC70F045E9010EE66E020EE66E34
:10537000E66AB1EC00F043E9870EE66E940EE66E45
:10538000000EE66E000EE66E020EE66E74EC70F035
:1053900045E9010EE66E030EE66EE66AB1EC00F03A
:1053A00043E9020EE66E7CEC10F041E9A00E016EBE
:1053B000860E026E010E036E046A040006010601E9
:1053C0000051040B1DE1D950010FE96EDACFEAFF5D
:1053D000EFCF00F0EE2A000EEFCF01F0EE22EFCF7C
:1053E00002F0EE22EFCF03F0EF22E80E0001005DA5
:1053F000030E0159000E0259000E035901E246D76F
:10540000870EE66E940EE66E000EE66E000EE66EF9
:10541000020EE66E74EC70F045E9010EE66EE66A87
:10542000E66AB1EC00F043E9870EE66E940EE66E94
:10543000000EE66E000EE66E020EE66E74EC70F084
:1054400045E9010EE66E010EE66EE66AB1EC00F08B
:1054500043E9870EE66E940EE66E000EE66E000ED1
:10546000E66E020EE66E74EC70F045E9010EE66E33
:10547000020EE66EE66AB1EC00F043E9870EE66ED6
:10548000940EE66E000EE66E000EE66E020EE66EFE
:1054900074EC70F045E9010EE66E030EE66EE66A06
:1054A000B1EC00F043E966EC5FF0AFEC13F000D034
:1054B00000017B6B0001806B66EC5FF0650EE66EB1
:1054C0008E0EE66E000EE66E12EC71F043E952E9C4
:1054D000E7CFD9FF120011EC36F00001885150E0FF
:1054E000ECC4E6FFEDC4E6FFEAC4E6FFEBC4E6FF6A
:1054F000E8C4E6FFE9C4E6FFD5EC33F0B1EC33F0E5
:10550000C3EC33F0F90EE66E8B0EE66E000E89ECFE
:105510002EF0BDEC31F0DEEC33F0BAEC33F0CCEC35
:1055200033F0D60EE66E8B0EE66E000EF2DB51E91E
:1055300064EC32F090C5E6FF91C5E6FF8AC5E6FF50
:105540008BC5E6FF36EC35F054C5E6FF55C5E6FFE2
:105550004EC5E6FF4FC5E6FFA8EC30F018C5E6FFE4
:1055600019C5E6FF12C5E6FF13C5E6FFF6EC34F0F9
:10557000980EE66E8B0EE66E000ECBDBBDEC31F0C6
:1055800012000601C80EA76F1EEC30F0D1EC31F00E
:1055900027E02B0EE66EA8EC6FF041E9D1EC31F07C
:1055A000FDE11EEC30F02B0EE66EA8EC6FF041E949
:1055B000D1EC31F0FDE10C0EE66E19EC72F041E930
:1055C000D1EC31F0FDE1010EE66E19EC72F041E92B
:1055D0001EEC30F00001010EF26F0601180EA76FED
:1055E00012000001806B120EE66E220EE66E96EC43
:1055F0006EF042E9830EE66E8B0EE66E000EE66EEE
:10560000000EE66E020EE66E74EC70F045E9010ED7
:10561000E66EE66AE66AB1EC00F043E9010EE66E7A
:10562000010EE66EE66AB1EC00F043E9010EE66EAB
:10563000020EE66EE66AB1EC00F043E9010EE66E9A
:10564000030EE66EE66AB1EC00F043E9120EE66E78
:10565000220EE66E47EC6FF042E98F9092DF8B6886
:10566000FCAE15D0FC9EBE0EE66E9C0EE66E000EE5
:10567000E66E12EC71F043E9A4EC03F05E0EE66E08
:105680008B0EE66E000EE66E12EC71F043E9FCAC98
:1056900015D0FC9CBE0EE66E9C0EE66E000EE66E0D
:1056A00012EC71F043E9A4EC03F0340EE66E8B0EBD
:1056B000E66E000EE66E12EC71F043E900017351E4
:1056C00014E0BE0EE66E9C0EE66E000EE66E12EC68
:1056D00071F043E9A4EC03F00B0EE66E8B0EE66E60
:1056E000000EE66E12EC71F043E90001745114E013
:1056F000BE0EE66E9C0EE66E000EE66E12EC71F0CB
:1057000043E9A4EC03F0E20EE66E8A0EE66E000EAC
:10571000E66E12EC71F043E9140EE66EE66ACA0E0C
:10572000E66E8A0EE66E000EE66E000EE66E020E65
:10573000E66E62EC6EF047E9010EE66EE66AE66A36
:10574000B1EC00F043E9B90EE66E9C0EE66E000E79
:10575000E66E12EC71F043E9140EE66EE66A99C04B
:10576000E6FF9AC0E6FF9BC0E6FF000EE66E020E63
:10577000E66E62EC6EF047E9010EE66E010EE66E33
:10578000E66AB1EC00F043E9000EE66E020EE66E4A
:105790008EEC71F042E9B70EE66E9C0EE66E000EDE
:1057A000E66E12EC71F043E9140EE66EE66A96C0FE
:1057B000E6FF97C0E6FF98C0E6FF000EE66E020E19
:1057C000E66E62EC6EF047E9000EE66E020EE66EE3
:1057D0008EEC71F042E9010EE66E020EE66EE66AAC
:1057E000B1EC00F043E9140EE66EE66AA10EE66E37
:1057F0009C0EE66E000EE66E000EE66E020EE66E83
:1058000062EC6EF047E9000EE66E020EE66E8EEC7C
:1058100071F042E9BE0EE66E9C0EE66E000EE66E7C
:1058200012EC71F043E9010EE66E030EE66EE66AD5
:10583000B1EC00F043E9A4EC03F0AB0EE66E8A0E87
:10584000E66E000EE66E12EC71F043E983A20CD016
:105850000001010E886F930EE66E8A0EE66E000E52
:10586000E66E12EC71F043E983A039D0A4EC03F0AA
:105870007A0EE66E8A0EE66E000EE66E12EC71F09F
:1058800043E9000EE66EE66A000EE66EE66A010E79
:10589000E66EE66A72EC6DF046E9A4EC03F05D0E8C
:1058A000E66E8A0EE66E000EE66E12EC71F043E9CB
:1058B0000601D66B0F0E0601D65D11E2080EE66EEC
:1058C000E66A0601D651E66EE66A0F0EE66E7F0EB8
:1058D000E66E72EC6DF046E90601D62BEBD7A4EC30
:1058E00003F03D0EE66E8A0EE66E000EE66E12ECDA
:1058F00071F043E9000EE66EE66A000EE66EE66AB7
:10590000A4EC6DF044E959080CE1000EE66EE66A7D
:10591000020EE66EE66AA4EC6DF044E90601D56F6E
:1059200022D0A4EC03F01A0EE66E8A0EE66E000E8C
:10593000E66E12EC71F043E9000EE66EE66A000EC8
:10594000E66EE66A010EE66EE66A72EC6DF046E916
:10595000A4EC03F0FA0EE66E890EE66E000EE66E1B
:1059600012EC71F043E9A4EC03F0E10EE66E890E4F
:10597000E66E000EE66E12EC71F043E9080EE66E7C
:10598000E66A000EE66EE66AA4EC6DF044E959089A
:105990001FE10601D66B0F0E0601D65D18E2060167
:1059A000D651E66EE66A0A0EE66EE66AA4EC6DF083
:1059B00044E9E66E0601D651EA6AE10FE96E000E8F
:1059C000EA22E552E750EF6E0601D62BE4D734D039
:1059D000A4EC03F0C50EE66E890EE66E000EE66ED0
:1059E00012EC71F043E90601D66B0F0E0601D65D8D
:1059F00018E2080EE66EE66A0601D651E66EE66A21
:105A00000F0EE66E0601D651EA6AE10FE96E000E4E
:105A1000EA22EFCFE6FF72EC6DF046E90601D62BE5
:105A2000E4D7A4EC03F0AC0EE66E890EE66E000E31
:105A3000E66E12EC71F043E983A403D048EC0AF05F
:105A4000FFD746EC43F0A4EC03F0930EE66E890E0C
:105A5000E66E000EE66E12EC71F043E9050EE66E9E
:105A6000E66AE66AE66A50EC01F044E911EC36F0C9
:105A700083A00BD0A4EC03F07D0EE66E890EE66EDB
:105A8000000EE66E12EC71F043E9740EE66E030E42
:105A9000E66E05C6E6FF06C6E6FF07C6E6FF08C6D1
:105AA000E6FFE9EC07F046E97B0EE66E030EE66ED4
:105AB00009C6E6FF0AC6E6FF0BC6E6FF0CC6E6FF10
