:020000040000FA
:0600000082EF76F0120011
:020006001200E6
:0600080059EF5AF012004E
:02000E00C250DE
:08001000020B01E0010E1200D9
:06001800EDEF60F01200A4
:02001E000700D9
:100020007DED00002A000000010000006EEE0000DF
:10003000FB050000020000006AEE0000FB02000069
:1000400004000000D1ED00006000000099000000F5
:10005000BFED0000EA03000012000000BDED00004B
:10006000FD040000020000008AED0000C805000049
:040070003300000059
:0C00740013EC2EF083E941E80150050870
:1000800001E2016A005003E061EC2FF0EF6A01EB3E
:10009000CDF50001E90E036F9F0E046F000E056F92
:1000A000A1EC2FF0E5CF08F0DEEC30F0000153ECCE
:1000B00032F061EC2FF0EFCF09F00A6B0B6B0051BF
:1000C0000925F36E01510A21F46E02510B21F86EDD
:1000D000F4CFF7FFF3CFF6FF0800F550036E61ECA5
:1000E0002FF0EF2AEFCF00F0016B026BC7EC32F07C
:1000F00002C0E6FFE90E096F9F0E0A6F000E0B6F3C
:10010000A1EC2FF0E5CF0EF0E5CF0DF0E7CF0CF02E
:10011000000109510C25066F0A510D21076F0B5183
:100120000E21086F04EC34F0E66E6CEC70F043E9DD
:10013000E552E7CF02F0E552E7CF01F0E552E7CF15
:1001400000F0FCC303F0FDC304F0FEC305F00001A2
:100150000351005D045101590551025903E361EC5B
:100160002FF0EF6A035042E9E7CFD9FF120013ECFA
:100170002EF084E90001F6514FE0005021E00250DA
:1001800001240501CE6FECEC32F05C0EE66E9E0EA3
:10019000E66E000EE66E59EC2EF0BFEC70F047E90B
:1001A000ECEC32F0C6EC33F0050159EC2EF091EC9A
:1001B00070F046E905013EEC32F0140EE1EC2FF050
:1001C0000150030A0CE0010A08E0030A04E0010AF6
:1001D00009E1E66A08D0400E03D0140E01D0540E97
:1001E000E66E01D0E66A0EEC74F041E901500001C0
:1001F000A0250501CE6F00016A510EE0A5EC30F09C
:10020000FDE1050159EC2EF03DEC75F042E9A5EC5D
:1002100030F0FDE1010E90162AEF2EF000016E5134
:1002200004E0B4EC43F000016E6B725107E0726BB6
:10023000F85102E0000E01D0010EF86F755104E094
:1002400023EC11F00001756B685103E0A7DA00019F
:10025000686B715104E001EC07F00001716B6F51A4
:1002600003E0BDDA00016F6B1200D9CFE6FFE1CFEA
:10027000D9FF85E90401776B786B796B7A6B0401A0
:100280007751005C78510158795102587A510358DE
:1002900009E3000004000401772B000E7823792382
:1002A0007A23EDD741E9E7CFD9FF1200D9CFE6FF96
:1002B000E1CFD9FF85E9030EE66E4AEC6FF041E924
:1002C00091C67BF492C67CF493C67DF494C67EF40A
:1002D00096EC6FF0D9CFE9FFDACFEAFF04017B514A
:1002E000EE240401836F04017C51EE200401846F2D
:1002F00004017D51EE200401856F04017E51EE2042
:100300000401866F030EE66E4AEC6FF041E991C678
:100310007FF492C680F493C681F494C682F496EC7E
:100320006FF004007F0EE96E040EEA6E0401835143
:10033000EE5C8451EE588551EE588651EE58E2E35A
:1003400041E9E7CFD9FF120023EC32F019E04BEC82
:100350002EF091C687F492C688F493C689F494C6A9
:100360008AF48AEC2EF004018751EE248F6F8851B5
:10037000EE20906F8951EE20916F8A51EE20926F9E
:100380004BEC2EF091C68BF492C68CF493C68DF490
:1003900094C68EF496EC6FF08B0EE96E040EEA6E46
:1003A00004018F51EE5C9051EE589151EE589251EC
:1003B000EE5802E2000E01D0010E2AEF2EF023ECDF
:1003C00032F019E04BEC2EF091C693F492C694F4FF
:1003D00093C695F494C696F48AEC2EF004019351DA
:1003E000EE249B6F9451EE209C6F9551EE209D6FF3
:1003F0009651EE209E6F4BEC2EF091C697F492C66C
:1004000098F493C699F494C69AF496EC6FF0970E0C
:10041000E96E040EEA6E04019B51EE5C9C51EE58AD
:100420009D51EE589E51EE5802E2000E01D0010E91
:100430002AEF2EF023EC32F019E04BEC2EF091C6AF
:100440009FF492C6A0F493C6A1F494C6A2F48AECD9
:100450002EF004019F51EE24A76FA051EE20A86F4B
:10046000A151EE20A96FA251EE20AA6F4BEC2EF005
:1004700091C6A3F492C6A4F493C6A5F494C6A6F4B8
:1004800096EC6FF0A30EE96E040EEA6E0401A7511C
:10049000EE5CA851EE58A951EE58AA51EE5802E26E
:1004A000000E01D0010E2AEF2EF023EC32F019E0FD
:1004B0004BEC2EF091C6ABF492C6ACF493C6ADF4FF
:1004C00094C6AEF48AEC2EF00401AB51EE24B36F67
:1004D000AC51EE20B46FAD51EE20B56FAE51EE20B1
:1004E000B66F4BEC2EF091C6AFF492C6B0F493C643
:1004F000B1F494C6B2F496EC6FF0AF0EE96E040E50
:10050000EA6E0401B351EE5CB451EE58B551EE58A9
:10051000B651EE5802E2000E01D0010E2AEF2EF085
:1005200023EC32F019E04BEC2EF091C6B7F492C6F2
:10053000B8F493C6B9F494C6BAF48AEC2EF0040168
:10054000B751EE24BF6FB851EE20C06FB951EE2005
:10055000C16FBA51EE20C26F4BEC2EF091C6BBF4C6
:1005600092C6BCF493C6BDF494C6BEF496EC6FF08C
:10057000BB0EE96E040EEA6E0401BF51EE5CC05181
:10058000EE58C151EE58C251EE5802E2000E01D0B1
:10059000010E2AEF2EF023EC32F019E04BEC2EF096
:1005A00091C6C3F492C6C4F493C6C5F494C6C6F407
:1005B0008AEC2EF00401C351EE24CB6FC451EE201F
:1005C000CC6FC551EE20CD6FC651EE20CE6F4BECF7
:1005D0002EF091C6C7F492C6C8F493C6C9F494C667
:1005E000CAF496EC6FF0C70EE96E040EEA6E0401D1
:1005F000CB51EE5CCC51EE58CD51EE58CE51EE5869
:1006000002E2000E01D0010E2AEF2EF000000401DC
:10061000CF6B0501C8510401CF5D04E20000040165
:10062000CF2BF7D712000F0EE66E9BEC75F041E969
:100630001200050EE66E9BEC75F041E9120013EC1A
:100640002EF082E96CA2FED700EBE6FF33EC76F0E9
:1006500041E92AEF2EF0050E54EF2EF000016A5109
:1006600001E11200A5EC30F0FDE1120013EC2EF0D8
:1006700089E903340EE202500808000E035409E22F
:1006800004EBFCF305EBFDF306EBFEF307EBFFF3E6
:100690005FD00050011009E000018F0E926FC20E72
:1006A000936F750E946F3D0E06D00001926B936BA5
:1006B000800E946F3E0E956FD3EC31F092C0E6FF42
:1006C00093C0E6FF94C0E6FF95C0E6FFDEEC33F092
:1006D000D3EC31F004EBE6FF05EBE6FF06EBE6FFBB
:1006E00007EBE6FFB7EC65F037EC61F0B7EC65F0CF
:1006F000DEEC33F039EC61F039EC64F0E552E5CF33
:1007000099F0E5CF98F0E5CF97F0E7CF96F039EC88
:100710002EF096C0EEFF97C0EEFF98C0EEFF99C096
:10072000EEFF001C0DE1011C0BE10001966B976BC5
:10073000986B996B39EC2EF0EE6AEE6AEE6AEE6A0F
:1007400096C0FCF397C0FDF398C0FEF399C0FFF389
:100750002AEF2EF004004DC6E6FF4EC6E6FF4FC658
:10076000E6FF50C6E6FF66DB44E9F3CFE6FFF4CFD1
:10077000E6FF550EE66E9E0EE66E000EE66E200E4D
:10078000E66E030EE66ED1EC72F047E9200EE66EDF
:10079000030EE66EEBEC73F042E91200DBDFFE0EB7
:1007A000E66EA90EE66E000E27EC31F00401236B15
:1007B000040123510AE10A0E9FEC31F056DD44E9B1
:1007C000E5EC34F0FEEC60F0F3D7020E235DC2DFFF
:1007D0005C0EE66EAA0EE66E000E27EF31F0040006
:1007E000520EE66E9E0EE66E000EE66E000EE66E91
:1007F000020EE66ED1EC72F045E9000EE66E020ED6
:10080000E66EEBEC73F042E9A5DF4D0EE66E9E0E50
:10081000E66E000EE66E6FEC73F043E99DC0E6FFF6
:100820009EC0E6FF9FC0E6FF000EE66E020EE66E7B
:1008300053EC70F045E9000EE66E020EE66EEBEC4E
:1008400073F042E94B0EE66E9E0EE66E000EE66E0B
:100850006FEC73F043E99AC0E6FF9BC0E6FF9CC0D3
:10086000E6FF000EE66E020EE66E53EC70F045E910
:10087000000EE66E020EE66EEBEC73F042E9350E0A
:10088000E66E9E0EE66E000EE66E000EE66E020E40
:10089000E66E53EC70F045E9000EE66E020EE66E71
:1008A000EBEC73F042E900018351E66EE66A000169
:1008B0006051E66EE66A59C6E6FF5AC6E6FF5BC6B9
:1008C000E6FF5CC6E6FF55C6E6FF56C6E6FF57C61E
:1008D000E6FF58C6E6FF43C6E6FF44C6E6FF00C68D
:1008E000E6FF01C6E6FF02C6E6FF03C6E6FF835049
:1008F000800B01E0010EE66EE66A8350400B01E0DA
:10090000010EE66EE66A8350200B01E0010EE66EF2
:10091000E66A8350100B01E0010EE66EE66A835032
:10092000080B01E0010EE66EE66A8350040B01E05D
:10093000010EE66EE66A8350020B01E0010EE66EE0
:10094000E66A8350010BE66EE66A00016351E66ECB
:10095000E66AA60EE66E9D0EE66E000EE66E000ED0
:10096000E66E020EE66ED1EC72F069E9000EE66EFC
:10097000020EE66EEBEC73F042E90601A551E66E5D
:10098000E66A7850E66EE66A69C6E6FF6AC6E6FF82
:100990006BC6E6FF6CC6E6FF4DC6E6FF4EC6E6FF39
:1009A0004FC6E6FF50C6E6FF91C6E6FF92C6E6FFD9
:1009B00093C6E6FF94C6E6FFF3EC63F091C6E6FF4C
:1009C00092C6E6FF93C6E6FF94C6E6FF8DC6E6FF35
:1009D0008EC6E6FF8FC6E6FF90C6E6FF51C6E6FF6D
:1009E00052C6E6FF53C6E6FF54C6E6FF49C6E6FF19
:1009F0004AC6E6FF4BC6E6FF4CC6E6FF61C6E6FF09
:100A000062C6E6FF63C6E6FF64C6E6FF89C6E6FF88
:100A10008AC6E6FF8BC6E6FF8CC6E6FF85C6E6FF04
:100A200086C6E6FF87C6E6FF88C6E6FF6DC6E6FF18
:100A30006EC6E6FF6FC6E6FF70C6E6FF4DC6E6FF70
:100A40004EC6E6FF4FC6E6FF50C6E6FFE70EE66E6F
:100A50009C0EE66E000EE66E000EE66E020EE66E70
:100A6000D1EC72F075E9000EE66E020EE66EEBEC6C
:100A700073F042E929C4E6FF2AC4E6FF2BC4E6FF6F
:100A80002CC4E6FF65C6E6FF66C6E6FF67C6E6FF5E
:100A900068C6E6FF71C6E6FF72C6E6FF73C6E6FFEC
:100AA00074C6E6FF75C6E6FF76C6E6FF77C6E6FFC4
:100AB00078C6E6FF79C6E6FF7AC6E6FF7BC6E6FFA4
:100AC0007CC6E6FF7DC6E6FF7EC6E6FF7FC6E6FF84
:100AD00080C6E6FF880EE66E9C0EE66E000EE66EA1
:100AE000000EE66E020EE66ED1EC72F05DE9000ECD
:100AF000E66E020EE66EEBEC73F042E90401D06B99
:100B0000030E0401D05D01E36ED10401D051420D0A
:100B1000F3CFE9FFF4CFEAFF000EE926050EEA2243
:100B2000060EE926000EEA22EF5001E159D1040138
:100B3000D051420DF3CFE9FFF4CFEAFF000EE926D2
:100B4000050EEA220F0EE926000EEA221B0EE92608
:100B5000000EEA22EECFE6FFEECFE6FF0401D05111
:100B6000420DF3CFE9FFF4CFEAFF000EE926050EB0
:100B7000EA220F0EE926000EEA22190EE926000EDF
:100B8000EA22EECFE6FFEECFE6FF0401D051420DA0
:100B9000F3CFE9FFF4CFEAFF000EE926050EEA22C3
:100BA0000F0EE926000EEA222F0EE926000EEA2299
:100BB000EECFE6FFEECFE6FF0401D051420DF3CFBA
:100BC000E9FFF4CFEAFF000EE926050EEA220F0E38
:100BD000E926000EEA222D0EE926000EEA22EECFCB
:100BE000E6FFEECFE6FF0401D051420DF3CFE9FF5F
:100BF000F4CFEAFF000EE926050EEA220F0EE926E1
:100C0000000EEA22090EE926000EEA22EECFE6FFE8
:100C1000EECFE6FF0401D051420DF3CFE9FFF4CF50
:100C2000EAFF000EE926050EEA220F0EE926000E65
:100C3000EA22150EE926000EEA22EECFE6FFEECFFD
:100C4000E6FF0401D051420DF3CFE9FFF4CFEAFFF4
:100C5000000EE926050EEA220F0EE926000EEA2212
:100C6000170EE926000EEA22EECFE6FFEECFE6FFF2
:100C70000401D051420DF3CFE9FFF4CFEAFF000E9B
:100C8000E926050EEA220F0EE926000EEA22050EDD
:100C9000E926000EEA22EECFE6FFEECFE6FF0401E2
:100CA000D051420DF3CFE9FFF4CFEAFF000EE92661
:100CB000050EEA220F0EE926000EEA22030EE926AF
:100CC000000EEA22EECFE6FFEECFE6FF0401D051A0
:100CD000420DF3CFE9FFF4CFEAFF000EE926050E3F
:100CE000EA220F0EE926000EEA22EE52EECFE6FFD0
:100CF000EECFE6FF0401D051E66EE66A100EE66E16
:100D00009C0EE66E000EE66E000EE66E020EE66EBD
:100D1000D1EC72F05BE9000EE66E020EE66EEBECD3
:100D200073F042E9E66AE66A7A0EE66E440EE66E13
:100D30000401D051420DF3CFE9FFF4CFEAFF000EDA
:100D4000E926050EEA220F0EE926000EEA22250EFC
:100D5000E926000EEA22EECFE6FFEECFE6FFEECF69
:100D6000E6FFEECFE6FFB7EC65F0AFEC62F0E66AC7
:100D7000E66A7A0EE66E440EE66E0401D051420D2C
:100D8000F3CFE9FFF4CFEAFF000EE926050EEA22D1
:100D90000F0EE926000EEA22290EE926000EEA22AD
:100DA000EECFE6FFEECFE6FFEECFE6FFEECFE6FFBB
:100DB000B7EC65F0AFEC62F0EF0EE66E9B0EE66E00
:100DC000000EE66E000EE66E020EE66ED1EC72F0DC
:100DD00049E9000EE66E020EE66EEBEC73F042E9B6
:100DE0000401D02B8DD60001F85109E0D70EE66E34
:100DF0009B0EE66E000EE66E6FEC73F043E90400A6
:100E00001200050EE66EAB0EE66E000E27EC31F01A
:100E10004F0EE66EAB0EE66E000E27EC31F00001D1
:100E2000F85107E0D70EE66E9B0EE66E000E27EC3B
:100E300031F0120013EC2EF0F3EC2FF002E207EC8D
:100E400030F000EBD7F501EBD8F502EBD9F503EB69
:100E5000DAF568EC2FF0ABEC2FF0E5CFD2F5E5CF6B
:100E6000D1F5E5CFD0F5E7CFCFF568EC2FF010EC5A
:100E700030F04AEC32F09FEC2EF0BEEC2FF0ABECF1
:100E80002FF0E5CFD6F5E5CFD5F5E5CFD4F5E7CF13
:100E9000D3F5BEEC2FF019EC30F04AEC32F09FECB9
:100EA0002EF0F0EC32F0E66E19EC30F010EC30F091
:100EB000C50EE66E9B0EE66E000EADEC30F051E90D
:100EC00078EF32F013EC2EF0F3EC2FF002E207ECA7
:100ED00030F000EBE3F501EBE4F502EBE5F503EBB5
:100EE000E6F568EC2FF0B2EC2FF0E5CFDEF5E5CFBC
:100EF000DDF5E5CFDCF5E7CFDBF568EC2FF022EC94
:100F000030F04AEC32F0B8EC2EF0BEEC2FF0B2EC40
:100F10002FF0E5CFE2F5E5CFE1F5E5CFE0F5E7CF5E
:100F2000DFF5BEEC2FF02BEC30F04AEC32F0B8ECF1
:100F30002EF02BEC30F022EC30F0B90EE66E9B0E6A
:100F4000E66E000EADEC30F04DE978EF32F013ECC8
:100F50002EF083E901340EE300EB00F001EB01F029
:100F60000001006D011F000E012300C0F3FF01C04E
:100F7000F4FF02D0E4EC2FF02AEF2EF013EC2EF069
:100F800085E9033413E3E668E668E668E668D0ECD2
:100F900030F003EBE6FF4AEC32F000C0FCF301C096
:100FA000FDF302C0FEF303C0FFF308D000EBFCF337
:100FB00001EBFDF302EBFEF303EBFFF32AEF2EF060
:100FC0005DEC32F0E3EC33F069EC2DF034EC30F012
:100FD000B10EE66E9B0EE66E000EF7EF32F05DECA2
:100FE00032F0B8EC33F034EC30F0A90EE66E9B0E24
:100FF000E66E000EF7EF32F0E4EC32F002E32D0E75
:10100000916F98EC2EF08AEC62F0B6EC2DF0B8EC13
:1010100033F08CEC31F004EC2EF0D8900001035149
:10102000000A08E6DC0E005D050E0159000E0259AB
:10103000000E035917E28CEC31F004EC2EF048EC72
:101040002FF091C004F00001056B04BF0569E3ECCB
:1010500030F0A30EE66E9B0EE66E000E16EC2FF03F
:101060004BE934D0E66AE66A7A0EE66E440E82EC0C
:101070002EF0B6EC2DF0E3EC33F0FCEC32F0E3C0F4
:10108000E6FFE66E04EC2EF048EC2FF08CEC31F02D
:1010900075DF44E9FCC304F0FDC305F0FEC306F0B0
:1010A000FFC307F048EC2FF091C008F00001096B76
:1010B00008BF096908C0E6FF09C0E6FF960EE66EA4
:1010C0009B0EE66E000E16EC2FF04FE9E4EC2FF0CD
:1010D0002AEF2EF0E4EC32F002E32D0E916FE66A77
:1010E000E66A200EE66E410E65EC32F08AEC62F0A4
:1010F00039EC64F0E552E5CFCAF0E5CFC9F0E5CFB1
:10110000C8F0E7CFC7F03AEC30F0EAEC31F0200E4F
:10111000E66E410EE66E3AEC30F0E9EC33F00A0E82
:10112000FCEC32F0B4EC30F009EC34F0B4EC30F01C
:1011300091C000F00001016B00BF0169C7EC32F003
:101140008C0EE66E9B0EE66E000E16EC2FF04BE951
:10115000E4EC2FF02AEF2EF013EC2EF085E94BECA7
:101160002EF003500001006F016B01354AE200517F
:10117000FA08000E015545E2FF0EE9EC2FF00AE1F6
:10118000F45008E10001775101E183D196EC6FF052
:10119000010E82D1FE0EE9EC2FF009E1F45007E1D7
:1011A00096EC6FF0000121EC2EF0040E27D0FD0E1E
:1011B000E9EC2FF009E1F45007E10001010E776F2F
:1011C00096EC6FF0FD0E68D1FC0EE9EC2FF008E113
:1011D000F45006E10001776B96EC6FF0FC0E5CD1E9
:1011E000FB0EE9EC2FF00DE1F4500BE10001776B01
:1011F00096EC6FF0000121EC2EF0050ECCEC32F0F5
:101200004BD10001775101E144D10001FF510008A9
:1012100001E33FD1FF0721EC2EF0040E88EC33F000
:10122000EFCFE8F5AAEC03F0D0EC30F06FEC73F000
:1012300043E9000121EC2EF092EC2EF0FF51E66E16
:10124000E66A7A0EE66E9B0EE66E000ECBEC33F08D
:101250000501E76BE751E72BE85D07E1E00EE66E7D
:10126000AD0EE66E000E27EC31F018EC2EF007E123
:10127000000EE66EAE0EE66E000E27EC31F018ECB6
:101280002EF007E1300EE66EAE0EE66E000E27EC95
:1012900031F018EC2EF007E1530EE66EAE0EE66E5E
:1012A000000E27EC31F018EC2EF007E1760EE66E1A
:1012B000AE0EE66E000E27EC31F018EC2EF007E1D2
:1012C000A70EE66EAE0EE66E000E27EC31F018ECBF
:1012D0002EF007E1DB0EE66EAE0EE66E000E27EC9A
:1012E00031F018EC2EF007E1100EE66EAF0EE66E50
:1012F000000E27EC31F018EC2EF007E1490EE66EF7
:10130000AF0EE66E000E27EC31F018EC2EF007E180
:10131000770EE66EAF0EE66E000E27EC31F018EC9D
:101320002EF007E19E0EE66EAD0EE66E000E27EC87
:1013300031F018EC2EF007E1BE0EE66EAD0EE66E53
:10134000000E27EC31F018EC2EF007E1CE0EE66E21
:10135000AC0EE66E000E27EC31F018EC2EF007E133
:10136000A70EE66EAF0EE66E000E27EC31F018EC1D
:101370002EF007E1E80EE66EAF0EE66E000E27ECEB
:1013800031F018EC2EF007E10E0EE66EB00EE66EB0
:10139000000E27EC31F018EC2EF007E1340EE66E6B
:1013A000B00EE66E000E27EC31F018EC2EF007E1DF
:1013B000600EE66EB00EE66E000E27EC31F018EC13
:1013C0002EF007E1780EE66EB00EE66E000E27EC0A
:1013D00031F018EC2EF007E18F0EE66EB00EE66EDF
:1013E000000E27EC31F018EC2EF007E1330EE66E1C
:1013F000B40EE66E000E27EC31F018EC2EF007E18B
:10140000710EE66EB40EE66E000E27EC31F018ECAD
:101410002EF007E1900EE66EB40EE66E000E27EC9D
:1014200031F018EC2EF007E1BC0EE66EB00EE66E61
:10143000000E27EC31F00501E751D880E85517E29E
:10144000E8510001006F016BFA0ED89001BF03D084
:10145000005D000E01590BE20501E851E66EE66AF7
:10146000600EE66E9B0EE66E000E95EC33F000010A
:10147000FF5102E10001776B000121EC2EF0050E17
:10148000E1EC2FF021EC2EF0EE6AEE6AEE6AEE6AE5
:10149000BCD696EC6FF0000E2AEF2EF00001010E84
:1014A000666F83A449D0E5EC34F0640E9FEC31F014
:1014B00004C6E6FF05C6E6FF06C6E6FF07C6E6FF6A
:1014C000F3EC63F051EC2FF0B5DC44E9F3CFE6FF29
:1014D000F4CFE6FF460EE66E9B0EE66E000E5AEC6B
:1014E0002DF04BE9010EE66EE66AD7EC30F0E66EC1
:1014F000D7EC30F0020E32EC31F051EC2FF043EC2F
:1015000030F0F3EC63F043EC30F051EC2FF0260EAA
:10151000E66E9B0EE66E000E5AEC2DF051E9010EC0
:10152000E66E030E32EC31F0880EE66E130E03EC1D
:1015300033F0FEEC60F0B5D70001666B120013ECDF
:101540002EF083E91B0EA0EC30F05B0EA0EC30F027
:10155000320EA0EC30F04A0EA0EC30F0F10EE66E48
:10156000A90EE66E000E27EC31F0A40EE66EA90E71
:10157000E66E000E27EC31F02AEF2EF013EC2EF081
:1015800082E900017A5103E0070E005C28E17B51FB
:1015900009E0ECEC32F00001F30E036FA10E046FD2
:1015A000000E08D0ECEC32F000017F0E036FA30EAA
:1015B000046F000E056F160E20EC34F000EBE6FF12
:1015C000E66AE66A06EC65F0E552E5CF08F0DEEC87
:1015D00030F000012EEC2EF000EB7CF02DD000500E
:1015E0000501E95D21E00001816B93EC6EF08B92C7
:1015F0000401D16BD1510A0814E381EC2FF00401EE
:10160000D1250001066F076B086B2EEC2EF0010E42
:10161000E66EE66A6DEC2FF0ECEC2EF00401D12BB7
:10162000E9D700EBE9F508D081EC2FF00A0F066F3F
:10163000076B086B2EEC2EF0010EE66EE66A6DEC81
:101640002FF0E66A010EE66E6DEC2FF0E66A020EF0
:10165000E66E6DEC2FF0E66A030EE66E6DEC2FF091
:101660002AEF2EF00401D26B030ED25D07E2D251B5
:1016700094EC30F0FE0EEF6ED22BF6D70001DC5169
:1016800032EC33F002E1765123E076510EE00401B2
:10169000D351D32B32080DE20501EA2BEA5105089C
:1016A00001E2EA6B0401D36B04D0030EDC250501D3
:1016B000EA6FE66AEAC5E6FF3AEC00F042E9E66E58
:1016C0000001DC5194EC30F0E552E750EF6E12006F
:1016D000DC5194EC30F0EF68120013EC2EF081E94D
:1016E00043E8026A00017B5104E1825102E1855125
:1016F00002E0030E69D2DC51016E24EC34F0CFEC31
:1017000032F0EE6AED6A010EE66E3FEC2FF024EC4B
:1017100034F04CEC30F0EE50ED1006E0C8EC2FF059
:101720000CE1010EE66E05D0C8EC2FF006E0E66A8B
:10173000010EE66EADEC6EF042E9D950030FE66E95
:10174000DACFE6FF47DA42E90001F751035C08E12E
:101750008B96010E7B6F03EBE6FF10DF41E931D280
:10176000E5EC34F0F3EC0FF01EEC32F00DE200513A
:101770000408000E015508E205019A0EEB6F990E60
:10178000EC6FED6F3E0E11D0015032EC33F007E0FC
:101790000501EB6BEC6BC00EED6F3F0E06D0050143
:1017A0005AEC2FF003E0CCEC2FF0EE6F00018651E5
:1017B0006DE02CEC31F0BCEC30F005AF02D00669E6
:1017C000076946EC32F006E6D8802C0E0055010E73
:1017D00073EC2FF014E28DBE25D081EC32F031ECA9
:1017E0002FF08D8E0001806FF85107E00C0EE66E31
:1017F0009B0EE66E000E27EC31F08D8013D08DAE7F
:1018000011D081EC32F0E1EC2FF08D9E0001806B65
:10181000F85107E0F30EE66E9A0EE66E000E27EC26
:1018200031F08D802CEC31F0BCEC30F005AF02D003
:101830000669076946EC32F006E6D880900E00553E
:10184000010E73EC2FF012E28DB620D08DAE1ED0BB
:101850000001010E876FF85107E0CF0EE66E9A0E79
:10186000E66E000E27EC31F08D8610D08DA60ED0DE
:101870008DAE0CD00001876BF85107E0AC0EE66E20
:101880009A0EE66E000E27EC31F08D96A4EC33F044
:10189000C10E08EC33F004E60051025D015103591A
:1018A00001E38FD02CEC31F0EECF04F0EFCF05F058
:1018B0006DEC2EF0410E0EEC33F0DEEC30F000015A
:1018C00007350751051904E60651045D075105590E
:1018D00001E377D0025045E00001865142E0050166
:1018E000EF51F01117E015EC33F00001F85112E060
:1018F000DDEC31F001E0010E46EC33F04EEC32F05D
:101900005F0EE66E9A0EE66E000E5AEC2DF04DE973
:1019100038EC31F00150C5EC2DF004013F0551E1E8
:101920000150D2EC32F00501EF51F0114AE05AECCF
:101930002FF003E0CCEC2FF0EE6F0001F8513DE00A
:10194000DDEC31F001E0010E46EC33F04EEC32F00C
:10195000180EE66E9A0EE66E000E5AEC2DF04DE96A
:1019600023D00150D2EC32F00150C5EC2DF005012E
:10197000EF51F01126E05AEC2FF003E0CCEC2FF001
:10198000EE6F0001F85119E0DDEC31F001E0010EDD
:1019900046EC33F097EC2FF0C00EE66E990EE66E33
:1019A000000E5AEC2DF04FE938EC31F0FD0EE66EEA
:1019B000990EE66E000E27EC31F00501EF6BF06B2F
:1019C0008B96A4EC33F0410E08EC33F004E60051A2
:1019D000025D0151035948E2F8EC31F0CCEC32F0F1
:1019E00014E124EC34F0CFEC32F0EE2AEF221EECBE
:1019F00032F00BE200510108000E015506E206012B
:101A0000652B000E66236723682324EC34F0020E56
:101A100031EC2FF0BFEC33F004E10001015105017E
:101A2000F21922E02CEC31F0C4EC30F007AF02D018
:101A300008690969D6EC2EF002E6FDEC2FF014E2FD
:101A40000001F8510FE0DDEC31F001E0010E46EC51
:101A500033F02DEC32F0730EE66E990EE66E000E4A
:101A600027EC31F0EFEC33F0A4EC33F0C10E26ECB0
:101A70002FF0000103350351011904E60251005D06
:101A8000035101592EE2F8EC31F0E1EC2FF0BFECFC
:101A900033F004E1000101510501F21922E02CECC0
:101AA00031F0C4EC30F007AF02D008690969D6EC18
:101AB0002EF002E6FDEC2FF014E20001F8510FE0E9
:101AC000DDEC31F001E0010E46EC33F02DEC32F0AC
:101AD0005C0EE66E990EE66E000E27EC31F0EFEC30
:101AE00033F01EEC32F00AE200510108000E0155FD
:101AF00005E224EC34F0050E31EC2FF024EC34F048
:101B00001DEC2FF001350AE200510208000E0155CC
:101B100005E224EC34F0090E31EC2FF0015032ECE8
:101B200033F010E004017051010B0CE17051020B15
:101B300009E17051040B06E1E66A3FEC2FF0000961
:101B400001E1FBD50001865103E0876B8D9E806B20
:101B5000E66A3FEC2FF0000913E00001F85107E0BE
:101B60000D0EE66E990EE66E000E27EC31F00001C8
:101B7000865102E058EC30F09AEC30F0040E24D09C
:101B800004017051010B06E17051020B03E1705129
:101B9000040B19E00001F85107E0B70EE66E980E4D
:101BA000E66E000E27EC31F00001865102E058ECA1
:101BB00030F0040170A105D070910001010E7B6F1F
:101BC0008B96020E01D0000EF36EF46A44E9E7CF63
:101BD000D9FF120013EC2EF083E983380F0B0001BC
:101BE000F7150501F46F0001F7510501F45D59E1A6
:101BF0000001F7510501F35D03E0040E54EC2EF0F3
:101C000061EC30F03BE10001F7510501F35D11E0BB
:101C10002CEC2FF0070EEF6E1CEC33F0D3EC2FF012
:101C20009D0EE66E980EE66E000E95EC33F0F7C052
:101C3000F3F50001845115E0AAEC03F07E0EE66E88
:101C4000980EE66E000E5AEC2DF06AEC30F0F7C0FC
:101C5000F3F52CEC2FF0070EEF6E0001010E7A6FFA
:101C6000886B846B7CC0E6FFA9EC6AF041E97CC01C
:101C7000E6FF84DC41E9F7C0F6F510D0D3EC2FF095
:101C8000F351E66EE66A2C0EE66E980EE66E000ED6
:101C900022EC33F0F3C5EFFF0501F66B0501F651B9
:101CA00057D0F451F35D4FE0030EE66E15EC61F092
:101CB00041E9040E54EC2EF061EC30F038E12CECEC
:101CC0002FF0F4C5EFFF1CEC33F0AAEC03F02CEC82
:101CD0002FF0EF50E66EE66A0501F351E66EE66A14
:101CE000EF0EE66E970EE66E000E22EC33F0EFCFAD
:101CF000F3F5000184510DE1AAEC03F0D20EE66E7B
:101D0000970EE66E000E5AEC2DF06AEC30F00001F2
:101D1000886B010E846F7CC0E6FFA9EC6AF041E994
:101D200000017A6B7CC0E6FF29DC41E910D0D3ECDE
:101D30002FF0F351E66EE66A810EE66E970EE66EC0
:101D4000000ECBEC33F02CEC2FF0F3C5EFFF000EC0
:101D50002AEF2EF0DAEC31F00AE10401D46BE8EC62
:101D600030F001E3DC6BF5EC33F0F9E07BDC0401EF
:101D700070A31DD08B84D46BE8EC30F001E3DC6BF6
:101D8000F5EC33F0F9E06EDCDAEC2FF06F0EE66E76
:101D9000970EE66E000E95EC33F0540EE66E970E3D
:101DA000E66E000E27EC31F08B94040170937051B5
:101DB000010B08E1E66A6DEC30F000091BE0000160
:101DC0007A5118E000017A5106E17B5102E0000EE1
:101DD00001D0010E7B6F4DEC31F02A0EE66E970EAE
:101DE000E66E000E27EC31F000017A6B0401709171
:101DF0008B906BD004010F0566E0E66AFBEC33F0D4
:101E0000000963E0010EE66E6DEC30F00001010E9A
:101E10007A6F8B8004010F5129E102EC32F002E667
:101E200025EC33F023E20001010E7A6F8B90845190
:101E300011E10501F72B69EC2EF0110E0501F75D9C
:101E400001E3F76BB0EC33F0120EE66E970EE66E20
:101E5000000E35D02BEC33F001E3A26BC2EC31F075
:101E6000EB0EE66E960EE66E000E29D002EC32F016
:101E700002E625EC33F025E20001010E7A6F8B902B
:101E8000845112E10501F70769EC2EF0110E0501EE
:101E9000F75D02E3100EF76FB0EC33F0D40EE66E90
:101EA000960EE66E000E0BD02BEC33F001E3A26B26
:101EB000C2EC31F0BD0EE66E960EE66E000E27EC1B
:101EC00031F08B8002D069EC2EF000017A5102E0F3
:101ED0008B8001D08B90855170E17B5102E1825162
:101EE0006AE0C8EC2FF006E0E66A010EE66EADECA3
:101EF0006EF042E904011F0546E0E66A20EC2FF08F
:101F000000095BE08B8404011F511AE11B35000EB0
:101F10001B1909E6D880010E1855000E1955000E40
:101F20001A55000E1B550CE237EC32F031EC2FF055
:101F300092EC31F0730EE66E990EE66E000E20D034
:101F4000020E1F5D3AE118C4E6FF19C4E6FF1AC489
:101F5000E6FF1BC4E6FF0EEC34F006E6D880010E67
:101F60000055000E73EC2FF028E237EC32F0E1EC74
:101F70002FF092EC31F05C0EE66E990EE66E000EDC
:101F800027EC31F01AD0000182510CE1DC51D2EC87
:101F900032F09DEC33F0020E31EC2FF0DC51C5EC49
:101FA0002DF003D0DC51D2EC32F0010EE66E20ECC5
:101FB0002FF08B9402D06DEC0BF000017B5107E009
:101FC000E66A37EC33F00CE1010EE66E05D0E66A06
:101FD00037EC33F005E0E66AE66AADEC6EF042E914
:101FE0000501F751120032EC0BF08BC0FBFF8AC0E9
:101FF000FAFF000189511400120013EC2EF082E95F
:1020000047E8076A086A93EC6EF000017B5104E12F
:1020100005013051311102E0030E09D00001806B3F
:102020000401355136113711381104E1020EF36EF7
:10203000F46A72D0026A0250005C68E371EC31F01D
:102040000A0EE66ED70EE66E230EE66E3C0EF6EC3A
:102050002DF0B8EC31F05AE1036A046A056A066AA9
:10206000D890065002E673EC30F00FE2FA0EE66EFE
:102070007E0EE66E2A0EE66E3F0E54EC33F005E15E
:10208000D950030FF1EC2EF0EBD7036A046A056A0E
:10209000066AD890065002E673EC30F00FE2FA0EB2
:1020A000E66E7E0EE66EAA0EE66E3E0E54EC33F041
:1020B00005E1D950030FF1EC2EF0EBD7660EE66E7A
:1020C000E66EE66E3F0E12EC34F020E1CD0EE66EC9
:1020D000CC0EE66EE66E3D0E12EC34F017E1E66AC9
:1020E000E66AE66A3F0E12EC34F010E1040170512A
:1020F000010B06E17051020B03E17051040B04E087
:10210000010E076E086A02D0022A95D76FEC32F0F2
:1021100007EBF3FF08EBF4FF48E9E7CFD9FF120024
:1021200013EC2EF082E948E8086A096A93EC6EF035
:1021300000017B5104E105013051311104E0030E2F
:10214000F36EF46A7CD00001806B026A0050025C7E
:1021500070E2036A030E035C6AE203EBDCF0DAEC84
:1021600031F063E071EC31F086EC31F0640EEE6E2C
:10217000ED6AB8EC31F05BE1046A056A066A076A49
:10218000D890075002E67CEC30F00DE285EC30F0A0
:102190009A0E0027020E8CEC33F005E1D950040FA3
:1021A000F1EC2EF0EDD7046A056A066A076AD8904A
:1021B000075002E67CEC30F00DE285EC30F04D0E7D
:1021C0000027010E8CEC33F005E1D950040FF1EC3F
:1021D0002EF0EDD786EC31F0840EEE6E030EED6E30
:1021E000A8EC33F086EC31F0640EEE6EED6AA8ECEC
:1021F00033F0025052EC2DF00D0E88EC33F028EC49
:1022000032F086EC31F0E5EC31F0A8EC33F004016B
:102210007051010B06E17051020B03E17051040B88
:1022200004E0010E086E096A02D0032A93D7022A3D
:102230008DD76FEC32F008EBF3FF09EBF4FF49E9BF
:10224000E7CFD9FF120032EC0BF000017C51070AF6
:102250001CE0010A15E0030A11E0080A0FE00E0A6B
:102260000DE0010A0BE0060A05E0050A07E0010A95
:102270000CE104D0030EE66EC0DE05D0020E01D0E4
:10228000040EE66E4DDF41E912008BC0FBFF8AC0F1
:10229000FAFF8951140012005DDD0501F86FF80E98
:1022A000E66E050EE66E96DC42E9F8C5E6FFBEEC8A
:1022B0000AF041E9F3EF0FF00001A2511EE1D7EC63
:1022C00032F0690EE66E960EE66E000E42EC33F0CA
:1022D000ACEC33F09CEC2FF0530EE66E960EE66EEF
:1022E000000E01EC34F0EDEC30F03D0EE66E960E93
:1022F000E66E000E42EC33F007D02AEC34F051ECDD
:102300002EF02FEC31F045E985EF2EF00001A251BF
:1023100018E11DEC2EF08DEC2FF0FE0EE66E950E02
:10232000E66E000E3CEC33F0DD0EE66E950EE66ECA
:10233000000ECFEC33F0C00EE66E950EE66E000E8A
:102340001DD085EC33F00CE092EC2DF0D3EC33F0A3
:10235000990EE66E950EE66E000E5AEC2DF04DE9E4
:10236000AEEC31F07F0EE66E950EE66E000ECFEC11
:1023700033F07F0EE66E950EE66E000EDCEF32F067
:102380000001A25135E11DEC2EF08DEC2FF0560E20
:10239000E66E950EE66E000E3CEC33F03CEC2FF052
:1023A00080C5E6FF81C5E6FF7EC5E6FF7FC5E6FF87
:1023B0009CEC2FF02D0EE66E950EE66E000E5AEC9C
:1023C0002DF053E9D1EC2EF0C2C5E6FFC3C5E6FF00
:1023D000C0C5E6FFC1C5E6FFEDEC30F0040EE66EC9
:1023E000950EE66E000E5AEC2DF08EEC30F011D00A
:1023F00085EC33F002E03DEC31F06FEC33F002E0BD
:1024000045EC31F04DEC33F002E069EC31F0E0ECFA
:1024100031F043E912000001A25130E11DEC2EF031
:1024200007EC2FF0660EE66E940EE66E000E3CECA6
:1024300033F09CEC2FF04E0EE66E940EE66E000E1E
:1024400042EC33F0D1EC2EF0A0EC33F0C2C5E6FF45
:10245000C3C5E6FFB4EC31F0C0C5E6FFC1C5E6FF79
:102460004DEC63F0EDEC30F0250EE66E940EE66E6A
:10247000000E5AEC2DF08EEC30F011D085EC33F0DC
:1024800002E03DEC31F06FEC33F002E045EC31F06E
:102490004DEC33F002E069EC31F0E0EC31F043E96F
:1024A00012000001A25119E1E1EC32F048EC2EF0EB
:1024B0003CEC2FF0A0EC33F080C5E6FF81C5E6FFD1
:1024C000B4EC31F07EC5E6FF7FC5E6FF4DEC63F06E
:1024D0009CEC2FF07AEC33F009D02AEC34F0CCEC01
:1024E00030F002E045EC31F0D8EC33F0DCEF32F0C4
:1024F0000001A2510BE1E1EC32F048EC2EF01DECB2
:102500002EF007EC2FF07AEC33F00BD02FEC31F0FB
:1025100048EC2EF085EC33F002E03DEC31F0D8ECE5
:1025200033F0DCEF32F00001A25148E114C5E6FFC0
:1025300015C5E6FF10C4E6FF11C4E6FF12C4E6FFAE
:1025400013C4E6FF29C4E6FF2AC4E6FF2BC4E6FF56
:102550002CC4E6FFD7EC32F0C50EE66E930EE66EA5
:10256000000E5AEC2DF051E9ACEC33F005010151AD
:102570001BE00251E66EE66A9E0EE66E930EE66E74
:10258000000E01EC34F031C4E6FF32C4E6FF33C480
:10259000E6FF34C4E6FF7D0EE66E930EE66E000E97
:1025A0005AEC2DF049E907D0E1EC32F051EC2EF075
:1025B000E1EC32F045E973EC33F011D085EC33F007
:1025C00002E00CEC32F06FEC33F002E0A2EC31F000
:1025D0004DEC33F002E015EC32F0E0EC31F043E981
:1025E00012000001A2511BE1F20EE66E920EE66EA1
:1025F000000E5AEC2DF048EC2EF0DC0EE66E920E3A
:10260000E66E000ECFEC33F0C60EE66E920EE66E6E
:10261000000E5AEC2DF045E973EC33F011D085EC47
:1026200033F002E03DEC31F06FEC33F002E045ECCA
:1026300031F04DEC33F002E069EC31F0E0EC31F0D8
:1026400043E91200AF0EE66E920EE66E000E5AECF3
:102650002DF048EC2EF0980EE66E920EE66E000E0F
:10266000CFEC33F0810EE66E920EE66E000EDCEFDC
:1026700032F00001A2514BE12FEC31F045E9640E3C
:102680000501D89095BF03D0945D000E95590AE2DC
:1026900001EC2FF0620EE66E920EE66E000E5AEC22
:1026A0002DF047E9ACEC33F08DB20AD001EC2FF0FD
:1026B0009CEC2FF0430EE66E920EE66E000E09D0F3
:1026C000FBEC2EF09CEC2FF0240EE66E920EE66EE4
:1026D000000E5AEC2DF049E927EC34F02FEC31F0E4
:1026E00045E9640E0501D89011BF03D0105D000EBE
:1026F00011590AE2FBEC2EF0060EE66E920EE66E23
:10270000000E5AEC2DF047E973EC33F011D085EC54
:1027100033F002E00CEC32F06FEC33F002E0A2ECAC
:1027200031F04DEC33F002E015EC32F0E0EC31F03A
:1027300043E9120013EC2EF082E942E8026A036AD0
:10274000030ED89003BE03D0025C000E03581DE2B6
:102750000050E66E02EBE9FF03EBEAFF420EEA02ED
:10276000F3CFEAFFE902F3CFE9FFF450EA26000EC7
:10277000E926050EEA224CEC30F0E552E750EE6E09
:10278000ED6A022A000E0322DBD743E9E7CFD9FF27
:102790001200DCC0D5F40001DC6B9DEC33F079EC69
:1027A0002FF002E06DEC0BF0E8EC30F0F6E393EC88
:1027B0006EF0D5C4DCF0010E54EF2EF0D9CFE6FF59
:1027C000E1CFD9FF81E951E8DC0E056E050E066EFA
:1027D000076A086A096A0A6A0B6A0C6A580E0D6E63
:1027E000106A116A0001816BE5EC34F0E5EC34F01D
:1027F0000001010E886F040170950001A26B7CC07E
:10280000E6FFA9EC6AF041E90001855107E08B92EF
:1028100000017B6B0001806B15EF29F0AAEC03F03F
:10282000E20EE66E910EE66E000EE66E6FEC73F051
:1028300043E9020E00017C5D06E1D00E056E070E35
:10284000066E076A086A030E00017C5D06E1A00EB1
:10285000056E0F0E066E076A086A0001010E7B6F97
:102860000501080503E10001010E806F93EC6EF095
:10287000010EE66EE66AE66AE66A56EC01F044E9A5
:1028800000017C5100E1030E00017C5D18E1020EA5
:10289000E66EE66AE66AE66A05EBE6FF06EBE6FF49
:1028A00007EBE6FF08EBE6FF66EC65F0E552E55066
:1028B000086EE550076EE550066EE750056E0001A4
:1028C0007C0518E1020EE66EE66AE66AE66A05EB4A
:1028D000E6FF06EBE6FF07EBE6FF08EBE6FF66EC3C
:1028E00065F0E552E550086EE550076EE550066E5E
:1028F000E750056EE66A1EDF41E996EC6EF0010EC8
:10290000E66E05EBE6FF06EBE6FF07EBE6FF08EBFE
:10291000E6FF55EC02F045E9016A026A036A046ABF
:102920000001865102E0B1EF1DF0060E00017C5D52
:1029300001E0CDD30E6A0F6A0F3404E20E50010895
:10294000000E0F5401E2A1D2640E056E066A076AFA
:10295000086A010EE66E05EBE6FF06EBE6FF07EB05
:10296000E6FF08EBE6FF55EC02F045E996EC6EF069
:10297000016A026A036A046A80C0E6FF99EC6EF09D
:1029800041E9D00EE66E070EE66EE66AE66A01EBF6
:10299000E6FF02EBE6FF03EBE6FF04EBE6FFF6ECF7
:1029A00063F0E552E5CF03F0E5CF02F0E5CF01F0AB
:1029B000E7CF00F00001005101110211031101E005
:1029C000DAD0040170A52DD093EC6EF0010EE66E06
:1029D000B1DE41E90BEC61F0060EE66EE66AE66AEE
:1029E000E66A56EC01F044E98B920001010E7B6F20
:1029F0000001806B80C0E6FF99EC6EF041E97CC07D
:102A0000E6FFA9EC6AF041E9AAEC03F0B40EE66E29
:102A1000910EE66E000EE66E6FEC73F043E915EF73
:102A200029F019EC29F00EEBE6FF0FEBE6FF980E0C
:102A3000E66E910EE66E000EE66E000EE66E020E7B
:102A4000E66ED1EC72F047E9010EE66EE66AA0C0D0
:102A5000E6FFB7EC00F043E90A0EE66EE66A94C5BD
:102A6000E6FF95C5E6FF4DEC63F06D0EE66E910E48
:102A7000E66E000EE66E000EE66E020EE66ED1EC1D
:102A800072F047E9640E0501D89095BF03D0945DBC
:102A9000000E955916E20A0EE66EE66A94C5E6FF48
:102AA00095C5E6FF4DEC63F04E0EE66E910EE66EB8
:102AB000000EE66E000EE66E020EE66ED1EC72F0CF
:102AC00047E9010EE66E010EE66EE66AB7EC00F02D
:102AD00043E9260EE66E910EE66E000EE66E000EDF
:102AE000E66E020EE66ED1EC72F045E9010EE66E7E
:102AF000020EE66EE66AB7EC00F043E90A0EE66EF7
:102B0000E66A10C5E6FF11C5E6FF4DEC63F0F90E6D
:102B1000E66E900EE66E000EE66E000EE66E020E9B
:102B2000E66ED1EC72F047E9640E0501D89011BF52
:102B300003D0105D000E115916E20A0EE66EE66A29
:102B400010C5E6FF11C5E6FF4DEC63F0060EE66E1C
:102B5000920EE66E000EE66E000EE66E020EE66E59
:102B6000D1EC72F047E9010EE66E030EE66EE66AFE
:102B7000B7EC00F043E9D950010FE96EDACFEAFF74
:102B8000EE2A000EEE22EE22EE22E66A05EBE6FFCA
:102B900006EBE6FF07EBE6FF08EBE6FF55EC02F07D
:102BA00045E9000901E1E8D6640E0501D89095BF1A
:102BB00003D0945D000E95590CE20501113504E235
:102BC00010519008010E115504E2010E0501706FBD
:102BD000716B640E0501D89011BF03D0105D000E1B
:102BE000115903E205016E6B6F6B010EE66E05EB8A
:102BF000E6FF06EBE6FF07EBE6FF08EBE6FF55EC2A
:102C000002F045E993EC6EF0016A026A036A046A15
:102C100080C0E6FF99EC6EF041E9D00EE66E070E3B
:102C2000E66EE66AE66A01EBE6FF02EBE6FF03EB1F
:102C3000E6FF04EBE6FFF6EC63F0E552E5CF03F0C8
:102C4000E5CF02F0E5CF01F0E7CF00F00001005141
:102C500001110211031101E0DAD0040170A52DD099
:102C600093EC6EF0010EE66E65DD41E90BEC61F070
:102C7000060EE66EE66AE66AE66A56EC01F044E99C
:102C80008B920001010E7B6F0001806B80C0E6FF1C
:102C900099EC6EF041E97CC0E6FFA9EC6AF041E9ED
:102CA000AAEC03F0B40EE66E910EE66E000EE66E30
:102CB0006FEC73F043E915EF29F019EC29F00EEBF6
:102CC000E6FF0FEBE6FFDE0EE66E900EE66E000E00
:102CD000E66E000EE66E020EE66ED1EC72F047E98B
:102CE000010EE66EE66AA0C0E6FFB7EC00F043E92D
:102CF0000A0EE66EE66A94C5E6FF95C5E6FF4DEC62
:102D000063F06D0EE66E910EE66E000EE66E000E3E
:102D1000E66E020EE66ED1EC72F047E9640E050134
:102D2000D89095BF03D0945D000E955916E20A0E17
:102D3000E66EE66A94C5E6FF95C5E6FF4DEC63F0E6
:102D40004E0EE66E910EE66E000EE66E000EE66E1C
:102D5000020EE66ED1EC72F047E9010EE66E010E4E
:102D6000E66EE66AB7EC00F043E9B30EE66E900E4D
:102D7000E66E000EE66E000EE66E020EE66ED1EC1A
:102D800072F045E9010EE66E020EE66EE66AB7ECF9
:102D900000F043E90A0EE66EE66A10C5E6FF11C5CB
:102DA000E6FF4DEC63F0F90EE66E900EE66E000E57
:102DB000E66E000EE66E020EE66ED1EC72F047E9AA
:102DC000640E0501D89011BF03D0105D000E11599B
:102DD00016E20A0EE66EE66A10C5E6FF11C5E6FFCA
:102DE0004DEC63F0060EE66E920EE66E000EE66E99
:102DF000000EE66E020EE66ED1EC72F047E9010EAF
:102E0000E66E030EE66EE66AB7EC00F043E9D950D1
:102E1000010FE96EDACFEAFFEE2A000EEE22EE2273
:102E2000EE22E66A05EBE6FF06EBE6FF07EBE6FFC0
:102E300008EBE6FF55EC02F045E9000901E1E8D6B0
:102E4000640E0501D89011BF03D0105D000E11591A
:102E50000CE20501953504E294519008010E955558
:102E600004E2010E05016E6F6F6B640E0501D890D0
:102E700095BF03D0945D000E955903E20501706B78
:102E8000716B0E2A000E0F2257D58B9200017B6BBF
:102E90000001806B05016E516F1105E00501705155
:102EA000711101E007D10501485101E103D104018D
:102EB0007095590E0D6E0DEB00F00001016B00BF17
:102EC000016900C0E6FF01C0E6FF930EE66E900EBA
:102ED000E66E000EE66E000EE66E020EE66ED1ECB9
:102EE00072F047E9010EE66EE66AA0C0E6FFB7ECB5
:102EF00000F043E9000EE66E020EE66EEBEC73F0B6
:102F000042E9520EE66E9E0EE66E000EE66E6FEC25
:102F100073F043E96EC5E6FF6FC5E6FF70C5E6FFD7
:102F200071C5E6FF7C0EE66E900EE66E000EE66E54
:102F3000000EE66E020EE66ED1EC72F049E9010E6B
:102F4000E66E010EE66EE66AB7EC00F043E9000EAD
:102F5000E66E020EE66EEBEC73F042E9520EE66EA0
:102F60009E0EE66E000EE66E6FEC73F043E9650EA2
:102F7000E66E900EE66E000EE66E000EE66E020E37
:102F8000E66ED1EC72F045E90501705171110DE169
:102F9000490EE66E900EE66E000EE66E000EE66ED0
:102FA000020EE66ED1EC72F045E9010EE66E020EFD
:102FB000E66EE66AB7EC00F043E9000EE66E020E3C
:102FC000E66EEBEC73F042E9520EE66E9E0EE66E94
:102FD000000EE66E6FEC73F043E9650EE66E900E40
:102FE000E66E000EE66E000EE66E020EE66ED1ECA8
:102FF00072F045E905016E516F110DE12B0EE66E81
:10300000900EE66E000EE66E000EE66E020EE66EA6
:10301000D1EC72F045E9010EE66E030EE66EE66A4B
:10302000B7EC00F043E9000EE66E020EE66EEBEC44
:1030300073F042E9520EE66E9E0EE66E000EE66EEC
:103040006FEC73F043E9010EE66E010EE66EADEC37
:103050006EF042E9020EE66E15EC61F041E9040003
:10306000040170A5F7D7E66A010EE66EADEC6EF0CE
:1030700042E993EC6EF0010EE66E9AEC13F041E932
:103080000BEC61F0060EE66EE66AE66AE66A56EC5E
:1030900001F044E98B920001010E7B6F0001806B0F
:1030A00080C0E6FF99EC6EF041E97CC0E6FFA9EC38
:1030B0006AF041E9AAEC03F0050EE66E900EE66EAA
:1030C000000EE66E6FEC73F043E915EF29F093EC18
:1030D0006EF0060EE66EE66AE66AE66A56EC01F007
:1030E00044E989EC6EF0010EE66EE66AE66AE66A8D
:1030F00056EC01F044E9106A116A96EC6EF0010E8C
:10310000E66E05EBE6FF06EBE6FF07EBE6FF08EBF6
:10311000E6FF55EC02F045E9030E00017C5D0DE190
:1031200080C0E6FF99EC6EF041E9140EE66EE66AA7
:10313000E66AE66A56EC01F044E948EC34F080C0F7
:10314000E6FF99EC6EF041E9E80EE66E030EE66EDE
:10315000E66AE66A01EBE6FF02EBE6FF03EBE6FF59
:1031600004EBE6FFF6EC63F0E552E5CF03F0E5CFC4
:1031700002F0E5CF01F0E7CF00F0000100510111AE
:103180000211031101E027D268EC34F0000901E1DB
:10319000D6D0AAEC03F0200EE96E060EEA6EEE50D1
:1031A0000601145D0001046FEE500601155900017F
:1031B000056FEE50060116590001066FEE5006012C
:1031C00017590001076F04C0E6FF05C0E6FF06C0FF
:1031D000E6FF07C0E6FFBEEC07F044E9FCC300F0E1
:1031E000FDC301F0FEC302F0FFC303F000C0E6FF21
:1031F00001C0E6FF02C0E6FF03C0E6FF1C0EE96E59
:10320000060EEA6EEE500601105D00010C6FEE50E6
:103210000601115900010D6FEE500601125900010F
:103220000E6FEE500601135900010F6F0CC0E6FF40
:103230000DC0E6FF0EC0E6FF0FC0E6FFBEEC07F0D4
:1032400044E9FCC308F0FDC309F0FEC30AF0FFC364
:103250000BF008C0E6FF09C0E6FF0AC0E6FF0BC09E
:10326000E6FF180EE96E060EEA6EEE5006010C5DE2
:103270000001146FEE5006010D590001156FEE505C
:1032800006010E590001166FEE5006010F5900019C
:10329000176F14C0E6FF15C0E6FF16C0E6FF17C0A3
:1032A000E6FFBEEC07F044E9FCC310F0FDC311F0EB
:1032B000FEC312F0FFC313F010C0E6FF11C0E6FF1B
:1032C00012C0E6FF13C0E6FFE80EE66E8F0EE66E54
:1032D000000EE66E000EE66E020EE66ED1EC72F0A7
:1032E00051E9000EE66E020EE66EEBEC73F042E979
:1032F00006013C5122E006013D511FE006013E510E
:103300001CE000017C5103E0010E106E116AAAEC72
:1033100003F0C30EE66E8F0EE66E000EE66E000E34
:10332000E66E020EE66ED1EC72F045E9000EE66E36
:10333000020EE66EEBEC73F042E948EC34F0040167
:1033400070A52ED093EC6EF0010EE66E9AEC13F0A1
:1033500041E90BEC61F0060EE66EE66AE66AE66AA3
:1033600056EC01F044E98B920001010E7B6F0001E5
:10337000806B80C0E6FF99EC6EF041E97CC0E6FF0F
:10338000A9EC6AF041E9AAEC03F0B40EE66E910EE6
:10339000E66E000EE66E6FEC73F043E915EF29F070
:1033A00019EC29F001EBE6FF02EBE6FF03EBE6FF89
:1033B00004EBE6FFAB0EE66E8F0EE66E000EE66ED9
:1033C000000EE66E020EE66ED1EC72F049E9010ED7
:1033D000E66EE66AA0C0E6FFB7EC00F043E9020E35
:1033E00000017C5D3CE0270EE66E960EE66E000E58
:1033F000E66E000EE66E020EE66ED1EC72F045E966
:10340000050106512BE030C6E6FF31C6E6FF32C6A5
:10341000E6FF33C6E6FF0A0EE66EE66A2AC5E6FF59
:103420002BC5E6FF4DEC63F00A0EE66EE66A3CC57E
:10343000E6FF3DC5E6FF4DEC63F010C5E6FF11C5A4
:10344000E6FF830EE66E8F0EE66E000EE66E000E51
:10345000E66E020EE66ED1EC72F04FE92ED0050159
:1034600006512BE030C6E6FF31C6E6FF32C6E6FF66
:1034700033C6E6FF0A0EE66EE66A2AC5E6FF2BC5EE
:10348000E6FF4DEC63F00A0EE66EE66A3CC5E6FF29
:103490003DC5E6FF4DEC63F010C5E6FF11C5E6FF44
:1034A0005B0EE66E8F0EE66E000EE66E000EE66EAA
:1034B000020EE66ED1EC72F04FE9010EE66E010EDF
:1034C000E66EE66AB7EC00F043E9270EE66E960E6C
:1034D000E66E000EE66E000EE66E020EE66ED1ECB3
:1034E00072F045E9050148512BE034C6E6FF35C6C8
:1034F000E6FF36C6E6FF37C6E6FF0A0EE66EE66A68
:103500006CC5E6FF6DC5E6FF4DEC63F00A0EE66E96
:10351000E66A7EC5E6FF7FC5E6FF4DEC63F052C567
:10352000E6FF53C5E6FF330EE66E8F0EE66E000E25
:10353000E66E000EE66E020EE66ED1EC72F04FE91A
:10354000010EE66E020EE66EE66AB7EC00F043E9A5
:10355000270EE66E960EE66E000EE66E000EE66E26
:10356000020EE66ED1EC72F045E905018A512BE0BE
:1035700038C6E6FF39C6E6FF3AC6E6FF3BC6E6FFB9
:103580000A0EE66EE66AAEC5E6FFAFC5E6FF4DEC95
:1035900063F00A0EE66EE66AC0C5E6FFC1C5E6FF47
:1035A0004DEC63F094C5E6FF95C5E6FF0B0EE66EA5
:1035B0008F0EE66E000EE66E000EE66E020EE66EF2
:1035C000D1EC72F04FE9010EE66E030EE66EE66A8C
:1035D000B7EC00F043E9D950010FE96EDACFEAFF0A
:1035E000EE2A000EEE22EE22EE22E66A05EBE6FF60
:1035F00006EBE6FF07EBE6FF08EBE6FF55EC02F013
:1036000045E9000904E11050111001E198D593EC4F
:103610006EF0060EE66EE66AE66AE66A56EC01F0C1
:1036200044E990EC6EF0010EE66EE66AE66AE66A40
:1036300056EC01F044E9106A116A00017C5101E185
:103640008ED296EC6EF0010EE66E05EBE6FF06EB11
:10365000E6FF07EBE6FF08EBE6FF55EC02F045E975
:10366000016A026A036A046A030E00017C5D0DE1CF
:1036700080C0E6FF99EC6EF041E9140EE66EE66A52
:10368000E66AE66A56EC01F044E948EC34F080C0A2
:10369000E6FF99EC6EF041E9E80EE66E030EE66E89
:1036A000E66AE66A01EBE6FF02EBE6FF03EBE6FF04
:1036B00004EBE6FFF6EC63F0E552E5CF03F0E5CF6F
:1036C00002F0E5CF01F0E7CF00F000010051011159
:1036D0000211031101E027D268EC34F0000901E186
:1036E000D6D0AAEC03F0200EE96E060EEA6EEE507C
:1036F0000601145D0001046FEE500601155900012A
:10370000056FEE50060116590001066FEE500601D6
:1037100017590001076F04C0E6FF05C0E6FF06C0A9
:10372000E6FF07C0E6FFBEEC07F044E9FCC300F08B
:10373000FDC301F0FEC302F0FFC303F000C0E6FFCB
:1037400001C0E6FF02C0E6FF03C0E6FF1C0EE96E03
:10375000060EEA6EEE500601105D00010C6FEE5091
:103760000601115900010D6FEE50060112590001BA
:103770000E6FEE500601135900010F6F0CC0E6FFEB
:103780000DC0E6FF0EC0E6FF0FC0E6FFBEEC07F07F
:1037900044E9FCC308F0FDC309F0FEC30AF0FFC30F
:1037A0000BF008C0E6FF09C0E6FF0AC0E6FF0BC049
:1037B000E6FF180EE96E060EEA6EEE5006010C5D8D
:1037C0000001146FEE5006010D590001156FEE5007
:1037D00006010E590001166FEE5006010F59000147
:1037E000176F14C0E6FF15C0E6FF16C0E6FF17C04E
:1037F000E6FFBEEC07F044E9FCC310F0FDC311F096
:10380000FEC312F0FFC313F010C0E6FF11C0E6FFC5
:1038100012C0E6FF13C0E6FFE80EE66E8F0EE66EFE
:10382000000EE66E000EE66E020EE66ED1EC72F051
:1038300051E9000EE66E020EE66EEBEC73F042E923
:1038400006013C5122E006013D511FE006013E51B8
:103850001CE000017C5103E0010E106E116AAAEC1D
:1038600003F0C30EE66E8F0EE66E000EE66E000EDF
:10387000E66E020EE66ED1EC72F045E9000EE66EE1
:10388000020EE66EEBEC73F042E948EC34F0040112
:1038900070A52ED093EC6EF0010EE66E9AEC13F04C
:1038A00041E90BEC61F0060EE66EE66AE66AE66A4E
:1038B00056EC01F044E98B920001010E7B6F000190
:1038C000806B80C0E6FF99EC6EF041E97CC0E6FFBA
:1038D000A9EC6AF041E9AAEC03F0B40EE66E910E91
:1038E000E66E000EE66E6FEC73F043E915EF29F01B
:1038F00019EC29F001EBE6FF02EBE6FF03EBE6FF34
:1039000004EBE6FFF40EE66E8E0EE66E000EE66E3B
:10391000000EE66E020EE66ED1EC72F049E9010E81
:10392000E66EE66AA0C0E6FFB7EC00F043E9270EBA
:10393000E66E960EE66E000EE66E000EE66E020E67
:10394000E66ED1EC72F045E9020E00017C5D2FE0DD
:10395000050106512BE030C6E6FF31C6E6FF32C650
:10396000E6FF33C6E6FF0A0EE66EE66A2AC5E6FF04
:103970002BC5E6FF4DEC63F00A0EE66EE66A3CC529
:10398000E6FF3DC5E6FF4DEC63F010C5E6FF11C54F
:10399000E6FF830EE66E8F0EE66E000EE66E000EFC
:1039A000E66E020EE66ED1EC72F04FE92ED0050104
:1039B00006512BE030C6E6FF31C6E6FF32C6E6FF11
:1039C00033C6E6FF0A0EE66EE66A2AC5E6FF2BC599
:1039D000E6FF4DEC63F00A0EE66EE66A3CC5E6FFD4
:1039E0003DC5E6FF4DEC63F010C5E6FF11C5E6FFEF
:1039F0005B0EE66E8F0EE66E000EE66E000EE66E55
:103A0000020EE66ED1EC72F04FE9010EE66E010E89
:103A1000E66EE66AB7EC00F043E9270EE66E960E16
:103A2000E66E000EE66E000EE66E020EE66ED1EC5D
:103A300072F045E9050148512BE034C6E6FF35C672
:103A4000E6FF36C6E6FF37C6E6FF0A0EE66EE66A12
:103A50006CC5E6FF6DC5E6FF4DEC63F00A0EE66E41
:103A6000E66A7EC5E6FF7FC5E6FF4DEC63F052C512
:103A7000E6FF53C5E6FF330EE66E8F0EE66E000ED0
:103A8000E66E000EE66E020EE66ED1EC72F04FE9C5
:103A9000010EE66E020EE66EE66AB7EC00F043E950
:103AA000270EE66E960EE66E000EE66E000EE66ED1
:103AB000020EE66ED1EC72F045E905018A512BE069
:103AC00038C6E6FF39C6E6FF3AC6E6FF3BC6E6FF64
:103AD0000A0EE66EE66AAEC5E6FFAFC5E6FF4DEC40
:103AE00063F00A0EE66EE66AC0C5E6FFC1C5E6FFF2
:103AF0004DEC63F094C5E6FF95C5E6FF0B0EE66E50
:103B00008F0EE66E000EE66E000EE66E020EE66E9C
:103B1000D1EC72F04FE9010EE66E030EE66EE66A36
:103B2000B7EC00F043E9D950010FE96EDACFEAFFB4
:103B3000EE2A000EEE22EE22EE22E66A05EBE6FF0A
:103B400006EBE6FF07EBE6FF08EBE6FF55EC02F0BD
:103B500045E9000904E11050111001E198D5CBEFBF
:103B600021F00401296B2A6B2B6B2C6B040129516A
:103B7000096E2A510A6E2B510B6E2C510C6E96EC6D
:103B80006EF0140EE66EE66AE66AE66A56EC01F03E
:103B900044E9016A026A036A046ADE0E015C030EEC
:103BA0000258000E0358000E045801E3E5D001EB63
:103BB000E6FF02EBE6FF03EBE6FF04EBE6FFF40EA5
:103BC000E66E8E0EE66E000EE66E000EE66E020EDD
:103BD000E66ED1EC72F049E9010EE66EE66AA0C02D
:103BE000E6FFB7EC00F043E9270EE66E960EE66EB0
:103BF000000EE66E000EE66E020EE66ED1EC72F07E
:103C000045E90501065115E029C4E6FF2AC4E6FF8F
:103C10002BC4E6FF2CC4E6FFD20EE66E8E0EE66ED7
:103C2000000EE66E000EE66E020EE66ED1EC72F04D
:103C300049E9010EE66E010EE66EE66AB7EC00F0A9
:103C400043E9270EE66E960EE66E000EE66E000E57
:103C5000E66E020EE66ED1EC72F045E9010EE66EFC
:103C6000020EE66EE66AB7EC00F043E9010EE66E7E
:103C7000030EE66EE66AB7EC00F043E9010EE66E6D
:103C8000E66AE66AE66A56EC01F044E9190EE66E69
:103C9000E66AE66AE66A01EBE6FF02EBE6FF03EBA3
:103CA000E6FF04EBE6FFF6EC63F0E552E5CF03F048
:103CB000E5CF02F0E5CF01F0E7CF00F000010051C1
:103CC0000111021103111CE109500401291908E135
:103CD0000A502A1905E10B502B1902E10C502C193E
:103CE00006E1E80E016E030E026E036A046A040127
:103CF0002951096E2A510A6E2B510B6E2C510C6EF4
:103D0000040170A52ED093EC6EF0010EE66E9AECD5
:103D100013F041E90BEC61F0060EE66EE66AE66A26
:103D2000E66A56EC01F044E98B920001010E7B6FCC
:103D30000001806B80C0E6FF99EC6EF041E97CC029
:103D4000E6FFA9EC6AF041E9AAEC03F0B40EE66ED6
:103D5000910EE66E000EE66E6FEC73F043E915EF20
:103D600029F0D950010FE96EDACFEAFFEE2A000EF2
:103D7000EE22EE22EE2211D793EC6EF0060EE66EE6
:103D8000E66AE66AE66A56EC01F044E989EC6EF010
:103D9000010EE66EE66AE66AE66A56EC01F044E970
:103DA0000401296B2A6B2B6B2C6B04012951096EC2
:103DB0002A510A6E2B510B6E2C510C6E96EC6EF044
:103DC000140EE66EE66AE66AE66A56EC01F044E92D
:103DD000016A026A036A046ADE0E015C030E02587D
:103DE000000E0358000E045801E3E5D001EBE6FF96
:103DF00002EBE6FF03EBE6FF04EBE6FFAB0EE66E3D
:103E00008F0EE66E000EE66E000EE66E020EE66E99
:103E1000D1EC72F049E9010EE66EE66AA0C0E6FF59
:103E2000B7EC00F043E9270EE66E960EE66E000E44
:103E3000E66E000EE66E020EE66ED1EC72F045E91B
:103E40000501065115E029C4E6FF2AC4E6FF2BC48C
:103E5000E6FF2CC4E6FFD20EE66E8E0EE66E000E76
:103E6000E66E000EE66E020EE66ED1EC72F049E9E7
:103E7000010EE66E010EE66EE66AB7EC00F043E96D
:103E8000270EE66E960EE66E000EE66E000EE66EED
:103E9000020EE66ED1EC72F045E9010EE66E020EFE
:103EA000E66EE66AB7EC00F043E9010EE66E030E3B
:103EB000E66EE66AB7EC00F043E9010EE66EE66AEC
:103EC000E66AE66A56EC01F044E9190EE66EE66A27
:103ED000E66AE66A01EBE6FF02EBE6FF03EBE6FFCC
:103EE00004EBE6FFF6EC63F0E552E5CF03F0E5CF37
:103EF00002F0E5CF01F0E7CF00F000010051011121
:103F0000021103111CE109500401291908E10A50AA
:103F10002A1905E10B502B1902E10C502C1906E16E
:103F2000E80E016E030E026E036A046A0401295151
:103F3000096E2A510A6E2B510B6E2C510C6E040126
:103F400070A52ED093EC6EF0010EE66E9AEC13F095
:103F500041E90BEC61F0060EE66EE66AE66AE66A97
:103F600056EC01F044E98B920001010E7B6F0001D9
:103F7000806B80C0E6FF99EC6EF041E97CC0E6FF03
:103F8000A9EC6AF041E9AAEC03F0B40EE66E910EDA
:103F9000E66E000EE66E6FEC73F043E915EF29F064
:103FA000D950010FE96EDACFEAFFEE2A000EEE22B9
:103FB000EE22EE2211D729C435F42AC436F42BC4DC
:103FC00037F42CC438F493EC6EF000017B6B0001E5
:103FD000806B0A0EE66ED70EE66E230EE66E3C0E82
:103FE000E66E35C4E6FF36C4E6FF37C4E6FF38C4E4
:103FF000E6FF8AEC62F0B7EC65F0F2EC62F0E552B5
:10400000E5CF13F4E5CF12F4E5CF11F4E7CF10F4C8
:104010006DEC0BF0FA0EE66E7E0EE66E2A0EE66E84
:104020003F0EE66E35C4E6FF36C4E6FF37C4E6FF52
:1040300038C4E6FF8AEC62F0B7EC65F0F2EC62F0AF
:10404000E552E5CF13F4E5CF12F4E5CF11F4E7CF55
:1040500010F4290EE96E040EEA6EEE500401105DB4
:104060000001006FEE50040111590001016FEE5084
:10407000040112590001026FEE50040113590001AE
:10408000036F0001DC51420DF3CFE9FFF4CFEAFFEB
:10409000000EE926050EEA220F0EE926000EEA229E
:1040A000050EE926000EEA2200C0EEFF01C0EDFF7A
:1040B0006DEC0BF0FA0EE66E7E0EE66EAA0EE66E64
:1040C0003E0EE66E35C4E6FF36C4E6FF37C4E6FFB3
:1040D00038C4E6FF8AEC62F0B7EC65F0F2EC62F00F
:1040E000E552E5CF13F4E5CF12F4E5CF11F4E7CFB5
:1040F00010F4290EE96E040EEA6EEE500401105D14
:104100000001006FEE50040111590001016FEE50E3
:10411000040112590001026FEE500401135900010D
:10412000036F0001DC51420DF3CFE9FFF4CFEAFF4A
:10413000000EE926050EEA220F0EE926000EEA22FD
:10414000050EE926000EEA2200C0EEFF01C0EDFFD9
:104150006DEC0BF0660EE66E660EE66E660EE66EB3
:104160003F0EE66E35C4E6FF36C4E6FF37C4E6FF11
:1041700038C4E6FF8AEC62F0B7EC65F0F2EC62F06E
:10418000E552E5CF13F4E5CF12F4E5CF11F4E7CF14
:1041900010F4290EE96E040EEA6EEE500401105D73
:1041A0000001006FEE50040111590001016FEE5043
:1041B000040112590001026FEE500401135900016D
:1041C000036F0001DC51420DF3CFE9FFF4CFEAFFAA
:1041D000000EE926050EEA220F0EE926000EEA225D
:1041E000050EE926000EEA2200C0EEFF01C0EDFF39
:1041F0006DEC0BF0CD0EE66ECC0EE66ECC0EE66EE0
:104200003D0EE66E35C4E6FF36C4E6FF37C4E6FF72
:1042100038C4E6FF8AEC62F0B7EC65F0F2EC62F0CD
:10422000E552E5CF13F4E5CF12F4E5CF11F4E7CF73
:1042300010F4290EE96E040EEA6EEE500401105DD2
:104240000001006FEE50040111590001016FEE50A2
:10425000040112590001026FEE50040113590001CC
:10426000036F0001DC51420DF3CFE9FFF4CFEAFF09
:10427000000EE926050EEA220F0EE926000EEA22BC
:10428000050EE926000EEA2200C0EEFF01C0EDFF98
:104290006DEC0BF0E66AE66AE66A3F0EE66E35C440
:1042A000E6FF36C4E6FF37C4E6FF38C4E6FF8AEC13
:1042B00062F0B7EC65F0F2EC62F0E552E5CF13F492
:1042C000E5CF12F4E5CF11F4E7CF10F4290EE96E33
:1042D000040EEA6EEE500401105D0001006FEE5016
:1042E000040111590001016FEE500401125900013F
:1042F000026FEE50040113590001036F0001DC51FD
:10430000420DF3CFE9FFF4CFEAFF000EE926050ED8
:10431000EA220F0EE926000EEA22050EE926000E1B
:10432000EA2200C0EEFF01C0EDFF6DEC0BF0016A68
:10433000026A036A046A030E015C000E0258000E52
:104340000358000E045827E201EBE9FF02EBEAFFF5
:10435000420EEA02F3CFEAFF420EE902F3CFE9FF91
:10436000F450EA26000EE926050EEA220F0EE92691
:10437000000EEA22210EE926000EEA22EE6AED6A1C
:10438000D950010FE96EDACFEAFFEE2A000EEE22D5
:10439000EE22EE22D0D7016A026A036A046A030E93
:1043A000015C000E0258000E0358000E045802E390
:1043B000B3EF27F001EBE9FF02EBEAFF420EEA025E
:1043C000F3CFEAFF420EE902F3CFE9FFF450EA2609
:1043D000000EE926050EEA22060EE926000EEA2264
:1043E000EF5001E1A0D101EBE9FF02EBEAFF420E41
:1043F000EA02F3CFEAFF420EE902F3CFE9FFF450FD
:10440000EA26000EE926050EEA220F0EE926000E26
:10441000EA22090EE926000EEA22EECF00F0EFCFE5
:1044200001F001EBE9FF02EBEAFF420EEA02F3CFF3
:10443000EAFF420EE902F3CFE9FFF450EA26000E4C
:10444000E926050EEA220F0EE926000EEA220B0EDF
:10445000E926000EEA22EECF02F0EFCF03F00001D2
:10446000013501510001031908E600010051000166
:10447000025D00010151000103591DE201EBE9FF5A
:1044800002EBEAFF420EEA02F3CFEAFF420EE90234
:10449000F3CFE9FFF450EA26000EE926050EEA22E2
:1044A0000F0EE926000EEA22210EE926000EEA226E
:1044B000010EEE6EED6A01EBE9FF02EBEAFF420E40
:1044C000EA02F3CFEAFF420EE902F3CFE9FFF4502C
:1044D000EA26000EE926050EEA220F0EE926000E56
:1044E000EA221B0EE926000EEA22EECF00F0EFCF03
:1044F00001F001EBE9FF02EBEAFF420EEA02F3CF23
:10450000EAFF420EE902F3CFE9FFF450EA26000E7B
:10451000E926050EEA220F0EE926000EEA220D0E0C
:10452000E926000EEA22EECF02F0EFCF03F0000101
:10453000033503510001011908E600010251000191
:10454000005D00010351000101591DE201EBE9FF8B
:1045500002EBEAFF420EEA02F3CFEAFF420EE90263
:10456000F3CFE9FFF450EA26000EE926050EEA2211
:104570000F0EE926000EEA22210EE926000EEA229D
:10458000010EEE6EED6A01EBE9FF02EBEAFF420E6F
:10459000EA02F3CFEAFF420EE902F3CFE9FFF4505B
:1045A000EA26000EE926050EEA220F0EE926000E85
:1045B000EA22190EE926000EEA22EECF00F0EFCF34
:1045C00001F001EBE9FF02EBEAFF420EEA02F3CF52
:1045D000EAFF420EE902F3CFE9FFF450EA26000EAB
:1045E000E926050EEA220F0EE926000EEA22130E36
:1045F000E926000EEA22EECF02F0EFCF03F0000131
:10460000013501510001031908E6000100510001C4
:10461000025D00010151000103591DE201EBE9FFB8
:1046200002EBEAFF420EEA02F3CFEAFF420EE90292
:10463000F3CFE9FFF450EA26000EE926050EEA2240
:104640000F0EE926000EEA22210EE926000EEA22CC
:10465000010EEE6EED6A01EBE9FF02EBEAFF420E9E
:10466000EA02F3CFEAFF420EE902F3CFE9FFF4508A
:10467000EA26000EE926050EEA220F0EE926000EB4
:10468000EA22190EE926000EEA22EECF00F0EFCF63
:1046900001F001EBE9FF02EBEAFF420EEA02F3CF81
:1046A000EAFF420EE902F3CFE9FFF450EA26000EDA
:1046B000E926050EEA220F0EE926000EEA22110E67
:1046C000E926000EEA22EECF02F0EFCF03F0000160
:1046D000033503510001011908E6000102510001F0
:1046E000005D00010351000101591DE201EBE9FFEA
:1046F00002EBEAFF420EEA02F3CFEAFF420EE902C2
:10470000F3CFE9FFF450EA26000EE926050EEA226F
:104710000F0EE926000EEA22230EE926000EEA22F9
:10472000010EEE6EED6A01EBE9FF02EBEAFF420ECD
:10473000EA02F3CFEAFF420EE902F3CFE9FFF450B9
:10474000EA26000EE926050EEA220F0EE926000EE3
:10475000EA22210EE926000EEA22EE50ED1001E0D9
:1047600014D201EBE9FF02EBEAFF420EEA02F3CFBB
:10477000EAFF420EE902F3CFE9FFF450EA26000E09
:10478000E926050EEA220F0EE926000EEA221D0E8A
:10479000E926000EEA22010EEE6EED6A01EBE9FF5A
:1047A00002EBEAFF420EEA02F3CFEAFF420EE90211
:1047B000F3CFE9FFF450EA26000EE926050EEA22BF
:1047C0000F0EE926000EEA221F0EE926000EEA224D
:1047D000010EEE6EED6A01EBE9FF02EBEAFF420E1D
:1047E000EA02F3CFEAFF420EE902F3CFE9FFF45009
:1047F000EA26000EE926050EEA220D0EE926000E35
:10480000EA22EECF00F0EFCF01F001EBE9FF02EB7F
:10481000EAFF420EEA02F3CFEAFF420EE902F3CFCB
:10482000E9FFF450EA26000EE926050EEA220F0EF3
:10483000E926000EEA222F0EE926000EEA2200C029
:10484000EEFF01C0EDFF01EBE9FF02EBEAFF420ED4
:10485000EA02F3CFEAFF420EE902F3CFE9FFF45098
:10486000EA26000EE926050EEA22060EE926000ECB
:10487000EA22EF5001E188D1020E00017C5D04E0E4
:10488000580E01240D6E02D0410E0D6EAAEC03F0FD
:1048900001EBE9FF02EBEAFF420EEA02F3CFEAFF87
:1048A000420EE902F3CFE9FFF450EA26000EE926B2
:1048B000050EEA220F0EE926000EEA22230EE92653
:1048C000000EEA22EE50ED1018E10DEB00F00001B1
:1048D000016B00BF016900C0E6FF01C0E6FFA60E44
:1048E000E66E8E0EE66E000EE66E000EE66E020EB0
:1048F000E66ED1EC72F047E917D00DEB00F0000145
:10490000016B00BF016900C0E6FF01C0E6FF6D0E4C
:10491000E66E8E0EE66E000EE66E000EE66E020E7F
:10492000E66ED1EC72F047E9000EE66E020EE66E1E
:10493000EBEC73F042E901EBE9FF02EBEAFF420E18
:10494000EA02F3CFEAFF420EE902F3CFE9FFF450A7
:10495000EA26000EE926050EEA220F0EE926000ED1
:10496000EA220B0EE926000EEA22EECFE6FFEECF9A
:10497000E6FF01EBE9FF02EBEAFF420EEA02F3CFAA
:10498000EAFF420EE902F3CFE9FFF450EA26000EF7
:10499000E926050EEA220F0EE926000EEA22090E8C
:1049A000E926000EEA22EECFE6FFEECFE6FF560E36
:1049B000E66E8E0EE66E000EE66E000EE66E020EDF
:1049C000E66ED1EC72F049E9000EE66E020EE66E7C
:1049D000EBEC73F042E9520EE66E9E0EE66E000EB0
:1049E000E66E6FEC73F043E901EBE9FF02EBEAFFDF
:1049F000420EEA02F3CFEAFF420EE902F3CFE9FFEB
:104A0000F450EA26000EE926050EEA220F0EE926EA
:104A1000000EEA220D0EE926000EEA22EECFE6FF96
:104A2000EECFE6FF01EBE9FF02EBEAFF420EEA02FE
:104A3000F3CFEAFF420EE902F3CFE9FFF450EA2692
:104A4000000EE926050EEA220F0EE926000EEA22E4
:104A50001B0EE926000EEA22EECFE6FFEECFE6FFC0
:104A60003F0EE66E8E0EE66E000EE66E000EE66EF1
:104A7000020EE66ED1EC72F049E9000EE66E020E0F
:104A8000E66EEBEC73F042E9520EE66E9E0EE66EB9
:104A9000000EE66E6FEC73F043E901EBE9FF02EB09
:104AA000EAFF420EEA02F3CFEAFF420EE902F3CF39
:104AB000E9FFF450EA26000EE926050EEA220F0E61
:104AC000E926000EEA22110EE926000EEA22EECFB8
:104AD000E6FFEECFE6FF01EBE9FF02EBEAFF420E55
:104AE000EA02F3CFEAFF420EE902F3CFE9FFF45006
:104AF000EA26000EE926050EEA220F0EE926000E30
:104B0000EA22190EE926000EEA22EECFE6FFEECFEA
:104B1000E6FF01EBE9FF02EBEAFF420EEA02F3CF08
:104B2000EAFF420EE902F3CFE9FFF450EA26000E55
:104B3000E926050EEA220F0EE926000EEA22130EE0
:104B4000E926000EEA22EECFE6FFEECFE6FF280EC2
:104B5000E66E8E0EE66E000EE66E000EE66E020E3D
:104B6000E66ED1EC72F04BE9000EE66E020EE66ED8
:104B7000EBEC73F042E9520EE66E9E0EE66E000E0E
:104B8000E66E6FEC73F043E9E2D101EBE9FF02EB73
:104B9000EAFF420EEA02F3CFEAFF420EE902F3CF48
:104BA000E9FFF450EA26000EE926050EEA22060E79
:104BB000E926000EEA22EF5001E1C9D10401709507
:104BC000020E00017C5D04E0580E01240D6E02D03F
:104BD000410E0D6EAAEC03F04B0EE66E9E0EE66ED5
:104BE000000EE66E6FEC73F043E90DEB00F0000190
:104BF000016B00BF016900C0E6FF01C0E6FF120EB5
:104C0000E66E8E0EE66E000EE66E000EE66E020E8C
:104C1000E66ED1EC72F047E9010EE66EE66AA0C0DE
:104C2000E6FFB7EC00F043E9000EE66E020EE66E1A
:104C3000EBEC73F042E9520EE66E9E0EE66E000E4D
:104C4000E66E6FEC73F043E901EBE9FF02EBEAFF7C
:104C5000420EEA02F3CFEAFF420EE902F3CFE9FF88
:104C6000F450EA26000EE926050EEA220F0EE92688
:104C7000000EEA220B0EE926000EEA22EECFE6FF36
:104C8000EECFE6FF01EBE9FF02EBEAFF420EEA029C
:104C9000F3CFEAFF420EE902F3CFE9FFF450EA2630
:104CA000000EE926050EEA220F0EE926000EEA2282
:104CB000090EE926000EEA22EECFE6FFEECFE6FF70
:104CC000FB0EE66E8D0EE66E000EE66E000EE66ED4
:104CD000020EE66ED1EC72F049E9010EE66E010EAD
:104CE000E66EE66AB7EC00F043E9000EE66E020EEF
:104CF000E66EEBEC73F042E9520EE66E9E0EE66E47
:104D0000000EE66E6FEC73F043E901EBE9FF02EB96
:104D1000EAFF420EEA02F3CFEAFF420EE902F3CFC6
:104D2000E9FFF450EA26000EE926050EEA220F0EEE
:104D3000E926000EEA220D0EE926000EEA22EECF49
:104D4000E6FFEECFE6FF01EBE9FF02EBEAFF420EE2
:104D5000EA02F3CFEAFF420EE902F3CFE9FFF45093
:104D6000EA26000EE926050EEA220F0EE926000EBD
:104D7000EA221B0EE926000EEA22EECFE6FFEECF76
:104D8000E6FFE40EE66E8D0EE66E000EE66E000E99
:104D9000E66E020EE66ED1EC72F049E9010EE66EA7
:104DA000020EE66EE66AB7EC00F043E9000EE66E2E
:104DB000020EE66EEBEC73F042E9520EE66E9E0ECA
:104DC000E66E000EE66E6FEC73F043E901EBE9FF6F
:104DD00002EBEAFF420EEA02F3CFEAFF420EE902DB
:104DE000F3CFE9FFF450EA26000EE926050EEA2289
:104DF0000F0EE926000EEA22110EE926000EEA2225
:104E0000EECFE6FFEECFE6FF01EBE9FF02EBEAFFB4
:104E1000420EEA02F3CFEAFF420EE902F3CFE9FFC6
:104E2000F450EA26000EE926050EEA220F0EE926C6
:104E3000000EEA22190EE926000EEA22EECFE6FF66
:104E4000EECFE6FF01EBE9FF02EBEAFF420EEA02DA
:104E5000F3CFEAFF420EE902F3CFE9FFF450EA266E
:104E6000000EE926050EEA220F0EE926000EEA22C0
:104E7000130EE926000EEA22EECFE6FFEECFE6FFA4
:104E8000280EE66E8E0EE66E000EE66E000EE66EE4
:104E9000020EE66ED1EC72F04BE9010EE66E030EE7
:104EA000E66EE66AB7EC00F043E9000EE66E020E2D
:104EB000E66EEBEC73F042E9520EE66E9E0EE66E85
:104EC000000EE66E6FEC73F043E9010EE66E010E24
:104ED000E66EADEC6EF042E9020E00017C5D04E08E
:104EE000580E01240D6E02D0410E0D6EAAEC03F097
:104EF0000DEB00F00001016B00BF016900C0E6FF8F
:104F000001C0E6FFB80EE66E8D0EE66E000EE66E90
:104F1000000EE66E020EE66ED1EC72F047E9000E6E
:104F2000E66E020EE66EEBEC73F042E9020EE66E00
:104F300015EC61F041E90400040170A5F7D7E66AB9
:104F4000010EE66EADEC6EF042E90BEC61F0D9506B
:104F5000010FE96EDACFEAFFEE2A000EEE22EE2212
:104F6000EE22CFEF21F093EC6EF0060EE66EE66ACD
:104F7000E66AE66A56EC01F044E98B9200017B6B2D
:104F80000001806B0BEC61F00001865101E032D131
:104F9000016A026A036A046A050EE66E15EC61F0A6
:104FA00041E9A30EE66E8D0EE66E000EE66E000E73
:104FB000E66E020EE66ED1EC72F045E9010EE66E89
:104FC000E66AA0C0E6FFB7EC00F043E9040170A573
:104FD0009AD08F80AAEC03F0850EE66E8D0EE66EF9
:104FE000000EE66E000EE66E020EE66ED1EC72F07A
:104FF00045E9000EE66E020EE66EEBEC73F042E958
:10500000010EE66EE66AA0C0E6FFB7EC00F043E9E9
:10501000060EE66EE66AE66AE66A56EC01F044E9D8
:105020000BEC61F0270EE66E960EE66E000EE66E55
:10503000000EE66E020EE66ED1EC72F045E9010E4E
:10504000E66E010EE66EE66AB7EC00F043E9270E65
:10505000E66E960EE66E000EE66E000EE66E020E30
:10506000E66ED1EC72F045E9010EE66E020EE66ED8
:10507000E66AB7EC00F043E9270EE66E960EE66EA0
:10508000000EE66E000EE66E020EE66ED1EC72F0D9
:1050900045E9010EE66E030EE66EE66AB7EC00F037
:1050A00043E9020EE66E90EC10F041E9AAEC03F041
:1050B000680EE66E8D0EE66E000EE66E000EE66E73
:1050C000020EE66ED1EC72F045E9000EE66E020EBD
:1050D000E66EEBEC73F042E9010EE66EE66AA0C004
:1050E000E6FFB7EC00F043E9060EE66EE66AE66A14
:1050F000E66A56EC01F044E9A00E016E860E026EDF
:10510000010E036E046A0400040104017051040BD3
:105110001DE1D950010FE96EDACFEAFFEFCF00F0C1
:10512000EE2A000EEFCF01F0EE22EFCF02F0EE22DA
:10513000EFCF03F0EF22E80E0001005D030E0159EE
:10514000000E0259000E035901E22BD74A0EE66EFB
:105150008D0EE66E000EE66E000EE66E020EE66E38
:10516000D1EC72F045E9010EE66EE66AE66AB7EC4C
:1051700000F043E9270EE66E960EE66E000EE66E30
:10518000000EE66E020EE66ED1EC72F045E9010EFD
:10519000E66E010EE66EE66AB7EC00F043E9270E14
:1051A000E66E960EE66E000EE66E000EE66E020EDF
:1051B000E66ED1EC72F045E9010EE66E020EE66E87
:1051C000E66AB7EC00F043E9270EE66E960EE66E4F
:1051D000000EE66E000EE66E020EE66ED1EC72F088
:1051E00045E9010EE66E030EE66EE66AB7EC00F0E6
:1051F00043E900D000017B6B0001806B060EE66E78
:10520000E66AE66AE66A56EC01F044E90BEC61F006
:10521000C9EC13F0AAEC03F0050EE66E900EE66EF4
:10522000000EE66E6FEC73F043E952E9E7CFD9FF69
:105230001200E5EC34F000018C5151E0EBC4E6FFC4
:10524000ECC4E6FFE9C4E6FFEAC4E6FFE7C4E6FF14
:10525000E8C4E6FF9AEC32F0ACEC32F088EC32F0C5
:10526000150EE66E8D0EE66E000E5AEC2DF091ECEA
:1052700030F0A3EC32F0B5EC32F091EC32F0F20EFB
:10528000E66E8C0EE66E000E5AEC2DF051E938EC0D
:1052900031F09CC5E6FF9DC5E6FF96C5E6FF97C5C4
:1052A000E6FF16EC34F05AC5E6FF5BC5E6FF54C5D1
:1052B000E6FF55C5E6FF7CEC2FF018C5E6FF19C5E3
:1052C000E6FF12C5E6FF13C5E6FFD3EC33F0B40EDC
:1052D000E66E8C0EE66E000EEDDB91EC30F0120007
:1052E0000501C80EC86FECEC2EF0A5EC30F027E0FD
:1052F0002B0EE66E05EC72F041E9A5EC30F0FDE115
:10530000ECEC2EF02B0EE66E05EC72F041E9A5EC0C
:1053100030F0FDE10C0EE66E76EC74F041E9A5ECA0
:1053200030F0FDE1010EE66E76EC74F041E9ECEC54
:105330002EF00001010EF66F0501180EC86F120065
:105340000001806B120EE66E220EE66EF3EC70F03A
:1053500042E99F0EE66E8C0EE66E000EE66E000EC3
:10536000E66E020EE66ED1EC72F045E9010EE66ED5
:10537000E66AE66AB7EC00F043E9010EE66E010E5C
:10538000E66EE66AB7EC00F043E9010EE66E020E47
:10539000E66EE66AB7EC00F043E9010EE66E030E36
:1053A000E66EE66AB7EC00F043E9120EE66E220EF6
:1053B000E66EA4EC71F042E98F9092DF8B68FCAE50
:1053C00015D0FC9E520EE66E9E0EE66E000EE66E48
:1053D0006FEC73F043E9AAEC03F07A0EE66E8C0EE4
:1053E000E66E000EE66E6FEC73F043E9FCAC15D090
:1053F000FC9C520EE66E9E0EE66E000EE66E6FECA4
:1054000073F043E9AAEC03F0500EE66E8C0EE66EE4
:10541000000EE66E6FEC73F043E90001735114E087
:10542000520EE66E9E0EE66E000EE66E6FEC73F0A8
:1054300043E9AAEC03F0270EE66E8C0EE66E000E32
:10544000E66E6FEC73F043E90001745114E0520E04
:10545000E66E9E0EE66E000EE66E6FEC73F043E9AC
:10546000AAEC03F0FE0EE66E8B0EE66E000EE66E04
:105470006FEC73F043E9140EE66EE66AE60EE66E34
:105480008B0EE66E000EE66E000EE66E020EE66E07
:10549000BFEC70F047E9010EE66EE66AE66AB7EC2B
:1054A00000F043E94D0EE66E9E0EE66E000EE66ECF
:1054B0006FEC73F043E9140EE66EE66A9DC0E6FFFA
:1054C0009EC0E6FF9FC0E6FF000EE66E020EE66E8F
:1054D000BFEC70F047E9010EE66E010EE66EE66A7B
:1054E000B7EC00F043E9000EE66E020EE66EEBEC60
:1054F00073F042E94B0EE66E9E0EE66E000EE66E0F
:105500006FEC73F043E9140EE66EE66A9AC0E6FFAC
:105510009BC0E6FF9CC0E6FF000EE66E020EE66E44
:10552000BFEC70F047E9000EE66E020EE66EEBECA3
:1055300073F042E9010EE66E020EE66EE66AB7EC23
:1055400000F043E9140EE66EE66A350EE66E9E0E36
:10555000E66E000EE66E000EE66E020EE66EBFEC24
:1055600070F047E9000EE66E020EE66EEBEC73F0AB
:1055700042E9520EE66E9E0EE66E000EE66E6FEC8F
:1055800073F043E9010EE66E030EE66EE66AB7ECD1
:1055900000F043E9AAEC03F0C70EE66E8B0EE66E50
:1055A000000EE66E6FEC73F043E983A20CD00001AD
:1055B000010E8C6FAF0EE66E8B0EE66E000EE66E81
:1055C0006FEC73F043E983A039D0AAEC03F0960E98
:1055D000E66E8B0EE66E000EE66E6FEC73F043E93E
:1055E000000EE66EE66A000EE66EE66A010EE66EF4
:1055F000E66ACFEC6FF046E9AAEC03F0790EE66EAE
:105600008B0EE66E000EE66E6FEC73F043E905015B
:10561000FA6B0F0E0501FA5D11E2080EE66EE66AFE
:105620000501FA51E66EE66A0F0EE66E7F0EE66E33
:10563000CFEC6FF046E90501FA2BEBD7AAEC03F0AB
:10564000590EE66E8B0EE66E000EE66E6FEC73F092
:1056500043E9000EE66EE66A000EE66EE66A01ECCD
:1056600070F044E959080CE1000EE66EE66A020E9D
:10567000E66EE66A01EC70F044E90501F96F22D0AC
:10568000AAEC03F0360EE66E8B0EE66E000EE66EAA
:105690006FEC73F043E9000EE66EE66A000EE66E0C
:1056A000E66A010EE66EE66ACFEC6FF046E9AAEC18
:1056B00003F0160EE66E8B0EE66E000EE66E6FECD5
:1056C00073F043E9AAEC03F0FD0EE66E8A0EE66E77
:1056D000000EE66E6FEC73F043E9080EE66EE66AC4
:1056E000000EE66EE66A01EC70F044E959081FE12D
:1056F0000501FA6B0F0E0501FA5D18E20501FA517A
:10570000E66EE66A0A0EE66EE66A01EC70F044E9BF
:10571000E66E0501FA51EA6AE50FE96E000EEA222B
:10572000E552E750EF6E0501FA2BE4D734D0AAEC2E
:1057300003F0E10EE66E8A0EE66E000EE66E6FEC8A
:1057400073F043E90501FA6B0F0E0501FA5D18E2EB
:10575000080EE66EE66A0501FA51E66EE66A0F0E7D
:10576000E66E0501FA51EA6AE50FE96E000EEA22DB
:10577000EFCFE6FFCFEC6FF046E90501FA2BE4D757
:10578000AAEC03F0C80EE66E8A0EE66E000EE66E18
:105790006FEC73F043E983A403D04EEC0AF0FFD71B
:1057A000B4EC43F0AAEC03F0AF0EE66E8A0EE66EA0
:1057B000000EE66E6FEC73F043E9050EE66EE66AE6
:1057C000E66AE66A56EC01F044E9E5EC34F083A0C1
:1057D0000BD0AAEC03F0990EE66E8A0EE66E000E70
:1057E000E66E6FEC73F043E983A60ED0AAEC03F0EB
:1057F0007C0EE66E8A0EE66E000EE66E6FEC73F0BF
:1058000043E900010F0EF76F740EE66E030EE66EAD
:1058100004C6E6FF05C6E6FF06C6E6FF07C6E6FFC6
:10582000EFEC07F046E97B0EE66E030EE66E08C667
:10583000E6FF09C6E6FF0AC6E6FF0BC6E6FFEFEC89
:1058400007F046E97B0EE66E030EE66E740EE66E1A
:10585000030EE66E630EE66E8A0EE66E000EE66ED0
:10586000000EE66E020EE66ED1EC72F049E9010E12
:10587000E66EE66AE66AB7EC00F043E98350010B96
:10588000E66EE66A8350020B01E0010EE66EE66A00
:105890008350040B01E0010EE66EE66A8350080BAC
:1058A00001E0010EE66EE66A8350100B01E0010E86
:1058B000E66EE66A8350200B01E0010EE66EE66AB2
:1058C0008350400B01E0010EE66EE66A8350800BC8
:1058D00001E0010EE66EE66A3A0EE66E8A0EE66EAC
:1058E000000EE66E000EE66E020EE66ED1EC72F071
:1058F00055E9010EE66E010EE66EE66AB7EC00F0C1
:1059000043E9AAEC03F0000EE66E020EE66EEBEC45
:1059100073F042E92BEC03F0050EE66EE66AE66AE8
:10592000E66A56EC01F044E9E5EC34F004C6E6FF23
:1059300005C6E6FFFDEC74F042E9B4EC71F08B6A49
:105940000001846B0001886B00017A6B00017C51BF
:10595000E66EE66AEAEC0DF042E97CC0E6FFA9ECEF
:105960006AF041E90001010E676F740EE66E030EE6
:10597000E66E04C6E6FF05C6E6FF06C6E6FF07C6F6
:10598000E6FFEFEC07F046E97B0EE66E030EE66EEF
:1059900008C6E6FF09C6E6FF0AC6E6FF0BC6E6FF35
:1059A000EFEC07F046E910C4E6FF11C4E6FF12C4AD
:1059B000E6FF13C4E6FF00C4E6FF01C4E6FF02C42D
:1059C000E6FF03C4E6FF7B0EE66E030EE66E740E82
:1059D000E66E030EE66E190EE66E8A0EE66E000E99
:1059E000E66E000EE66E020EE66ED1EC72F051E944
:1059F000010EE66EE66AE66AB7EC00F043E9AAEC4F
:105A000003F0000EE66E020EE66EEBEC73F042E978
:105A10002BEC03F0280EE66E1AEC61F041E9050E5E
:105A2000E66EE66AE66AE66A56EC01F044E932ECB4
:105A30000BF0010EE66E010EE66EE66AE66AE66AB5
:105A400090EC02F045E9E5EC34F084EC6EF00009EE
:105A500005E00001655102E0B4EC43F04CEC11F0BC
:105A600004000001815112E0DEEC13F0AAEC0EF00C
:105A70000401D66FD60EE66E040EE66EEAEC0DF06B
:105A800042E9D6C4E6FFBEEC0AF041E904000EECA0
:105A900001F06DEC0BF00001835102E00001A26BFC
:105AA000D2D71200420D1BEC34F0000EE926050E91
:105AB000EA221200E66EC6EC33F0D1EF72F0D2DBD0
