:020000040000FA
:06000000DCEF75F01200B8
:020006001200E6
:06000800E5EF59F01200C3
:02000E00C250DE
:08001000020B01E0010E1200D9
:0600180079EF60F0120018
:02001E000700D9
:1000200011EC0000F90400000100000002ED0000E6
:10003000F404000002000000FEEC0000FB020000DF
:100040000400000065EC0000600000009900000062
:1000500053EC0000EA0300001200000051EC000025
:10006000F2040000020000001EEC0000C2050000C7
:040070003300000059
:0C00740012EC2FF083E941E80150050870
:1000800001E2016A005003E05DEC30F0EF6A01EB41
:10009000C7F50001020E036F9F0E046F000E056F7F
:1000A0009DEC30F0E5CF08F0DAEC31F000014EECD9
:1000B00033F05DEC30F0EFCF09F00A6B0B6B0051C1
:1000C0000925F36E01510A21F46E02510B21F86EDD
:1000D000F4CFF7FFF3CFF6FF0800F550036E5DECA9
:1000E00030F0EF2AEFCF00F0016B026BC5EC33F07C
:1000F00002C0E6FF020E096F9F0E0A6F000E0B6F23
:100100009DEC30F0E5CF0EF0E5CF0DF0E7CF0CF031
:10011000000109510C25066F0A510D21076F0B5183
:100120000E21086FF2EC34F0E66EB8EC6FF043E9A4
:10013000E552E7CF02F0E552E7CF01F0E552E7CF15
:1001400000F0FCC303F0FDC304F0FEC305F00001A2
:100150000351005D045101590551025903E35DEC5F
:1001600030F0EF6A035042E9E7CFD9FF120012ECFA
:100170002FF084E90001F6514FE0005021E00250D9
:1001800001240501C86FE5EC33F0970EE66E9D0E75
:10019000E66E000EE66E57EC2FF00BEC70F047E9C0
:1001A000E5EC33F0BBEC34F0050157EC2FF0DDEC5F
:1001B0006FF046E9050139EC33F0140EDDEC30F058
:1001C0000150030A0CE0010A08E0030A04E0010AF6
:1001D00009E1E66A08D0400E03D0140E01D0540E97
:1001E000E66E01D0E66A5AEC73F041E90150000175
:1001F000A0250501C86F00016A510EE0A1EC31F0A5
:10020000FDE1050157EC2FF089EC74F042E9A1EC17
:1002100031F0FDE1010E90162BEF2FF000016E5131
:1002200004E06FEC43F000016E6B725107E0726BFB
:10023000F85102E0000E01D0010EF86F755104E094
:1002400021EC11F00001756B685103E0A7DA0001A1
:10025000686B715104E001EC07F00001716B6F51A4
:1002600003E0BDDA00016F6B1200D9CFE6FFE1CFEA
:10027000D9FF85E90401766B776B786B796B0401A4
:100280007651005C775101587851025879510358E2
:1002900009E3000004000401762B000E7723782385
:1002A0007923EDD741E9E7CFD9FF1200D9CFE6FF97
:1002B000E1CFD9FF85E9030EE66E96EC6EF041E9D9
:1002C00092C67AF493C67BF494C67CF495C67DF40A
:1002D000E2EC6EF0D9CFE9FFDACFEAFF04017A5100
:1002E000EE240401826F04017B51EE200401836F30
:1002F00004017C51EE200401846F04017D51EE2045
:100300000401856F030EE66E96EC6EF041E992C62D
:100310007EF493C67FF494C680F495C681F4E2EC33
:100320006EF004007E0EE96E040EEA6E0401825146
:10033000EE5C8351EE588451EE588551EE58E2E35D
:1003400041E9E7CFD9FF12001EEC33F019E049EC88
:100350002FF092C686F493C687F494C688F495C6A7
:1003600089F48CEC2FF004018651EE248E6F8751B6
:10037000EE208F6F8851EE20906F8951EE20916FA3
:1003800049EC2FF092C68AF493C68BF494C68CF491
:1003900095C68DF4E2EC6EF08A0EE96E040EEA6EFC
:1003A00004018E51EE5C8F51EE589051EE589151F0
:1003B000EE5802E2000E01D0010E2BEF2FF01EECE2
:1003C00033F019E049EC2FF092C692F493C693F4FF
:1003D00094C694F495C695F48CEC2FF004019251D8
:1003E000EE249A6F9351EE209B6F9451EE209C6FF8
:1003F0009551EE209D6F49EC2FF092C696F493C66E
:1004000097F494C698F495C699F4E2EC6EF0960EC3
:10041000E96E040EEA6E04019A51EE5C9B51EE58AF
:100420009C51EE589D51EE5802E2000E01D0010E93
:100430002BEF2FF01EEC33F019E049EC2FF092C6B1
:100440009EF493C69FF494C6A0F495C6A1F48CECD8
:100450002FF004019E51EE24A66F9F51EE20A76F4E
:10046000A051EE20A86FA151EE20A96F49EC2FF00A
:1004700092C6A2F493C6A3F494C6A4F495C6A5F4B8
:10048000E2EC6EF0A20EE96E040EEA6E0401A651D3
:10049000EE5CA751EE58A851EE58A951EE5802E271
:1004A000000E01D0010E2BEF2FF01EEC33F019E0FF
:1004B00049EC2FF092C6AAF493C6ABF494C6ACF400
:1004C00095C6ADF48CEC2FF00401AA51EE24B26F66
:1004D000AB51EE20B36FAC51EE20B46FAD51EE20B6
:1004E000B56F49EC2FF092C6AEF493C6AFF494C644
:1004F000B0F495C6B1F4E2EC6EF0AE0EE96E040E07
:10050000EA6E0401B251EE5CB351EE58B451EE58AC
:10051000B551EE5802E2000E01D0010E2BEF2FF084
:100520001EEC33F019E049EC2FF092C6B6F493C6F6
:10053000B7F494C6B8F495C6B9F48CEC2FF0040166
:10054000B651EE24BE6FB751EE20BF6FB851EE200A
:10055000C06FB951EE20C16F49EC2FF092C6BAF4CA
:1005600093C6BBF494C6BCF495C6BDF4E2EC6EF041
:10057000BA0EE96E040EEA6E0401BE51EE5CBF5184
:10058000EE58C051EE58C151EE5802E2000E01D0B3
:10059000010E2BEF2FF01EEC33F019E049EC2FF099
:1005A00092C6C2F493C6C3F494C6C4F495C6C5F407
:1005B0008CEC2FF00401C251EE24CA6FC351EE201F
:1005C000CB6FC451EE20CC6FC551EE20CD6F49ECFE
:1005D0002FF092C6C6F493C6C7F494C6C8F495C665
:1005E000C9F4E2EC6EF0C60EE96E040EEA6E040188
:1005F000CA51EE5CCB51EE58CC51EE58CD51EE586D
:1006000002E2000E01D0010E2BEF2FF000000401DA
:10061000CE6B0501C2510401CE5D04E2000004016D
:10062000CE2BF7D712000F0EE66EE7EC74F041E91F
:100630001200050EE66EE7EC74F041E9120012ECD0
:100640002FF082E96CA2FED700EBE6FF7FEC75F09D
:1006500041E92BEF2FF0050E52EF2FF000016A5108
:1006600001E11200A1EC31F0FDE1120012EC2FF0DB
:1006700089E903340EE202500808000E035409E22F
:1006800004EBFCF305EBFDF306EBFEF307EBFFF3E6
:100690005FD00050011009E000018F0E926FC20E72
:1006A000936F750E946F3D0E06D00001926B936BA5
:1006B000800E946F3E0E956FCEEC32F092C0E6FF46
:1006C00093C0E6FF94C0E6FF95C0E6FFCFEC34F0A0
:1006D000CEEC32F004EBE6FF05EBE6FF06EBE6FFBF
:1006E00007EBE6FF43EC65F0C3EC60F043EC65F02C
:1006F000CFEC34F0C5EC60F0C5EC63F0E552E5CF2B
:1007000099F0E5CF98F0E5CF97F0E7CF96F03AEC87
:100710002FF096C0EEFF97C0EEFF98C0EEFF99C095
:10072000EEFF001C0DE1011C0BE10001966B976BC5
:10073000986B996B3AEC2FF0EE6AEE6AEE6AEE6A0D
:1007400096C0FCF397C0FDF398C0FEF399C0FFF389
:100750002BEF2FF004004EC6E6FF4FC6E6FF50C653
:10076000E6FF51C6E6FF66DB44E9F3CFE6FFF4CFD0
:10077000E6FF900EE66E9D0EE66E000EE66E200E13
:10078000E66E030EE66E1DEC72F047E9200EE66E93
:10079000030EE66E37EC73F042E91200DBDF170E52
:1007A000E66EA90EE66E000E23EC32F00401236B18
:1007B000040123510AE10A0E9BEC32F056DD44E9B4
:1007C000DFEC35F08AEC60F0F3D7020E235DC2DF78
:1007D000750EE66EA90EE66E000E23EF32F00400F1
:1007E0008D0EE66E9D0EE66E000EE66E000EE66E57
:1007F000020EE66E1DEC72F045E9000EE66E020E8A
:10080000E66E37EC73F042E9A5DF880EE66E9D0ECA
:10081000E66E000EE66EBBEC72F043E99DC0E6FFAB
:100820009EC0E6FF9FC0E6FF000EE66E020EE66E7B
:100830009FEC6FF045E9000EE66E020EE66E37ECB7
:1008400073F042E9860EE66E9D0EE66E000EE66ED1
:10085000BBEC72F043E99AC0E6FF9BC0E6FF9CC088
:10086000E6FF000EE66E020EE66E9FEC6FF045E9C5
:10087000000EE66E020EE66E37EC73F042E9700E83
:10088000E66E9D0EE66E000EE66E000EE66E020E41
:10089000E66E9FEC6FF045E9000EE66E020EE66E26
:1008A00037EC73F042E900018351E66EE66A00011D
:1008B0006051E66EE66A5AC6E6FF5BC6E6FF5CC6B6
:1008C000E6FF5DC6E6FF56C6E6FF57C6E6FF58C61A
:1008D000E6FF59C6E6FF44C6E6FF45C6E6FF01C689
:1008E000E6FF02C6E6FF03C6E6FF04C6E6FF835046
:1008F000800B01E0010EE66EE66A8350400B01E0DA
:10090000010EE66EE66A8350200B01E0010EE66EF2
:10091000E66A8350100B01E0010EE66EE66A835032
:10092000080B01E0010EE66EE66A8350040B01E05D
:10093000010EE66EE66A8350020B01E0010EE66EE0
:10094000E66A8350010BE66EE66A00016351E66ECB
:10095000E66AE10EE66E9C0EE66E000EE66E000E96
:10096000E66E020EE66E1DEC72F069E9000EE66EB0
:10097000020EE66E37EC73F042E90601A651E66E10
:10098000E66A7850E66EE66A6AC6E6FF6BC6E6FF80
:100990006CC6E6FF6DC6E6FF4EC6E6FF4FC6E6FF35
:1009A00050C6E6FF51C6E6FF92C6E6FF93C6E6FFD5
:1009B00094C6E6FF95C6E6FF7FEC63F092C6E6FFBD
:1009C00093C6E6FF94C6E6FF95C6E6FF8EC6E6FF31
:1009D0008FC6E6FF90C6E6FF91C6E6FF52C6E6FF69
:1009E00053C6E6FF54C6E6FF55C6E6FF4AC6E6FF15
:1009F0004BC6E6FF4CC6E6FF4DC6E6FF62C6E6FF05
:100A000063C6E6FF64C6E6FF65C6E6FF8AC6E6FF84
:100A10008BC6E6FF8CC6E6FF8DC6E6FF86C6E6FF00
:100A200087C6E6FF88C6E6FF89C6E6FF6EC6E6FF14
:100A30006FC6E6FF70C6E6FF71C6E6FF4EC6E6FF6C
:100A40004FC6E6FF50C6E6FF51C6E6FF220EE66E31
:100A50009C0EE66E000EE66E000EE66E020EE66E70
:100A60001DEC72F075E9000EE66E020EE66E37ECD4
:100A700073F042E929C4E6FF2AC4E6FF2BC4E6FF6F
:100A80002CC4E6FF66C6E6FF67C6E6FF68C6E6FF5B
:100A900069C6E6FF72C6E6FF73C6E6FF74C6E6FFE8
:100AA00075C6E6FF76C6E6FF77C6E6FF78C6E6FFC0
:100AB00079C6E6FF7AC6E6FF7BC6E6FF7CC6E6FFA0
:100AC0007DC6E6FF7EC6E6FF7FC6E6FF80C6E6FF80
:100AD00081C6E6FFC30EE66E9B0EE66E000EE66E66
:100AE000000EE66E020EE66E1DEC72F05DE9000E81
:100AF000E66E020EE66E37EC73F042E90401CF6B4E
:100B0000030E0401CF5D01E36ED10401CF51400D0E
:100B1000F3CFE9FFF4CFEAFF000EE926050EEA2243
:100B2000060EE926000EEA22EF5001E159D1040138
:100B3000CF51400DF3CFE9FFF4CFEAFF000EE926D5
:100B4000050EEA220F0EE926000EEA221B0EE92608
:100B5000000EEA22EECFE6FFEECFE6FF0401CF5112
:100B6000400DF3CFE9FFF4CFEAFF000EE926050EB2
:100B7000EA220F0EE926000EEA22190EE926000EDF
:100B8000EA22EECFE6FFEECFE6FF0401CF51400DA3
:100B9000F3CFE9FFF4CFEAFF000EE926050EEA22C3
:100BA0000F0EE926000EEA222D0EE926000EEA229B
:100BB000EECFE6FFEECFE6FF0401CF51400DF3CFBD
:100BC000E9FFF4CFEAFF000EE926050EEA220F0E38
:100BD000E926000EEA222B0EE926000EEA22EECFCD
:100BE000E6FFEECFE6FF0401CF51400DF3CFE9FF62
:100BF000F4CFEAFF000EE926050EEA220F0EE926E1
:100C0000000EEA22090EE926000EEA22EECFE6FFE8
:100C1000EECFE6FF0401CF51400DF3CFE9FFF4CF53
:100C2000EAFF000EE926050EEA220F0EE926000E65
:100C3000EA22150EE926000EEA22EECFE6FFEECFFD
:100C4000E6FF0401CF51400DF3CFE9FFF4CFEAFFF7
:100C5000000EE926050EEA220F0EE926000EEA2212
:100C6000170EE926000EEA22EECFE6FFEECFE6FFF2
:100C70000401CF51400DF3CFE9FFF4CFEAFF000E9E
:100C8000E926050EEA220F0EE926000EEA22050EDD
:100C9000E926000EEA22EECFE6FFEECFE6FF0401E2
:100CA000CF51400DF3CFE9FFF4CFEAFF000EE92664
:100CB000050EEA220F0EE926000EEA22030EE926AF
:100CC000000EEA22EECFE6FFEECFE6FF0401CF51A1
:100CD000400DF3CFE9FFF4CFEAFF000EE926050E41
:100CE000EA220F0EE926000EEA22EE52EECFE6FFD0
:100CF000EECFE6FF0401CF51E66EE66A4B0EE66EDC
:100D00009B0EE66E000EE66E000EE66E020EE66EBE
:100D10001DEC72F05BE9000EE66E020EE66E37EC3B
:100D200073F042E9E66AE66A7A0EE66E440EE66E13
:100D30000401CF51400DF3CFE9FFF4CFEAFF000EDD
:100D4000E926050EEA220F0EE926000EEA22230EFE
:100D5000E926000EEA22EECFE6FFEECFE6FFEECF69
:100D6000E6FFEECFE6FF43EC65F03BEC62F0E66AAF
:100D7000E66A7A0EE66E440EE66E0401CF51400D2F
:100D8000F3CFE9FFF4CFEAFF000EE926050EEA22D1
:100D90000F0EE926000EEA22270EE926000EEA22AF
:100DA000EECFE6FFEECFE6FFEECFE6FFEECFE6FFBB
:100DB00043EC65F03BEC62F02A0EE66E9B0EE66EAD
:100DC000000EE66E000EE66E020EE66E1DEC72F090
:100DD00049E9000EE66E020EE66E37EC73F042E96A
:100DE0000401CF2B8DD60001F85109E0120EE66EFA
:100DF0009B0EE66E000EE66EBBEC72F043E904005B
:100E000012001E0EE66EAA0EE66E000E23EC32F005
:100E1000680EE66EAA0EE66E000E23EC32F00001BC
:100E2000F85107E0120EE66E9B0EE66E000E23EC04
:100E300032F0120012EC2FF0EFEC30F002E203EC93
:100E400031F000EBD1F501EBD2F502EBD3F503EB7A
:100E5000D4F564EC30F0A7EC30F0E5CFCCF5E5CF7D
:100E6000CBF5E5CFCAF5E7CFC9F564EC30F00CEC73
:100E700031F045EC33F0A1EC2FF0BAEC30F0A7ECF8
:100E800030F0E5CFD0F5E5CFCFF5E5CFCEF5E7CF24
:100E9000CDF5BAEC30F015EC31F045EC33F0A1ECC7
:100EA0002FF0EDEC33F0E66E15EC31F00CEC31F098
:100EB000000EE66E9B0EE66E000EA9EC31F051E9D5
:100EC00073EF33F012EC2FF0EFEC30F002E203ECB2
:100ED00031F000EBDDF501EBDEF502EBDFF503EBC6
:100EE000E0F564EC30F0AEEC30F0E5CFD8F5E5CFCE
:100EF000D7F5E5CFD6F5E7CFD5F564EC30F01EECAD
:100F000031F045EC33F0BAEC2FF0BAEC30F0AEEC47
:100F100030F0E5CFDCF5E5CFDBF5E5CFDAF5E7CF6F
:100F2000D9F5BAEC30F027EC31F045EC33F0BAECFF
:100F30002FF027EC31F01EEC31F0F40EE66E9A0E35
:100F4000E66E000EA9EC31F04DE973EF33F012ECD0
:100F50002FF083E901340EE300EB00F001EB01F028
:100F60000001006D011F000E012300C0F3FF01C04E
:100F7000F4FF02D0E0EC30F02BEF2FF012EC2FF06A
:100F800085E9033413E3E668E668E668E668CCECD6
:100F900031F003EBE6FF45EC33F000C0FCF301C099
:100FA000FDF302C0FEF303C0FFF308D000EBFCF337
:100FB00001EBFDF302EBFEF303EBFFF32BEF2FF05E
:100FC00058EC33F0D4EC34F068EC2EF030EC31F027
:100FD000EC0EE66E9A0EE66E000EF4EF33F058EC6F
:100FE00033F0ADEC34F030EC31F0E40EE66E9A0EF6
:100FF000E66E000EF4EF33F0DDEC33F002E32D0E7D
:10100000916F9AEC2FF016EC62F0B5EC2EF0ADEC8F
:1010100034F088EC32F003EC2FF0D890000103514B
:10102000000A08E6DC0E005D050E0159000E0259AB
:10103000000E035917E288EC32F003EC2FF047EC76
:1010400030F091C004F00001056B04BF0569DFECCE
:1010500031F0DE0EE66E9A0EE66E000E18EC30F001
:101060004BE934D0E66AE66A7A0EE66E440E84EC0A
:101070002FF0B5EC2EF0D4EC34F0F9EC33F0E3C003
:10108000E6FFE66E03EC2FF047EC30F088EC32F030
:1010900075DF44E9FCC304F0FDC305F0FEC306F0B0
:1010A000FFC307F047EC30F091C008F00001096B76
:1010B00008BF096908C0E6FF09C0E6FFD10EE66E69
:1010C0009A0EE66E000E18EC30F04FE9E0EC30F0CE
:1010D0002BEF2FF0DDEC33F002E32D0E916FE66A7B
:1010E000E66A200EE66E410E60EC33F016EC62F01C
:1010F000C5EC63F0E552E5CFCAF0E5CFC9F0E5CF26
:10110000C8F0E7CFC7F036EC31F0E5EC32F0200E56
:10111000E66E410EE66E36EC31F0DAEC34F00A0E93
:10112000F9EC33F0B0EC31F0F7EC34F0B0EC31F036
:1011300091C000F00001016B00BF0169C5EC33F004
:10114000C70EE66E9A0EE66E000E18EC30F04BE914
:10115000E0EC30F02BEF2FF012EC2FF085E949ECAA
:101160002FF003500001006F016B01354AE200517E
:10117000FA08000E015545E2FF0EE5EC30F00AE1F9
:10118000F45008E10001775101E183D1E2EC6EF007
:10119000010E82D1FE0EE5EC30F009E1F45007E1DA
:1011A000E2EC6EF0000122EC2FF0040E27D0FD0ED1
:1011B000E5EC30F009E1F45007E10001010E776F32
:1011C000E2EC6EF0FD0E68D1FC0EE5EC30F008E1CB
:1011D000F45006E10001776BE2EC6EF0FC0E5CD19E
:1011E000FB0EE5EC30F00DE1F4500BE10001776B04
:1011F000E2EC6EF0000122EC2FF0050ECAEC33F0A9
:101200004BD10001775101E144D10001FF510008A9
:1012100001E33FD1FF0722EC2FF0040E7DEC34F008
:10122000EFCFE2F5AAEC03F0CCEC31F0BBEC72F0BE
:1012300043E9000122EC2FF094EC2FF0FF51E66E11
:10124000E66AB50EE66E9A0EE66E000EC0EC34F05D
:101250000501E16BE151E12BE25D07E1F90EE66E7C
:10126000AC0EE66E000E23EC32F017EC2FF007E127
:10127000190EE66EAD0EE66E000E23EC32F017ECA2
:101280002FF007E1490EE66EAD0EE66E000E23EC80
:1012900032F017EC2FF007E16C0EE66EAD0EE66E45
:1012A000000E23EC32F017EC2FF007E18F0EE66E04
:1012B000AD0EE66E000E23EC32F017EC2FF007E1D6
:1012C000C00EE66EAD0EE66E000E23EC32F017ECAB
:1012D0002FF007E1F40EE66EAD0EE66E000E23EC85
:1012E00032F017EC2FF007E1290EE66EAE0EE66E37
:1012F000000E23EC32F017EC2FF007E1620EE66EE1
:10130000AE0EE66E000E23EC32F017EC2FF007E184
:10131000900EE66EAE0EE66E000E23EC32F017EC89
:101320002FF007E1B70EE66EAC0EE66E000E23EC72
:1013300032F017EC2FF007E1D70EE66EAC0EE66E3A
:10134000000E23EC32F017EC2FF007E1E70EE66E0B
:10135000AB0EE66E000E23EC32F017EC2FF007E137
:10136000C00EE66EAE0EE66E000E23EC32F017EC09
:101370002FF007E1010EE66EAF0EE66E000E23ECD5
:1013800032F017EC2FF007E1270EE66EAF0EE66E97
:10139000000E23EC32F017EC2FF007E14D0EE66E55
:1013A000AF0EE66E000E23EC32F017EC2FF007E1E3
:1013B000790EE66EAF0EE66E000E23EC32F017ECFF
:1013C0002FF007E1910EE66EAF0EE66E000E23ECF5
:1013D00032F017EC2FF007E1A80EE66EAF0EE66EC6
:1013E000000E23EC32F017EC2FF007E14C0EE66E06
:1013F000B30EE66E000E23EC32F017EC2FF007E18F
:101400008A0EE66EB30EE66E000E23EC32F017EC99
:101410002FF007E1A90EE66EB30EE66E000E23EC88
:1014200032F017EC2FF007E1D50EE66EAF0EE66E48
:10143000000E23EC32F00501E151D880E25517E2AD
:10144000E2510001006F016BFA0ED89001BF03D08A
:10145000005D000E01590BE20501E251E66EE66AFD
:101460009B0EE66E9A0EE66E000E8AEC34F00001DA
:10147000FF5102E10001776B000122EC2FF0050E15
:10148000DDEC30F022EC2FF0EE6AEE6AEE6AEE6AE6
:10149000BCD6E2EC6EF0000E2BEF2FF00001010E37
:1014A000666F83A449D0DFEC35F0640E9BEC32F01C
:1014B00005C6E6FF06C6E6FF07C6E6FF08C6E6FF66
:1014C0007FEC63F050EC30F0B5DC44E9F3CFE6FF9D
:1014D000F4CFE6FF810EE66E9A0EE66E000E59EC32
:1014E0002EF04BE9010EE66EE66AD3EC31F0E66EC3
:1014F000D3EC31F0020E28EC32F050EC30F03FEC3F
:1015000031F07FEC63F03FEC31F050EC30F0610EE5
:10151000E66E9A0EE66E000E59EC2EF051E9010EC1
:10152000E66E030E28EC32F0880EE66E130E00EC29
:1015300034F08AEC60F0B5D70001666B120012EC53
:101540002FF083E91B0E9CEC31F05B0E9CEC31F02C
:10155000320E9CEC31F04A0E9CEC31F00A0EE66E35
:10156000A90EE66E000E23EC32F0BD0EE66EA80E5C
:10157000E66E000E23EC32F02BEF2FF012EC2FF082
:1015800082E900017A5128E17B5109E0E5EC33F072
:1015900000010C0E036FA10E046F000E08D0E5ECE5
:1015A00033F00001980E036FA20E046F000E056F5A
:1015B000160E0EEC35F000EBE6FFE66AE66A92ECFA
:1015C00064F0E552E5CF08F0DAEC31F000012FECE1
:1015D0002FF000EB7CF02DD000500501E35D21E001
:1015E0000001816BB9EC6BF08B920401D06BD05190
:1015F0000A0814E37DEC30F00401D0250001066FE9
:10160000076B086B2FEC2FF0010EE66EE66A69ECB3
:1016100030F0EEEC2FF00401D02BE9D700EBE3F52E
:1016200008D07DEC30F00A0F066F076B086B2FECCB
:101630002FF0010EE66EE66A69EC30F0E66A010E04
:10164000E66E69EC30F0E66A020EE66E69EC30F0A8
:10165000E66A030EE66E69EC30F02BEF2FF0040122
:10166000D16B030ED15D07E2D15190EC31F0FE0E4B
:10167000EF6ED12BF6D70001DC512FEC34F002E1F4
:10168000765123E076510EE00401D251D22B32087C
:101690000DE20501E42BE451050801E2E46B0401CD
:1016A000D26B04D0030EDC250501E46FE66AE4C5C5
:1016B000E6FF3AEC00F042E9E66E0001DC5190EC06
:1016C00031F0E552E750EF6E1200DC5190EC31F052
:1016D000EF68120012EC2FF081E943E8026A000182
:1016E0007B5104E1825102E1855102E0030E69D28F
:1016F000DC51016E19EC35F0CDEC33F0EE6AED6A99
:10170000010EE66E3EEC30F019EC35F048EC31F0AD
:10171000EE50ED1006E0C4EC30F00CE1010EE66E88
:1017200005D0C4EC30F006E0E66A010EE66ED3ECBC
:101730006BF042E9D950030FE66EDACFE6FF47DAE5
:1017400042E90001F751035C08E18B96010E7B6FC3
:1017500003EBE6FF13DF41E931D2DFEC35F0F1ECCA
:101760000FF019EC33F00DE200510408000E0155A2
:1017700008E205019A0EE56F990EE66FE76F3E0EDF
:1017800011D001502FEC34F007E00501E56BE66B5A
:10179000C00EE76F3F0E06D0050159EC30F003E0B4
:1017A000C8EC30F0E86F000186516DE02EEC32F0AD
:1017B000B8EC31F005AF02D00669076941EC33F0AF
:1017C00006E6D8802C0E0055010E6FEC30F014E2C6
:1017D0008DBE25D07CEC33F033EC30F08D8E0001E3
:1017E000806FF85107E0470EE66E9A0EE66E000E27
:1017F00023EC32F08D8013D08DAE11D07CEC33F021
:10180000DDEC30F08D9E0001806BF85107E02E0E6C
:10181000E66E9A0EE66E000E23EC32F08D802EEC12
:1018200032F0B8EC31F005AF02D00669076941EC3F
:1018300033F006E6D880900E0055010E6FEC30F0C4
:1018400012E28DB620D08DAE1ED00001010E876F42
:10185000F85107E00A0EE66E9A0EE66E000E23ECD3
:1018600032F08D8610D08DA60ED08DAE0CD000013A
:10187000876BF85107E0E70EE66E990EE66E000EF4
:1018800023EC32F08D9699EC34F0C10E05EC34F077
:1018900004E60051025D0151035901E38FD02EECA3
:1018A00032F0EECF04F0EFCF05F06BEC2FF0410EED
:1018B0000BEC34F0DAEC31F0000107350751051973
:1018C00004E60651045D0751055901E377D0025043
:1018D00045E00001865142E00501E951EA1117E0B7
:1018E00012EC34F00001F85112E0D8EC32F001E0D3
:1018F000010E3FEC34F049EC33F09A0EE66E990E8F
:10190000E66E000E59EC2EF04DE934EC32F0015049
:10191000C4EC2EF004013F0551E10150D0EC33F04E
:101920000501E951EA114AE059EC30F003E0C8EC56
:1019300030F0E86F0001F8513DE0D8EC32F001E002
:10194000010E3FEC34F049EC33F0530EE66E990E85
:10195000E66E000E59EC2EF04DE923D00150D0EC8C
:1019600033F00150C4EC2EF00501E951EA1126E0F4
:1019700059EC30F003E0C8EC30F0E86F0001F851AA
:1019800019E0D8EC32F001E0010E3FEC34F093ECBA
:1019900030F0FB0EE66E980EE66E000E59EC2EF05F
:1019A0004FE934EC32F0380EE66E990EE66E000E1A
:1019B00023EC32F00501E96BEA6B8B9699EC34F07D
:1019C000410E05EC34F004E60051025D015103596B
:1019D00048E2F3EC32F0CAEC33F014E119EC35F0E4
:1019E000CDEC33F0EE2AEF2219EC33F00BE200518C
:1019F0000108000E015506E20601662B000E672362
:101A00006823692319EC35F0020E33EC30F0B4ECA6
:101A100034F004E1000101510501EC1922E02EEC43
:101A200032F0C0EC31F007AF02D008690969D8EC98
:101A30002FF002E6F9EC30F014E20001F8510FE06B
:101A4000D8EC32F001E0010E3FEC34F028EC33F03A
:101A5000AE0EE66E980EE66E000E23EC32F0E0EC71
:101A600034F099EC34F0C10E28EC30F0000103356D
:101A70000351011904E60251005D035101592EE2A0
:101A8000F3EC32F0DDEC30F0B4EC34F004E10001C2
:101A900001510501EC1922E02EEC32F0C0EC31F0DE
:101AA00007AF02D008690969D8EC2FF002E6F9EC1B
:101AB00030F014E20001F8510FE0D8EC32F001E010
:101AC000010E3FEC34F028EC33F0970EE66E980EE2
:101AD000E66E000E23EC32F0E0EC34F019EC33F05B
:101AE0000AE200510108000E015505E219EC35F03B
:101AF000050E33EC30F019EC35F01FEC30F0013509
:101B00000AE200510208000E015505E219EC35F019
:101B1000090E33EC30F001502FEC34F010E00601E8
:101B20000051010B0CE10051020B09E10051040BC3
:101B300006E1E66A3EEC30F0000901E1FBD5000168
:101B4000865103E0876B8D9E806BE66A3EEC30F039
:101B5000000913E00001F85107E0480EE66E980E08
:101B6000E66E000E23EC32F00001865102E054ECE8
:101B700031F096EC31F0040E24D006010051010B37
:101B800006E10051020B03E10051040B19E00001D2
:101B9000F85107E0F20EE66E970EE66E000E23ECAB
:101BA00032F00001865102E054EC31F0060100A150
:101BB00005D000910001010E7B6F8B96020E01D0C3
:101BC000000EF36EF46A44E9E7CFD9FF120012EC7D
:101BD0002FF083E983380F0B0001F7150501EE6F35
:101BE0000001F7510501EE5D59E10001F7510501D2
:101BF000ED5D03E0040E52EC2FF05DEC31F03BE1C3
:101C00000001F7510501ED5D11E02EEC30F0070EFB
:101C1000EF6E19EC34F0CFEC30F0D80EE66E970E84
:101C2000E66E000E8AEC34F0F7C0EDF50001845149
:101C300015E0AAEC03F0B90EE66E970EE66E000E04
:101C400059EC2EF066EC31F0F7C0EDF52EEC30F0EB
:101C5000070EEF6E0001010E7A6F886B846B7CC0FB
:101C6000E6FF70EC6CF041E97CC0E6FF87DC41E9FF
:101C7000F7C0F0F510D0CFEC30F0ED51E66EE66A2B
:101C8000670EE66E970EE66E000E1FEC34F0EDC5A3
:101C9000EFFF0501F06B0501F05157D0EE51ED5DFE
:101CA0004FE0030EE66EA1EC60F041E9040E52EC49
:101CB0002FF05DEC31F038E12EEC30F0EEC5EFFFA7
:101CC00019EC34F0AAEC03F02EEC30F0EF50E66E95
:101CD000E66A0501ED51E66EE66A2A0EE66E970E9B
:101CE000E66E000E1FEC34F0EFCFEDF500018451ED
:101CF0000DE1AAEC03F00D0EE66E970EE66E000EF7
:101D000059EC2EF066EC31F00001886B010E846F07
:101D10007CC0E6FF70EC6CF041E900017A6B7CC09E
:101D2000E6FF2CDC41E910D0CFEC30F0ED51E66E4F
:101D3000E66ABC0EE66E960EE66E000EC0EC34F05F
:101D40002EEC30F0EDC5EFFF000E2BEF2FF0D5ECB1
:101D500032F00AE10401D36BE4EC31F001E3DC6B17
:101D6000E6EC34F0F9E07BDC060100A31ED08B84A6
:101D70000401D36BE4EC31F001E3DC6BE6EC34F00E
:101D8000F9E06DDCD6EC30F0AA0EE66E960EE66E4B
:101D9000000E8AEC34F08F0EE66E960EE66E000EA4
:101DA00023EC32F08B94060100930051010B08E103
:101DB000E66A69EC31F000091BE000017A5118E095
:101DC00000017A5106E17B5102E0000E01D0010EC4
:101DD0007B6F49EC32F0650EE66E960EE66E000EF5
:101DE00023EC32F000017A6B060100918B906BD0EE
:101DF00004010F0566E0E66AECEC34F0000963E0EC
:101E0000010EE66E69EC31F00001010E7A6F8B80F5
:101E100004010F5129E1FDEC32F002E622EC34F02E
:101E200023E20001010E7A6F8B90845111E10501CC
:101E3000F12B67EC2FF0110E0501F15D01E3F16B61
:101E4000A5EC34F04D0EE66E960EE66E000E35D023
:101E500028EC34F001E3A26BBDEC32F0260EE66E06
:101E6000960EE66E000E29D0FDEC32F002E622EC72
:101E700034F025E20001010E7A6F8B90845112E15B
:101E80000501F10767EC2FF0110E0501F15D02E38A
:101E9000100EF16FA5EC34F00F0EE66E960EE66EA6
:101EA000000E0BD028EC34F001E3A26BBDEC32F055
:101EB000F80EE66E950EE66E000E23EC32F08B8087
:101EC00002D067EC2FF000017A5102E08B8001D044
:101ED0008B90855170E17B5102E182516AE0C4EC44
:101EE00030F006E0E66A010EE66ED3EC6BF042E9F4
:101EF00004011F0546E0E66A22EC30F000095BE0D1
:101F00008B8404011F511AE11B35000E1B1909E6D1
:101F1000D880010E1855000E1955000E1A55000EE6
:101F20001B550CE232EC33F033EC30F08EEC32F037
:101F3000AE0EE66E980EE66E000E20D0020E1F5D0D
:101F40003AE118C4E6FF19C4E6FF1AC4E6FF1BC451
:101F5000E6FFFCEC34F006E6D880010E0055000EDA
:101F60006FEC30F028E232EC33F0DDEC30F08EEC48
:101F700032F0970EE66E980EE66E000E23EC32F00D
:101F80001AD0000182510CE1DC51D0EC33F092EC1C
:101F900034F0020E33EC30F0DC51C4EC2EF003D000
:101FA000DC51D0EC33F0010EE66E22EC30F08B9475
:101FB00002D06AEC0BF000017B5107E0E66A34ECDA
:101FC00034F00CE1010EE66E05D0E66A34EC34F034
:101FD00005E0E66AE66AD3EC6BF042E90501F151EF
:101FE00012002FEC0BF08BC0FBFF8AC0FAFF000140
:101FF00089511400120012EC2FF082E947E8076AB9
:10200000086AB9EC6BF000017B5104E10501305125
:10201000311102E0030E09D00001806B040135513B
:1020200036113711381104E1020EF36EF46A72D0E2
:10203000026A0250005C68E36DEC32F00A0EE66E54
:10204000D70EE66E230EE66E3C0EF5EC2EF0B3ECEA
:1020500032F05AE1036A046A056A066AD8900650AB
:1020600002E66FEC31F00FE2FA0EE66E7E0EE66EDF
:102070002A0EE66E3F0E4DEC34F005E1D950030F09
:10208000F3EC2FF0EBD7036A046A056A066AD8906E
:10209000065002E66FEC31F00FE2FA0EE66E7E0EAD
:1020A000E66EAA0EE66E3E0E4DEC34F005E1D95018
:1020B000030FF3EC2FF0EBD7660EE66EE66EE66EDE
:1020C0003F0E00EC35F020E1CD0EE66ECC0EE66E54
:1020D000E66E3D0E00EC35F017E1E66AE66AE66A68
:1020E0003F0E00EC35F010E106010051010B06E156
:1020F0000051020B03E10051040B04E0010E076ED6
:10210000086A02D0022A95D76AEC33F007EBF3FF96
:1021100008EBF4FF48E9E7CFD9FF120012EC2FF0EB
:1021200082E948E8086A096AB9EC6BF000017B5162
:1021300004E105013051311104E0030EF36EF46A3D
:102140007CD00001806B026A0050025C70E2036A7E
:10215000030E035C6AE203EBDCF0D5EC32F063E0E3
:102160006DEC32F082EC32F0640EEE6EED6AB3ECA0
:1021700032F05BE1046A056A066A076AD890075084
:1021800002E678EC31F00DE281EC31F09A0E002796
:10219000020E81EC34F005E1D950040FF3EC2FF07E
:1021A000EDD7046A056A066A076AD890075002E606
:1021B00078EC31F00DE281EC31F04D0E0027010E8C
:1021C00081EC34F005E1D950040FF3EC2FF0EDD79A
:1021D00082EC32F0840EEE6E030EED6E9DEC34F068
:1021E00082EC32F0640EEE6EED6A9DEC34F002503B
:1021F00051EC2EF00D0E7DEC34F023EC33F082EC3C
:1022000032F0E0EC32F09DEC34F006010051010BAD
:1022100006E10051020B03E10051040B04E0010E42
:10222000086E096A02D0032A93D7022A8DD76AEC76
:1022300033F008EBF3FF09EBF4FF49E9E7CFD9FFEF
:1022400012002FEC0BF000017C51070A1CE0010A80
:1022500015E0030A11E0080A0FE00E0A0DE0010A7A
:102260000BE0060A05E0050A07E0010A0CE104D0CC
:10227000030EE66EC0DE05D0020E01D0040EE66E3F
:102280004DDF41E912008BC0FBFF8AC0FAFF895184
:10229000140012005CDD0501F26FF20EE66E050E11
:1022A000E66E95DC42E9F2C5E6FFBEEC0AF041E9D4
:1022B000F1EF0FF00001A25120E1D5EC33F0A40EB4
:1022C000E66E950EE66E000E3BEC34F068EC34F0F2
:1022D00098EC30F08E0EE66E950EE66E000E3BEC3E
:1022E00034F077EC34F0E9EC31F0780EE66E950ED0
:1022F000E66E000E3BEC34F007D025EC35F04FECE9
:102300002FF031EC32F045E987EF2FF00001A251B8
:102310001AE180EC2FF089EC30F0390EE66E950E64
:10232000E66E000EE9EC33F068EC34F0180EE66E61
:10233000950EE66E000EA1EC34F0FB0EE66E940EE8
:10234000E66E000E1DD07AEC34F00CE091EC2EF02D
:10235000C4EC34F0D40EE66E940EE66E000E59EC2A
:102360002EF04DE9A9EC32F0BA0EE66E940EE66E50
:10237000000EA1EC34F0BA0EE66E940EE66E000E7E
:10238000DAEF33F00001A25134E180EC2FF089EC58
:1023900030F0910EE66E940EE66E000EE9EC33F02E
:1023A0001CEC2FF07CC5E6FF7DC5E6FF7AC5E6FF95
:1023B0007BC5E6FF98EC30F0680EE66E940EE66E94
:1023C000000EE9EC33F0D3EC2FF0BCC5E6FFBDC541
:1023D000E6FFBAC5E6FFBBC5E6FFE9EC31F03F0E0C
:1023E000E66E940EE66E000E59EC2EF08AEC31F09B
:1023F00011D07AEC34F002E039EC32F06CEC34F0CD
:1024000002E041EC32F046EC34F002E065EC32F0F0
:10241000DBEC32F043E912000001A25132E180EC22
:102420002FF009EC30F0A10EE66E930EE66E000E72
:10243000E9EC33F068EC34F098EC30F0890EE66E9D
:10244000930EE66E000E3BEC34F0D3EC2FF095ECDF
:1024500034F0BCC5E6FFBDC5E6FFAFEC32F0BAC54F
:10246000E6FFBBC5E6FFD9EC62F0E9EC31F0600EA7
:10247000E66E930EE66E000E59EC2EF08AEC31F00B
:1024800011D07AEC34F002E039EC32F06CEC34F03C
:1024900002E041EC32F046EC34F002E065EC32F060
:1024A000DBEC32F043E912000001A25117E1C2EC6B
:1024B00033F01CEC2FF095EC34F07CC5E6FF7DC5C5
:1024C000E6FFAFEC32F07AC5E6FF7BC5E6FFD9EC5C
:1024D00062F098EC30F01CEC35F009D025EC35F0CA
:1024E000C8EC31F002E041EC32F0C9EC34F0DAEF44
:1024F00033F00001A25109E1C2EC33F01CEC2FF0E3
:1025000009EC30F01CEC35F00BD012EC35F068EC37
:1025100034F07AEC34F002E039EC32F0C9EC34F00B
:10252000DAEF33F00001A25149E114C5E6FF15C509
:10253000E6FF10C4E6FF11C4E6FF12C4E6FF13C4B1
:10254000E6FF29C4E6FF2AC4E6FF2BC4E6FF2CC43D
:10255000E6FFD5EC33F0000EE66E930EE66E000E4D
:1025600059EC2EF051E968EC34F0050101511DE001
:102570000251E66EE66AD90EE66E920EE66E000E27
:102580003BEC34F077EC34F031C4E6FF32C4E6FFC4
:1025900033C4E6FF34C4E6FFB80EE66E920EE66E74
:1025A000000E59EC2EF049E906D038EC30F0A1ECE1
:1025B00034F0C2EC33F070EC34F011D07AEC34F03B
:1025C00002E007EC33F06CEC34F002E09EEC32F009
:1025D00046EC34F002E010EC33F0DBEC32F043E98F
:1025E00012000001A2511AE12D0EE66E920EE66E67
:1025F000000E15EC35F068EC34F0170EE66E920E16
:10260000E66E000EA1EC34F0010EE66E920EE66E60
:10261000000E15EC35F070EC34F011D07AEC34F09B
:1026200002E039EC32F06CEC34F002E041EC32F0D4
:1026300046EC34F002E065EC32F0DBEC32F043E9DA
:102640001200EA0EE66E910EE66E000E15EC35F005
:1026500068EC34F0D30EE66E910EE66E000EA1EC3F
:1026600034F0BC0EE66E910EE66E000EDAEF33F03B
:102670000001A25149E112EC35F0640E0501D89039
:1026800091BF03D0905D000E91590AE203EC30F047
:102690009D0EE66E910EE66E000E59EC2EF047E9A7
:1026A00068EC34F08DB20AD003EC30F098EC30F0E6
:1026B0007E0EE66E910EE66E000E09D0FDEC2FF058
:1026C00098EC30F05F0EE66E910EE66E000E59EC5F
:1026D0002EF049E977EC34F012EC35F0640E050188
:1026E000D89011BF03D0105D000E11590AE2FDEC25
:1026F0002FF0410EE66E910EE66E000E59EC2EF0B4
:1027000047E970EC34F011D07AEC34F002E007ECD9
:1027100033F06CEC34F002E09EEC32F046EC34F036
:1027200002E010EC33F0DBEC32F043E9120012EC83
:102730002FF082E942E8026A036A030ED89003BED2
:1027400003D0025C000E03581AE20050E66E02EB62
:10275000E9FF03EBEAFF060ED890E936EA36E80611
:10276000FBE1000EE926050EEA2248EC31F0E552C5
:10277000E750EE6EED6A022A000E0322DED743E92F
:10278000E7CFD9FF1200DCC0D4F40001DC6B92EC7F
:1027900034F075EC30F002E06AEC0BF0E4EC31F070
:1027A000F6E3B9EC6BF0D4C4DCF0010E52EF2FF07D
:1027B000D9CFE6FFE1CFD9FF81E951E8E80E056EF8
:1027C000030E066E076A086A096A0A6A0B6A0C6ACF
:1027D000580E0D6E106A116A0001816BDFEC35F046
:1027E000DFEC35F00001010E886F06010095000155
:1027F000A26B7CC0E6FF70EC6CF041E900018551F2
:1028000007E08B9200017B6B0001806B14EF2AF0D4
:10281000AAEC03F01D0EE66E910EE66E000EE66E5B
:10282000BBEC72F043E9020E00017C5D06E1D00EC4
:10283000056E070E066E076A086A0001010E7B6FBF
:102840000501080503E10001010E806FB9EC6BF092
:10285000010EE66EE66AE66AE66A56EC01F044E9C5
:1028600000017C5118E1020EE66EE66AE66AE66A4D
:1028700005EBE6FF06EBE6FF07EBE6FF08EBE6FFFE
:10288000F2EC64F0E552E550086EE550076EE55055
:10289000066EE750056E030E00017C5D18E1020E26
:1028A000E66EE66AE66AE66A05EBE6FF06EBE6FF39
:1028B00007EBE6FF08EBE6FFF2EC64F0E552E550CB
:1028C000086EE550076EE550066EE750056E050E82
:1028D00000017C5D18E1020EE66EE66AE66AE66AD1
:1028E00005EBE6FF06EBE6FF07EBE6FF08EBE6FF8E
:1028F000F2EC64F0E552E550086EE550076EE550E5
:10290000066EE750056EE66A12DF41E9BCEC6BF03B
:10291000010EE66E05EBE6FF06EBE6FF07EBE6FFD2
:1029200008EBE6FF55EC02F045E9016A026A036A2A
:10293000046A0001865102E098EF1DF0060E0001C6
:102940007C5D01E0CDD30E6A0F6A0F3404E20E50B5
:102950000108000E0F5401E2A1D2640E056E066A52
:10296000076A086A010EE66E05EBE6FF06EBE6FF76
:1029700007EBE6FF08EBE6FF55EC02F045E9BCEC9F
:102980006BF0016A026A036A046A80C0E6FFBFEC6A
:102990006BF041E9D00EE66E070EE66EE66AE66A77
:1029A00001EBE6FF02EBE6FF03EBE6FF04EBE6FFDD
:1029B00082EC63F0E552E5CF03F0E5CF02F0E5CF1E
:1029C00001F0E7CF00F000010051011102110311E5
:1029D00001E0DAD0060100A52DD0B9EC6BF0010EB4
:1029E000E66EA5DE41E997EC60F0060EE66EE66A5B
:1029F000E66AE66A56EC01F044E98B920001010EAA
:102A00007B6F0001806B80C0E6FFBFEC6BF041E99B
:102A10007CC0E6FF70EC6CF041E9AAEC03F0EF0E2D
:102A2000E66E900EE66E000EE66EBBEC72F043E9C9
:102A300014EF2AF018EC2AF00EEBE6FF0FEBE6FF9E
:102A4000D30EE66E900EE66E000EE66E000EE66E9B
:102A5000020EE66E1DEC72F047E9010EE66EE66AC4
:102A6000A0C0E6FFB7EC00F043E90A0EE66EE66AA6
:102A700090C5E6FF91C5E6FFD9EC62F0A80EE66EC0
:102A8000900EE66E000EE66E000EE66E020EE66E2C
:102A90001DEC72F047E9640E0501D89091BF03D098
:102AA000905D000E915916E20A0EE66EE66A90C538
:102AB000E6FF91C5E6FFD9EC62F0890EE66E900E56
:102AC000E66E000EE66E000EE66E020EE66E1DEC81
:102AD00072F047E9010EE66E010EE66EE66AB7ECAB
:102AE00000F043E9610EE66E900EE66E000EE66EB3
:102AF000000EE66E020EE66E1DEC72F045E9010E68
:102B0000E66E020EE66EE66AB7EC00F043E90A0EE6
:102B1000E66EE66A10C5E6FF11C5E6FFD9EC62F085
:102B2000340EE66E900EE66E000EE66E000EE66E59
:102B3000020EE66E1DEC72F047E9640E0501D890B6
:102B400011BF03D0105D000E115916E20A0EE66E99
:102B5000E66A10C5E6FF11C5E6FFD9EC62F0410E4A
:102B6000E66E910EE66E000EE66E000EE66E020E4A
:102B7000E66E1DEC72F047E9010EE66E030EE66E9E
:102B8000E66AB7EC00F043E9D950010FE96EDACFFD
:102B9000EAFFEE2A000EEE22EE22EE22E66A05EBB6
:102BA000E6FF06EBE6FF07EBE6FF08EBE6FF55EC7A
:102BB00002F045E9000901E1E8D6640E0501D8906C
:102BC00091BF03D0905D000E91590CE205011135C3
:102BD00004E210519008010E115504E2010E0501A6
:102BE0006E6F6F6B640E0501D89011BF03D0105D3E
:102BF000000E115903E205016C6B6D6B010EE66E60
:102C000005EBE6FF06EBE6FF07EBE6FF08EBE6FF6A
:102C100055EC02F045E9B9EC6BF0016A026A036A0F
:102C2000046A80C0E6FFBFEC6BF041E9D00EE66EAF
:102C3000070EE66EE66AE66A01EBE6FF02EBE6FFE8
:102C400003EBE6FF04EBE6FF82EC63F0E552E5CF31
:102C500003F0E5CF02F0E5CF01F0E7CF00F000018F
:102C6000005101110211031101E0DAD0060100A5A3
:102C70002DD0B9EC6BF0010EE66E59DD41E997EC11
:102C800060F0060EE66EE66AE66AE66A56EC01F069
:102C900044E98B920001010E7B6F0001806B80C0C4
:102CA000E6FFBFEC6BF041E97CC0E6FF70EC6CF036
:102CB00041E9AAEC03F0EF0EE66E900EE66E000E10
:102CC000E66EBBEC72F043E914EF2AF018EC2AF040
:102CD0000EEBE6FF0FEBE6FF190EE66E900EE66ECA
:102CE000000EE66E000EE66E020EE66E1DEC72F051
:102CF00047E9010EE66EE66AA0C0E6FFB7EC00F019
:102D000043E90A0EE66EE66A90C5E6FF91C5E6FF66
:102D1000D9EC62F0A80EE66E900EE66E000EE66E3E
:102D2000000EE66E020EE66E1DEC72F047E9640ED0
:102D30000501D89091BF03D0905D000E915916E225
:102D40000A0EE66EE66A90C5E6FF91C5E6FFD9EC8D
:102D500062F0890EE66E900EE66E000EE66E000ED4
:102D6000E66E020EE66E1DEC72F047E9010EE66EAD
:102D7000010EE66EE66AB7EC00F043E9EE0EE66E91
:102D80008F0EE66E000EE66E000EE66E020EE66E2A
:102D90001DEC72F045E9010EE66E020EE66EE66A83
:102DA000B7EC00F043E90A0EE66EE66A10C5E6FFEE
:102DB00011C5E6FFD9EC62F0340EE66E900EE66EB9
:102DC000000EE66E000EE66E020EE66E1DEC72F070
:102DD00047E9640E0501D89011BF03D0105D000EC5
:102DE000115916E20A0EE66EE66A10C5E6FF11C535
:102DF000E6FFD9EC62F0410EE66E910EE66E000E33
:102E0000E66E000EE66E020EE66E1DEC72F047E90D
:102E1000010EE66E030EE66EE66AB7EC00F043E9DB
:102E2000D950010FE96EDACFEAFFEE2A000EEE224A
:102E3000EE22EE22E66A05EBE6FF06EBE6FF07EB85
:102E4000E6FF08EBE6FF55EC02F045E9000901E179
:102E5000E8D6640E0501D89011BF03D0105D000EB6
:102E600011590CE20501913504E290519008010ED0
:102E7000915504E2010E05016C6F6D6B640E050146
:102E8000D89091BF03D0905D000E915903E20501E7
:102E90006E6B6F6B0E2A000E0F2257D58B920001BE
:102EA0007B6B0001806B05016C516D1105E0050124
:102EB0006E516F1101E007D10501465101E103D1C7
:102EC00006010095590E0D6E0DEB00F00001016B2F
:102ED00000BF016900C0E6FF01C0E6FFCE0EE66E4E
:102EE0008F0EE66E000EE66E000EE66E020EE66EC9
:102EF0001DEC72F047E9010EE66EE66AA0C0E6FF3F
:102F0000B7EC00F043E9000EE66E020EE66E37EC19
:102F100073F042E98D0EE66E9D0EE66E000EE66ED3
:102F2000BBEC72F043E96CC5E6FF6DC5E6FF6EC50C
:102F3000E6FF6FC5E6FFB70EE66E8F0EE66E000E7B
:102F4000E66E000EE66E020EE66E1DEC72F049E9CA
:102F5000010EE66E010EE66EE66AB7EC00F043E99C
:102F6000000EE66E020EE66E37EC73F042E98D0E4F
:102F7000E66E9D0EE66E000EE66EBBEC72F043E967
:102F8000A00EE66E8F0EE66E000EE66E000EE66E8A
:102F9000020EE66E1DEC72F045E905016E516F11EF
:102FA0000DE1840EE66E8F0EE66E000EE66E000EEC
:102FB000E66E020EE66E1DEC72F045E9010EE66E5D
:102FC000020EE66EE66AB7EC00F043E9000EE66E2C
:102FD000020EE66E37EC73F042E98D0EE66E9D0E42
:102FE000E66E000EE66EBBEC72F043E9A00EE66EF4
:102FF0008F0EE66E000EE66E000EE66E020EE66EB8
:103000001DEC72F045E905016C516D110DE1660E84
:10301000E66E8F0EE66E000EE66E000EE66E020E97
:10302000E66E1DEC72F045E9010EE66E030EE66EEB
:10303000E66AB7EC00F043E9000EE66E020EE66EBB
:1030400037EC73F042E98D0EE66E9D0EE66E000ED3
:10305000E66EBBEC72F043E9010EE66E010EE66E21
:10306000D3EC6BF042E9020EE66EA1EC60F041E9B0
:103070000400060100A5F7D7E66A010EE66ED3EC60
:103080006BF042E9B9EC6BF0010EE66E97EC13F0D1
:1030900041E997EC60F0060EE66EE66AE66AE66ADB
:1030A00056EC01F044E98B920001010E7B6F0001A8
:1030B000806B80C0E6FFBFEC6BF041E97CC0E6FFAF
:1030C00070EC6CF041E9AAEC03F0400EE66E8F0E56
:1030D000E66E000EE66EBBEC72F043E914EF2AF0E8
:1030E000B9EC6BF0060EE66EE66AE66AE66A56EC46
:1030F00001F044E9AFEC6BF0010EE66EE66AE66AB9
:10310000E66A56EC01F044E9106A116ABCEC6BF017
:10311000010EE66E05EBE6FF06EBE6FF07EBE6FFCA
:1031200008EBE6FF55EC02F045E942EC35F080C0D3
:10313000E6FFBFEC6BF041E9E80EE66E030EE66ECB
:10314000E66AE66A01EBE6FF02EBE6FF03EBE6FF69
:1031500004EBE6FF82EC63F0E552E5CF03F0E5CF48
:1031600002F0E5CF01F0E7CF00F0000100510111BE
:103170000211031101E027D262EC35F0000901E1F0
:10318000D6D0AAEC03F0210EE96E060EEA6EEE50E0
:103190000601155D0001046FEE500601165900018D
:1031A000056FEE50060117590001066FEE5006013B
:1031B00018590001076F04C0E6FF05C0E6FF06C00E
:1031C000E6FF07C0E6FFBEEC07F044E9FCC300F0F1
:1031D000FDC301F0FEC302F0FFC303F000C0E6FF31
:1031E00001C0E6FF02C0E6FF03C0E6FF1D0EE96E68
:1031F000060EEA6EEE500601115D00010C6FEE50F6
:103200000601125900010D6FEE500601135900011D
:103210000E6FEE500601145900010F6F0CC0E6FF4F
:103220000DC0E6FF0EC0E6FF0FC0E6FFBEEC07F0E4
:1032300044E9FCC308F0FDC309F0FEC30AF0FFC374
:103240000BF008C0E6FF09C0E6FF0AC0E6FF0BC0AE
:10325000E6FF190EE96E060EEA6EEE5006010D5DF0
:103260000001146FEE5006010E590001156FEE506B
:1032700006010F590001166FEE50060110590001AA
:10328000176F14C0E6FF15C0E6FF16C0E6FF17C0B3
:10329000E6FFBEEC07F044E9FCC310F0FDC311F0FB
:1032A000FEC312F0FFC313F010C0E6FF11C0E6FF2B
:1032B00012C0E6FF13C0E6FF230EE66E8F0EE66E29
:1032C000000EE66E000EE66E020EE66E1DEC72F06B
:1032D00051E9000EE66E020EE66E37EC73F042E93D
:1032E00006013D5122E006013E511FE006013F511B
:1032F0001CE000017C5103E0010E106E116AAAEC83
:1033000003F0FE0EE66E8E0EE66E000EE66E000E0A
:10331000E66E020EE66E1DEC72F045E9000EE66EFA
:10332000020EE66E37EC73F042E942EC35F006012E
:1033300000A52ED0B9EC6BF0010EE66E97EC13F001
:1033400041E997EC60F0060EE66EE66AE66AE66A28
:1033500056EC01F044E98B920001010E7B6F0001F5
:10336000806B80C0E6FFBFEC6BF041E97CC0E6FFFC
:1033700070EC6CF041E9AAEC03F0EF0EE66E900EF3
:10338000E66E000EE66EBBEC72F043E914EF2AF035
:1033900018EC2AF001EBE6FF02EBE6FF03EBE6FF99
:1033A00004EBE6FFE60EE66E8E0EE66E000EE66EAF
:1033B000000EE66E020EE66E1DEC72F049E9010E9B
:1033C000E66EE66AA0C0E6FFB7EC00F043E9020E45
:1033D00000017C5D3CE0620EE66E950EE66E000E2E
:1033E000E66E000EE66E020EE66E1DEC72F045E92A
:1033F000050106512BE031C6E6FF32C6E6FF33C6B3
:10340000E6FF34C6E6FF0A0EE66EE66A2AC5E6FF68
:103410002BC5E6FFD9EC62F00A0EE66EE66A3AC505
:10342000E6FF3BC5E6FFD9EC62F010C5E6FF11C52B
:10343000E6FFBE0EE66E8E0EE66E000EE66E000E27
:10344000E66E020EE66E1DEC72F04FE92ED005011D
:1034500006512BE031C6E6FF32C6E6FF33C6E6FF73
:1034600034C6E6FF0A0EE66EE66A2AC5E6FF2BC5FD
:10347000E6FFD9EC62F00A0EE66EE66A3AC5E6FFB0
:103480003BC5E6FFD9EC62F010C5E6FF11C5E6FFCB
:10349000960EE66E8E0EE66E000EE66E000EE66E80
:1034A000020EE66E1DEC72F04FE9010EE66E010EA3
:1034B000E66EE66AB7EC00F043E9620EE66E950E42
:1034C000E66E000EE66E000EE66E020EE66E1DEC77
:1034D00072F045E9050146512BE035C6E6FF36C6D8
:1034E000E6FF37C6E6FF38C6E6FF0A0EE66EE66A76
:1034F0006AC5E6FF6BC5E6FFD9EC62F00A0EE66E20
:10350000E66A7AC5E6FF7BC5E6FFD9EC62F050C5F6
:10351000E6FF51C5E6FF6E0EE66E8E0EE66E000EFD
:10352000E66E000EE66E020EE66E1DEC72F04FE9DE
:10353000010EE66E020EE66EE66AB7EC00F043E9B5
:10354000620EE66E950EE66E000EE66E000EE66EFC
:10355000020EE66E1DEC72F045E9050186512BE086
:1035600039C6E6FF3AC6E6FF3BC6E6FF3CC6E6FFC5
:103570000A0EE66EE66AAAC5E6FFABC5E6FFD9EC21
:1035800062F00A0EE66EE66ABAC5E6FFBBC5E6FF64
:10359000D9EC62F090C5E6FF91C5E6FF460EE66EF7
:1035A0008E0EE66E000EE66E000EE66E020EE66E03
:1035B0001DEC72F04FE9010EE66E030EE66EE66A50
:1035C000B7EC00F043E9D950010FE96EDACFEAFF1A
:1035D000EE2A000EEE22EE22EE22E66A05EBE6FF70
:1035E00006EBE6FF07EBE6FF08EBE6FF55EC02F023
:1035F00045E9000904E11050111001E198D5B9EC3A
:103600006BF0060EE66EE66AE66AE66A56EC01F0D4
:1036100044E9B6EC6BF0010EE66EE66AE66AE66A2D
:1036200056EC01F044E9106A116A00017C5101E195
:103630007DD2BCEC6BF0010EE66E05EBE6FF06EB0F
:10364000E6FF07EBE6FF08EBE6FF55EC02F045E985
:10365000016A026A036A046A42EC35F080C0E6FF40
:10366000BFEC6BF041E9E80EE66E030EE66EE66A2B
:10367000E66A01EBE6FF02EBE6FF03EBE6FF04EB95
:10368000E6FF82EC63F0E552E5CF03F0E5CF02F010
:10369000E5CF01F0E7CF00F0000100510111021168
:1036A000031101E027D262EC35F0000901E1D6D028
:1036B000AAEC03F0210EE96E060EEA6EEE5006014A
:1036C000155D0001046FEE50060116590001056FEB
:1036D000EE50060117590001066FEE500601185909
:1036E0000001076F04C0E6FF05C0E6FF06C0E6FF65
:1036F00007C0E6FFBEEC07F044E9FCC300F0FDC3E1
:1037000001F0FEC302F0FFC303F000C0E6FF01C0FA
:10371000E6FF02C0E6FF03C0E6FF1D0EE96E060EDF
:10372000EA6EEE500601115D00010C6FEE500601CD
:10373000125900010D6FEE500601135900010E6F72
:10374000EE500601145900010F6F0CC0E6FF0DC0CA
:10375000E6FF0EC0E6FF0FC0E6FFBEEC07F044E94F
:10376000FCC308F0FDC309F0FEC30AF0FFC30BF071
:1037700008C0E6FF09C0E6FF0AC0E6FF0BC0E6FF8F
:10378000190EE96E060EEA6EEE5006010D5D00019F
:10379000146FEE5006010E590001156FEE50060130
:1037A0000F590001166FEE50060110590001176FF6
:1037B00014C0E6FF15C0E6FF16C0E6FF17C0E6FF1F
:1037C000BEEC07F044E9FCC310F0FDC311F0FEC3EA
:1037D00012F0FFC313F010C0E6FF11C0E6FF12C0E5
:1037E000E6FF13C0E6FF230EE66E8F0EE66E000EB8
:1037F000E66E000EE66E020EE66E1DEC72F051E90A
:10380000000EE66E020EE66E37EC73F042E906013A
:103810003D5122E006013E511FE006013F511CE0F0
:1038200000017C5103E0010E106E116AAAEC03F056
:10383000FE0EE66E8E0EE66E000EE66E000EE66E74
:10384000020EE66E1DEC72F045E9000EE66E020E09
:10385000E66E37EC73F042E942EC35F0060100A564
:103860002ED0B9EC6BF0010EE66E97EC13F041E947
:1038700097EC60F0060EE66EE66AE66AE66A56ECDB
:1038800001F044E98B920001010E7B6F0001806B17
:1038900080C0E6FFBFEC6BF041E97CC0E6FF70EC56
:1038A0006CF041E9AAEC03F0EF0EE66E900EE66EC6
:1038B000000EE66EBBEC72F043E914EF2AF018EC50
:1038C0002AF001EBE6FF02EBE6FF03EBE6FF04EB79
:1038D000E6FF2F0EE66E8E0EE66E000EE66E000E12
:1038E000E66E020EE66E1DEC72F049E9010EE66E20
:1038F000E66AA0C0E6FFB7EC00F043E9620EE66EB0
:10390000950EE66E000EE66E000EE66E020EE66E98
:103910001DEC72F045E9020E00017C5D2FE005010F
:1039200006512BE031C6E6FF32C6E6FF33C6E6FF9E
:1039300034C6E6FF0A0EE66EE66A2AC5E6FF2BC528
:10394000E6FFD9EC62F00A0EE66EE66A3AC5E6FFDB
:103950003BC5E6FFD9EC62F010C5E6FF11C5E6FFF6
:10396000BE0EE66E8E0EE66E000EE66E000EE66E83
:10397000020EE66E1DEC72F04FE92ED005010651E5
:103980002BE031C6E6FF32C6E6FF33C6E6FF34C69B
:10399000E6FF0A0EE66EE66A2AC5E6FF2BC5E6FFDD
:1039A000D9EC62F00A0EE66EE66A3AC5E6FF3BC560
:1039B000E6FFD9EC62F010C5E6FF11C5E6FF960EF2
:1039C000E66E8E0EE66E000EE66E000EE66E020EDF
:1039D000E66E1DEC72F04FE9010EE66E010EE66E2A
:1039E000E66AB7EC00F043E9620EE66E950EE66E0D
:1039F000000EE66E000EE66E020EE66E1DEC72F034
:103A000045E9050146512BE035C6E6FF36C6E6FF1F
:103A100037C6E6FF38C6E6FF0A0EE66EE66A6AC5F6
:103A2000E6FF6BC5E6FFD9EC62F00A0EE66EE66AC9
:103A30007AC5E6FF7BC5E6FFD9EC62F050C5E6FF2C
:103A400051C5E6FF6E0EE66E8E0EE66E000EE66E59
:103A5000000EE66E020EE66E1DEC72F04FE9010EEE
:103A6000E66E020EE66EE66AB7EC00F043E9620E1F
:103A7000E66E950EE66E000EE66E000EE66E020E27
:103A8000E66E1DEC72F045E9050186512BE039C662
:103A9000E6FF3AC6E6FF3BC6E6FF3CC6E6FF0A0E77
:103AA000E66EE66AAAC5E6FFABC5E6FFD9EC62F0B2
:103AB0000A0EE66EE66ABAC5E6FFBBC5E6FFD9ECBC
:103AC00062F090C5E6FF91C5E6FF460EE66E8E0EEB
:103AD000E66E000EE66E000EE66E020EE66E1DEC61
:103AE00072F04FE9010EE66E030EE66EE66AB7EC81
:103AF00000F043E9D950010FE96EDACFEAFFEE2A70
:103B0000000EEE22EE22EE22E66A05EBE6FF06EB61
:103B1000E6FF07EBE6FF08EBE6FF55EC02F045E9B0
:103B2000000904E11050111001E198D5AEEF21F029
:103B30000401296B2A6B2B6B2C6B04012951096E34
:103B40002A510A6E2B510B6E2C510C6EBCEC6BF093
:103B5000140EE66EE66AE66AE66A56EC01F044E99F
:103B6000016A026A036A046ADE0E015C030E0258EF
:103B7000000E0358000E045801E3E5D001EBE6FF08
:103B800002EBE6FF03EBE6FF04EBE6FF2F0EE66E2B
:103B90008E0EE66E000EE66E000EE66E020EE66E0D
:103BA0001DEC72F049E9010EE66EE66AA0C0E6FF80
:103BB000B7EC00F043E9620EE66E950EE66E000E7D
:103BC000E66E000EE66E020EE66E1DEC72F045E942
:103BD0000501065115E029C4E6FF2AC4E6FF2BC4FF
:103BE000E6FF2CC4E6FF0D0EE66E8E0EE66E000EAE
:103BF000E66E000EE66E020EE66E1DEC72F049E90E
:103C0000010EE66E010EE66EE66AB7EC00F043E9DF
:103C1000620EE66E950EE66E000EE66E000EE66E25
:103C2000020EE66E1DEC72F045E9010EE66E020E24
:103C3000E66EE66AB7EC00F043E9010EE66E030EAD
:103C4000E66EE66AB7EC00F043E9010EE66EE66A5E
:103C5000E66AE66A56EC01F044E9190EE66EE66A99
:103C6000E66AE66A01EBE6FF02EBE6FF03EBE6FF3E
:103C700004EBE6FF82EC63F0E552E5CF03F0E5CF1D
:103C800002F0E5CF01F0E7CF00F000010051011193
:103C9000021103111CE109500401291908E10A501D
:103CA0002A1905E10B502B1902E10C502C1906E1E1
:103CB000E80E016E030E026E036A046A04012951C4
:103CC000096E2A510A6E2B510B6E2C510C6E060197
:103CD00000A52ED0B9EC6BF0010EE66E97EC13F058
:103CE00041E997EC60F0060EE66EE66AE66AE66A7F
:103CF00056EC01F044E98B920001010E7B6F00014C
:103D0000806B80C0E6FFBFEC6BF041E97CC0E6FF52
:103D100070EC6CF041E9AAEC03F0EF0EE66E900E49
:103D2000E66E000EE66EBBEC72F043E914EF2AF08B
:103D3000D950010FE96EDACFEAFFEE2A000EEE222B
:103D4000EE22EE2211D7B9EC6BF0060EE66EE66AB3
:103D5000E66AE66A56EC01F044E9AFEC6BF0010E5E
:103D6000E66EE66AE66AE66A56EC01F044E90401AA
:103D7000296B2A6B2B6B2C6B04012951096E2A517C
:103D80000A6E2B510B6E2C510C6EBCEC6BF0140EAA
:103D9000E66EE66AE66AE66A56EC01F044E9016A14
:103DA000026A036A046ADE0E015C030E0258000E0A
:103DB0000358000E045801E3E5D001EBE6FF02EBE7
:103DC000E6FF03EBE6FF04EBE6FFE60EE66E8E0E83
:103DD000E66E000EE66E000EE66E020EE66E1DEC5E
:103DE00072F049E9010EE66EE66AA0C0E6FFB7ECA4
:103DF00000F043E9620EE66E950EE66E000EE66E8A
:103E0000000EE66E020EE66E1DEC72F045E905014D
:103E1000065115E029C4E6FF2AC4E6FF2BC4E6FFDD
:103E20002CC4E6FF0D0EE66E8E0EE66E000EE66EFC
:103E3000000EE66E020EE66E1DEC72F049E9010E10
:103E4000E66E010EE66EE66AB7EC00F043E9620E3C
:103E5000E66E950EE66E000EE66E000EE66E020E43
:103E6000E66E1DEC72F045E9010EE66E020EE66E9E
:103E7000E66AB7EC00F043E9010EE66E030EE66E6B
:103E8000E66AB7EC00F043E9010EE66EE66AE66A20
:103E9000E66A56EC01F044E9190EE66EE66AE66A57
:103EA000E66A01EBE6FF02EBE6FF03EBE6FF04EB5D
:103EB000E6FF82EC63F0E552E5CF03F0E5CF02F0D8
:103EC000E5CF01F0E7CF00F0000100510111021130
:103ED00003111CE109500401291908E10A502A19AB
:103EE00005E10B502B1902E10C502C1906E1E80EEC
:103EF000016E030E026E036A046A04012951096E01
:103F00002A510A6E2B510B6E2C510C6E060100A526
:103F10002ED0B9EC6BF0010EE66E97EC13F041E990
:103F200097EC60F0060EE66EE66AE66AE66A56EC24
:103F300001F044E98B920001010E7B6F0001806B60
:103F400080C0E6FFBFEC6BF041E97CC0E6FF70EC9F
:103F50006CF041E9AAEC03F0EF0EE66E900EE66E0F
:103F6000000EE66EBBEC72F043E914EF2AF0D95074
:103F7000010FE96EDACFEAFFEE2A000EEE22EE2202
:103F8000EE2211D729C435F42AC436F42BC437F4F1
:103F90002CC438F4B9EC6BF000017B6B0001806B32
:103FA0000A0EE66ED70EE66E230EE66E3C0EE66E49
:103FB00035C4E6FF36C4E6FF37C4E6FF38C4E6FF83
:103FC00016EC62F043EC65F07EEC62F0E552E5CF72
:103FD00013F4E5CF12F4E5CF11F4E7CF10F46AEC57
:103FE0000BF0FA0EE66E7E0EE66E2A0EE66E3F0EC1
:103FF000E66E35C4E6FF36C4E6FF37C4E6FF38C4D4
:10400000E6FF16EC62F043EC65F07EEC62F0E55200
:10401000E5CF13F4E5CF12F4E5CF11F4E7CF10F4B8
:10402000290EE96E040EEA6EEE500401105D0001E7
:10403000006FEE50040111590001016FEE500401B0
:1040400012590001026FEE50040113590001036F71
:104050000001DC51400DF3CFE9FFF4CFEAFF000E81
:10406000E926050EEA220F0EE926000EEA22050EC9
:10407000E926000EEA2200C0EEFF01C0EDFF6AEC67
:104080000BF0FA0EE66E7E0EE66EAA0EE66E3E0EA1
:10409000E66E35C4E6FF36C4E6FF37C4E6FF38C433
:1040A000E6FF16EC62F043EC65F07EEC62F0E55260
:1040B000E5CF13F4E5CF12F4E5CF11F4E7CF10F418
:1040C000290EE96E040EEA6EEE500401105D000147
:1040D000006FEE50040111590001016FEE50040110
:1040E00012590001026FEE50040113590001036FD1
:1040F0000001DC51400DF3CFE9FFF4CFEAFF000EE1
:10410000E926050EEA220F0EE926000EEA22050E28
:10411000E926000EEA2200C0EEFF01C0EDFF6AECC6
:104120000BF0660EE66E660EE66E660EE66E3F0EEF
:10413000E66E35C4E6FF36C4E6FF37C4E6FF38C492
:10414000E6FF16EC62F043EC65F07EEC62F0E552BF
:10415000E5CF13F4E5CF12F4E5CF11F4E7CF10F477
:10416000290EE96E040EEA6EEE500401105D0001A6
:10417000006FEE50040111590001016FEE5004016F
:1041800012590001026FEE50040113590001036F30
:104190000001DC51400DF3CFE9FFF4CFEAFF000E40
:1041A000E926050EEA220F0EE926000EEA22050E88
:1041B000E926000EEA2200C0EEFF01C0EDFF6AEC26
:1041C0000BF0CD0EE66ECC0EE66ECC0EE66E3D0E1E
:1041D000E66E35C4E6FF36C4E6FF37C4E6FF38C4F2
:1041E000E6FF16EC62F043EC65F07EEC62F0E5521F
:1041F000E5CF13F4E5CF12F4E5CF11F4E7CF10F4D7
:10420000290EE96E040EEA6EEE500401105D000105
:10421000006FEE50040111590001016FEE500401CE
:1042200012590001026FEE50040113590001036F8F
:104230000001DC51400DF3CFE9FFF4CFEAFF000E9F
:10424000E926050EEA220F0EE926000EEA22050EE7
:10425000E926000EEA2200C0EEFF01C0EDFF6AEC85
:104260000BF0E66AE66AE66A3F0EE66E35C4E6FFE4
:1042700036C4E6FF37C4E6FF38C4E6FF16EC62F04A
:1042800043EC65F07EEC62F0E552E5CF13F4E5CF48
:1042900012F4E5CF11F4E7CF10F4290EE96E040E05
:1042A000EA6EEE500401105D0001006FEE50040153
:1042B00011590001016FEE50040112590001026F03
:1042C000EE50040113590001036F0001DC51400D51
:1042D000F3CFE9FFF4CFEAFF000EE926050EEA224C
:1042E0000F0EE926000EEA22050EE926000EEA224C
:1042F00000C0EEFF01C0EDFF6AEC0BF0016A026A3C
:10430000036A046A030E015C000E0258000E035893
:10431000000E045823E201EBE9FF02EBEAFF060E70
:10432000D890E936EA36E806FBE1000EE926050EEC
:10433000EA220F0EE926000EEA22210EE926000EDF
:10434000EA22EE6AED6AD950010FE96EDACFEAFF90
:10435000EE2A000EEE22EE22EE22D4D7016A026A85
:10436000036A046A030E015C000E0258000E035833
:10437000000E045802E3B2EF28F000017C5101E086
:10438000E0D001EBE9FF02EBEAFF060ED890E93638
:10439000EA36E806FBE1000EE926050EEA220F0EDA
:1043A000E926000EEA22090EE926000EEA22EECFE7
:1043B00000F0EFCF01F001EBE9FF02EBEAFF060EA0
:1043C000D890E936EA36E806FBE1000EE926050E4C
:1043D000EA220F0EE926000EEA220B0EE926000E55
:1043E000EA22EECF02F0EFCF03F0000101350151D8
:1043F0000001031908E6000100510001025D0001FF
:104400000151000103592DE201EBE9FF02EBEAFF44
:10441000060ED890E936EA36E806FBE1000EE926FA
:10442000050EEA22060EE926000EEA22EF5019E0F8
:1044300001EBE9FF02EBEAFF060ED890E936EA3617
:10444000E806FBE1000EE926050EEA220F0EE9263A
:10445000000EEA22210EE926000EEA22010EEE6E7F
:10446000ED6A01EBE9FF02EBEAFF060ED890E936B0
:10447000EA36E806FBE1000EE926050EEA220F0EF9
:10448000E926000EEA221B0EE926000EEA22EECFF4
:1044900000F0EFCF01F001EBE9FF02EBEAFF060EBF
:1044A000D890E936EA36E806FBE1000EE926050E6B
:1044B000EA220F0EE926000EEA220D0EE926000E72
:1044C000EA22EECF02F0EFCF03F0000103350351F3
:1044D0000001011908E6000102510001005D000120
:1044E0000351000101592DE201EBE9FF02EBEAFF64
:1044F000060ED890E936EA36E806FBE1000EE9261A
:10450000050EEA22060EE926000EEA22EF5019E017
:1045100001EBE9FF02EBEAFF060ED890E936EA3636
:10452000E806FBE1000EE926050EEA220F0EE92659
:10453000000EEA22210EE926000EEA22010EEE6E9E
:10454000ED6A030E00017C5D01E0E0D001EBE9FFC4
:1045500002EBEAFF060ED890E936EA36E806FBE100
:10456000000EE926050EEA220F0EE926000EEA22C9
:10457000090EE926000EEA22EECF00F0EFCF01F09F
:1045800001EBE9FF02EBEAFF060ED890E936EA36C6
:10459000E806FBE1000EE926050EEA220F0EE926E9
:1045A000000EEA220B0EE926000EEA22EECF02F000
:1045B000EFCF03F00001013501510001031908E6B6
:1045C000000100510001025D000101510001035989
:1045D0002DE201EBE9FF02EBEAFF060ED890E93687
:1045E000EA36E806FBE1000EE926050EEA22060E91
:1045F000E926000EEA22EF5019E001EBE9FF02EB99
:10460000EAFF060ED890E936EA36E806FBE1000E2E
:10461000E926050EEA220F0EE926000EEA22210EF7
:10462000E926000EEA22010EEE6EED6A01EBE9FFCB
:1046300002EBEAFF060ED890E936EA36E806FBE11F
:10464000000EE926050EEA220F0EE926000EEA22E8
:104650001B0EE926000EEA22EECF00F0EFCF01F0AC
:1046600001EBE9FF02EBEAFF060ED890E936EA36E5
:10467000E806FBE1000EE926050EEA220F0EE92608
:10468000000EEA220D0EE926000EEA22EECF02F01D
:10469000EFCF03F00001033503510001011908E6D3
:1046A000000102510001005D0001035100010159A8
:1046B0002DE201EBE9FF02EBEAFF060ED890E936A6
:1046C000EA36E806FBE1000EE926050EEA22060EB0
:1046D000E926000EEA22EF5019E001EBE9FF02EBB8
:1046E000EAFF060ED890E936EA36E806FBE1000E4E
:1046F000E926050EEA220F0EE926000EEA22210E17
:10470000E926000EEA22010EEE6EED6A050E0001AA
:104710007C5D01E0E0D001EBE9FF02EBEAFF060E71
:10472000D890E936EA36E806FBE1000EE926050EE8
:10473000EA220F0EE926000EEA22090EE926000EF3
:10474000EA22EECF00F0EFCF01F001EBE9FF02EB40
:10475000EAFF060ED890E936EA36E806FBE1000EDD
:10476000E926050EEA220F0EE926000EEA220B0EBC
:10477000E926000EEA22EECF02F0EFCF03F00001AF
:10478000013501510001031908E600010051000143
:10479000025D00010151000103592DE201EBE9FF27
:1047A00002EBEAFF060ED890E936EA36E806FBE1AE
:1047B000000EE926050EEA22060EE926000EEA2280
:1047C000EF5019E001EBE9FF02EBEAFF060ED8908B
:1047D000E936EA36E806FBE1000EE926050EEA2294
:1047E0000F0EE926000EEA22210EE926000EEA222B
:1047F000010EEE6EED6A01EBE9FF02EBEAFF060E39
:10480000D890E936EA36E806FBE1000EE926050E07
:10481000EA220F0EE926000EEA221B0EE926000E00
:10482000EA22EECF00F0EFCF01F001EBE9FF02EB5F
:10483000EAFF060ED890E936EA36E806FBE1000EFC
:10484000E926050EEA220F0EE926000EEA220D0ED9
:10485000E926000EEA22EECF02F0EFCF03F00001CE
:10486000033503510001011908E60001025100015E
:10487000005D00010351000101592DE201EBE9FF48
:1048800002EBEAFF060ED890E936EA36E806FBE1CD
:10489000000EE926050EEA22060EE926000EEA229F
:1048A000EF5019E001EBE9FF02EBEAFF060ED890AA
:1048B000E936EA36E806FBE1000EE926050EEA22B3
:1048C0000F0EE926000EEA22210EE926000EEA224A
:1048D000010EEE6EED6A00017C0501E0E0D001EB17
:1048E000E9FF02EBEAFF060ED890E936EA36E80661
:1048F000FBE1000EE926050EEA220F0EE926000E66
:10490000EA22090EE926000EEA22EECF00F0EFCFF0
:1049100001F001EBE9FF02EBEAFF060ED890E93661
:10492000EA36E806FBE1000EE926050EEA220F0E44
:10493000E926000EEA220B0EE926000EEA22EECF4F
:1049400002F0EFCF03F0000101350151000103191E
:1049500008E6000100510001025D00010151000163
:1049600003592DE201EBE9FF02EBEAFF060ED890B6
:10497000E936EA36E806FBE1000EE926050EEA22F2
:10498000060EE926000EEA22EF5019E001EBE9FFDE
:1049900002EBEAFF060ED890E936EA36E806FBE1BC
:1049A000000EE926050EEA220F0EE926000EEA2285
:1049B000210EE926000EEA22010EEE6EED6A01EBF1
:1049C000E9FF02EBEAFF060ED890E936EA36E80680
:1049D000FBE1000EE926050EEA220F0EE926000E85
:1049E000EA221B0EE926000EEA22EECF00F0EFCFFE
:1049F00001F001EBE9FF02EBEAFF060ED890E93681
:104A0000EA36E806FBE1000EE926050EEA220F0E63
:104A1000E926000EEA220D0EE926000EEA22EECF6C
:104A200002F0EFCF03F0000103350351000101193B
:104A300008E6000102510001005D00010351000180
:104A400001592DE201EBE9FF02EBEAFF060ED890D7
:104A5000E936EA36E806FBE1000EE926050EEA2211
:104A6000060EE926000EEA22EF5019E001EBE9FFFD
:104A700002EBEAFF060ED890E936EA36E806FBE1DB
:104A8000000EE926050EEA220F0EE926000EEA22A4
:104A9000210EE926000EEA22010EEE6EED6A01EB10
:104AA000E9FF02EBEAFF060ED890E936EA36E8069F
:104AB000FBE1000EE926050EEA220F0EE926000EA4
:104AC000EA22210EE926000EEA22EE50ED1001E066
:104AD00095D101EBE9FF02EBEAFF060ED890E9362B
:104AE000EA36E806FBE1000EE926050EEA220F0E83
:104AF000E926000EEA221D0EE926000EEA22010E2A
:104B0000EE6EED6A01EBE9FF02EBEAFF060ED890CC
:104B1000E936EA36E806FBE1000EE926050EEA2250
:104B20000F0EE926000EEA221F0EE926000EEA22E9
:104B3000010EEE6EED6A01EBE9FF02EBEAFF060EF5
:104B4000D890E936EA36E806FBE1000EE926050EC4
:104B5000EA220D0EE926000EEA22EECF00F0EFCF9A
:104B600001F001EBE9FF02EBEAFF060ED890E9360F
:104B7000EA36E806FBE1000EE926050EEA220F0EF2
:104B8000E926000EEA222D0EE926000EEA2200C0D8
:104B9000EEFF01C0EDFF01EBE9FF02EBEAFF060EBD
:104BA000D890E936EA36E806FBE1000EE926050E64
:104BB000EA22060EE926000EEA22EF5001E11DD19D
:104BC000020E00017C5D04E0580E01240D6E02D03F
:104BD000410E0D6EAAEC03F00DEB00F00001016B2D
:104BE00000BF016900C0E6FF01C0E6FFE10EE66E0E
:104BF0008D0EE66E000EE66E000EE66E020EE66E9E
:104C00001DEC72F047E9000EE66E020EE66E37EC20
:104C100073F042E901EBE9FF02EBEAFF060ED890E0
:104C2000E936EA36E806FBE1000EE926050EEA223F
:104C30000F0EE926000EEA220B0EE926000EEA22EC
:104C4000EECFE6FFEECFE6FF01EBE9FF02EBEAFF76
:104C5000060ED890E936EA36E806FBE1000EE926B2
:104C6000050EEA220F0EE926000EEA22090EE926B9
:104C7000000EEA22EECFE6FFEECFE6FFCA0EE66EAA
:104C80008D0EE66E000EE66E000EE66E020EE66E0D
:104C90001DEC72F049E9000EE66E020EE66E37EC8E
:104CA00073F042E98D0EE66E9D0EE66E000EE66E26
:104CB000BBEC72F043E901EBE9FF02EBEAFF060E01
:104CC000D890E936EA36E806FBE1000EE926050E43
:104CD000EA220F0EE926000EEA220D0EE926000E4A
:104CE000EA22EECFE6FFEECFE6FF01EBE9FF02EBB3
:104CF000EAFF060ED890E936EA36E806FBE1000E38
:104D0000E926050EEA220F0EE926000EEA221B0E06
:104D1000E926000EEA22EECFE6FFEECFE6FFB30E65
:104D2000E66E8D0EE66E000EE66E000EE66E020E6C
:104D3000E66E1DEC72F049E9000EE66E020EE66EBC
:104D400037EC73F042E98D0EE66E9D0EE66E000EB6
:104D5000E66EBBEC72F043E901EBE9FF02EBEAFF20
:104D6000060ED890E936EA36E806FBE1000EE926A1
:104D7000050EEA220F0EE926000EEA220F0EE926A2
:104D8000000EEA22EECFE6FFEECFE6FF01EBE9FFF1
:104D900002EBEAFF060ED890E936EA36E806FBE1B8
:104DA000000EE926050EEA220F0EE926000EEA2281
:104DB000190EE926000EEA22EECFE6FFEECFE6FF5F
:104DC0009E0EE66E8D0EE66E000EE66E000EE66E30
:104DD000020EE66E1DEC72F049E9000EE66E020E60
:104DE000E66E37EC73F042E98D0EE66E9D0EE66ED0
:104DF000000EE66EBBEC72F043E9A8D101EBE9FFCF
:104E000002EBEAFF060ED890E936EA36E806FBE147
:104E1000000EE926050EEA22060EE926000EEA2219
:104E2000EF5001E193D106010095020E00017C5D77
:104E300004E0580E01240D6E02D0410E0D6EAAEC56
:104E400003F0860EE66E9D0EE66E000EE66EBBEC7F
:104E500072F043E90DEB00F00001016B00BF016946
:104E600000C0E6FF01C0E6FF880EE66E8D0EE66E1E
:104E7000000EE66E000EE66E020EE66E1DEC72F09F
:104E800047E9010EE66EE66AA0C0E6FFB7EC00F067
:104E900043E9000EE66E020EE66E37EC73F042E96F
:104EA0008D0EE66E9D0EE66E000EE66EBBEC72F0A9
:104EB00043E901EBE9FF02EBEAFF060ED890E93681
:104EC000EA36E806FBE1000EE926050EEA220F0E9F
:104ED000E926000EEA220B0EE926000EEA22EECFAA
:104EE000E6FFEECFE6FF01EBE9FF02EBEAFF060E7D
:104EF000D890E936EA36E806FBE1000EE926050E11
:104F0000EA220F0EE926000EEA22090EE926000E1B
:104F1000EA22EECFE6FFEECFE6FF710EE66E8D0ED3
:104F2000E66E000EE66E000EE66E020EE66E1DECFC
:104F300072F049E9010EE66E010EE66EE66AB7EC24
:104F400000F043E9000EE66E020EE66E37EC73F0F9
:104F500042E98D0EE66E9D0EE66E000EE66EBBEC2F
:104F600072F043E901EBE9FF02EBEAFF060ED8908D
:104F7000E936EA36E806FBE1000EE926050EEA22EC
:104F80000F0EE926000EEA220D0EE926000EEA2297
:104F9000EECFE6FFEECFE6FF01EBE9FF02EBEAFF23
:104FA000060ED890E936EA36E806FBE1000EE9265F
:104FB000050EEA220F0EE926000EEA221B0EE92654
:104FC000000EEA22EECFE6FFEECFE6FF5A0EE66EC7
:104FD0008D0EE66E000EE66E000EE66E020EE66EBA
:104FE0001DEC72F049E9010EE66E020EE66EE66A0D
:104FF000B7EC00F043E9000EE66E020EE66E37EC09
:1050000073F042E98D0EE66E9D0EE66E000EE66EC2
:10501000BBEC72F043E901EBE9FF02EBEAFF060E9D
:10502000D890E936EA36E806FBE1000EE926050EDF
:10503000EA220F0EE926000EEA220F0EE926000EE4
:10504000EA22EECFE6FFEECFE6FF01EBE9FF02EB4F
:10505000EAFF060ED890E936EA36E806FBE1000ED4
:10506000E926050EEA220F0EE926000EEA22190EA5
:10507000E926000EEA22EECFE6FFEECFE6FF9E0E17
:10508000E66E8D0EE66E000EE66E000EE66E020E09
:10509000E66E1DEC72F049E9010EE66E030EE66E57
:1050A000E66AB7EC00F043E9000EE66E020EE66E2B
:1050B00037EC73F042E98D0EE66E9D0EE66E000E43
:1050C000E66EBBEC72F043E9010EE66E010EE66E91
:1050D000D3EC6BF042E9020E00017C5D04E0580E57
:1050E00001240D6E02D0410E0D6EAAEC03F00DEB03
:1050F00000F00001016B00BF016900C0E6FF01C0C4
:10510000E6FF2E0EE66E8D0EE66E000EE66E000ECB
:10511000E66E020EE66E1DEC72F047E9000EE66EDA
:10512000020EE66E37EC73F042E9020EE66EA1EC79
:1051300060F041E90400060100A5F7D7E66A010E18
:10514000E66ED3EC6BF042E997EC60F0D950010FBA
:10515000E96EDACFEAFFEE2A000EEE22EE22EE2210
:10516000B2EF21F0B9EC6BF0060EE66EE66AE66A85
:10517000E66A56EC01F044E98B9200017B6B00017A
:10518000806B97EC60F00001865101E032D1016A3A
:10519000026A036A046A050EE66EA1EC60F041E95A
:1051A000190EE66E8D0EE66E000EE66E000EE66ED1
:1051B000020EE66E1DEC72F045E9010EE66EE66A3F
:1051C000A0C0E6FFB7EC00F043E9060100A59AD0C5
:1051D0008F80AAEC03F0FB0EE66E8C0EE66E000EDE
:1051E000E66E000EE66E020EE66E1DEC72F045E90C
:1051F000000EE66E020EE66E37EC73F042E9010E29
:10520000E66EE66AA0C0E6FFB7EC00F043E9060EE2
:10521000E66EE66AE66AE66A56EC01F044E997EC67
:1052200060F0620EE66E950EE66E000EE66E000E03
:10523000E66E020EE66E1DEC72F045E9010EE66EBA
:10524000010EE66EE66AB7EC00F043E9620EE66E28
:10525000950EE66E000EE66E000EE66E020EE66E2F
:105260001DEC72F045E9010EE66E020EE66EE66A8E
:10527000B7EC00F043E9620EE66E950EE66E000EA6
:10528000E66E000EE66E020EE66E1DEC72F045E96B
:10529000010EE66E030EE66EE66AB7EC00F043E937
:1052A000020EE66E8EEC10F041E9AAEC03F0DE0E81
:1052B000E66E8C0EE66E000EE66E000EE66E020ED8
:1052C000E66E1DEC72F045E9000EE66E020EE66E2B
:1052D00037EC73F042E9010EE66EE66AA0C0E6FF25
:1052E000B7EC00F043E9060EE66EE66AE66AE66AA7
:1052F00056EC01F044E9A00E016E860E026E010E1E
:10530000036E046A0400060106010051040B1DE14E
:10531000D950010FE96EDACFEAFFEFCF00F0EE2AA5
:10532000000EEFCF01F0EE22EFCF02F0EE22EFCF32
:1053300003F0EF22E80E0001005D030E0159000E9C
:105340000259000E035901E22BD7C00EE66E8C0EF7
:10535000E66E000EE66E000EE66E020EE66E1DECC8
:1053600072F045E9010EE66EE66AE66AB7EC00F017
:1053700043E9620EE66E950EE66E000EE66E000ED6
:10538000E66E020EE66E1DEC72F045E9010EE66E69
:10539000010EE66EE66AB7EC00F043E9620EE66ED7
:1053A000950EE66E000EE66E000EE66E020EE66EDE
:1053B0001DEC72F045E9010EE66E020EE66EE66A3D
:1053C000B7EC00F043E9620EE66E950EE66E000E55
:1053D000E66E000EE66E020EE66E1DEC72F045E91A
:1053E000010EE66E030EE66EE66AB7EC00F043E9E6
:1053F00000D000017B6B0001806B060EE66EE66A52
:10540000E66AE66A56EC01F044E997EC60F0C3EC1A
:1054100013F0AAEC03F0400EE66E8F0EE66E000E5F
:10542000E66EBBEC72F043E952E9E7CFD9FF120018
:10543000DFEC35F000018C5151E0EAC4E6FFEBC42B
:10544000E6FFE8C4E6FFE9C4E6FFE6C4E6FFE7C41A
:10545000E6FFA7EC33F083EC33F095EC33F08B0EE2
:10546000E66E8C0EE66E000E59EC2EF08DEC31F0EF
:10547000B0EC33F08CEC33F09EEC33F0680EE66E5B
:105480008C0EE66E000E59EC2EF051E934EC32F041
:1054900098C5E6FF99C5E6FF92C5E6FF93C5E6FF0E
:1054A00004EC35F058C5E6FF59C5E6FF52C5E6FFE6
:1054B00053C5E6FF78EC30F018C5E6FF19C5E6FFE6
:1054C00012C5E6FF13C5E6FFC4EC34F02A0EE66E03
:1054D0008C0EE66E000EEDDB8DEC31F01200050156
:1054E000C80EC26FEEEC2FF0A1EC31F027E02B0ECE
:1054F000E66E51EC71F041E9A1EC31F0FDE1EEEC2A
:105500002FF02B0EE66E51EC71F041E9A1EC31F079
:10551000FDE10C0EE66EC2EC73F041E9A1EC31F056
:10552000FDE1010EE66EC2EC73F041E9EEEC2FF006
:105530000001010EF66F0501180EC26F1200000186
:10554000806B120EE66E220EE66E3FEC70F042E9C2
:10555000150EE66E8C0EE66E000EE66E000EE66E22
:10556000020EE66E1DEC72F045E9010EE66EE66A8B
:10557000E66AB7EC00F043E9010EE66E010EE66E56
:10558000E66AB7EC00F043E9010EE66E020EE66E45
:10559000E66AB7EC00F043E9010EE66E030EE66E34
:1055A000E66AB7EC00F043E9120EE66E220EE66EF4
:1055B000F0EC70F042E98F9092DF8B68FCAE15D072
:1055C000FC9E8D0EE66E9D0EE66E000EE66EBBEC4A
:1055D00072F043E9AAEC03F0F00EE66E8B0EE66E75
:1055E000000EE66EBBEC72F043E9FCAC15D0FC9CFF
:1055F0008D0EE66E9D0EE66E000EE66EBBEC72F052
:1056000043E9AAEC03F0C60EE66E8B0EE66E000EC2
:10561000E66EBBEC72F043E90001735114E08D0EAD
:10562000E66E9D0EE66E000EE66EBBEC72F043E990
:10563000AAEC03F09D0EE66E8B0EE66E000EE66E93
:10564000BBEC72F043E90001745114E08D0EE66E7C
:105650009D0EE66E000EE66EBBEC72F043E9AAEC1E
:1056600003F0740EE66E8B0EE66E000EE66EBBEC7B
:1056700072F043E9140EE66EE66A5C0EE66E8B0E7F
:10568000E66E000EE66E000EE66E020EE66E0BECA7
:1056900070F047E9010EE66EE66AE66AB7EC00F0E4
:1056A00043E9880EE66E9D0EE66E000EE66EBBECDC
:1056B00072F043E9140EE66EE66A9DC0E6FF9EC0F6
:1056C000E6FF9FC0E6FF000EE66E020EE66E0BECF4
:1056D00070F047E9010EE66E010EE66EE66AB7EC81
:1056E00000F043E9000EE66E020EE66E37EC73F052
:1056F00042E9860EE66E9D0EE66E000EE66EBBEC8F
:1057000072F043E9140EE66EE66A9AC0E6FF9BC0AB
:10571000E6FF9CC0E6FF000EE66E020EE66E0BECA6
:1057200070F047E9000EE66E020EE66E37EC73F09D
:1057300042E9010EE66E020EE66EE66AB7EC00F094
:1057400043E9140EE66EE66A700EE66E9D0EE66E96
:10575000000EE66E000EE66E020EE66E0BEC70F0CA
:1057600047E9000EE66E020EE66E37EC73F042E992
:105770008D0EE66E9D0EE66E000EE66EBBEC72F0D0
:1057800043E9010EE66E030EE66EE66AB7EC00F042
:1057900043E9AAEC03F03D0EE66E8B0EE66E000EBA
:1057A000E66EBBEC72F043E983A20CD00001010E5F
:1057B0008C6F250EE66E8B0EE66E000EE66EBBEC71
:1057C00072F043E983A039D0AAEC03F00C0EE66E28
:1057D0008B0EE66E000EE66EBBEC72F043E9000E37
:1057E000E66EE66A000EE66EE66A010EE66EE66AB0
:1057F0001BEC6FF046E9AAEC03F0EF0EE66E8A0EA2
:10580000E66E000EE66EBBEC72F043E90501F46B48
:105810000F0E0501F45D11E2080EE66EE66A050161
:10582000F451E66EE66A0F0EE66E7F0EE66E1BEC36
:105830006FF046E90501F42BEBD7AAEC03F0CF0E8D
:10584000E66E8A0EE66E000EE66EBBEC72F043E981
:10585000000EE66EE66A000EE66EE66A4DEC6FF04C
:1058600044E959080CE1000EE66EE66A020EE66EA7
:10587000E66A4DEC6FF044E90501F36F22D0AAEC23
:1058800003F0AC0EE66E8A0EE66E000EE66EBBEC22
:1058900072F043E9000EE66EE66A000EE66EE66A16
:1058A000010EE66EE66A1BEC6FF046E9AAEC03F027
:1058B0008C0EE66E8A0EE66E000EE66EBBEC72F0A3
:1058C00043E9AAEC03F0730EE66E8A0EE66E000E54
:1058D000E66EBBEC72F043E9080EE66EE66A000E77
:1058E000E66EE66A4DEC6FF044E959081FE10501E8
:1058F000F46B0F0E0501F45D18E20501F451E66E3C
:10590000E66A0A0EE66EE66A4DEC6FF044E9E66E72
:105910000501F451EA6AE50FE96E000EEA22E5524C
:10592000E750EF6E0501F42BE4D734D0AAEC03F076
:10593000570EE66E8A0EE66E000EE66EBBEC72F057
:1059400043E90501F46B0F0E0501F45D18E2080E42
:10595000E66EE66A0501F451E66EE66A0F0EE66E43
:105960000501F451EA6AE50FE96E000EEA22EFCF75
:10597000E6FF1BEC6FF046E90501F42BE4D7AAEC37
:1059800003F03E0EE66E8A0EE66E000EE66EBBEC8F
:1059900072F043E983A403D04EEC0AF0FFD76FEC1A
:1059A00043F0AAEC03F0250EE66E8A0EE66E000EBA
:1059B000E66EBBEC72F043E9050EE66EE66AE66A57
:1059C000E66A56EC01F044E9DFEC35F083A00BD039
:1059D000AAEC03F00F0EE66E8A0EE66E000EE66E7F
:1059E000BBEC72F043E983A60ED0AAEC03F0F20EF2
:1059F000E66E890EE66E000EE66EBBEC72F043E9D1
:105A000000010F0EF76F740EE66E030EE66E05C60C
:105A1000E6FF06C6E6FF07C6E6FF08C6E6FFEFECB0
:105A200007F046E97B0EE66E030EE66E09C6E6FF5A
:105A30000AC6E6FF0BC6E6FF0CC6E6FFEFEC07F072
:105A400046E97B0EE66E030EE66E740EE66E030EFE
:105A5000E66ED90EE66E890EE66E000EE66E000E5C
:105A6000E66E020EE66E1DEC72F049E9010EE66E7E
:105A7000E66AE66AB7EC00F043E98350010BE66E94
:105A8000E66A8350020B01E0010EE66EE66A83507F
:105A9000040B01E0010EE66EE66A8350080B01E09C
:105AA000010EE66EE66A8350100B01E0010EE66E11
:105AB000E66A8350200B01E0010EE66EE66A835031
