:020000040000FA
:0600000033EF74F0120062
:020006001200E6
:0600080004EF58F01200A5
:02000E00C250DE
:08001000020B01E0010E1200D9
:0600180098EF5EF01200FB
:02001E000700D9
:10002000BFE80000F904000001000000B0E9000092
:10003000F404000002000000ACE90000FB02000034
:100040000400000013E900006000000099000000B7
:1000500001E90000EA03000012000000FFE80000D0
:10006000F204000002000000CCE80000C20500001D
:040070003300000059
:0C0074001FEC2DF083E941E80150050865
:1000800001E2016A005003E06AEC2EF0EF6A01EB36
:10009000C7F50001400E036F9B0E046F000E056F45
:1000A000AAEC2EF0E5CF08F0E7EC2FF000015BECB6
:1000B00031F06AEC2EF0EFCF09F00A6B0B6B0051B8
:1000C0000925F36E01510A21F46E02510B21F86EDD
:1000D000F4CFF7FFF3CFF6FF0800F550036E6AEC9C
:1000E0002EF0EF2AEFCF00F0016B026BD2EC31F073
:1000F00002C0E6FF400E096F9B0E0A6F000E0B6FE9
:10010000AAEC2EF0E5CF0EF0E5CF0DF0E7CF0CF026
:10011000000109510C25066F0A510D21076F0B5183
:100120000E21086FFFEC32F0E66E0FEC6EF043E943
:10013000E552E7CF02F0E552E7CF01F0E552E7CF15
:1001400000F0FCC303F0FDC304F0FEC305F00001A2
:100150000351005D045101590551025903E36AEC52
:100160002EF0EF6A035042E9E7CFD9FF12001FECEF
:100170002DF084E90001F6514FE0005021E00250DB
:1001800001240501C86FF2EC31F0B30EE66E990E52
:10019000E66E000EE66E64EC2DF062EC6EF047E960
:1001A000F2EC31F0C8EC32F0050164EC2DF034ECE7
:1001B0006EF046E9050146EC31F0140EEAEC2EF043
:1001C0000150030A0CE0010A08E0030A04E0010AF6
:1001D00009E1E66A08D0400E03D0140E01D0540E97
:1001E000E66E01D0E66AB1EC71F041E90150000120
:1001F000A0250501C86F00016A510EE0AEEC2FF09A
:10020000FDE1050164EC2DF0E0EC72F042E9AEECAA
:100210002FF0FDE1010E901638EF2DF000016E5128
:1002200004E07CEC41F000016E6B725107E0726BF0
:10023000F85102E0000E01D0010EF86F755104E094
:1002400021EC11F00001756B685103E0A7DA0001A1
:10025000686B715104E001EC07F00001716B6F51A4
:1002600003E0BDDA00016F6B1200D9CFE6FFE1CFEA
:10027000D9FF85E90401766B776B786B796B0401A4
:100280007651005C775101587851025879510358E2
:1002900009E3000004000401762B000E7723782385
:1002A0007923EDD741E9E7CFD9FF1200D9CFE6FF97
:1002B000E1CFD9FF85E9030EE66EEDEC6CF041E984
:1002C00092C67AF493C67BF494C67CF495C67DF40A
:1002D00039EC6DF0D9CFE9FFDACFEAFF04017A51AA
:1002E000EE240401826F04017B51EE200401836F30
:1002F00004017C51EE200401846F04017D51EE2045
:100300000401856F030EE66EEDEC6CF041E992C6D8
:100310007EF493C67FF494C680F495C681F439ECDC
:100320006DF004007E0EE96E040EEA6E0401825147
:10033000EE5C8351EE588451EE588551EE58E2E35D
:1003400041E9E7CFD9FF12002BEC31F019E056EC70
:100350002DF092C686F493C687F494C688F495C6A9
:1003600089F499EC2DF004018651EE248E6F8751AB
:10037000EE208F6F8851EE20906F8951EE20916FA3
:1003800056EC2DF092C68AF493C68BF494C68CF486
:1003900095C68DF439EC6DF08A0EE96E040EEA6EA6
:1003A00004018E51EE5C8F51EE589051EE589151F0
:1003B000EE5802E2000E01D0010E38EF2DF02BECCA
:1003C00031F019E056EC2DF092C692F493C693F4F6
:1003D00094C694F495C695F499EC2DF004019251CD
:1003E000EE249A6F9351EE209B6F9451EE209C6FF8
:1003F0009551EE209D6F56EC2DF092C696F493C663
:1004000097F494C698F495C699F439EC6DF0960E6D
:10041000E96E040EEA6E04019A51EE5C9B51EE58AF
:100420009C51EE589D51EE5802E2000E01D0010E93
:1004300038EF2DF02BEC31F019E056EC2DF092C690
:100440009EF493C69FF494C6A0F495C6A1F499ECCB
:100450002DF004019E51EE24A66F9F51EE20A76F50
:10046000A051EE20A86FA151EE20A96F56EC2DF0FF
:1004700092C6A2F493C6A3F494C6A4F495C6A5F4B8
:1004800039EC6DF0A20EE96E040EEA6E0401A6517D
:10049000EE5CA751EE58A851EE58A951EE5802E271
:1004A000000E01D0010E38EF2DF02BEC31F019E0E9
:1004B00056EC2DF092C6AAF493C6ABF494C6ACF4F5
:1004C00095C6ADF499EC2DF00401AA51EE24B26F5B
:1004D000AB51EE20B36FAC51EE20B46FAD51EE20B6
:1004E000B56F56EC2DF092C6AEF493C6AFF494C639
:1004F000B0F495C6B1F439EC6DF0AE0EE96E040EB1
:10050000EA6E0401B251EE5CB351EE58B451EE58AC
:10051000B551EE5802E2000E01D0010E38EF2DF079
:100520002BEC31F019E056EC2DF092C6B6F493C6E0
:10053000B7F494C6B8F495C6B9F499EC2DF004015B
:10054000B651EE24BE6FB751EE20BF6FB851EE200A
:10055000C06FB951EE20C16F56EC2DF092C6BAF4BF
:1005600093C6BBF494C6BCF495C6BDF439EC6DF0EB
:10057000BA0EE96E040EEA6E0401BE51EE5CBF5184
:10058000EE58C051EE58C151EE5802E2000E01D0B3
:10059000010E38EF2DF02BEC31F019E056EC2DF078
:1005A00092C6C2F493C6C3F494C6C4F495C6C5F407
:1005B00099EC2DF00401C251EE24CA6FC351EE2014
:1005C000CB6FC451EE20CC6FC551EE20CD6F56ECF1
:1005D0002DF092C6C6F493C6C7F494C6C8F495C667
:1005E000C9F439EC6DF0C60EE96E040EEA6E040132
:1005F000CA51EE5CCB51EE58CC51EE58CD51EE586D
:1006000002E2000E01D0010E38EF2DF000000401CF
:10061000CE6B0501C2510401CE5D04E2000004016D
:10062000CE2BF7D712000F0EE66E3EEC73F041E9C9
:100630001200050EE66E3EEC73F041E912001FEC6D
:100640002DF082E96CA2FED700EBE6FFD6EC73F04A
:1006500041E938EF2DF0050E5FEF2DF000016A51F2
:1006600001E11200AEEC2FF0FDE112001FEC2DF0C5
:1006700089E903340EE202500808000E035409E22F
:1006800004EBFCF305EBFDF306EBFEF307EBFFF3E6
:100690005FD00050011009E000018F0E926FC20E72
:1006A000936F750E946F3D0E06D00001926B936BA5
:1006B000800E946F3E0E956FDBEC30F092C0E6FF3B
:1006C00093C0E6FF94C0E6FF95C0E6FFDCEC32F095
:1006D000DBEC30F004EBE6FF05EBE6FF06EBE6FFB4
:1006E00007EBE6FF62EC63F0E2EC5EF062EC63F0D5
:1006F000DCEC32F0E4EC5EF0E4EC61F0E552E5CFE6
:1007000099F0E5CF98F0E5CF97F0E7CF96F047EC7A
:100710002DF096C0EEFF97C0EEFF98C0EEFF99C097
:10072000EEFF001C0DE1011C0BE10001966B976BC5
:10073000986B996B47EC2DF0EE6AEE6AEE6AEE6A02
:1007400096C0FCF397C0FDF398C0FEF399C0FFF389
:1007500038EF2DF004004EC6E6FF4FC6E6FF50C648
:10076000E6FF51C6E6FF66DB44E9F3CFE6FFF4CFD0
:10077000E6FFAC0EE66E990EE66E000EE66E200EFB
:10078000E66E030EE66E74EC70F047E9200EE66E3E
:10079000030EE66E8EEC71F042E91200DBDF550EBF
:1007A000E66EA50EE66E000E30EC30F00401236B11
:1007B000040123510AE10A0EA8EC30F056DD44E9A9
:1007C000ECEC33F0A9EC5EF0F3D7020E235DC2DF50
:1007D000B30EE66EA50EE66E000E30EF30F00400AC
:1007E000A90EE66E990EE66E000EE66E000EE66E3F
:1007F000020EE66E74EC70F045E9000EE66E020E35
:10080000E66E8EEC71F042E9A5DFA40EE66E990E5D
:10081000E66E000EE66E12EC71F043E99DC0E6FF55
:100820009EC0E6FF9FC0E6FF000EE66E020EE66E7B
:10083000F6EC6DF045E9000EE66E020EE66E8EEC0B
:1008400071F042E9A20EE66E990EE66E000EE66EBB
:1008500012EC71F043E99AC0E6FF9BC0E6FF9CC032
:10086000E6FF000EE66E020EE66EF6EC6DF045E970
:10087000000EE66E020EE66E8EEC71F042E98C0E12
:10088000E66E990EE66E000EE66E000EE66E020E45
:10089000E66EF6EC6DF045E9000EE66E020EE66ED1
:1008A0008EEC71F042E900018351E66EE66A0001C8
:1008B0006051E66EE66A5AC6E6FF5BC6E6FF5CC6B6
:1008C000E6FF5DC6E6FF56C6E6FF57C6E6FF58C61A
:1008D000E6FF59C6E6FF44C6E6FF45C6E6FF01C689
:1008E000E6FF02C6E6FF03C6E6FF04C6E6FF835046
:1008F000800B01E0010EE66EE66A8350400B01E0DA
:10090000010EE66EE66A8350200B01E0010EE66EF2
:10091000E66A8350100B01E0010EE66EE66A835032
:10092000080B01E0010EE66EE66A8350040B01E05D
:10093000010EE66EE66A8350020B01E0010EE66EE0
:10094000E66A8350010BE66EE66A00016351E66ECB
:10095000E66AFD0EE66E980EE66E000EE66E000E7E
:10096000E66E020EE66E74EC70F069E9000EE66E5B
:10097000020EE66E8EEC71F042E90601A651E66EBB
:10098000E66A7850E66EE66A6AC6E6FF6BC6E6FF80
:100990006CC6E6FF6DC6E6FF4EC6E6FF4FC6E6FF35
:1009A00050C6E6FF51C6E6FF92C6E6FF93C6E6FFD5
:1009B00094C6E6FF95C6E6FF9EEC61F092C6E6FFA0
:1009C00093C6E6FF94C6E6FF95C6E6FF8EC6E6FF31
:1009D0008FC6E6FF90C6E6FF91C6E6FF52C6E6FF69
:1009E00053C6E6FF54C6E6FF55C6E6FF4AC6E6FF15
:1009F0004BC6E6FF4CC6E6FF4DC6E6FF62C6E6FF05
:100A000063C6E6FF64C6E6FF65C6E6FF8AC6E6FF84
:100A10008BC6E6FF8CC6E6FF8DC6E6FF86C6E6FF00
:100A200087C6E6FF88C6E6FF89C6E6FF6EC6E6FF14
:100A30006FC6E6FF70C6E6FF71C6E6FF4EC6E6FF6C
:100A40004FC6E6FF50C6E6FF51C6E6FF3E0EE66E15
:100A5000980EE66E000EE66E000EE66E020EE66E74
:100A600074EC70F075E9000EE66E020EE66E8EEC28
:100A700071F042E929C4E6FF2AC4E6FF2BC4E6FF71
:100A80002CC4E6FF66C6E6FF67C6E6FF68C6E6FF5B
:100A900069C6E6FF72C6E6FF73C6E6FF74C6E6FFE8
:100AA00075C6E6FF76C6E6FF77C6E6FF78C6E6FFC0
:100AB00079C6E6FF7AC6E6FF7BC6E6FF7CC6E6FFA0
:100AC0007DC6E6FF7EC6E6FF7FC6E6FF80C6E6FF80
:100AD00081C6E6FFDF0EE66E970EE66E000EE66E4E
:100AE000000EE66E020EE66E74EC70F05DE9000E2C
:100AF000E66E020EE66E8EEC71F042E90401CF6BF9
:100B0000030E0401CF5D01E36ED10401CF51400D0E
:100B1000F3CFE9FFF4CFEAFF000EE926050EEA2243
:100B2000060EE926000EEA22EF5001E159D1040138
:100B3000CF51400DF3CFE9FFF4CFEAFF000EE926D5
:100B4000050EEA220F0EE926000EEA221B0EE92608
:100B5000000EEA22EECFE6FFEECFE6FF0401CF5112
:100B6000400DF3CFE9FFF4CFEAFF000EE926050EB2
:100B7000EA220F0EE926000EEA22190EE926000EDF
:100B8000EA22EECFE6FFEECFE6FF0401CF51400DA3
:100B9000F3CFE9FFF4CFEAFF000EE926050EEA22C3
:100BA0000F0EE926000EEA222D0EE926000EEA229B
:100BB000EECFE6FFEECFE6FF0401CF51400DF3CFBD
:100BC000E9FFF4CFEAFF000EE926050EEA220F0E38
:100BD000E926000EEA222B0EE926000EEA22EECFCD
:100BE000E6FFEECFE6FF0401CF51400DF3CFE9FF62
:100BF000F4CFEAFF000EE926050EEA220F0EE926E1
:100C0000000EEA22090EE926000EEA22EECFE6FFE8
:100C1000EECFE6FF0401CF51400DF3CFE9FFF4CF53
:100C2000EAFF000EE926050EEA220F0EE926000E65
:100C3000EA22150EE926000EEA22EECFE6FFEECFFD
:100C4000E6FF0401CF51400DF3CFE9FFF4CFEAFFF7
:100C5000000EE926050EEA220F0EE926000EEA2212
:100C6000170EE926000EEA22EECFE6FFEECFE6FFF2
:100C70000401CF51400DF3CFE9FFF4CFEAFF000E9E
:100C8000E926050EEA220F0EE926000EEA22050EDD
:100C9000E926000EEA22EECFE6FFEECFE6FF0401E2
:100CA000CF51400DF3CFE9FFF4CFEAFF000EE92664
:100CB000050EEA220F0EE926000EEA22030EE926AF
:100CC000000EEA22EECFE6FFEECFE6FF0401CF51A1
:100CD000400DF3CFE9FFF4CFEAFF000EE926050E41
:100CE000EA220F0EE926000EEA22EE52EECFE6FFD0
:100CF000EECFE6FF0401CF51E66EE66A670EE66EC0
:100D0000970EE66E000EE66E000EE66E020EE66EC2
:100D100074EC70F05BE9000EE66E020EE66E8EEC8F
:100D200071F042E9E66AE66A7A0EE66E440EE66E15
:100D30000401CF51400DF3CFE9FFF4CFEAFF000EDD
:100D4000E926050EEA220F0EE926000EEA22230EFE
:100D5000E926000EEA22EECFE6FFEECFE6FFEECF69
:100D6000E6FFEECFE6FF62EC63F05AEC60F0E66A75
:100D7000E66A7A0EE66E440EE66E0401CF51400D2F
:100D8000F3CFE9FFF4CFEAFF000EE926050EEA22D1
:100D90000F0EE926000EEA22270EE926000EEA22AF
:100DA000EECFE6FFEECFE6FFEECFE6FFEECFE6FFBB
:100DB00062EC63F05AEC60F0460EE66E970EE66E5B
:100DC000000EE66E000EE66E020EE66E74EC70F03B
:100DD00049E9000EE66E020EE66E8EEC71F042E915
:100DE0000401CF2B8DD60001F85109E02E0EE66EDE
:100DF000970EE66E000EE66E12EC71F043E9040009
:100E000012005C0EE66EA60EE66E000E30EC30F0C0
:100E1000A60EE66EA60EE66E000E30EC30F0000177
:100E2000F85107E02E0EE66E970EE66E000E30ECDF
:100E300030F012001FEC2DF0FCEC2EF002E210EC72
:100E40002FF000EBD1F501EBD2F502EBD3F503EB7C
:100E5000D4F571EC2EF0B4EC2EF0E5CFCCF5E5CF67
:100E6000CBF5E5CFCAF5E7CFC9F571EC2EF019EC5B
:100E70002FF052EC31F0AEEC2DF0C7EC2EF0B4ECCC
:100E80002EF0E5CFD0F5E5CFCFF5E5CFCEF5E7CF26
:100E9000CDF5C7EC2EF022EC2FF052EC31F0AEEC99
:100EA0002DF0FAEC31F0E66E22EC2FF019EC2FF079
:100EB0001C0EE66E970EE66E000EB6EC2FF051E9B2
:100EC00080EF31F01FEC2DF0FCEC2EF002E210EC84
:100ED0002FF000EBDDF501EBDEF502EBDFF503EBC8
:100EE000E0F571EC2EF0BBEC2EF0E5CFD8F5E5CFB8
:100EF000D7F5E5CFD6F5E7CFD5F571EC2EF02BEC95
:100F00002FF052EC31F0C7EC2DF0C7EC2EF0BBEC1B
:100F10002EF0E5CFDCF5E5CFDBF5E5CFDAF5E7CF71
:100F2000D9F5C7EC2EF034EC2FF052EC31F0C7ECD1
:100F30002DF034EC2FF02BEC2FF0100EE66E970E08
:100F4000E66E000EB6EC2FF04DE980EF31F01FECAD
:100F50002DF083E901340EE300EB00F001EB01F02A
:100F60000001006D011F000E012300C0F3FF01C04E
:100F7000F4FF02D0EDEC2EF038EF2DF01FEC2DF049
:100F800085E9033413E3E668E668E668E668D9ECC9
:100F90002FF003EBE6FF52EC31F000C0FCF301C090
:100FA000FDF302C0FEF303C0FFF308D000EBFCF337
:100FB00001EBFDF302EBFEF303EBFFF338EF2DF053
:100FC00065EC31F0E1EC32F075EC2CF03DEC2FF0FB
:100FD000080EE66E970EE66E000E01EF32F065EC3D
:100FE00031F0BAEC32F03DEC2FF0000EE66E970EC9
:100FF000E66E000E01EF32F0EAEC31F002E32D0E66
:10100000916FA7EC2DF035EC60F0C2EC2CF0BAEC4F
:1010100032F095EC30F010EC2DF0D8900001035137
:10102000000A08E6DC0E005D050E0159000E0259AB
:10103000000E035917E295EC30F010EC2DF054EC53
:101040002EF091C004F00001056B04BF0569ECECC3
:101050002FF0FA0EE66E960EE66E000E25EC2EF0E0
:101060004BE934D0E66AE66A7A0EE66E440E91ECFD
:101070002DF0C2EC2CF0E1EC32F006EC32F0E3C0E3
:10108000E6FFE66E10EC2DF054EC2EF095EC30F00F
:1010900075DF44E9FCC304F0FDC305F0FEC306F0B0
:1010A000FFC307F054EC2EF091C008F00001096B6B
:1010B00008BF096908C0E6FF09C0E6FFED0EE66E4D
:1010C000960EE66E000E25EC2EF04FE9EDEC2EF0BC
:1010D00038EF2DF0EAEC31F002E32D0E916FE66A65
:1010E000E66A200EE66E410E6DEC31F035EC60F0F4
:1010F000E4EC61F0E552E5CFCAF0E5CFC9F0E5CF09
:10110000C8F0E7CFC7F043EC2FF0F2EC30F0200E40
:10111000E66E410EE66E43EC2FF0E7EC32F00A0E7D
:1011200006EC32F0BDEC2FF004EC33F0BDEC2FF008
:1011300091C000F00001016B00BF0169D2EC31F0F9
:10114000E30EE66E960EE66E000E25EC2EF04BE9F1
:10115000EDEC2EF038EF2DF01FEC2DF085E956EC7C
:101160002DF003500001006F016B01354AE2005180
:10117000FA08000E015545E2FF0EF2EC2EF00AE1EE
:10118000F45008E10001775101E183D139EC6DF0B1
:10119000010E82D1FE0EF2EC2EF009E1F45007E1CF
:1011A00039EC6DF000012FEC2DF0040E27D0FD0E70
:1011B000F2EC2EF009E1F45007E10001010E776F27
:1011C00039EC6DF0FD0E68D1FC0EF2EC2EF008E16A
:1011D000F45006E10001776B39EC6DF0FC0E5CD148
:1011E000FB0EF2EC2EF00DE1F4500BE10001776BF9
:1011F00039EC6DF000012FEC2DF0050ED7EC31F03D
:101200004BD10001775101E144D10001FF510008A9
:1012100001E33FD1FF072FEC2DF0040E8AEC32F0F2
:10122000EFCFE2F5AAEC03F0D9EC2FF012EC71F05D
:1012300043E900012FEC2DF0A1EC2DF0FF51E66EFB
:10124000E66AD10EE66E960EE66E000ECDEC32F03A
:101250000501E16BE151E12BE25D07E1370EE66E3E
:10126000A90EE66E000E30EC30F024EC2DF007E114
:10127000570EE66EA90EE66E000E30EC30F024EC50
:101280002DF007E1870EE66EA90EE66E000E30EC3B
:1012900030F024EC2DF007E1AA0EE66EA90EE66E02
:1012A000000E30EC30F024EC2DF007E1CD0EE66EB0
:1012B000A90EE66E000E30EC30F024EC2DF007E1C4
:1012C000FE0EE66EA90EE66E000E30EC30F024EC59
:1012D0002DF007E1320EE66EAA0EE66E000E30EC3F
:1012E00030F024EC2DF007E1670EE66EAA0EE66EF4
:1012F000000E30EC30F024EC2DF007E1A00EE66E8D
:10130000AA0EE66E000E30EC30F024EC2DF007E172
:10131000CE0EE66EAA0EE66E000E30EC30F024EC37
:101320002DF007E1F50EE66EA80EE66E000E30EC2D
:1013300030F024EC2DF007E1150EE66EA90EE66EF6
:10134000000E30EC30F024EC2DF007E1250EE66EB7
:10135000A80EE66E000E30EC30F024EC2DF007E124
:10136000FE0EE66EAA0EE66E000E30EC30F024ECB7
:101370002DF007E13F0EE66EAB0EE66E000E30EC90
:1013800030F024EC2DF007E1650EE66EAB0EE66E54
:10139000000E30EC30F024EC2DF007E18B0EE66E01
:1013A000AB0EE66E000E30EC30F024EC2DF007E1D1
:1013B000B70EE66EAB0EE66E000E30EC30F024ECAD
:1013C0002DF007E1CF0EE66EAB0EE66E000E30ECB0
:1013D00030F024EC2DF007E1E60EE66EAB0EE66E83
:1013E000000E30EC30F024EC2DF007E18A0EE66EB2
:1013F000AF0EE66E000E30EC30F024EC2DF007E17D
:10140000C80EE66EAF0EE66E000E30EC30F024EC47
:101410002DF007E1E70EE66EAF0EE66E000E30EC43
:1014200030F024EC2DF007E1130EE66EAC0EE66E04
:10143000000E30EC30F00501E151D880E25517E2A2
:10144000E2510001006F016BFA0ED89001BF03D08A
:10145000005D000E01590BE20501E251E66EE66AFD
:10146000B70EE66E960EE66E000E97EC32F00001B7
:10147000FF5102E10001776B00012FEC2DF0050E0A
:10148000EAEC2EF02FEC2DF0EE6AEE6AEE6AEE6AD0
:10149000BCD639EC6DF0000E38EF2DF00001010ED6
:1014A000666F83A449D0ECEC33F0640EA8EC30F006
:1014B00005C6E6FF06C6E6FF07C6E6FF08C6E6FF66
:1014C0009EEC61F05DEC2EF0B5DC44E9F3CFE6FF75
:1014D000F4CFE6FF9D0EE66E960EE66E000E66EC0D
:1014E0002CF04BE9010EE66EE66AE0EC2FF0E66EBA
:1014F000E0EC2FF0020E35EC30F05DEC2EF04CEC11
:101500002FF09EEC61F04CEC2FF05DEC2EF07D0E98
:10151000E66E960EE66E000E66EC2CF051E9010EBA
:10152000E66E030E35EC30F0880EE66E130E0DEC11
:1015300032F0A9EC5EF0B5D70001666B12001FEC2B
:101540002DF083E91B0EA9EC2FF05B0EA9EC2FF018
:10155000320EA9EC2FF04A0EA9EC2FF0480EE66EE1
:10156000A50EE66E000E30EC30F0FB0EE66EA40E1B
:10157000E66E000E30EC30F038EF2DF01FEC2DF061
:1015800082E900017A5128E17B5109E0F2EC31F067
:1015900000014A0E036F9D0E046F000E08D0F2EC9E
:1015A00031F00001D60E036F9E0E046F000E056F22
:1015B000160E1BEC33F000EBE6FFE66AE66AB1ECD0
:1015C00062F0E552E5CF08F0E7EC2FF000013CECCB
:1015D0002DF000EB7CF02DD000500501E35D21E003
:1015E0000001816B36EC6CF08B920401D06BD05112
:1015F0000A0814E38AEC2EF00401D0250001066FDE
:10160000076B086B3CEC2DF0010EE66EE66A76EC9B
:101610002EF0FBEC2DF00401D02BE9D700EBE3F525
:1016200008D08AEC2EF00A0F066F076B086B3CECB3
:101630002DF0010EE66EE66A76EC2EF0E66A010EFB
:10164000E66E76EC2EF0E66A020EE66E76EC2EF092
:10165000E66A030EE66E76EC2EF038EF2DF004010C
:10166000D16B030ED15D07E2D1519DEC2FF0FE0E40
:10167000EF6ED12BF6D70001DC513CEC32F002E1E9
:10168000765123E076510EE00401D251D22B32087C
:101690000DE20501E42BE451050801E2E46B0401CD
:1016A000D26B04D0030EDC250501E46FE66AE4C5C5
:1016B000E6FF3AEC00F042E9E66E0001DC519DECF9
:1016C0002FF0E552E750EF6E1200DC519DEC2FF049
:1016D000EF6812001FEC2DF081E943E8026A000177
:1016E0007B5104E1825102E1855102E0030E69D28F
:1016F000DC51016E26EC33F0DAEC31F0EE6AED6A83
:10170000010EE66E4BEC2EF026EC33F055EC2FF08C
:10171000EE50ED1006E0D1EC2EF00CE1010EE66E7D
:1017200005D0D1EC2EF006E0E66A010EE66E50EC34
:101730006CF042E9D950030FE66EDACFE6FF47DAE4
:1017400042E90001F751035C08E18B96010E7B6FC3
:1017500003EBE6FF13DF41E931D2ECEC33F0F1ECBF
:101760000FF026EC31F00DE200510408000E015597
:1017700008E205019A0EE56F990EE66FE76F3E0EDF
:1017800011D001503CEC32F007E00501E56BE66B4F
:10179000C00EE76F3F0E06D0050166EC2EF003E0A9
:1017A000D5EC2EF0E86F000186516DE03BEC30F097
:1017B000C5EC2FF005AF02D0066907694EEC31F099
:1017C00006E6D8802C0E0055010E7CEC2EF014E2BB
:1017D0008DBE25D089EC31F040EC2EF08D8E0001CD
:1017E000806FF85107E0630EE66E960EE66E000E0F
:1017F00030EC30F08D8013D08DAE11D089EC31F00B
:10180000EAEC2EF08D9E0001806BF85107E04A0E45
:10181000E66E960EE66E000E30EC30F08D803BECFE
:1018200030F0C5EC2FF005AF02D0066907694EEC29
:1018300031F006E6D880900E0055010E7CEC2EF0BB
:1018400012E28DB620D08DAE1ED00001010E876F42
:10185000F85107E0260EE66E960EE66E000E30ECAE
:1018600030F08D8610D08DA60ED08DAE0CD000013C
:10187000876BF85107E0030EE66E960EE66E000EDB
:1018800030EC30F08D96A6EC32F0C10E12EC32F056
:1018900004E60051025D0151035901E38FD03BEC96
:1018A00030F0EECF04F0EFCF05F078EC2DF0410EE4
:1018B00018EC32F0E7EC2FF000010735075105195D
:1018C00004E60651045D0751055901E377D0025043
:1018D00045E00001865142E00501E951EA1117E0B7
:1018E0001FEC32F00001F85112E0E5EC30F001E0BD
:1018F000010E4CEC32F056EC31F0B60EE66E950E61
:10190000E66E000E66EC2CF04DE941EC30F0015033
:10191000D1EC2CF004013F0551E10150DDEC31F038
:101920000501E951EA114AE066EC2EF003E0D5EC3E
:101930002EF0E86F0001F8513DE0E5EC30F001E0F9
:10194000010E4CEC32F056EC31F06F0EE66E950E57
:10195000E66E000E66EC2CF04DE923D00150DDEC74
:1019600031F00150D1EC2CF00501E951EA1126E0EB
:1019700066EC2EF003E0D5EC2EF0E86F0001F85194
:1019800019E0E5EC30F001E0010E4CEC32F0A0EC97
:101990002EF0170EE66E950EE66E000E66EC2CF03D
:1019A0004FE941EC30F0540EE66E950EE66E000EF7
:1019B00030EC30F00501E96BEA6B8B96A6EC32F067
:1019C000410E12EC32F004E60051025D0151035960
:1019D00048E200EC31F0D7EC31F014E126EC33F0C2
:1019E000DAEC31F0EE2AEF2226EC31F00BE2005176
:1019F0000108000E015506E20601662B000E672362
:101A00006823692326EC33F0020E40EC2EF0C1EC83
:101A100032F004E1000101510501EC1922E03BEC38
:101A200030F0CDEC2FF007AF02D008690969E5EC82
:101A30002DF002E606EC2FF014E20001F8510FE061
:101A4000E5EC30F001E0010E4CEC32F035EC31F019
:101A5000CA0EE66E940EE66E000E30EC30F0EDEC41
:101A600032F0A6EC32F0C10E35EC2EF00001033559
:101A70000351011904E60251005D035101592EE2A0
:101A800000EC31F0EAEC2EF0C1EC32F004E10001A0
:101A900001510501EC1922E03BEC30F0CDEC2FF0C8
:101AA00007AF02D008690969E5EC2DF002E606EC03
:101AB0002FF014E20001F8510FE0E5EC30F001E006
:101AC000010E4CEC32F035EC31F0B30EE66E940EB4
:101AD000E66E000E30EC30F0EDEC32F026EC31F03A
:101AE0000AE200510108000E015505E226EC33F030
:101AF000050E40EC2EF026EC33F02CEC2EF00135E8
:101B00000AE200510208000E015505E226EC33F00E
:101B1000090E40EC2EF001503CEC32F010E00601D2
:101B20000051010B0CE10051020B09E10051040BC3
:101B300006E1E66A4BEC2EF0000901E1FBD500015D
:101B4000865103E0876B8D9E806BE66A4BEC2EF02E
:101B5000000913E00001F85107E0640EE66E940EF0
:101B6000E66E000E30EC30F00001865102E061ECD0
:101B70002FF0A3EC2FF0040E24D006010051010B2E
:101B800006E10051020B03E10051040B19E00001D2
:101B9000F85107E00E0EE66E940EE66E000E30EC85
:101BA00030F00001865102E061EC2FF0060100A147
:101BB00005D000910001010E7B6F8B96020E01D0C3
:101BC000000EF36EF46A44E9E7CFD9FF12001FEC70
:101BD0002DF083E983380F0B0001F7150501EE6F37
:101BE0000001F7510501EE5D59E10001F7510501D2
:101BF000ED5D03E0040E5FEC2DF06AEC2FF03BE1AD
:101C00000001F7510501ED5D11E03BEC2EF0070EF0
:101C1000EF6E26EC32F0DCEC2EF0F40EE66E930E56
:101C2000E66E000E97EC32F0F7C0EDF5000184513E
:101C300015E0AAEC03F0D50EE66E930EE66E000EEC
:101C400066EC2CF073EC2FF0F7C0EDF53BEC2EF0CA
:101C5000070EEF6E0001010E7A6F886B846B7CC0FB
:101C6000E6FF54EC68F041E97CC0E6FF87DC41E91F
:101C7000F7C0F0F510D0DCEC2EF0ED51E66EE66A20
:101C8000830EE66E930EE66E000E2CEC32F0EDC580
:101C9000EFFF0501F06B0501F05157D0EE51ED5DFE
:101CA0004FE0030EE66EC0EC5EF041E9040E5FEC1F
:101CB0002DF06AEC2FF038E13BEC2EF0EEC5EFFF93
:101CC00026EC32F0AAEC03F03BEC2EF0EF50E66E7F
:101CD000E66A0501ED51E66EE66A460EE66E930E83
:101CE000E66E000E2CEC32F0EFCFEDF500018451E2
:101CF0000DE1AAEC03F0290EE66E930EE66E000EDF
:101D000066EC2CF073EC2FF00001886B010E846FF1
:101D10007CC0E6FF54EC68F041E900017A6B7CC0BE
:101D2000E6FF2CDC41E910D0DCEC2EF0ED51E66E44
:101D3000E66AD80EE66E920EE66E000ECDEC32F03C
:101D40003BEC2EF0EDC5EFFF000E38EF2DF0E2EC8E
:101D500030F00AE10401D36BF1EC2FF001E3DC6B0E
:101D6000F3EC32F0F9E07BDC060100A31ED08B849B
:101D70000401D36BF1EC2FF001E3DC6BF3EC32F0F8
:101D8000F9E06DDCE3EC2EF0C60EE66E920EE66E28
:101D9000000E97EC32F0AB0EE66E920EE66E000E81
:101DA00030EC30F08B94060100930051010B08E1F8
:101DB000E66A76EC2FF000091BE000017A5118E08A
:101DC00000017A5106E17B5102E0000E01D0010EC4
:101DD0007B6F56EC30F0810EE66E920EE66E000ED2
:101DE00030EC30F000017A6B060100918B906BD0E3
:101DF00004010F0566E0E66AF9EC32F0000963E0E1
:101E0000010EE66E76EC2FF00001010E7A6F8B80EA
:101E100004010F5129E10AEC31F002E62FEC32F017
:101E200023E20001010E7A6F8B90845111E10501CC
:101E3000F12B74EC2DF0110E0501F15D01E3F16B56
:101E4000B2EC32F0690EE66E920EE66E000E35D000
:101E500035EC32F001E3A26BCAEC30F0420EE66ED4
:101E6000920EE66E000E29D00AEC31F002E62FEC5D
:101E700032F025E20001010E7A6F8B90845112E15D
:101E80000501F10774EC2DF0110E0501F15D02E37F
:101E9000100EF16FB2EC32F02B0EE66E920EE66E83
:101EA000000E0BD035EC32F001E3A26BCAEC30F03F
:101EB000140EE66E920EE66E000E30EC30F08B8063
:101EC00002D074EC2DF000017A5102E08B8001D039
:101ED0008B90855170E17B5102E182516AE0D1EC37
:101EE0002EF006E0E66A010EE66E50EC6CF042E978
:101EF00004011F0546E0E66A2FEC2EF000095BE0C6
:101F00008B8404011F511AE11B35000E1B1909E6D1
:101F1000D880010E1855000E1955000E1A55000EE6
:101F20001B550CE23FEC31F040EC2EF09BEC30F016
:101F3000CA0EE66E940EE66E000E20D0020E1F5DF5
:101F40003AE118C4E6FF19C4E6FF1AC4E6FF1BC451
:101F5000E6FF09EC33F006E6D880010E0055000ECE
:101F60007CEC2EF028E23FEC31F0EAEC2EF09BEC1A
:101F700030F0B30EE66E940EE66E000E30EC30F0EC
:101F80001AD0000182510CE1DC51DDEC31F09FEC04
:101F900032F0020E40EC2EF0DC51D1EC2CF003D0EC
:101FA000DC51DDEC31F0010EE66E2FEC2EF08B945F
:101FB00002D06AEC0BF000017B5107E0E66A41ECCD
:101FC00032F00CE1010EE66E05D0E66A41EC32F02B
:101FD00005E0E66AE66A50EC6CF042E90501F15171
:101FE00012002FEC0BF08BC0FBFF8AC0FAFF000140
:101FF0008951140012001FEC2DF082E947E8076AAE
:10200000086A36EC6CF000017B5104E105013051A7
:10201000311102E0030E09D00001806B040135513B
:1020200036113711381104E1020EF36EF46A72D0E2
:10203000026A0250005C68E37AEC30F00A0EE66E49
:10204000D70EE66E230EE66E3C0E02EC2DF0C0ECD1
:1020500030F05AE1036A046A056A066AD8900650AD
:1020600002E67CEC2FF00FE2FA0EE66E7E0EE66ED4
:102070002A0EE66E3F0E5AEC32F005E1D950030FFE
:1020800000EC2EF0EBD7036A046A056A066AD89062
:10209000065002E67CEC2FF00FE2FA0EE66E7E0EA2
:1020A000E66EAA0EE66E3E0E5AEC32F005E1D9500D
:1020B000030F00EC2EF0EBD7660EE66EE66EE66ED2
:1020C0003F0E0DEC33F020E1CD0EE66ECC0EE66E49
:1020D000E66E3D0E0DEC33F017E1E66AE66AE66A5D
:1020E0003F0E0DEC33F010E106010051010B06E14B
:1020F0000051020B03E10051040B04E0010E076ED6
:10210000086A02D0022A95D777EC31F007EBF3FF8B
:1021100008EBF4FF48E9E7CFD9FF12001FEC2DF0E0
:1021200082E948E8086A096A36EC6CF000017B51E4
:1021300004E105013051311104E0030EF36EF46A3D
:102140007CD00001806B026A0050025C70E2036A7E
:10215000030E035C6AE203EBDCF0E2EC30F063E0D8
:102160007AEC30F08FEC30F0640EEE6EED6AC0EC7D
:1021700030F05BE1046A056A066A076AD890075086
:1021800002E685EC2FF00DE28EEC2FF09A0E002780
:10219000020E8EEC32F005E1D950040F00EC2EF067
:1021A000EDD7046A056A066A076AD890075002E606
:1021B00085EC2FF00DE28EEC2FF04D0E0027010E76
:1021C0008EEC32F005E1D950040F00EC2EF0EDD783
:1021D0008FEC30F0840EEE6E030EED6EAAEC32F052
:1021E0008FEC30F0640EEE6EED6AAAEC32F0025025
:1021F0005EEC2CF00D0E8AEC32F030EC31F08FEC0E
:1022000030F0EDEC30F0AAEC32F006010051010B99
:1022100006E10051020B03E10051040B04E0010E42
:10222000086E096A02D0032A93D7022A8DD777EC69
:1022300031F008EBF3FF09EBF4FF49E9E7CFD9FFF1
:1022400012002FEC0BF000017C51070A1CE0010A80
:1022500015E0030A11E0080A0FE00E0A0DE0010A7A
:102260000BE0060A05E0050A07E0010A0CE104D0CC
:10227000030EE66EC0DE05D0020E01D0040EE66E3F
:102280004DDF41E912008BC0FBFF8AC0FAFF895184
:10229000140012005CDD0501F26FF20EE66E050E11
:1022A000E66E95DC42E9F2C5E6FFBEEC0AF041E9D4
:1022B000F1EF0FF00001A25120E1E2EC31F0C00E8D
:1022C000E66E910EE66E000E48EC32F075EC32F0E0
:1022D000A5EC2EF0AA0EE66E910EE66E000E48EC0E
:1022E00032F084EC32F0F6EC2FF0940EE66E910EA4
:1022F000E66E000E48EC32F007D032EC33F05CECC6
:102300002DF03EEC30F045E994EF2DF00001A251A4
:102310001AE18DEC2DF096EC2EF0550EE66E910E36
:10232000E66E000EF6EC31F075EC32F0340EE66E2F
:10233000910EE66E000EAEEC32F0170EE66E910EC8
:10234000E66E000E1DD087EC32F00CE09EEC2CF017
:10235000D1EC32F0F00EE66E900EE66E000E66ECFA
:102360002CF04DE9B6EC30F0D60EE66E900EE66E2F
:10237000000EAEEC32F0D60EE66E900EE66E000E5B
:10238000E7EF31F00001A25134E18DEC2DF096EC35
:102390002EF0AD0EE66E900EE66E000EF6EC31F00D
:1023A00029EC2DF07CC5E6FF7DC5E6FF7AC5E6FF8A
:1023B0007BC5E6FFA5EC2EF0840EE66E900EE66E71
:1023C000000EF6EC31F0E0EC2DF0BCC5E6FFBDC52B
:1023D000E6FFBAC5E6FFBBC5E6FFF6EC2FF05B0EE5
:1023E000E66E900EE66E000E66EC2CF097EC2FF089
:1023F00011D087EC32F002E046EC30F079EC32F0AC
:1024000002E04EEC30F053EC32F002E072EC30F0CF
:10241000E8EC30F043E912000001A25132E18DEC0A
:102420002DF016EC2EF0BD0EE66E8F0EE66E000E51
:10243000F6EC31F075EC32F0A5EC2EF0A50EE66E60
:102440008F0EE66E000E48EC32F0E0EC2DF0A2ECC0
:1024500032F0BCC5E6FFBDC5E6FFBCEC30F0BAC546
:10246000E6FFBBC5E6FFF8EC60F0F6EC2FF07C0E63
:10247000E66E8F0EE66E000E66EC2CF097EC2FF0F9
:1024800011D087EC32F002E046EC30F079EC32F01B
:1024900002E04EEC30F053EC32F002E072EC30F03F
:1024A000E8EC30F043E912000001A25117E1CFEC53
:1024B00031F029EC2DF0A2EC32F07CC5E6FF7DC5B1
:1024C000E6FFBCEC30F07AC5E6FF7BC5E6FFF8EC32
:1024D00060F0A5EC2EF029EC33F009D032EC33F0AB
:1024E000D5EC2FF002E04EEC30F0D6EC32F0E7EF16
:1024F00031F00001A25109E1CFEC31F029EC2DF0CF
:1025000016EC2EF029EC33F00BD01FEC33F075EC09
:1025100032F087EC32F002E046EC30F0D6EC32F0EC
:10252000E7EF31F00001A25149E114C5E6FF15C5FE
:10253000E6FF10C4E6FF11C4E6FF12C4E6FF13C4B1
:10254000E6FF29C4E6FF2AC4E6FF2BC4E6FF2CC43D
:10255000E6FFE2EC31F01C0EE66E8F0EE66E000E2A
:1025600066EC2CF051E975EC32F0050101511DE0EB
:102570000251E66EE66AF50EE66E8E0EE66E000E0F
:1025800048EC32F084EC32F031C4E6FF32C4E6FFAE
:1025900033C4E6FF34C4E6FFD40EE66E8E0EE66E5C
:1025A000000E66EC2CF049E906D045EC2EF0AEECBE
:1025B00032F0CFEC31F07DEC32F011D087EC32F01C
:1025C00002E014EC31F079EC32F002E0ABEC30F0E8
:1025D00053EC32F002E01DEC31F0E8EC30F043E96E
:1025E00012000001A2511AE1490EE66E8E0EE66E4F
:1025F000000E22EC33F075EC32F0330EE66E8E0EE8
:10260000E66E000EAEEC32F01D0EE66E8E0EE66E3D
:10261000000E22EC33F07DEC32F011D087EC32F07A
:1026200002E046EC30F079EC32F002E04EEC30F0B3
:1026300053EC32F002E072EC30F0E8EC30F043E9B9
:102640001200060EE66E8E0EE66E000E22EC33F0E1
:1026500075EC32F0EF0EE66E8D0EE66E000EAEEC0F
:1026600032F0D80EE66E8D0EE66E000EE7EF31F01A
:102670000001A25149E11FEC33F0640E0501D8902E
:1026800091BF03D0905D000E91590AE210EC2EF03C
:10269000B90EE66E8D0EE66E000E66EC2CF047E984
:1026A00075EC32F08DB20AD010EC2EF0A5EC2EF0C5
:1026B0009A0EE66E8D0EE66E000E09D00AEC2EF034
:1026C000A5EC2EF07B0EE66E8D0EE66E000E66EC2F
:1026D0002CF049E984EC32F01FEC33F0640E050174
:1026E000D89011BF03D0105D000E11590AE20AEC18
:1026F0002EF05D0EE66E8D0EE66E000E66EC2CF092
:1027000047E97DEC32F011D087EC32F002E014ECB6
:1027100031F079EC32F002E0ABEC30F053EC32F017
:1027200002E01DEC31F0E8EC30F043E912001FEC60
:102730002DF082E942E8026A036A030ED89003BED4
:1027400003D0025C000E03581AE20050E66E02EB62
:10275000E9FF03EBEAFF060ED890E936EA36E80611
:10276000FBE1000EE926050EEA2255EC2FF0E552BA
:10277000E750EE6EED6A022A000E0322DED743E92F
:10278000E7CFD9FF1200DCC0D4F40001DC6B9FEC72
:1027900032F082EC2EF002E06AEC0BF0F1EC2FF05C
:1027A000F6E336EC6CF0D4C4DCF0010E5FEF2DF0F4
:1027B000D9CFE6FFE1CFD9FF81E951E8E80E056EF8
:1027C000030E066E076A086A096A0A6A0B6A0C6ACF
:1027D000580E0D6E106A116A0001816BECEC33F03B
:1027E000ECEC33F00001010E886F0601009500014A
:1027F000A26B7CC0E6FF54EC68F041E90001855112
:1028000007E08B9200017B6B0001806B21EF28F0C9
:10281000AAEC03F0390EE66E8D0EE66E000EE66E43
:1028200012EC71F043E9020E00017C5D06E1D00E6E
:10283000056E070E066E076A086A0001010E7B6FBF
:102840000501080503E10001010E806F36EC6CF014
:10285000010EE66EE66AE66AE66A56EC01F044E9C5
:1028600000017C5118E1020EE66EE66AE66AE66A4D
:1028700005EBE6FF06EBE6FF07EBE6FF08EBE6FFFE
:1028800011EC63F0E552E550086EE550076EE55037
:10289000066EE750056E030E00017C5D18E1020E26
:1028A000E66EE66AE66AE66A05EBE6FF06EBE6FF39
:1028B00007EBE6FF08EBE6FF11EC63F0E552E550AD
:1028C000086EE550076EE550066EE750056E000194
:1028D0007C0518E1020EE66EE66AE66AE66A05EB3A
:1028E000E6FF06EBE6FF07EBE6FF08EBE6FF11EC81
:1028F00063F0E552E550086EE550076EE550066E50
:10290000E750056EE66A13DF41E939EC6CF0010E21
:10291000E66E05EBE6FF06EBE6FF07EBE6FF08EBEE
:10292000E6FF55EC02F045E9016A026A036A046AAF
:102930000001865102E097EF1DF0060E00017C5D5C
:1029400001E0CDD30E6A0F6A0F3404E20E50010885
:10295000000E0F5401E2A1D2640E056E066A076AEA
:10296000086A010EE66E05EBE6FF06EBE6FF07EBF5
:10297000E6FF08EBE6FF55EC02F045E939EC6CF0B8
:10298000016A026A036A046A80C0E6FF3CEC6CF0EC
:1029900041E9D00EE66E070EE66EE66AE66A01EBE6
:1029A000E6FF02EBE6FF03EBE6FF04EBE6FFA1EC3C
:1029B00061F0E552E5CF03F0E5CF02F0E5CF01F09D
:1029C000E7CF00F00001005101110211031101E0F5
:1029D000DAD0060100A52DD036EC6CF0010EE66EC3
:1029E000A6DE41E9B6EC5EF0060EE66EE66AE66A41
:1029F000E66A56EC01F044E98B920001010E7B6F10
:102A00000001806B80C0E6FF3CEC6CF041E97CC0CB
:102A1000E6FF54EC68F041E9AAEC03F00B0EE66E19
:102A20008D0EE66E000EE66E12EC71F043E921EFBA
:102A300028F025EC28F00EEBE6FF0FEBE6FFEF0E9B
:102A4000E66E8C0EE66E000EE66E000EE66E020E70
:102A5000E66E74EC70F047E9010EE66EE66AA0C01F
:102A6000E6FFB7EC00F043E90A0EE66EE66A90C5B1
:102A7000E6FF91C5E6FFF8EC60F0C40EE66E8C0E42
:102A8000E66E000EE66E000EE66E020EE66E74EC6A
:102A900070F047E9640E0501D89091BF03D0905DB6
:102AA000000E915916E20A0EE66EE66A90C5E6FF40
:102AB00091C5E6FFF8EC60F0A50EE66E8C0EE66EB2
:102AC000000EE66E000EE66E020EE66E74EC70F01E
:102AD00047E9010EE66E010EE66EE66AB7EC00F01D
:102AE00043E97D0EE66E8C0EE66E000EE66E000E7D
:102AF000E66E020EE66E74EC70F045E9010EE66ECD
:102B0000020EE66EE66AB7EC00F043E90A0EE66EE6
:102B1000E66A10C5E6FF11C5E6FFF8EC60F0500E5E
:102B2000E66E8C0EE66E000EE66E000EE66E020E8F
:102B3000E66E74EC70F047E9640E0501D89011BFA1
:102B400003D0105D000E115916E20A0EE66EE66A19
:102B500010C5E6FF11C5E6FFF8EC60F05D0EE66E0D
:102B60008D0EE66E000EE66E000EE66E020EE66E4E
:102B700074EC70F047E9010EE66E030EE66EE66A4D
:102B8000B7EC00F043E9D950010FE96EDACFEAFF64
:102B9000EE2A000EEE22EE22EE22E66A05EBE6FFBA
:102BA00006EBE6FF07EBE6FF08EBE6FF55EC02F06D
:102BB00045E9000901E1E8D6640E0501D89091BF0E
:102BC00003D0905D000E91590CE20501113504E22D
:102BD00010519008010E115504E2010E05016E6FAF
:102BE0006F6B640E0501D89011BF03D0105D000E0D
:102BF000115903E205016C6B6D6B010EE66E05EB7E
:102C0000E6FF06EBE6FF07EBE6FF08EBE6FF55EC19
:102C100002F045E936EC6CF0016A026A036A046A64
:102C200080C0E6FF3CEC6CF041E9D00EE66E070E8A
:102C3000E66EE66AE66A01EBE6FF02EBE6FF03EB0F
:102C4000E6FF04EBE6FFA1EC61F0E552E5CF03F00F
:102C5000E5CF02F0E5CF01F0E7CF00F00001005131
:102C600001110211031101E0DAD0060100A52DD0F7
:102C700036EC6CF0010EE66E5ADD41E9B6EC5EF022
:102C8000060EE66EE66AE66AE66A56EC01F044E98C
:102C90008B920001010E7B6F0001806B80C0E6FF0C
:102CA0003CEC6CF041E97CC0E6FF54EC68F041E993
:102CB000AAEC03F00B0EE66E8D0EE66E000EE66ECD
:102CC00012EC71F043E921EF28F025EC28F00EEB2F
:102CD000E6FF0FEBE6FF350EE66E8C0EE66E000E9D
:102CE000E66E000EE66E020EE66E74EC70F047E9DA
:102CF000010EE66EE66AA0C0E6FFB7EC00F043E91D
:102D00000A0EE66EE66A90C5E6FF91C5E6FFF8ECAE
:102D100060F0C40EE66E8C0EE66E000EE66E000EDF
:102D2000E66E020EE66E74EC70F047E9640E050183
:102D3000D89091BF03D0905D000E915916E20A0E13
:102D4000E66EE66A90C5E6FF91C5E6FFF8EC60F036
:102D5000A50EE66E8C0EE66E000EE66E000EE66EBA
:102D6000020EE66E74EC70F047E9010EE66E010E9D
:102D7000E66EE66AB7EC00F043E90A0EE66E8C0EEA
:102D8000E66E000EE66E000EE66E020EE66E74EC67
:102D900070F045E9010EE66E020EE66EE66AB7ECEB
:102DA00000F043E90A0EE66EE66A10C5E6FF11C5BB
:102DB000E6FFF8EC60F0500EE66E8C0EE66E000E4C
:102DC000E66E000EE66E020EE66E74EC70F047E9F9
:102DD000640E0501D89011BF03D0105D000E11598B
:102DE00016E20A0EE66EE66A10C5E6FF11C5E6FFBA
:102DF000F8EC60F05D0EE66E8D0EE66E000EE66E8F
:102E0000000EE66E020EE66E74EC70F047E9010EFD
:102E1000E66E030EE66EE66AB7EC00F043E9D950C1
:102E2000010FE96EDACFEAFFEE2A000EEE22EE2263
:102E3000EE22E66A05EBE6FF06EBE6FF07EBE6FFB0
:102E400008EBE6FF55EC02F045E9000901E1E8D6A0
:102E5000640E0501D89011BF03D0105D000E11590A
:102E60000CE20501913504E290519008010E915554
:102E700004E2010E05016C6F6D6B640E0501D890C4
:102E800091BF03D0905D000E915903E205016E6B76
:102E90006F6B0E2A000E0F2257D58B9200017B6BB1
:102EA0000001806B05016C516D1105E005016E514B
:102EB0006F1101E007D10501465101E103D106017F
:102EC0000095590E0D6E0DEB00F00001016B00BF77
:102ED000016900C0E6FF01C0E6FFEA0EE66E8B0E58
:102EE000E66E000EE66E000EE66E020EE66E74EC06
:102EF00070F047E9010EE66EE66AA0C0E6FFB7ECA7
:102F000000F043E9000EE66E020EE66E8EEC71F004
:102F100042E9A90EE66E990EE66E000EE66E12EC20
:102F200071F043E96CC5E6FF6DC5E6FF6EC5E6FFCF
:102F30006FC5E6FFD30EE66E8B0EE66E000EE66EF4
:102F4000000EE66E020EE66E74EC70F049E9010EBA
:102F5000E66E010EE66EE66AB7EC00F043E9000E9D
:102F6000E66E020EE66E8EEC71F042E9A90EE66E98
:102F7000990EE66E000EE66E12EC71F043E9BC0E9F
:102F8000E66E8B0EE66E000EE66E000EE66E020E2C
:102F9000E66E74EC70F045E905016E516F110DE1BC
:102FA000A00EE66E8B0EE66E000EE66E000EE66E6E
:102FB000020EE66E74EC70F045E9010EE66E020E4C
:102FC000E66EE66AB7EC00F043E9000EE66E020E2C
:102FD000E66E8EEC71F042E9A90EE66E990EE66E91
:102FE000000EE66E12EC71F043E9BC0EE66E8B0E3D
:102FF000E66E000EE66E000EE66E020EE66E74ECF5
:1030000070F045E905016C516D110DE1820EE66E1F
:103010008B0EE66E000EE66E000EE66E020EE66E9B
:1030200074EC70F045E9010EE66E030EE66EE66A9A
:10303000B7EC00F043E9000EE66E020EE66E8EEC91
:1030400071F042E9A90EE66E990EE66E000EE66E8C
:1030500012EC71F043E9010EE66E010EE66E50ECE3
:103060006CF042E9020EE66EC0EC5EF041E904004D
:10307000060100A5F7D7E66A010EE66E50EC6CF08B
:1030800042E936EC6CF0010EE66E97EC13F041E984
:10309000B6EC5EF0060EE66EE66AE66AE66A56ECA6
:1030A00001F044E98B920001010E7B6F0001806BFF
:1030B00080C0E6FF3CEC6CF041E97CC0E6FF54ECDC
:1030C00068F041E9AAEC03F05C0EE66E8B0EE66E4A
:1030D000000EE66E12EC71F043E921EF28F036ECB9
:1030E0006CF0060EE66EE66AE66AE66A56EC01F0F9
:1030F00044E92CEC6CF0010EE66EE66AE66AE66ADC
:1031000056EC01F044E9106A116A39EC6CF0010EDA
:10311000E66E05EBE6FF06EBE6FF07EBE6FF08EBE6
:10312000E6FF55EC02F045E94FEC33F080C0E6FFD6
:103130003CEC6CF041E9E80EE66E030EE66EE66AE2
:10314000E66A01EBE6FF02EBE6FF03EBE6FF04EBCA
:10315000E6FFA1EC61F0E552E5CF03F0E5CF02F028
:10316000E5CF01F0E7CF00F000010051011102119D
:10317000031101E027D26FEC33F0000901E1D6D052
:10318000AAEC03F0210EE96E060EEA6EEE5006017F
:10319000155D0001046FEE50060116590001056F20
:1031A000EE50060117590001066FEE50060118593E
:1031B0000001076F04C0E6FF05C0E6FF06C0E6FF9A
:1031C00007C0E6FFBEEC07F044E9FCC300F0FDC316
:1031D00001F0FEC302F0FFC303F000C0E6FF01C030
:1031E000E6FF02C0E6FF03C0E6FF1D0EE96E060E15
:1031F000EA6EEE500601115D00010C6FEE50060103
:10320000125900010D6FEE500601135900010E6FA7
:10321000EE500601145900010F6F0CC0E6FF0DC0FF
:10322000E6FF0EC0E6FF0FC0E6FFBEEC07F044E984
:10323000FCC308F0FDC309F0FEC30AF0FFC30BF0A6
:1032400008C0E6FF09C0E6FF0AC0E6FF0BC0E6FFC4
:10325000190EE96E060EEA6EEE5006010D5D0001D4
:10326000146FEE5006010E590001156FEE50060165
:103270000F590001166FEE50060110590001176F2B
:1032800014C0E6FF15C0E6FF16C0E6FF17C0E6FF54
:10329000BEEC07F044E9FCC310F0FDC311F0FEC31F
:1032A00012F0FFC313F010C0E6FF11C0E6FF12C01A
:1032B000E6FF13C0E6FF3F0EE66E8B0EE66E000ED5
:1032C000E66E000EE66E020EE66E74EC70F051E9EA
:1032D000000EE66E020EE66E8EEC71F042E906011B
:1032E0003D5122E006013E511FE006013F511CE026
:1032F00000017C5103E0010E106E116AAAEC03F08C
:103300001A0EE66E8B0EE66E000EE66E000EE66E90
:10331000020EE66E74EC70F045E9000EE66E020EE9
:10332000E66E8EEC71F042E94FEC33F0060100A539
:103330002ED036EC6CF0010EE66E97EC13F041E9FE
:10334000B6EC5EF0060EE66EE66AE66AE66A56ECF3
:1033500001F044E98B920001010E7B6F0001806B4C
:1033600080C0E6FF3CEC6CF041E97CC0E6FF54EC29
:1033700068F041E9AAEC03F00B0EE66E8D0EE66EE6
:10338000000EE66E12EC71F043E921EF28F025EC17
:1033900028F001EBE6FF02EBE6FF03EBE6FF04EBB0
:1033A000E6FF020EE66E8B0EE66E000EE66E000E77
:1033B000E66E020EE66E74EC70F049E9010EE66E00
:1033C000E66AA0C0E6FFB7EC00F043E9020E000198
:1033D0007C5D3CE07E0EE66E910EE66E000EE66EC3
:1033E000000EE66E020EE66E74EC70F045E9050123
:1033F00006512BE031C6E6FF32C6E6FF33C6E6FFD4
:1034000034C6E6FF0A0EE66EE66A2AC5E6FF2BC55D
:10341000E6FFF8EC60F00A0EE66EE66A3AC5E6FFF3
:103420003BC5E6FFF8EC60F010C5E6FF11C5E6FF0E
:10343000DA0EE66E8A0EE66E000EE66E000EE66EA0
:10344000020EE66E74EC70F04FE92ED005010651C5
:103450002BE031C6E6FF32C6E6FF33C6E6FF34C6D0
:10346000E6FF0A0EE66EE66A2AC5E6FF2BC5E6FF12
:10347000F8EC60F00A0EE66EE66A3AC5E6FF3BC578
:10348000E6FFF8EC60F010C5E6FF11C5E6FFB20EEE
:10349000E66E8A0EE66E000EE66E000EE66E020E18
:1034A000E66E74EC70F04FE9010EE66E010EE66E0A
:1034B000E66AB7EC00F043E97E0EE66E910EE66E2A
:1034C000000EE66E000EE66E020EE66E74EC70F014
:1034D00045E9050146512BE035C6E6FF36C6E6FF55
:1034E00037C6E6FF38C6E6FF0A0EE66EE66A6AC52C
:1034F000E6FF6BC5E6FFF8EC60F00A0EE66EE66AE2
:103500007AC5E6FF7BC5E6FFF8EC60F050C5E6FF44
:1035100051C5E6FF8A0EE66E8A0EE66E000EE66E76
:10352000000EE66E020EE66E74EC70F04FE9010ECE
:10353000E66E020EE66EE66AB7EC00F043E97E0E38
:10354000E66E910EE66E000EE66E000EE66E020E60
:10355000E66E74EC70F045E9050186512BE039C642
:10356000E6FF3AC6E6FF3BC6E6FF3CC6E6FF0A0EAC
:10357000E66EE66AAAC5E6FFABC5E6FFF8EC60F0CA
:103580000A0EE66EE66ABAC5E6FFBBC5E6FFF8ECD2
:1035900060F090C5E6FF91C5E6FF620EE66E8A0E0A
:1035A000E66E000EE66E000EE66E020EE66E74EC3F
:1035B00070F04FE9010EE66E030EE66EE66AB7ECB8
:1035C00000F043E9D950010FE96EDACFEAFFEE2AA5
:1035D000000EEE22EE22EE22E66A05EBE6FF06EB97
:1035E000E6FF07EBE6FF08EBE6FF55EC02F045E9E6
:1035F000000904E11050111001E198D536EC6CF08F
:10360000060EE66EE66AE66AE66A56EC01F044E902
:1036100033EC6CF0010EE66EE66AE66AE66A56EC9A
:1036200001F044E9106A116A00017C5101E17DD288
:1036300039EC6CF0010EE66E05EBE6FF06EBE6FFFB
:1036400007EBE6FF08EBE6FF55EC02F045E9016AFF
:10365000026A036A046A4FEC33F080C0E6FF3CEC78
:103660006CF041E9E80EE66E030EE66EE66AE66A85
:1036700001EBE6FF02EBE6FF03EBE6FF04EBE6FF00
:10368000A1EC61F0E552E5CF03F0E5CF02F0E5CF24
:1036900001F0E7CF00F00001005101110211031108
:1036A00001E027D26FEC33F0000901E1D6D0AAEC9B
:1036B00003F0210EE96E060EEA6EEE500601155D6E
:1036C0000001046FEE50060116590001056FEE501F
:1036D000060117590001066FEE5006011859000146
:1036E000076F04C0E6FF05C0E6FF06C0E6FF07C09F
:1036F000E6FFBEEC07F044E9FCC300F0FDC301F0B7
:10370000FEC302F0FFC303F000C0E6FF01C0E6FF06
:1037100002C0E6FF03C0E6FF1D0EE96E060EEA6E6C
:10372000EE500601115D00010C6FEE5006011259BA
:1037300000010D6FEE500601135900010E6FEE509F
:103740000601145900010F6F0CC0E6FF0DC0E6FF23
:103750000EC0E6FF0FC0E6FFBEEC07F044E9FCC375
:1037600008F0FDC309F0FEC30AF0FFC30BF008C068
:10377000E6FF09C0E6FF0AC0E6FF0BC0E6FF190E30
:10378000E96E060EEA6EEE5006010D5D0001146F43
:10379000EE5006010E590001156FEE5006010F594B
:1037A0000001166FEE50060110590001176F14C08A
:1037B000E6FF15C0E6FF16C0E6FF17C0E6FFBEEC49
:1037C00007F044E9FCC310F0FDC311F0FEC312F092
:1037D000FFC313F010C0E6FF11C0E6FF12C0E6FF02
:1037E00013C0E6FF3F0EE66E8B0EE66E000EE66E31
:1037F000000EE66E020EE66E74EC70F051E9000EFB
:10380000E66E020EE66E8EEC71F042E906013D5165
:1038100022E006013E511FE006013F511CE000017D
:103820007C5103E0010E106E116AAAEC03F01A0E2F
:10383000E66E8B0EE66E000EE66E000EE66E020E73
:10384000E66E74EC70F045E9000EE66E020EE66E70
:103850008EEC71F042E94FEC33F0060100A52ED05A
:1038600036EC6CF0010EE66E97EC13F041E9B6EC25
:103870005EF0060EE66EE66AE66AE66A56EC01F06F
:1038800044E98B920001010E7B6F0001806B80C0C8
:10389000E6FF3CEC6CF041E97CC0E6FF54EC68F0DC
:1038A00041E9AAEC03F00B0EE66E8D0EE66E000EFB
:1038B000E66E12EC71F043E921EF28F025EC28F0D8
:1038C00001EBE6FF02EBE6FF03EBE6FF04EBE6FFAE
:1038D0004B0EE66E8A0EE66E000EE66E000EE66E8B
:1038E000020EE66E74EC70F049E9010EE66EE66ACF
:1038F000A0C0E6FFB7EC00F043E97E0EE66E910E45
:10390000E66E000EE66E000EE66E020EE66E74ECDB
:1039100070F045E9020E00017C5D2FE005010651C3
:103920002BE031C6E6FF32C6E6FF33C6E6FF34C6FB
:10393000E6FF0A0EE66EE66A2AC5E6FF2BC5E6FF3D
:10394000F8EC60F00A0EE66EE66A3AC5E6FF3BC5A3
:10395000E6FFF8EC60F010C5E6FF11C5E6FFDA0EF1
:10396000E66E8A0EE66E000EE66E000EE66E020E43
:10397000E66E74EC70F04FE92ED0050106512BE095
:1039800031C6E6FF32C6E6FF33C6E6FF34C6E6FFC1
:103990000A0EE66EE66A2AC5E6FF2BC5E6FFF8ECDE
:1039A00060F00A0EE66EE66A3AC5E6FF3BC5E6FF42
:1039B000F8EC60F010C5E6FF11C5E6FFB20EE66E4A
:1039C0008A0EE66E000EE66E000EE66E020EE66EE3
:1039D00074EC70F04FE9010EE66E010EE66EE66AD9
:1039E000B7EC00F043E97E0EE66E910EE66E000E37
:1039F000E66E000EE66E020EE66E74EC70F045E9BF
:103A0000050146512BE035C6E6FF36C6E6FF37C650
:103A1000E6FF38C6E6FF0A0EE66EE66A6AC5E6FF0E
:103A20006BC5E6FFF8EC60F00A0EE66EE66A7AC552
:103A3000E6FF7BC5E6FFF8EC60F050C5E6FF51C538
:103A4000E6FF8A0EE66E8A0EE66E000EE66E000E49
:103A5000E66E020EE66E74EC70F04FE9010EE66E53
:103A6000020EE66EE66AB7EC00F043E97E0EE66E03
:103A7000910EE66E000EE66E000EE66E020EE66E2B
:103A800074EC70F045E9050186512BE039C6E6FF7C
:103A90003AC6E6FF3BC6E6FF3CC6E6FF0A0EE66E08
:103AA000E66AAAC5E6FFABC5E6FFF8EC60F00A0ED1
:103AB000E66EE66ABAC5E6FFBBC5E6FFF8EC60F065
:103AC00090C5E6FF91C5E6FF620EE66E8A0EE66ED1
:103AD000000EE66E000EE66E020EE66E74EC70F0FE
:103AE0004FE9010EE66E030EE66EE66AB7EC00F0F3
:103AF00043E9D950010FE96EDACFEAFFEE2A000E52
:103B0000EE22EE22EE22E66A05EBE6FF06EBE6FF8A
:103B100007EBE6FF08EBE6FF55EC02F045E900098C
:103B200004E11050111001E198D5ADEF21F004012E
:103B3000296B2A6B2B6B2C6B04012951096E2A51BE
:103B40000A6E2B510B6E2C510C6E39EC6CF0140E6E
:103B5000E66EE66AE66AE66A56EC01F044E9016A56
:103B6000026A036A046ADE0E015C030E0258000E4C
:103B70000358000E045801E3E5D001EBE6FF02EB29
:103B8000E6FF03EBE6FF04EBE6FF4B0EE66E8A0E64
:103B9000E66E000EE66E000EE66E020EE66E74EC49
:103BA00070F049E9010EE66EE66AA0C0E6FFB7ECE8
:103BB00000F043E97E0EE66E910EE66E000EE66EB4
:103BC000000EE66E020EE66E74EC70F045E905013B
:103BD000065115E029C4E6FF2AC4E6FF2BC4E6FF20
:103BE0002CC4E6FF290EE66E8A0EE66E000EE66E27
:103BF000000EE66E020EE66E74EC70F049E9010EFE
:103C0000E66E010EE66EE66AB7EC00F043E97E0E62
:103C1000E66E910EE66E000EE66E000EE66E020E89
:103C2000E66E74EC70F045E9010EE66E020EE66E8B
:103C3000E66AB7EC00F043E9010EE66E030EE66EAD
:103C4000E66AB7EC00F043E9010EE66EE66AE66A62
:103C5000E66A56EC01F044E9190EE66EE66AE66A99
:103C6000E66A01EBE6FF02EBE6FF03EBE6FF04EB9F
:103C7000E6FFA1EC61F0E552E5CF03F0E5CF02F0FD
:103C8000E5CF01F0E7CF00F0000100510111021172
:103C900003111CE109500401291908E10A502A19ED
:103CA00005E10B502B1902E10C502C1906E1E80E2E
:103CB000016E030E026E036A046A04012951096E43
:103CC0002A510A6E2B510B6E2C510C6E060100A569
:103CD0002ED036EC6CF0010EE66E97EC13F041E955
:103CE000B6EC5EF0060EE66EE66AE66AE66A56EC4A
:103CF00001F044E98B920001010E7B6F0001806BA3
:103D000080C0E6FF3CEC6CF041E97CC0E6FF54EC7F
:103D100068F041E9AAEC03F00B0EE66E8D0EE66E3C
:103D2000000EE66E12EC71F043E921EF28F0D95055
:103D3000010FE96EDACFEAFFEE2A000EEE22EE2244
:103D4000EE2211D736EC6CF0060EE66EE66AE66AF5
:103D5000E66A56EC01F044E92CEC6CF0010EE66EDC
:103D6000E66AE66AE66A56EC01F044E90401296B6A
:103D70002A6B2B6B2C6B04012951096E2A510A6E98
:103D80002B510B6E2C510C6E39EC6CF0140EE66E50
:103D9000E66AE66AE66A56EC01F044E9016A026AFC
:103DA000036A046ADE0E015C030E0258000E03581B
:103DB000000E045801E3E5D001EBE6FF02EBE6FF5D
:103DC00003EBE6FF04EBE6FF020EE66E8B0EE66EFB
:103DD000000EE66E000EE66E020EE66E74EC70F0FB
:103DE00049E9010EE66EE66AA0C0E6FFB7EC00F016
:103DF00043E97E0EE66E910EE66E000EE66E000E54
:103E0000E66E020EE66E74EC70F045E905010651AF
:103E100015E029C4E6FF2AC4E6FF2BC4E6FF2CC444
:103E2000E6FF290EE66E8A0EE66E000EE66E000EC6
:103E3000E66E020EE66E74EC70F049E9010EE66E75
:103E4000010EE66EE66AB7EC00F043E97E0EE66E20
:103E5000910EE66E000EE66E000EE66E020EE66E47
:103E600074EC70F045E9010EE66E020EE66EE66A4D
:103E7000B7EC00F043E9010EE66E030EE66EE66A6B
:103E8000B7EC00F043E9010EE66EE66AE66AE66A20
:103E900056EC01F044E9190EE66EE66AE66AE66A57
:103EA00001EBE6FF02EBE6FF03EBE6FF04EBE6FFC8
:103EB000A1EC61F0E552E5CF03F0E5CF02F0E5CFEC
:103EC00001F0E7CF00F000010051011102110311D0
:103ED0001CE109500401291908E10A502A1905E1D9
:103EE0000B502B1902E10C502C1906E1E80E016E63
:103EF000030E026E036A046A04012951096E2A51F5
:103F00000A6E2B510B6E2C510C6E060100A52ED0A3
:103F100036EC6CF0010EE66E97EC13F041E9B6EC6E
:103F20005EF0060EE66EE66AE66AE66A56EC01F0B8
:103F300044E98B920001010E7B6F0001806B80C011
:103F4000E6FF3CEC6CF041E97CC0E6FF54EC68F025
:103F500041E9AAEC03F00B0EE66E8D0EE66E000E44
:103F6000E66E12EC71F043E921EF28F0D950010F11
:103F7000E96EDACFEAFFEE2A000EEE22EE22EE2202
:103F800011D729C435F42AC436F42BC437F42CC411
:103F900038F436EC6CF000017B6B0001806B0A0E8C
:103FA000E66ED70EE66E230EE66E3C0EE66E35C468
:103FB000E6FF36C4E6FF37C4E6FF38C4E6FF35EC5B
:103FC00060F062EC63F09DEC60F0E552E5CF13F435
:103FD000E5CF12F4E5CF11F4E7CF10F46AEC0BF063
:103FE000FA0EE66E7E0EE66E2A0EE66E3F0EE66E68
:103FF00035C4E6FF36C4E6FF37C4E6FF38C4E6FF43
:1040000035EC60F062EC63F09DEC60F0E552E5CFDA
:1040100013F4E5CF12F4E5CF11F4E7CF10F4290E35
:10402000E96E040EEA6EEE500401105D0001006FAF
:10403000EE50040111590001016FEE5004011259B4
:104040000001026FEE50040113590001036F0001DB
:10405000DC51400DF3CFE9FFF4CFEAFF000EE92673
:10406000050EEA220F0EE926000EEA22050EE926C9
:10407000000EEA2200C0EEFF01C0EDFF6AEC0BF07B
:10408000FA0EE66E7E0EE66EAA0EE66E3E0EE66E48
:1040900035C4E6FF36C4E6FF37C4E6FF38C4E6FFA2
:1040A00035EC60F062EC63F09DEC60F0E552E5CF3A
:1040B00013F4E5CF12F4E5CF11F4E7CF10F4290E95
:1040C000E96E040EEA6EEE500401105D0001006F0F
:1040D000EE50040111590001016FEE500401125914
:1040E0000001026FEE50040113590001036F00013B
:1040F000DC51400DF3CFE9FFF4CFEAFF000EE926D3
:10410000050EEA220F0EE926000EEA22050EE92628
:10411000000EEA2200C0EEFF01C0EDFF6AEC0BF0DA
:10412000660EE66E660EE66E660EE66E3F0EE66E96
:1041300035C4E6FF36C4E6FF37C4E6FF38C4E6FF01
:1041400035EC60F062EC63F09DEC60F0E552E5CF99
:1041500013F4E5CF12F4E5CF11F4E7CF10F4290EF4
:10416000E96E040EEA6EEE500401105D0001006F6E
:10417000EE50040111590001016FEE500401125973
:104180000001026FEE50040113590001036F00019A
:10419000DC51400DF3CFE9FFF4CFEAFF000EE92632
:1041A000050EEA220F0EE926000EEA22050EE92688
:1041B000000EEA2200C0EEFF01C0EDFF6AEC0BF03A
:1041C000CD0EE66ECC0EE66ECC0EE66E3D0EE66EC5
:1041D00035C4E6FF36C4E6FF37C4E6FF38C4E6FF61
:1041E00035EC60F062EC63F09DEC60F0E552E5CFF9
:1041F00013F4E5CF12F4E5CF11F4E7CF10F4290E54
:10420000E96E040EEA6EEE500401105D0001006FCD
:10421000EE50040111590001016FEE5004011259D2
:104220000001026FEE50040113590001036F0001F9
:10423000DC51400DF3CFE9FFF4CFEAFF000EE92691
:10424000050EEA220F0EE926000EEA22050EE926E7
:10425000000EEA2200C0EEFF01C0EDFF6AEC0BF099
:10426000E66AE66AE66A3F0EE66E35C4E6FF36C4E5
:10427000E6FF37C4E6FF38C4E6FF35EC60F062ECD9
:1042800063F09DEC60F0E552E5CF13F4E5CF12F456
:10429000E5CF11F4E7CF10F4290EE96E040EEA6EB3
:1042A000EE500401105D0001006FEE500401115941
:1042B0000001016FEE50040112590001026FEE502F
:1042C000040113590001036F0001DC51400DF3CFCD
:1042D000E9FFF4CFEAFF000EE926050EEA220F0EF1
:1042E000E926000EEA22050EE926000EEA2200C0A9
:1042F000EEFF01C0EDFF6AEC0BF0016A026A036A8F
:10430000046A030E015C000E0258000E0358000EF2
:10431000045823E201EBE9FF02EBEAFF060ED89016
:10432000E936EA36E806FBE1000EE926050EEA2248
:104330000F0EE926000EEA22210EE926000EEA22DF
:10434000EE6AED6AD950010FE96EDACFEAFFEE2A84
:10435000000EEE22EE22EE22D4D7016A026A036A30
:10436000046A030E015C000E0258000E0358000E92
:10437000045802E3BFEF26F001EBE9FF02EBEAFF8E
:10438000060ED890E936EA36E806FBE1000EE9268B
:10439000050EEA22060EE926000EEA22EF5001E1A0
:1043A00057D101EBE9FF02EBEAFF060ED890E936A0
:1043B000EA36E806FBE1000EE926050EEA220F0EBA
:1043C000E926000EEA22090EE926000EEA22EECFC7
:1043D00000F0EFCF01F001EBE9FF02EBEAFF060E80
:1043E000D890E936EA36E806FBE1000EE926050E2C
:1043F000EA220F0EE926000EEA220B0EE926000E35
:10440000EA22EECF02F0EFCF03F0000101350151B7
:104410000001031908E6000100510001025D0001DE
:1044200001510001035919E201EBE9FF02EBEAFF38
:10443000060ED890E936EA36E806FBE1000EE926DA
:10444000050EEA220F0EE926000EEA22210EE926C9
:10445000000EEA22010EEE6EED6A01EBE9FF02EBBF
:10446000EAFF060ED890E936EA36E806FBE1000ED0
:10447000E926050EEA220F0EE926000EEA221B0E9F
:10448000E926000EEA22EECF00F0EFCF01F001EBBB
:10449000E9FF02EBEAFF060ED890E936EA36E806B5
:1044A000FBE1000EE926050EEA220F0EE926000EBA
:1044B000EA220D0EE926000EEA22EECF02F0EFCF3F
:1044C00003F00001033503510001011908E6000162
:1044D00002510001005D000103510001015919E280
:1044E00001EBE9FF02EBEAFF060ED890E936EA3667
:1044F000E806FBE1000EE926050EEA220F0EE9268A
:10450000000EEA22210EE926000EEA22010EEE6ECE
:10451000ED6A01EBE9FF02EBEAFF060ED890E936FF
:10452000EA36E806FBE1000EE926050EEA220F0E48
:10453000E926000EEA22190EE926000EEA22EECF45
:1045400000F0EFCF01F001EBE9FF02EBEAFF060E0E
:10455000D890E936EA36E806FBE1000EE926050EBA
:10456000EA220F0EE926000EEA22110EE926000EBD
:10457000EA22EECF02F0EFCF03F000010335035142
:104580000001011908E6000102510001005D00016F
:1045900003510001015943E301EBE9FF02EBEAFF9C
:1045A000060ED890E936EA36E806FBE1000EE92669
:1045B000050EEA220F0EE926000EEA22190EE92660
:1045C000000EEA22EECF04F0EFCF05F001EBE9FF99
:1045D00002EBEAFF060ED890E936EA36E806FBE180
:1045E000000EE926050EEA220F0EE926000EEA2249
:1045F000130EE926000EEA22EECF06F0EFCF07F009
:104600000001053505510001071908E600010451B4
:104610000001065D000105510001075919E201EB97
:10462000E9FF02EBEAFF060ED890E936EA36E80623
:10463000FBE1000EE926050EEA220F0EE926000E28
:10464000EA22210EE926000EEA22010EEE6EED6A44
:1046500001EBE9FF02EBEAFF060ED890E936EA36F5
:10466000E806FBE1000EE926050EEA220F0EE92618
:10467000000EEA22210EE926000EEA22EE50ED108D
:1046800001E0AFD101EBE9FF02EBEAFF060ED890A3
:10469000E936EA36E806FBE1000EE926050EEA22D5
:1046A0000F0EE926000EEA221D0EE926000EEA2270
:1046B000010EEE6EED6A01EBE9FF02EBEAFF060E7A
:1046C000D890E936EA36E806FBE1000EE926050E49
:1046D000EA220F0EE926000EEA221F0EE926000E3E
:1046E000EA22010EEE6EED6A01EBE9FF02EBEAFF52
:1046F000060ED890E936EA36E806FBE1000EE92618
:10470000050EEA220D0EE926000EEA22EECF00F099
:10471000EFCF01F001EBE9FF02EBEAFF060ED890C4
:10472000E936EA36E806FBE1000EE926050EEA2244
:104730000F0EE926000EEA222D0EE926000EEA22CF
:1047400000C0EEFF01C0EDFF01EBE9FF02EBEAFF65
:10475000060ED890E936EA36E806FBE1000EE926B7
:10476000050EEA22060EE926000EEA22EF5001E1CC
:1047700037D1020E00017C5D04E0580E01240D6E5D
:1047800002D0410E0D6EAAEC03F00DEB00F000011B
:10479000016B00BF016900C0E6FF01C0E6FFFD0E2E
:1047A000E66E890EE66E000EE66E000EE66E020EF6
:1047B000E66E74EC70F047E9000EE66E020EE66EEF
:1047C0008EEC71F042E901EBE9FF02EBEAFF060E25
:1047D000D890E936EA36E806FBE1000EE926050E38
:1047E000EA220F0EE926000EEA220B0EE926000E41
:1047F000EA22EECFE6FFEECFE6FF01EBE9FF02EBA8
:10480000EAFF060ED890E936EA36E806FBE1000E2C
:10481000E926050EEA220F0EE926000EEA22090E0D
:10482000E926000EEA22EECFE6FFEECFE6FFE60E27
:10483000E66E890EE66E000EE66E000EE66E020E65
:10484000E66E74EC70F049E9000EE66E020EE66E5C
:104850008EEC71F042E9A90EE66E990EE66E000E3E
:10486000E66E12EC71F043E901EBE9FF02EBEAFFBF
:10487000060ED890E936EA36E806FBE1000EE92696
:10488000050EEA220F0EE926000EEA220D0EE92699
:10489000000EEA22EECFE6FFEECFE6FF01EBE9FFE6
:1048A00002EBEAFF060ED890E936EA36E806FBE1AD
:1048B000000EE926050EEA220F0EE926000EEA2276
:1048C0001B0EE926000EEA22EECFE6FFEECFE6FF52
:1048D000CF0EE66E890EE66E000EE66E000EE66EF8
:1048E000020EE66E74EC70F049E9000EE66E020E00
:1048F000E66E8EEC71F042E9A90EE66E990EE66E58
:10490000000EE66E12EC71F043E901EBE9FF02EBF9
:10491000EAFF060ED890E936EA36E806FBE1000E1B
:10492000E926050EEA220F0EE926000EEA22130EF2
:10493000E926000EEA22EECFE6FFEECFE6FF01EB1E
:10494000E9FF02EBEAFF060ED890E936EA36E80600
:10495000FBE1000EE926050EEA220F0EE926000E05
:10496000EA22110EE926000EEA22EECFE6FFEECF94
:10497000E6FF01EBE9FF02EBEAFF060ED890E9360D
:10498000EA36E806FBE1000EE926050EEA220F0EE4
:10499000E926000EEA22190EE926000EEA22EECFE1
:1049A000E6FFEECFE6FFB80EE66E890EE66E000E6D
:1049B000E66E000EE66E020EE66E74EC70F04BE9E9
:1049C000000EE66E020EE66E8EEC71F042E9A90E64
:1049D000E66E990EE66E000EE66E12EC71F043E99B
:1049E000C2D101EBE9FF02EBEAFF060ED890E936EF
:1049F000EA36E806FBE1000EE926050EEA22060E7D
:104A0000E926000EEA22EF5001E1ADD10601009542
:104A1000020E00017C5D04E0580E01240D6E02D0F0
:104A2000410E0D6EAAEC03F0A20EE66E990EE66E34
:104A3000000EE66E12EC71F043E90DEB00F00001A0
:104A4000016B00BF016900C0E6FF01C0E6FFA20ED6
:104A5000E66E890EE66E000EE66E000EE66E020E43
:104A6000E66E74EC70F047E9010EE66EE66AA0C0EF
:104A7000E6FFB7EC00F043E9000EE66E020EE66ECC
:104A80008EEC71F042E9A90EE66E990EE66E000E0C
:104A9000E66E12EC71F043E901EBE9FF02EBEAFF8D
:104AA000060ED890E936EA36E806FBE1000EE92664
:104AB000050EEA220F0EE926000EEA220B0EE92669
:104AC000000EEA22EECFE6FFEECFE6FF01EBE9FFB4
:104AD00002EBEAFF060ED890E936EA36E806FBE17B
:104AE000000EE926050EEA220F0EE926000EEA2244
:104AF000090EE926000EEA22EECFE6FFEECFE6FF32
:104B00008B0EE66E890EE66E000EE66E000EE66E09
:104B1000020EE66E74EC70F049E9010EE66E010ECD
:104B2000E66EE66AB7EC00F043E9000EE66E020EB0
:104B3000E66E8EEC71F042E9A90EE66E990EE66E15
:104B4000000EE66E12EC71F043E901EBE9FF02EBB7
:104B5000EAFF060ED890E936EA36E806FBE1000ED9
:104B6000E926050EEA220F0EE926000EEA220D0EB6
:104B7000E926000EEA22EECFE6FFEECFE6FF01EBDC
:104B8000E9FF02EBEAFF060ED890E936EA36E806BE
:104B9000FBE1000EE926050EEA220F0EE926000EC3
:104BA000EA221B0EE926000EEA22EECFE6FFEECF48
:104BB000E6FF740EE66E890EE66E000EE66E000EDF
:104BC000E66E020EE66E74EC70F049E9010EE66ED8
:104BD000020EE66EE66AB7EC00F043E9000EE66E00
:104BE000020EE66E8EEC71F042E9A90EE66E990EA9
:104BF000E66E000EE66E12EC71F043E901EBE9FFA0
:104C000002EBEAFF060ED890E936EA36E806FBE149
:104C1000000EE926050EEA220F0EE926000EEA2212
:104C2000130EE926000EEA22EECFE6FFEECFE6FFF6
:104C300001EBE9FF02EBEAFF060ED890E936EA360F
:104C4000E806FBE1000EE926050EEA220F0EE92632
:104C5000000EEA22110EE926000EEA22EECFE6FF50
:104C6000EECFE6FF01EBE9FF02EBEAFF060ED8907C
:104C7000E936EA36E806FBE1000EE926050EEA22EF
:104C80000F0EE926000EEA22190EE926000EEA228E
:104C9000EECFE6FFEECFE6FFB80EE66E890EE66ECB
:104CA000000EE66E000EE66E020EE66E74EC70F01C
:104CB0004BE9010EE66E030EE66EE66AB7EC00F015
:104CC00043E9000EE66E020EE66E8EEC71F042E9EC
:104CD000A90EE66E990EE66E000EE66E12EC71F00D
:104CE00043E9010EE66E010EE66E50EC6CF042E90F
:104CF000020E00017C5D04E0580E01240D6E02D00E
:104D0000410E0D6EAAEC03F00DEB00F00001016BFB
:104D100000BF016900C0E6FF01C0E6FF480EE66E75
:104D2000890EE66E000EE66E000EE66E020EE66E70
:104D300074EC70F047E9000EE66E020EE66E8EEC43
:104D400071F042E9020EE66EC0EC5EF041E904004B
:104D5000060100A5F7D7E66A010EE66E50EC6CF08E
:104D600042E9B6EC5EF0D950010FE96EDACFEAFF06
:104D7000EE2A000EEE22EE22EE22B1EF21F036EC0A
:104D80006CF0060EE66EE66AE66AE66A56EC01F03C
:104D900044E98B9200017B6B0001806BB6EC5EF006
:104DA0000001865101E032D1016A026A036A046A95
:104DB000050EE66EC0EC5EF041E9330EE66E890E3C
:104DC000E66E000EE66E000EE66E020EE66E74EC07
:104DD00070F045E9010EE66EE66AA0C0E6FFB7ECAA
:104DE00000F043E9060100A59AD08F80AAEC03F0F9
:104DF000150EE66E890EE66E000EE66E000EE66E8D
:104E0000020EE66E74EC70F045E9000EE66E020EDE
:104E1000E66E8EEC71F042E9010EE66EE66AA0C025
:104E2000E6FFB7EC00F043E9060EE66EE66AE66AD6
:104E3000E66A56EC01F044E9B6EC5EF07E0EE66EF2
:104E4000910EE66E000EE66E000EE66E020EE66E47
:104E500074EC70F045E9010EE66E010EE66EE66A4E
:104E6000B7EC00F043E97E0EE66E910EE66E000EA2
:104E7000E66E000EE66E020EE66E74EC70F045E92A
:104E8000010EE66E020EE66EE66AB7EC00F043E94C
:104E90007E0EE66E910EE66E000EE66E000EE66E7B
:104EA000020EE66E74EC70F045E9010EE66E030E3C
:104EB000E66EE66AB7EC00F043E9020EE66E8EECB1
:104EC00010F041E9AAEC03F0F80EE66E880EE66EEB
:104ED000000EE66E000EE66E020EE66E74EC70F0EA
:104EE00045E9000EE66E020EE66E8EEC71F042E9C8
:104EF000010EE66EE66AA0C0E6FFB7EC00F043E9FB
:104F0000060EE66EE66AE66AE66A56EC01F044E9E9
:104F1000A00E016E860E026E010E036E046A04007E
:104F2000060106010051040B1DE1D950010FE96E85
:104F3000DACFEAFFEFCF00F0EE2A000EEFCF01F05C
:104F4000EE22EFCF02F0EE22EFCF03F0EF22E80ED9
:104F50000001005D030E0159000E0259000E0359B5
:104F600001E22BD7DA0EE66E880EE66E000EE66ED4
:104F7000000EE66E020EE66E74EC70F045E9010E6E
:104F8000E66EE66AE66AB7EC00F043E97E0EE66E8E
:104F9000910EE66E000EE66E000EE66E020EE66EF6
:104FA00074EC70F045E9010EE66E010EE66EE66AFD
:104FB000B7EC00F043E97E0EE66E910EE66E000E51
:104FC000E66E000EE66E020EE66E74EC70F045E9D9
:104FD000010EE66E020EE66EE66AB7EC00F043E9FB
:104FE0007E0EE66E910EE66E000EE66E000EE66E2A
:104FF000020EE66E74EC70F045E9010EE66E030EEB
:10500000E66EE66AB7EC00F043E900D000017B6B86
:105010000001806B060EE66EE66AE66AE66A56EC0A
:1050200001F044E9B6EC5EF0C3EC13F0AAEC03F037
:105030005C0EE66E8B0EE66E000EE66E12EC71F004
:1050400043E952E9E7CFD9FF1200ECEC33F000015D
:105050008C5151E0EAC4E6FFEBC4E6FFE8C4E6FF8A
:10506000E9C4E6FFE6C4E6FFE7C4E6FFB4EC31F0CE
:1050700090EC31F0A2EC31F0A50EE66E880EE66EF3
:10508000000E66EC2CF09AEC2FF0BDEC31F099ECB0
:1050900031F0ABEC31F0820EE66E880EE66E000E5B
:1050A00066EC2CF051E941EC30F098C5E6FF99C56B
:1050B000E6FF92C5E6FF93C5E6FF11EC33F058C555
:1050C000E6FF59C5E6FF52C5E6FF53C5E6FF85EC8E
:1050D0002EF018C5E6FF19C5E6FF12C5E6FF13C599
:1050E000E6FFD1EC32F0440EE66E880EE66E000E5E
:1050F000EDDB9AEC2FF012000501C80EC26FFBEC3D
:105100002DF0AEEC2FF027E02B0EE66EA8EC6FF042
:1051100041E9AEEC2FF0FDE1FBEC2DF02B0EE66E3D
:10512000A8EC6FF041E9AEEC2FF0FDE10C0EE66E5D
:1051300019EC72F041E9AEEC2FF0FDE1010EE66EE4
:1051400019EC72F041E9FBEC2DF00001010EF66F55
:105150000501180EC26F12000001806B120EE66E80
:10516000220EE66E96EC6EF042E92F0EE66E880E89
:10517000E66E000EE66E000EE66E020EE66E74EC53
:1051800070F045E9010EE66EE66AE66AB7EC00F0FB
:1051900043E9010EE66E010EE66EE66AB7EC00F03A
:1051A00043E9010EE66E020EE66EE66AB7EC00F029
:1051B00043E9010EE66E030EE66EE66AB7EC00F018
:1051C00043E9120EE66E220EE66E47EC6FF042E9FE
:1051D0008F9092DF8B68FCAE15D0FC9EA90EE66E18
:1051E000990EE66E000EE66E12EC71F043E9AAEC41
:1051F00003F00A0EE66E880EE66E000EE66E12EC06
:1052000071F043E9FCAC15D0FC9CA90EE66E990E3A
:10521000E66E000EE66E12EC71F043E9AAEC03F0C4
:10522000E00EE66E870EE66E000EE66E12EC71F092
:1052300043E90001735114E0A90EE66E990EE66E83
:10524000000EE66E12EC71F043E9AAEC03F0B70E23
:10525000E66E870EE66E000EE66E12EC71F043E924
:105260000001745114E0A90EE66E990EE66E000E70
:10527000E66E12EC71F043E9AAEC03F08E0EE66ED6
:10528000870EE66E000EE66E12EC71F043E9140E26
:10529000E66EE66A760EE66E870EE66E000EE66E47
:1052A000000EE66E020EE66E62EC6EF047E9010E4D
:1052B000E66EE66AE66AB7EC00F043E9A40EE66E35
:1052C000990EE66E000EE66E12EC71F043E9140ED4
:1052D000E66EE66A9DC0E6FF9EC0E6FF9FC0E6FF61
:1052E000000EE66E020EE66E62EC6EF047E9010E0D
:1052F000E66E010EE66EE66AB7EC00F043E9000EDA
:10530000E66E020EE66E8EEC71F042E9A20EE66EDB
:10531000990EE66E000EE66E12EC71F043E9140E83
:10532000E66EE66A9AC0E6FF9BC0E6FF9CC0E6FF19
:10533000000EE66E020EE66E62EC6EF047E9000EBD
:10534000E66E020EE66E8EEC71F042E9010EE66E3C
:10535000020EE66EE66AB7EC00F043E9140EE66E64
:10536000E66A8C0EE66E990EE66E000EE66E000E94
:10537000E66E020EE66E62EC6EF047E9000EE66E37
:10538000020EE66E8EEC71F042E9A90EE66E990E01
:10539000E66E000EE66E12EC71F043E9010EE66E69
:1053A000030EE66EE66AB7EC00F043E9AAEC03F000
:1053B000570EE66E870EE66E000EE66E12EC71F08A
:1053C00043E983A20CD00001010E8C6F3F0EE66E04
:1053D000870EE66E000EE66E12EC71F043E983A0D4
:1053E00039D0AAEC03F0260EE66E870EE66E000EAC
:1053F000E66E12EC71F043E9000EE66EE66A000E0E
:10540000E66EE66A010EE66EE66A72EC6DF046E95B
:10541000AAEC03F0090EE66E870EE66E000EE66E4D
:1054200012EC71F043E90501F46B0F0E0501F45D18
:1054300011E2080EE66EE66A0501F451E66EE66AD0
:105440000F0EE66E7F0EE66E72EC6DF046E905011A
:10545000F42BEBD7AAEC03F0E90EE66E860EE66EAF
:10546000000EE66E12EC71F043E9000EE66EE66A9D
:10547000000EE66EE66AA4EC6DF044E959080CE112
:10548000000EE66EE66A020EE66EE66AA4EC6DF0C9
:1054900044E90501F36F22D0AAEC03F0C60EE66ED4
:1054A000860EE66E000EE66E12EC71F043E9000E19
:1054B000E66EE66A000EE66EE66A010EE66EE66AE3
:1054C00072EC6DF046E9AAEC03F0A60EE66E860ECD
:1054D000E66E000EE66E12EC71F043E9AAEC03F002
:1054E0008D0EE66E860EE66E000EE66E12EC71F024
:1054F00043E9080EE66EE66A000EE66EE66AA4EC84
:105500006DF044E959081FE10501F46B0F0E050128
:10551000F45D18E20501F451E66EE66A0A0EE66EE5
:10552000E66AA4EC6DF044E9E66E0501F451EA6A1E
:10553000E50FE96E000EEA22E552E750EF6E050135
:10554000F42BE4D734D0AAEC03F0710EE66E860E8D
:10555000E66E000EE66E12EC71F043E90501F46BA5
:105560000F0E0501F45D18E2080EE66EE66A05010D
:10557000F451E66EE66A0F0EE66E0501F451EA6A32
:10558000E50FE96E000EEA22EFCFE6FF72EC6DF058
:1055900046E90501F42BE4D7AAEC03F0580EE66EB9
:1055A000860EE66E000EE66E12EC71F043E983A4FF
:1055B00003D04EEC0AF0FFD77CEC41F0AAEC03F0EC
:1055C0003F0EE66E860EE66E000EE66E12EC71F091
:1055D00043E9050EE66EE66AE66AE66A56EC01F015
:1055E00044E9ECEC33F083A00BD0AAEC03F0290ED5
:1055F000E66E860EE66E000EE66E12EC71F043E982
:1056000083A60ED0AAEC03F00C0EE66E860EE66EB4
:10561000000EE66E12EC71F043E900010F0EF76F19
:10562000740EE66E030EE66E05C6E6FF06C6E6FFDE
:1056300007C6E6FF08C6E6FFEFEC07F046E97B0E7B
:10564000E66E030EE66E09C6E6FF0AC6E6FF0BC667
:10565000E6FF0CC6E6FFEFEC07F046E97B0EE66ED0
:10566000030EE66E740EE66E030EE66EF30EE66E45
:10567000850EE66E000EE66E000EE66E020EE66E1B
:1056800074EC70F049E9010EE66EE66AE66AB7EC82
:1056900000F043E98350010BE66EE66A8350020B8B
:1056A00001E0010EE66EE66A8350040B01E0010E94
:1056B000E66EE66A8350080B01E0010EE66EE66ACC
:1056C0008350100B01E0010EE66EE66A8350200B5A
:1056D00001E0010EE66EE66A8350400B01E0010E28
:1056E000E66EE66A8350800B01E0010EE66EE66A24
:1056F000CA0EE66E850EE66E000EE66E000EE66ED3
:10570000020EE66E74EC70F055E9010EE66E010EC5
:10571000E66EE66AB7EC00F043E9AAEC03F0000E8F
:10572000E66E020EE66E8EEC71F042E92BEC03F0B1
:10573000050EE66EE66AE66AE66A56EC01F044E9B2
:10574000ECEC33F005C6E6FF06C6E6FFA0EC72F00F
:1057500042E957EC6FF08B6A0001846B0001886BA3
:1057600000017A6B00017C51E66EE66AE7EC0DF011
:1057700042E97CC0E6FF54EC68F041E90001010E0B
:10578000676F740EE66E030EE66E05C6E6FF06C68C
:10579000E6FF07C6E6FF08C6E6FFEFEC07F046E9BE
:1057A0007B0EE66E030EE66E09C6E6FF0AC6E6FF4E
:1057B0000BC6E6FF0CC6E6FFEFEC07F046E910C4A7
:1057C000E6FF11C4E6FF12C4E6FF13C4E6FF00C4FF
:1057D000E6FF01C4E6FF02C4E6FF03C4E6FF7B0E5A
:1057E000E66E030EE66E740EE66E030EE66EA90E0E
:1057F000E66E850EE66E000EE66E000EE66E020E9A
:10580000E66E74EC70F051E9010EE66EE66AE66A47
:10581000B7EC00F043E9AAEC03F0000EE66E020ECE
:10582000E66E8EEC71F042E92BEC03F0280EE66E8A
:10583000C5EC5EF041E9050EE66EE66AE66AE66AE8
:1058400056EC01F044E92FEC0BF0010EE66E010E70
:10585000E66EE66AE66AE66A90EC02F045E9ECEC90
:1058600033F027EC6CF0000905E00001655102E01F
:105870007CEC41F04AEC11F004000001815112E08F
:10588000D8EC13F0A7EC0EF00401D56FD50EE66E40
:10589000040EE66EE7EC0DF042E9D5C4E6FFBEEC7F
:1058A0000AF041E904000EEC01F06AEC0BF0000193
:1058B000835102E00001A26BD2D71200400D16EC1A
:1058C00033F0000EE926050EEA221200E66EC8EC5F
:1058D00032F074EF70F0C9DBD4DBA90EE66E990EDE
:1058E000E66E000EE66E12EF71F0A8EC30F095EC6B
:1058F00030F011EC63F0E552E5CF07F0E5CF06F0AC
:10590000E5CF05F0E7CF04F000010451005D000190
:10591000E16F0001055101590001E26F00010651DC
:1059200002590001E36F0001075103590001E46FC0
:10593000120036EC33F0050E46EF32F018C5E6FFE4
:1059400019C5E6FFA2EC32F02AC5E6FF2BC5E6FF3B
:10595000BCEC30F028C5E6FF29C5E6FFF8EF60F0A3
:1059600058C5E6FF59C5E6FFA2EC32F06AC5E6FF6E
:105970006BC5E6FFBCEC30F068C5E6FF69C5E6FF25
:10598000F8EF60F0E4EC61F0E552E5CFC6F0E5CF6A
:10599000C5F0E5CFC4F0E7CFC3F0C6EC31F0F2EFCD
:1059A00030F0400DF3CF00F0F4CF01F0000E000115
:1059B0000027050E0123D2EC31F0CDEC6AF042E96C
:1059C000120098C5E6FF99C5E6FFA2EC32F0AAC521
:1059D000E6FFABC5E6FFD0DBA8C5E6FFA9C5E6FF3D
:1059E000F8EF60F07E0EE66E910EE66E000E12008D
:1059F000E552E5CF03F0E5CF02F0E5CF01F0E7CFC8
:105A000000F0120060DBE552E5CF13F4E5CF12F4AD
:105A1000E5CF11F4E7CF10F41200DFDBC0EF30F078
:105A2000BEEC07F044E9FCC300F0FDC301F0FEC387
:105A300002F0FFC303F0120047E941EF30F0D9CF85
:105A4000E6FFE1CFD9FF12000501E151E12BE25D54
:105A5000120075EC32F090EC31F099EF31F0FF511B
:105A6000060D16EC33F0A00EE926030EEA22120012
:105A700041E9E7CFD9FF12005BEC31F0D2EC31F015
:105A8000E66EC8EC32F062EC6EF047E9120002EB11
:105A9000E9FF03EBEAFFD890E936EA36D890E93619
:105AA000EA36CA0EE926030EEA221200030EE66E5B
:105AB000EDEC6CF041E9120045E984EF32F048DB8F
