:020000040000FA
:0600000010EF75F0120084
:020006001200E6
:06000800EFEF58F01200BA
:02000E00C250DE
:08001000020B01E0010E1200D9
:0600180083EF5FF012000F
:02001E000700D9
:1000200099EA0000F9040000010000008AEB0000DA
:10003000F30400000200000086EB0000FB02000059
:1000400004000000EDEA00006000000099000000DC
:10005000DBEA0000EA03000012000000D9EA000019
:10006000FE06000002000000A6EA0000C205000033
:040070003300000059
:0C00740022EC2DF083E941E80150050862
:1000800001E2016A005003E070EC2EF0EF6A01EB30
:10009000C7F50001160E036F9D0E046F000E056F6D
:1000A000B0EC2EF0E5CF08F0EDEC2FF0000162ECA3
:1000B00031F070EC2EF0EFCF09F00A6B0B6B0051B2
:1000C0000925F36E01510A21F46E02510B21F86EDD
:1000D000F4CFF7FFF3CFF6FF0800F550036E70EC96
:1000E0002EF0EF2AEFCF00F0016B026BD6EC31F06F
:1000F00002C0E6FF160E096F9D0E0A6F000E0B6F11
:10010000B0EC2EF0E5CF0EF0E5CF0DF0E7CF0CF020
:10011000000109510C25066F0A510D21076F0B5183
:100120000E21086F13EC33F0E66EFAEC6EF043E943
:10013000E552E7CF02F0E552E7CF01F0E552E7CF15
:1001400000F0FCC303F0FDC304F0FEC305F00001A2
:100150000351005D045101590551025903E370EC4C
:100160002EF0EF6A035042E9E7CFD9FF120022ECEC
:100170002DF084E90001F6514FE0005021E00250DB
:1001800001240501C86FFBEC31F0890EE66E9B0E71
:10019000E66E000EE66E68EC2DF04DEC6FF047E970
:1001A000FBEC31F0D5EC32F0050168EC2DF01FECE2
:1001B0006FF046E905014DEC31F0140EF0EC2EF035
:1001C0000150030A0CE0010A08E0030A04E0010AF6
:1001D00009E1E66A08D0400E03D0140E01D0540E97
:1001E000E66E01D0E66A9CEC72F041E90150000134
:1001F000A0250501C86F00016A510EE0B4EC2FF094
:10020000FDE1050168EC2DF0CBEC73F042E9B4ECB4
:100210002FF0FDE1010E901639EF2DF000016E5127
:1002200004E052EC42F000016E6B725107E0726B19
:10023000F85102E0000E01D0010EF86F755104E094
:1002400023EC11F00001756B685103E0A7DA00019F
:10025000686B715104E001EC07F00001716B6F51A4
:1002600003E0BDDA00016F6B1200D9CFE6FFE1CFEA
:10027000D9FF85E90401776B786B796B7A6B0401A0
:100280007751005C78510158795102587A510358DE
:1002900009E3000004000401772B000E7823792382
:1002A0007A23EDD741E9E7CFD9FF1200D9CFE6FF96
:1002B000E1CFD9FF85E9030EE66ED8EC6DF041E998
:1002C00091C67BF492C67CF493C67DF494C67EF40A
:1002D00024EC6EF0D9CFE9FFDACFEAFF04017B51BD
:1002E000EE240401836F04017C51EE200401846F2D
:1002F00004017D51EE200401856F04017E51EE2042
:100300000401866F030EE66ED8EC6DF041E991C6EC
:100310007FF492C680F493C681F494C682F424ECF0
:100320006EF004007F0EE96E040EEA6E0401835144
:10033000EE5C8451EE588551EE588651EE58E2E35A
:1003400041E9E7CFD9FF120032EC31F019E05AEC65
:100350002DF091C687F492C688F493C689F494C6AA
:100360008AF499EC2DF004018751EE248F6F8851A7
:10037000EE20906F8951EE20916F8A51EE20926F9E
:100380005AEC2DF091C68BF492C68CF493C68DF482
:1003900094C68EF424EC6EF08B0EE96E040EEA6EB9
:1003A00004018F51EE5C9051EE589151EE589251EC
:1003B000EE5802E2000E01D0010E39EF2DF032ECC2
:1003C00031F019E05AEC2DF091C693F492C694F4F2
:1003D00093C695F494C696F499EC2DF004019351CC
:1003E000EE249B6F9451EE209C6F9551EE209D6FF3
:1003F0009651EE209E6F5AEC2DF091C697F492C65E
:1004000098F493C699F494C69AF424EC6EF0970E7F
:10041000E96E040EEA6E04019B51EE5C9C51EE58AD
:100420009D51EE589E51EE5802E2000E01D0010E91
:1004300039EF2DF032EC31F019E05AEC2DF091C685
:100440009FF492C6A0F493C6A1F494C6A2F499ECCA
:100450002DF004019F51EE24A76FA051EE20A86F4C
:10046000A151EE20A96FA251EE20AA6F5AEC2DF0F7
:1004700091C6A3F492C6A4F493C6A5F494C6A6F4B8
:1004800024EC6EF0A30EE96E040EEA6E0401A7518F
:10049000EE5CA851EE58A951EE58AA51EE5802E26E
:1004A000000E01D0010E39EF2DF032EC31F019E0E1
:1004B0005AEC2DF091C6ABF492C6ACF493C6ADF4F1
:1004C00094C6AEF499EC2DF00401AB51EE24B36F59
:1004D000AC51EE20B46FAD51EE20B56FAE51EE20B1
:1004E000B66F5AEC2DF091C6AFF492C6B0F493C635
:1004F000B1F494C6B2F424EC6EF0AF0EE96E040EC3
:10050000EA6E0401B351EE5CB451EE58B551EE58A9
:10051000B651EE5802E2000E01D0010E39EF2DF077
:1005200032EC31F019E05AEC2DF091C6B7F492C6D6
:10053000B8F493C6B9F494C6BAF499EC2DF004015A
:10054000B751EE24BF6FB851EE20C06FB951EE2005
:10055000C16FBA51EE20C26F5AEC2DF091C6BBF4B8
:1005600092C6BCF493C6BDF494C6BEF424EC6EF0FF
:10057000BB0EE96E040EEA6E0401BF51EE5CC05181
:10058000EE58C151EE58C251EE5802E2000E01D0B1
:10059000010E39EF2DF032EC31F019E05AEC2DF06C
:1005A00091C6C3F492C6C4F493C6C5F494C6C6F407
:1005B00099EC2DF00401C351EE24CB6FC451EE2011
:1005C000CC6FC551EE20CD6FC651EE20CE6F5AECE8
:1005D0002DF091C6C7F492C6C8F493C6C9F494C668
:1005E000CAF424EC6EF0C70EE96E040EEA6E040144
:1005F000CB51EE5CCC51EE58CD51EE58CE51EE5869
:1006000002E2000E01D0010E39EF2DF000000401CE
:10061000CF6B0501C2510401CF5D04E2000004016B
:10062000CF2BF7D712000F0EE66E29EC74F041E9DC
:100630001200050EE66E29EC74F041E9120022EC7E
:100640002DF082E96CA2FED700EBE6FFC1EC74F05E
:1006500041E939EF2DF0050E63EF2DF000016A51ED
:1006600001E11200B4EC2FF0FDE1120022EC2DF0BC
:1006700089E903340EE202500808000E035409E22F
:1006800004EBFCF305EBFDF306EBFEF307EBFFF3E6
:100690005FD00050011009E000018F0E926FC20E72
:1006A000936F750E946F3D0E06D00001926B936BA5
:1006B000800E946F3E0E956FE2EC30F092C0E6FF34
:1006C00093C0E6FF94C0E6FF95C0E6FFEDEC32F084
:1006D000E2EC30F004EBE6FF05EBE6FF06EBE6FFAD
:1006E00007EBE6FF4DEC64F0CDEC5FF04DEC64F011
:1006F000EDEC32F0CFEC5FF0CFEC62F0E552E5CFFD
:1007000099F0E5CF98F0E5CF97F0E7CF96F048EC79
:100710002DF096C0EEFF97C0EEFF98C0EEFF99C097
:10072000EEFF001C0DE1011C0BE10001966B976BC5
:10073000986B996B48EC2DF0EE6AEE6AEE6AEE6A01
:1007400096C0FCF397C0FDF398C0FEF399C0FFF389
:1007500039EF2DF004004DC6E6FF4EC6E6FF4FC64A
:10076000E6FF50C6E6FF66DB44E9F3CFE6FFF4CFD1
:10077000E6FF820EE66E9B0EE66E000EE66E200E23
:10078000E66E030EE66E5FEC71F047E9200EE66E52
:10079000030EE66E79EC72F042E91200DBDF2B0EFD
:1007A000E66EA70EE66E000E36EC30F00401236B09
:1007B000040123510AE10A0EAEEC30F056DD44E9A3
:1007C0008EEC34F094EC5FF0F3D7020E235DC2DFC1
:1007D000890EE66EA70EE66E000E36EF30F00400CE
:1007E0007F0EE66E9B0EE66E000EE66E000EE66E67
:1007F000020EE66E5FEC71F045E9000EE66E020E49
:10080000E66E79EC72F042E9A5DF7A0EE66E9B0E99
:10081000E66E000EE66EFDEC71F043E99DC0E6FF6A
:100820009EC0E6FF9FC0E6FF000EE66E020EE66E7B
:10083000E1EC6EF045E9000EE66E020EE66E79EC34
:1008400072F042E9780EE66E9B0EE66E000EE66EE2
:10085000FDEC71F043E99AC0E6FF9BC0E6FF9CC047
:10086000E6FF000EE66E020EE66EE1EC6EF045E984
:10087000000EE66E020EE66E79EC72F042E9620E50
:10088000E66E9B0EE66E000EE66E000EE66E020E43
:10089000E66EE1EC6EF045E9000EE66E020EE66EE5
:1008A00079EC72F042E900018351E66EE66A0001DC
:1008B0006051E66EE66A59C6E6FF5AC6E6FF5BC6B9
:1008C000E6FF5CC6E6FF55C6E6FF56C6E6FF57C61E
:1008D000E6FF58C6E6FF43C6E6FF44C6E6FF00C68D
:1008E000E6FF01C6E6FF02C6E6FF03C6E6FF835049
:1008F000800B01E0010EE66EE66A8350400B01E0DA
:10090000010EE66EE66A8350200B01E0010EE66EF2
:10091000E66A8350100B01E0010EE66EE66A835032
:10092000080B01E0010EE66EE66A8350040B01E05D
:10093000010EE66EE66A8350020B01E0010EE66EE0
:10094000E66A8350010BE66EE66A00016351E66ECB
:10095000E66AD30EE66E9A0EE66E000EE66E000EA6
:10096000E66E020EE66E5FEC71F069E9000EE66E6F
:10097000020EE66E79EC72F042E90601A551E66ED0
:10098000E66A7850E66EE66A69C6E6FF6AC6E6FF82
:100990006BC6E6FF6CC6E6FF4DC6E6FF4EC6E6FF39
:1009A0004FC6E6FF50C6E6FF91C6E6FF92C6E6FFD9
:1009B00093C6E6FF94C6E6FF89EC62F091C6E6FFB7
:1009C00092C6E6FF93C6E6FF94C6E6FF8DC6E6FF35
:1009D0008EC6E6FF8FC6E6FF90C6E6FF51C6E6FF6D
:1009E00052C6E6FF53C6E6FF54C6E6FF49C6E6FF19
:1009F0004AC6E6FF4BC6E6FF4CC6E6FF61C6E6FF09
:100A000062C6E6FF63C6E6FF64C6E6FF89C6E6FF88
:100A10008AC6E6FF8BC6E6FF8CC6E6FF85C6E6FF04
:100A200086C6E6FF87C6E6FF88C6E6FF6DC6E6FF18
:100A30006EC6E6FF6FC6E6FF70C6E6FF4DC6E6FF70
:100A40004EC6E6FF4FC6E6FF50C6E6FF140EE66E42
:100A50009A0EE66E000EE66E000EE66E020EE66E72
:100A60005FEC71F075E9000EE66E020EE66E79EC51
:100A700072F042E929C4E6FF2AC4E6FF2BC4E6FF70
:100A80002CC4E6FF65C6E6FF66C6E6FF67C6E6FF5E
:100A900068C6E6FF71C6E6FF72C6E6FF73C6E6FFEC
:100AA00074C6E6FF75C6E6FF76C6E6FF77C6E6FFC4
:100AB00078C6E6FF79C6E6FF7AC6E6FF7BC6E6FFA4
:100AC0007CC6E6FF7DC6E6FF7EC6E6FF7FC6E6FF84
:100AD00080C6E6FFB50EE66E990EE66E000EE66E77
:100AE000000EE66E020EE66E5FEC71F05DE9000E40
:100AF000E66E020EE66E79EC72F042E90401D06B0C
:100B0000030E0401D05D01E36ED10401D051400D0C
:100B1000F3CFE9FFF4CFEAFF000EE926050EEA2243
:100B2000060EE926000EEA22EF5001E159D1040138
:100B3000D051400DF3CFE9FFF4CFEAFF000EE926D4
:100B4000050EEA220F0EE926000EEA221B0EE92608
:100B5000000EEA22EECFE6FFEECFE6FF0401D05111
:100B6000400DF3CFE9FFF4CFEAFF000EE926050EB2
:100B7000EA220F0EE926000EEA22190EE926000EDF
:100B8000EA22EECFE6FFEECFE6FF0401D051400DA2
:100B9000F3CFE9FFF4CFEAFF000EE926050EEA22C3
:100BA0000F0EE926000EEA222D0EE926000EEA229B
:100BB000EECFE6FFEECFE6FF0401D051400DF3CFBC
:100BC000E9FFF4CFEAFF000EE926050EEA220F0E38
:100BD000E926000EEA222B0EE926000EEA22EECFCD
:100BE000E6FFEECFE6FF0401D051400DF3CFE9FF61
:100BF000F4CFEAFF000EE926050EEA220F0EE926E1
:100C0000000EEA22090EE926000EEA22EECFE6FFE8
:100C1000EECFE6FF0401D051400DF3CFE9FFF4CF52
:100C2000EAFF000EE926050EEA220F0EE926000E65
:100C3000EA22150EE926000EEA22EECFE6FFEECFFD
:100C4000E6FF0401D051400DF3CFE9FFF4CFEAFFF6
:100C5000000EE926050EEA220F0EE926000EEA2212
:100C6000170EE926000EEA22EECFE6FFEECFE6FFF2
:100C70000401D051400DF3CFE9FFF4CFEAFF000E9D
:100C8000E926050EEA220F0EE926000EEA22050EDD
:100C9000E926000EEA22EECFE6FFEECFE6FF0401E2
:100CA000D051400DF3CFE9FFF4CFEAFF000EE92663
:100CB000050EEA220F0EE926000EEA22030EE926AF
:100CC000000EEA22EECFE6FFEECFE6FF0401D051A0
:100CD000400DF3CFE9FFF4CFEAFF000EE926050E41
:100CE000EA220F0EE926000EEA22EE52EECFE6FFD0
:100CF000EECFE6FF0401D051E66EE66A3D0EE66EE9
:100D0000990EE66E000EE66E000EE66E020EE66EC0
:100D10005FEC71F05BE9000EE66E020EE66E79ECB8
:100D200072F042E9E66AE66A7A0EE66E440EE66E14
:100D30000401D051400DF3CFE9FFF4CFEAFF000EDC
:100D4000E926050EEA220F0EE926000EEA22230EFE
:100D5000E926000EEA22EECFE6FFEECFE6FFEECF69
:100D6000E6FFEECFE6FF4DEC64F045EC61F0E66A9D
:100D7000E66A7A0EE66E440EE66E0401D051400D2E
:100D8000F3CFE9FFF4CFEAFF000EE926050EEA22D1
:100D90000F0EE926000EEA22270EE926000EEA22AF
:100DA000EECFE6FFEECFE6FFEECFE6FFEECFE6FFBB
:100DB0004DEC64F045EC61F01C0EE66E990EE66EAB
:100DC000000EE66E000EE66E020EE66E5FEC71F04F
:100DD00049E9000EE66E020EE66E79EC72F042E929
:100DE0000401D02B8DD60001F85109E0040EE66E07
:100DF000990EE66E000EE66EFDEC71F043E904001C
:100E00001200320EE66EA80EE66E000E36EC30F0E2
:100E10007C0EE66EA80EE66E000E36EC30F0000199
:100E2000F85107E0040EE66E990EE66E000E36EC01
:100E300030F0120022EC2DF002EC2FF002E216EC62
:100E40002FF000EBD1F501EBD2F502EBD3F503EB7C
:100E5000D4F577EC2EF0BAEC2EF0E5CFCCF5E5CF5B
:100E6000CBF5E5CFCAF5E7CFC9F577EC2EF01FEC4F
:100E70002FF059EC31F0AEEC2DF0CDEC2EF0BAECB9
:100E80002EF0E5CFD0F5E5CFCFF5E5CFCEF5E7CF26
:100E9000CDF5CDEC2EF028EC2FF059EC31F0AEEC86
:100EA0002DF0FFEC31F0E66E28EC2FF01FEC2FF068
:100EB000F20EE66E980EE66E000EBCEC2FF051E9D5
:100EC00087EF31F022EC2DF002EC2FF002E216EC6D
:100ED0002FF000EBDDF501EBDEF502EBDFF503EBC8
:100EE000E0F577EC2EF0C1EC2EF0E5CFD8F5E5CFAC
:100EF000D7F5E5CFD6F5E7CFD5F577EC2EF031EC89
:100F00002FF059EC31F0C7EC2DF0CDEC2EF0C1EC08
:100F10002EF0E5CFDCF5E5CFDBF5E5CFDAF5E7CF71
:100F2000D9F5CDEC2EF03AEC2FF059EC31F0C7ECBE
:100F30002DF03AEC2FF031EC2FF0E60EE66E980E25
:100F4000E66E000EBCEC2FF04DE987EF31F022EC9D
:100F50002DF083E901340EE300EB00F001EB01F02A
:100F60000001006D011F000E012300C0F3FF01C04E
:100F7000F4FF02D0F3EC2EF039EF2DF022EC2DF03F
:100F800085E9033413E3E668E668E668E668DFECC3
:100F90002FF003EBE6FF59EC31F000C0FCF301C089
:100FA000FDF302C0FEF303C0FFF308D000EBFCF337
:100FB00001EBFDF302EBFEF303EBFFF339EF2DF052
:100FC0006CEC31F0F2EC32F078EC2CF043EC2FF0DA
:100FD000DE0EE66E980EE66E000E06EF32F06CEC5A
:100FE00031F0C7EC32F043EC2FF0D60EE66E980EDF
:100FF000E66E000E06EF32F0F3EC31F002E32D0E58
:10100000916FA7EC2DF020EC61F0C5EC2CF0C7EC53
:1010100032F09BEC30F013EC2DF0D890000103512E
:10102000000A08E6DC0E005D050E0159000E0259AB
:10103000000E035917E29BEC30F013EC2DF057EC47
:101040002EF091C004F00001056B04BF0569F2ECBD
:101050002FF0D00EE66E980EE66E000E25EC2EF008
:101060004BE934D0E66AE66A7A0EE66E440E91ECFD
:101070002DF0C5EC2CF0F2EC32F00BEC32F0E3C0CA
:10108000E6FFE66E13EC2DF057EC2EF09BEC30F003
:1010900075DF44E9FCC304F0FDC305F0FEC306F0B0
:1010A000FFC307F057EC2EF091C008F00001096B68
:1010B00008BF096908C0E6FF09C0E6FFC30EE66E77
:1010C000980EE66E000E25EC2EF04FE9F3EC2EF0B4
:1010D00039EF2DF0F3EC31F002E32D0E916FE66A5B
:1010E000E66A200EE66E410E74EC31F020EC61F001
:1010F000CFEC62F0E552E5CFCAF0E5CFC9F0E5CF1D
:10110000C8F0E7CFC7F049EC2FF0F9EC30F0200E33
:10111000E66E410EE66E49EC2FF0F8EC32F00A0E66
:101120000BEC32F0C3EC2FF018EC33F0C3EC2FF0E3
:1011300091C000F00001016B00BF0169D6EC31F0F5
:10114000B90EE66E980EE66E000E25EC2EF04BE919
:10115000F3EC2EF039EF2DF022EC2DF085E95AEC6E
:101160002DF003500001006F016B01354AE2005180
:10117000FA08000E015545E2FF0EF8EC2EF00AE1E8
:10118000F45008E10001775101E183D124EC6EF0C5
:10119000010E82D1FE0EF8EC2EF009E1F45007E1C9
:1011A00024EC6EF0000130EC2DF0040E27D0FD0E83
:1011B000F8EC2EF009E1F45007E10001010E776F21
:1011C00024EC6EF0FD0E68D1FC0EF8EC2EF008E178
:1011D000F45006E10001776B24EC6EF0FC0E5CD15C
:1011E000FB0EF8EC2EF00DE1F4500BE10001776BF3
:1011F00024EC6EF0000130EC2DF0050EDBEC31F04C
:101200004BD10001775101E144D10001FF510008A9
:1012100001E33FD1FF0730EC2DF0040E97EC32F0E4
:10122000EFCFE2F5AAEC03F0DFEC2FF0FDEC71F06C
:1012300043E9000130EC2DF0A1EC2DF0FF51E66EFA
:10124000E66AA70EE66E980EE66E000EDAEC32F055
:101250000501E16BE151E12BE25D07E10D0EE66E68
:10126000AB0EE66E000E36EC30F027EC2DF007E109
:101270002D0EE66EAB0EE66E000E36EC30F027EC6F
:101280002DF007E15D0EE66EAB0EE66E000E36EC5D
:1012900030F027EC2DF007E1800EE66EAB0EE66E27
:1012A000000E36EC30F027EC2DF007E1A30EE66ED1
:1012B000AB0EE66E000E36EC30F027EC2DF007E1B9
:1012C000D40EE66EAB0EE66E000E36EC30F027EC78
:1012D0002DF007E1080EE66EAC0EE66E000E36EC61
:1012E00030F027EC2DF007E13D0EE66EAC0EE66E19
:1012F000000E36EC30F027EC2DF007E1760EE66EAE
:10130000AC0EE66E000E36EC30F027EC2DF007E167
:10131000A40EE66EAC0EE66E000E36EC30F027EC56
:101320002DF007E1CB0EE66EAA0EE66E000E36EC4F
:1013300030F027EC2DF007E1EB0EE66EAA0EE66E1C
:10134000000E36EC30F027EC2DF007E1FB0EE66ED8
:10135000A90EE66E000E36EC30F027EC2DF007E11A
:10136000D40EE66EAC0EE66E000E36EC30F027ECD6
:101370002DF007E1150EE66EAD0EE66E000E36ECB2
:1013800030F027EC2DF007E13B0EE66EAD0EE66E79
:10139000000E36EC30F027EC2DF007E1610EE66E22
:1013A000AD0EE66E000E36EC30F027EC2DF007E1C6
:1013B0008D0EE66EAD0EE66E000E36EC30F027ECCC
:1013C0002DF007E1A50EE66EAD0EE66E000E36ECD2
:1013D00030F027EC2DF007E1BC0EE66EAD0EE66EA8
:1013E000000E36EC30F027EC2DF007E1600EE66ED3
:1013F000B10EE66E000E36EC30F027EC2DF007E172
:101400009E0EE66EB10EE66E000E36EC30F027EC66
:101410002DF007E1BD0EE66EB10EE66E000E36EC65
:1014200030F027EC2DF007E1E90EE66EAD0EE66E2A
:10143000000E36EC30F00501E151D880E25517E29C
:10144000E2510001006F016BFA0ED89001BF03D08A
:10145000005D000E01590BE20501E251E66EE66AFD
:101460008D0EE66E980EE66E000EA4EC32F00001D2
:10147000FF5102E10001776B000130EC2DF0050E09
:10148000F0EC2EF030EC2DF0EE6AEE6AEE6AEE6AC9
:10149000BCD624EC6EF0000E39EF2DF00001010EE9
:1014A000666F83A449D08EEC34F0640EAEEC30F05D
:1014B00004C6E6FF05C6E6FF06C6E6FF07C6E6FF6A
:1014C00089EC62F060EC2EF0B5DC44E9F3CFE6FF86
:1014D000F4CFE6FF730EE66E980EE66E000E69EC32
:1014E0002CF04BE9010EE66EE66AE6EC2FF0E66EB4
:1014F000E6EC2FF0020E41EC30F060EC2EF052ECF6
:101500002FF089EC62F052EC2FF060EC2EF0530ECD
:10151000E66E980EE66E000E69EC2CF051E9010EB5
:10152000E66E030E41EC30F0880EE66E130E12EC00
:1015300032F094EC5FF0B5D70001666B120022EC3C
:101540002DF083E91B0EAFEC2FF05B0EAFEC2FF00C
:10155000320EAFEC2FF04A0EAFEC2FF01E0EE66EFF
:10156000A70EE66E000E36EC30F0D10EE66EA60E3B
:10157000E66E000E36EC30F039EF2DF022EC2DF057
:1015800082E900017A5103E0070E005C28E17B51FB
:1015900009E0FBEC31F00001200E036F9F0E046F99
:1015A000000E08D0FBEC31F00001AC0E036FA00E72
:1015B000046F000E056F160E2FEC33F000EBE6FF04
:1015C000E66AE66A9CEC63F0E552E5CF08F0EDECE4
:1015D0002FF000013DEC2DF000EB7CF02DD0005001
:1015E0000501E35D21E00001816B21EC6DF08B9240
:1015F0000401D16BD1510A0814E390EC2EF00401E0
:10160000D1250001066F076B086B3DEC2DF0010E34
:10161000E66EE66A7CEC2EF0FBEC2DF00401D12B9B
:10162000E9D700EBE3F508D090EC2EF00A0F066F37
:10163000076B086B3DEC2DF0010EE66EE66A7CEC64
:101640002EF0E66A010EE66E7CEC2EF0E66A020EE3
:10165000E66E7CEC2EF0E66A030EE66E7CEC2EF075
:1016600039EF2DF00401D26B030ED25D07E2D251A7
:10167000A3EC2FF0FE0EEF6ED22BF6D70001DC515B
:1016800041EC32F002E1765123E076510EE00401A4
:10169000D351D32B32080DE20501E42BE4510508A8
:1016A00001E2E46B0401D36B04D0030EDC250501D9
:1016B000E46FE66AE4C5E6FF3AEC00F042E9E66E64
:1016C0000001DC51A3EC2FF0E552E750EF6E120061
:1016D000DC51A3EC2FF0EF68120022EC2DF081E931
:1016E00043E8026A00017B5104E1825102E1855125
:1016F00002E0030E69D2DC51016E33EC33F0DEEC14
:1017000031F0EE6AED6A010EE66E4EEC2EF033EC2F
:1017100033F05BEC2FF0EE50ED1006E0D7EC2EF03E
:101720000CE1010EE66E05D0D7EC2EF006E0E66A7D
:10173000010EE66E3BEC6DF042E9D950030FE66E08
:10174000DACFE6FF47DA42E90001F751035C08E12E
:101750008B96010E7B6F03EBE6FF10DF41E931D280
:101760008EEC34F0F3EC0FF02DEC31F00DE2005183
:101770000408000E015508E205019A0EE56F990E66
:10178000E66FE76F3E0E11D0015041EC32F007E0FA
:101790000501E56BE66BC00EE76F3F0E06D0050155
:1017A00069EC2EF003E0DBEC2EF0E86F00018651CF
:1017B0006DE03BEC30F0CBEC2FF005AF02D00669CA
:1017C000076955EC31F006E6D8802C0E0055010E65
:1017D00082EC2EF014E28DBE25D090EC31F040EC7E
:1017E0002EF08D8E0001806FF85107E0390EE66E05
:1017F000980EE66E000E36EC30F08D8013D08DAE74
:1018000011D090EC31F0F0EC2EF08D9E0001806B49
:10181000F85107E0200EE66E980EE66E000E36ECEC
:1018200030F08D803BEC30F0CBEC2FF005AF02D0E8
:101830000669076955EC31F006E6D880900E005530
:10184000010E82EC2EF012E28DB620D08DAE1ED0AD
:101850000001010E876FF85107E0FC0EE66E970E4F
:10186000E66E000E36EC30F08D8610D08DA60ED0D0
:101870008DAE0CD00001876BF85107E0D90EE66EF3
:10188000970EE66E000E36EC30F08D96B3EC32F02B
:10189000C10E17EC32F004E60051025D015103590C
:1018A00001E38FD03BEC30F0EECF04F0EFCF05F04A
:1018B0007CEC2DF0410E1DEC32F0EDEC2FF0000130
:1018C00007350751051904E60651045D075105590E
:1018D00001E377D0025045E00001865142E0050166
:1018E000E951EA1117E024EC32F00001F85112E05E
:1018F000ECEC30F001E0010E55EC32F05DEC31F033
:101900008C0EE66E970EE66E000E69EC2CF04DE93B
:1019100047EC30F00150D4EC2CF004013F0551E1CC
:101920000150E1EC31F00501E951EA114AE069ECBE
:101930002EF003E0DBEC2EF0E86F0001F8513DE003
:10194000ECEC30F001E0010E55EC32F05DEC31F0E2
:10195000450EE66E970EE66E000E69EC2CF04DE932
:1019600023D00150E1EC31F00150D4EC2CF0050112
:10197000E951EA1126E069EC2EF003E0DBEC2EF0F1
:10198000E86F0001F85119E0ECEC30F001E0010ED5
:1019900055EC32F0A6EC2EF0ED0EE66E960EE66EED
:1019A000000E69EC2CF04FE947EC30F02A0EE66EA1
:1019B000970EE66E000E36EC30F00501E96BEA6B2F
:1019C0008B96B3EC32F0410E17EC32F004E6005186
:1019D000025D0151035948E207EC31F0DBEC31F0D4
:1019E00014E133EC33F0DEEC31F0EE2AEF222DEC93
:1019F00031F00BE200510108000E015506E206012C
:101A0000652B000E66236723682333EC33F0020E48
:101A100040EC2EF0CEEC32F004E100010151050162
:101A2000EC1922E03BEC30F0D3EC2FF007AF02D002
:101A300008690969E5EC2DF002E60CEC2FF014E2E0
:101A40000001F8510FE0ECEC30F001E0010E55EC34
:101A500032F03CEC31F0A00EE66E960EE66E000E13
:101A600036EC30F0FEEC32F0B3EC32F0C10E35EC77
:101A70002EF0000103350351011904E60251005D07
:101A8000035101592EE207EC31F0F0EC2EF0CEECD0
:101A900032F004E1000101510501EC1922E03BECB8
:101AA00030F0D3EC2FF007AF02D008690969E5ECFC
:101AB0002DF002E60CEC2FF014E20001F8510FE0DB
:101AC000ECEC30F001E0010E55EC32F03CEC31F082
:101AD000890EE66E960EE66E000E36EC30F0FEECE9
:101AE00032F02DEC31F00AE200510108000E0155F0
:101AF00005E233EC33F0050E40EC2EF033EC33F01E
:101B00002CEC2EF001350AE200510208000E0155BE
:101B100005E233EC33F0090E40EC2EF0015041ECBD
:101B200032F010E004017051010B0CE17051020B16
:101B300009E17051040B06E1E66A4EEC2EF0000953
:101B400001E1FBD50001865103E0876B8D9E806B20
:101B5000E66A4EEC2EF0000913E00001F85107E0B0
:101B60003A0EE66E960EE66E000E36EC30F0000190
:101B7000865102E067EC2FF0A9EC2FF0040E24D080
:101B800004017051010B06E17051020B03E1705129
:101B9000040B19E00001F85107E0E40EE66E950E23
:101BA000E66E000E36EC30F00001865102E067EC84
:101BB0002FF0040170A105D070910001010E7B6F20
:101BC0008B96020E01D0000EF36EF46A44E9E7CF63
:101BD000D9FF120022EC2DF083E983380F0B0001AE
:101BE000F7150501EE6F0001F7510501EE5D59E1B2
:101BF0000001F7510501ED5D03E0040E63EC2DF0EB
:101C000070EC2FF03BE10001F7510501ED5D11E0B3
:101C10003BEC2EF0070EEF6E2BEC32F0E2EC2EF0E8
:101C2000CA0EE66E950EE66E000EA4EC32F0F7C01A
:101C3000EDF50001845115E0AAEC03F0AB0EE66E61
:101C4000950EE66E000E69EC2CF079EC2FF0F7C0E3
:101C5000EDF53BEC2EF0070EEF6E0001010E7A6FF2
:101C6000886B846B7CC0E6FF3FEC69F041E97CC087
:101C7000E6FF84DC41E9F7C0F0F510D0E2EC2EF08D
:101C8000ED51E66EE66A590EE66E950EE66E000EB2
:101C900031EC32F0EDC5EFFF0501F06B0501F051BD
:101CA00057D0EE51ED5D4FE0030EE66EABEC5FF00A
:101CB00041E9040E63EC2DF070EC2FF038E13BECC1
:101CC0002EF0EEC5EFFF2BEC32F0AAEC03F03BEC6C
:101CD0002EF0EF50E66EE66A0501ED51E66EE66A1B
:101CE0001C0EE66E950EE66E000E31EC32F0EFCF74
:101CF000EDF5000184510DE1AAEC03F0FF0EE66E54
:101D0000940EE66E000E69EC2CF079EC2FF00001D9
:101D1000886B010E846F7CC0E6FF3FEC69F041E9FF
:101D200000017A6B7CC0E6FF29DC41E910D0E2ECCF
:101D30002EF0ED51E66EE66AAE0EE66E940EE66E9D
:101D4000000EDAEC32F03BEC2EF0EDC5EFFF000EAA
:101D500039EF2DF0E9EC30F00AE10401D46BF7EC37
:101D60002FF001E3DC6B04EC33F0F9E07BDC0401E1
:101D700070A31DD08B84D46BF7EC2FF001E3DC6BE8
:101D800004EC33F0F9E06EDCE9EC2EF09C0EE66E2C
:101D9000940EE66E000EA4EC32F0810EE66E940E08
:101DA000E66E000E36EC30F08B94040170937051A7
:101DB000010B08E1E66A7CEC2FF000091BE0000152
:101DC0007A5118E000017A5106E17B5102E0000EE1
:101DD00001D0010E7B6F5CEC30F0570EE66E940E76
:101DE000E66E000E36EC30F000017A6B0401709163
:101DF0008B906BD004010F0566E0E66A0AEC33F0C5
:101E0000000963E0010EE66E7CEC2FF00001010E8C
:101E10007A6F8B8004010F5129E111EC31F002E659
:101E200034EC32F023E20001010E7A6F8B90845182
:101E300011E10501F12B78EC2DF0110E0501F15D9A
:101E400001E3F16BBFEC32F03F0EE66E940EE66EEE
:101E5000000E35D03AEC32F001E3A26BD1EC30F059
:101E6000180EE66E940EE66E000E29D011EC31F0DD
:101E700002E634EC32F025E20001010E7A6F8B901D
:101E8000845112E10501F10778EC2DF0110E0501E6
:101E9000F15D02E3100EF16FBFEC32F0010EE66E61
:101EA000940EE66E000E0BD03AEC32F001E3A26B1A
:101EB000D1EC30F0EA0EE66E930EE66E000E36ECD4
:101EC00030F08B8002D078EC2DF000017A5102E0E6
:101ED0008B8001D08B90855170E17B5102E1825162
:101EE0006AE0D7EC2EF006E0E66A010EE66E3BEC07
:101EF0006DF042E904011F0546E0E66A2FEC2EF082
:101F000000095BE08B8404011F511AE11B35000EB0
:101F10001B1909E6D880010E1855000E1955000E40
:101F20001A55000E1B550CE246EC31F040EC2EF039
:101F3000A1EC30F0A00EE66E960EE66E000E20D0FC
:101F4000020E1F5D3AE118C4E6FF19C4E6FF1AC489
:101F5000E6FF1BC4E6FF1DEC33F006E6D880010E59
:101F60000055000E82EC2EF028E246EC31F0F0EC49
:101F70002EF0A1EC30F0890EE66E960EE66E000EA5
:101F800036EC30F01AD0000182510CE1DC51E1EC6A
:101F900031F0ACEC32F0020E40EC2EF0DC51D4EC1F
:101FA0002CF003D0DC51E1EC31F0010EE66E2FECA9
:101FB0002EF08B9402D06DEC0BF000017B5107E00A
:101FC000E66A46EC32F00CE1010EE66E05D0E66AF8
:101FD00046EC32F005E0E66AE66A3BEC6DF042E979
:101FE0000501F151120032EC0BF08BC0FBFF8AC0EF
:101FF000FAFF000189511400120022EC2DF082E951
:1020000047E8076A086A21EC6DF000017B5104E1A2
:1020100005013051311102E0030E09D00001806B3F
:102020000401355136113711381104E1020EF36EF7
:10203000F46A72D0026A0250005C68E380EC30F00F
:102040000A0EE66ED70EE66E230EE66E3C0E05EC2B
:102050002DF0C7EC30F05AE1036A046A056A066A9B
:10206000D890065002E682EC2FF00FE2FA0EE66EF0
:102070007E0EE66E2A0EE66E3F0E63EC32F005E150
:10208000D950030F00EC2EF0EBD7036A046A056AFF
:10209000066AD890065002E682EC2FF00FE2FA0EA4
:1020A000E66E7E0EE66EAA0EE66E3E0E63EC32F033
:1020B00005E1D950030F00EC2EF0EBD7660EE66E6B
:1020C000E66EE66E3F0E21EC33F020E1CD0EE66EBB
:1020D000CC0EE66EE66E3D0E21EC33F017E1E66ABB
:1020E000E66AE66A3F0E21EC33F010E1040170511C
:1020F000010B06E17051020B03E17051040B04E087
:10210000010E076E086A02D0022A95D77EEC31F0E4
:1021100007EBF3FF08EBF4FF48E9E7CFD9FF120024
:1021200022EC2DF082E948E8086A096A21EC6DF09A
:1021300000017B5104E105013051311104E0030E2F
:10214000F36EF46A7CD00001806B026A0050025C7E
:1021500070E2036A030E035C6AE203EBDCF0E9EC75
:1021600030F063E080EC30F095EC30F0640EEE6E11
:10217000ED6AC7EC30F05BE1046A056A066A076A3B
:10218000D890075002E68BEC2FF00DE294EC2FF084
:102190009A0E0027020E9BEC32F005E1D950040F95
:1021A00000EC2EF0EDD7046A056A066A076AD8903B
:1021B000075002E68BEC2FF00DE294EC2FF04D0E61
:1021C0000027010E9BEC32F005E1D950040F00EC22
:1021D0002EF0EDD795EC30F0840EEE6E030EED6E22
:1021E000B7EC32F095EC30F0640EEE6EED6AB7ECC1
:1021F00032F0025061EC2CF00D0E97EC32F037EC1F
:1022000031F095EC30F0F4EC30F0B7EC32F0040142
:102210007051010B06E17051020B03E17051040B88
:1022200004E0010E086E096A02D0032A93D7022A3D
:102230008DD77EEC31F008EBF3FF09EBF4FF49E9B1
:10224000E7CFD9FF120032EC0BF000017C51070AF6
:102250001CE0010A15E0030A11E0080A0FE00E0A6B
:102260000DE0010A0BE0060A05E0050A07E0010A95
:102270000CE104D0030EE66EC0DE05D0020E01D0E4
:10228000040EE66E4DDF41E912008BC0FBFF8AC0F1
:10229000FAFF8951140012005DDD0501F26FF20EA4
:1022A000E66E050EE66E96DC42E9F2C5E6FFBEEC90
:1022B0000AF041E9F3EF0FF00001A2511EE1E6EC54
:1022C00031F0960EE66E930EE66E000E51EC32F093
:1022D000BBEC32F0ABEC2EF0800EE66E930EE66EA9
:1022E000000E10EC33F0FCEC2FF06A0EE66E930E4D
:1022F000E66E000E51EC32F007D039EC33F060ECB2
:102300002DF03EEC30F045E994EF2DF00001A251A4
:1023100018E12CEC2DF09CEC2EF02B0EE66E930EBB
:10232000E66E000E4BEC32F00A0EE66E930EE66E91
:10233000000EDEEC32F0ED0EE66E920EE66E000E52
:102340001DD094EC32F00CE0A1EC2CF0E2EC32F079
:10235000C60EE66E920EE66E000E69EC2CF04DE9AC
:10236000BDEC30F0AC0EE66E920EE66E000EDEECCA
:1023700032F0AC0EE66E920EE66E000EEBEF31F030
:102380000001A25135E12CEC2DF09CEC2EF0830ED7
:10239000E66E920EE66E000E4BEC32F04BEC2EF039
:1023A0007CC5E6FF7DC5E6FF7AC5E6FF7BC5E6FF97
:1023B000ABEC2EF05A0EE66E920EE66E000E69EC55
:1023C0002CF053E9E0EC2DF0BCC5E6FFBDC5E6FFFF
:1023D000BAC5E6FFBBC5E6FFFCEC2FF0310EE66E9A
:1023E000920EE66E000E69EC2CF09DEC2FF011D0F1
:1023F00094EC32F002E04CEC30F07EEC32F002E093
:1024000054EC30F05CEC32F002E078EC30F0EFECC1
:1024100030F043E912000001A25130E12CEC2DF024
:1024200016EC2EF0930EE66E910EE66E000E4BEC5F
:1024300032F0ABEC2EF07B0EE66E910EE66E000EE7
:1024400051EC32F0E0EC2DF0AFEC32F0BCC5E6FF21
:10245000BDC5E6FFC3EC30F0BAC5E6FFBBC5E6FF7D
:10246000E3EC61F0FCEC2FF0520EE66E910EE66E9E
:10247000000E69EC2CF09DEC2FF011D094EC32F0B2
:1024800002E04CEC30F07EEC32F002E054EC30F044
:102490005CEC32F002E078EC30F0EFEC30F043E945
:1024A00012000001A25119E1F0EC31F057EC2DF0CF
:1024B0004BEC2EF0AFEC32F07CC5E6FF7DC5E6FFBD
:1024C000C3EC30F07AC5E6FF7BC5E6FFE3EC61F0D4
:1024D000ABEC2EF089EC32F009D039EC33F0DBECC8
:1024E0002FF002E054EC30F0E7EC32F0EBEF31F09B
:1024F0000001A2510BE1F0EC31F057EC2DF02CEC87
:102500002DF016EC2EF089EC32F00BD03EEC30F0D2
:1025100057EC2DF094EC32F002E04CEC30F0E7ECAC
:1025200032F0EBEF31F00001A25148E114C5E6FFB3
:1025300015C5E6FF10C4E6FF11C4E6FF12C4E6FFAE
:1025400013C4E6FF29C4E6FF2AC4E6FF2BC4E6FF56
:102550002CC4E6FFE6EC31F0F20EE66E900EE66E6D
:10256000000E69EC2CF051E9BBEC32F00501015191
:102570001BE00251E66EE66ACB0EE66E900EE66E4A
:10258000000E10EC33F031C4E6FF32C4E6FF33C472
:10259000E6FF34C4E6FFAA0EE66E900EE66E000E6D
:1025A00069EC2CF049E907D0F0EC31F060EC2DF04B
:1025B000F0EC31F045E982EC32F011D094EC32F0DD
:1025C00002E01BEC31F07EEC32F002E0B1EC30F0D6
:1025D0005CEC32F002E024EC31F0EFEC30F043E957
:1025E00012000001A2511BE11F0EE66E900EE66E76
:1025F000000E69EC2CF057EC2DF0090EE66E900EF3
:10260000E66E000EDEEC32F0F30EE66E8F0EE66E36
:10261000000E69EC2CF045E982EC32F011D094EC1C
:1026200032F002E04CEC30F07EEC32F002E054ECA0
:1026300030F05CEC32F002E078EC30F0EFEC30F0AF
:1026400043E91200DC0EE66E8F0EE66E000E69ECBA
:102650002CF057EC2DF0C50EE66E8F0EE66E000ED8
:10266000DEEC32F0AE0EE66E8F0EE66E000EEBEF95
:1026700031F00001A2514BE13EEC30F045E9640E2F
:102680000501D89091BF03D0905D000E91590AE2E8
:1026900010EC2EF08F0EE66E8F0EE66E000E69ECDB
:1026A0002CF047E9BBEC32F08DB20AD010EC2EF0E2
:1026B000ABEC2EF0700EE66E8F0EE66E000E09D0BB
:1026C0000AEC2EF0ABEC2EF0510EE66E8F0EE66E9D
:1026D000000E69EC2CF049E936EC33F03EEC30F0BA
:1026E00045E9640E0501D89011BF03D0105D000EBE
:1026F00011590AE20AEC2EF0330EE66E8F0EE66EEA
:10270000000E69EC2CF047E982EC32F011D094EC29
:1027100032F002E01BEC31F07EEC32F002E0B1EC82
:1027200030F05CEC32F002E024EC31F0EFEC30F011
:1027300043E9120022EC2DF082E942E8026A036AC2
:10274000030ED89003BE03D0025C000E03581AE2B9
:102750000050E66E02EBE9FF03EBEAFF060ED890AD
:10276000E936EA36E806FBE1000EE926050EEA2224
:102770005BEC2FF0E552E750EE6EED6A022A000E98
:102780000322DED743E9E7CFD9FF1200DCC0D5F43E
:102790000001DC6BACEC32F088EC2EF002E06DEC6A
:1027A0000BF0F7EC2FF0F6E321EC6DF0D5C4DCF084
:1027B000010E63EF2DF0D9CFE6FFE1CFD9FF81E91C
:1027C00051E8E80E056E030E066E076A086A096A8C
:1027D0000A6A0B6A0C6A580E0D6E106A116A0001C3
:1027E000816B8EEC34F08EEC34F00001010E886FBA
:1027F000040170950001A26B7CC0E6FF3FEC69F01C
:1028000041E90001855107E08B9200017B6B0001DB
:10281000806B24EF28F0AAEC03F00F0EE66E8F0E0B
:10282000E66E000EE66EFDEC71F043E9020E00016B
:102830007C5D06E1D00E056E070E066E076A086A1B
:102840000001010E7B6F0501080503E10001010E87
:10285000806F21EC6DF0010EE66EE66AE66AE66ACC
:1028600056EC01F044E900017C5118E1020EE66EDD
:10287000E66AE66AE66A05EBE6FF06EBE6FF07EBCB
:10288000E6FF08EBE6FFFCEC63F0E552E550086E6E
:10289000E550076EE550066EE750056E030E000129
:1028A0007C5D18E1020EE66EE66AE66AE66A05EB12
:1028B000E6FF06EBE6FF07EBE6FF08EBE6FFFCECC6
:1028C00063F0E552E550086EE550076EE550066E80
:1028D000E750056E00017C0518E1020EE66EE66A1F
:1028E000E66AE66A05EBE6FF06EBE6FF07EBE6FFC6
:1028F00008EBE6FFFCEC63F0E552E550086EE550AE
:10290000076EE550066EE750056EE66A13DF41E993
:1029100024EC6DF0010EE66E05EBE6FF06EBE6FF3C
:1029200007EBE6FF08EBE6FF55EC02F045E9016A2C
:10293000026A036A046A0001865102E09AEF1DF000
:10294000060E00017C5D01E0CDD30E6A0F6A0F34E4
:1029500004E20E500108000E0F5401E2A1D2640EF1
:10296000056E066A076A086A010EE66E05EBE6FF69
:1029700006EBE6FF07EBE6FF08EBE6FF55EC02F09F
:1029800045E924EC6DF0016A026A036A046A80C0BA
:10299000E6FF27EC6DF041E9D00EE66E070EE66E1D
:1029A000E66AE66A01EBE6FF02EBE6FF03EBE6FF11
:1029B00004EBE6FF8CEC62F0E552E5CF03F0E5CFE7
:1029C00002F0E5CF01F0E7CF00F000010051011166
:1029D0000211031101E0DAD0040170A52DD021EC21
:1029E0006DF0010EE66EA6DE41E9A1EC5FF0060E89
:1029F000E66EE66AE66AE66A56EC01F044E98B9216
:102A00000001010E7B6F0001806B80C0E6FF27ECA8
:102A10006DF041E97CC0E6FF3FEC69F041E9AAECCA
:102A200003F0E10EE66E8E0EE66E000EE66EFDEC35
:102A300071F043E924EF28F028EC28F00EEBE6FFD4
:102A40000FEBE6FFC50EE66E8E0EE66E000EE66E2E
:102A5000000EE66E020EE66E5FEC71F047E9010EC5
:102A6000E66EE66AA0C0E6FFB7EC00F043E90A0EA6
:102A7000E66EE66A90C5E6FF91C5E6FFE3EC61F01D
:102A80009A0EE66E8E0EE66E000EE66E000EE66E96
:102A9000020EE66E5FEC71F047E9640E0501D89016
:102AA00091BF03D0905D000E915916E20A0EE66EBA
:102AB000E66A90C5E6FF91C5E6FFE3EC61F07B0EA8
:102AC000E66E8E0EE66E000EE66E000EE66E020EEE
:102AD000E66E5FEC71F047E9010EE66E010EE66E00
:102AE000E66AB7EC00F043E9530EE66E8E0EE66E32
:102AF000000EE66E000EE66E020EE66E5FEC71F002
:102B000045E9010EE66E020EE66EE66AB7EC00F0ED
:102B100043E90A0EE66EE66A10C5E6FF11C5E6FF58
:102B2000E3EC61F0260EE66E8E0EE66E000EE66EAB
:102B3000000EE66E020EE66E5FEC71F047E9640E81
:102B40000501D89011BF03D0105D000E115916E297
:102B50000A0EE66EE66A10C5E6FF11C5E6FFE3EC75
:102B600061F0330EE66E8F0EE66E000EE66E000E1E
:102B7000E66E020EE66E5FEC71F047E9010EE66E5E
:102B8000030EE66EE66AB7EC00F043E9D950010F98
:102B9000E96EDACFEAFFEE2A000EEE22EE22EE22F6
:102BA000E66A05EBE6FF06EBE6FF07EBE6FF08EB60
:102BB000E6FF55EC02F045E9000901E1E8D6640EB4
:102BC0000501D89091BF03D0905D000E91590CE2A1
:102BD0000501113504E210519008010E115504E26F
:102BE000010E05016E6F6F6B640E0501D89011BF69
:102BF00003D0105D000E115903E205016C6B6D6B83
:102C0000010EE66E05EBE6FF06EBE6FF07EBE6FFDF
:102C100008EBE6FF55EC02F045E921EC6DF0016AA6
:102C2000026A036A046A80C0E6FF27EC6DF041E99E
:102C3000D00EE66E070EE66EE66AE66A01EBE6FF88
:102C400002EBE6FF03EBE6FF04EBE6FF8CEC62F041
:102C5000E552E5CF03F0E5CF02F0E5CF01F0E7CF95
:102C600000F00001005101110211031101E0DAD05E
:102C7000040170A52DD021EC6DF0010EE66E5ADD39
:102C800041E9A1EC5FF0060EE66EE66AE66AE66AE6
:102C900056EC01F044E98B920001010E7B6F0001BC
:102CA000806B80C0E6FF27EC6DF041E97CC0E6FF59
:102CB0003FEC69F041E9AAEC03F0E10EE66E8E0EFE
:102CC000E66E000EE66EFDEC71F043E924EF28F0AD
:102CD00028EC28F00EEBE6FF0FEBE6FF0B0EE66E9E
:102CE0008E0EE66E000EE66E000EE66E020EE66ECC
:102CF0005FEC71F047E9010EE66EE66AA0C0E6FF00
:102D0000B7EC00F043E90A0EE66EE66A90C5E6FF0E
:102D100091C5E6FFE3EC61F09A0EE66E8E0EE66E6C
:102D2000000EE66E000EE66E020EE66E5FEC71F0CF
:102D300047E9640E0501D89091BF03D0905D000E65
:102D4000915916E20A0EE66EE66A90C5E6FF91C555
:102D5000E6FFE3EC61F07B0EE66E8E0EE66E000E93
:102D6000E66E000EE66E020EE66E5FEC71F047E96D
:102D7000010EE66E010EE66EE66AB7EC00F043E97E
:102D8000E00EE66E8D0EE66E000EE66E000EE66E4E
:102D9000020EE66E5FEC71F045E9010EE66E020E82
:102DA000E66EE66AB7EC00F043E90A0EE66EE66A04
:102DB00010C5E6FF11C5E6FFE3EC61F0260EE66EF6
:102DC0008E0EE66E000EE66E000EE66E020EE66EEB
:102DD0005FEC71F047E9640E0501D89011BF03D094
:102DE000105D000E115916E20A0EE66EE66A10C575
:102DF000E6FF11C5E6FFE3EC61F0330EE66E8F0EE1
:102E0000E66E000EE66E000EE66E020EE66E5FECFB
:102E100071F047E9010EE66E030EE66EE66AB7EC66
:102E200000F043E9D950010FE96EDACFEAFFEE2A4C
:102E3000000EEE22EE22EE22E66A05EBE6FF06EB3E
:102E4000E6FF07EBE6FF08EBE6FF55EC02F045E98D
:102E5000000901E1E8D6640E0501D89011BF03D046
:102E6000105D000E11590CE20501913504E29051FC
:102E70009008010E915504E2010E05016C6F6D6B17
:102E8000640E0501D89091BF03D0905D000E91595A
:102E900003E205016E6B6F6B0E2A000E0F2257D5F1
:102EA0008B9200017B6B0001806B05016C516D11F1
:102EB00005E005016E516F1101E007D10501465192
:102EC00001E103D104017095590E0D6E0DEB00F078
:102ED0000001016B00BF016900C0E6FF01C0E6FF11
:102EE000C00EE66E8D0EE66E000EE66E000EE66E0D
:102EF000020EE66E5FEC71F047E9010EE66EE66ADF
:102F0000A0C0E6FFB7EC00F043E9000EE66E020E4B
:102F1000E66E79EC72F042E97F0EE66E9B0EE66E8D
:102F2000000EE66EFDEC71F043E96CC5E6FF6DC581
:102F3000E6FF6EC5E6FF6FC5E6FFA90EE66E8D0ED5
:102F4000E66E000EE66E000EE66E020EE66E5FECBA
:102F500071F049E9010EE66E010EE66EE66AB7EC25
:102F600000F043E9000EE66E020EE66E79EC72F0B8
:102F700042E97F0EE66E9B0EE66E000EE66EFDECFD
:102F800071F043E9920EE66E8D0EE66E000EE66E6F
:102F9000000EE66E020EE66E5FEC71F045E905018B
:102FA0006E516F110DE1760EE66E8D0EE66E000E1F
:102FB000E66E000EE66E020EE66E5FEC71F045E91D
:102FC000010EE66E020EE66EE66AB7EC00F043E92B
:102FD000000EE66E020EE66E79EC72F042E97F0EAC
:102FE000E66E9B0EE66E000EE66EFDEC71F043E9B8
:102FF000920EE66E8D0EE66E000EE66E000EE66E2A
:10300000020EE66E5FEC71F045E905016C516D1141
:103010000DE1580EE66E8D0EE66E000EE66E000EA9
:10302000E66E020EE66E5FEC71F045E9010EE66EAB
:10303000030EE66EE66AB7EC00F043E9000EE66EBA
:10304000020EE66E79EC72F042E97F0EE66E9B0EA0
:10305000E66E000EE66EFDEC71F043E9010EE66EE1
:10306000010EE66E3BEC6DF042E9020EE66EABEC53
:103070005FF041E90400040170A5F7D7E66A010E8C
:10308000E66E3BEC6DF042E921EC6DF0010EE66E70
:103090009AEC13F041E9A1EC5FF0060EE66EE66AE9
:1030A000E66AE66A56EC01F044E98B920001010EF3
:1030B0007B6F0001806B80C0E6FF27EC6DF041E97B
:1030C0007CC0E6FF3FEC69F041E9AAEC03F0320E68
:1030D000E66E8D0EE66E000EE66EFDEC71F043E9D5
:1030E00024EF28F021EC6DF0060EE66EE66AE66A43
:1030F000E66A56EC01F044E917EC6DF0010EE66E5D
:10310000E66AE66AE66A56EC01F044E9106A116A7A
:1031100024EC6DF0010EE66E05EBE6FF06EBE6FF34
:1031200007EBE6FF08EBE6FF55EC02F045E9F1ECB2
:1031300033F080C0E6FF27EC6DF041E9E80EE66E63
:10314000030EE66EE66AE66A01EBE6FF02EBE6FFD7
:1031500003EBE6FF04EBE6FF8CEC62F0E552E5CF13
:1031600003F0E5CF02F0E5CF01F0E7CF00F000017A
:10317000005101110211031101E027D211EC34F0CA
:10318000000901E1D6D0AAEC03F0200EE96E060E8C
:10319000EA6EEE500601145D0001046FEE50060168
:1031A00015590001056FEE50060116590001066F12
:1031B000EE50060117590001076F04C0E6FF05C075
:1031C000E6FF06C0E6FF07C0E6FFBEEC07F044E9F5
:1031D000FCC300F0FDC301F0FEC302F0FFC303F027
:1031E00000C0E6FF01C0E6FF02C0E6FF03C0E6FF45
:1031F0001C0EE96E060EEA6EEE500601105D00012F
:103200000C6FEE500601115900010D6FEE500601D2
:10321000125900010E6FEE500601135900010F6F95
:103220000CC0E6FF0DC0E6FF0EC0E6FF0FC0E6FFD4
:10323000BEEC07F044E9FCC308F0FDC309F0FEC38F
:103240000AF0FFC30BF008C0E6FF09C0E6FF0AC0A2
:10325000E6FF0BC0E6FF180EE96E060EEA6EEE50B2
:1032600006010C5D0001146FEE5006010D590001BE
:10327000156FEE5006010E590001166FEE50060153
:103280000F590001176F14C0E6FF15C0E6FF16C006
:10329000E6FF17C0E6FFBEEC07F044E9FCC310F000
:1032A000FDC311F0FEC312F0FFC313F010C0E6FF20
:1032B00011C0E6FF12C0E6FF13C0E6FF150EE66E72
:1032C0008D0EE66E000EE66E000EE66E020EE66EE7
:1032D0005FEC71F051E9000EE66E020EE66E79ECDD
:1032E00072F042E906013C5122E006013D511FE027
:1032F00006013E511CE000017C5103E0010E106EFE
:10330000116AAAEC03F0F00EE66E8C0EE66E000E6B
:10331000E66E000EE66E020EE66E5FEC71F045E9B9
:10332000000EE66E020EE66E79EC72F042E9F1EC08
:1033300033F0040170A52ED021EC6DF0010EE66E85
:103340009AEC13F041E9A1EC5FF0060EE66EE66A36
:10335000E66AE66A56EC01F044E98B920001010E40
:103360007B6F0001806B80C0E6FF27EC6DF041E9C8
:103370007CC0E6FF3FEC69F041E9AAEC03F0E10E06
:10338000E66E8E0EE66E000EE66EFDEC71F043E921
:1033900024EF28F028EC28F001EBE6FF02EBE6FF33
:1033A00003EBE6FF04EBE6FFD80EE66E8C0EE66E4E
:1033B000000EE66E000EE66E020EE66E5FEC71F039
:1033C00049E9010EE66EE66AA0C0E6FFB7EC00F040
:1033D00043E9020E00017C5D3CE0540EE66E930E64
:1033E000E66E000EE66E000EE66E020EE66E5FEC16
:1033F00071F045E9050106512BE030C6E6FF31C604
:10340000E6FF32C6E6FF33C6E6FF0A0EE66EE66A60
:103410002AC5E6FF2BC5E6FFE3EC61F00A0EE66E77
:10342000E66A3AC5E6FF3BC5E6FFE3EC61F010C58E
:10343000E6FF11C5E6FFB00EE66E8C0EE66E000EDE
:10344000E66E000EE66E020EE66E5FEC71F04FE97E
:103450002ED0050106512BE030C6E6FF31C6E6FF4F
:1034600032C6E6FF33C6E6FF0A0EE66EE66A2AC5F6
:10347000E6FF2BC5E6FFE3EC61F00A0EE66EE66AB6
:103480003AC5E6FF3BC5E6FFE3EC61F010C5E6FF99
:1034900011C5E6FF880EE66E8C0EE66E000EE66E37
:1034A000000EE66E020EE66E5FEC71F04FE9010E63
:1034B000E66E010EE66EE66AB7EC00F043E9540EE4
:1034C000E66E930EE66E000EE66E000EE66E020EDF
:1034D000E66E5FEC71F045E9050146512BE034C61C
:1034E000E6FF35C6E6FF36C6E6FF37C6E6FF0A0E3C
:1034F000E66EE66A6AC5E6FF6BC5E6FFE3EC61F0DF
:103500000A0EE66EE66A7AC5E6FF7BC5E6FFE3ECE7
:1035100061F050C5E6FF51C5E6FF600EE66E8C0E09
:10352000E66E000EE66E000EE66E020EE66E5FECD4
:1035300071F04FE9010EE66E020EE66EE66AB7EC38
:1035400000F043E9540EE66E930EE66E000EE66E52
:10355000000EE66E020EE66E5FEC71F045E90501C5
:1035600086512BE038C6E6FF39C6E6FF3AC6E6FFCD
:103570003BC6E6FF0A0EE66EE66AAAC5E6FFABC5E5
:10358000E6FFE3EC61F00A0EE66EE66ABAC5E6FF16
:10359000BBC5E6FFE3EC61F090C5E6FF91C5E6FF31
:1035A000380EE66E8C0EE66E000EE66E000EE66ECF
:1035B000020EE66E5FEC71F04FE9010EE66E030E4F
:1035C000E66EE66AB7EC00F043E9D950010FE96E08
:1035D000DACFEAFFEE2A000EEE22EE22EE22E66AB3
:1035E00005EBE6FF06EBE6FF07EBE6FF08EBE6FF81
:1035F00055EC02F045E9000904E11050111001E119
:1036000098D521EC6DF0060EE66EE66AE66AE66A8B
:1036100056EC01F044E91EEC6DF0010EE66EE66A30
:10362000E66AE66A56EC01F044E9106A116A0001A4
:103630007C5101E17DD224EC6DF0010EE66E05EBCC
:10364000E6FF06EBE6FF07EBE6FF08EBE6FF55ECCF
:1036500002F045E9016A026A036A046AF1EC33F098
:1036600080C0E6FF27EC6DF041E9E80EE66E030E40
:10367000E66EE66AE66A01EBE6FF02EBE6FF03EBC5
:10368000E6FF04EBE6FF8CEC62F0E552E5CF03F0D9
:10369000E5CF02F0E5CF01F0E7CF00F000010051E7
:1036A00001110211031101E027D211EC34F00009DD
:1036B00001E1D6D0AAEC03F0200EE96E060EEA6E08
:1036C000EE500601145D0001046FEE50060115591D
:1036D0000001056FEE50060116590001066FEE500D
:1036E000060117590001076F04C0E6FF05C0E6FF99
:1036F00006C0E6FF07C0E6FFBEEC07F044E9FCC3E6
:1037000000F0FDC301F0FEC302F0FFC303F000C0F0
:10371000E6FF01C0E6FF02C0E6FF03C0E6FF1C0EA5
:10372000E96E060EEA6EEE500601105D00010C6FA8
:10373000EE500601115900010D6FEE5006011259AD
:1037400000010E6FEE500601135900010F6F0CC0FF
:10375000E6FF0DC0E6FF0EC0E6FF0FC0E6FFBEECC1
:1037600007F044E9FCC308F0FDC309F0FEC30AF00A
:10377000FFC30BF008C0E6FF09C0E6FF0AC0E6FF82
:103780000BC0E6FF180EE96E060EEA6EEE5006015B
:103790000C5D0001146FEE5006010D590001156F0C
:1037A000EE5006010E590001166FEE5006010F593A
:1037B0000001176F14C0E6FF15C0E6FF16C0E6FF54
:1037C00017C0E6FFBEEC07F044E9FCC310F0FDC3F0
:1037D00011F0FEC312F0FFC313F010C0E6FF11C0DA
:1037E000E6FF12C0E6FF13C0E6FF150EE66E8D0E73
:1037F000E66E000EE66E000EE66E020EE66E5FEC02
:1038000071F051E9000EE66E020EE66E79EC72F090
:1038100042E906013C5122E006013D511FE006014C
:103820003E511CE000017C5103E0010E106E116A54
:10383000AAEC03F0F00EE66E8C0EE66E000EE66E5D
:10384000000EE66E020EE66E5FEC71F045E9000ECA
:10385000E66E020EE66E79EC72F042E9F1EC33F0BE
:10386000040170A52ED021EC6DF0010EE66E9AECED
:1038700013F041E9A1EC5FF0060EE66EE66AE66A37
:10388000E66A56EC01F044E98B920001010E7B6F71
:103890000001806B80C0E6FF27EC6DF041E97CC041
:1038A000E6FF3FEC69F041E9AAEC03F0E10EE66EB9
:1038B0008E0EE66E000EE66EFDEC71F043E924EF2D
:1038C00028F028EC28F001EBE6FF02EBE6FF03EB23
:1038D000E6FF04EBE6FF210EE66E8C0EE66E000EB0
:1038E000E66E000EE66E020EE66E5FEC71F049E9E0
:1038F000010EE66EE66AA0C0E6FFB7EC00F043E911
:10390000540EE66E930EE66E000EE66E000EE66E48
:10391000020EE66E5FEC71F045E9020E00017C5D7F
:103920002FE0050106512BE030C6E6FF31C6E6FF69
:1039300032C6E6FF33C6E6FF0A0EE66EE66A2AC521
:10394000E6FF2BC5E6FFE3EC61F00A0EE66EE66AE1
:103950003AC5E6FF3BC5E6FFE3EC61F010C5E6FFC4
:1039600011C5E6FFB00EE66E8C0EE66E000EE66E3A
:10397000000EE66E020EE66E5FEC71F04FE92ED09F
:10398000050106512BE030C6E6FF31C6E6FF32C620
:10399000E6FF33C6E6FF0A0EE66EE66A2AC5E6FFD4
:1039A0002BC5E6FFE3EC61F00A0EE66EE66A3AC567
:1039B000E6FF3BC5E6FFE3EC61F010C5E6FF11C58D
:1039C000E6FF880EE66E8C0EE66E000EE66E000ECA
:1039D000E66E020EE66E5FEC71F04FE9010EE66EE8
:1039E000010EE66EE66AB7EC00F043E9540EE66EAF
:1039F000930EE66E000EE66E000EE66E020EE66EAA
:103A00005FEC71F045E9050146512BE034C6E6FF55
:103A100035C6E6FF36C6E6FF37C6E6FF0A0EE66E97
:103A2000E66A6AC5E6FF6BC5E6FFE3EC61F00A0EE5
:103A3000E66EE66A7AC5E6FF7BC5E6FFE3EC61F079
:103A400050C5E6FF51C5E6FF600EE66E8C0EE66ED1
:103A5000000EE66E000EE66E020EE66E5FEC71F092
:103A60004FE9010EE66E020EE66EE66AB7EC00F074
:103A700043E9540EE66E930EE66E000EE66E000EFF
:103A8000E66E020EE66E5FEC71F045E905018651C7
:103A90002BE038C6E6FF39C6E6FF3AC6E6FF3BC66E
:103AA000E6FF0A0EE66EE66AAAC5E6FFABC5E6FFCC
:103AB000E3EC61F00A0EE66EE66ABAC5E6FFBBC546
:103AC000E6FFE3EC61F090C5E6FF91C5E6FF380E36
:103AD000E66E8C0EE66E000EE66E000EE66E020ED0
:103AE000E66E5FEC71F04FE9010EE66E030EE66ED6
:103AF000E66AB7EC00F043E9D950010FE96EDACF7E
:103B0000EAFFEE2A000EEE22EE22EE22E66A05EB36
:103B1000E6FF06EBE6FF07EBE6FF08EBE6FF55ECFA
:103B200002F045E9000904E11050111001E198D5B7
:103B3000B0EF21F00401296B2A6B2B6B2C6B040175
:103B40002951096E2A510A6E2B510B6E2C510C6EA5
:103B500024EC6DF0140EE66EE66AE66AE66A56EC50
:103B600001F044E9016A026A036A046ADE0E015C3C
:103B7000030E0258000E0358000E045801E3E5D06E
:103B800001EBE6FF02EBE6FF03EBE6FF04EBE6FFEB
:103B9000210EE66E8C0EE66E000EE66E000EE66EF0
:103BA000020EE66E5FEC71F049E9010EE66EE66A20
:103BB000A0C0E6FFB7EC00F043E9540EE66E930EAA
:103BC000E66E000EE66E000EE66E020EE66E5FEC2E
:103BD00071F045E90501065115E029C4E6FF2AC444
:103BE000E6FF2BC4E6FF2CC4E6FFFF0EE66E8B0E4D
:103BF000E66E000EE66E000EE66E020EE66E5FECFE
:103C000071F049E9010EE66E010EE66EE66AB7EC68
:103C100000F043E9540EE66E930EE66E000EE66E7B
:103C2000000EE66E020EE66E5FEC71F045E9010EE5
:103C3000E66E020EE66EE66AB7EC00F043E9010EAE
:103C4000E66E030EE66EE66AB7EC00F043E9010E9D
:103C5000E66EE66AE66AE66A56EC01F044E9190E99
:103C6000E66EE66AE66AE66A01EBE6FF02EBE6FF6D
:103C700003EBE6FF04EBE6FF8CEC62F0E552E5CFE8
:103C800003F0E5CF02F0E5CF01F0E7CF00F000014F
:103C900000510111021103111CE1095004012919FD
:103CA00008E10A502A1905E10B502B1902E10C50CA
:103CB0002C1906E1E80E016E030E026E036A046A17
:103CC00004012951096E2A510A6E2B510B6E2C5199
:103CD0000C6E040170A52ED021EC6DF0010EE66E85
:103CE0009AEC13F041E9A1EC5FF0060EE66EE66A8D
:103CF000E66AE66A56EC01F044E98B920001010E97
:103D00007B6F0001806B80C0E6FF27EC6DF041E91E
:103D10007CC0E6FF3FEC69F041E9AAEC03F0E10E5C
:103D2000E66E8E0EE66E000EE66EFDEC71F043E977
:103D300024EF28F0D950010FE96EDACFEAFFEE2A1E
:103D4000000EEE22EE22EE2211D721EC6DF0060ECF
:103D5000E66EE66AE66AE66A56EC01F044E917ECBC
:103D60006DF0010EE66EE66AE66AE66A56EC01F070
:103D700044E90401296B2A6B2B6B2C6B040129513C
:103D8000096E2A510A6E2B510B6E2C510C6E24ECCD
:103D90006DF0140EE66EE66AE66AE66A56EC01F02D
:103DA00044E9016A026A036A046ADE0E015C030EDA
:103DB0000258000E0358000E045801E3E5D001EB51
:103DC000E6FF02EBE6FF03EBE6FF04EBE6FFD80EAF
:103DD000E66E8C0EE66E000EE66E000EE66E020ECD
:103DE000E66E5FEC71F049E9010EE66EE66AA0C08E
:103DF000E6FFB7EC00F043E9540EE66E930EE66E74
:103E0000000EE66E000EE66E020EE66E5FEC71F0DE
:103E100045E90501065115E029C4E6FF2AC4E6FF7D
:103E20002BC4E6FF2CC4E6FFFF0EE66E8B0EE66E9B
:103E3000000EE66E000EE66E020EE66E5FEC71F0AE
:103E400049E9010EE66E010EE66EE66AB7EC00F097
:103E500043E9540EE66E930EE66E000EE66E000E1B
:103E6000E66E020EE66E5FEC71F045E9010EE66E5D
:103E7000020EE66EE66AB7EC00F043E9010EE66E6C
:103E8000030EE66EE66AB7EC00F043E9010EE66E5B
:103E9000E66AE66AE66A56EC01F044E9190EE66E57
:103EA000E66AE66AE66A01EBE6FF02EBE6FF03EB91
:103EB000E6FF04EBE6FF8CEC62F0E552E5CF03F0A1
:103EC000E5CF02F0E5CF01F0E7CF00F000010051AF
:103ED0000111021103111CE109500401291908E123
:103EE0000A502A1905E10B502B1902E10C502C192C
:103EF00006E1E80E016E030E026E036A046A040115
:103F00002951096E2A510A6E2B510B6E2C510C6EE1
:103F1000040170A52ED021EC6DF0010EE66E9AEC36
:103F200013F041E9A1EC5FF0060EE66EE66AE66A80
:103F3000E66A56EC01F044E98B920001010E7B6FBA
:103F40000001806B80C0E6FF27EC6DF041E97CC08A
:103F5000E6FF3FEC69F041E9AAEC03F0E10EE66E02
:103F60008E0EE66E000EE66EFDEC71F043E924EF76
:103F700028F0D950010FE96EDACFEAFFEE2A000EE1
:103F8000EE22EE22EE2211D729C435F42AC436F4EB
:103F90002BC437F42CC438F421EC6DF000017B6B9A
:103FA0000001806B0A0EE66ED70EE66E230EE66EFB
:103FB0003C0EE66E35C4E6FF36C4E6FF37C4E6FFC6
:103FC00038C4E6FF20EC61F04DEC64F088EC61F061
:103FD000E552E5CF13F4E5CF12F4E5CF11F4E7CFC6
:103FE00010F46DEC0BF0FA0EE66E7E0EE66E2A0E05
:103FF000E66E3F0EE66E35C4E6FF36C4E6FF37C414
:10400000E6FF38C4E6FF20EC61F04DEC64F088EC8C
:1040100061F0E552E5CF13F4E5CF12F4E5CF11F4EA
:10402000E7CF10F4290EE96E040EEA6EEE5004019B
:10403000105D0001006FEE50040111590001016F85
:10404000EE50040112590001026FEE5004011359A1
:104050000001036F0001DC51400DF3CFE9FFF4CF05
:10406000EAFF000EE926050EEA220F0EE926000EF1
:10407000EA22050EE926000EEA2200C0EEFF01C08A
:10408000EDFF6DEC0BF0FA0EE66E7E0EE66EAA0EFC
:10409000E66E3E0EE66E35C4E6FF36C4E6FF37C474
:1040A000E6FF38C4E6FF20EC61F04DEC64F088ECEC
:1040B00061F0E552E5CF13F4E5CF12F4E5CF11F44A
:1040C000E7CF10F4290EE96E040EEA6EEE500401FB
:1040D000105D0001006FEE50040111590001016FE5
:1040E000EE50040112590001026FEE500401135901
:1040F0000001036F0001DC51400DF3CFE9FFF4CF65
:10410000EAFF000EE926050EEA220F0EE926000E50
:10411000EA22050EE926000EEA2200C0EEFF01C0E9
:10412000EDFF6DEC0BF0660EE66E660EE66E660E4B
:10413000E66E3F0EE66E35C4E6FF36C4E6FF37C4D2
:10414000E6FF38C4E6FF20EC61F04DEC64F088EC4B
:1041500061F0E552E5CF13F4E5CF12F4E5CF11F4A9
:10416000E7CF10F4290EE96E040EEA6EEE5004015A
:10417000105D0001006FEE50040111590001016F44
:10418000EE50040112590001026FEE500401135960
:104190000001036F0001DC51400DF3CFE9FFF4CFC4
:1041A000EAFF000EE926050EEA220F0EE926000EB0
:1041B000EA22050EE926000EEA2200C0EEFF01C049
:1041C000EDFF6DEC0BF0CD0EE66ECC0EE66ECC0E78
:1041D000E66E3D0EE66E35C4E6FF36C4E6FF37C434
:1041E000E6FF38C4E6FF20EC61F04DEC64F088ECAB
:1041F00061F0E552E5CF13F4E5CF12F4E5CF11F409
:10420000E7CF10F4290EE96E040EEA6EEE500401B9
:10421000105D0001006FEE50040111590001016FA3
:10422000EE50040112590001026FEE5004011359BF
:104230000001036F0001DC51400DF3CFE9FFF4CF23
:10424000EAFF000EE926050EEA220F0EE926000E0F
:10425000EA22050EE926000EEA2200C0EEFF01C0A8
:10426000EDFF6DEC0BF0E66AE66AE66A3F0EE66E7D
:1042700035C4E6FF36C4E6FF37C4E6FF38C4E6FFC0
:1042800020EC61F04DEC64F088EC61F0E552E5CF94
:1042900013F4E5CF12F4E5CF11F4E7CF10F4290EB3
:1042A000E96E040EEA6EEE500401105D0001006F2D
:1042B000EE50040111590001016FEE500401125932
:1042C0000001026FEE50040113590001036F000159
:1042D000DC51400DF3CFE9FFF4CFEAFF000EE926F1
:1042E000050EEA220F0EE926000EEA22050EE92647
:1042F000000EEA2200C0EEFF01C0EDFF6DEC0BF0F6
:10430000016A026A036A046A030E015C000E025825
:10431000000E0358000E045823E201EBE9FF02EB04
:10432000EAFF060ED890E936EA36E806FBE1000E11
:10433000E926050EEA220F0EE926000EEA22210EDA
:10434000E926000EEA22EE6AED6AD950010FE96E05
:10435000DACFEAFFEE2A000EEE22EE22EE22D4D7CA
:10436000016A026A036A046A030E015C000E0258C5
:10437000000E0358000E045802E3C2EF26F001EBD2
:10438000E9FF02EBEAFF060ED890E936EA36E806C6
:10439000FBE1000EE926050EEA22060EE926000ED4
:1043A000EA22EF5001E157D101EBE9FF02EBEAFF0E
:1043B000060ED890E936EA36E806FBE1000EE9265B
:1043C000050EEA220F0EE926000EEA22090EE92662
:1043D000000EEA22EECF00F0EFCF01F001EBE9FF93
:1043E00002EBEAFF060ED890E936EA36E806FBE172
:1043F000000EE926050EEA220F0EE926000EEA223B
:104400000B0EE926000EEA22EECF02F0EFCF03F00A
:104410000001013501510001031908E600010051B6
:104420000001025D000101510001035919E201EB95
:10443000E9FF02EBEAFF060ED890E936EA36E80615
:10444000FBE1000EE926050EEA220F0EE926000E1A
:10445000EA22210EE926000EEA22010EEE6EED6A36
:1044600001EBE9FF02EBEAFF060ED890E936EA36E7
:10447000E806FBE1000EE926050EEA220F0EE9260A
:10448000000EEA221B0EE926000EEA22EECF00F013
:10449000EFCF01F001EBE9FF02EBEAFF060ED89047
:1044A000E936EA36E806FBE1000EE926050EEA22C7
:1044B0000F0EE926000EEA220D0EE926000EEA2272
:1044C000EECF02F0EFCF03F00001033503510001FE
:1044D000011908E6000102510001005D00010351CD
:1044E0000001015919E201EBE9FF02EBEAFF060EB8
:1044F000D890E936EA36E806FBE1000EE926050E1B
:10450000EA220F0EE926000EEA22210EE926000E0D
:10451000EA22010EEE6EED6A01EBE9FF02EBEAFF23
:10452000060ED890E936EA36E806FBE1000EE926E9
:10453000050EEA220F0EE926000EEA22190EE926E0
:10454000000EEA22EECF00F0EFCF01F001EBE9FF21
:1045500002EBEAFF060ED890E936EA36E806FBE100
:10456000000EE926050EEA220F0EE926000EEA22C9
:10457000110EE926000EEA22EECF02F0EFCF03F093
:104580000001033503510001011908E60001025141
:104590000001005D000103510001015943E301EBFB
:1045A000E9FF02EBEAFF060ED890E936EA36E806A4
:1045B000FBE1000EE926050EEA220F0EE926000EA9
:1045C000EA22190EE926000EEA22EECF04F0EFCF20
:1045D00005F001EBE9FF02EBEAFF060ED890E936A1
:1045E000EA36E806FBE1000EE926050EEA220F0E88
:1045F000E926000EEA22130EE926000EEA22EECF8B
:1046000006F0EFCF07F0000105350551000107194D
:1046100008E6000104510001065D0001055100019A
:10462000075919E201EBE9FF02EBEAFF060ED89009
:10463000E936EA36E806FBE1000EE926050EEA2235
:104640000F0EE926000EEA22210EE926000EEA22CC
:10465000010EEE6EED6A01EBE9FF02EBEAFF060EDA
:10466000D890E936EA36E806FBE1000EE926050EA9
:10467000EA220F0EE926000EEA22210EE926000E9C
:10468000EA22EE50ED1001E0AFD101EBE9FF02EBC1
:10469000EAFF060ED890E936EA36E806FBE1000E9E
:1046A000E926050EEA220F0EE926000EEA221D0E6B
:1046B000E926000EEA22010EEE6EED6A01EBE9FF3B
:1046C00002EBEAFF060ED890E936EA36E806FBE18F
:1046D000000EE926050EEA220F0EE926000EEA2258
:1046E0001F0EE926000EEA22010EEE6EED6A01EBC6
:1046F000E9FF02EBEAFF060ED890E936EA36E80653
:10470000FBE1000EE926050EEA220D0EE926000E59
:10471000EA22EECF00F0EFCF01F001EBE9FF02EB70
:10472000EAFF060ED890E936EA36E806FBE1000E0D
:10473000E926050EEA220F0EE926000EEA222D0ECA
:10474000E926000EEA2200C0EEFF01C0EDFF01EBFA
:10475000E9FF02EBEAFF060ED890E936EA36E806F2
:10476000FBE1000EE926050EEA22060EE926000E00
:10477000EA22EF5001E137D1020E00017C5D04E036
:10478000580E01240D6E02D0410E0D6EAAEC03F0FE
:104790000DEB00F00001016B00BF016900C0E6FFF6
:1047A00001C0E6FFD30EE66E8B0EE66E000EE66EDF
:1047B000000EE66E020EE66E5FEC71F047E9000E49
:1047C000E66E020EE66E79EC72F042E901EBE9FF6B
:1047D00002EBEAFF060ED890E936EA36E806FBE17E
:1047E000000EE926050EEA220F0EE926000EEA2247
:1047F0000B0EE926000EEA22EECFE6FFEECFE6FF33
:1048000001EBE9FF02EBEAFF060ED890E936EA3643
:10481000E806FBE1000EE926050EEA220F0EE92666
:10482000000EEA22090EE926000EEA22EECFE6FF8C
:10483000EECFE6FFBC0EE66E8B0EE66E000EE66E69
:10484000000EE66E020EE66E5FEC71F049E9000EB6
:10485000E66E020EE66E79EC72F042E97F0EE66ECD
:104860009B0EE66E000EE66EFDEC71F043E901EB87
:10487000E9FF02EBEAFF060ED890E936EA36E806D1
:10488000FBE1000EE926050EEA220F0EE926000ED6
:10489000EA220D0EE926000EEA22EECFE6FFEECF69
:1048A000E6FF01EBE9FF02EBEAFF060ED890E936DE
:1048B000EA36E806FBE1000EE926050EEA220F0EB5
:1048C000E926000EEA221B0EE926000EEA22EECFB0
:1048D000E6FFEECFE6FFA50EE66E8B0EE66E000E4F
:1048E000E66E000EE66E020EE66E5FEC71F049E9D0
:1048F000000EE66E020EE66E79EC72F042E97F0E73
:10490000E66E9B0EE66E000EE66EFDEC71F043E97E
:1049100001EBE9FF02EBEAFF060ED890E936EA3632
:10492000E806FBE1000EE926050EEA220F0EE92655
:10493000000EEA22130EE926000EEA22EECFE6FF71
:10494000EECFE6FF01EBE9FF02EBEAFF060ED8909F
:10495000E936EA36E806FBE1000EE926050EEA2212
:104960000F0EE926000EEA22110EE926000EEA22B9
:10497000EECFE6FFEECFE6FF01EBE9FF02EBEAFF49
:10498000060ED890E936EA36E806FBE1000EE92685
:10499000050EEA220F0EE926000EEA22190EE9267C
:1049A000000EEA22EECFE6FFEECFE6FF8E0EE66EB9
:1049B0008B0EE66E000EE66E000EE66E020EE66EE2
:1049C0005FEC71F04BE9000EE66E020EE66E79ECDC
:1049D00072F042E97F0EE66E9B0EE66E000EE66E0A
:1049E000FDEC71F043E9C2D101EBE9FF02EBEAFF14
:1049F000060ED890E936EA36E806FBE1000EE92615
:104A0000050EEA22060EE926000EEA22EF5001E129
:104A1000ADD104017095020E00017C5D04E0580EDA
:104A200001240D6E02D0410E0D6EAAEC03F0780E3B
:104A3000E66E9B0EE66E000EE66EFDEC71F043E94D
:104A40000DEB00F00001016B00BF016900C0E6FF43
:104A500001C0E6FF780EE66E8B0EE66E000EE66E87
:104A6000000EE66E020EE66E5FEC71F047E9010E95
:104A7000E66EE66AA0C0E6FFB7EC00F043E9000E80
:104A8000E66E020EE66E79EC72F042E97F0EE66E9B
:104A90009B0EE66E000EE66EFDEC71F043E901EB55
:104AA000E9FF02EBEAFF060ED890E936EA36E8069F
:104AB000FBE1000EE926050EEA220F0EE926000EA4
:104AC000EA220B0EE926000EEA22EECFE6FFEECF39
:104AD000E6FF01EBE9FF02EBEAFF060ED890E936AC
:104AE000EA36E806FBE1000EE926050EEA220F0E83
:104AF000E926000EEA22090EE926000EEA22EECF90
:104B0000E6FFEECFE6FF610EE66E8B0EE66E000E60
:104B1000E66E000EE66E020EE66E5FEC71F049E99D
:104B2000010EE66E010EE66EE66AB7EC00F043E9B0
:104B3000000EE66E020EE66E79EC72F042E97F0E30
:104B4000E66E9B0EE66E000EE66EFDEC71F043E93C
:104B500001EBE9FF02EBEAFF060ED890E936EA36F0
:104B6000E806FBE1000EE926050EEA220F0EE92613
:104B7000000EEA220D0EE926000EEA22EECFE6FF35
:104B8000EECFE6FF01EBE9FF02EBEAFF060ED8905D
:104B9000E936EA36E806FBE1000EE926050EEA22D0
:104BA0000F0EE926000EEA221B0EE926000EEA226D
:104BB000EECFE6FFEECFE6FF4A0EE66E8B0EE66E18
:104BC000000EE66E000EE66E020EE66E5FEC71F011
:104BD00049E9010EE66E020EE66EE66AB7EC00F0F9
:104BE00043E9000EE66E020EE66E79EC72F042E9E1
:104BF0007F0EE66E9B0EE66E000EE66EFDEC71F02B
:104C000043E901EBE9FF02EBEAFF060ED890E93633
:104C1000EA36E806FBE1000EE926050EEA220F0E51
:104C2000E926000EEA22130EE926000EEA22EECF54
:104C3000E6FFEECFE6FF01EBE9FF02EBEAFF060E2F
:104C4000D890E936EA36E806FBE1000EE926050EC3
:104C5000EA220F0EE926000EEA22110EE926000EC6
:104C6000EA22EECFE6FFEECFE6FF01EBE9FF02EB33
:104C7000EAFF060ED890E936EA36E806FBE1000EB8
:104C8000E926050EEA220F0EE926000EEA22190E89
:104C9000E926000EEA22EECFE6FFEECFE6FF8E0E0B
:104CA000E66E8B0EE66E000EE66E000EE66E020EEF
:104CB000E66E5FEC71F04BE9010EE66E030EE66EF8
:104CC000E66AB7EC00F043E9000EE66E020EE66E0F
:104CD00079EC72F042E97F0EE66E9B0EE66E000EF6
:104CE000E66EFDEC71F043E9010EE66E010EE66E34
:104CF0003BEC6DF042E9020E00017C5D04E0580ED1
:104D000001240D6E02D0410E0D6EAAEC03F00DEBE6
:104D100000F00001016B00BF016900C0E6FF01C0A7
:104D2000E6FF1E0EE66E8B0EE66E000EE66E000EC1
:104D3000E66E020EE66E5FEC71F047E9000EE66E7D
:104D4000020EE66E79EC72F042E9020EE66EABEC12
:104D50005FF041E90400040170A5F7D7E66A010E8F
:104D6000E66E3BEC6DF042E9A1EC5FF0D950010F2B
:104D7000E96EDACFEAFFEE2A000EEE22EE22EE22F4
:104D8000B4EF21F021EC6DF0060EE66EE66AE66AFD
:104D9000E66A56EC01F044E98B9200017B6B00015E
:104DA000806BA1EC5FF00001865101E032D1016A15
:104DB000026A036A046A050EE66EABEC5FF041E935
:104DC000090EE66E8B0EE66E000EE66E000EE66EC7
:104DD000020EE66E5FEC71F045E9010EE66EE66AE2
:104DE000A0C0E6FFB7EC00F043E9040170A59AD03B
:104DF0008F80AAEC03F0EB0EE66E8A0EE66E000ED4
:104E0000E66E000EE66E020EE66E5FEC71F045E9AE
:104E1000000EE66E020EE66E79EC72F042E9010ECB
:104E2000E66EE66AA0C0E6FFB7EC00F043E9060EC6
:104E3000E66EE66AE66AE66A56EC01F044E9A1EC41
:104E40005FF0540EE66E930EE66E000EE66E000EF8
:104E5000E66E020EE66E5FEC71F045E9010EE66E5D
:104E6000010EE66EE66AB7EC00F043E9540EE66E1A
:104E7000930EE66E000EE66E000EE66E020EE66E15
:104E80005FEC71F045E9010EE66E020EE66EE66A31
:104E9000B7EC00F043E9540EE66E930EE66E000E9A
:104EA000E66E000EE66E020EE66E5FEC71F045E90E
:104EB000010EE66E030EE66EE66AB7EC00F043E91B
:104EC000020EE66E90EC10F041E9AAEC03F0CE0E73
:104ED000E66E8A0EE66E000EE66E000EE66E020EBE
:104EE000E66E5FEC71F045E9000EE66E020EE66ECE
:104EF00079EC72F042E9010EE66EE66AA0C0E6FFC8
:104F0000B7EC00F043E9060EE66EE66AE66AE66A8A
:104F100056EC01F044E9A00E016E860E026E010E01
:104F2000036E046A0400040104017051040B1DE1C6
:104F3000D950010FE96EDACFEAFFEFCF00F0EE2A89
:104F4000000EEFCF01F0EE22EFCF02F0EE22EFCF16
:104F500003F0EF22E80E0001005D030E0159000E80
:104F60000259000E035901E22BD7B00EE66E8A0EED
:104F7000E66E000EE66E000EE66E020EE66E5FEC6A
:104F800071F045E9010EE66EE66AE66AB7EC00F0FC
:104F900043E9540EE66E930EE66E000EE66E000ECA
:104FA000E66E020EE66E5FEC71F045E9010EE66E0C
:104FB000010EE66EE66AB7EC00F043E9540EE66EC9
:104FC000930EE66E000EE66E000EE66E020EE66EC4
:104FD0005FEC71F045E9010EE66E020EE66EE66AE0
:104FE000B7EC00F043E9540EE66E930EE66E000E49
:104FF000E66E000EE66E020EE66E5FEC71F045E9BD
:10500000010EE66E030EE66EE66AB7EC00F043E9C9
:1050100000D000017B6B0001806B060EE66EE66A35
:10502000E66AE66A56EC01F044E9A1EC5FF0C6ECF2
:1050300013F0AAEC03F0320EE66E8D0EE66E000E53
:10504000E66EFDEC71F043E952E9E7CFD9FF1200BB
:105050008EEC34F000018C5151E0EBC4E6FFECC45F
:10506000E6FFE9C4E6FFEAC4E6FFE7C4E6FFE8C4FA
:10507000E6FFA9EC31F0BBEC31F097EC31F07B0EA0
:10508000E66E8A0EE66E000E69EC2CF0A0EC2FF0B6
:10509000B2EC31F0C4EC31F0A0EC31F0580EE66E19
:1050A0008A0EE66E000E69EC2CF051E947EC30F008
:1050B00098C5E6FF99C5E6FF92C5E6FF93C5E6FFF2
:1050C00025EC33F058C5E6FF59C5E6FF52C5E6FFAB
:1050D00053C5E6FF8BEC2EF018C5E6FF19C5E6FFB9
:1050E00012C5E6FF13C5E6FFE2EC32F01A0EE66EDB
:1050F0008A0EE66E000EEDDBA0EC2FF0120005012B
:10510000C80EC26FFBEC2DF0B4EC2FF027E02B0E95
:10511000E66E93EC70F041E9B4EC2FF0FDE1FBECAE
:105120002DF02B0EE66E93EC70F041E9B4EC2FF00D
:10513000FDE10C0EE66E04EC73F041E9B4EC2FF0E7
:10514000FDE1010EE66E04EC73F041E9FBEC2DF09D
:105150000001010EF66F0501180EC26F120000016A
:10516000806B120EE66E220EE66E81EC6FF042E965
:10517000050EE66E8A0EE66E000EE66E000EE66E18
:10518000020EE66E5FEC71F045E9010EE66EE66A2E
:10519000E66AB7EC00F043E9010EE66E010EE66E3A
:1051A000E66AB7EC00F043E9010EE66E020EE66E29
:1051B000E66AB7EC00F043E9010EE66E030EE66E18
:1051C000E66AB7EC00F043E9120EE66E220EE66ED8
:1051D00032EC70F042E98F9092DF8B68FCAE15D014
:1051E000FC9E7F0EE66E9B0EE66E000EE66EFDECFC
:1051F00071F043E9AAEC03F0E00EE66E890EE66E6C
:10520000000EE66EFDEC71F043E9FCAC15D0FC9CA1
:105210007F0EE66E9B0EE66E000EE66EFDEC71F004
:1052200043E9AAEC03F0B60EE66E890EE66E000EB8
:10523000E66EFDEC71F043E90001735114E07F0E5E
:10524000E66E9B0EE66E000EE66EFDEC71F043E935
:10525000AAEC03F08D0EE66E890EE66E000EE66E89
:10526000FDEC71F043E90001745114E07F0EE66E2D
:105270009B0EE66E000EE66EFDEC71F043E9AAECC3
:1052800003F0640EE66E890EE66E000EE66EFDEC2F
:1052900071F043E9140EE66EE66A4C0EE66E890E76
:1052A000E66E000EE66E000EE66E020EE66E4DEC49
:1052B0006FF047E9010EE66EE66AE66AB7EC00F0C9
:1052C00043E97A0EE66E9B0EE66E000EE66EFDEC8E
:1052D00071F043E9140EE66EE66A9DC0E6FF9EC0DB
:1052E000E6FF9FC0E6FF000EE66E020EE66E4DEC96
:1052F0006FF047E9010EE66E010EE66EE66AB7EC66
:1053000000F043E9000EE66E020EE66E79EC72F0F4
:1053100042E9780EE66E9B0EE66E000EE66EFDEC40
:1053200071F043E9140EE66EE66A9AC0E6FF9BC090
:10533000E6FF9CC0E6FF000EE66E020EE66E4DEC48
:105340006FF047E9000EE66E020EE66E79EC72F041
:1053500042E9010EE66E020EE66EE66AB7EC00F078
:1053600043E9140EE66EE66A620EE66E9B0EE66E8A
:10537000000EE66E000EE66E020EE66E4DEC6FF06D
:1053800047E9000EE66E020EE66E79EC72F042E935
:105390007F0EE66E9B0EE66E000EE66EFDEC71F083
:1053A00043E9010EE66E030EE66EE66AB7EC00F026
:1053B00043E9AAEC03F02D0EE66E890EE66E000EB0
:1053C000E66EFDEC71F043E983A20CD00001010E02
:1053D0008C6F150EE66E890EE66E000EE66EFDEC25
:1053E00071F043E983A039D0AAEC03F0FC0EE66E1D
:1053F000880EE66E000EE66EFDEC71F043E9000EDD
:10540000E66EE66A000EE66EE66A010EE66EE66A93
:105410005DEC6EF046E9AAEC03F0DF0EE66E880E56
:10542000E66E000EE66EFDEC71F043E90501F46BEB
:105430000F0E0501F45D11E2080EE66EE66A050145
:10544000F451E66EE66A0F0EE66E7F0EE66E5DECD8
:105450006EF046E90501F42BEBD7AAEC03F0BF0E82
:10546000E66E880EE66E000EE66EFDEC71F043E926
:10547000000EE66EE66A000EE66EE66A8FEC6EF0EF
:1054800044E959080CE1000EE66EE66A020EE66E8B
:10549000E66A8FEC6EF044E90501F36F22D0AAECC6
:1054A00003F09C0EE66E880EE66E000EE66EFDECD6
:1054B00071F043E9000EE66EE66A000EE66EE66AFB
:1054C000010EE66EE66A5DEC6EF046E9AAEC03F0CA
:1054D0007C0EE66E880EE66E000EE66EFDEC71F058
:1054E00043E9AAEC03F0630EE66E880EE66E000E4A
:1054F000E66EFDEC71F043E9080EE66EE66A000E1A
:10550000E66EE66A8FEC6EF044E959081FE105018A
:10551000F46B0F0E0501F45D18E20501F451E66E1F
:10552000E66A0A0EE66EE66A8FEC6EF044E9E66E15
:105530000501F451EA6AE50FE96E000EEA22E55230
:10554000E750EF6E0501F42BE4D734D0AAEC03F05A
:10555000470EE66E880EE66E000EE66EFDEC71F00C
:1055600043E90501F46B0F0E0501F45D18E2080E26
:10557000E66EE66A0501F451E66EE66A0F0EE66E27
:105580000501F451EA6AE50FE96E000EEA22EFCF59
:10559000E6FF5DEC6EF046E90501F42BE4D7AAECDA
:1055A00003F02E0EE66E880EE66E000EE66EFDEC43
:1055B00071F043E983A403D04EEC0AF0FFD752EC1C
:1055C00042F0AAEC03F0150EE66E880EE66E000EB1
:1055D000E66EFDEC71F043E9050EE66EE66AE66AFA
:1055E000E66A56EC01F044E98EEC34F083A00BD06F
:1055F000AAEC03F0FF0EE66E870EE66E000EE66E76
:10560000FDEC71F043E983A60ED0AAEC03F0E20EA4
:10561000E66E870EE66E000EE66EFDEC71F043E975
:1056200000010F0EF76F740EE66E030EE66E04C6F1
:10563000E6FF05C6E6FF06C6E6FF07C6E6FFEFEC97
:1056400007F046E97B0EE66E030EE66E08C6E6FF3F
:1056500009C6E6FF0AC6E6FF0BC6E6FFEFEC07F059
:1056600046E97B0EE66E030EE66E740EE66E030EE2
:10567000E66EC90EE66E870EE66E000EE66E000E52
:10568000E66E020EE66E5FEC71F049E9010EE66E21
:10569000E66AE66AB7EC00F043E98350010BE66E78
:1056A000E66A8350020B01E0010EE66EE66A835063
:1056B000040B01E0010EE66EE66A8350080B01E080
:1056C000010EE66EE66A8350100B01E0010EE66EF5
:1056D000E66A8350200B01E0010EE66EE66A835015
:1056E000400B01E0010EE66EE66A8350800B01E09C
:1056F000010EE66EE66AA00EE66E870EE66E000EFE
:10570000E66E000EE66E020EE66E5FEC71F055E995
:10571000010EE66E010EE66EE66AB7EC00F043E9B4
:10572000AAEC03F0000EE66E020EE66E79EC72F063
:1057300042E92BEC03F0050EE66EE66AE66AE66ADD
:1057400056EC01F044E98EEC34F004C6E6FF05C6E1
:10575000E6FF8BEC73F042E942EC70F08B6A0001DB
:10576000846B0001886B00017A6B00017C51E66E4E
:10577000E66AEAEC0DF042E97CC0E6FF3FEC69F036
:1057800041E90001010E676F740EE66E030EE66ECE
:1057900004C6E6FF05C6E6FF06C6E6FF07C6E6FF47
:1057A000EFEC07F046E97B0EE66E030EE66E08C6E8
:1057B000E6FF09C6E6FF0AC6E6FF0BC6E6FFEFEC0A
:1057C00007F046E910C4E6FF11C4E6FF12C4E6FF85
:1057D00013C4E6FF00C4E6FF01C4E6FF02C4E6FF0F
:1057E00003C4E6FF7B0EE66E030EE66E740EE66EF5
:1057F000030EE66E7F0EE66E870EE66E000EE66E18
:10580000000EE66E020EE66E5FEC71F051E9010EDD
:10581000E66EE66AE66AB7EC00F043E9AAEC03F04C
:10582000000EE66E020EE66E79EC72F042E92BECA9
:1058300003F0280EE66EB0EC5FF041E9050EE66E6F
:10584000E66AE66AE66A56EC01F044E932EC0BF0EF
:10585000010EE66E010EE66EE66AE66AE66A90EC16
:1058600002F045E98EEC34F012EC6DF0000905E031
:105870000001655102E052EC42F04CEC11F00400E2
:105880000001815112E0DBEC13F0AAEC0EF00401F0
:10589000D66FD60EE66E040EE66EEAEC0DF042E927
:1058A000D6C4E6FFBEEC0AF041E904000EEC01F0BC
:1058B0006DEC0BF00001835102E00001A26BD2D726
:1058C0001200400D2AEC33F0000EE926050EEA2204
:1058D0001200E66ED5EC32F05FEF71F0D2DBD7DB71
:1058E0007F0EE66E9B0EE66E000EE66EFDEF71F02B
:1058F000AEEC30F09BEC30F0FCEC63F0E552E5CF21
:1059000007F0E5CF06F0E5CF05F0E7CF04F00001A2
:105910000451005D0001E16F0001055101590001D2
:10592000E26F0001065102590001E36F00010751C7
:1059300003590001E46F12003EEC33F0050E4FEF07
:1059400032F018C5E6FF19C5E6FFAFEC32F02AC504
:10595000E6FF2BC5E6FFC3EC30F028C5E6FF29C5FE
:10596000E6FFE3EF61F058C5E6FF59C5E6FFAFEC8F
:1059700032F06AC5E6FF6BC5E6FFC3EC30F068C5E0
:10598000E6FF69C5E6FFE3EF61F0CFEC62F0E552B8
:10599000E5CFC6F0E5CFC5F0E5CFC4F0E7CFC3F063
:1059A000CDEC31F0F9EF30F0400DF3CF00F0F4CF53
:1059B00001F0000E00010027050E0123D6EC31F0A6
:1059C000B8EC6BF042E9120098C5E6FF99C5E6FF16
:1059D000AFEC32F0AAC5E6FFABC5E6FFD4DBA8C545
:1059E000E6FFA9C5E6FFE3EF61F0540EE66E930E05
:1059F000E66E000E1200E552E5CF03F0E5CF02F0AF
:105A0000E5CF01F0E7CF00F0120063DBE552E5CF10
:105A100013F4E5CF12F4E5CF11F4E7CF10F4120040
:105A2000E3DBC7EF30F0BEEC07F044E9FCC300F065
:105A3000FDC301F0FEC302F0FFC303F0120047E90B
:105A400047EF30F0D9CFE6FFE1CFD9FF12000501D3
:105A5000E151E12BE25D120097EC31F0A0EF31F063
:105A6000FF51060D2AEC33F0A00EE926030EEA22C0
:105A7000120041E9E7CFD9FF120062EC31F0D6EC19
:105A800031F0E66ED5EC32F04DEC6FF047E91200E4
:105A900002EBE9FF03EBEAFFD890E936EA36D8904B
:105AA000E936EA36CA0EE926030EEA22120045E973
:105AB000BBEF32F0030EE66ED8EC6DF041E9120058
