:020000040000FA
:0600000094EF74F0120001
:020006001200E6
:06000800E3EF58F01200C6
:02000E00C250DE
:08001000020B01E0010E1200D9
:0600180077EF5FF012001B
:02001E000600DA
:100020006EEA0000FE040000020000006AEA000020
:10003000FB02000004000000D2E9000060000000A4
:1000400098000000C0E90000EA0300001200000070
:10005000BEE90000FE000000020000008EE9000082
:08006000A706000030000000BB
:080068006CEC2FF083E941E884
:100070000150050801E2016A005003E0B7EC30F0DE
:10008000EF6A01EBACF60001890E036F9E0E046F60
:10009000000E056FF7EC30F0E5CF08F034EC32F0ED
:1000A0000001A6EC33F0B7EC30F0EFCF09F00A6BAB
:1000B0000B6B00510925F36E01510A21F46E0251B8
:1000C0000B21F86EF4CFF7FFF3CFF6FF0800F550E1
:1000D000036EB7EC30F0EF2AEFCF00F0016B026B4C
:1000E0001DEC34F002C0E6FF890E096F9E0E0A6F08
:1000F000000E0B6FF7EC30F0E5CF0EF0E5CF0DF012
:10010000E7CF0CF0000109510C25066F0A510D21B3
:10011000076F0B510E21086F4EEC35F0E66E70EC58
:100120006EF043E9E552E7CF02F0E552E7CF01F088
:10013000E552E7CF00F0FCC303F0FDC304F0FEC3BB
:1001400005F000010351005D0451015905510259A8
:1001500003E3B7EC30F0EF6A035042E9E7CFD9FF91
:1001600012006CEC2FF084E90001F5514FE00050D3
:1001700021E0025001240601AD6F44EC34F0260E5C
:10018000E66E9D0EE66E000EE66EB1EC2FF0C3EC4F
:100190006EF047E944EC34F017EC35F00601B1ECB1
:1001A0002FF095EC6EF046E9060191EC33F0140E59
:1001B00037EC31F00150030A0CE0010A08E0030AB1
:1001C00004E0010A09E1E66A08D0400E03D0140EEB
:1001D00001D0540EE66E01D0E66A12EC72F041E9ED
:1001E000015000019F250601AD6F00016A510EE02C
:1001F000FBEC31F0FDE10601B1EC2FF041EC73F0C6
:1002000042E9FBEC31F0FDE1010E901685EF2FF095
:1002100000016E5104E075EC43F000016E6B725109
:1002200007E0726BF75102E0000E01D0010EF76F8C
:10023000755104E01DEC11F00001756B685103E08D
:10024000A7DA0001686B715104E0FBEC06F00001D5
:10025000716B6F5103E0BDDA00016F6B1200D9CFF3
:10026000E6FFE1CFD9FF85E90401766B776B786B08
:10027000796B04017651005C77510158785102582E
:100280007951035809E3000004000401762B000EA5
:10029000772378237923EDD741E9E7CFD9FF1200FF
:1002A000D9CFE6FFE1CFD9FF85E9030EE66E4EEC2C
:1002B0006DF041E992C67AF493C67BF494C67CF45F
:1002C00095C67DF49AEC6DF0D9CFE9FFDACFEAFF5D
:1002D00004017A51EE240401826F04017B51EE2067
:1002E0000401836F04017C51EE200401846F04013A
:1002F0007D51EE200401856F030EE66E4EEC6DF02D
:1003000041E992C67EF493C67FF494C680F495C604
:1003100081F49AEC6DF004007E0EE96E040EEA6E34
:1003200004018251EE5C8351EE588451EE588551A0
:10033000EE58E2E341E9E7CFD9FF120076EC33F063
:1003400019E0A3EC2FF092C686F493C687F494C606
:1003500088F495C689F4E3EC2FF004018651EE246D
:100360008E6F8751EE208F6F8851EE20906F8951EC
:10037000EE20916FA3EC2FF092C68AF493C68BF413
:1003800094C68CF495C68DF49AEC6DF08A0EE96EE5
:10039000040EEA6E04018E51EE5C8F51EE589051BE
:1003A000EE589151EE5802E2000E01D0010E85EF99
:1003B0002FF076EC33F019E0A3EC2FF092C692F414
:1003C00093C693F494C694F495C695F4E3EC2FF099
:1003D00004019251EE249A6F9351EE209B6F945139
:1003E000EE209C6F9551EE209D6FA3EC2FF092C6EE
:1003F00096F493C697F494C698F495C699F49AEC3B
:100400006DF0960EE96E040EEA6E04019A51EE5CF0
:100410009B51EE589C51EE589D51EE5802E2000E51
:1004200001D0010E85EF2FF076EC33F019E0A3EC4C
:100430002FF092C69EF493C69FF494C6A0F495C67E
:10044000A1F4E3EC2FF004019E51EE24A66F9F511E
:10045000EE20A76FA051EE20A86FA151EE20A96F4A
:10046000A3EC2FF092C6A2F493C6A3F494C6A4F40E
:1004700095C6A5F49AEC6DF0A20EE96E040EEA6E34
:100480000401A651EE5CA751EE58A851EE58A951AF
:10049000EE5802E2000E01D0010E85EF2FF076EC4F
:1004A00033F019E0A3EC2FF092C6AAF493C6ABF494
:1004B00094C6ACF495C6ADF4E3EC2FF00401AA5158
:1004C000EE24B26FAB51EE20B36FAC51EE20B46F9F
:1004D000AD51EE20B56FA3EC2FF092C6AEF493C6EB
:1004E000AFF494C6B0F495C6B1F49AEC6DF0AE0ECC
:1004F000E96E040EEA6E0401B251EE5CB351EE589F
:10050000B451EE58B551EE5802E2000E01D0010E82
:1005100085EF2FF076EC33F019E0A3EC2FF092C6C4
:10052000B6F493C6B7F494C6B8F495C6B9F4E3EC40
:100530002FF00401B651EE24BE6FB751EE20BF6F0D
:10054000B851EE20C06FB951EE20C16FA3EC2FF06F
:1005500092C6BAF493C6BBF494C6BCF495C6BDF477
:100560009AEC6DF0BA0EE96E040EEA6E0401BE510B
:10057000EE5CBF51EE58C051EE58C151EE5802E248
:10058000000E01D0010E85EF2FF076EC33F019E06C
:10059000A3EC2FF092C6C2F493C6C3F494C6C4F47D
:1005A00095C6C5F4E3EC2FF00401C251EE24CA6FE6
:1005B000C351EE20CB6FC451EE20CC6FC551EE205D
:1005C000CD6FA3EC2FF092C6C6F493C6C7F494C6C1
:1005D000C8F495C6C9F49AEC6DF0C60EE96E040E27
:1005E000EA6E0401CA51EE5CCB51EE58CC51EE5884
:1005F000CD51EE5802E2000E01D0010E85EF2FF032
:1006000000000401CE6B0601A7510401CE5D04E297
:1006100000000401CE2BF7D712000F0EE66E9FEC00
:1006200073F041E91200050EE66E9FEC73F041E9AC
:1006300012006CEC2FF082E96CA2FED700EBE6FF13
:1006400037EC74F041E985EF2FF0050EACEF2FF099
:1006500000016A5101E11200FBEC31F0FDE11200F2
:100660006CEC2FF089E903340EE202500808000E0A
:10067000035409E204EBFCF305EBFDF306EBFEF398
:1006800007EBFFF35FD00050011009E000018F0E6F
:10069000916FC20E926F750E936F3D0E06D00001E2
:1006A000916B926B800E936F3E0E946F26EC33F03D
:1006B00091C0E6FF92C0E6FF93C0E6FF94C0E6FF5C
:1006C0002BEC35F026EC33F004EBE6FF05EBE6FF10
:1006D00006EBE6FF07EBE6FF41EC64F0C1EC5FF0F0
:1006E00041EC64F02BEC35F0C3EC5FF0C3EC62F04E
:1006F000E552E5CF98F0E5CF97F0E5CF96F0E7CF5C
:1007000095F094EC2FF095C0EEFF96C0EEFF97C0E9
:10071000EEFF98C0EEFF001C0DE1011C0BE1000193
:10072000956B966B976B986B94EC2FF0EE6AEE6A74
:10073000EE6AEE6A95C0FCF396C0FDF397C0FEF337
:1007400098C0FFF385EF2FF004004EC6E6FF4FC6BA
:10075000E6FF50C6E6FF51C6E6FF66DB44E9F3CF8D
:10076000E6FFF4CFE6FF1F0EE66E9D0EE66E000E6E
:10077000E66E200EE66E030EE66ED5EC70F047E9ED
:10078000200EE66E030EE66EEFEC71F042E9120009
:10079000DBDF130EE66EA70EE66E000E7DEC32F088
:1007A0000401236B040123510AE10A0EF3EC32F039
:1007B00056DD44E93BEC36F088EC5FF0F3D7020EEF
:1007C000235DC2DF710EE66EA70EE66E000E7DEFB2
:1007D00032F004001C0EE66E9D0EE66E000EE66E14
:1007E000000EE66E020EE66ED5EC70F045E9000EE6
:1007F000E66E020EE66EEFEC71F042E9A5DF170E31
:10080000E66E9D0EE66E000EE66E73EC71F043E947
:100810009CC0E6FF9DC0E6FF9EC0E6FF000EE66EB0
:10082000020EE66E57EC6EF045E9000EE66E020E23
:10083000E66EEFEC71F042E9150EE66E9D0EE66E87
:10084000000EE66E73EC71F043E999C0E6FF9AC0C2
:10085000E6FF9BC0E6FF000EE66E020EE66E57EC6A
:100860006EF045E9000EE66E020EE66EEFEC71F0FA
:1008700042E9FF0EE66E9C0EE66E000EE66E000E7E
:10088000E66E020EE66E57EC6EF045E9000EE66E7F
:10089000020EE66EEFEC71F042E900018351E66E64
:1008A000E66A00016051E66EE66A5AC6E6FF5BC67C
:1008B000E6FF5CC6E6FF5DC6E6FF56C6E6FF57C626
:1008C000E6FF58C6E6FF59C6E6FF44C6E6FF45C642
:1008D000E6FF01C6E6FF02C6E6FF03C6E6FF04C662
:1008E000E6FF8350800B01E0010EE66EE66A83505E
:1008F000400B01E0010EE66EE66A8350200B01E03A
:10090000010EE66EE66A8350100B01E0010EE66E02
:10091000E66A8350080B01E0010EE66EE66A83503A
:10092000040B01E0010EE66EE66A8350020B01E063
:10093000010EE66EE66A8350010BE66EE66A000180
:100940006351E66EE66A700EE66E9C0EE66E000E71
:10095000E66E000EE66E020EE66ED5EC70F069E90A
:10096000000EE66E020EE66EEFEC71F042E9060153
:10097000A651E66EE66A7850E66EE66A6AC6E6FF5B
:100980006BC6E6FF6CC6E6FF6DC6E6FF4EC6E6FF29
:100990004FC6E6FF50C6E6FF51C6E6FF92C6E6FF29
:1009A00093C6E6FF94C6E6FF95C6E6FF7DEC62F0CF
:1009B00092C6E6FF93C6E6FF94C6E6FF95C6E6FF3D
:1009C0008EC6E6FF8FC6E6FF90C6E6FF91C6E6FF3D
:1009D00052C6E6FF53C6E6FF54C6E6FF55C6E6FF1D
:1009E0004AC6E6FF4BC6E6FF4CC6E6FF4DC6E6FF2D
:1009F00062C6E6FF63C6E6FF64C6E6FF65C6E6FFBD
:100A00008AC6E6FF8BC6E6FF8CC6E6FF8DC6E6FF0C
:100A100086C6E6FF87C6E6FF88C6E6FF89C6E6FF0C
:100A20006EC6E6FF6FC6E6FF70C6E6FF71C6E6FF5C
:100A30004EC6E6FF4FC6E6FF50C6E6FF51C6E6FFCC
:100A4000B10EE66E9B0EE66E000EE66E000EE66ED2
:100A5000020EE66ED5EC70F075E9000EE66E020E41
:100A6000E66EEFEC71F042E929C4E6FF2AC4E6FF26
:100A70002BC4E6FF2CC4E6FF66C6E6FF67C6E6FFAA
:100A800068C6E6FF69C6E6FF72C6E6FF73C6E6FF04
:100A900074C6E6FF75C6E6FF76C6E6FF77C6E6FFD4
:100AA00078C6E6FF79C6E6FF7AC6E6FF7BC6E6FFB4
:100AB0007CC6E6FF7DC6E6FF7EC6E6FF7FC6E6FF94
:100AC00080C6E6FF81C6E6FF520EE66E9B0EE66E1E
:100AD000000EE66E000EE66E020EE66ED5EC70F0CD
:100AE0005DE9000EE66E020EE66EEFEC71F042E993
:100AF0000401CF6B030E0401CF5D01E36ED104014D
:100B0000CF513C0DF3CFE9FFF4CFEAFF000EE92609
:100B1000050EEA22060EE926000EEA22EF5001E158
:100B200059D10401CF513C0DF3CFE9FFF4CFEAFFD7
:100B3000000EE926050EEA220F0EE926000EEA2233
:100B4000170EE926000EEA22EECFE6FFEECFE6FF13
:100B50000401CF513C0DF3CFE9FFF4CFEAFF000EC3
:100B6000E926050EEA220F0EE926000EEA22150EEE
:100B7000E926000EEA22EECFE6FFEECFE6FF040103
:100B8000CF513C0DF3CFE9FFF4CFEAFF000EE92689
:100B9000050EEA220F0EE926000EEA22290EE926AA
:100BA000000EEA22EECFE6FFEECFE6FF0401CF51C2
:100BB0003C0DF3CFE9FFF4CFEAFF000EE926050E66
:100BC000EA220F0EE926000EEA22270EE926000E81
:100BD000EA22EECFE6FFEECFE6FF0401CF513C0D57
:100BE000F3CFE9FFF4CFEAFF000EE926050EEA2273
:100BF0000F0EE926000EEA22090EE926000EEA226F
:100C0000EECFE6FFEECFE6FF0401CF513C0DF3CF70
:100C1000E9FFF4CFEAFF000EE926050EEA220F0EE7
:100C2000E926000EEA22110EE926000EEA22EECF96
:100C3000E6FFEECFE6FF0401CF513C0DF3CFE9FF15
:100C4000F4CFEAFF000EE926050EEA220F0EE92690
:100C5000000EEA22130EE926000EEA22EECFE6FF8E
:100C6000EECFE6FF0401CF513C0DF3CFE9FFF4CF07
:100C7000EAFF000EE926050EEA220F0EE926000E15
:100C8000EA22050EE926000EEA22EECFE6FFEECFBD
:100C9000E6FF0401CF513C0DF3CFE9FFF4CFEAFFAB
:100CA000000EE926050EEA220F0EE926000EEA22C2
:100CB000030EE926000EEA22EECFE6FFEECFE6FFB6
:100CC0000401CF513C0DF3CFE9FFF4CFEAFF000E52
:100CD000E926050EEA220F0EE926000EEA22EE5260
:100CE000EECFE6FFEECFE6FF0401CF51E66EE66AF7
:100CF000DA0EE66E9A0EE66E000EE66E000EE66EF8
:100D0000020EE66ED5EC70F05BE9000EE66E020EA8
:100D1000E66EEFEC71F042E9E66AE66A7A0EE66E9C
:100D2000440EE66E0401CF513C0DF3CFE9FFF4CF42
:100D3000EAFF000EE926050EEA220F0EE926000E54
:100D4000EA221F0EE926000EEA22EECFE6FFEECFE2
:100D5000E6FFEECFE6FFEECFE6FF41EC64F039ECC4
:100D600061F0E66AE66A7A0EE66E440EE66E04010B
:100D7000CF513C0DF3CFE9FFF4CFEAFF000EE92697
:100D8000050EEA220F0EE926000EEA22230EE926BE
:100D9000000EEA22EECFE6FFEECFE6FFEECFE6FF53
:100DA000EECFE6FF41EC64F039EC61F0B90EE66E8F
:100DB0009A0EE66E000EE66E000EE66E020EE66E0F
:100DC000D5EC70F049E9000EE66E020EE66EEFEC2F
:100DD00071F042E90401CF2B8DD60001F75109E0F3
:100DE000A10EE66E9A0EE66E000EE66E73EC71F0E2
:100DF00043E9040012001A0EE66EA80EE66E000E1D
:100E00007DEC32F0640EE66EA80EE66E000E7DEC10
:100E100032F00001F75107E0A10EE66E9A0EE66E81
:100E2000000E7DEC32F012006CEC2FF049EC31F04A
:100E300002E25DEC31F000EBB6F601EBB7F602EB47
:100E4000B8F603EBB9F6BEEC30F001EC31F0E5CFCB
:100E5000B1F6E5CFB0F6E5CFAFF6E7CFAEF6BEEC34
:100E600030F066EC31F09DEC33F0FBEC2FF014EC3D
:100E700031F001EC31F0E5CFB5F6E5CFB4F6E5CFD2
:100E8000B3F6E7CFB2F614EC31F06FEC31F09DEC35
:100E900033F0FBEC2FF04CEC34F0E66E6FEC31F0FD
:100EA00066EC31F08F0EE66E9A0EE66E000E03ECE5
:100EB00032F051E9CBEF33F06CEC2FF049EC31F02C
:100EC00002E25DEC31F000EBC2F601EBC3F602EB9F
:100ED000C4F603EBC5F6BEEC30F008EC31F0E5CF1C
:100EE000BDF6E5CFBCF6E5CFBBF6E7CFBAF6BEEC74
:100EF00030F078EC31F09DEC33F014EC30F014EC81
:100F000031F008EC31F0E5CFC1F6E5CFC0F6E5CF22
:100F1000BFF6E7CFBEF614EC31F081EC31F09DEC7A
:100F200033F014EC30F081EC31F078EC31F0830EDA
:100F3000E66E9A0EE66E000E03EC32F04DE9CBEF52
:100F400033F06CEC2FF083E901340EE300EB00F09A
:100F500001EB01F00001006D011F000E012300C034
:100F6000F3FF01C0F4FF02D03AEC31F085EF2FF02F
:100F70006CEC2FF085E9033413E3E668E668E66875
:100F8000E66826EC32F003EBE6FF9DEC33F000C0A0
:100F9000FCF301C0FDF302C0FEF303C0FFF308D071
:100FA00000EBFCF301EBFDF302EBFEF303EBFFF3CD
:100FB00085EF2FF0B0EC33F030EC35F0C2EC2EF0D2
:100FC0008AEC31F07B0EE66E9A0EE66E000E53EF61
:100FD00034F0B0EC33F009EC35F08AEC31F0730EFC
:100FE000E66E9A0EE66E000E53EF34F035EC34F0F8
:100FF00002E32D0E906FF1EC2FF014EC61F00FEC8A
:101000002FF009EC35F0E0EC32F05DEC2FF0D890E9
:1010100000010351000A08E6DC0E005D050E0159CF
:10102000000E0259000E035917E2E0EC32F05DECBD
:101030002FF0A1EC30F090C004F00001056B04BF6C
:10104000056939EC32F06D0EE66E9A0EE66E000E12
:1010500072EC30F04BE934D0E66AE66A7A0EE66E5E
:10106000440EDBEC2FF00FEC2FF030EC35F058ECA9
:1010700034F0E2C0E6FFE66E5DEC2FF0A1EC30F05C
:10108000E0EC32F075DF44E9FCC304F0FDC305F089
:10109000FEC306F0FFC307F0A1EC30F090C008F0EB
:1010A0000001096B08BF096908C0E6FF09C0E6FF37
:1010B000600EE66E9A0EE66E000E72EC30F04FE9AE
:1010C0003AEC31F085EF2FF035EC34F002E32D0EE1
:1010D000906FE66AE66A200EE66E410EB8EC33F0D9
:1010E00014EC61F0C3EC62F0E552E5CFC9F0E5CF56
:1010F000C8F0E5CFC7F0E7CFC6F090EC31F03DEC9B
:1011000033F0200EE66E410EE66E90EC31F036ECD8
:1011100035F00A0E58EC34F00AEC32F053EC35F0AE
:101120000AEC32F090C000F00001016B00BF0169D1
:101130001DEC34F0560EE66E9A0EE66E000E72EC62
:1011400030F04BE93AEC31F085EF2FF06CEC2FF0FA
:1011500085E9A3EC2FF003500001006F016B01350E
:101160004AE20051FA08000E015545E2FF0E3FEC3D
:1011700031F00AE1F45008E10001775101E183D137
:101180009AEC6DF0010E82D1FE0E3FEC31F009E1D8
:10119000F45007E19AEC6DF002017CEC2FF0040EA4
:1011A00027D0FD0E3FEC31F009E1F45007E10001DA
:1011B000010E776F9AEC6DF0FD0E68D1FC0E3FECDE
:1011C00031F008E1F45006E10001776B9AEC6DF024
:1011D000FC0E5CD1FB0E3FEC31F00DE1F4500BE165
:1011E0000001776B9AEC6DF002017CEC2FF0050E9C
:1011F00022EC34F04BD10001775101E144D10201DE
:10120000FF51000801E33FD1FF077CEC2FF0040EF3
:10121000D9EC34F0EFCFC7F6A4EC03F026EC32F0B3
:1012200073EC71F043E902017CEC2FF0EBEC2FF052
:10123000FF51E66EE66A440EE66E9A0EE66E000E0A
:101240001CEC35F00601C66BC651C62BC75D07E125
:10125000F50EE66EAA0EE66E000E7DEC32F071EC35
:101260002FF007E1150EE66EAB0EE66E000E7DEC7C
:1012700032F071EC2FF007E1450EE66EAB0EE66E34
:10128000000E7DEC32F071EC2FF007E1680EE66E97
:10129000AB0EE66E000E7DEC32F071EC2FF007E144
:1012A0008B0EE66EAB0EE66E000E7DEC32F071EC4E
:1012B0002FF007E1BC0EE66EAB0EE66E000E7DEC85
:1012C00032F071EC2FF007E1F00EE66EAB0EE66E39
:1012D000000E7DEC32F071EC2FF007E1250EE66E8A
:1012E000AC0EE66E000E7DEC32F071EC2FF007E1F3
:1012F0005E0EE66EAC0EE66E000E7DEC32F071EC2A
:101300002FF007E18C0EE66EAC0EE66E000E7DEC63
:1013100032F071EC2FF007E1B30EE66EAA0EE66E26
:10132000000E7DEC32F071EC2FF007E1D30EE66E8B
:10133000AA0EE66E000E7DEC32F071EC2FF007E1A4
:10134000E30EE66EA90EE66E000E7DEC32F071EC57
:101350002FF007E1BC0EE66EAC0EE66E000E7DECE3
:1013600032F071EC2FF007E1FD0EE66EAC0EE66E8A
:10137000000E7DEC32F071EC2FF007E1230EE66EEB
:10138000AD0EE66E000E7DEC32F071EC2FF007E151
:10139000490EE66EAD0EE66E000E7DEC32F071EC9D
:1013A0002FF007E1750EE66EAD0EE66E000E7DECD9
:1013B00032F071EC2FF007E18D0EE66EAD0EE66EA9
:1013C000000E7DEC32F071EC2FF007E1A40EE66E1A
:1013D000AD0EE66E000E7DEC32F071EC2FF007E101
:1013E000480EE66EB10EE66E000E7DEC32F071EC4A
:1013F0002FF007E1860EE66EB10EE66E000E7DEC74
:1014000032F071EC2FF007E1A50EE66EB10EE66E3C
:10141000000E7DEC32F071EC2FF007E1D10EE66E9C
:10142000AD0EE66E000E7DEC32F00601C651D8809E
:10143000C75517E2C7510001006F016BFA0ED89033
:1014400001BF03D0005D000E01590BE20601C75138
:10145000E66EE66A2A0EE66E9A0EE66E000EE6EC80
:1014600034F00201FF5102E10001776B02017CECD4
:101470002FF0050E37EC31F07CEC2FF0EE6AEE6ABF
:10148000EE6AEE6ABCD69AEC6DF0000E85EF2FF096
:101490000001010E666F83A449D03BEC36F0640E68
:1014A000F3EC32F005C6E6FF06C6E6FF07C6E6FF28
:1014B00008C6E6FF7DEC62F0AAEC30F0B5DC44E94A
:1014C000F3CFE6FFF4CFE6FF100EE66E9A0EE66E5F
:1014D000000EB3EC2EF04BE9010EE66EE66A2DEC41
:1014E00032F0E66E2DEC32F0020E82EC32F0AAEC15
:1014F00030F099EC31F07DEC62F099EC31F0AAEC2F
:1015000030F0F00EE66E990EE66E000EB3EC2EF0A3
:1015100051E9010EE66E030E82EC32F0880EE66EA3
:10152000130E5FEC34F088EC5FF0B5D70001666B0A
:1015300012006CEC2FF083E91B0EF6EC31F05B0E21
:10154000F6EC31F0320EF6EC31F04A0EF6EC31F0FA
:10155000060EE66EA70EE66E000E7DEC32F0B90EBA
:10156000E66EA60EE66E000E7DEC32F085EF2FF0F3
:101570006CEC2FF082E900017A5128E17B5109E0FF
:1015800044EC34F00001940E036FA00E046F000EC3
:1015900008D044EC34F000015A0E036FA10E046F22
:1015A000000E056F160E6AEC35F000EBE6FFE66AFA
:1015B000E66A90EC63F0E552E5CF08F034EC32F0E7
:1015C000000189EC2FF000EB7CF02DD000500601DB
:1015D000C85D21E00001816BAFEC6AF08B920401E1
:1015E000D06BD0510A0814E3D7EC30F00401D025B9
:1015F0000001066F076B086B89EC2FF0010EE66E99
:10160000E66AC3EC30F048EC30F00401D02BE9D7A7
:1016100000EBC8F608D0D7EC30F00A0F066F076B66
:10162000086B89EC2FF0010EE66EE66AC3EC30F031
:10163000E66A010EE66EC3EC30F0E66A020EE66E74
:10164000C3EC30F0E66A030EE66EC3EC30F085EFD3
:101650002FF00401D16B030ED15D07E2D151EAEC0A
:1016600031F0FE0EEF6ED12BF6D70001DB518BEC83
:1016700034F002E1765123E076510EE00401D251BC
:10168000D22B32080DE20601C92BC951050801E22F
:10169000C96B0401D26B04D0030EDB250601C96FB0
:1016A000E66AC9C6E6FF34EC00F042E9E66E0001E6
:1016B000DB51EAEC31F0E552E750EF6E1200DB51FE
:1016C000EAEC31F0EF6812006CEC2FF081E943E8AE
:1016D000026A00017B5104E1825102E1855102E07E
:1016E000030E69D2DB51016E75EC35F025EC34F058
:1016F000EE6AED6A010EE66E98EC30F075EC35F0AE
:10170000A2EC31F0EE50ED1006E01EEC31F00CE1F1
:10171000010EE66E05D01EEC31F006E0E66A010E21
:10172000E66EC9EC6AF042E9D950030FE66EDACFF3
:10173000E6FF47DA42E90001F651035C08E18B96C7
:10174000010E7B6F03EBE6FF13DF41E931D23BEC87
:1017500036F0C3EC0FF071EC33F00DE200510408E9
:10176000000E015508E206019A0ECA6F990ECB6F62
:10177000CC6F3E0E11D001508BEC34F007E0060127
:10178000CA6BCB6BC00ECC6F3F0E06D00601B3EC1C
:1017900030F003E022EC31F0CD6F000186516DE0B6
:1017A00088EC32F012EC32F005AF02D0066907691E
:1017B00099EC33F006E6D8802C0E0055010EC9ECEA
:1017C00030F014E28DBE25D0D4EC33F08DEC30F047
:1017D0008D8E0001806FF75107E0D60EE66E990EF0
:1017E000E66E000E7DEC32F08D8013D08DAE11D000
:1017F000D4EC33F037EC31F08D9E0001806BF75163
:1018000007E0BD0EE66E990EE66E000E7DEC32F03E
:101810008D8088EC32F012EC32F005AF02D0066910
:10182000076999EC33F006E6D880900E0055010E5A
:10183000C9EC30F012E28DB620D08DAE1ED0000182
:10184000010E876FF75107E0990EE66E990EE66E6E
:10185000000E7DEC32F08D8610D08DA60ED08DAEB0
:101860000CD00001876BF75107E0760EE66E990EFB
:10187000E66E000E7DEC32F08D96F5EC34F0C10E84
:1018800064EC34F004E60051025D0151035901E3B8
:101890008FD088EC32F0EECF04F0EFCF05F0C5EC3E
:1018A0002FF0410E6AEC34F034EC32F000010735D1
:1018B0000751051904E60651045D0751055901E376
:1018C00077D0025045E00001865142E00601CE513A
:1018D000CF1117E071EC34F00001F75112E030EC59
:1018E00033F001E0010E9BEC34F0A1EC33F0290E53
:1018F000E66E990EE66E000EB3EC2EF04DE98EEC1E
:1019000032F001501EEC2FF004013F0551E101506F
:1019100028EC34F00601CE51CF114AE0B3EC30F0A0
:1019200003E022EC31F0CD6F0001F7513DE030ECE7
:1019300033F001E0010E9BEC34F0A1EC33F0E20E49
:10194000E66E980EE66E000EB3EC2EF04DE923D055
:10195000015028EC34F001501EEC2FF00601CE515E
:10196000CF1126E0B3EC30F003E022EC31F0CD6F84
:101970000001F75119E030EC33F001E0010E9BEC6F
:1019800034F0EDEC30F08A0EE66E980EE66E000E46
:10199000B3EC2EF04FE98EEC32F0C70EE66E980EE7
:1019A000E66E000E7DEC32F00601CE6BCF6B8B96AF
:1019B000F5EC34F0410E64EC34F004E60051025DC5
:1019C0000151035948E24BEC33F022EC34F014E1BE
:1019D00075EC35F025EC34F0EE2AEF2271EC33F0A3
:1019E0000BE200510108000E015506E20601662BCC
:1019F000000E67236823692375EC35F0020E8DEC29
:101A000030F010EC35F004E1000101510601D1196C
:101A100022E088EC32F01AEC32F007AF02D008690D
:101A2000096932EC30F002E653EC31F014E20001C7
:101A3000F7510FE030EC33F001E0010E9BEC34F095
:101A400080EC33F03D0EE66E980EE66E000E7DECF7
:101A500032F03CEC35F0F5EC34F0C10E87EC30F0B0
:101A6000000103350351011904E60251005D0351E1
:101A700001592EE24BEC33F037EC31F010EC35F03D
:101A800004E1000101510601D11922E088EC32F095
:101A90001AEC32F007AF02D00869096932EC30F075
:101AA00002E653EC31F014E20001F7510FE030ECA4
:101AB00033F001E0010E9BEC34F080EC33F0260EA5
:101AC000E66E980EE66E000E7DEC32F03CEC35F0E2
:101AD00071EC33F00AE200510108000E015505E2F5
:101AE00075EC35F0050E8DEC30F075EC35F079ECD9
:101AF00030F001350AE200510208000E015505E2FE
:101B000075EC35F0090E8DEC30F001508BEC34F0B3
:101B100010E006010051010B0CE10051020B09E13C
:101B20000051040B06E1E66A98EC30F0000901E18F
:101B3000FBD50001865103E0876B8D9E806BE66AC2
:101B400098EC30F0000913E00001F75107E0D70EE0
:101B5000E66E970EE66E000E7DEC32F000018651C7
:101B600002E0AEEC31F0F0EC31F0040E24D00601CE
:101B70000051010B06E10051020B03E10051040B7F
:101B800019E00001F75107E0810EE66E970EE66E50
:101B9000000E7DEC32F00001865102E0AEEC31F037
:101BA000060100A105D000910001010E7B6F8B960C
:101BB000020E01D0000EF36EF46A44E9E7CFD9FFBC
:101BC00012006CEC2FF083E983380F0B0001F6153F
:101BD0000401D36F0001F6510401D35D42E100011D
:101BE000F6510601D25D03E0040EACEC2FF0B7EC29
:101BF00031F02EE10001F6510601D25D13E082ECD6
:101C000030F0070EEF6E78EC34F00401D451E66E3C
:101C1000E66A650EE66E970EE66E000EE6EC34F0B0
:101C20003DEC34F0000184510FE0440EE66E970E57
:101C3000E66E000EB3EC2EF0C0EC31F0F6C0D2F63A
:101C400082EC30F0070EEF6E0001846BF6514FD03E
:101C5000D45129EC31F0F00EE66E960EE66E000ED1
:101C60003FD0D3510601D25D3DE0030EE66E9FECFE
:101C70005FF041E9040EACEC2FF0B7EC31F028E155
:101C800082EC30F0D3C4EFFF78EC34F082EC30F02B
:101C9000EF5029EC31F0B10EE66E960EE66E000EB6
:101CA0001CEC35F082EC30F0EFCFD2F63DEC34F0A6
:101CB0000001845109E1920EE66E960EE66E000E6A
:101CC000B3EC2EF0C0EC31F00001010E846F0ED0A9
:101CD000D45129EC31F03F0EE66E960EE66E000E02
:101CE0001CEC35F082EC30F0D2C6EFFF000E85EF31
:101CF0002FF02DEC33F00AE10401D56B3EEC32F00D
:101D000001E3DB6B42EC35F0F9E0A3DC060100A354
:101D10001ED08B840401D56B3EEC32F001E3DB6B0B
:101D200042EC35F0F9E095DC30EC31F02D0EE66E4A
:101D3000960EE66E000EE6EC34F0120EE66E960E8F
:101D4000E66E000E7DEC32F08B940601009300519C
:101D5000010B08E1E66AC3EC31F000091BE0000169
:101D60007A5118E000017A5106E17B5102E0000E41
:101D700001D0010E7B6FA3EC32F0E80EE66E950EFB
:101D8000E66E000E7DEC32F000017A6B06010091E8
:101D90008B906BD004010F0566E0E66A48EC35F0E5
:101DA000000963E0010EE66EC3EC31F00001010EA4
:101DB0007A6F8B8004010F5129E155EC33F002E674
:101DC0007EEC34F023E20001010E7A6F8B90845197
:101DD00011E10601D32BC1EC2FF0080E0601D35DF3
:101DE00001E3D36B01EC35F0D00EE66E950EE66E96
:101DF000000E35D084EC34F001E3A16B15EC33F028
:101E0000A90EE66E950EE66E000E29D055EC33F065
:101E100002E67EEC34F025E20001010E7A6F8B9031
:101E2000845112E10601D307C1EC2FF0080E060120
:101E3000D35D02E3070ED36F01EC35F0920EE66E30
:101E4000950EE66E000E0BD084EC34F001E3A16B2E
:101E500015EC33F07B0EE66E950EE66E000E7DEC13
:101E600032F08B8002D0C1EC2FF000017A5102E0F9
:101E70008B8001D08B90855170E17B5102E18251C2
:101E80006AE01EEC31F006E0E66A010EE66EC9EC8F
:101E90006AF042E904011F0546E0E66A7CEC30F096
:101EA00000095BE08B8404011F511AE11B35000E11
:101EB0001B1909E6D880010E1855000E1955000EA1
:101EC0001A55000E1B550CE28AEC33F08DEC30F005
:101ED000E6EC32F03D0EE66E980EE66E000E20D077
:101EE000020E1F5D3AE118C4E6FF19C4E6FF1AC4EA
:101EF000E6FF1BC4E6FF58EC35F006E6D880010E7D
:101F00000055000EC9EC30F028E28AEC33F037ECD3
:101F100031F0E6EC32F0260EE66E980EE66E000E1C
:101F20007DEC32F01AD0000182510CE1DB5128EC3B
:101F300034F0EEEC34F0020E8DEC30F0DB511EECA0
:101F40002FF003D0DB5128EC34F0010EE66E7CEC70
:101F500030F08B9402D064EC0BF000017B5107E071
:101F6000E66A90EC34F00CE1010EE66E05D0E66A0C
:101F700090EC34F005E0E66AE66AC9EC6AF042E902
:101F80000601D351120029EC0BF08AC0FBFF89C077
:101F9000FAFF000188511400120029EC0BF0070E23
:101FA00000017C5D02E151EF11F07C51060A16E060
:101FB000030A16E0060A10E0010A0CE0060A08E02F
:101FC000050A04E0010A0CE103EF12F0B9EF11F089
:101FD00089EF12F07DEF11F04BEF12F02FEF13F0BD
:101FE0008AC0FBFF89C0FAFF8851140012006CEC14
:101FF0002FF082E947E8076A086AAFEC6AF000014F
:102000007B5104E105012C512D1102E0030E09D092
:102010000001806B0401355136113711381104E18C
:10202000020EF36EF46A72D0026A0250005C68E33A
:10203000CAEC32F00A0EE66ED70EE66E230EE66E9E
:102040003C0E4FEC2FF00BEC33F05AE1036A046ABC
:10205000056A066AD890065002E6C9EC31F00FE234
:10206000FA0EE66E7E0EE66E2A0EE66E3F0EA9ECC6
:1020700034F005E1D950030F4DEC30F0EBD7036A93
:10208000046A056A066AD890065002E6C9EC31F087
:102090000FE2FA0EE66E7E0EE66EAA0EE66E3E0EBB
:1020A000A9EC34F005E1D950030F4DEC30F0EBD73B
:1020B000660EE66EE66EE66E3F0E5CEC35F020E1F5
:1020C000CD0EE66ECC0EE66EE66E3D0E5CEC35F0A7
:1020D00017E1E66AE66AE66A3F0E5CEC35F010E16D
:1020E00006010051010B06E10051020B03E1005112
:1020F000040B04E0010E076E086A02D0022A95D78D
:10210000C2EC33F007EBF3FF08EBF4FF48E9E7CF4D
:10211000D9FF12006CEC2FF082E948E8086A096ADE
:10212000AFEC6AF000017B5104E105012C512D1147
:1021300004E0030EF36EF46A7CD00001806B026A47
:102140000050025C70E2036A030E035C6AE203EB78
:10215000DBF02DEC33F063E0CAEC32F0C7EC32F088
:10216000640EEE6EED6A0BEC33F05BE1046A056A17
:10217000066A076AD890075002E6D2EC31F00DE209
:10218000DBEC31F09A0E0027020EDDEC34F005E1B5
:10219000D950040F4DEC30F0EDD7046A056A066A99
:1021A000076AD890075002E6D2EC31F00DE2DBEC82
:1021B00031F04D0E0027010EDDEC34F005E1D95071
:1021C000040F4DEC30F0EDD7C7EC32F0840EEE6E1C
:1021D000030EED6EF9EC34F0C7EC32F0640EEE6EE7
:1021E000ED6AF9EC34F00250ABEC2EF00D0ED9ECA8
:1021F00034F07BEC33F0C7EC32F038EC33F0F9EC30
:1022000034F006010051010B06E10051020B03E11D
:102210000051040B04E0010E086E096A02D0032A83
:1022200093D7022A8DD7C2EC33F008EBF3FF09EB0A
:10223000F4FF49E9E7CFD9FF120029EC0BF00001C8
:102240007C51070A1AE0010A13E0030A0FE0060AAC
:102250000DE0010A0BE0060A05E0050A07E0010AA5
:102260000EE104D0030EE66EC2DE05D0020E01D0F0
:10227000040EE66E4FDF41E9120051EF11F0E8EF76
:1022800012F037DD0601D46FD40EE66E060EE66E50
:1022900098DC42E9D4C6E6FFB8EC0AF041E9C3EFA6
:1022A0000FF00001A15120E12DEC34F0270EE66E75
:1022B000950EE66E000E97EC34F0C4EC34F0F2ECC0
:1022C00030F0110EE66E950EE66E000E97EC34F0CF
:1022D000D3EC34F043EC32F0FB0EE66E940EE66E77
:1022E000000E97EC34F007D081EC35F0A9EC2FF01C
:1022F0008BEC32F045E9DEEF2FF00001A1511AE13D
:10230000D7EC2FF0E3EC30F0BC0EE66E940EE66EE8
:10231000000E48EC34F0C4EC34F09B0EE66E940EE4
:10232000E66E000EFDEC34F07E0EE66E940EE66E68
:10233000000E1DD0D6EC34F00CE0EBEC2EF020ECCF
:1023400035F0570EE66E940EE66E000EB3EC2EF0EE
:102350004DE901EC33F03D0EE66E940EE66E000E94
:10236000FDEC34F03D0EE66E940EE66E000E32EF9C
:1023700034F00001A15134E1D7EC2FF0E3EC30F060
:10238000140EE66E940EE66E000E48EC34F076EC19
:102390002FF074C5E6FF75C5E6FF72C5E6FF73C58D
:1023A000E6FFF2EC30F0EB0EE66E930EE66E000EFA
:1023B00048EC34F02DEC30F0B0C5E6FFB1C5E6FFD7
:1023C000AEC5E6FFAFC5E6FF43EC32F0C20EE66EE7
:1023D000930EE66E000EB3EC2EF0E4EC31F011D06B
:1023E000D6EC34F002E093EC32F0C8EC34F002E0CA
:1023F0009BEC32F0A2EC34F002E0BFEC32F033ECB4
:1024000033F043E912000001A15132E1D7EC2FF083
:1024100063EC30F0240EE66E930EE66E000E48EC90
:1024200034F0C4EC34F0F2EC30F00C0EE66E930EA7
:10243000E66E000E97EC34F02DEC30F0F1EC34F059
:10244000B0C5E6FFB1C5E6FF07EC33F0AEC5E6FF69
:10245000AFC5E6FFD7EC61F043EC32F0E30EE66E79
:10246000920EE66E000EB3EC2EF0E4EC31F011D0DB
:10247000D6EC34F002E093EC32F0C8EC34F002E039
:102480009BEC32F0A2EC34F002E0BFEC32F033EC23
:1024900033F043E912000001A15117E11AEC34F0C6
:1024A00076EC2FF0F1EC34F074C5E6FF75C5E6FF6D
:1024B00007EC33F072C5E6FF73C5E6FFD7EC61F0B9
:1024C000F2EC30F078EC35F009D081EC35F022EC0C
:1024D00032F002E09BEC32F025EC35F032EF34F0D4
:1024E0000001A15109E11AEC34F076EC2FF063EC15
:1024F00030F078EC35F00BD06EEC35F0C4EC34F005
:10250000D6EC34F002E093EC32F025EC35F032EF0B
:1025100034F00001A15149E114C5E6FF15C5E6FFFD
:1025200010C4E6FF11C4E6FF12C4E6FF13C4E6FFC1
:1025300029C4E6FF2AC4E6FF2BC4E6FF2CC4E6FF4D
:102540002DEC34F0830EE66E920EE66E000EB3ECC8
:102550002EF051E9C4EC34F0050101511DE00251A7
:10256000E66EE66A5C0EE66E920EE66E000E97EC84
:1025700034F0D3EC34F031C4E6FF32C4E6FF33C4A8
:10258000E6FF34C4E6FF3B0EE66E920EE66E000EEA
:10259000B3EC2EF049E906D092EC30F0FDEC34F0CB
:1025A0001AEC34F0CCEC34F011D0D6EC34F002E07C
:1025B0005FEC33F0C8EC34F002E0F6EC32F0A2EC61
:1025C00034F002E068EC33F033EC33F043E912000E
:1025D0000001A1511AE1B00EE66E910EE66E000EFA
:1025E00071EC35F0C4EC34F09A0EE66E910EE66EA6
:1025F000000EFDEC34F0840EE66E910EE66E000ED9
:1026000071EC35F0CCEC34F011D0D6EC34F002E0C3
:1026100093EC32F0C8EC34F002E09BEC32F0A2EC28
:1026200034F002E0BFEC32F033EC33F043E9120057
:102630006D0EE66E910EE66E000E71EC35F0C4EC98
:1026400034F0560EE66E910EE66E000EFDEC34F0A0
:102650003F0EE66E910EE66E000E32EF34F0000192
:10266000A15149E16EEC35F0640E0501D89089BFA7
:1026700003D0885D000E89590AE25DEC30F0200E2F
:10268000E66E910EE66E000EB3EC2EF047E9C4EC58
:1026900034F08DB20AD05DEC30F0F2EC30F0010E87
:1026A000E66E910EE66E000E09D057EC30F0F2ECBB
:1026B00030F0E20EE66E900EE66E000EB3EC2EF0F9
:1026C00049E9D3EC34F06EEC35F0640E0501D89096
:1026D00011BF03D0105D000E11590AE257EC30F023
:1026E000C40EE66E900EE66E000EB3EC2EF047E9D7
:1026F000CCEC34F011D0D6EC34F002E05FEC33F0E7
:10270000C8EC34F002E0F6EC32F0A2EC34F002E077
:1027100068EC33F033EC33F043E912006CEC2FF04B
:1027200082E942E8026A036A030ED89003BE03D02E
:10273000025C000E03581DE20050E66E02EBE9FF5A
:1027400003EBEAFF3C0EEA02F3CFEAFFE902F3CF24
:10275000E9FFF450EA26000EE926050EEA22A2EC73
:1027600031F0E552E750EE6EED6A022A000E0322C8
:10277000DBD743E9E7CFD9FF1200DBC0D6F4000175
:10278000DB6BEEEC34F0CFEC30F002E064EC0BF0FD
:102790003EEC32F0F6E3AFEC6AF0D6C4DBF0010EAB
:1027A000ACEF2FF0D9CFE6FFE1CFD9FF81E951E8B7
:1027B000E80E056E030E066E076A086A096A0A6A61
:1027C0000B6A0C6A580E0D6E106A116A0001816B5B
:1027D0003BEC36F03BEC36F0060100950001A16BB6
:1027E0007CC0E6FF66EC6BF041E90001855107E033
:1027F0008B9200017B6B0001806B91EF2AF0A00EA1
:10280000E66E900EE66E000EE66E73EC71F043E934
:10281000020E00017C5D06E1D00E056E070E066E0D
:10282000076A086A0001010E7B6F0501080503E1D4
:102830000001010E806FAFEC6AF0010EE66EE66AF1
:10284000E66AE66A50EC01F044E900017C5118E1C7
:10285000020EE66EE66AE66AE66A05EBE6FF06EB5E
:10286000E6FF07EBE6FF08EBE6FFF0EC63F0E5526E
:10287000E550086EE550076EE550066EE750056EB0
:10288000030E00017C5D18E1020EE66EE66AE66A60
:10289000E66A05EBE6FF06EBE6FF07EBE6FF08EB73
:1028A000E6FFF0EC63F0E552E550086EE550076E88
:1028B000E550066EE750056E050E00017C5D18E1DF
:1028C000020EE66EE66AE66AE66A05EBE6FF06EBEE
:1028D000E6FF07EBE6FF08EBE6FFF0EC63F0E552FE
:1028E000E550086EE550076EE550066EE750056E40
:1028F000E66A14DF41E9B2EC6AF0010EE66E05EB20
:10290000E6FF06EBE6FF07EBE6FF08EBE6FF4FEC22
:1029100002F045E9016A026A036A046A000186510D
:1029200002E07BEF1DF0060E00017C5D01E0C7D3E5
:102930000E6A0F6A0F3404E20E500108000E0F54A5
:1029400001E29DD2640E056E066A076A086A010EEE
:10295000E66E05EBE6FF06EBE6FF07EBE6FF08EBAE
:10296000E6FF4FEC02F045E9B2EC6AF0016A026A58
:10297000036A046A80C0E6FFB5EC6AF041E9D00E54
:10298000E66E070EE66EE66AE66A01EBE6FF02EB2C
:10299000E6FF03EBE6FF04EBE6FF80EC62F0E552B6
:1029A000E5CF03F0E5CF02F0E5CF01F0E7CF00F08F
:1029B0000001005101110211031101E0D8D00601FC
:1029C00000A52BD0AFEC6AF0010EE66EA7DE41E960
:1029D00095EC5FF0060EE66EE66AE66AE66A50EC93
:1029E00001F044E98B920001010E7B6F0001806BC6
:1029F00080C0E6FFB5EC6AF041E97CC0E6FF66EC1A
:102A00006BF041E9720EE66E900EE66E000EE66E19
:102A100073EC71F043E991EF2AF095EC2AF00EEB9C
:102A2000E6FF0FEBE6FF560EE66E900EE66E000E2A
:102A3000E66E000EE66E020EE66ED5EC70F047E92B
:102A4000010EE66EE66A9FC0E6FFB1EC00F043E9D6
:102A50000A0EE66EE66A88C5E6FF89C5E6FFD7EC92
:102A600061F02B0EE66E900EE66E000EE66E000E26
:102A7000E66E020EE66ED5EC70F047E9640E0501D5
:102A8000D89089BF03D0885D000E895916E20A0EDE
:102A9000E66EE66A88C5E6FF89C5E6FFD7EC61F019
:102AA0000C0EE66E900EE66E000EE66E000EE66E02
:102AB000020EE66ED5EC70F047E9010EE66E010EEF
:102AC000E66EE66AB1EC00F043E9E40EE66E8F0EC6
:102AD000E66E000EE66E000EE66E020EE66ED5ECB9
:102AE00070F045E9010EE66E020EE66EE66AB1ECA4
:102AF00000F043E90A0EE66EE66A10C5E6FF11C56E
:102B0000E6FFD7EC61F0B70EE66E8F0EE66E000EB4
:102B1000E66E000EE66E020EE66ED5EC70F047E94A
:102B2000640E0501D89011BF03D0105D000E11593D
:102B300016E20A0EE66EE66A10C5E6FF11C5E6FF6C
:102B4000D7EC61F0C40EE66E900EE66E000EE66EF7
:102B5000000EE66E020EE66ED5EC70F047E9010E4F
:102B6000E66E030EE66EE66AB1EC00F043E9D9507A
:102B7000010FE96EDACFEAFFEE2A000EEE22EE2216
:102B8000EE22E66A05EBE6FF06EBE6FF07EBE6FF63
:102B900008EBE6FF4FEC02F045E9000901E1EAD657
:102BA000640E0501D89089BF03D0885D000E895955
:102BB0000CE20501113504E210519008010E115587
:102BC00004E2010E0501666F676B640E0501D89083
:102BD00011BF03D0105D000E115903E20501646BB3
:102BE000656B010EE66E05EBE6FF06EBE6FF07EB15
:102BF000E6FF08EBE6FF4FEC02F045E9AFEC6AF0C8
:102C0000016A026A036A046A80C0E6FFB5EC6AF0F2
:102C100041E9D00EE66E070EE66EE66AE66A01EB63
:102C2000E6FF02EBE6FF03EBE6FF04EBE6FF80ECDA
:102C300062F0E552E5CF03F0E5CF02F0E5CF01F019
:102C4000E7CF00F00001005101110211031101E072
:102C5000D8D0060100A52BD0AFEC6AF0010EE66ECD
:102C60005DDD41E995EC5FF0060EE66EE66AE66A28
:102C7000E66A50EC01F044E98B920001010E7B6F93
:102C80000001806B80C0E6FFB5EC6AF041E97CC0D2
:102C9000E6FF66EC6BF041E9720EE66E900EE66EB2
:102CA000000EE66E73EC71F043E991EF2AF095ECBB
:102CB0002AF00EEBE6FF0FEBE6FF9C0EE66E8F0EA2
:102CC000E66E000EE66E000EE66E020EE66ED5ECC7
:102CD00070F047E9010EE66EE66A9FC0E6FFB1ECD0
:102CE00000F043E90A0EE66EE66A88C5E6FF89C58C
:102CF000E6FFD7EC61F02B0EE66E900EE66E000E4E
:102D0000E66E000EE66E020EE66ED5EC70F047E958
:102D1000640E0501D89089BF03D0885D000E8959E3
:102D200016E20A0EE66EE66A88C5E6FF89C5E6FF8A
:102D3000D7EC61F00C0EE66E900EE66E000EE66EBD
:102D4000000EE66E020EE66ED5EC70F047E9010E5D
:102D5000E66E010EE66EE66AB1EC00F043E9710E34
:102D6000E66E8F0EE66E000EE66E000EE66E020E4A
:102D7000E66ED5EC70F045E9010EE66E020EE66EE9
:102D8000E66AB1EC00F043E90A0EE66EE66A10C5A9
:102D9000E6FF11C5E6FFD7EC61F0B70EE66E8F0EC9
:102DA000E66E000EE66E000EE66E020EE66ED5ECE6
:102DB00070F047E9640E0501D89011BF03D0105D93
:102DC000000E115916E20A0EE66EE66A10C5E6FF1D
:102DD00011C5E6FFD7EC61F0C40EE66E900EE66E0C
:102DE000000EE66E000EE66E020EE66ED5EC70F09A
:102DF00047E9010EE66E030EE66EE66AB1EC00F0FE
:102E000043E9D950010FE96EDACFEAFFEE2A000E4E
:102E1000EE22EE22EE22E66A05EBE6FF06EBE6FF87
:102E200007EBE6FF08EBE6FF4FEC02F045E900098F
:102E300001E1EAD6640E0501D89011BF03D0105D00
:102E4000000E11590CE20501893504E28851900801
:102E5000010E895504E2010E0501646F656B640E75
:102E60000501D89089BF03D0885D000E895903E21F
:102E70000501666B676B0E2A000E0F225BD58B92E5
:102E800000017B6B0001806B05016451651105E059
:102E900005016651671101E007D10501425101E1C9
:102EA00003D106010095590E0D6E0DEB00F00001E7
:102EB000016B00BF016900C0E6FF01C0E6FF510ED3
:102EC000E66E8F0EE66E000EE66E000EE66E020EE9
:102ED000E66ED5EC70F047E9010EE66EE66A9FC03B
:102EE000E6FFB1EC00F043E9000EE66E020EE66E7E
:102EF000EFEC71F042E91C0EE66E9D0EE66E000EE0
:102F0000E66E73EC71F043E964C5E6FF65C5E6FF64
:102F100066C5E6FF67C5E6FF3A0EE66E8F0EE66E03
:102F2000000EE66E000EE66E020EE66ED5EC70F058
:102F300049E9010EE66E010EE66EE66AB1EC00F0BC
:102F400043E9000EE66E020EE66EEFEC71F042E928
:102F50001C0EE66E9D0EE66E000EE66E73EC71F0D2
:102F600043E9230EE66E8F0EE66E000EE66E000E4F
:102F7000E66E020EE66ED5EC70F045E9050166518D
:102F800067110DE1070EE66E8F0EE66E000EE66E1F
:102F9000000EE66E020EE66ED5EC70F045E9010E0D
:102FA000E66E020EE66EE66AB1EC00F043E9000E52
:102FB000E66E020EE66EEFEC71F042E91C0EE66E74
:102FC0009D0EE66E000EE66E73EC71F043E9230E83
:102FD000E66E8F0EE66E000EE66E000EE66E020ED8
:102FE000E66ED5EC70F045E90501645165110DE11F
:102FF000E90EE66E8E0EE66E000EE66E000EE66ED2
:10300000020EE66ED5EC70F045E9010EE66E030E99
:10301000E66EE66AB1EC00F043E9000EE66E020EE1
:10302000E66EEFEC71F042E91C0EE66E9D0EE66E68
:10303000000EE66E73EC71F043E9010EE66E010ED0
:10304000E66EC9EC6AF042E9020EE66E9FEC5FF0B4
:1030500041E90400060100A5F7D7E66A010EE66E15
:10306000C9EC6AF042E9AFEC6AF0010EE66E8EEC54
:1030700013F041E995EC5FF0060EE66EE66AE66A4B
:10308000E66A50EC01F044E98B920001010E7B6F7F
:103090000001806B80C0E6FFB5EC6AF041E97CC0BE
:1030A000E6FF66EC6BF041E9C30EE66E8E0EE66E4F
:1030B000000EE66E73EC71F043E991EF2AF0AFEC8D
:1030C0006AF0060EE66EE66AE66AE66A50EC01F021
:1030D00044E9A5EC6AF0010EE66EE66AE66AE66A85
:1030E00050EC01F044E9106A116AB2EC6AF0010E8A
:1030F000E66E05EBE6FF06EBE6FF07EBE6FF08EB07
:10310000E6FF4FEC02F045E99EEC35F080C0E6FFAB
:10311000B5EC6AF041E9D00EE66E070EE66EE66A9F
:10312000E66A01EBE6FF02EBE6FF03EBE6FF04EBEA
:10313000E6FF80EC62F0E552E5CF03F0E5CF02F068
:10314000E5CF01F0E7CF00F00001005101110211BD
:10315000031101E021D2BEEC35F0000901E1D2D02B
:10316000210EE96E060EEA6EEE500601155D0001B5
:10317000046FEE50060116590001056FEE5006016E
:1031800017590001066FEE50060118590001076F2C
:1031900004C0E6FF05C0E6FF06C0E6FF07C0E6FF85
:1031A000B8EC07F044E9FCC300F0FDC301F0FEC336
:1031B00002F0FFC303F000C0E6FF01C0E6FF02C05B
:1031C000E6FF03C0E6FF1D0EE96E060EEA6EEE5046
:1031D0000601115D00010C6FEE500601125900014D
:1031E0000D6FEE500601135900010E6FEE500601EF
:1031F000145900010F6F0CC0E6FF0DC0E6FF0EC0B2
:10320000E6FF0FC0E6FFB8EC07F044E9FCC308F0A6
:10321000FDC309F0FEC30AF0FFC30BF008C0E6FFD0
:1032200009C0E6FF0AC0E6FF0BC0E6FF190EE96E13
:10323000060EEA6EEE5006010D5D0001146FEE50B1
:1032400006010E590001156FEE5006010F590001DD
:10325000166FEE50060110590001176F14C0E6FFFB
:1032600015C0E6FF16C0E6FF17C0E6FFB8EC07F092
:1032700044E9FCC310F0FDC311F0FEC312F0FFC31C
:1032800013F010C0E6FF11C0E6FF12C0E6FF13C046
:10329000E6FFA60EE66E8E0EE66E000EE66E000EE1
:1032A000E66E020EE66ED5EC70F051E9000EE66EA9
:1032B000020EE66EEFEC71F042E906013D5120E0AE
:1032C00006013E511DE006013F511AE000017C510C
:1032D00003E0010E106E116A810EE66E8E0EE66E30
:1032E000000EE66E000EE66E020EE66ED5EC70F095
:1032F00045E9000EE66E020EE66EEFEC71F042E973
:103300009EEC35F0060100A52CD0AFEC6AF0010E62
:10331000E66E8EEC13F041E995EC5FF0060EE66E7A
:10332000E66AE66AE66A50EC01F044E98B92000135
:10333000010E7B6F0001806B80C0E6FFB5EC6AF088
:1033400041E97CC0E6FF66EC6BF041E9720EE66E87
:10335000900EE66E000EE66E73EC71F043E991EFAD
:103360002AF095EC2AF001EBE6FF02EBE6FF03EB17
:10337000E6FF04EBE6FF690EE66E8E0EE66E000ECB
:10338000E66E000EE66E020EE66ED5EC70F049E9D0
:10339000010EE66EE66A9FC0E6FFB1EC00F043E97D
:1033A000020E00017C5D3CE0E50EE66E940EE66EDA
:1033B000000EE66E000EE66E020EE66ED5EC70F0C4
:1033C00045E9050106512BE031C6E6FF32C6E6FFAE
:1033D00033C6E6FF34C6E6FF0A0EE66EE66A26C589
:1033E000E6FF27C5E6FFD7EC61F00A0EE66EE66A57
:1033F00036C5E6FF37C5E6FFD7EC61F010C5E6FF3E
:1034000011C5E6FF410EE66E8E0EE66E000EE66E0C
:10341000000EE66E020EE66ED5EC70F04FE92ED08F
:10342000050106512BE031C6E6FF32C6E6FF33C682
:10343000E6FF34C6E6FF0A0EE66EE66A26C5E6FF3C
:1034400027C5E6FFD7EC61F00A0EE66EE66A36C5E0
:10345000E6FF37C5E6FFD7EC61F010C5E6FF11C502
:10346000E6FF190EE66E8E0EE66E000EE66E000E9C
:10347000E66E020EE66ED5EC70F04FE9010EE66ED8
:10348000010EE66EE66AB1EC00F043E9E50EE66E89
:10349000940EE66E000EE66E000EE66E020EE66E0E
:1034A000D5EC70F045E9050142512BE035C6E6FF49
:1034B00036C6E6FF37C6E6FF38C6E6FF0A0EE66EFA
:1034C000E66A62C5E6FF63C5E6FFD7EC61F00A0E67
:1034D000E66EE66A72C5E6FF73C5E6FFD7EC61F0FB
:1034E0004CC5E6FF4DC5E6FFF10EE66E8D0EE66EAD
:1034F000000EE66E000EE66E020EE66ED5EC70F083
:103500004FE9010EE66E020EE66EE66AB1EC00F0DF
:1035100043E9E50EE66E940EE66E000EE66E000ED2
:10352000E66E020EE66ED5EC70F045E905017E51BF
:103530002BE039C6E6FF3AC6E6FF3BC6E6FF3CC6CF
:10354000E6FF0A0EE66EE66A9EC5E6FF9FC5E6FF49
:10355000D7EC61F00A0EE66EE66AAEC5E6FFAFC5CF
:10356000E6FFD7EC61F088C5E6FF89C5E6FFC90E26
:10357000E66E8D0EE66E000EE66E000EE66E020E34
:10358000E66ED5EC70F04FE9010EE66E030EE66EC6
:10359000E66AB1EC00F043E9D950010FE96EDACFE9
:1035A000EAFFEE2A000EEE22EE22EE22E66A05EB9C
:1035B000E6FF06EBE6FF07EBE6FF08EBE6FF4FEC66
:1035C00002F045E9000904E11050111001E19ED517
:1035D000AFEC6AF0060EE66EE66AE66AE66A50EC62
:1035E00001F044E9ACEC6AF0010EE66EE66AE66AC8
:1035F000E66A50EC01F044E9106A116A00017C515E
:1036000001E177D2B2EC6AF0010EE66E05EBE6FF5F
:1036100006EBE6FF07EBE6FF08EBE6FF4FEC02F0F8
:1036200045E9016A026A036A046A9EEC35F080C0CB
:10363000E6FFB5EC6AF041E9D00EE66E070EE66EE5
:10364000E66AE66A01EBE6FF02EBE6FF03EBE6FF64
:1036500004EBE6FF80EC62F0E552E5CF03F0E5CF46
:1036600002F0E5CF01F0E7CF00F0000100510111B9
:103670000211031101E021D2BEEC35F0000901E195
:10368000D2D0210EE96E060EEA6EEE500601155DEF
:103690000001046FEE50060116590001056FEE504F
:1036A000060117590001066FEE5006011859000176
:1036B000076F04C0E6FF05C0E6FF06C0E6FF07C0CF
:1036C000E6FFB8EC07F044E9FCC300F0FDC301F0ED
:1036D000FEC302F0FFC303F000C0E6FF01C0E6FF37
:1036E00002C0E6FF03C0E6FF1D0EE96E060EEA6E9D
:1036F000EE500601115D00010C6FEE5006011259EB
:1037000000010D6FEE500601135900010E6FEE50CF
:103710000601145900010F6F0CC0E6FF0DC0E6FF53
:103720000EC0E6FF0FC0E6FFB8EC07F044E9FCC3AB
:1037300008F0FDC309F0FEC30AF0FFC30BF008C098
:10374000E6FF09C0E6FF0AC0E6FF0BC0E6FF190E60
:10375000E96E060EEA6EEE5006010D5D0001146F73
:10376000EE5006010E590001156FEE5006010F597B
:103770000001166FEE50060110590001176F14C0BA
:10378000E6FF15C0E6FF16C0E6FF17C0E6FFB8EC7F
:1037900007F044E9FCC310F0FDC311F0FEC312F0C2
:1037A000FFC313F010C0E6FF11C0E6FF12C0E6FF32
:1037B00013C0E6FFA60EE66E8E0EE66E000EE66EF7
:1037C000000EE66E020EE66ED5EC70F051E9000ECA
:1037D000E66E020EE66EEFEC71F042E906013D5135
:1037E00020E006013E511DE006013F511AE00001B4
:1037F0007C5103E0010E106E116A810EE66E8E0E92
:10380000E66E000EE66E000EE66E020EE66ED5EC7B
:1038100070F045E9000EE66E020EE66EEFEC71F018
:1038200042E99EEC35F0060100A52CD0AFEC6AF021
:10383000010EE66E8EEC13F041E995EC5FF0060E9A
:10384000E66EE66AE66AE66A50EC01F044E98B92BD
:103850000001010E7B6F0001806B80C0E6FFB5ECBC
:103860006AF041E97CC0E6FF66EC6BF041E9720E5C
:10387000E66E900EE66E000EE66E73EC71F043E9B4
:1038800091EF2AF095EC2AF001EBE6FF02EBE6FF60
:1038900003EBE6FF04EBE6FFB20EE66E8D0EE66E7E
:1038A000000EE66E000EE66E020EE66ED5EC70F0CF
:1038B00049E9010EE66EE66A9FC0E6FFB1EC00F052
:1038C00043E9E50EE66E940EE66E000EE66E000E1F
:1038D000E66E020EE66ED5EC70F045E9020E0001D0
:1038E0007C5D2FE0050106512BE031C6E6FF32C6B4
:1038F000E6FF33C6E6FF34C6E6FF0A0EE66EE66A6A
:1039000026C5E6FF27C5E6FFD7EC61F00A0EE66E96
:10391000E66A36C5E6FF37C5E6FFD7EC61F010C5AD
:10392000E6FF11C5E6FF410EE66E8E0EE66E000E56
:10393000E66E000EE66E020EE66ED5EC70F04FE914
:103940002ED0050106512BE031C6E6FF32C6E6FF58
:1039500033C6E6FF34C6E6FF0A0EE66EE66A26C503
:10396000E6FF27C5E6FFD7EC61F00A0EE66EE66AD1
:1039700036C5E6FF37C5E6FFD7EC61F010C5E6FFB8
:1039800011C5E6FF190EE66E8E0EE66E000EE66EAF
:10399000000EE66E020EE66ED5EC70F04FE9010EF9
:1039A000E66E010EE66EE66AB1EC00F043E9E50E64
:1039B000E66E940EE66E000EE66E000EE66E020EE9
:1039C000E66ED5EC70F045E9050142512BE035C6B5
:1039D000E6FF36C6E6FF37C6E6FF38C6E6FF0A0E44
:1039E000E66EE66A62C5E6FF63C5E6FFD7EC61F006
:1039F0000A0EE66EE66A72C5E6FF73C5E6FFD7EC0F
:103A000061F04CC5E6FF4DC5E6FFF10EE66E8D0E8A
:103A1000E66E000EE66E000EE66E020EE66ED5EC69
:103A200070F04FE9010EE66E020EE66EE66AB1EC4A
:103A300000F043E9E50EE66E940EE66E000EE66ECB
:103A4000000EE66E020EE66ED5EC70F045E905015B
:103A50007E512BE039C6E6FF3AC6E6FF3BC6E6FFDD
:103A60003CC6E6FF0A0EE66EE66A9EC5E6FF9FC507
:103A7000E6FFD7EC61F00A0EE66EE66AAEC5E6FF39
:103A8000AFC5E6FFD7EC61F088C5E6FF89C5E6FF64
:103A9000C90EE66E8D0EE66E000EE66E000EE66E48
:103AA000020EE66ED5EC70F04FE9010EE66E030EE5
:103AB000E66EE66AB1EC00F043E9D950010FE96E19
:103AC000DACFEAFFEE2A000EEE22EE22EE22E66ABE
:103AD00005EBE6FF06EBE6FF07EBE6FF08EBE6FF8C
:103AE0004FEC02F045E9000904E11050111001E12A
:103AF0009ED591EF21F00401296B2A6B2B6B2C6B67
:103B000004012951096E2A510A6E2B510B6E2C515A
:103B10000C6EB2EC6AF0140EE66EE66AE66AE66ACD
:103B200050EC01F044E9016A026A036A046ADE0E9D
:103B3000015C030E0258000E0358000E045801E306
:103B4000E3D001EBE6FF02EBE6FF03EBE6FF04EB5D
:103B5000E6FFB20EE66E8D0EE66E000EE66E000E0D
:103B6000E66E020EE66ED5EC70F049E9010EE66EE7
:103B7000E66A9FC0E6FFB1EC00F043E9E50EE66EB1
:103B8000940EE66E000EE66E000EE66E020EE66E17
:103B9000D5EC70F045E90501065115E029C4E6FFB2
:103BA0002AC4E6FF2BC4E6FF2CC4E6FF900EE66EA7
:103BB0008D0EE66E000EE66E000EE66E020EE66EEE
:103BC000D5EC70F049E9010EE66E010EE66EE66A8C
:103BD000B1EC00F043E9E50EE66E940EE66E000EE1
:103BE000E66E000EE66E020EE66ED5EC70F045E96C
:103BF000010EE66E020EE66EE66AB1EC00F043E9F5
:103C0000010EE66E030EE66EE66AB1EC00F043E9E3
:103C1000010EE66EE66AE66AE66A50EC01F044E9F7
:103C2000190EE66EE66AE66AE66A01EBE6FF02EB6B
:103C3000E6FF03EBE6FF04EBE6FF80EC62F0E55203
:103C4000E5CF03F0E5CF02F0E5CF01F0E7CF00F0DC
:103C5000000100510111021103111CE1095004017E
:103C6000291908E10A502A1905E10B502B1902E124
:103C70000C502C1906E1E80E016E030E026E036A69
:103C8000046A04012951096E2A510A6E2B510B6EE8
:103C90002C510C6E060100A52CD0AFEC6AF0010E81
:103CA000E66E8EEC13F041E995EC5FF0060EE66EE1
:103CB000E66AE66AE66A50EC01F044E98B9200019C
:103CC000010E7B6F0001806B80C0E6FFB5EC6AF0EF
:103CD00041E97CC0E6FF66EC6BF041E9720EE66EEE
:103CE000900EE66E000EE66E73EC71F043E991EF14
:103CF0002AF0D950010FE96EDACFEAFFEE2A000E62
:103D0000EE22EE22EE2213D7AFEC6AF0060EE66E3C
:103D1000E66AE66AE66A50EC01F044E9A5EC6AF06E
:103D2000010EE66EE66AE66AE66A50EC01F044E9E6
:103D30000401296B2A6B2B6B2C6B04012951096E32
:103D40002A510A6E2B510B6E2C510C6EB2EC6AF09C
:103D5000140EE66EE66AE66AE66A50EC01F044E9A3
:103D6000016A026A036A046ADE0E015C030E0258ED
:103D7000000E0358000E045801E3E3D001EBE6FF08
:103D800002EBE6FF03EBE6FF04EBE6FF690EE66EEF
:103D90008E0EE66E000EE66E000EE66E020EE66E0B
:103DA000D5EC70F049E9010EE66EE66A9FC0E6FFC9
:103DB000B1EC00F043E9E50EE66E940EE66E000EFF
:103DC000E66E000EE66E020EE66ED5EC70F045E98A
:103DD0000501065115E029C4E6FF2AC4E6FF2BC4FD
:103DE000E6FF2CC4E6FF900EE66E8D0EE66E000E2A
:103DF000E66E000EE66E020EE66ED5EC70F049E956
:103E0000010EE66E010EE66EE66AB1EC00F043E9E3
:103E1000E50EE66E940EE66E000EE66E000EE66EA1
:103E2000020EE66ED5EC70F045E9010EE66E020E6C
:103E3000E66EE66AB1EC00F043E9010EE66E030EB1
:103E4000E66EE66AB1EC00F043E9010EE66EE66A62
:103E5000E66AE66A50EC01F044E9190EE66EE66A9D
:103E6000E66AE66A01EBE6FF02EBE6FF03EBE6FF3C
:103E700004EBE6FF80EC62F0E552E5CF03F0E5CF1E
:103E800002F0E5CF01F0E7CF00F000010051011191
:103E9000021103111CE109500401291908E10A501B
:103EA0002A1905E10B502B1902E10C502C1906E1DF
:103EB000E80E016E030E026E036A046A04012951C2
:103EC000096E2A510A6E2B510B6E2C510C6E060195
:103ED00000A52CD0AFEC6AF0010EE66E8EEC13F06C
:103EE00041E995EC5FF0060EE66EE66AE66AE66A80
:103EF00050EC01F044E98B920001010E7B6F000150
:103F0000806B80C0E6FFB5EC6AF041E97CC0E6FF5B
:103F100066EC6BF041E9720EE66E900EE66E000EF6
:103F2000E66E73EC71F043E991EF2AF0D950010F7E
:103F3000E96EDACFEAFFEE2A000EEE22EE22EE2242
:103F400013D729C435F42AC436F42BC437F42CC44F
:103F500038F4AFEC6AF000017B6B0001806B0A0E55
:103F6000E66ED70EE66E230EE66E3C0EE66E35C4A8
:103F7000E6FF36C4E6FF37C4E6FF38C4E6FF14ECBC
:103F800061F041EC64F07CEC61F0E552E5CF13F4B4
:103F9000E5CF12F4E5CF11F4E7CF10F464EC0BF0A9
:103FA000FA0EE66E7E0EE66E2A0EE66E3F0EE66EA8
:103FB00035C4E6FF36C4E6FF37C4E6FF38C4E6FF83
:103FC00014EC61F041EC64F07CEC61F0E552E5CF7B
:103FD00013F4E5CF12F4E5CF11F4E7CF10F4290E76
:103FE000E96E040EEA6EEE500401105D0001006FF0
:103FF000EE50040111590001016FEE5004011259F5
:104000000001026FEE50040113590001036F00011B
:10401000DB513C0DF3CFE9FFF4CFEAFF000EE926B8
:10402000050EEA220F0EE926000EEA22050EE92609
:10403000000EEA2200C0EEFF01C0EDFF64EC0BF0C1
:10404000FA0EE66E7E0EE66EAA0EE66E3E0EE66E88
:1040500035C4E6FF36C4E6FF37C4E6FF38C4E6FFE2
:1040600014EC61F041EC64F07CEC61F0E552E5CFDA
:1040700013F4E5CF12F4E5CF11F4E7CF10F4290ED5
:10408000E96E040EEA6EEE500401105D0001006F4F
:10409000EE50040111590001016FEE500401125954
:1040A0000001026FEE50040113590001036F00017B
:1040B000DB513C0DF3CFE9FFF4CFEAFF000EE92618
:1040C000050EEA220F0EE926000EEA22050EE92669
:1040D000000EEA2200C0EEFF01C0EDFF64EC0BF021
:1040E000660EE66E660EE66E660EE66E3F0EE66ED7
:1040F00035C4E6FF36C4E6FF37C4E6FF38C4E6FF42
:1041000014EC61F041EC64F07CEC61F0E552E5CF39
:1041100013F4E5CF12F4E5CF11F4E7CF10F4290E34
:10412000E96E040EEA6EEE500401105D0001006FAE
:10413000EE50040111590001016FEE5004011259B3
:104140000001026FEE50040113590001036F0001DA
:10415000DB513C0DF3CFE9FFF4CFEAFF000EE92677
:10416000050EEA220F0EE926000EEA22050EE926C8
:10417000000EEA2200C0EEFF01C0EDFF64EC0BF080
:10418000CD0EE66ECC0EE66ECC0EE66E3D0EE66E05
:1041900035C4E6FF36C4E6FF37C4E6FF38C4E6FFA1
:1041A00014EC61F041EC64F07CEC61F0E552E5CF99
:1041B00013F4E5CF12F4E5CF11F4E7CF10F4290E94
:1041C000E96E040EEA6EEE500401105D0001006F0E
:1041D000EE50040111590001016FEE500401125913
:1041E0000001026FEE50040113590001036F00013A
:1041F000DB513C0DF3CFE9FFF4CFEAFF000EE926D7
:10420000050EEA220F0EE926000EEA22050EE92627
:10421000000EEA2200C0EEFF01C0EDFF64EC0BF0DF
:10422000E66AE66AE66A3F0EE66E35C4E6FF36C425
:10423000E6FF37C4E6FF38C4E6FF14EC61F041EC5A
:1042400064F07CEC61F0E552E5CF13F4E5CF12F4B5
:10425000E5CF11F4E7CF10F4290EE96E040EEA6EF3
:10426000EE500401105D0001006FEE500401115981
:104270000001016FEE50040112590001026FEE506F
:10428000040113590001036F0001DB513C0DF3CF12
:10429000E9FFF4CFEAFF000EE926050EEA220F0E31
:1042A000E926000EEA22050EE926000EEA2200C0E9
:1042B000EEFF01C0EDFF64EC0BF0016A026A036AD5
:1042C000046A030E015C000E0258000E0358000E33
:1042D000045827E201EBE9FF02EBEAFF3C0EEA0299
:1042E000F3CFEAFF3C0EE902F3CFE9FFF450EA26F0
:1042F000000EE926050EEA220F0EE926000EEA223C
:104300001D0EE926000EEA22EE6AED6AD950010F71
:10431000E96EDACFEAFFEE2A000EEE22EE22EE225E
:10432000D0D7016A026A036A046A030E015C000EB8
:104330000258000E0358000E045802E352EF29F011
:1043400000017C5101E000D101EBE9FF02EBEAFF43
:104350003C0EEA02F3CFEAFF3C0EE902F3CFE9FF9D
:10436000F450EA26000EE926050EEA220F0EE92691
:10437000000EEA22090EE926000EEA22EECF00F036
:10438000EFCF01F001EBE9FF02EBEAFF3C0EEA029E
:10439000F3CFEAFF3C0EE902F3CFE9FFF450EA263F
:1043A000000EE926050EEA220F0EE926000EEA228B
:1043B0000B0EE926000EEA22EECF02F0EFCF03F05B
:1043C0000001013501510001031908E60001005107
:1043D0000001025D000101510001035935E201EBCA
:1043E000E9FF02EBEAFF3C0EEA02F3CFEAFF3C0EE4
:1043F000E902F3CFE9FFF450EA26000EE926050EA4
:10440000EA22060EE926000EEA22EF501DE001EB3B
:10441000E9FF02EBEAFF3C0EEA02F3CFEAFF3C0EB3
:10442000E902F3CFE9FFF450EA26000EE926050E73
:10443000EA220F0EE926000EEA221D0EE926000EE2
:10444000EA22010EEE6EED6A01EBE9FF02EBEAFFF4
:104450003C0EEA02F3CFEAFF3C0EE902F3CFE9FF9C
:10446000F450EA26000EE926050EEA220F0EE92690
:10447000000EEA22170EE926000EEA22EECF00F027
:10448000EFCF01F001EBE9FF02EBEAFF3C0EEA029D
:10449000F3CFEAFF3C0EE902F3CFE9FFF450EA263E
:1044A000000EE926050EEA220F0EE926000EEA228A
:1044B0000D0EE926000EEA22EECF02F0EFCF03F058
:1044C0000001033503510001011908E60001025102
:1044D0000001005D000103510001015935E201EBCB
:1044E000E9FF02EBEAFF3C0EEA02F3CFEAFF3C0EE3
:1044F000E902F3CFE9FFF450EA26000EE926050EA3
:10450000EA22060EE926000EEA22EF501DE001EB3A
:10451000E9FF02EBEAFF3C0EEA02F3CFEAFF3C0EB2
:10452000E902F3CFE9FFF450EA26000EE926050E72
:10453000EA220F0EE926000EEA221D0EE926000EE1
:10454000EA22010EEE6EED6A030E00017C5D01E0D1
:1045500000D101EBE9FF02EBEAFF3C0EEA02F3CFE8
:10456000EAFF3C0EE902F3CFE9FFF450EA26000E21
:10457000E926050EEA220F0EE926000EEA22090EB0
:10458000E926000EEA22EECF00F0EFCF01F001EBBA
:10459000E9FF02EBEAFF3C0EEA02F3CFEAFF3C0E32
:1045A000E902F3CFE9FFF450EA26000EE926050EF2
:1045B000EA220F0EE926000EEA220B0EE926000E73
:1045C000EA22EECF02F0EFCF03F0000101350151F6
:1045D0000001031908E6000100510001025D00011D
:1045E00001510001035935E201EBE9FF02EBEAFF5B
:1045F0003C0EEA02F3CFEAFF3C0EE902F3CFE9FFFB
:10460000F450EA26000EE926050EEA22060EE926F7
:10461000000EEA22EF501DE001EBE9FF02EBEAFF9A
:104620003C0EEA02F3CFEAFF3C0EE902F3CFE9FFCA
:10463000F450EA26000EE926050EEA220F0EE926BE
:10464000000EEA221D0EE926000EEA22010EEE6E91
:10465000ED6A01EBE9FF02EBEAFF3C0EEA02F3CF61
:10466000EAFF3C0EE902F3CFE9FFF450EA26000E20
:10467000E926050EEA220F0EE926000EEA22170EA1
:10468000E926000EEA22EECF00F0EFCF01F001EBB9
:10469000E9FF02EBEAFF3C0EEA02F3CFEAFF3C0E31
:1046A000E902F3CFE9FFF450EA26000EE926050EF1
:1046B000EA220F0EE926000EEA220D0EE926000E70
:1046C000EA22EECF02F0EFCF03F0000103350351F1
:1046D0000001011908E6000102510001005D00011E
:1046E00003510001015935E201EBE9FF02EBEAFF5A
:1046F0003C0EEA02F3CFEAFF3C0EE902F3CFE9FFFA
:10470000F450EA26000EE926050EEA22060EE926F6
:10471000000EEA22EF501DE001EBE9FF02EBEAFF99
:104720003C0EEA02F3CFEAFF3C0EE902F3CFE9FFC9
:10473000F450EA26000EE926050EEA220F0EE926BD
:10474000000EEA221D0EE926000EEA22010EEE6E90
:10475000ED6A050E00017C5D01E000D101EBE9FF8F
:1047600002EBEAFF3C0EEA02F3CFEAFF3C0EE9025D
:10477000F3CFE9FFF450EA26000EE926050EEA22FF
:104780000F0EE926000EEA22090EE926000EEA22A3
:10479000EECF00F0EFCF01F001EBE9FF02EBEAFF13
:1047A0003C0EEA02F3CFEAFF3C0EE902F3CFE9FF49
:1047B000F450EA26000EE926050EEA220F0EE9263D
:1047C000000EEA220B0EE926000EEA22EECF02F0DE
:1047D000EFCF03F00001013501510001031908E694
:1047E000000100510001025D000101510001035967
:1047F00035E201EBE9FF02EBEAFF3C0EEA02F3CF00
:10480000EAFF3C0EE902F3CFE9FFF450EA26000E7E
:10481000E926050EEA22060EE926000EEA22EF50EE
:104820001DE001EBE9FF02EBEAFF3C0EEA02F3CFE9
:10483000EAFF3C0EE902F3CFE9FFF450EA26000E4E
:10484000E926050EEA220F0EE926000EEA221D0EC9
:10485000E926000EEA22010EEE6EED6A01EBE9FF99
:1048600002EBEAFF3C0EEA02F3CFEAFF3C0EE9025C
:10487000F3CFE9FFF450EA26000EE926050EEA22FE
:104880000F0EE926000EEA22170EE926000EEA2294
:10489000EECF00F0EFCF01F001EBE9FF02EBEAFF12
:1048A0003C0EEA02F3CFEAFF3C0EE902F3CFE9FF48
:1048B000F450EA26000EE926050EEA220F0EE9263C
:1048C000000EEA220D0EE926000EEA22EECF02F0DB
:1048D000EFCF03F00001033503510001011908E691
:1048E000000102510001005D000103510001015966
:1048F00035E201EBE9FF02EBEAFF3C0EEA02F3CFFF
:10490000EAFF3C0EE902F3CFE9FFF450EA26000E7D
:10491000E926050EEA22060EE926000EEA22EF50ED
:104920001DE001EBE9FF02EBEAFF3C0EEA02F3CFE8
:10493000EAFF3C0EE902F3CFE9FFF450EA26000E4D
:10494000E926050EEA220F0EE926000EEA221D0EC8
:10495000E926000EEA22010EEE6EED6A00017C05EA
:1049600001E000D101EBE9FF02EBEAFF3C0EEA02B5
:10497000F3CFEAFF3C0EE902F3CFE9FFF450EA2659
:10498000000EE926050EEA220F0EE926000EEA22A5
:10499000090EE926000EEA22EECF00F0EFCF01F07B
:1049A00001EBE9FF02EBEAFF3C0EEA02F3CFEAFF7C
:1049B0003C0EE902F3CFE9FFF450EA26000EE926A7
:1049C000050EEA220F0EE926000EEA220B0EE9265A
:1049D000000EEA22EECF02F0EFCF03F00001013526
:1049E00001510001031908E6000100510001025DB8
:1049F000000101510001035935E201EBE9FF02EB2F
:104A0000EAFF3C0EEA02F3CFEAFF3C0EE902F3CFE5
:104A1000E9FFF450EA26000EE926050EEA22060E0A
:104A2000E926000EEA22EF501DE001EBE9FF02EB60
:104A3000EAFF3C0EEA02F3CFEAFF3C0EE902F3CFB5
:104A4000E9FFF450EA26000EE926050EEA220F0ED1
:104A5000E926000EEA221D0EE926000EEA22010ECA
:104A6000EE6EED6A01EBE9FF02EBEAFF3C0EEA02B3
:104A7000F3CFEAFF3C0EE902F3CFE9FFF450EA2658
:104A8000000EE926050EEA220F0EE926000EEA22A4
:104A9000170EE926000EEA22EECF00F0EFCF01F06C
:104AA00001EBE9FF02EBEAFF3C0EEA02F3CFEAFF7B
:104AB0003C0EE902F3CFE9FFF450EA26000EE926A6
:104AC000050EEA220F0EE926000EEA220D0EE92657
:104AD000000EEA22EECF02F0EFCF03F00001033523
:104AE00003510001011908E6000102510001005DB7
:104AF000000103510001015935E201EBE9FF02EB2E
:104B0000EAFF3C0EEA02F3CFEAFF3C0EE902F3CFE4
:104B1000E9FFF450EA26000EE926050EEA22060E09
:104B2000E926000EEA22EF501DE001EBE9FF02EB5F
:104B3000EAFF3C0EEA02F3CFEAFF3C0EE902F3CFB4
:104B4000E9FFF450EA26000EE926050EEA220F0ED0
:104B5000E926000EEA221D0EE926000EEA22010EC9
:104B6000EE6EED6A01EBE9FF02EBEAFF3C0EEA02B2
:104B7000F3CFEAFF3C0EE902F3CFE9FFF450EA2657
:104B8000000EE926050EEA220F0EE926000EEA22A3
:104B90001D0EE926000EEA22EE50ED1001E0BFD115
:104BA00001EBE9FF02EBEAFF3C0EEA02F3CFEAFF7A
:104BB0003C0EE902F3CFE9FFF450EA26000EE926A5
:104BC000050EEA220F0EE926000EEA22190EE9264A
:104BD000000EEA22010EEE6EED6A01EBE9FF02EB38
:104BE000EAFF3C0EEA02F3CFEAFF3C0EE902F3CF04
:104BF000E9FFF450EA26000EE926050EEA220F0E20
:104C0000E926000EEA221B0EE926000EEA22010E1A
:104C1000EE6EED6A01EBE9FF02EBEAFF3C0EEA0201
:104C2000F3CFEAFF3C0EE902F3CFE9FFF450EA26A6
:104C3000000EE926050EEA220D0EE926000EEA22F4
:104C4000EECF00F0EFCF01F001EBE9FF02EBEAFF5E
:104C50003C0EEA02F3CFEAFF3C0EE902F3CFE9FF94
:104C6000F450EA26000EE926050EEA220F0EE92688
:104C7000000EEA22290EE926000EEA2200C0EEFF0D
:104C800001C0EDFF01EBE9FF02EBEAFF3C0EEA0297
:104C9000F3CFEAFF3C0EE902F3CFE9FFF450EA2636
:104CA000000EE926050EEA22060EE926000EEA228B
:104CB000EF5001E133D1020E00017C5D04E0580E9B
:104CC00001240D6E02D0410E0D6E0DEB00F00001BF
:104CD000016B00BF016900C0E6FF01C0E6FF640E82
:104CE000E66E8D0EE66E000EE66E000EE66E020EAD
:104CF000E66ED5EC70F047E9000EE66E020EE66E49
:104D0000EFEC71F042E901EBE9FF02EBEAFF3C0E48
:104D1000EA02F3CFEAFF3C0EE902F3CFE9FFF450D9
:104D2000EA26000EE926050EEA220F0EE926000EFD
:104D3000EA220B0EE926000EEA22EECFE6FFEECFC6
:104D4000E6FF01EBE9FF02EBEAFF3C0EEA02F3CFDC
:104D5000EAFF3C0EE902F3CFE9FFF450EA26000E29
:104D6000E926050EEA220F0EE926000EEA22090EB8
:104D7000E926000EEA22EECFE6FFEECFE6FF4E0E6A
:104D8000E66E8D0EE66E000EE66E000EE66E020E0C
:104D9000E66ED5EC70F049E9000EE66E020EE66EA6
:104DA000EFEC71F042E91C0EE66E9D0EE66E000E11
:104DB000E66E73EC71F043E901EBE9FF02EBEAFF09
:104DC0003C0EEA02F3CFEAFF3C0EE902F3CFE9FF23
:104DD000F450EA26000EE926050EEA220F0EE92617
:104DE000000EEA220D0EE926000EEA22EECFE6FFC3
:104DF000EECFE6FF01EBE9FF02EBEAFF3C0EEA0231
:104E0000F3CFEAFF3C0EE902F3CFE9FFF450EA26C4
:104E1000000EE926050EEA220F0EE926000EEA2210
:104E2000170EE926000EEA22EECFE6FFEECFE6FFF0
:104E3000380EE66E8D0EE66E000EE66E000EE66E25
:104E4000020EE66ED5EC70F049E9000EE66E020E39
:104E5000E66EEFEC71F042E91C0EE66E9D0EE66E1A
:104E6000000EE66E73EC71F043E901EBE9FF02EB33
:104E7000EAFF3C0EEA02F3CFEAFF3C0EE902F3CF71
:104E8000E9FFF450EA26000EE926050EEA220F0E8D
:104E9000E926000EEA220F0EE926000EEA22EECFE6
:104EA000E6FFEECFE6FF01EBE9FF02EBEAFF3C0E87
:104EB000EA02F3CFEAFF3C0EE902F3CFE9FFF45038
:104EC000EA26000EE926050EEA220F0EE926000E5C
:104ED000EA22150EE926000EEA22EECFE6FFEECF1B
:104EE000E6FF240EE66E8D0EE66E000EE66E000EF8
:104EF000E66E020EE66ED5EC70F049E9000EE66E45
:104F0000020EE66EEFEC71F042E91C0EE66E9D0EAD
:104F1000E66E000EE66E73EC71F043E9B7D101EB7B
:104F2000E9FF02EBEAFF3C0EEA02F3CFEAFF3C0E98
:104F3000E902F3CFE9FFF450EA26000EE926050E58
:104F4000EA22060EE926000EEA22EF5001E19ED188
:104F500006010095020E00017C5D04E0580E01245C
:104F60000D6E02D0410E0D6E0DEB00F00001016BD5
:104F700000BF016900C0E6FF01C0E6FF0E0EE66E4D
:104F80008D0EE66E000EE66E000EE66E020EE66E0A
:104F9000D5EC70F047E9010EE66EE66A9FC0E6FFC9
:104FA000B1EC00F043E9000EE66E020EE66EEFECA7
:104FB00071F042E91C0EE66E9D0EE66E000EE66E86
:104FC00073EC71F043E901EBE9FF02EBEAFF3C0E01
:104FD000EA02F3CFEAFF3C0EE902F3CFE9FFF45017
:104FE000EA26000EE926050EEA220F0EE926000E3B
:104FF000EA220B0EE926000EEA22EECFE6FFEECF04
:10500000E6FF01EBE9FF02EBEAFF3C0EEA02F3CF19
:10501000EAFF3C0EE902F3CFE9FFF450EA26000E66
:10502000E926050EEA220F0EE926000EEA22090EF5
:10503000E926000EEA22EECFE6FFEECFE6FFF80EFD
:10504000E66E8C0EE66E000EE66E000EE66E020E4A
:10505000E66ED5EC70F049E9010EE66E010EE66EE3
:10506000E66AB1EC00F043E9000EE66E020EE66E71
:10507000EFEC71F042E91C0EE66E9D0EE66E000E3E
:10508000E66E73EC71F043E901EBE9FF02EBEAFF36
:105090003C0EEA02F3CFEAFF3C0EE902F3CFE9FF50
:1050A000F450EA26000EE926050EEA220F0EE92644
:1050B000000EEA220D0EE926000EEA22EECFE6FFF0
:1050C000EECFE6FF01EBE9FF02EBEAFF3C0EEA025E
:1050D000F3CFEAFF3C0EE902F3CFE9FFF450EA26F2
:1050E000000EE926050EEA220F0EE926000EEA223E
:1050F000170EE926000EEA22EECFE6FFEECFE6FF1E
:10510000E20EE66E8C0EE66E000EE66E000EE66EA9
:10511000020EE66ED5EC70F049E9010EE66E020E65
:10512000E66EE66AB1EC00F043E9000EE66E020EB0
:10513000E66EEFEC71F042E91C0EE66E9D0EE66E37
:10514000000EE66E73EC71F043E901EBE9FF02EB50
:10515000EAFF3C0EEA02F3CFEAFF3C0EE902F3CF8E
:10516000E9FFF450EA26000EE926050EEA220F0EAA
:10517000E926000EEA220F0EE926000EEA22EECF03
:10518000E6FFEECFE6FF01EBE9FF02EBEAFF3C0EA4
:10519000EA02F3CFEAFF3C0EE902F3CFE9FFF45055
:1051A000EA26000EE926050EEA220F0EE926000E79
:1051B000EA22150EE926000EEA22EECFE6FFEECF38
:1051C000E6FF240EE66E8D0EE66E000EE66E000E15
:1051D000E66E020EE66ED5EC70F049E9010EE66E61
:1051E000030EE66EE66AB1EC00F043E9000EE66EEF
:1051F000020EE66EEFEC71F042E91C0EE66E9D0EBB
:10520000E66E000EE66E73EC71F043E9010EE66E99
:10521000010EE66EC9EC6AF042E9020E00017C5D07
:1052200004E0580E01240D6E02D0410E0D6E0DEB00
:1052300000F00001016B00BF016900C0E6FF01C082
:10524000E6FFB60EE66E8C0EE66E000EE66E000E03
:10525000E66E020EE66ED5EC70F047E9000EE66EE3
:10526000020EE66EEFEC71F042E9020EE66E9FEC84
:105270005FF041E90400060100A5F7D7E66A010ED8
:10528000E66EC9EC6AF042E995EC5FF0D950010F87
:10529000E96EDACFEAFFEE2A000EEE22EE22EE22CF
:1052A00095EF21F0AFEC6AF0060EE66EE66AE66A6C
:1052B000E66A50EC01F044E98B9200017B6B00013F
:1052C000806B95EC5FF00001865101E01BD1016A13
:1052D000026A036A046A050EE66E9FEC5FF041E91C
:1052E000A10EE66E8C0EE66E000EE66E000EE66E09
:1052F000020EE66ED5EC70F045E9010EE66EE66A48
:105300009FC0E6FFB1EC00F043E9060100A57FD0A5
:105310008F808C0EE66E8C0EE66E000EE66E000E32
:10532000E66E020EE66ED5EC70F045E9010EE66E13
:10533000E66A9FC0E6FFB1EC00F043E9060EE66EB8
:10534000E66AE66AE66A50EC01F044E995EC5FF043
:10535000E50EE66E940EE66E000EE66E000EE66E4C
:10536000020EE66ED5EC70F045E9010EE66EE66AD7
:10537000E66AB1EC00F043E9E50EE66E940EE66EE7
:10538000000EE66E000EE66E020EE66ED5EC70F0D4
:1053900045E9010EE66E010EE66EE66AB1EC00F03C
:1053A00043E9E50EE66E940EE66E000EE66E000E24
:1053B000E66E020EE66ED5EC70F045E9010EE66E83
:1053C000020EE66EE66AB1EC00F043E9E50EE66E29
:1053D000940EE66E000EE66E000EE66E020EE66EAF
:1053E000D5EC70F045E9010EE66E030EE66EE66A56
:1053F000B1EC00F043E9020EE66E8AEC10F041E9F0
:10540000A00E016E860E026E010E036E046A040089
:10541000060106010051040B1DE1D950010FE96E90
:10542000DACFEAFFEFCF00F0EE2A000EEFCF01F067
:10543000EE22EFCF02F0EE22EFCF03F0EF22E80EE4
:105440000001005D030E0159000E0259000E0359C0
:1054500001E246D7E50EE66E940EE66E000EE66EAD
:10546000000EE66E020EE66ED5EC70F045E9010E18
:10547000E66EE66AE66AB1EC00F043E9E50EE66E38
:10548000940EE66E000EE66E000EE66E020EE66EFE
:10549000D5EC70F045E9010EE66E010EE66EE66AA7
:1054A000B1EC00F043E9E50EE66E940EE66E000EF8
:1054B000E66E000EE66E020EE66ED5EC70F045E983
:1054C000010EE66E020EE66EE66AB1EC00F043E90C
:1054D000E50EE66E940EE66E000EE66E000EE66ECB
:1054E000020EE66ED5EC70F045E9010EE66E030E95
:1054F000E66EE66AB1EC00F043E995EC5FF0BDECD6
:1055000013F000D000017B6B0001806B95EC5FF025
:10551000C30EE66E8E0EE66E000EE66E73EC71F054
:1055200043E952E9E7CFD9FF12003BEC36F0000126
:105530008B5150E0ECC4E6FFEDC4E6FFEAC4E6FFA1
:10554000EBC4E6FFE8C4E6FFE9C4E6FFFFEC33F096
:10555000DBEC33F0EDEC33F0570EE66E8C0EE66EBE
:10556000000EB3EC2EF0E7EC31F008EC34F0E4EC94
:1055700033F0F6EC33F0340EE66E8C0EE66E000E71
:10558000F2DB51E98EEC32F090C5E6FF91C5E6FF03
:105590008AC5E6FF8BC5E6FF60EC35F054C5E6FF33
:1055A00055C5E6FF4EC5E6FF4FC5E6FFD2EC30F02D
:1055B00018C5E6FF19C5E6FF12C5E6FF13C5E6FFED
:1055C00020EC35F0F60EE66E8B0EE66E000ECBDBB1
:1055D000E7EC31F012000601C80EA76F48EC30F07E
:1055E000FBEC31F027E02B0EE66E09EC70F041E9A0
:1055F000FBEC31F0FDE148EC30F02B0EE66E09ECEF
:1056000070F041E9FBEC31F0FDE10C0EE66E7AEC56
:1056100072F041E9FBEC31F0FDE1010EE66E7AEC4F
:1056200072F041E948EC30F00001010EF56F06011F
:10563000180EA76F12000001806B120EE66E220E8C
:10564000E66EF7EC6EF042E9E10EE66E8B0EE66E6A
:10565000000EE66E000EE66E020EE66ED5EC70F001
:1056600045E9010EE66EE66AE66AB1EC00F043E950
:10567000010EE66E010EE66EE66AB1EC00F043E95B
:10568000010EE66E020EE66EE66AB1EC00F043E94A
:10569000010EE66E030EE66EE66AB1EC00F043E939
:1056A000120EE66E220EE66EA8EC6FF042E98F90C5
:1056B00092DF8B68FCAE15D0FC9E1C0EE66E9D0E34
:1056C000E66E000EE66E73EC71F043E9A4EC03F0B5
:1056D000BC0EE66E8B0EE66E000EE66E73EC71F09D
:1056E00043E9FCAC15D0FC9C1C0EE66E9D0EE66EEC
:1056F000000EE66E73EC71F043E9A4EC03F0920E39
:10570000E66E8B0EE66E000EE66E73EC71F043E90A
:105710000001735114E01C0EE66E9D0EE66E000E45
:10572000E66E73EC71F043E9A4EC03F0690EE66EEB
:105730008B0EE66E000EE66E73EC71F043E900012D
:10574000745114E01C0EE66E9D0EE66E000EE66EC1
:1057500073EC71F043E9A4EC03F0400EE66E8B0E9F
:10576000E66E000EE66E73EC71F043E9140EE66E21
:10577000E66A280EE66E8B0EE66E000EE66E000EF2
:10578000E66E020EE66EC3EC6EF047E9010EE66EC1
:10579000E66AE66AB1EC00F043E9170EE66E9D0E8C
:1057A000E66E000EE66E73EC71F043E9140EE66EE1
:1057B000E66A9CC0E6FF9DC0E6FF9EC0E6FF000EC5
:1057C000E66E020EE66EC3EC6EF047E9010EE66E81
:1057D000010EE66EE66AB1EC00F043E9000EE66EFB
:1057E000020EE66EEFEC71F042E9150EE66E9D0ECC
:1057F000E66E000EE66E73EC71F043E9140EE66E91
:10580000E66A99C0E6FF9AC0E6FF9BC0E6FF000E7D
:10581000E66E020EE66EC3EC6EF047E9000EE66E31
:10582000020EE66EEFEC71F042E9010EE66E020E3A
:10583000E66EE66AB1EC00F043E9140EE66EE66A45
:10584000FF0EE66E9C0EE66E000EE66E000EE66E35
:10585000020EE66EC3EC6EF047E9000EE66E020E35
:10586000E66EEFEC71F042E91C0EE66E9D0EE66E00
:10587000000EE66E73EC71F043E9010EE66E030E66
:10588000E66EE66AB1EC00F043E9A4EC03F0090E21
:10589000E66E8B0EE66E000EE66E73EC71F043E979
:1058A00083A20CD00001010E8B6FF10EE66E8A0E02
:1058B000E66E000EE66E73EC71F043E983A039D01A
:1058C000A4EC03F0D80EE66E8A0EE66E000EE66ECD
:1058D00073EC71F043E9000EE66EE66A000EE66EC8
:1058E000E66A010EE66EE66AD3EC6DF046E9A4ECDA
:1058F00003F0BB0EE66E8A0EE66E000EE66E73ECEB
:1059000071F043E90601D66B0F0E0601D65D11E278
:10591000080EE66EE66A0601D651E66EE66A0F0EDE
:10592000E66E7F0EE66ED3EC6DF046E90601D62BEF
:10593000EBD7A4EC03F09B0EE66E8A0EE66E000E2B
:10594000E66E73EC71F043E9000EE66EE66A000E57
:10595000E66EE66A05EC6EF044E959080CE1000ECB
:10596000E66EE66A020EE66EE66A05EC6EF044E963
:105970000601D56F22D0A4EC03F0780EE66E8A0EF5
:10598000E66E000EE66E73EC71F043E9000EE66E13
:10599000E66A000EE66EE66A010EE66EE66AD3EC93
:1059A0006DF046E9A4EC03F0580EE66E8A0EE66E42
:1059B000000EE66E73EC71F043E9A4EC03F03F0EC9
:1059C000E66E8A0EE66E000EE66E73EC71F043E949
:1059D000080EE66EE66A000EE66EE66A05EC6EF00C
:1059E00044E959081FE10601D66B0F0E0601D65D8A
:1059F00018E20601D651E66EE66A0A0EE66EE66A1F
:105A000005EC6EF044E9E66E0601D651EA6AE40F51
:105A1000E96E000EEA22E552E750EF6E0601D62B42
:105A2000E4D734D0A4EC03F0230EE66E8A0EE66EC3
:105A3000000EE66E73EC71F043E90601D66B0F0EB3
:105A40000601D65D18E2080EE66EE66A0601D6513A
:105A5000E66EE66A0F0EE66E0601D651EA6AE40FBC
:105A6000E96E000EEA22EFCFE6FFD3EC6DF046E9D7
:105A70000601D62BE4D7A4EC03F00A0EE66E8A0EDC
:105A8000E66E000EE66E73EC71F043E983A403D07A
:105A900048EC0AF0FFD775EC43F0A4EC03F0F10EEC
:105AA000E66E890EE66E000EE66E73EC71F043E969
:105AB000050EE66EE66AE66AE66A50EC01F044E935
