:020000040000FA
:0600000061EF74F0120034
:020006001200E6
:0600080040EF58F0120069
:02000E00C250DE
:08001000020B01E0010E1200D9
:06001800D4EF5EF01200BF
:02001E000700D9
:100020003BE90000F9040000010000002CEA000098
:10003000F30400000200000028EA0000FB020000B8
:10004000040000008FE9000060000000990000003B
:100050007DE90000EA030000120000007BE90000D7
:10006000FE0600000200000048E90000C205000092
:040070003300000059
:0C00740022EC2DF083E941E80150050862
:1000800001E2016A005003E070EC2EF0EF6A01EB30
:10009000C7F50001B80E036F9B0E046F000E056FCD
:1000A000B0EC2EF0E5CF08F0EDEC2FF0000162ECA3
:1000B00031F070EC2EF0EFCF09F00A6B0B6B0051B2
:1000C0000925F36E01510A21F46E02510B21F86EDD
:1000D000F4CFF7FFF3CFF6FF0800F550036E70EC96
:1000E0002EF0EF2AEFCF00F0016B026BD6EC31F06F
:1000F00002C0E6FFB80E096F9B0E0A6F000E0B6F71
:10010000B0EC2EF0E5CF0EF0E5CF0DF0E7CF0CF020
:10011000000109510C25066F0A510D21076F0B5183
:100120000E21086F13EC33F0E66E4BEC6EF043E9F2
:10013000E552E7CF02F0E552E7CF01F0E552E7CF15
:1001400000F0FCC303F0FDC304F0FEC305F00001A2
:100150000351005D045101590551025903E370EC4C
:100160002EF0EF6A035042E9E7CFD9FF120022ECEC
:100170002DF084E90001F6514FE0005021E00250DB
:1001800001240501C86FFBEC31F02B0EE66E9A0ED0
:10019000E66E000EE66E68EC2DF09EEC6EF047E920
:1001A000FBEC31F0D5EC32F0050168EC2DF070EC91
:1001B0006EF046E905014DEC31F0140EF0EC2EF036
:1001C0000150030A0CE0010A08E0030A04E0010AF6
:1001D00009E1E66A08D0400E03D0140E01D0540E97
:1001E000E66E01D0E66AEDEC71F041E901500001E4
:1001F000A0250501C86F00016A510EE0B4EC2FF094
:10020000FDE1050168EC2DF01CEC73F042E9B4EC63
:100210002FF0FDE1010E901639EF2DF000016E5127
:1002200004E0B8EC41F000016E6B725107E0726BB4
:10023000F85102E0000E01D0010EF86F755104E094
:1002400023EC11F00001756B685103E0A7DA00019F
:10025000686B715104E001EC07F00001716B6F51A4
:1002600003E0BDDA00016F6B1200D9CFE6FFE1CFEA
:10027000D9FF85E90401776B786B796B7A6B0401A0
:100280007751005C78510158795102587A510358DE
:1002900009E3000004000401772B000E7823792382
:1002A0007A23EDD741E9E7CFD9FF1200D9CFE6FF96
:1002B000E1CFD9FF85E9030EE66E29EC6DF041E947
:1002C00091C67BF492C67CF493C67DF494C67EF40A
:1002D00075EC6DF0D9CFE9FFDACFEAFF04017B516D
:1002E000EE240401836F04017C51EE200401846F2D
:1002F00004017D51EE200401856F04017E51EE2042
:100300000401866F030EE66E29EC6DF041E991C69B
:100310007FF492C680F493C681F494C682F475EC9F
:100320006DF004007F0EE96E040EEA6E0401835145
:10033000EE5C8451EE588551EE588651EE58E2E35A
:1003400041E9E7CFD9FF120032EC31F019E05AEC65
:100350002DF091C687F492C688F493C689F494C6AA
:100360008AF499EC2DF004018751EE248F6F8851A7
:10037000EE20906F8951EE20916F8A51EE20926F9E
:100380005AEC2DF091C68BF492C68CF493C68DF482
:1003900094C68EF475EC6DF08B0EE96E040EEA6E69
:1003A00004018F51EE5C9051EE589151EE589251EC
:1003B000EE5802E2000E01D0010E39EF2DF032ECC2
:1003C00031F019E05AEC2DF091C693F492C694F4F2
:1003D00093C695F494C696F499EC2DF004019351CC
:1003E000EE249B6F9451EE209C6F9551EE209D6FF3
:1003F0009651EE209E6F5AEC2DF091C697F492C65E
:1004000098F493C699F494C69AF475EC6DF0970E2F
:10041000E96E040EEA6E04019B51EE5C9C51EE58AD
:100420009D51EE589E51EE5802E2000E01D0010E91
:1004300039EF2DF032EC31F019E05AEC2DF091C685
:100440009FF492C6A0F493C6A1F494C6A2F499ECCA
:100450002DF004019F51EE24A76FA051EE20A86F4C
:10046000A151EE20A96FA251EE20AA6F5AEC2DF0F7
:1004700091C6A3F492C6A4F493C6A5F494C6A6F4B8
:1004800075EC6DF0A30EE96E040EEA6E0401A7513F
:10049000EE5CA851EE58A951EE58AA51EE5802E26E
:1004A000000E01D0010E39EF2DF032EC31F019E0E1
:1004B0005AEC2DF091C6ABF492C6ACF493C6ADF4F1
:1004C00094C6AEF499EC2DF00401AB51EE24B36F59
:1004D000AC51EE20B46FAD51EE20B56FAE51EE20B1
:1004E000B66F5AEC2DF091C6AFF492C6B0F493C635
:1004F000B1F494C6B2F475EC6DF0AF0EE96E040E73
:10050000EA6E0401B351EE5CB451EE58B551EE58A9
:10051000B651EE5802E2000E01D0010E39EF2DF077
:1005200032EC31F019E05AEC2DF091C6B7F492C6D6
:10053000B8F493C6B9F494C6BAF499EC2DF004015A
:10054000B751EE24BF6FB851EE20C06FB951EE2005
:10055000C16FBA51EE20C26F5AEC2DF091C6BBF4B8
:1005600092C6BCF493C6BDF494C6BEF475EC6DF0AF
:10057000BB0EE96E040EEA6E0401BF51EE5CC05181
:10058000EE58C151EE58C251EE5802E2000E01D0B1
:10059000010E39EF2DF032EC31F019E05AEC2DF06C
:1005A00091C6C3F492C6C4F493C6C5F494C6C6F407
:1005B00099EC2DF00401C351EE24CB6FC451EE2011
:1005C000CC6FC551EE20CD6FC651EE20CE6F5AECE8
:1005D0002DF091C6C7F492C6C8F493C6C9F494C668
:1005E000CAF475EC6DF0C70EE96E040EEA6E0401F4
:1005F000CB51EE5CCC51EE58CD51EE58CE51EE5869
:1006000002E2000E01D0010E39EF2DF000000401CE
:10061000CF6B0501C2510401CF5D04E2000004016B
:10062000CF2BF7D712000F0EE66E7AEC73F041E98C
:100630001200050EE66E7AEC73F041E9120022EC2E
:100640002DF082E96CA2FED700EBE6FF12EC74F00D
:1006500041E939EF2DF0050E63EF2DF000016A51ED
:1006600001E11200B4EC2FF0FDE1120022EC2DF0BC
:1006700089E903340EE202500808000E035409E22F
:1006800004EBFCF305EBFDF306EBFEF307EBFFF3E6
:100690005FD00050011009E000018F0E926FC20E72
:1006A000936F750E946F3D0E06D00001926B936BA5
:1006B000800E946F3E0E956FE2EC30F092C0E6FF34
:1006C00093C0E6FF94C0E6FF95C0E6FFEDEC32F084
:1006D000E2EC30F004EBE6FF05EBE6FF06EBE6FFAD
:1006E00007EBE6FF9EEC63F01EEC5FF09EEC63F020
:1006F000EDEC32F020EC5FF020EC62F0E552E5CF5B
:1007000099F0E5CF98F0E5CF97F0E7CF96F048EC79
:100710002DF096C0EEFF97C0EEFF98C0EEFF99C097
:10072000EEFF001C0DE1011C0BE10001966B976BC5
:10073000986B996B48EC2DF0EE6AEE6AEE6AEE6A01
:1007400096C0FCF397C0FDF398C0FEF399C0FFF389
:1007500039EF2DF004004DC6E6FF4EC6E6FF4FC64A
:10076000E6FF50C6E6FF66DB44E9F3CFE6FFF4CFD1
:10077000E6FF240EE66E9A0EE66E000EE66E200E82
:10078000E66E030EE66EB0EC70F047E9200EE66E02
:10079000030EE66ECAEC71F042E91200DBDFCD0E0B
:1007A000E66EA50EE66E000E36EC30F00401236B0B
:1007B000040123510AE10A0EAEEC30F056DD44E9A3
:1007C000F4EC33F0E5EC5EF0F3D7020E235DC2DF0C
:1007D0002B0EE66EA60EE66E000E36EF30F004002D
:1007E000210EE66E9A0EE66E000EE66E000EE66EC6
:1007F000020EE66EB0EC70F045E9000EE66E020EF9
:10080000E66ECAEC71F042E9A5DF1C0EE66E9A0EA8
:10081000E66E000EE66E4EEC71F043E99DC0E6FF19
:100820009EC0E6FF9FC0E6FF000EE66E020EE66E7B
:1008300032EC6EF045E9000EE66E020EE66ECAEC92
:1008400071F042E91A0EE66E9A0EE66E000EE66E42
:100850004EEC71F043E99AC0E6FF9BC0E6FF9CC0F6
:10086000E6FF000EE66E020EE66E32EC6EF045E933
:10087000000EE66E020EE66ECAEC71F042E9040E5E
:10088000E66E9A0EE66E000EE66E000EE66E020E44
:10089000E66E32EC6EF045E9000EE66E020EE66E94
:1008A000CAEC71F042E900018351E66EE66A00018C
:1008B0006051E66EE66A59C6E6FF5AC6E6FF5BC6B9
:1008C000E6FF5CC6E6FF55C6E6FF56C6E6FF57C61E
:1008D000E6FF58C6E6FF43C6E6FF44C6E6FF00C68D
:1008E000E6FF01C6E6FF02C6E6FF03C6E6FF835049
:1008F000800B01E0010EE66EE66A8350400B01E0DA
:10090000010EE66EE66A8350200B01E0010EE66EF2
:10091000E66A8350100B01E0010EE66EE66A835032
:10092000080B01E0010EE66EE66A8350040B01E05D
:10093000010EE66EE66A8350020B01E0010EE66EE0
:10094000E66A8350010BE66EE66A00016351E66ECB
:10095000E66A750EE66E990EE66E000EE66E000E05
:10096000E66E020EE66EB0EC70F069E9000EE66E1F
:10097000020EE66ECAEC71F042E90601A551E66E80
:10098000E66A7850E66EE66A69C6E6FF6AC6E6FF82
:100990006BC6E6FF6CC6E6FF4DC6E6FF4EC6E6FF39
:1009A0004FC6E6FF50C6E6FF91C6E6FF92C6E6FFD9
:1009B00093C6E6FF94C6E6FFDAEC61F091C6E6FF67
:1009C00092C6E6FF93C6E6FF94C6E6FF8DC6E6FF35
:1009D0008EC6E6FF8FC6E6FF90C6E6FF51C6E6FF6D
:1009E00052C6E6FF53C6E6FF54C6E6FF49C6E6FF19
:1009F0004AC6E6FF4BC6E6FF4CC6E6FF61C6E6FF09
:100A000062C6E6FF63C6E6FF64C6E6FF89C6E6FF88
:100A10008AC6E6FF8BC6E6FF8CC6E6FF85C6E6FF04
:100A200086C6E6FF87C6E6FF88C6E6FF6DC6E6FF18
:100A30006EC6E6FF6FC6E6FF70C6E6FF4DC6E6FF70
:100A40004EC6E6FF4FC6E6FF50C6E6FFB60EE66EA0
:100A5000980EE66E000EE66E000EE66E020EE66E74
:100A6000B0EC70F075E9000EE66E020EE66ECAECB0
:100A700071F042E929C4E6FF2AC4E6FF2BC4E6FF71
:100A80002CC4E6FF65C6E6FF66C6E6FF67C6E6FF5E
:100A900068C6E6FF71C6E6FF72C6E6FF73C6E6FFEC
:100AA00074C6E6FF75C6E6FF76C6E6FF77C6E6FFC4
:100AB00078C6E6FF79C6E6FF7AC6E6FF7BC6E6FFA4
:100AC0007CC6E6FF7DC6E6FF7EC6E6FF7FC6E6FF84
:100AD00080C6E6FF570EE66E980EE66E000EE66ED6
:100AE000000EE66E020EE66EB0EC70F05DE9000EF0
:100AF000E66E020EE66ECAEC71F042E90401D06BBC
:100B0000030E0401D05D01E36ED10401D051400D0C
:100B1000F3CFE9FFF4CFEAFF000EE926050EEA2243
:100B2000060EE926000EEA22EF5001E159D1040138
:100B3000D051400DF3CFE9FFF4CFEAFF000EE926D4
:100B4000050EEA220F0EE926000EEA221B0EE92608
:100B5000000EEA22EECFE6FFEECFE6FF0401D05111
:100B6000400DF3CFE9FFF4CFEAFF000EE926050EB2
:100B7000EA220F0EE926000EEA22190EE926000EDF
:100B8000EA22EECFE6FFEECFE6FF0401D051400DA2
:100B9000F3CFE9FFF4CFEAFF000EE926050EEA22C3
:100BA0000F0EE926000EEA222D0EE926000EEA229B
:100BB000EECFE6FFEECFE6FF0401D051400DF3CFBC
:100BC000E9FFF4CFEAFF000EE926050EEA220F0E38
:100BD000E926000EEA222B0EE926000EEA22EECFCD
:100BE000E6FFEECFE6FF0401D051400DF3CFE9FF61
:100BF000F4CFEAFF000EE926050EEA220F0EE926E1
:100C0000000EEA22090EE926000EEA22EECFE6FFE8
:100C1000EECFE6FF0401D051400DF3CFE9FFF4CF52
:100C2000EAFF000EE926050EEA220F0EE926000E65
:100C3000EA22150EE926000EEA22EECFE6FFEECFFD
:100C4000E6FF0401D051400DF3CFE9FFF4CFEAFFF6
:100C5000000EE926050EEA220F0EE926000EEA2212
:100C6000170EE926000EEA22EECFE6FFEECFE6FFF2
:100C70000401D051400DF3CFE9FFF4CFEAFF000E9D
:100C8000E926050EEA220F0EE926000EEA22050EDD
:100C9000E926000EEA22EECFE6FFEECFE6FF0401E2
:100CA000D051400DF3CFE9FFF4CFEAFF000EE92663
:100CB000050EEA220F0EE926000EEA22030EE926AF
:100CC000000EEA22EECFE6FFEECFE6FF0401D051A0
:100CD000400DF3CFE9FFF4CFEAFF000EE926050E41
:100CE000EA220F0EE926000EEA22EE52EECFE6FFD0
:100CF000EECFE6FF0401D051E66EE66ADF0EE66E47
:100D0000970EE66E000EE66E000EE66E020EE66EC2
:100D1000B0EC70F05BE9000EE66E020EE66ECAEC17
:100D200071F042E9E66AE66A7A0EE66E440EE66E15
:100D30000401D051400DF3CFE9FFF4CFEAFF000EDC
:100D4000E926050EEA220F0EE926000EEA22230EFE
:100D5000E926000EEA22EECFE6FFEECFE6FFEECF69
:100D6000E6FFEECFE6FF9EEC63F096EC60F0E66AFD
:100D7000E66A7A0EE66E440EE66E0401D051400D2E
:100D8000F3CFE9FFF4CFEAFF000EE926050EEA22D1
:100D90000F0EE926000EEA22270EE926000EEA22AF
:100DA000EECFE6FFEECFE6FFEECFE6FFEECFE6FFBB
:100DB0009EEC63F096EC60F0BE0EE66E970EE66E6B
:100DC000000EE66E000EE66E020EE66EB0EC70F0FF
:100DD00049E9000EE66E020EE66ECAEC71F042E9D9
:100DE0000401D02B8DD60001F85109E0A60EE66E65
:100DF000970EE66E000EE66E4EEC71F043E90400CD
:100E00001200D40EE66EA60EE66E000E36EC30F042
:100E10001E0EE66EA70EE66E000E36EC30F00001F8
:100E2000F85107E0A60EE66E970EE66E000E36EC61
:100E300030F0120022EC2DF002EC2FF002E216EC62
:100E40002FF000EBD1F501EBD2F502EBD3F503EB7C
:100E5000D4F577EC2EF0BAEC2EF0E5CFCCF5E5CF5B
:100E6000CBF5E5CFCAF5E7CFC9F577EC2EF01FEC4F
:100E70002FF059EC31F0AEEC2DF0CDEC2EF0BAECB9
:100E80002EF0E5CFD0F5E5CFCFF5E5CFCEF5E7CF26
:100E9000CDF5CDEC2EF028EC2FF059EC31F0AEEC86
:100EA0002DF0FFEC31F0E66E28EC2FF01FEC2FF068
:100EB000940EE66E970EE66E000EBCEC2FF051E934
:100EC00087EF31F022EC2DF002EC2FF002E216EC6D
:100ED0002FF000EBDDF501EBDEF502EBDFF503EBC8
:100EE000E0F577EC2EF0C1EC2EF0E5CFD8F5E5CFAC
:100EF000D7F5E5CFD6F5E7CFD5F577EC2EF031EC89
:100F00002FF059EC31F0C7EC2DF0CDEC2EF0C1EC08
:100F10002EF0E5CFDCF5E5CFDBF5E5CFDAF5E7CF71
:100F2000D9F5CDEC2EF03AEC2FF059EC31F0C7ECBE
:100F30002DF03AEC2FF031EC2FF0880EE66E970E84
:100F4000E66E000EBCEC2FF04DE987EF31F022EC9D
:100F50002DF083E901340EE300EB00F001EB01F02A
:100F60000001006D011F000E012300C0F3FF01C04E
:100F7000F4FF02D0F3EC2EF039EF2DF022EC2DF03F
:100F800085E9033413E3E668E668E668E668DFECC3
:100F90002FF003EBE6FF59EC31F000C0FCF301C089
:100FA000FDF302C0FEF303C0FFF308D000EBFCF337
:100FB00001EBFDF302EBFEF303EBFFF339EF2DF052
:100FC0006CEC31F0F2EC32F078EC2CF043EC2FF0DA
:100FD000800EE66E970EE66E000E06EF32F06CECB9
:100FE00031F0C7EC32F043EC2FF0780EE66E970E3E
:100FF000E66E000E06EF32F0F3EC31F002E32D0E58
:10100000916FA7EC2DF071EC60F0C5EC2CF0C7EC03
:1010100032F09BEC30F013EC2DF0D890000103512E
:10102000000A08E6DC0E005D050E0159000E0259AB
:10103000000E035917E29BEC30F013EC2DF057EC47
:101040002EF091C004F00001056B04BF0569F2ECBD
:101050002FF0720EE66E970EE66E000E25EC2EF067
:101060004BE934D0E66AE66A7A0EE66E440E91ECFD
:101070002DF0C5EC2CF0F2EC32F00BEC32F0E3C0CA
:10108000E6FFE66E13EC2DF057EC2EF09BEC30F003
:1010900075DF44E9FCC304F0FDC305F0FEC306F0B0
:1010A000FFC307F057EC2EF091C008F00001096B68
:1010B00008BF096908C0E6FF09C0E6FF650EE66ED5
:1010C000970EE66E000E25EC2EF04FE9F3EC2EF0B5
:1010D00039EF2DF0F3EC31F002E32D0E916FE66A5B
:1010E000E66A200EE66E410E74EC31F071EC60F0B1
:1010F00020EC62F0E552E5CFCAF0E5CFC9F0E5CFCC
:10110000C8F0E7CFC7F049EC2FF0F9EC30F0200E33
:10111000E66E410EE66E49EC2FF0F8EC32F00A0E66
:101120000BEC32F0C3EC2FF018EC33F0C3EC2FF0E3
:1011300091C000F00001016B00BF0169D6EC31F0F5
:101140005B0EE66E970EE66E000E25EC2EF04BE978
:10115000F3EC2EF039EF2DF022EC2DF085E95AEC6E
:101160002DF003500001006F016B01354AE2005180
:10117000FA08000E015545E2FF0EF8EC2EF00AE1E8
:10118000F45008E10001775101E183D175EC6DF075
:10119000010E82D1FE0EF8EC2EF009E1F45007E1C9
:1011A00075EC6DF0000130EC2DF0040E27D0FD0E33
:1011B000F8EC2EF009E1F45007E10001010E776F21
:1011C00075EC6DF0FD0E68D1FC0EF8EC2EF008E128
:1011D000F45006E10001776B75EC6DF0FC0E5CD10C
:1011E000FB0EF8EC2EF00DE1F4500BE10001776BF3
:1011F00075EC6DF0000130EC2DF0050EDBEC31F0FC
:101200004BD10001775101E144D10001FF510008A9
:1012100001E33FD1FF0730EC2DF0040E97EC32F0E4
:10122000EFCFE2F5AAEC03F0DFEC2FF04EEC71F01B
:1012300043E9000130EC2DF0A1EC2DF0FF51E66EFA
:10124000E66A490EE66E970EE66E000EDAEC32F0B4
:101250000501E16BE151E12BE25D07E1AF0EE66EC6
:10126000A90EE66E000E36EC30F027EC2DF007E10B
:10127000CF0EE66EA90EE66E000E36EC30F027ECCF
:101280002DF007E1FF0EE66EA90EE66E000E36ECBD
:1012900030F027EC2DF007E1220EE66EAA0EE66E86
:1012A000000E36EC30F027EC2DF007E1450EE66E2F
:1012B000AA0EE66E000E36EC30F027EC2DF007E1BA
:1012C000760EE66EAA0EE66E000E36EC30F027ECD7
:1012D0002DF007E1AA0EE66EAA0EE66E000E36ECC1
:1012E00030F027EC2DF007E1DF0EE66EAA0EE66E79
:1012F000000E36EC30F027EC2DF007E1180EE66E0C
:10130000AB0EE66E000E36EC30F027EC2DF007E168
:10131000460EE66EAB0EE66E000E36EC30F027ECB5
:101320002DF007E16D0EE66EA90EE66E000E36ECAE
:1013300030F027EC2DF007E18D0EE66EA90EE66E7B
:10134000000E36EC30F027EC2DF007E19D0EE66E36
:10135000A80EE66E000E36EC30F027EC2DF007E11B
:10136000760EE66EAB0EE66E000E36EC30F027EC35
:101370002DF007E1B70EE66EAB0EE66E000E36EC12
:1013800030F027EC2DF007E1DD0EE66EAB0EE66ED9
:10139000000E36EC30F027EC2DF007E1030EE66E80
:1013A000AC0EE66E000E36EC30F027EC2DF007E1C7
:1013B0002F0EE66EAC0EE66E000E36EC30F027EC2B
:1013C0002DF007E1470EE66EAC0EE66E000E36EC31
:1013D00030F027EC2DF007E15E0EE66EAC0EE66E07
:1013E000000E36EC30F027EC2DF007E1020EE66E31
:1013F000B00EE66E000E36EC30F027EC2DF007E173
:10140000400EE66EB00EE66E000E36EC30F027ECC5
:101410002DF007E15F0EE66EB00EE66E000E36ECC4
:1014200030F027EC2DF007E18B0EE66EAC0EE66E89
:10143000000E36EC30F00501E151D880E25517E29C
:10144000E2510001006F016BFA0ED89001BF03D08A
:10145000005D000E01590BE20501E251E66EE66AFD
:101460002F0EE66E970EE66E000EA4EC32F0000131
:10147000FF5102E10001776B000130EC2DF0050E09
:10148000F0EC2EF030EC2DF0EE6AEE6AEE6AEE6AC9
:10149000BCD675EC6DF0000E39EF2DF00001010E99
:1014A000666F83A449D0F4EC33F0640EAEEC30F0F8
:1014B00004C6E6FF05C6E6FF06C6E6FF07C6E6FF6A
:1014C000DAEC61F060EC2EF0B5DC44E9F3CFE6FF36
:1014D000F4CFE6FF150EE66E970EE66E000E69EC91
:1014E0002CF04BE9010EE66EE66AE6EC2FF0E66EB4
:1014F000E6EC2FF0020E41EC30F060EC2EF052ECF6
:101500002FF0DAEC61F052EC2FF060EC2EF0F50EDB
:10151000E66E960EE66E000E69EC2CF051E9010EB7
:10152000E66E030E41EC30F0880EE66E130E12EC00
:1015300032F0E5EC5EF0B5D70001666B120022ECEC
:101540002DF083E91B0EAFEC2FF05B0EAFEC2FF00C
:10155000320EAFEC2FF04A0EAFEC2FF0C00EE66E5D
:10156000A50EE66E000E36EC30F0730EE66EA50E9C
:10157000E66E000E36EC30F039EF2DF022EC2DF057
:1015800082E900017A5103E0070E005C28E17B51FB
:1015900009E0FBEC31F00001C20E036F9D0E046FF9
:1015A000000E08D0FBEC31F000014E0E036F9F0ED1
:1015B000046F000E056F160E2FEC33F000EBE6FF04
:1015C000E66AE66AEDEC62F0E552E5CF08F0EDEC94
:1015D0002FF000013DEC2DF000EB7CF02DD0005001
:1015E0000501E35D21E00001816B72EC6CF08B92F0
:1015F0000401D16BD1510A0814E390EC2EF00401E0
:10160000D1250001066F076B086B3DEC2DF0010E34
:10161000E66EE66A7CEC2EF0FBEC2DF00401D12B9B
:10162000E9D700EBE3F508D090EC2EF00A0F066F37
:10163000076B086B3DEC2DF0010EE66EE66A7CEC64
:101640002EF0E66A010EE66E7CEC2EF0E66A020EE3
:10165000E66E7CEC2EF0E66A030EE66E7CEC2EF075
:1016600039EF2DF00401D26B030ED25D07E2D251A7
:10167000A3EC2FF0FE0EEF6ED22BF6D70001DC515B
:1016800041EC32F002E1765123E076510EE00401A4
:10169000D351D32B32080DE20501E42BE4510508A8
:1016A00001E2E46B0401D36B04D0030EDC250501D9
:1016B000E46FE66AE4C5E6FF3AEC00F042E9E66E64
:1016C0000001DC51A3EC2FF0E552E750EF6E120061
:1016D000DC51A3EC2FF0EF68120022EC2DF081E931
:1016E00043E8026A00017B5104E1825102E1855125
:1016F00002E0030E69D2DC51016E33EC33F0DEEC14
:1017000031F0EE6AED6A010EE66E4EEC2EF033EC2F
:1017100033F05BEC2FF0EE50ED1006E0D7EC2EF03E
:101720000CE1010EE66E05D0D7EC2EF006E0E66A7D
:10173000010EE66E8CEC6CF042E9D950030FE66EB8
:10174000DACFE6FF47DA42E90001F751035C08E12E
:101750008B96010E7B6F03EBE6FF10DF41E931D280
:10176000F4EC33F0F3EC0FF02DEC31F00DE200511E
:101770000408000E015508E205019A0EE56F990E66
:10178000E66FE76F3E0E11D0015041EC32F007E0FA
:101790000501E56BE66BC00EE76F3F0E06D0050155
:1017A00069EC2EF003E0DBEC2EF0E86F00018651CF
:1017B0006DE03BEC30F0CBEC2FF005AF02D00669CA
:1017C000076955EC31F006E6D8802C0E0055010E65
:1017D00082EC2EF014E28DBE25D090EC31F040EC7E
:1017E0002EF08D8E0001806FF85107E0DB0EE66E63
:1017F000960EE66E000E36EC30F08D8013D08DAE76
:1018000011D090EC31F0F0EC2EF08D9E0001806B49
:10181000F85107E0C20EE66E960EE66E000E36EC4C
:1018200030F08D803BEC30F0CBEC2FF005AF02D0E8
:101830000669076955EC31F006E6D880900E005530
:10184000010E82EC2EF012E28DB620D08DAE1ED0AD
:101850000001010E876FF85107E09E0EE66E960EAE
:10186000E66E000E36EC30F08D8610D08DA60ED0D0
:101870008DAE0CD00001876BF85107E07B0EE66E51
:10188000960EE66E000E36EC30F08D96B3EC32F02C
:10189000C10E17EC32F004E60051025D015103590C
:1018A00001E38FD03BEC30F0EECF04F0EFCF05F04A
:1018B0007CEC2DF0410E1DEC32F0EDEC2FF0000130
:1018C00007350751051904E60651045D075105590E
:1018D00001E377D0025045E00001865142E0050166
:1018E000E951EA1117E024EC32F00001F85112E05E
:1018F000ECEC30F001E0010E55EC32F05DEC31F033
:101900002E0EE66E960EE66E000E69EC2CF04DE99A
:1019100047EC30F00150D4EC2CF004013F0551E1CC
:101920000150E1EC31F00501E951EA114AE069ECBE
:101930002EF003E0DBEC2EF0E86F0001F8513DE003
:10194000ECEC30F001E0010E55EC32F05DEC31F0E2
:10195000E70EE66E950EE66E000E69EC2CF04DE992
:1019600023D00150E1EC31F00150D4EC2CF0050112
:10197000E951EA1126E069EC2EF003E0DBEC2EF0F1
:10198000E86F0001F85119E0ECEC30F001E0010ED5
:1019900055EC32F0A6EC2EF08F0EE66E950EE66E4C
:1019A000000E69EC2CF04FE947EC30F0CC0EE66EFF
:1019B000950EE66E000E36EC30F00501E96BEA6B31
:1019C0008B96B3EC32F0410E17EC32F004E6005186
:1019D000025D0151035948E207EC31F0DBEC31F0D4
:1019E00014E133EC33F0DEEC31F0EE2AEF222DEC93
:1019F00031F00BE200510108000E015506E206012C
:101A0000652B000E66236723682333EC33F0020E48
:101A100040EC2EF0CEEC32F004E100010151050162
:101A2000EC1922E03BEC30F0D3EC2FF007AF02D002
:101A300008690969E5EC2DF002E60CEC2FF014E2E0
:101A40000001F8510FE0ECEC30F001E0010E55EC34
:101A500032F03CEC31F0420EE66E950EE66E000E72
:101A600036EC30F0FEEC32F0B3EC32F0C10E35EC77
:101A70002EF0000103350351011904E60251005D07
:101A8000035101592EE207EC31F0F0EC2EF0CEECD0
:101A900032F004E1000101510501EC1922E03BECB8
:101AA00030F0D3EC2FF007AF02D008690969E5ECFC
:101AB0002DF002E60CEC2FF014E20001F8510FE0DB
:101AC000ECEC30F001E0010E55EC32F03CEC31F082
:101AD0002B0EE66E950EE66E000E36EC30F0FEEC48
:101AE00032F02DEC31F00AE200510108000E0155F0
:101AF00005E233EC33F0050E40EC2EF033EC33F01E
:101B00002CEC2EF001350AE200510208000E0155BE
:101B100005E233EC33F0090E40EC2EF0015041ECBD
:101B200032F010E004017051010B0CE17051020B16
:101B300009E17051040B06E1E66A4EEC2EF0000953
:101B400001E1FBD50001865103E0876B8D9E806B20
:101B5000E66A4EEC2EF0000913E00001F85107E0B0
:101B6000DC0EE66E940EE66E000E36EC30F00001F0
:101B7000865102E067EC2FF0A9EC2FF0040E24D080
:101B800004017051010B06E17051020B03E1705129
:101B9000040B19E00001F85107E0860EE66E940E82
:101BA000E66E000E36EC30F00001865102E067EC84
:101BB0002FF0040170A105D070910001010E7B6F20
:101BC0008B96020E01D0000EF36EF46A44E9E7CF63
:101BD000D9FF120022EC2DF083E983380F0B0001AE
:101BE000F7150501EE6F0001F7510501EE5D59E1B2
:101BF0000001F7510501ED5D03E0040E63EC2DF0EB
:101C000070EC2FF03BE10001F7510501ED5D11E0B3
:101C10003BEC2EF0070EEF6E2BEC32F0E2EC2EF0E8
:101C20006C0EE66E940EE66E000EA4EC32F0F7C079
:101C3000EDF50001845115E0AAEC03F04D0EE66EBF
:101C4000940EE66E000E69EC2CF079EC2FF0F7C0E4
:101C5000EDF53BEC2EF0070EEF6E0001010E7A6FF2
:101C6000886B846B7CC0E6FF90EC68F041E97CC037
:101C7000E6FF84DC41E9F7C0F0F510D0E2EC2EF08D
:101C8000ED51E66EE66AFB0EE66E930EE66E000E12
:101C900031EC32F0EDC5EFFF0501F06B0501F051BD
:101CA00057D0EE51ED5D4FE0030EE66EFCEC5EF0BA
:101CB00041E9040E63EC2DF070EC2FF038E13BECC1
:101CC0002EF0EEC5EFFF2BEC32F0AAEC03F03BEC6C
:101CD0002EF0EF50E66EE66A0501ED51E66EE66A1B
:101CE000BE0EE66E930EE66E000E31EC32F0EFCFD4
:101CF000EDF5000184510DE1AAEC03F0A10EE66EB2
:101D0000930EE66E000E69EC2CF079EC2FF00001DA
:101D1000886B010E846F7CC0E6FF90EC68F041E9AF
:101D200000017A6B7CC0E6FF29DC41E910D0E2ECCF
:101D30002EF0ED51E66EE66A500EE66E930EE66EFC
:101D4000000EDAEC32F03BEC2EF0EDC5EFFF000EAA
:101D500039EF2DF0E9EC30F00AE10401D46BF7EC37
:101D60002FF001E3DC6B04EC33F0F9E07BDC0401E1
:101D700070A31DD08B84D46BF7EC2FF001E3DC6BE8
:101D800004EC33F0F9E06EDCE9EC2EF03E0EE66E8A
:101D9000930EE66E000EA4EC32F0230EE66E930E68
:101DA000E66E000E36EC30F08B94040170937051A7
:101DB000010B08E1E66A7CEC2FF000091BE0000152
:101DC0007A5118E000017A5106E17B5102E0000EE1
:101DD00001D0010E7B6F5CEC30F0F90EE66E920ED6
:101DE000E66E000E36EC30F000017A6B0401709163
:101DF0008B906BD004010F0566E0E66A0AEC33F0C5
:101E0000000963E0010EE66E7CEC2FF00001010E8C
:101E10007A6F8B8004010F5129E111EC31F002E659
:101E200034EC32F023E20001010E7A6F8B90845182
:101E300011E10501F12B78EC2DF0110E0501F15D9A
:101E400001E3F16BBFEC32F0E10EE66E920EE66E4E
:101E5000000E35D03AEC32F001E3A26BD1EC30F059
:101E6000BA0EE66E920EE66E000E29D011EC31F03D
:101E700002E634EC32F025E20001010E7A6F8B901D
:101E8000845112E10501F10778EC2DF0110E0501E6
:101E9000F15D02E3100EF16FBFEC32F0A30EE66EBF
:101EA000920EE66E000E0BD03AEC32F001E3A26B1C
:101EB000D1EC30F08C0EE66E920EE66E000E36EC33
:101EC00030F08B8002D078EC2DF000017A5102E0E6
:101ED0008B8001D08B90855170E17B5102E1825162
:101EE0006AE0D7EC2EF006E0E66A010EE66E8CECB6
:101EF0006CF042E904011F0546E0E66A2FEC2EF083
:101F000000095BE08B8404011F511AE11B35000EB0
:101F10001B1909E6D880010E1855000E1955000E40
:101F20001A55000E1B550CE246EC31F040EC2EF039
:101F3000A1EC30F0420EE66E950EE66E000E20D05B
:101F4000020E1F5D3AE118C4E6FF19C4E6FF1AC489
:101F5000E6FF1BC4E6FF1DEC33F006E6D880010E59
:101F60000055000E82EC2EF028E246EC31F0F0EC49
:101F70002EF0A1EC30F02B0EE66E950EE66E000E04
:101F800036EC30F01AD0000182510CE1DC51E1EC6A
:101F900031F0ACEC32F0020E40EC2EF0DC51D4EC1F
:101FA0002CF003D0DC51E1EC31F0010EE66E2FECA9
:101FB0002EF08B9402D06DEC0BF000017B5107E00A
:101FC000E66A46EC32F00CE1010EE66E05D0E66AF8
:101FD00046EC32F005E0E66AE66A8CEC6CF042E929
:101FE0000501F151120032EC0BF08BC0FBFF8AC0EF
:101FF000FAFF000189511400120022EC2DF082E951
:1020000047E8076A086A72EC6CF000017B5104E152
:1020100005013051311102E0030E09D00001806B3F
:102020000401355136113711381104E1020EF36EF7
:10203000F46A72D0026A0250005C68E380EC30F00F
:102040000A0EE66ED70EE66E230EE66E3C0E05EC2B
:102050002DF0C7EC30F05AE1036A046A056A066A9B
:10206000D890065002E682EC2FF00FE2FA0EE66EF0
:102070007E0EE66E2A0EE66E3F0E63EC32F005E150
:10208000D950030F00EC2EF0EBD7036A046A056AFF
:10209000066AD890065002E682EC2FF00FE2FA0EA4
:1020A000E66E7E0EE66EAA0EE66E3E0E63EC32F033
:1020B00005E1D950030F00EC2EF0EBD7660EE66E6B
:1020C000E66EE66E3F0E21EC33F020E1CD0EE66EBB
:1020D000CC0EE66EE66E3D0E21EC33F017E1E66ABB
:1020E000E66AE66A3F0E21EC33F010E1040170511C
:1020F000010B06E17051020B03E17051040B04E087
:10210000010E076E086A02D0022A95D77EEC31F0E4
:1021100007EBF3FF08EBF4FF48E9E7CFD9FF120024
:1021200022EC2DF082E948E8086A096A72EC6CF04A
:1021300000017B5104E105013051311104E0030E2F
:10214000F36EF46A7CD00001806B026A0050025C7E
:1021500070E2036A030E035C6AE203EBDCF0E9EC75
:1021600030F063E080EC30F095EC30F0640EEE6E11
:10217000ED6AC7EC30F05BE1046A056A066A076A3B
:10218000D890075002E68BEC2FF00DE294EC2FF084
:102190009A0E0027020E9BEC32F005E1D950040F95
:1021A00000EC2EF0EDD7046A056A066A076AD8903B
:1021B000075002E68BEC2FF00DE294EC2FF04D0E61
:1021C0000027010E9BEC32F005E1D950040F00EC22
:1021D0002EF0EDD795EC30F0840EEE6E030EED6E22
:1021E000B7EC32F095EC30F0640EEE6EED6AB7ECC1
:1021F00032F0025061EC2CF00D0E97EC32F037EC1F
:1022000031F095EC30F0F4EC30F0B7EC32F0040142
:102210007051010B06E17051020B03E17051040B88
:1022200004E0010E086E096A02D0032A93D7022A3D
:102230008DD77EEC31F008EBF3FF09EBF4FF49E9B1
:10224000E7CFD9FF120032EC0BF000017C51070AF6
:102250001CE0010A15E0030A11E0080A0FE00E0A6B
:102260000DE0010A0BE0060A05E0050A07E0010A95
:102270000CE104D0030EE66EC0DE05D0020E01D0E4
:10228000040EE66E4DDF41E912008BC0FBFF8AC0F1
:10229000FAFF8951140012005DDD0501F26FF20EA4
:1022A000E66E050EE66E96DC42E9F2C5E6FFBEEC90
:1022B0000AF041E9F3EF0FF00001A2511EE1E6EC54
:1022C00031F0380EE66E920EE66E000E51EC32F0F2
:1022D000BBEC32F0ABEC2EF0220EE66E920EE66E08
:1022E000000E10EC33F0FCEC2FF00C0EE66E920EAC
:1022F000E66E000E51EC32F007D039EC33F060ECB2
:102300002DF03EEC30F045E994EF2DF00001A251A4
:1023100018E12CEC2DF09CEC2EF0CD0EE66E910E1B
:10232000E66E000E4BEC32F0AC0EE66E910EE66EF1
:10233000000EDEEC32F08F0EE66E910EE66E000EB1
:102340001DD094EC32F00CE0A1EC2CF0E2EC32F079
:10235000680EE66E910EE66E000E69EC2CF04DE90B
:10236000BDEC30F04E0EE66E910EE66E000EDEEC29
:1023700032F04E0EE66E910EE66E000EEBEF31F08F
:102380000001A25135E12CEC2DF09CEC2EF0250E35
:10239000E66E910EE66E000E4BEC32F04BEC2EF03A
:1023A0007CC5E6FF7DC5E6FF7AC5E6FF7BC5E6FF97
:1023B000ABEC2EF0FC0EE66E900EE66E000E69ECB5
:1023C0002CF053E9E0EC2DF0BCC5E6FFBDC5E6FFFF
:1023D000BAC5E6FFBBC5E6FFFCEC2FF0D30EE66EF8
:1023E000900EE66E000E69EC2CF09DEC2FF011D0F3
:1023F00094EC32F002E04CEC30F07EEC32F002E093
:1024000054EC30F05CEC32F002E078EC30F0EFECC1
:1024100030F043E912000001A25130E12CEC2DF024
:1024200016EC2EF0350EE66E900EE66E000E4BECBE
:1024300032F0ABEC2EF01D0EE66E900EE66E000E46
:1024400051EC32F0E0EC2DF0AFEC32F0BCC5E6FF21
:10245000BDC5E6FFC3EC30F0BAC5E6FFBBC5E6FF7D
:1024600034EC61F0FCEC2FF0F40EE66E8F0EE66EAD
:10247000000E69EC2CF09DEC2FF011D094EC32F0B2
:1024800002E04CEC30F07EEC32F002E054EC30F044
:102490005CEC32F002E078EC30F0EFEC30F043E945
:1024A00012000001A25119E1F0EC31F057EC2DF0CF
:1024B0004BEC2EF0AFEC32F07CC5E6FF7DC5E6FFBD
:1024C000C3EC30F07AC5E6FF7BC5E6FF34EC61F083
:1024D000ABEC2EF089EC32F009D039EC33F0DBECC8
:1024E0002FF002E054EC30F0E7EC32F0EBEF31F09B
:1024F0000001A2510BE1F0EC31F057EC2DF02CEC87
:102500002DF016EC2EF089EC32F00BD03EEC30F0D2
:1025100057EC2DF094EC32F002E04CEC30F0E7ECAC
:1025200032F0EBEF31F00001A25148E114C5E6FFB3
:1025300015C5E6FF10C4E6FF11C4E6FF12C4E6FFAE
:1025400013C4E6FF29C4E6FF2AC4E6FF2BC4E6FF56
:102550002CC4E6FFE6EC31F0940EE66E8F0EE66ECC
:10256000000E69EC2CF051E9BBEC32F00501015191
:102570001BE00251E66EE66A6D0EE66E8F0EE66EA9
:10258000000E10EC33F031C4E6FF32C4E6FF33C472
:10259000E6FF34C4E6FF4C0EE66E8F0EE66E000ECC
:1025A00069EC2CF049E907D0F0EC31F060EC2DF04B
:1025B000F0EC31F045E982EC32F011D094EC32F0DD
:1025C00002E01BEC31F07EEC32F002E0B1EC30F0D6
:1025D0005CEC32F002E024EC31F0EFEC30F043E957
:1025E00012000001A2511BE1C10EE66E8E0EE66ED6
:1025F000000E69EC2CF057EC2DF0AB0EE66E8E0E53
:10260000E66E000EDEEC32F0950EE66E8E0EE66E95
:10261000000E69EC2CF045E982EC32F011D094EC1C
:1026200032F002E04CEC30F07EEC32F002E054ECA0
:1026300030F05CEC32F002E078EC30F0EFEC30F0AF
:1026400043E912007E0EE66E8E0EE66E000E69EC19
:102650002CF057EC2DF0670EE66E8E0EE66E000E37
:10266000DEEC32F0500EE66E8E0EE66E000EEBEFF4
:1026700031F00001A2514BE13EEC30F045E9640E2F
:102680000501D89091BF03D0905D000E91590AE2E8
:1026900010EC2EF0310EE66E8E0EE66E000E69EC3A
:1026A0002CF047E9BBEC32F08DB20AD010EC2EF0E2
:1026B000ABEC2EF0120EE66E8E0EE66E000E09D01A
:1026C0000AEC2EF0ABEC2EF0F30EE66E8D0EE66EFD
:1026D000000E69EC2CF049E936EC33F03EEC30F0BA
:1026E00045E9640E0501D89011BF03D0105D000EBE
:1026F00011590AE20AEC2EF0D50EE66E8D0EE66E4A
:10270000000E69EC2CF047E982EC32F011D094EC29
:1027100032F002E01BEC31F07EEC32F002E0B1EC82
:1027200030F05CEC32F002E024EC31F0EFEC30F011
:1027300043E9120022EC2DF082E942E8026A036AC2
:10274000030ED89003BE03D0025C000E03581AE2B9
:102750000050E66E02EBE9FF03EBEAFF060ED890AD
:10276000E936EA36E806FBE1000EE926050EEA2224
:102770005BEC2FF0E552E750EE6EED6A022A000E98
:102780000322DED743E9E7CFD9FF1200DCC0D5F43E
:102790000001DC6BACEC32F088EC2EF002E06DEC6A
:1027A0000BF0F7EC2FF0F6E372EC6CF0D5C4DCF034
:1027B000010E63EF2DF0D9CFE6FFE1CFD9FF81E91C
:1027C00051E8E80E056E030E066E076A086A096A8C
:1027D0000A6A0B6A0C6A580E0D6E106A116A0001C3
:1027E000816BF4EC33F0F4EC33F00001010E886FF0
:1027F000040170950001A26B7CC0E6FF90EC68F0CC
:1028000041E90001855107E08B9200017B6B0001DB
:10281000806B24EF28F0AAEC03F0B10EE66E8D0E6B
:10282000E66E000EE66E4EEC71F043E9020E00011A
:102830007C5D06E1D00E056E070E066E076A086A1B
:102840000001010E7B6F0501080503E10001010E87
:10285000806F72EC6CF0010EE66EE66AE66AE66A7C
:1028600056EC01F044E900017C5118E1020EE66EDD
:10287000E66AE66AE66A05EBE6FF06EBE6FF07EBCB
:10288000E6FF08EBE6FF4DEC63F0E552E550086E1D
:10289000E550076EE550066EE750056E030E000129
:1028A0007C5D18E1020EE66EE66AE66AE66A05EB12
:1028B000E6FF06EBE6FF07EBE6FF08EBE6FF4DEC75
:1028C00063F0E552E550086EE550076EE550066E80
:1028D000E750056E00017C0518E1020EE66EE66A1F
:1028E000E66AE66A05EBE6FF06EBE6FF07EBE6FFC6
:1028F00008EBE6FF4DEC63F0E552E550086EE5505D
:10290000076EE550066EE750056EE66A13DF41E993
:1029100075EC6CF0010EE66E05EBE6FF06EBE6FFEC
:1029200007EBE6FF08EBE6FF55EC02F045E9016A2C
:10293000026A036A046A0001865102E09AEF1DF000
:10294000060E00017C5D01E0CDD30E6A0F6A0F34E4
:1029500004E20E500108000E0F5401E2A1D2640EF1
:10296000056E066A076A086A010EE66E05EBE6FF69
:1029700006EBE6FF07EBE6FF08EBE6FF55EC02F09F
:1029800045E975EC6CF0016A026A036A046A80C06A
:10299000E6FF78EC6CF041E9D00EE66E070EE66ECD
:1029A000E66AE66A01EBE6FF02EBE6FF03EBE6FF11
:1029B00004EBE6FFDDEC61F0E552E5CF03F0E5CF97
:1029C00002F0E5CF01F0E7CF00F000010051011166
:1029D0000211031101E0DAD0040170A52DD072ECD0
:1029E0006CF0010EE66EA6DE41E9F2EC5EF0060E3A
:1029F000E66EE66AE66AE66A56EC01F044E98B9216
:102A00000001010E7B6F0001806B80C0E6FF78EC57
:102A10006CF041E97CC0E6FF90EC68F041E9AAEC7B
:102A200003F0830EE66E8D0EE66E000EE66E4EEC43
:102A300071F043E924EF28F028EC28F00EEBE6FFD4
:102A40000FEBE6FF670EE66E8D0EE66E000EE66E8D
:102A5000000EE66E020EE66EB0EC70F047E9010E75
:102A6000E66EE66AA0C0E6FFB7EC00F043E90A0EA6
:102A7000E66EE66A90C5E6FF91C5E6FF34EC61F0CC
:102A80003C0EE66E8D0EE66E000EE66E000EE66EF5
:102A9000020EE66EB0EC70F047E9640E0501D890C6
:102AA00091BF03D0905D000E915916E20A0EE66EBA
:102AB000E66A90C5E6FF91C5E6FF34EC61F01D0EB5
:102AC000E66E8D0EE66E000EE66E000EE66E020EEF
:102AD000E66EB0EC70F047E9010EE66E010EE66EB0
:102AE000E66AB7EC00F043E9F50EE66E8C0EE66E92
:102AF000000EE66E000EE66E020EE66EB0EC70F0B2
:102B000045E9010EE66E020EE66EE66AB7EC00F0ED
:102B100043E90A0EE66EE66A10C5E6FF11C5E6FF58
:102B200034EC61F0C80EE66E8C0EE66E000EE66EBA
:102B3000000EE66E020EE66EB0EC70F047E9640E31
:102B40000501D89011BF03D0105D000E115916E297
:102B50000A0EE66EE66A10C5E6FF11C5E6FF34EC24
:102B600061F0D50EE66E8D0EE66E000EE66E000E7E
:102B7000E66E020EE66EB0EC70F047E9010EE66E0E
:102B8000030EE66EE66AB7EC00F043E9D950010F98
:102B9000E96EDACFEAFFEE2A000EEE22EE22EE22F6
:102BA000E66A05EBE6FF06EBE6FF07EBE6FF08EB60
:102BB000E6FF55EC02F045E9000901E1E8D6640EB4
:102BC0000501D89091BF03D0905D000E91590CE2A1
:102BD0000501113504E210519008010E115504E26F
:102BE000010E05016E6F6F6B640E0501D89011BF69
:102BF00003D0105D000E115903E205016C6B6D6B83
:102C0000010EE66E05EBE6FF06EBE6FF07EBE6FFDF
:102C100008EBE6FF55EC02F045E972EC6CF0016A56
:102C2000026A036A046A80C0E6FF78EC6CF041E94E
:102C3000D00EE66E070EE66EE66AE66A01EBE6FF88
:102C400002EBE6FF03EBE6FF04EBE6FFDDEC61F0F1
:102C5000E552E5CF03F0E5CF02F0E5CF01F0E7CF95
:102C600000F00001005101110211031101E0DAD05E
:102C7000040170A52DD072EC6CF0010EE66E5ADDE9
:102C800041E9F2EC5EF0060EE66EE66AE66AE66A96
:102C900056EC01F044E98B920001010E7B6F0001BC
:102CA000806B80C0E6FF78EC6CF041E97CC0E6FF09
:102CB00090EC68F041E9AAEC03F0830EE66E8D0E0D
:102CC000E66E000EE66E4EEC71F043E924EF28F05C
:102CD00028EC28F00EEBE6FF0FEBE6FFAD0EE66EFC
:102CE0008C0EE66E000EE66E000EE66E020EE66ECE
:102CF000B0EC70F047E9010EE66EE66AA0C0E6FFB0
:102D0000B7EC00F043E90A0EE66EE66A90C5E6FF0E
:102D100091C5E6FF34EC61F03C0EE66E8D0EE66E7A
:102D2000000EE66E000EE66E020EE66EB0EC70F07F
:102D300047E9640E0501D89091BF03D0905D000E65
:102D4000915916E20A0EE66EE66A90C5E6FF91C555
:102D5000E6FF34EC61F01D0EE66E8D0EE66E000EA1
:102D6000E66E000EE66E020EE66EB0EC70F047E91D
:102D7000010EE66E010EE66EE66AB7EC00F043E97E
:102D8000820EE66E8C0EE66E000EE66E000EE66EAD
:102D9000020EE66EB0EC70F045E9010EE66E020E32
:102DA000E66EE66AB7EC00F043E90A0EE66EE66A04
:102DB00010C5E6FF11C5E6FF34EC61F0C80EE66E03
:102DC0008C0EE66E000EE66E000EE66E020EE66EED
:102DD000B0EC70F047E9640E0501D89011BF03D044
:102DE000105D000E115916E20A0EE66EE66A10C575
:102DF000E6FF11C5E6FF34EC61F0D50EE66E8D0EF0
:102E0000E66E000EE66E000EE66E020EE66EB0ECAA
:102E100070F047E9010EE66E030EE66EE66AB7EC67
:102E200000F043E9D950010FE96EDACFEAFFEE2A4C
:102E3000000EEE22EE22EE22E66A05EBE6FF06EB3E
:102E4000E6FF07EBE6FF08EBE6FF55EC02F045E98D
:102E5000000901E1E8D6640E0501D89011BF03D046
:102E6000105D000E11590CE20501913504E29051FC
:102E70009008010E915504E2010E05016C6F6D6B17
:102E8000640E0501D89091BF03D0905D000E91595A
:102E900003E205016E6B6F6B0E2A000E0F2257D5F1
:102EA0008B9200017B6B0001806B05016C516D11F1
:102EB00005E005016E516F1101E007D10501465192
:102EC00001E103D104017095590E0D6E0DEB00F078
:102ED0000001016B00BF016900C0E6FF01C0E6FF11
:102EE000620EE66E8C0EE66E000EE66E000EE66E6C
:102EF000020EE66EB0EC70F047E9010EE66EE66A8F
:102F0000A0C0E6FFB7EC00F043E9000EE66E020E4B
:102F1000E66ECAEC71F042E9210EE66E9A0EE66E9C
:102F2000000EE66E4EEC71F043E96CC5E6FF6DC530
:102F3000E6FF6EC5E6FF6FC5E6FF4B0EE66E8C0E34
:102F4000E66E000EE66E000EE66E020EE66EB0EC69
:102F500070F049E9010EE66E010EE66EE66AB7EC26
:102F600000F043E9000EE66E020EE66ECAEC71F068
:102F700042E9210EE66E9A0EE66E000EE66E4EEC0B
:102F800071F043E9340EE66E8C0EE66E000EE66ECE
:102F9000000EE66E020EE66EB0EC70F045E905013B
:102FA0006E516F110DE1180EE66E8C0EE66E000E7E
:102FB000E66E000EE66E020EE66EB0EC70F045E9CD
:102FC000010EE66E020EE66EE66AB7EC00F043E92B
:102FD000000EE66E020EE66ECAEC71F042E9210EBA
:102FE000E66E9A0EE66E000EE66E4EEC71F043E968
:102FF000340EE66E8C0EE66E000EE66E000EE66E89
:10300000020EE66EB0EC70F045E905016C516D11F1
:103010000DE1FA0EE66E8B0EE66E000EE66E000E09
:10302000E66E020EE66EB0EC70F045E9010EE66E5B
:10303000030EE66EE66AB7EC00F043E9000EE66EBA
:10304000020EE66ECAEC71F042E9210EE66E9A0EAF
:10305000E66E000EE66E4EEC71F043E9010EE66E90
:10306000010EE66E8CEC6CF042E9020EE66EFCECB2
:103070005EF041E90400040170A5F7D7E66A010E8D
:10308000E66E8CEC6CF042E972EC6CF0010EE66ED0
:103090009AEC13F041E9F2EC5EF0060EE66EE66A99
:1030A000E66AE66A56EC01F044E98B920001010EF3
:1030B0007B6F0001806B80C0E6FF78EC6CF041E92B
:1030C0007CC0E6FF90EC68F041E9AAEC03F0D40E76
:1030D000E66E8B0EE66E000EE66E4EEC71F043E986
:1030E00024EF28F072EC6CF0060EE66EE66AE66AF3
:1030F000E66A56EC01F044E968EC6CF0010EE66E0D
:10310000E66AE66AE66A56EC01F044E9106A116A7A
:1031100075EC6CF0010EE66E05EBE6FF06EBE6FFE4
:1031200007EBE6FF08EBE6FF55EC02F045E957EC4C
:1031300033F080C0E6FF78EC6CF041E9E80EE66E13
:10314000030EE66EE66AE66A01EBE6FF02EBE6FFD7
:1031500003EBE6FF04EBE6FFDDEC61F0E552E5CFC3
:1031600003F0E5CF02F0E5CF01F0E7CF00F000017A
:10317000005101110211031101E027D277EC33F065
:10318000000901E1D6D0AAEC03F0200EE96E060E8C
:10319000EA6EEE500601145D0001046FEE50060168
:1031A00015590001056FEE50060116590001066F12
:1031B000EE50060117590001076F04C0E6FF05C075
:1031C000E6FF06C0E6FF07C0E6FFBEEC07F044E9F5
:1031D000FCC300F0FDC301F0FEC302F0FFC303F027
:1031E00000C0E6FF01C0E6FF02C0E6FF03C0E6FF45
:1031F0001C0EE96E060EEA6EEE500601105D00012F
:103200000C6FEE500601115900010D6FEE500601D2
:10321000125900010E6FEE500601135900010F6F95
:103220000CC0E6FF0DC0E6FF0EC0E6FF0FC0E6FFD4
:10323000BEEC07F044E9FCC308F0FDC309F0FEC38F
:103240000AF0FFC30BF008C0E6FF09C0E6FF0AC0A2
:10325000E6FF0BC0E6FF180EE96E060EEA6EEE50B2
:1032600006010C5D0001146FEE5006010D590001BE
:10327000156FEE5006010E590001166FEE50060153
:103280000F590001176F14C0E6FF15C0E6FF16C006
:10329000E6FF17C0E6FFBEEC07F044E9FCC310F000
:1032A000FDC311F0FEC312F0FFC313F010C0E6FF20
:1032B00011C0E6FF12C0E6FF13C0E6FFB70EE66ED0
:1032C0008B0EE66E000EE66E000EE66E020EE66EE9
:1032D000B0EC70F051E9000EE66E020EE66ECAEC3C
:1032E00071F042E906013C5122E006013D511FE028
:1032F00006013E511CE000017C5103E0010E106EFE
:10330000116AAAEC03F0920EE66E8B0EE66E000ECA
:10331000E66E000EE66E020EE66EB0EC70F045E969
:10332000000EE66E020EE66ECAEC71F042E957EC52
:1033300033F0040170A52ED072EC6CF0010EE66E35
:103340009AEC13F041E9F2EC5EF0060EE66EE66AE6
:10335000E66AE66A56EC01F044E98B920001010E40
:103360007B6F0001806B80C0E6FF78EC6CF041E978
:103370007CC0E6FF90EC68F041E9AAEC03F0830E14
:10338000E66E8D0EE66E000EE66E4EEC71F043E9D1
:1033900024EF28F028EC28F001EBE6FF02EBE6FF33
:1033A00003EBE6FF04EBE6FF7A0EE66E8B0EE66EAD
:1033B000000EE66E000EE66E020EE66EB0EC70F0E9
:1033C00049E9010EE66EE66AA0C0E6FFB7EC00F040
:1033D00043E9020E00017C5D3CE0F60EE66E910EC4
:1033E000E66E000EE66E000EE66E020EE66EB0ECC5
:1033F00070F045E9050106512BE030C6E6FF31C605
:10340000E6FF32C6E6FF33C6E6FF0A0EE66EE66A60
:103410002AC5E6FF2BC5E6FF34EC61F00A0EE66E26
:10342000E66A3AC5E6FF3BC5E6FF34EC61F010C53D
:10343000E6FF11C5E6FF520EE66E8B0EE66E000E3D
:10344000E66E000EE66E020EE66EB0EC70F04FE92E
:103450002ED0050106512BE030C6E6FF31C6E6FF4F
:1034600032C6E6FF33C6E6FF0A0EE66EE66A2AC5F6
:10347000E6FF2BC5E6FF34EC61F00A0EE66EE66A65
:103480003AC5E6FF3BC5E6FF34EC61F010C5E6FF48
:1034900011C5E6FF2A0EE66E8B0EE66E000EE66E96
:1034A000000EE66E020EE66EB0EC70F04FE9010E13
:1034B000E66E010EE66EE66AB7EC00F043E9F60E42
:1034C000E66E910EE66E000EE66E000EE66E020EE1
:1034D000E66EB0EC70F045E9050146512BE034C6CC
:1034E000E6FF35C6E6FF36C6E6FF37C6E6FF0A0E3C
:1034F000E66EE66A6AC5E6FF6BC5E6FF34EC61F08E
:103500000A0EE66EE66A7AC5E6FF7BC5E6FF34EC96
:1035100061F050C5E6FF51C5E6FF020EE66E8B0E68
:10352000E66E000EE66E000EE66E020EE66EB0EC83
:1035300070F04FE9010EE66E020EE66EE66AB7EC39
:1035400000F043E9F60EE66E910EE66E000EE66EB2
:10355000000EE66E020EE66EB0EC70F045E9050175
:1035600086512BE038C6E6FF39C6E6FF3AC6E6FFCD
:103570003BC6E6FF0A0EE66EE66AAAC5E6FFABC5E5
:10358000E6FF34EC61F00A0EE66EE66ABAC5E6FFC5
:10359000BBC5E6FF34EC61F090C5E6FF91C5E6FFE0
:1035A000DA0EE66E8A0EE66E000EE66E000EE66E2F
:1035B000020EE66EB0EC70F04FE9010EE66E030EFF
:1035C000E66EE66AB7EC00F043E9D950010FE96E08
:1035D000DACFEAFFEE2A000EEE22EE22EE22E66AB3
:1035E00005EBE6FF06EBE6FF07EBE6FF08EBE6FF81
:1035F00055EC02F045E9000904E11050111001E119
:1036000098D572EC6CF0060EE66EE66AE66AE66A3B
:1036100056EC01F044E96FEC6CF0010EE66EE66AE0
:10362000E66AE66A56EC01F044E9106A116A0001A4
:103630007C5101E17DD275EC6CF0010EE66E05EB7C
:10364000E6FF06EBE6FF07EBE6FF08EBE6FF55ECCF
:1036500002F045E9016A026A036A046A57EC33F032
:1036600080C0E6FF78EC6CF041E9E80EE66E030EF0
:10367000E66EE66AE66A01EBE6FF02EBE6FF03EBC5
:10368000E6FF04EBE6FFDDEC61F0E552E5CF03F089
:10369000E5CF02F0E5CF01F0E7CF00F000010051E7
:1036A00001110211031101E027D277EC33F0000978
:1036B00001E1D6D0AAEC03F0200EE96E060EEA6E08
:1036C000EE500601145D0001046FEE50060115591D
:1036D0000001056FEE50060116590001066FEE500D
:1036E000060117590001076F04C0E6FF05C0E6FF99
:1036F00006C0E6FF07C0E6FFBEEC07F044E9FCC3E6
:1037000000F0FDC301F0FEC302F0FFC303F000C0F0
:10371000E6FF01C0E6FF02C0E6FF03C0E6FF1C0EA5
:10372000E96E060EEA6EEE500601105D00010C6FA8
:10373000EE500601115900010D6FEE5006011259AD
:1037400000010E6FEE500601135900010F6F0CC0FF
:10375000E6FF0DC0E6FF0EC0E6FF0FC0E6FFBEECC1
:1037600007F044E9FCC308F0FDC309F0FEC30AF00A
:10377000FFC30BF008C0E6FF09C0E6FF0AC0E6FF82
:103780000BC0E6FF180EE96E060EEA6EEE5006015B
:103790000C5D0001146FEE5006010D590001156F0C
:1037A000EE5006010E590001166FEE5006010F593A
:1037B0000001176F14C0E6FF15C0E6FF16C0E6FF54
:1037C00017C0E6FFBEEC07F044E9FCC310F0FDC3F0
:1037D00011F0FEC312F0FFC313F010C0E6FF11C0DA
:1037E000E6FF12C0E6FF13C0E6FFB70EE66E8B0ED3
:1037F000E66E000EE66E000EE66E020EE66EB0ECB1
:1038000070F051E9000EE66E020EE66ECAEC71F041
:1038100042E906013C5122E006013D511FE006014C
:103820003E511CE000017C5103E0010E106E116A54
:10383000AAEC03F0920EE66E8B0EE66E000EE66EBC
:10384000000EE66E020EE66EB0EC70F045E9000E7A
:10385000E66E020EE66ECAEC71F042E957EC33F008
:10386000040170A52ED072EC6CF0010EE66E9AEC9D
:1038700013F041E9F2EC5EF0060EE66EE66AE66AE7
:10388000E66A56EC01F044E98B920001010E7B6F71
:103890000001806B80C0E6FF78EC6CF041E97CC0F1
:1038A000E6FF90EC68F041E9AAEC03F0830EE66EC7
:1038B0008D0EE66E000EE66E4EEC71F043E924EFDD
:1038C00028F028EC28F001EBE6FF02EBE6FF03EB23
:1038D000E6FF04EBE6FFC30EE66E8A0EE66E000E10
:1038E000E66E000EE66E020EE66EB0EC70F049E990
:1038F000010EE66EE66AA0C0E6FFB7EC00F043E911
:10390000F60EE66E910EE66E000EE66E000EE66EA8
:10391000020EE66EB0EC70F045E9020E00017C5D2F
:103920002FE0050106512BE030C6E6FF31C6E6FF69
:1039300032C6E6FF33C6E6FF0A0EE66EE66A2AC521
:10394000E6FF2BC5E6FF34EC61F00A0EE66EE66A90
:103950003AC5E6FF3BC5E6FF34EC61F010C5E6FF73
:1039600011C5E6FF520EE66E8B0EE66E000EE66E99
:10397000000EE66E020EE66EB0EC70F04FE92ED04F
:10398000050106512BE030C6E6FF31C6E6FF32C620
:10399000E6FF33C6E6FF0A0EE66EE66A2AC5E6FFD4
:1039A0002BC5E6FF34EC61F00A0EE66EE66A3AC516
:1039B000E6FF3BC5E6FF34EC61F010C5E6FF11C53C
:1039C000E6FF2A0EE66E8B0EE66E000EE66E000E29
:1039D000E66E020EE66EB0EC70F04FE9010EE66E98
:1039E000010EE66EE66AB7EC00F043E9F60EE66E0D
:1039F000910EE66E000EE66E000EE66E020EE66EAC
:103A0000B0EC70F045E9050146512BE034C6E6FF05
:103A100035C6E6FF36C6E6FF37C6E6FF0A0EE66E97
:103A2000E66A6AC5E6FF6BC5E6FF34EC61F00A0E94
:103A3000E66EE66A7AC5E6FF7BC5E6FF34EC61F028
:103A400050C5E6FF51C5E6FF020EE66E8B0EE66E30
:103A5000000EE66E000EE66E020EE66EB0EC70F042
:103A60004FE9010EE66E020EE66EE66AB7EC00F074
:103A700043E9F60EE66E910EE66E000EE66E000E5F
:103A8000E66E020EE66EB0EC70F045E90501865177
:103A90002BE038C6E6FF39C6E6FF3AC6E6FF3BC66E
:103AA000E6FF0A0EE66EE66AAAC5E6FFABC5E6FFCC
:103AB00034EC61F00A0EE66EE66ABAC5E6FFBBC5F5
:103AC000E6FF34EC61F090C5E6FF91C5E6FFDA0E43
:103AD000E66E8A0EE66E000EE66E000EE66E020ED2
:103AE000E66EB0EC70F04FE9010EE66E030EE66E86
:103AF000E66AB7EC00F043E9D950010FE96EDACF7E
:103B0000EAFFEE2A000EEE22EE22EE22E66A05EB36
:103B1000E6FF06EBE6FF07EBE6FF08EBE6FF55ECFA
:103B200002F045E9000904E11050111001E198D5B7
:103B3000B0EF21F00401296B2A6B2B6B2C6B040175
:103B40002951096E2A510A6E2B510B6E2C510C6EA5
:103B500075EC6CF0140EE66EE66AE66AE66A56EC00
:103B600001F044E9016A026A036A046ADE0E015C3C
:103B7000030E0258000E0358000E045801E3E5D06E
:103B800001EBE6FF02EBE6FF03EBE6FF04EBE6FFEB
:103B9000C30EE66E8A0EE66E000EE66E000EE66E50
:103BA000020EE66EB0EC70F049E9010EE66EE66AD0
:103BB000A0C0E6FFB7EC00F043E9F60EE66E910E0A
:103BC000E66E000EE66E000EE66E020EE66EB0ECDD
:103BD00070F045E90501065115E029C4E6FF2AC445
:103BE000E6FF2BC4E6FF2CC4E6FFA10EE66E8A0EAC
:103BF000E66E000EE66E000EE66E020EE66EB0ECAD
:103C000070F049E9010EE66E010EE66EE66AB7EC69
:103C100000F043E9F60EE66E910EE66E000EE66EDB
:103C2000000EE66E020EE66EB0EC70F045E9010E95
:103C3000E66E020EE66EE66AB7EC00F043E9010EAE
:103C4000E66E030EE66EE66AB7EC00F043E9010E9D
:103C5000E66EE66AE66AE66A56EC01F044E9190E99
:103C6000E66EE66AE66AE66A01EBE6FF02EBE6FF6D
:103C700003EBE6FF04EBE6FFDDEC61F0E552E5CF98
:103C800003F0E5CF02F0E5CF01F0E7CF00F000014F
:103C900000510111021103111CE1095004012919FD
:103CA00008E10A502A1905E10B502B1902E10C50CA
:103CB0002C1906E1E80E016E030E026E036A046A17
:103CC00004012951096E2A510A6E2B510B6E2C5199
:103CD0000C6E040170A52ED072EC6CF0010EE66E35
:103CE0009AEC13F041E9F2EC5EF0060EE66EE66A3D
:103CF000E66AE66A56EC01F044E98B920001010E97
:103D00007B6F0001806B80C0E6FF78EC6CF041E9CE
:103D10007CC0E6FF90EC68F041E9AAEC03F0830E6A
:103D2000E66E8D0EE66E000EE66E4EEC71F043E927
:103D300024EF28F0D950010FE96EDACFEAFFEE2A1E
:103D4000000EEE22EE22EE2211D772EC6CF0060E7F
:103D5000E66EE66AE66AE66A56EC01F044E968EC6B
:103D60006CF0010EE66EE66AE66AE66A56EC01F071
:103D700044E90401296B2A6B2B6B2C6B040129513C
:103D8000096E2A510A6E2B510B6E2C510C6E75EC7C
:103D90006CF0140EE66EE66AE66AE66A56EC01F02E
:103DA00044E9016A026A036A046ADE0E015C030EDA
:103DB0000258000E0358000E045801E3E5D001EB51
:103DC000E6FF02EBE6FF03EBE6FF04EBE6FF7A0E0D
:103DD000E66E8B0EE66E000EE66E000EE66E020ECE
:103DE000E66EB0EC70F049E9010EE66EE66AA0C03E
:103DF000E6FFB7EC00F043E9F60EE66E910EE66ED4
:103E0000000EE66E000EE66E020EE66EB0EC70F08E
:103E100045E90501065115E029C4E6FF2AC4E6FF7D
:103E20002BC4E6FF2CC4E6FFA10EE66E8A0EE66EFA
:103E3000000EE66E000EE66E020EE66EB0EC70F05E
:103E400049E9010EE66E010EE66EE66AB7EC00F097
:103E500043E9F60EE66E910EE66E000EE66E000E7B
:103E6000E66E020EE66EB0EC70F045E9010EE66E0D
:103E7000020EE66EE66AB7EC00F043E9010EE66E6C
:103E8000030EE66EE66AB7EC00F043E9010EE66E5B
:103E9000E66AE66AE66A56EC01F044E9190EE66E57
:103EA000E66AE66AE66A01EBE6FF02EBE6FF03EB91
:103EB000E6FF04EBE6FFDDEC61F0E552E5CF03F051
:103EC000E5CF02F0E5CF01F0E7CF00F000010051AF
:103ED0000111021103111CE109500401291908E123
:103EE0000A502A1905E10B502B1902E10C502C192C
:103EF00006E1E80E016E030E026E036A046A040115
:103F00002951096E2A510A6E2B510B6E2C510C6EE1
:103F1000040170A52ED072EC6CF0010EE66E9AECE6
:103F200013F041E9F2EC5EF0060EE66EE66AE66A30
:103F3000E66A56EC01F044E98B920001010E7B6FBA
:103F40000001806B80C0E6FF78EC6CF041E97CC03A
:103F5000E6FF90EC68F041E9AAEC03F0830EE66E10
:103F60008D0EE66E000EE66E4EEC71F043E924EF26
:103F700028F0D950010FE96EDACFEAFFEE2A000EE1
:103F8000EE22EE22EE2211D729C435F42AC436F4EB
:103F90002BC437F42CC438F472EC6CF000017B6B4A
:103FA0000001806B0A0EE66ED70EE66E230EE66EFB
:103FB0003C0EE66E35C4E6FF36C4E6FF37C4E6FFC6
:103FC00038C4E6FF71EC60F09EEC63F0D9EC60F071
:103FD000E552E5CF13F4E5CF12F4E5CF11F4E7CFC6
:103FE00010F46DEC0BF0FA0EE66E7E0EE66E2A0E05
:103FF000E66E3F0EE66E35C4E6FF36C4E6FF37C414
:10400000E6FF38C4E6FF71EC60F09EEC63F0D9EC9B
:1040100060F0E552E5CF13F4E5CF12F4E5CF11F4EB
:10402000E7CF10F4290EE96E040EEA6EEE5004019B
:10403000105D0001006FEE50040111590001016F85
:10404000EE50040112590001026FEE5004011359A1
:104050000001036F0001DC51400DF3CFE9FFF4CF05
:10406000EAFF000EE926050EEA220F0EE926000EF1
:10407000EA22050EE926000EEA2200C0EEFF01C08A
:10408000EDFF6DEC0BF0FA0EE66E7E0EE66EAA0EFC
:10409000E66E3E0EE66E35C4E6FF36C4E6FF37C474
:1040A000E6FF38C4E6FF71EC60F09EEC63F0D9ECFB
:1040B00060F0E552E5CF13F4E5CF12F4E5CF11F44B
:1040C000E7CF10F4290EE96E040EEA6EEE500401FB
:1040D000105D0001006FEE50040111590001016FE5
:1040E000EE50040112590001026FEE500401135901
:1040F0000001036F0001DC51400DF3CFE9FFF4CF65
:10410000EAFF000EE926050EEA220F0EE926000E50
:10411000EA22050EE926000EEA2200C0EEFF01C0E9
:10412000EDFF6DEC0BF0660EE66E660EE66E660E4B
:10413000E66E3F0EE66E35C4E6FF36C4E6FF37C4D2
:10414000E6FF38C4E6FF71EC60F09EEC63F0D9EC5A
:1041500060F0E552E5CF13F4E5CF12F4E5CF11F4AA
:10416000E7CF10F4290EE96E040EEA6EEE5004015A
:10417000105D0001006FEE50040111590001016F44
:10418000EE50040112590001026FEE500401135960
:104190000001036F0001DC51400DF3CFE9FFF4CFC4
:1041A000EAFF000EE926050EEA220F0EE926000EB0
:1041B000EA22050EE926000EEA2200C0EEFF01C049
:1041C000EDFF6DEC0BF0CD0EE66ECC0EE66ECC0E78
:1041D000E66E3D0EE66E35C4E6FF36C4E6FF37C434
:1041E000E6FF38C4E6FF71EC60F09EEC63F0D9ECBA
:1041F00060F0E552E5CF13F4E5CF12F4E5CF11F40A
:10420000E7CF10F4290EE96E040EEA6EEE500401B9
:10421000105D0001006FEE50040111590001016FA3
:10422000EE50040112590001026FEE5004011359BF
:104230000001036F0001DC51400DF3CFE9FFF4CF23
:10424000EAFF000EE926050EEA220F0EE926000E0F
:10425000EA22050EE926000EEA2200C0EEFF01C0A8
:10426000EDFF6DEC0BF0E66AE66AE66A3F0EE66E7D
:1042700035C4E6FF36C4E6FF37C4E6FF38C4E6FFC0
:1042800071EC60F09EEC63F0D9EC60F0E552E5CFA4
:1042900013F4E5CF12F4E5CF11F4E7CF10F4290EB3
:1042A000E96E040EEA6EEE500401105D0001006F2D
:1042B000EE50040111590001016FEE500401125932
:1042C0000001026FEE50040113590001036F000159
:1042D000DC51400DF3CFE9FFF4CFEAFF000EE926F1
:1042E000050EEA220F0EE926000EEA22050EE92647
:1042F000000EEA2200C0EEFF01C0EDFF6DEC0BF0F6
:10430000016A026A036A046A030E015C000E025825
:10431000000E0358000E045823E201EBE9FF02EB04
:10432000EAFF060ED890E936EA36E806FBE1000E11
:10433000E926050EEA220F0EE926000EEA22210EDA
:10434000E926000EEA22EE6AED6AD950010FE96E05
:10435000DACFEAFFEE2A000EEE22EE22EE22D4D7CA
:10436000016A026A036A046A030E015C000E0258C5
:10437000000E0358000E045802E3C2EF26F001EBD2
:10438000E9FF02EBEAFF060ED890E936EA36E806C6
:10439000FBE1000EE926050EEA22060EE926000ED4
:1043A000EA22EF5001E157D101EBE9FF02EBEAFF0E
:1043B000060ED890E936EA36E806FBE1000EE9265B
:1043C000050EEA220F0EE926000EEA22090EE92662
:1043D000000EEA22EECF00F0EFCF01F001EBE9FF93
:1043E00002EBEAFF060ED890E936EA36E806FBE172
:1043F000000EE926050EEA220F0EE926000EEA223B
:104400000B0EE926000EEA22EECF02F0EFCF03F00A
:104410000001013501510001031908E600010051B6
:104420000001025D000101510001035919E201EB95
:10443000E9FF02EBEAFF060ED890E936EA36E80615
:10444000FBE1000EE926050EEA220F0EE926000E1A
:10445000EA22210EE926000EEA22010EEE6EED6A36
:1044600001EBE9FF02EBEAFF060ED890E936EA36E7
:10447000E806FBE1000EE926050EEA220F0EE9260A
:10448000000EEA221B0EE926000EEA22EECF00F013
:10449000EFCF01F001EBE9FF02EBEAFF060ED89047
:1044A000E936EA36E806FBE1000EE926050EEA22C7
:1044B0000F0EE926000EEA220D0EE926000EEA2272
:1044C000EECF02F0EFCF03F00001033503510001FE
:1044D000011908E6000102510001005D00010351CD
:1044E0000001015919E201EBE9FF02EBEAFF060EB8
:1044F000D890E936EA36E806FBE1000EE926050E1B
:10450000EA220F0EE926000EEA22210EE926000E0D
:10451000EA22010EEE6EED6A01EBE9FF02EBEAFF23
:10452000060ED890E936EA36E806FBE1000EE926E9
:10453000050EEA220F0EE926000EEA22190EE926E0
:10454000000EEA22EECF00F0EFCF01F001EBE9FF21
:1045500002EBEAFF060ED890E936EA36E806FBE100
:10456000000EE926050EEA220F0EE926000EEA22C9
:10457000110EE926000EEA22EECF02F0EFCF03F093
:104580000001033503510001011908E60001025141
:104590000001005D000103510001015943E301EBFB
:1045A000E9FF02EBEAFF060ED890E936EA36E806A4
:1045B000FBE1000EE926050EEA220F0EE926000EA9
:1045C000EA22190EE926000EEA22EECF04F0EFCF20
:1045D00005F001EBE9FF02EBEAFF060ED890E936A1
:1045E000EA36E806FBE1000EE926050EEA220F0E88
:1045F000E926000EEA22130EE926000EEA22EECF8B
:1046000006F0EFCF07F0000105350551000107194D
:1046100008E6000104510001065D0001055100019A
:10462000075919E201EBE9FF02EBEAFF060ED89009
:10463000E936EA36E806FBE1000EE926050EEA2235
:104640000F0EE926000EEA22210EE926000EEA22CC
:10465000010EEE6EED6A01EBE9FF02EBEAFF060EDA
:10466000D890E936EA36E806FBE1000EE926050EA9
:10467000EA220F0EE926000EEA22210EE926000E9C
:10468000EA22EE50ED1001E0AFD101EBE9FF02EBC1
:10469000EAFF060ED890E936EA36E806FBE1000E9E
:1046A000E926050EEA220F0EE926000EEA221D0E6B
:1046B000E926000EEA22010EEE6EED6A01EBE9FF3B
:1046C00002EBEAFF060ED890E936EA36E806FBE18F
:1046D000000EE926050EEA220F0EE926000EEA2258
:1046E0001F0EE926000EEA22010EEE6EED6A01EBC6
:1046F000E9FF02EBEAFF060ED890E936EA36E80653
:10470000FBE1000EE926050EEA220D0EE926000E59
:10471000EA22EECF00F0EFCF01F001EBE9FF02EB70
:10472000EAFF060ED890E936EA36E806FBE1000E0D
:10473000E926050EEA220F0EE926000EEA222D0ECA
:10474000E926000EEA2200C0EEFF01C0EDFF01EBFA
:10475000E9FF02EBEAFF060ED890E936EA36E806F2
:10476000FBE1000EE926050EEA22060EE926000E00
:10477000EA22EF5001E137D1020E00017C5D04E036
:10478000580E01240D6E02D0410E0D6EAAEC03F0FE
:104790000DEB00F00001016B00BF016900C0E6FFF6
:1047A00001C0E6FF750EE66E8A0EE66E000EE66E3E
:1047B000000EE66E020EE66EB0EC70F047E9000EF9
:1047C000E66E020EE66ECAEC71F042E901EBE9FF1B
:1047D00002EBEAFF060ED890E936EA36E806FBE17E
:1047E000000EE926050EEA220F0EE926000EEA2247
:1047F0000B0EE926000EEA22EECFE6FFEECFE6FF33
:1048000001EBE9FF02EBEAFF060ED890E936EA3643
:10481000E806FBE1000EE926050EEA220F0EE92666
:10482000000EEA22090EE926000EEA22EECFE6FF8C
:10483000EECFE6FF5E0EE66E8A0EE66E000EE66EC8
:10484000000EE66E020EE66EB0EC70F049E9000E66
:10485000E66E020EE66ECAEC71F042E9210EE66EDB
:104860009A0EE66E000EE66E4EEC71F043E901EB37
:10487000E9FF02EBEAFF060ED890E936EA36E806D1
:10488000FBE1000EE926050EEA220F0EE926000ED6
:10489000EA220D0EE926000EEA22EECFE6FFEECF69
:1048A000E6FF01EBE9FF02EBEAFF060ED890E936DE
:1048B000EA36E806FBE1000EE926050EEA220F0EB5
:1048C000E926000EEA221B0EE926000EEA22EECFB0
:1048D000E6FFEECFE6FF470EE66E8A0EE66E000EAE
:1048E000E66E000EE66E020EE66EB0EC70F049E980
:1048F000000EE66E020EE66ECAEC71F042E9210E81
:10490000E66E9A0EE66E000EE66E4EEC71F043E92E
:1049100001EBE9FF02EBEAFF060ED890E936EA3632
:10492000E806FBE1000EE926050EEA220F0EE92655
:10493000000EEA22130EE926000EEA22EECFE6FF71
:10494000EECFE6FF01EBE9FF02EBEAFF060ED8909F
:10495000E936EA36E806FBE1000EE926050EEA2212
:104960000F0EE926000EEA22110EE926000EEA22B9
:10497000EECFE6FFEECFE6FF01EBE9FF02EBEAFF49
:10498000060ED890E936EA36E806FBE1000EE92685
:10499000050EEA220F0EE926000EEA22190EE9267C
:1049A000000EEA22EECFE6FFEECFE6FF300EE66E17
:1049B0008A0EE66E000EE66E000EE66E020EE66EE3
:1049C000B0EC70F04BE9000EE66E020EE66ECAEC3B
:1049D00071F042E9210EE66E9A0EE66E000EE66E6A
:1049E0004EEC71F043E9C2D101EBE9FF02EBEAFFC3
:1049F000060ED890E936EA36E806FBE1000EE92615
:104A0000050EEA22060EE926000EEA22EF5001E129
:104A1000ADD104017095020E00017C5D04E0580EDA
:104A200001240D6E02D0410E0D6EAAEC03F01A0E99
:104A3000E66E9A0EE66E000EE66E4EEC71F043E9FD
:104A40000DEB00F00001016B00BF016900C0E6FF43
:104A500001C0E6FF1A0EE66E8A0EE66E000EE66EE6
:104A6000000EE66E020EE66EB0EC70F047E9010E45
:104A7000E66EE66AA0C0E6FFB7EC00F043E9000E80
:104A8000E66E020EE66ECAEC71F042E9210EE66EA9
:104A90009A0EE66E000EE66E4EEC71F043E901EB05
:104AA000E9FF02EBEAFF060ED890E936EA36E8069F
:104AB000FBE1000EE926050EEA220F0EE926000EA4
:104AC000EA220B0EE926000EEA22EECFE6FFEECF39
:104AD000E6FF01EBE9FF02EBEAFF060ED890E936AC
:104AE000EA36E806FBE1000EE926050EEA220F0E83
:104AF000E926000EEA22090EE926000EEA22EECF90
:104B0000E6FFEECFE6FF030EE66E8A0EE66E000EBF
:104B1000E66E000EE66E020EE66EB0EC70F049E94D
:104B2000010EE66E010EE66EE66AB7EC00F043E9B0
:104B3000000EE66E020EE66ECAEC71F042E9210E3E
:104B4000E66E9A0EE66E000EE66E4EEC71F043E9EC
:104B500001EBE9FF02EBEAFF060ED890E936EA36F0
:104B6000E806FBE1000EE926050EEA220F0EE92613
:104B7000000EEA220D0EE926000EEA22EECFE6FF35
:104B8000EECFE6FF01EBE9FF02EBEAFF060ED8905D
:104B9000E936EA36E806FBE1000EE926050EEA22D0
:104BA0000F0EE926000EEA221B0EE926000EEA226D
:104BB000EECFE6FFEECFE6FFEC0EE66E890EE66E78
:104BC000000EE66E000EE66E020EE66EB0EC70F0C1
:104BD00049E9010EE66E020EE66EE66AB7EC00F0F9
:104BE00043E9000EE66E020EE66ECAEC71F042E991
:104BF000210EE66E9A0EE66E000EE66E4EEC71F039
:104C000043E901EBE9FF02EBEAFF060ED890E93633
:104C1000EA36E806FBE1000EE926050EEA220F0E51
:104C2000E926000EEA22130EE926000EEA22EECF54
:104C3000E6FFEECFE6FF01EBE9FF02EBEAFF060E2F
:104C4000D890E936EA36E806FBE1000EE926050EC3
:104C5000EA220F0EE926000EEA22110EE926000EC6
:104C6000EA22EECFE6FFEECFE6FF01EBE9FF02EB33
:104C7000EAFF060ED890E936EA36E806FBE1000EB8
:104C8000E926050EEA220F0EE926000EEA22190E89
:104C9000E926000EEA22EECFE6FFEECFE6FF300E69
:104CA000E66E8A0EE66E000EE66E000EE66E020EF0
:104CB000E66EB0EC70F04BE9010EE66E030EE66EA8
:104CC000E66AB7EC00F043E9000EE66E020EE66E0F
:104CD000CAEC71F042E9210EE66E9A0EE66E000E05
:104CE000E66E4EEC71F043E9010EE66E010EE66EE3
:104CF0008CEC6CF042E9020E00017C5D04E0580E81
:104D000001240D6E02D0410E0D6EAAEC03F00DEBE6
:104D100000F00001016B00BF016900C0E6FF01C0A7
:104D2000E6FFC00EE66E890EE66E000EE66E000E21
:104D3000E66E020EE66EB0EC70F047E9000EE66E2D
:104D4000020EE66ECAEC71F042E9020EE66EFCEC71
:104D50005EF041E90400040170A5F7D7E66A010E90
:104D6000E66E8CEC6CF042E9F2EC5EF0D950010F8B
:104D7000E96EDACFEAFFEE2A000EEE22EE22EE22F4
:104D8000B4EF21F072EC6CF0060EE66EE66AE66AAD
:104D9000E66A56EC01F044E98B9200017B6B00015E
:104DA000806BF2EC5EF00001865101E032D1016AC5
:104DB000026A036A046A050EE66EFCEC5EF041E9E5
:104DC000AB0EE66E890EE66E000EE66E000EE66E27
:104DD000020EE66EB0EC70F045E9010EE66EE66A92
:104DE000A0C0E6FFB7EC00F043E9040170A59AD03B
:104DF0008F80AAEC03F08D0EE66E890EE66E000E33
:104E0000E66E000EE66E020EE66EB0EC70F045E95E
:104E1000000EE66E020EE66ECAEC71F042E9010E7B
:104E2000E66EE66AA0C0E6FFB7EC00F043E9060EC6
:104E3000E66EE66AE66AE66A56EC01F044E9F2ECF0
:104E40005EF0F60EE66E910EE66E000EE66E000E59
:104E5000E66E020EE66EB0EC70F045E9010EE66E0D
:104E6000010EE66EE66AB7EC00F043E9F60EE66E78
:104E7000910EE66E000EE66E000EE66E020EE66E17
:104E8000B0EC70F045E9010EE66E020EE66EE66AE1
:104E9000B7EC00F043E9F60EE66E910EE66E000EFA
:104EA000E66E000EE66E020EE66EB0EC70F045E9BE
:104EB000010EE66E030EE66EE66AB7EC00F043E91B
:104EC000020EE66E90EC10F041E9AAEC03F0700ED1
:104ED000E66E890EE66E000EE66E000EE66E020EBF
:104EE000E66EB0EC70F045E9000EE66E020EE66E7E
:104EF000CAEC71F042E9010EE66EE66AA0C0E6FF78
:104F0000B7EC00F043E9060EE66EE66AE66AE66A8A
:104F100056EC01F044E9A00E016E860E026E010E01
:104F2000036E046A0400040104017051040B1DE1C6
:104F3000D950010FE96EDACFEAFFEFCF00F0EE2A89
:104F4000000EEFCF01F0EE22EFCF02F0EE22EFCF16
:104F500003F0EF22E80E0001005D030E0159000E80
:104F60000259000E035901E22BD7520EE66E890E4C
:104F7000E66E000EE66E000EE66E020EE66EB0EC19
:104F800070F045E9010EE66EE66AE66AB7EC00F0FD
:104F900043E9F60EE66E910EE66E000EE66E000E2A
:104FA000E66E020EE66EB0EC70F045E9010EE66EBC
:104FB000010EE66EE66AB7EC00F043E9F60EE66E27
:104FC000910EE66E000EE66E000EE66E020EE66EC6
:104FD000B0EC70F045E9010EE66E020EE66EE66A90
:104FE000B7EC00F043E9F60EE66E910EE66E000EA9
:104FF000E66E000EE66E020EE66EB0EC70F045E96D
:10500000010EE66E030EE66EE66AB7EC00F043E9C9
:1050100000D000017B6B0001806B060EE66EE66A35
:10502000E66AE66A56EC01F044E9F2EC5EF0C6ECA2
:1050300013F0AAEC03F0D40EE66E8B0EE66E000EB3
:10504000E66E4EEC71F043E952E9E7CFD9FF12006A
:10505000F4EC33F000018C5151E0EBC4E6FFECC4FA
:10506000E6FFE9C4E6FFEAC4E6FFE7C4E6FFE8C4FA
:10507000E6FFA9EC31F0BBEC31F097EC31F01D0EFE
:10508000E66E890EE66E000E69EC2CF0A0EC2FF0B7
:10509000B2EC31F0C4EC31F0A0EC31F0FA0EE66E77
:1050A000880EE66E000E69EC2CF051E947EC30F00A
:1050B00098C5E6FF99C5E6FF92C5E6FF93C5E6FFF2
:1050C00025EC33F058C5E6FF59C5E6FF52C5E6FFAB
:1050D00053C5E6FF8BEC2EF018C5E6FF19C5E6FFB9
:1050E00012C5E6FF13C5E6FFE2EC32F0BC0EE66E39
:1050F000880EE66E000EEDDBA0EC2FF0120005012D
:10510000C80EC26FFBEC2DF0B4EC2FF027E02B0E95
:10511000E66EE4EC6FF041E9B4EC2FF0FDE1FBEC5E
:105120002DF02B0EE66EE4EC6FF041E9B4EC2FF0BD
:10513000FDE10C0EE66E55EC72F041E9B4EC2FF097
:10514000FDE1010EE66E55EC72F041E9FBEC2DF04D
:105150000001010EF66F0501180EC26F120000016A
:10516000806B120EE66E220EE66ED2EC6EF042E915
:10517000A70EE66E880EE66E000EE66E000EE66E78
:10518000020EE66EB0EC70F045E9010EE66EE66ADE
:10519000E66AB7EC00F043E9010EE66E010EE66E3A
:1051A000E66AB7EC00F043E9010EE66E020EE66E29
:1051B000E66AB7EC00F043E9010EE66E030EE66E18
:1051C000E66AB7EC00F043E9120EE66E220EE66ED8
:1051D00083EC6FF042E98F9092DF8B68FCAE15D0C4
:1051E000FC9E210EE66E9A0EE66E000EE66E4EEC0A
:1051F00071F043E9AAEC03F0820EE66E880EE66ECB
:10520000000EE66E4EEC71F043E9FCAC15D0FC9C50
:10521000210EE66E9A0EE66E000EE66E4EEC71F012
:1052200043E9AAEC03F0580EE66E880EE66E000E17
:10523000E66E4EEC71F043E90001735114E0210E6B
:10524000E66E9A0EE66E000EE66E4EEC71F043E9E5
:10525000AAEC03F02F0EE66E880EE66E000EE66EE8
:105260004EEC71F043E90001745114E0210EE66E3A
:105270009A0EE66E000EE66E4EEC71F043E9AAEC73
:1052800003F0060EE66E880EE66E000EE66E4EEC3D
:1052900071F043E9140EE66EE66AEE0EE66E870ED6
:1052A000E66E000EE66E000EE66E020EE66E9EECF8
:1052B0006EF047E9010EE66EE66AE66AB7EC00F0CA
:1052C00043E91C0EE66E9A0EE66E000EE66E4EEC9C
:1052D00071F043E9140EE66EE66A9DC0E6FF9EC0DB
:1052E000E6FF9FC0E6FF000EE66E020EE66E9EEC45
:1052F0006EF047E9010EE66E010EE66EE66AB7EC67
:1053000000F043E9000EE66E020EE66ECAEC71F0A4
:1053100042E91A0EE66E9A0EE66E000EE66E4EEC4E
:1053200071F043E9140EE66EE66A9AC0E6FF9BC090
:10533000E6FF9CC0E6FF000EE66E020EE66E9EECF7
:105340006EF047E9000EE66E020EE66ECAEC71F0F2
:1053500042E9010EE66E020EE66EE66AB7EC00F078
:1053600043E9140EE66EE66A040EE66E9A0EE66EE9
:10537000000EE66E000EE66E020EE66E9EEC6EF01D
:1053800047E9000EE66E020EE66ECAEC71F042E9E5
:10539000210EE66E9A0EE66E000EE66E4EEC71F091
:1053A00043E9010EE66E030EE66EE66AB7EC00F026
:1053B00043E9AAEC03F0CF0EE66E870EE66E000E10
:1053C000E66E4EEC71F043E983A20CD00001010EB1
:1053D0008C6FB70EE66E870EE66E000EE66E4EEC34
:1053E00071F043E983A039D0AAEC03F09E0EE66E7B
:1053F000870EE66E000EE66E4EEC71F043E9000E8D
:10540000E66EE66A000EE66EE66A010EE66EE66A93
:10541000AEEC6DF046E9AAEC03F0810EE66E870E65
:10542000E66E000EE66E4EEC71F043E90501F46B9A
:105430000F0E0501F45D11E2080EE66EE66A050145
:10544000F451E66EE66A0F0EE66E7F0EE66EAEEC87
:105450006DF046E90501F42BEBD7AAEC03F0610EE1
:10546000E66E870EE66E000EE66E4EEC71F043E9D6
:10547000000EE66EE66A000EE66EE66AE0EC6DF09F
:1054800044E959080CE1000EE66EE66A020EE66E8B
:10549000E66AE0EC6DF044E90501F36F22D0AAEC76
:1054A00003F03E0EE66E870EE66E000EE66E4EECE4
:1054B00071F043E9000EE66EE66A000EE66EE66AFB
:1054C000010EE66EE66AAEEC6DF046E9AAEC03F07A
:1054D0001E0EE66E870EE66E000EE66E4EEC71F066
:1054E00043E9AAEC03F0050EE66E870EE66E000EA9
:1054F000E66E4EEC71F043E9080EE66EE66A000EC9
:10550000E66EE66AE0EC6DF044E959081FE105013A
:10551000F46B0F0E0501F45D18E20501F451E66E1F
:10552000E66A0A0EE66EE66AE0EC6DF044E9E66EC5
:105530000501F451EA6AE50FE96E000EEA22E55230
:10554000E750EF6E0501F42BE4D734D0AAEC03F05A
:10555000E90EE66E860EE66E000EE66E4EEC71F01B
:1055600043E90501F46B0F0E0501F45D18E2080E26
:10557000E66EE66A0501F451E66EE66A0F0EE66E27
:105580000501F451EA6AE50FE96E000EEA22EFCF59
:10559000E6FFAEEC6DF046E90501F42BE4D7AAEC8A
:1055A00003F0D00EE66E860EE66E000EE66E4EEC52
:1055B00071F043E983A403D04EEC0AF0FFD7B8ECB6
:1055C00041F0AAEC03F0B70EE66E860EE66E000E12
:1055D000E66E4EEC71F043E9050EE66EE66AE66AA9
:1055E000E66A56EC01F044E9F4EC33F083A00BD00A
:1055F000AAEC03F0A10EE66E860EE66E000EE66ED5
:105600004EEC71F043E983A60ED0AAEC03F0840EB1
:10561000E66E860EE66E000EE66E4EEC71F043E925
:1056200000010F0EF76F740EE66E030EE66E04C6F1
:10563000E6FF05C6E6FF06C6E6FF07C6E6FFEFEC97
:1056400007F046E97B0EE66E030EE66E08C6E6FF3F
:1056500009C6E6FF0AC6E6FF0BC6E6FFEFEC07F059
:1056600046E97B0EE66E030EE66E740EE66E030EE2
:10567000E66E6B0EE66E860EE66E000EE66E000EB1
:10568000E66E020EE66EB0EC70F049E9010EE66ED1
:10569000E66AE66AB7EC00F043E98350010BE66E78
:1056A000E66A8350020B01E0010EE66EE66A835063
:1056B000040B01E0010EE66EE66A8350080B01E080
:1056C000010EE66EE66A8350100B01E0010EE66EF5
:1056D000E66A8350200B01E0010EE66EE66A835015
:1056E000400B01E0010EE66EE66A8350800B01E09C
:1056F000010EE66EE66A420EE66E860EE66E000E5D
:10570000E66E000EE66E020EE66EB0EC70F055E945
:10571000010EE66E010EE66EE66AB7EC00F043E9B4
:10572000AAEC03F0000EE66E020EE66ECAEC71F013
:1057300042E92BEC03F0050EE66EE66AE66AE66ADD
:1057400056EC01F044E9F4EC33F004C6E6FF05C67C
:10575000E6FFDCEC72F042E993EC6FF08B6A00013B
:10576000846B0001886B00017A6B00017C51E66E4E
:10577000E66AEAEC0DF042E97CC0E6FF90EC68F0E6
:1057800041E90001010E676F740EE66E030EE66ECE
:1057900004C6E6FF05C6E6FF06C6E6FF07C6E6FF47
:1057A000EFEC07F046E97B0EE66E030EE66E08C6E8
:1057B000E6FF09C6E6FF0AC6E6FF0BC6E6FFEFEC0A
:1057C00007F046E910C4E6FF11C4E6FF12C4E6FF85
:1057D00013C4E6FF00C4E6FF01C4E6FF02C4E6FF0F
:1057E00003C4E6FF7B0EE66E030EE66E740EE66EF5
:1057F000030EE66E210EE66E860EE66E000EE66E77
:10580000000EE66E020EE66EB0EC70F051E9010E8D
:10581000E66EE66AE66AB7EC00F043E9AAEC03F04C
:10582000000EE66E020EE66ECAEC71F042E92BEC59
:1058300003F0280EE66E01EC5FF041E9050EE66E1E
:10584000E66AE66AE66A56EC01F044E932EC0BF0EF
:10585000010EE66E010EE66EE66AE66AE66A90EC16
:1058600002F045E9F4EC33F063EC6CF0000905E07C
:105870000001655102E0B8EC41F04CEC11F004007D
:105880000001815112E0DBEC13F0AAEC0EF00401F0
:10589000D66FD60EE66E040EE66EEAEC0DF042E927
:1058A000D6C4E6FFBEEC0AF041E904000EEC01F0BC
:1058B0006DEC0BF00001835102E00001A26BD2D726
:1058C0001200400D2AEC33F0000EE926050EEA2204
:1058D0001200E66ED5EC32F0B0EF70F0D2DBD7DB21
:1058E000210EE66E9A0EE66E000EE66E4EEF71F039
:1058F000AEEC30F09BEC30F04DEC63F0E552E5CFD0
:1059000007F0E5CF06F0E5CF05F0E7CF04F00001A2
:105910000451005D0001E16F0001055101590001D2
:10592000E26F0001065102590001E36F00010751C7
:1059300003590001E46F12003EEC33F0050E4FEF07
:1059400032F018C5E6FF19C5E6FFAFEC32F02AC504
:10595000E6FF2BC5E6FFC3EC30F028C5E6FF29C5FE
:10596000E6FF34EF61F058C5E6FF59C5E6FFAFEC3E
:1059700032F06AC5E6FF6BC5E6FFC3EC30F068C5E0
:10598000E6FF69C5E6FF34EF61F020EC62F0E55216
:10599000E5CFC6F0E5CFC5F0E5CFC4F0E7CFC3F063
:1059A000CDEC31F0F9EF30F0400DF3CF00F0F4CF53
:1059B00001F0000E00010027050E0123D6EC31F0A6
:1059C00009EC6BF042E9120098C5E6FF99C5E6FFC5
:1059D000AFEC32F0AAC5E6FFABC5E6FFD4DBA8C545
:1059E000E6FFA9C5E6FF34EF61F0F60EE66E910E14
:1059F000E66E000E1200E552E5CF03F0E5CF02F0AF
:105A0000E5CF01F0E7CF00F0120063DBE552E5CF10
:105A100013F4E5CF12F4E5CF11F4E7CF10F4120040
:105A2000E3DBC7EF30F0BEEC07F044E9FCC300F065
:105A3000FDC301F0FEC302F0FFC303F0120047E90B
:105A400047EF30F0D9CFE6FFE1CFD9FF12000501D3
:105A5000E151E12BE25D120097EC31F0A0EF31F063
:105A6000FF51060D2AEC33F0A00EE926030EEA22C0
:105A7000120041E9E7CFD9FF120062EC31F0D6EC19
:105A800031F0E66ED5EC32F09EEC6EF047E9120094
:105A900002EBE9FF03EBEAFFD890E936EA36D8904B
:105AA000E936EA36CA0EE926030EEA22120045E973
:105AB000BBEF32F0030EE66E29EC6DF041E9120007
