:020000040000FA
:060000009FEF71F01200F9
:020006001200E6
:0600080011EF56F012009A
:02000E00C250DE
:08001000020B01E0010E1200D9
:060018006BEF5CF012002A
:02001E000600DA
:10002000BDE40000FC04000002000000B9E4000090
:10003000FC0100000400000024E4000000060000B1
:100040009500000012E40000EA0400001200000025
:1000500010E40000FE03000002000000E0E30000E6
:08006000CE0300003000000097
:08006800B3EC2EF0E652FE0E8F
:10007000DB50050802E2FE0EDB6AFD0EDB5003E0FA
:1000800004EC30F0EF6AFE0EDBCFD3F3E80E036E24
:10009000980E046E000E41EC31F0140E86EC30F038
:1000A000E8EC32F0026E04EC30F0EFCF09F00A6AAF
:1000B0000B6A00500924F36E01500A20F46E0250BE
:1000C0000B20F86EF4CFF7FFF3CFF6FF0800F550E2
:1000D000DF6E04EC30F0EF2AEFCF00F0016A026A25
:1000E0009DEC30F0E80E066E980E076E000E086E5E
:1000F000FE0EDBCF09F00A6A0B6A140E306E316A0D
:10010000326A09C02BF00AC02CF00BC02DF0A9EC0C
:1001100064F028C009F029C00AF02AC00BF006508C
:100120002824036E07502920046E08502A20056EEB
:1001300003C0E6FF04C0E6FFE66E29EC6BF01EECA0
:1001400032F0E7CF02F0E552E7CF01F0E552E7CF1A
:1001500000F02B50005C2C5001582D50025803E346
:1001600004EC30F0EF6ADF50E552B8EF2EF0B3EC5C
:100170002EF0060192515CE0FC0EDB502AE0FD0EF1
:10018000DBCFE6FFFE0EDB50E552E7240301D46F20
:1001900000EC34F0A70EE66E970EE66E000EE66EEB
:1001A00027EC2FF07CEC6BF061EC31F000EC34F0DC
:1001B00059EC33F0030127EC2FF04EEC6BF0026E9C
:1001C000060EE15E0250030199EC32F0140E23ECAE
:1001D00031F0FD0EDB50030A0CE0010A08E0030ACF
:1001E00004E0010A09E1E66A08D0400E03D0140ECB
:1001F00001D0540EE66E01D0E66A38EC6FF0E5529D
:10020000FD0EDB5006013C250301D46F06010A51A7
:100210000FE035EC31F0FDE1030127EC2FF04FEC5E
:1002200070F0E552E55235EC31F0FDE1010E90162B
:10023000B8EF2EF006010E5104E063EC41F0060128
:100240000E6B125107E0126B945102E0000E01D0C8
:10025000010E946F155104E066EC12F00601156B67
:10026000085103E02BDB0601086B115104E0DEECC2
:1002700007F00601116B0F5103E042DB06010F6B23
:100280001200D9CFE6FFE1CFD9FF0501466B476BDE
:10029000486B496BD950FB0FE96EFF0EDA20EA6E0E
:1002A00005014651EE5C05014751EE5805014851E4
:1002B000EE5805014951EE5809E30000040005011C
:1002C000462B000E472348234923E4D7E552E7CFC6
:1002D000D9FF1200D9CFE6FFE1CFD9FF030EE66EBA
:1002E000EEEC69F0E552E6C04AF5E7C04BF5E8C030
:1002F0004CF5E9C04DF53BEC6AF0D950FB0FE96EC7
:10030000FF0EDA20EA6E05014A51EE240501526F14
:1003100005014B51EE200501536F05014C51EE20B4
:100320000501546F05014D51EE200501556F030E77
:10033000E66EEEEC69F0E552E6C04EF5E7C04FF52B
:10034000E8C050F5E9C051F53BEC6AF004004E0EF0
:10035000E96E050EEA6E05015251EE5C050153513E
:10036000EE5805015451EE5805015551EE58DFE3A2
:10037000E552E7CFD9FF120079EC32F019E003EC37
:100380002FF0E6C056F5E7C057F5E8C058F5E9C0CC
:1003900059F54AEC2FF005015651EE245E6F575186
:1003A000EE205F6F5851EE20606F5951EE20616F63
:1003B00003EC2FF0E6C05AF5E7C05BF5E8C05CF54A
:1003C000E9C05DF53BEC6AF05A0EE96E050EEA6E87
:1003D00005015E51EE5C5F51EE586051EE5861517F
:1003E000EE5802E2000E01D0010EB8EF2EF079ECCB
:1003F00032F019E003EC2FF0E6C062F5E7C063F5D8
:10040000E8C064F5E9C065F54AEC2FF005016251DA
:10041000EE246A6F6351EE206B6F6451EE206C6FB7
:100420006551EE206D6F03EC2FF0E6C066F5E7C076
:1004300067F5E8C068F5E9C069F53BEC6AF0660E5F
:10044000E96E050EEA6E05016A51EE5C6B51EE58DD
:100450006C51EE586D51EE5802E2000E01D0010EC3
:10046000B8EF2EF079EC32F019E003EC2FF0E6C093
:100470006EF5E7C06FF5E8C070F5E9C071F54AECBC
:100480002FF005016E51EE24766F6F51EE20776FDD
:100490007051EE20786F7151EE20796F03EC2FF0E0
:1004A000E6C072F5E7C073F5E8C074F5E9C075F50C
:1004B0003BEC6AF0720EE96E050EEA6E05017651AC
:1004C000EE5C7751EE587851EE587951EE5802E2D1
:1004D000000E01D0010EB8EF2EF079EC32F019E0E9
:1004E00003EC2FF0E6C07AF5E7C07BF5E8C07CF5B9
:1004F000E9C07DF54AEC2FF005017A51EE24826FB8
:100500007B51EE20836F7C51EE20846F7D51EE2075
:10051000856F03EC2FF0E6C07EF5E7C07FF5E8C0FD
:1005200080F5E9C081F53BEC6AF07E0EE96E050EC0
:10053000EA6E05018251EE5C8351EE588451EE580B
:100540008551EE5802E2000E01D0010EB8EF2EF0F8
:1005500079EC32F019E003EC2FF0E6C086F5E7C045
:1005600087F5E8C088F5E9C089F54AEC2FF0050168
:100570008651EE248E6F8751EE208F6F8851EE20CA
:10058000906F8951EE20916F03EC2FF0E6C08AF551
:10059000E7C08BF5E8C08CF5E9C08DF53BEC6AF05F
:1005A0008A0EE96E050EEA6E05018E51EE5C8F51E2
:1005B000EE589051EE589151EE5802E2000E01D0E3
:1005C000010EB8EF2EF079EC32F019E003EC2FF0C9
:1005D000E6C092F5E7C093F5E8C094F5E9C095F55B
:1005E0004AEC2FF005019251EE249A6F9351EE20C0
:1005F0009B6F9451EE209C6F9551EE209D6F03EC04
:100600002FF0E6C096F5E7C097F5E8C098F5E9C089
:1006100099F53BEC6AF0960EE96E050EEA6E05015F
:100620009A51EE5C9B51EE589C51EE589D51EE58FC
:1006300002E2000E01D0010EB8EF2EF0000005011D
:100640009E6B0301CE5105019E5D04E20000050191
:100650009E2BF7D712000F0EE66E1CEC71F0E552E0
:100660001200050EE66E1CEC71F0E5521200B3ECC0
:100670002EF06CA2FED7FE0EDBCFE6FF33EC71F05E
:10068000E552B8EF2EF0050E98EF2EF006010A5154
:1006900001E1120035EC31F0FDE11200B3EC2EF077
:1006A000F90EDBCF00F0FA0EDBCF01F001340AE2E5
:1006B00000500808000E015405E288EC2FF0CBEC46
:1006C00030F0CBD048EC31F0EE50ED1009E00601EF
:1006D0008F0E2E6FC20E2F6F750E306F3D0E05D030
:1006E00006012E6B2F6B306B3E0E316FDAEC2EF065
:1006F000EECF08F0EECF09F0EECF0AF0EFCF0BF01F
:100700001DEC35F008C02BF009C02CF00AC02DF00C
:100710000BC02EF0E2EC63F0F1EC32F0FB0EDBCF1D
:1007200018F0FC0EDBCF19F0FD0EDBCF1AF0FE0E39
:10073000DBCF1BF01DEC35F018C02BF019C02CF0EE
:100740001AC02DF01BC02EF0E2EC63F02BC014F0A9
:100750002CC015F02DC016F02EC017F0DAEC2EF0DC
:10076000EECF20F0EECF21F0EECF22F0EFCF23F04E
:100770001DEC35F020C02BF021C02CF022C02DF054
:1007800023C02EF0E2EC63F02BC01CF02CC01DF057
:100790002DC01EF02EC01FF0D4EC30F014C02BF092
:1007A00015C02CF016C02DF017C02EF0F8EC62F03A
:1007B0002BC010F02CC011F02DC012F02EC013F081
:1007C0002EC630F02FC631F030C632F031C633F0CD
:1007D000E2EC63F02BC00CF02CC00DF02DC00EF03D
:1007E0002EC00FF0D4EC30F094EC33F007C02EF0B4
:1007F000F9EC62F0FDEC31F0BCEC32F08FEC63F020
:100800002BC032F62CC033F62DC034F62EC035F690
:10081000DAEC2EF02BC0EEFF33C6EEFF34C6EEFF4F
:1008200035C6EEFF48EC31F0FF0EEE180EE1FF0E7C
:10083000ED180BE10601326B336B346B356BDAEC80
:100840002EF0EE6AEE6AEE6AEE6A32C62AF033C61F
:100850002BF034C62CF035C62DF0B8EF2EF0040086
:10086000A2C0E6FFA3C0E6FFA4C0E6FFA5C0E6FF66
:10087000B3DBE552E552E552E552F3CF00F0F4CF99
:1008800001F000C0E6FF01C0E6FFA00EE66E970E85
:10089000E66E000EE66E200EE66E030EE66E70EC5F
:1008A0006CF0026E070EE15E0250200EE66E030E43
:1008B000E66E12EC6FF0E552E5521200D0DF6F0EDB
:1008C000E66EA10EE66E000E52EC2EF00501236BD3
:1008D000050123510BE10A0EC1EC32F0D2DC1EEC13
:1008E00032F0C0EC35F07CEC5CF0F2D7020E235D08
:1008F000B6DFCD0EE66EA10EE66E000E52EF2EF0C4
:1009000004009D0EE66E970EE66E000EE66E000E7B
:10091000E66E020EE66E70EC6CF0006E050EE15EA7
:100920000050000EE66E020EE66E12EC6FF0E5521D
:10093000E55295DF980EE66E970EE66E000EE66EB7
:1009400058EC6EF0E552E552E55239C6E6FF3AC67C
:10095000E6FF3BC6E6FF000EE66E020EE66E10EC0A
:100960006BF0006E050EE15E0050000EE66E020EAA
:10097000E66E12EC6FF0E552E552960EE66E970EBB
:10098000E66E000EE66E58EC6EF0E552E552E5526A
:1009900036C6E6FF37C6E6FF38C6E6FF000EE66E4F
:1009A000020EE66E10EC6BF0006E050EE15E00507C
:1009B000000EE66E020EE66E12EC6FF0E552E552A6
:1009C000800EE66E970EE66E000EE66E000EE66E88
:1009D000020EE66E10EC6BF0006E050EE15E00504C
:1009E000000EE66E020EE66E12EC6FF0E552E55276
:1009F00006012351E66EE66A06010451E66EE66AD8
:100A0000AEC0E6FFAFC0E6FFB0C0E6FFB1C0E6FF94
:100A1000AAC0E6FFABC0E6FFACC0E6FFADC0E6FF94
:100A200098C0E6FF99C0E6FF61C0E6FF62C0E6FF3E
:100A300063C0E6FF64C0E6FF8350800B01E0010E57
:100A4000E66EE66A8350400B01E0010EE66EE66A50
:100A50008350200B01E0010EE66EE66A8350100B16
:100A600001E0010EE66EE66A8350080B01E0010E1C
:100A7000E66EE66A8350040B01E0010EE66EE66A5C
:100A80008350020B01E0010EE66EE66A8350010B13
:100A9000E66EE66A06010151E66EE66AF10EE66E62
:100AA000960EE66E000EE66E000EE66E020EE66E26
:100AB00070EC6CF0006E290EE15E0050000EE66EE8
:100AC000020EE66E12EC6FF0E552E5520001FA51AB
:100AD000E66EE66A7850E66EE66ABEC0E6FFBFC024
:100AE000E6FFC0C0E6FFC1C0E6FFE6C02AF0E7C0EF
:100AF0002BF0E8C02CF0E9C02DF0A2C02FF0A3C06D
:100B000030F0A4C031F0A5C032F080EC6FF02AC004
:100B100000F02BC001F02CC002F02DC003F000C08B
:100B2000E6FF01C0E6FF02C0E6FF03C0E6FFE6C045
:100B3000E6FFE7C0E6FFE8C0E6FFE9C0E6FFE2C087
:100B4000E6FFE3C0E6FFE4C0E6FFE5C0E6FFA6C0BF
:100B5000E6FFA7C0E6FFA8C0E6FFA9C0E6FF9EC06B
:100B6000E6FF9FC0E6FFA0C0E6FFA1C0E6FFB6C05B
:100B7000E6FFB7C0E6FFB8C0E6FFB9C0E6FFDEC0DB
:100B8000E6FFDFC0E6FFE0C0E6FFE1C0E6FFDAC057
:100B9000E6FFDBC0E6FFDCC0E6FFDDC0E6FFC2C06B
:100BA000E6FFC3C0E6FFC4C0E6FFC5C0E6FFA2C0C3
:100BB000E6FFA3C0E6FFA4C0E6FFA5C0E6FF320E35
:100BC000E66E960EE66E000EE66E000EE66E020E05
:100BD000E66E70EC6CF0046E350EE15E0450000EB3
:100BE000E66E020EE66E12EC6FF0E552E55229C594
:100BF000E6FF2AC5E6FF2BC5E6FF2CC5E6FFBAC017
:100C0000E6FFBBC0E6FFBCC0E6FFBDC0E6FFC6C056
:100C1000E6FFC7C0E6FFC8C0E6FFC9C0E6FFCAC01E
:100C2000E6FFCBC0E6FFCCC0E6FFCDC0E6FFCEC0FE
:100C3000E6FFCFC0E6FFD0C0E6FFD1C0E6FFD2C0DE
:100C4000E6FFD3C0E6FFD4C0E6FFD5C0E6FFD30E73
:100C5000E66E950EE66E000EE66E000EE66E020E75
:100C6000E66E70EC6CF0006E1D0EE15E0050000E42
:100C7000E66E020EE66E12EC6FF0E552E5520501EB
:100C80009F6B030E05019F5D01E396D105019F5106
:100C90003A0DF3CFE9FFF4CFEAFF000EE926040E88
:100CA000EA22060EE926000EEA22EF5001E181D188
:100CB00005019F513A0DF3CFE9FFF4CFEAFF000E93
:100CC000E926040EEA220D0EE926000EEA22170E8E
:100CD000E926000EEA22EECFE6FFEFCFE6FF0501A0
:100CE0009F513A0DF3CFE9FFF4CFEAFF000EE9265A
:100CF000040EEA220D0EE926000EEA22150EE92660
:100D0000000EEA22EECFE6FFEFCFE6FF05019F518E
:100D10003A0DF3CFE9FFF4CFEAFF000EE926040E07
:100D2000EA220D0EE926000EEA22290EE926000E1F
:100D3000EA22EECFE6FFEFCFE6FF05019F513A0D25
:100D4000F3CFE9FFF4CFEAFF000EE926040EEA2212
:100D50000D0EE926000EEA22270EE926000EEA22F1
:100D6000EECFE6FFEFCFE6FF05019F513A0DF3CF3F
:100D7000E9FFF4CFEAFF000EE926040EEA220D0E89
:100D8000E926000EEA22090EE926000EEA22EECF3D
:100D9000E6FFEFCFE6FF05019F513A0DF3CFE9FFE4
:100DA000F4CFEAFF000EE926040EEA220D0EE92632
:100DB000000EEA22110EE926000EEA22EECFE6FF2F
:100DC000EFCFE6FF05019F513A0DF3CFE9FFF4CFD6
:100DD000EAFF000EE926040EEA220D0EE926000EB7
:100DE000EA22130EE926000EEA22EECFE6FFEFCF4D
:100DF000E6FF05019F513A0DF3CFE9FFF4CFEAFF7B
:100E0000000EE926040EEA220D0EE926000EEA2263
:100E1000050EE926000EEA22EECFE6FFEFCFE6FF51
:100E200005019F513A0DF3CFE9FFF4CFEAFF000E21
:100E3000E926040EEA220D0EE926000EEA22030E30
:100E4000E926000EEA22EECFE6FFEFCFE6FF05012E
:100E50009F513A0DF3CFE9FFF4CFEAFF000EE926E8
:100E6000040EEA220D0EE926000EEA22EE52EECF23
:100E7000E6FFEFCFE6FF05019F51E66EE66A5B0EE7
:100E8000E66E950EE66E000EE66E000EE66E020E43
:100E9000E66E70EC6CF0006E1B0EE15E0050000E12
:100EA000E66E020EE66E12EC6FF0E552E5520501B9
:100EB0009F513A0DF3CFE9FFF4CFEAFF000EE92688
:100EC000040EEA220D0EE926000EEA221F0EE92684
:100ED000000EEA22EECF02F0EECF03F0EECF04F0E8
:100EE000EFCF05F0306A316A7A0E326E440E336EFF
:100EF00002C02BF003C02CF004C02DF005C02EF072
:100F0000E2EC63F0F2EC64F02CC000F02DC001F0D4
:100F100000C0E6FF01C0E6FF05019F513A0DF3CF87
:100F2000E9FFF4CFEAFF000EE926040EEA220D0ED7
:100F3000E926000EEA22230EE926000EEA22EECF71
:100F400008F0EECF09F0EECF0AF0EFCF0BF0306AE9
:100F5000316A7A0E326E440E336E08C02BF009C02F
:100F60002CF00AC02DF00BC02EF0E2EC63F0F2EC96
:100F700064F02CC006F02DC007F006C0E6FF07C0E5
:100F8000E6FF3A0EE66E950EE66E000EE66E000E79
:100F9000E66E020EE66E70EC6CF00C6E090EE15E11
:100FA0000C50000EE66E020EE66E12EC6FF0E5528B
:100FB000E55205019F2B65D604001200760EE66E01
:100FC000A20EE66E000E52EC2EF0C00EE66EA20EE1
:100FD000E66E000E52EF2EF0B3EC2EF01FEC30F068
:100FE00002E2BAEC2FF0FB0EDBCFDDF3FC0EDBCF21
:100FF000DEF3FD0EDBCFDFF3FE0EDBCFE0F3DDC370
:10100000D5F3DEC3D6F3DFC3D7F3E0C3D8F35EEC8A
:1010100033F0DDEC30F0E0C32DF080EC6FF02AC04F
:10102000D5F32BC0D6F32CC0D7F32DC0D8F35EEC8C
:1010300033F0E4EC2FF0DDC3D9F3DEC3DAF3DFC322
:10104000DBF3DC6F3C0E2F6E306ADDEC30F0DCC37E
:101050002DF080EC6FF02AC0D9F32BC0DAF32CC04E
:10106000DBF32DC0DCF33C0E2F6E306AE4EC2FF086
:10107000DDC3E6FFDEC3E6FFDFC3E6FFE66ED9C3EE
:10108000E6FFDAC3E6FFDBC3E6FFDCC3E6FFD5C35A
:10109000E6FFD6C3E6FFD7C3E6FFD8C3E6FF280EB8
:1010A000E66E950EE66E000EE6EC30F0110ECAEF1D
:1010B00032F0B3EC2EF01FEC30F002E2BAEC2FF07D
:1010C000FB0EDBCFE9F3FC0EDBCFEAF3FD0EDBCF4B
:1010D000EBF3FE0EDBCFECF3E9C3E1F3EAC3E2F39B
:1010E000EBC3E3F3ECC3E4F35EEC33F0EFEC30F08E
:1010F000ECC32DF080EC6FF02AC0E1F32BC0E2F3DB
:101100002CC0E3F32DC0E4F35EEC33F0F4EC2FF0ED
:10111000E9C3E5F3EAC3E6F3EBC3E7F3E86F3C0E9C
:101120002F6E306AEFEC30F0E8C32DF080EC6FF0FA
:101130002AC0E5F32BC0E6F32CC0E7F32DC0E8F39B
:101140003C0E2F6E306AF4EC2FF0E5C3E6FFE6C3E9
:10115000E6FFE7C3E6FFE8C3E6FFE1C3E6FFE2C35D
:10116000E6FFE3C3E6FFE4C3E6FF1C0EE66E950E62
:10117000E66E000EE6EC30F00D0ECAEF32F0B3EC86
:101180002EF0FE0EDBCF01F0800E011407E04FECD5
:1011900031F0006C011E000E012202D04FEC31F044
:1011A00000C0F3FF01C0F4FFB8EF2EF0B3EC2EF057
:1011B000D9EC2FF002E62BEC30F00BE288EC2FF0AC
:1011C000000E006C011E0122021E0222031E0322D9
:1011D00002D088EC2FF0CBEC30F0B8EF2EF09BEC87
:1011E00033F0FDEC31F0DCEC33F073EC2EF063EC1B
:1011F00033F0140EE66E950EE66E000ECDEF34F071
:101200009BEC33F05CEC2EF0E1EC33F063EC33F06C
:101210000C0EE66E950EE66E000ECDEF34F07AEC15
:1012200033F002E62BEC30F002E22D0E2D6F9EEC37
:101230002EF0DFEC62F05CEC2EF073EC2FF0D89027
:101240002D50000A08E6DC0E2A5C050E2B58000E15
:101250002C58000E2D5815E273EC2FF0EBEC2EF00D
:101260002DC604F0056A04BE056826EC31F0060EB2
:10127000E66E950EE66E000E64EC2FF066EC31F033
:1012800035D0306A316ADCEC33F044EC32F073EC88
:101290002EF07FC6E6FFE66EECEC34F0EBEC2EF0C1
:1012A00073EC2FF02AC004F02BC005F02CC006F020
:1012B0002DC007F02AC0E6FF2BC0E6FF2CC0E6FFDA
:1012C0002DC0E6FF2DC608F0096A08BE096808C0EF
:1012D000E6FF09C0E6FFF90EE66E940EE66E000E1C
:1012E00064EC2FF00A6E0F0EE15E0A5020EF32F030
:1012F0007AEC33F002E62BEC30F002E22D0E2D6F8B
:101300009EEC2EF0DFEC62F0FDEC31F0200E326E40
:10131000410E336E8FEC63F02BC063F62CC064F685
:101320002DC065F62EC066F6E9EC31F063C62BF0F1
:1013300064C62CF065C62DF066C62EF0CCEC31F0FC
:10134000E1EC33F01CDFE552E552F0EC34F06BECED
:1013500031F063EC33F013DFE552E552F3CF02F0E6
:10136000F4CF03F06BEC31F02DC604F0056A04BE37
:10137000056826EC31F0EF0EE66E940EE66E000E78
:1013800064EC2FF066EC31F020EF32F0B3EC2EF08D
:1013900003EC2FF072EC30F001344BE20050FA080D
:1013A000000E015446E272EC30F0FF0E00180AE124
:1013B000015008E10601175101E17ED13BEC6AF0D2
:1013C000010E7DD172EC30F0FE0E001808E10150E4
:1013D00006E13BEC6AF0040131EC2FF028D072EC0E
:1013E00030F0FD0E001809E1015007E10601010E81
:1013F000176F3BEC6AF0FD0E62D172EC30F0FC0E20
:10140000001808E1015006E10601176B3BEC6AF099
:10141000FC0E55D172EC30F0FB0E00180AE10150C1
:1014200008E10601176B3BEC6AF0E6EC33F0EF5095
:1014300046D10601175101E13FD10401FE510008D8
:1014400001E33AD1FE0731EC2FF0EFCFEEF32FECB2
:1014500004F0FB0EDBCFE6FFFC0EDBCFE6FFFD0E5C
:10146000DBCFE6FF58EC6EF0E552E552E552E6ECD4
:1014700033F0EF50E66EE66AFE51E66EE66ADD0E88
:10148000E66E940EE66E000EB8EC32F00301ED6BE2
:10149000ED51ED2BEE5D07E1510EE66EA50EE66E09
:1014A000000E52EC2EF0D5EC2EF007E1710EE66E38
:1014B000A50EE66E000E52EC2EF0D5EC2EF007E1F4
:1014C000A10EE66EA50EE66E000E52EC2EF0D5ECE7
:1014D0002EF007E1C40EE66EA50EE66E000E52EC8D
:1014E0002EF0D5EC2EF007E1E70EE66EA50EE66EC7
:1014F000000E52EC2EF0D5EC2EF007E1180EE66E41
:10150000A60EE66E000E52EC2EF0D5EC2EF007E1A2
:101510004C0EE66EA60EE66E000E52EC2EF0D5ECEA
:101520002EF007E1810EE66EA60EE66E000E52EC7E
:101530002EF0D5EC2EF007E1BA0EE66EA60EE66EA2
:10154000000E52EC2EF0D5EC2EF007E1E80EE66E20
:10155000A60EE66E000E52EC2EF0D5EC2EF007E152
:101560000F0EE66EA50EE66E000E52EC2EF0D5ECD8
:101570002EF007E12F0EE66EA50EE66E000E52EC81
:101580002EF0D5EC2EF007E13F0EE66EA40EE66ECF
:10159000000E52EC2EF0D5EC2EF007E1180EE66EA0
:1015A000A70EE66E000E52EC2EF0D5EC2EF007E101
:1015B000590EE66EA70EE66E000E52EC2EF0D5EC3C
:1015C0002EF007E17F0EE66EA70EE66E000E52ECDF
:1015D0002EF0D5EC2EF007E1A50EE66EA70EE66E16
:1015E000000E52EC2EF0D5EC2EF007E1D10EE66E97
:1015F000A70EE66E000E52EC2EF0D5EC2EF007E1B1
:10160000E90EE66EA70EE66E000E52EC2EF0D5EC5B
:101610002EF007E1000EE66EA80EE66E000E52EC0C
:101620002EF0D5EC2EF007E1A40EE66EAB0EE66EC2
:10163000000E52EC2EF0D5EC2EF007E1E20EE66E35
:10164000AB0EE66E000E52EC2EF0D5EC2EF007E15C
:10165000010EE66EAC0EE66E000E52EC2EF0D5ECEE
:101660002EF007E12D0EE66EA80EE66E000E52EC8F
:101670002EF00301ED51D880EE5515E2EE51006ECB
:10168000016AD890015004E6FA0E005C000E015881
:101690000AE2EE51E66EE66AC30EE66E940EE66E60
:1016A000000EE5EC31F00401FE5102E10601176B7A
:1016B000E6EC33F0EF6AC1D63BEC6AF0000EB8EF0F
:1016C0002EF00601010E066F83A471D0C0EC35F038
:1016D00065C000F066C001F067C002F068C003F0AA
:1016E000640E2F6E306A316A326A65C02AF066C0B5
:1016F0002BF067C02CF068C02DF080EC6FF0EBECA5
:101700002EF0F8EC30F068DC1EEC32F0F3CF04F091
:10171000F4CF05F06BEC31F0A90EE66E940EE66E98
:10172000000E22EC2EF066EC31F0010EE66EE66A59
:10173000E66A4BEC33F0F5EC34F0010EE66EBDECEE
:1017400034F0E6C02AF0E7C02BF0E8C02CF0E9C086
:101750002DF0A2C02FF0A3C030F0A4C031F0A5C07E
:1017600032F080EC6FF0EBEC2EF0E6C0E6FFE7C065
:10177000E6FFE8C0E6FFE9C0E6FFF8EC30F0890ECE
:10178000E66E940EE66E000E22EC2EF0046E110E44
:10179000E15E0450010EE66E030E45EC2EF0880E5D
:1017A000E66E130ED4EC34F07CEC5CF08DD70601C1
:1017B000066B1200B3EC2EF01B0E2BEC31F05B0E1F
:1017C0002BEC31F0320E2BEC31F04A0E2BEC31F0D9
:1017D000620EE66EA10EE66E000E52EC2EF0150EB5
:1017E000E66EA10EE66E000E52EC2EF0B8EF2EF073
:1017F000B3EC2EF006011A5124E11B5108E000EC75
:1018000034F0F00E036E9A0E046E000E07D000EC5A
:1018100034F0B60E036E9B0E046E000E41EC31F0F8
:10182000160E86EC30F028C006F029C007F02AC05A
:1018300008F0E8EC32F054EC2FF0FE0EDBCF1CF693
:1018400027D0FE0EDB500301EF5D1DE00601216B8A
:10185000B1EC67F08B920501A06BA0510A080FE371
:101860005CEC30F0A0255AEC32F0010EE66EE66A30
:101870009FEC2FF045EC2FF00501A02BEED7FE0ECC
:10188000DBCFEFF305D05CEC30F00A0F5AEC32F00E
:10189000010EE66EE66A9FEC2FF0E66A010EE66E38
:1018A0009FEC2FF0E66A020EE66E9FEC2FF0E66AE0
:1018B000030EE66E9FEC2FF0B8EF2EF00501A16B42
:1018C000030EA15D07E2A15117EC31F0FE0EEF6EA1
:1018D000A12BF6D706017851EBEC33F002E116515B
:1018E00024E016510EE00501A251A22B32080DE2B0
:1018F0000301F02BF051050801E2F06B0501A26B2A
:1019000004D0030E78250301F06FE66AF0C3E6FF0A
:1019100034EC00F0E552E552E66E0601785117EC22
:1019200031F0E552E750EF6E1200785117EC31F0CC
:10193000EF681200B3EC2EF0030EE126010EDB6A15
:1019400006011B5104E1225102E1255102E0030E80
:1019500065D278C6DFFF04EC35F068EC33F0EE6A50
:10196000ED6A010EE66E95EC2FF004EC35F001EC1B
:1019700031F0EE50ED1006E0A1EC30F00BE1010E7D
:10198000E66E05D0A1EC30F005E0E66A010EE66EE9
:1019900070EC31F0D950020FE66E000EDA20E66EE0
:1019A00049DAE552E552020EDB500601935D0AE189
:1019B0008B96010E1B6F020EDBCFE6FF19DFE5529F
:1019C000020E2CD2C0EC35F0F7EC10F091EC32F0B6
:1019D0000DE200500408000E015408E203019A0EC3
:1019E000F16F990EF26FF36F3E0E11D0DF50EBECFA
:1019F00033F007E00301F16BF26BC00EF36F3F0EA3
:101A000006D003012FEC30F003E0A5EC30F0F46FCA
:101A10000601265165E081EC33F001AE02D0026888
:101A20000368A1EC33F004E6D8802C0E39EC31F0D9
:101A300014E28DBE25D0FAEC32F014EC30F08D8E2D
:101A40000601206F945107E06F0EE66E940EE66E6D
:101A5000000E52EC2EF08D8013D08DAE11D0FAEC2A
:101A600032F023EC31F08D9E0601206B945107E09B
:101A7000560EE66E940EE66E000E52EC2EF08D8041
:101A800081EC33F001AE02D002680368A1EC33F0C0
:101A900004E6D880900E39EC31F012E28DB620D0F9
:101AA0008DAE1ED00601010E276F945107E0320E55
:101AB000E66E940EE66E000E52EC2EF08D8610D07F
:101AC0008DA60ED08DAE0CD00601276B945107E089
:101AD0000F0EE66E940EE66E000E52EC2EF08D9612
:101AE00071EC32F0C10EC6EC2EF02D500118E8AEAC
:101AF00002D0013404D00050025C0150035801E3CD
:101B000091D02CEC34F0EECF08F0EFCF09F00C6A56
:101B10000D6A200E0E6E410E0F6E01EC33F00CC0FC
:101B20002BF00DC02CF00EC02DF02E6E8FEC63F05C
:101B3000F2EC64F02CC00AF02DC00BF009502D1807
:101B4000E8AE02D00B3404D00A50085C0B500958A0
:101B500069E2010EDB503BE00601265138E003014B
:101B6000F551F61112E0A6EC33F0060194510DE0A8
:101B700057EC32F001E0010E94EC31F0C20EE66E4B
:101B8000930EE66E000E53EC32F0DF5065EC2EF053
:101B900005013F0547E1DF506BEC33F00301F551E0
:101BA000F61140E02FEC30F003E0A5EC30F0F46FDC
:101BB0000601945133E057EC32F001E0010E94EC51
:101BC00031F07B0EE66E930EE66E000E1ED0DF50F7
:101BD0006BEC33F0DF5065EC2EF00301F551F6119C
:101BE00021E02FEC30F003E0A5EC30F0F46F0601BB
:101BF000945114E057EC32F001E0010E94EC31F016
:101C0000260EE66E930EE66E000E53EC32F0600E7A
:101C1000E66E930EE66E000E52EC2EF00301F56BAD
:101C2000F66B8B9671EC32F0410EC6EC2EF02D5017
:101C30000118E8AE02D0013404D00050025C01501B
:101C4000035844E267EC32F0B6EC2FF014E104ECF8
:101C500035F068EC33F0EE2AEF2291EC32F00BE233
:101C600000500108000E015406E20001BA2B000EDC
:101C7000BB23BC23BD2304EC35F0020E14EC30F082
:101C800082EC32F002E10150F81920E0D4EC32F09D
:101C900003AE02D0046805680AEC33F004E6D8808D
:101CA000E10EA3EC2FF012E2060194510DE057EC87
:101CB00032F001E0010EB5EC34F0DC0EE66E920E6F
:101CC000E66E000E52EC2EF0D9EC32F071EC32F0F0
:101CD000C10EC6EC2EF001502D18E8AE02D0033430
:101CE00004D00250005C035001582AE267EC32F045
:101CF00023EC31F082EC32F002E10150F81920E0DF
:101D0000D4EC32F003AE02D0046805680AEC33F07C
:101D100004E6D880E10EA3EC2FF012E20601945104
:101D20000DE057EC32F001E0010EB5EC34F0C50ED9
:101D3000E66E920EE66E000E52EC2EF0D9EC32F00A
:101D400091EC32F00AE200500108000E015405E265
:101D500004EC35F0050E14EC30F091EC32F00AE2B0
:101D600000500208000E015405E204EC35F0090EA3
:101D700014EC30F0DF50EBEC33F010E00001605178
:101D8000010B0CE16051020B09E16051040B06E10B
:101D9000E66A95EC2FF0000901E1FCD50601265119
:101DA00003E0276B8D9E206BE66A95EC2FF000090F
:101DB00013E00601945107E0760EE66E920EE66E91
:101DC000000E52EC2EF00601265102E005EC31F037
:101DD0001DEC31F0040E22D000016051010B06E130
:101DE0006051020B03E16051040B1AE006019451AB
:101DF00007E0200EE66E920EE66E000E52EC2EF01C
:101E00000601265102E005EC31F0000160A105D089
:101E100060910601010E1B6F8B96020EF36E01D0CE
:101E2000F36AF46A030EE15C02E2E16AE552E16EF4
:101E3000B8EF2EF0B3EC2EF083380F0B060193159C
:101E40000501A36F060193510501A35D40E1060161
:101E500093510301F95D03E0040E98EC2EF00EECB3
:101E600031F02CE1060193510301F95D13E0FCEC24
:101E70002EF0070EEF6EADEC33F00501A451E66EC7
:101E8000E66A040EE66E920EE66E000EE5EC31F0A8
:101E900084EC33F0060124510DE0E40EE66E910E61
:101EA000E66E000EB4EC33F093C6F9F3FCEC2EF0C2
:101EB000070EEF6E0601246B93514DD0A451ACEC8C
:101EC00030F0900EE66E910EE66E000E3DD0A351FE
:101ED0000301F95D3BE0030EE66E93EC5CF0E55226
:101EE000040E98EC2EF00EEC31F026E1FCEC2EF016
:101EF000A3C5EFFFADEC33F0FCEC2EF0EF50ACECF3
:101F000030F0510EE66E910EE66E000EB8EC32F037
:101F1000FCEC2EF0EFCFF9F384EC33F00601245102
:101F200007E12F0EE66E910EE66E000EB4EC33F074
:101F30000601010E246F0ED0A451ACEC30F0DC0E83
:101F4000E66E900EE66E000EB8EC32F0FCEC2EF071
:101F5000F9C3EFFF000EB8EF2EF006011AEC32F0D5
:101F60000CE10501A56B0601782B030E785D01E3FA
:101F7000786BDBEC34F0F7E0A1DC000160A320D04B
:101F80008B840501A56B0601782B030E785D01E3B8
:101F9000786BDBEC34F0F7E091DCB3EC30F0CA0E98
:101FA000E66E900EE66E000EE5EC31F0AF0EE66EDA
:101FB000900EE66E000E52EC2EF08B9400016093B2
:101FC0006051010B08E1E66A91EC30F000091BE07A
:101FD00006011A5118E006011A5106E11B5102E0F0
:101FE000000E01D0010E1B6F19EC34F0850EE66E69
:101FF000900EE66E000E52EC2EF006011A6B0001F8
:1020000060918B906FD005010F056AE0E66ABFEC26
:102010002EF0000967E0010EE66E91EC30F006014B
:10202000010E1A6F8B8005010F512BE1A4EC32F0E9
:1020300004E6D880230EA3EC2FF023E20601010E64
:102040001A6F8B90245111E10301FA2BC6EC32F088
:10205000080E0301FA5D01E3FA6B07EC35F06D0E33
:10206000E66E900EE66E000E37D0E2EC34F001E33F
:102070003E6B7DEC34F0460EE66E900EE66E000E82
:102080002BD0A4EC32F004E6D880230EA3EC2FF082
:1020900025E20601010E1A6F8B90245112E1030113
:1020A000FA07C6EC32F0080E0301FA5D02E3070EF0
:1020B000FA6F07EC35F02F0EE66E900EE66E000E0E
:1020C0000BD0E2EC34F001E33E6B7DEC34F0180E03
:1020D000E66E900EE66E000E52EC2EF08B8002D073
:1020E000C6EC32F006011A5102E08B8001D08B90D1
:1020F000255168E11B5102E1225162E0A1EC30F070
:1021000005E0E66A010EE66E70EC31F005011F0590
:1021100041E0E66A6DEC2FF0000954E08B84050184
:102120001F511AE11B35000E1B1909E6D880010E5C
:102130001855000E1955000E1A55000E1B550CE2CD
:1021400089EC32F014EC30F063EC34F0DC0EE66E27
:10215000920EE66E000E1BD018C5E6FF19C5E6FF0D
:102160001AC5E6FF1BC5E6FFF2EC2EF004E6D880A8
:10217000010EA3EC2FF026E289EC32F023EC31F0D3
:1021800063EC34F0C50EE66E920EE66E000E52EC75
:102190002EF018D0060122510CE178516BEC33F08F
:1021A000B2EC34F0020E14EC30F0785165EC2EF005
:1021B00003D078516BEC33F0F0EC33F08B9402D019
:1021C0009AEC0CF006011B5107E0E66AF4EC33F0E0
:1021D0000BE1010EE66E05D0E66AF4EC33F004E0A4
:1021E000E66AE66A70EC31F00301FA5112005EEC27
:1021F0000CF006011C51070A18E0010A14E0050A58
:1022000010E0010A0CE0060A08E0050A04E0010AF1
:102210000EE14DEF13F000EF13F0D9EF13F0CAEF1A
:1022200012F0A5EF13F06DEF14F099EF12F03DEFFF
:1022300014F0B3EC2EF0070EE126050EDB6A060E55
:10224000DB6AB1EC67F006011B5104E104012A517D
:102250002B1102E0030E09D00601206B0501355158
:1022600036113711381104E1020EF36EF46A82D090
:10227000DF6AFE0EDB50D880DF5474E399EC34F053
:10228000BCEC2EF00A0E306ED70E316E230E326E7D
:102290003C0E09EC2FF04DEC32F064E1010EDB6AEC
:1022A00039EC30F0D950010F0CEC30F002E6CFECF5
:1022B0002FF00DE214EC2FF02A0E326E3F0E2FECB1
:1022C00034F005E1D950010F7EEC2FF0EBD7010E71
:1022D000DB6A39EC30F0D950010F0CEC30F002E63B
:1022E000CFEC2FF00DE214EC2FF0AA0E326E3E0E62
:1022F0002FEC34F005E1D950010F7EEC2FF0EBD735
:10230000BCEC2EF0660E306E316E326E3F0E8AECF3
:1023100034F028E1BCEC2EF0CD0E306ECC0E316ED8
:10232000326E3D0E8AEC34F01DE1BCEC2EF0306ACA
:10233000316A326A3F0E8AEC34F014E100016051D8
:10234000010B06E16051020B03E16051040B08E050
:10235000010EF36E050EF3CFDBFF060EDB6A02D033
:10236000DF2A87D7DFEC32F0050EDBCF00F0060E58
:10237000A7EC2FF0070EE15C02E2E16AE552E16EA4
:10238000B8EF2EF0B3EC2EF0080EE126060EDB6A55
:10239000070EDB6AB1EC67F006011B5104E1040192
:1023A0002A512B1104E0030EF36EF46A87D0060164
:1023B000206BDF6AFE0EDB50DF5C01E377D0010E9D
:1023C000DB6A030EF36E010EDBCFF4FFF350F45C17
:1023D0006BE2010EDBCF78F606011AEC32F061E019
:1023E00099EC34F001EC32F0640EEE6EED6A4DECD7
:1023F00032F05AE139EC30F0050EDB6AD950020FA9
:102400000CEC30F002E6CFEC2FF00BE29A0E006EEF
:10241000020E04EC34F005E1D950020F7EEC2FF0EF
:10242000EDD739EC30F0050EDB6AD950020F0CEC19
:1024300030F002E6CFEC2FF00BE24D0E006E010EF5
:1024400004EC34F005E1D950020F7EEC2FF0EDD70B
:1024500001EC32F0840EEE6E030EED6EAEEC34F055
:1024600001EC32F0640EEE6EED6AAEEC34F001EC8D
:1024700032F0F40EEE6E010EED6EAEEC34F00001B3
:102480006051010B06E16051020B03E16051040B46
:1024900008E0010EF36E060EF3CFDBFF070EDB6ADA
:1024A00003D0010EDB2A8DD7DF2A84D7DFEC32F090
:1024B000060EDBCF00F0070EA7EC2FF0080EE15C54
:1024C00002E2E16AE552E16EB8EF2EF05EEC0CF04C
:1024D00006011C51070A18E0010A11E0050A0DE087
:1024E000010A0BE0060A05E0050A07E0010A0EE111
:1024F00004D0030EE66E9DDE05D0020E01D0040E60
:10250000E66E40DFE552120099EF12F03DEF14F055
:1025100024DD0301FB6FFB0EE66E030EE66E8ADC24
:10252000E552E552FBC3E6FFF8EC0BF0E552F7EF9E
:1025300010F006013E5121E170EC33F0CA0EE66E58
:102540008F0EE66E000E22EC2EF040EC30F045ECE3
:102550002EF077EC30F0B40EE66E8F0EE66E000EC5
:1025600074EC32F075EC31F09E0EE66E8F0EE66E76
:10257000000E91EC34F0070E09D018EC35F0F8ECB1
:102580002EF0020EBDEC31F0006E050EE15E005043
:1025900005EF32F006013E511AE161EC2FF068ECD4
:1025A00030F05F0EE66E8F0EE66E000EB8EC33F084
:1025B0003E0EE66E8F0EE66E000E5FEC34F0BDEC64
:1025C00034F0210EE66E8F0EE66E000E17D00AEC88
:1025D00032F00BE0B1EC31F0C1EC30F0FA0EE66E07
:1025E0008E0EE66E000EF9EC34F0010EE66E8CEC09
:1025F00033F05FEC34F0020E8CEC33F011EF33F07B
:1026000006013E5139E161EC2FF068EC30F0B70E75
:10261000E66E8E0EE66E000EB8EC33F01CEC30F079
:1026200070C4E6FF71C4E6FF6EC4E6FF6FC4E6FF48
:1026300077EC30F08E0EE66E8E0EE66E000E22EC1B
:102640002EF0BAEC30F0BDEC34F019EC30F0AAC446
:10265000E6FFABC4E6FFA8C4E6FFA9C4E6FF75EC3D
:1026600031F0650EE66E8E0EE66E000E91EC34F0E3
:10267000130EE15E00500FD00AEC32F002E0FDECE8
:1026800034F04CEC34F002E08BEC31F026EC34F01A
:1026900002E0E8EC34F005EF32F006013E513EE195
:1026A00061EC2FF036C400F037C401F027EC2EF0B7
:1026B00034C402F035C403F036EC2EF070EC33F085
:1026C000C70EE66E8D0EE66E000E22EC2EF05AEC72
:1026D00031F045EC2EF077EC30F0AF0EE66E8D0E5B
:1026E000E66E000E74EC32F019EC30F0AAC400F083
:1026F000ABC401F027EC2EF0A8C402F0A9C403F08B
:1027000036EC2EF075EC31F0860EE66E8D0EE66E30
:10271000000E22EC2EF0046E130E13D00AEC32F0F1
:1027200002E0FDEC34F04CEC34F002E08BEC31F0E4
:1027300026EC34F008E0C0EC31F026EC32F0046E08
:102740000D0EE15E045005EF32F006013E5122E12C
:10275000BDEC33F045EC2EF01CEC30F070C400F012
:1027600071C401F027EC2EF06EC402F06FC403F0C8
:1027700036EC2EF077EC30F0480EE66E8D0EE66EFD
:10278000000E22EC2EF05AEC31F0BDEC34F097EC58
:1027900030F00DD018EC35F0B2EC2FF002E08BECFD
:1027A00031F0010EE66EBDEC34F08FEC2EF011EF3F
:1027B00033F006013E514CE112C4E6FF13C4E6FFBC
:1027C00010C5E6FF11C5E6FF12C5E6FF13C5E6FF1B
:1027D00029C5E6FF2AC5E6FF2BC5E6FF2CC5E6FFA7
:1027E00070EC33F0260EE66E8D0EE66E000E91EC68
:1027F00034F0110EE15E0050F5EC34F004010151AB
:102800001BE00251E66EE66AFF0EE66E8C0EE66E87
:10281000000E74EC32F031C5E6FF32C5E6FF33C579
:10282000E6FF34C5E6FFDE0EE66E8C0EE66E000EA9
:1028300091EC34F0090E09D0BDEC33F0BDEC34F06E
:1028400097EC30F091EC34F0050EE15E005013D0BF
:102850000AEC32F004E0B1EC31F02EEC32F04CEC4A
:1028600034F002E0F1EC31F026EC34F004E0C0EC9E
:1028700031F039EC32F005EF32F006013E511CE147
:10288000530EE66E8C0EE66E000E5FEC34F045ECF7
:102890002EF03D0EE66E8C0EE66E000E5FEC34F010
:1028A000BDEC34F0270EE66E8C0EE66E000E22ECC8
:1028B0002EF00DEC32F00FD00AEC32F002E0FDEC1D
:1028C00034F04CEC34F002E08BEC31F026EC34F0D8
:1028D00002E0E8EC34F005EF32F006013E5153E13E
:1028E00021EC35F00DEC32F0640E040183AF02D020
:1028F000D89003D0825D000E83590BE2C0EC33F018
:10290000080EE66E8C0EE66E000E22EC2EF061ECE8
:1029100031F0F5EC34F08DB20AD0C0EC33F077EC46
:1029200030F0E90EE66E8B0EE66E000E09D0C6ECB6
:1029300033F077EC30F0CA0EE66E8B0EE66E000ECA
:1029400022EC2EF0026E090EE15E0250010EE66EE0
:10295000020EBDEC31F00DEC32F0640E04010FAF4D
:1029600002D0D89003D00E5D000E0F591FE2C6ECC6
:1029700033F0AC0EE66E8B0EE66E000E22EC2EF0FF
:1029800061EC31F013D00AEC32F004E0B1EC31F03C
:102990002EEC32F04CEC34F002E0F1EC31F026ECAD
:1029A00034F004E0C0EC31F039EC32F005EF32F0F5
:1029B000B3EC2EF0020EE126DE6ADD6ADECF00F017
:1029C000DDCF01F0D890015004E6030E005C000E4C
:1029D00001581FE2FE0EDB50E66EDECFE9FFDDCFD1
:1029E000EAFF3A0EEA02F3CFEAFFE902F3CFE9FF8A
:1029F000F450EA26000EE926040EEA2201EC31F03A
:102A0000E552E750EE6EED6ADF2A010ED7E3DB2ACE
:102A1000D5D7020EE15C02E2E16AE552E16EB8EF61
:102A20002EF0B3EC2EF0020EE12606017851DE6E98
:102A3000DD6A786B1AEC32F002E09AEC0CF00601D9
:102A40007851782B006E030E005CF4E3B1EC67F074
:102A5000DFCF78F6010E98EC2EF0020EE15C02E278
:102A6000E16AE552E16EB8EF2EF0D9CFE6FFE1CF93
:102A7000D9FF110EE126E80EF36E040EF3CFDBFF53
:102A8000030EF36E050EF3CFDBFF060EDB6A070EB7
:102A9000DB6A080EDB6A090EDB6A0A0EDB6A0B0EC4
:102AA000DB6A580EF36E0C0EF3CFDBFF0F0EDB6A02
:102AB000100EDB6A0601216BC0EC35F0C0EC35F07E
:102AC0000001609506013E6B1CC6E6FF6CEC68F0E9
:102AD000E5520601255107E08B9206011B6B0601AA
:102AE000206B7EEF29F0880EE66E8B0EE66E000EF0
:102AF000E66E58EC6EF0E552E552E552020E060124
:102B00001C5D0EE1D00EF36E040EF3CFDBFF070E5B
:102B1000F36E050EF3CFDBFF060EDB6A070EDB6AF2
:102B20000601010E1B6F0401080503E10601010EF9
:102B3000206FB1EC67F0010EE66EE66AE66AE66ABF
:102B40006AEC01F0E552E552E552E55206011C51EE
:102B50000DE1D950040FE96EDACFEAFFD890EF36D5
:102B6000010EEB36020EEB36030EEB36E66A20DF83
:102B7000E552B4EC67F0010EE66ED950040FE96E31
:102B8000DACFEAFFEECFE6FFEECFE6FFEECFE6FFCD
:102B9000EFCFE6FF6DEC02F0006E050EE15E005037
:102BA000DE6ADE6ADE6ADD6ADD52DD52060126512A
:102BB00002E00AEF21F0060E06011C5D02E07CEF48
:102BC0001AF00D0EDB6A0E0EDB6A0D0EDBCF00F085
:102BD0000E0EDBCF01F0013404E200500108000EBC
:102BE000015401E285D3640EF36E040EF3CFDBFFD4
:102BF000050EDB6A060EDB6A070EDB6A010EE66E67
:102C0000D950040FE96EDACFEAFFEECFE6FFEECF40
:102C1000E6FFEECFE6FFEFCFE6FF6DEC02F0006ED1
:102C2000050EE15E0050B4EC67F0DE6ADE6ADE6A33
:102C3000DD6ADD52DD5220C6E6FFB7EC67F0E552F3
:102C4000D9CFE9FFDACFEAFFEECF00F0EECF01F007
:102C5000EECF02F0EFCF03F0D00E2F6E070E306EE6
:102C6000316A326A00C02AF001C02BF002C02CF099
:102C700003C02DF080EC6FF026C000F027C001F0FB
:102C800028C002F029C003F0005001100210031008
:102C900001E02BD1000160A530D0B1EC67F0010E4E
:102CA000E66E86DEE55289EC5CF0060EE66EE66ABC
:102CB000E66AE66A6AEC01F0E552E552E552E55251
:102CC0008B920601010E1B6F0601206B20C6E6FFEA
:102CD000B7EC67F0E5521CC6E6FF6CEC68F0E55215
:102CE0005A0EE66E8B0EE66E000EE66E58EC6EF037
:102CF000E552E552E5527EEF29F088EC29F00D0E01
:102D0000DBCFE6FF0E0EDBCFE6FF3E0EE66E8B0E50
:102D1000E66E000EE66E000EE66E020EE66E70ECDB
:102D20006CF0006E070EE15E0050010EE66EE66A82
:102D30003CC6E6FFB7EC00F0E552E552E55282C42E
:102D400000F083C401F00A0E316E326A00C02CF02C
:102D500001C02DF04FEC64F02CC000F02DC001F04C
:102D600000C0E6FF01C0E6FF130EE66E8B0EE66EB6
:102D7000000EE66E000EE66E020EE66E70EC6CF073
:102D8000026E070EE15E0250640E040183AF02D0B2
:102D9000D89003D0825D000E835925E282C400F0F2
:102DA00083C401F00A0E316E326A00C02CF001C0FB
:102DB0002DF04FEC64F02CC000F02DC001F000C0ED
:102DC000E6FF01C0E6FFF40EE66E8A0EE66E000E28
:102DD000E66E000EE66E020EE66E70EC6CF0026EB1
:102DE000070EE15E0250010EE66E010EE66EE66A27
:102DF000B7EC00F0E552E552E552CC0EE66E8A0ED5
:102E0000E66E000EE66E000EE66E020EE66E70ECEA
:102E10006CF0006E050EE15E0050010EE66E020ED3
:102E2000E66EE66AB7EC00F0E552E552E5520EC4F4
:102E300000F00FC401F00A0E316E326A00C02CF0AF
:102E400001C02DF04FEC64F02CC000F02DC001F05B
:102E500000C0E6FF01C0E6FF9F0EE66E8A0EE66E3A
:102E6000000EE66E000EE66E020EE66E70EC6CF082
:102E7000026E070EE15E0250640E04010FAF02D035
:102E8000D89003D00E5D000E0F5925E20EC400F05D
:102E90000FC401F00A0E316E326A00C02CF001C07E
:102EA0002DF04FEC64F02CC000F02DC001F000C0FC
:102EB000E6FF01C0E6FFAC0EE66E8B0EE66E000E7E
:102EC000E66E000EE66E020EE66E70EC6CF0026EC0
:102ED000070EE15E0250010EE66E030EE66EE66A34
:102EE000B7EC00F0E552E552E552D9CFE9FFDACF71
:102EF000EAFFEE2A000EEE22EE22EE22E66AD9501A
:102F0000040FE96EDACFEAFFEECFE6FFEECFE6FF81
:102F1000EECFE6FFEFCFE6FF6DEC02F0006E050EA0
:102F2000E15E0050000901E186D6640E040183AF22
:102F300002D0D89003D0825D000E83590CE20401C8
:102F40000F3504E20E519008010E0F5504E2010EF8
:102F50000401626F636B640E04010FAF02D0D8905E
:102F600003D00E5D000E0F5903E20401606B616B2C
:102F7000010EE66ED950040FE96EDACFEAFFEECF0C
:102F8000E6FFEECFE6FFEECFE6FFEFCFE6FF6DEC1C
:102F900002F0006E050EE15E0050B1EC67F0DE6AF3
:102FA000DE6ADE6ADD6ADD52DD5220C6E6FFB7EC7E
:102FB00067F0E552D9CFE9FFDACFEAFFEECF00F0B4
:102FC000EECF01F0EECF02F0EFCF03F0D00E2F6E78
:102FD000070E306E316A326A00C02AF001C02BF051
:102FE00002C02CF003C02DF080EC6FF026C000F082
:102FF00027C001F028C002F029C003F000500110E2
:103000000210031001E02BD1000160A530D0B1EC1B
:1030100067F0010EE66ECCDCE55289EC5CF0060E42
:10302000E66EE66AE66AE66A6AEC01F0E552E552A7
:10303000E552E5528B920601010E1B6F0601206BD3
:1030400020C6E6FFB7EC67F0E5521CC6E6FF6CEC65
:1030500068F0E5525A0EE66E8B0EE66E000EE66ED6
:1030600058EC6EF0E552E552E5527EEF29F088EC1F
:1030700029F00D0EDBCFE6FF0E0EDBCFE6FF840E50
:10308000E66E8A0EE66E000EE66E000EE66E020E2C
:10309000E66E70EC6CF0006E070EE15E0050010E03
:1030A000E66EE66A3CC6E6FFB7EC00F0E552E55294
:1030B000E55282C400F083C401F00A0E316E326A18
:1030C00000C02CF001C02DF04FEC64F02CC000F0DB
:1030D0002DC001F000C0E6FF01C0E6FF130EE66E52
:1030E0008B0EE66E000EE66E000EE66E020EE66ECB
:1030F00070EC6CF0026E070EE15E0250640E04018B
:1031000083AF02D0D89003D0825D000E835925E2B0
:1031100082C400F083C401F00A0E316E326A00C02E
:103120002CF001C02DF04FEC64F02CC000F02DC04D
:1031300001F000C0E6FF01C0E6FFF40EE66E8A0E65
:10314000E66E000EE66E000EE66E020EE66E70ECA7
:103150006CF0026E070EE15E0250010EE66E010E8B
:10316000E66EE66AB7EC00F0E552E552E552590E1C
:10317000E66E8A0EE66E000EE66E000EE66E020E3B
:10318000E66E70EC6CF0006E050EE15E0050010E14
:10319000E66E020EE66EE66AB7EC00F0E552E55226
:1031A000E5520EC400F00FC401F00A0E316E326A0F
:1031B00000C02CF001C02DF04FEC64F02CC000F0EA
:1031C0002DC001F000C0E6FF01C0E6FF9F0EE66ED5
:1031D0008A0EE66E000EE66E000EE66E020EE66EDB
:1031E00070EC6CF0026E070EE15E0250640E04019A
:1031F0000FAF02D0D89003D00E5D000E0F5925E21C
:103200000EC400F00FC401F00A0E316E326A00C025
:103210002CF001C02DF04FEC64F02CC000F02DC05C
:1032200001F000C0E6FF01C0E6FFAC0EE66E8B0EBB
:10323000E66E000EE66E000EE66E020EE66E70ECB6
:103240006CF0026E070EE15E0250010EE66E030E98
:10325000E66EE66AB7EC00F0E552E552E552D9CFEA
:10326000E9FFDACFEAFFEE2A000EEE22EE22EE228E
:10327000E66AD950040FE96EDACFEAFFEECFE6FF37
:10328000EECFE6FFEECFE6FFEFCFE6FF6DEC02F00C
:10329000006E050EE15E0050000901E186D6640E65
:1032A00004010FAF02D0D89003D00E5D000E0F596D
:1032B0000CE20401833504E282519008010E83552B
:1032C00004E2010E0401606F616B640E040183AFC0
:1032D00002D0D89003D0825D000E835903E204012E
:1032E000626B636B0D0EDB2A0E0E01E3DB2A6DD4DD
:1032F0008B9206011B6B0601206B0401605161116A
:1033000005E004016251631101E0E9D0040140517C
:1033100001E1E5D000016095590EF36E0C0EF3CF7C
:10332000DBFF0C0EDBCF00F0016A00BE016800C0BD
:10333000E6FF01C0E6FF390EE66E8A0EE66E000E6D
:10334000E66E000EE66E020EE66E70EC6CF0026E3B
:10335000070EE15E0250010EE66EE66A3CC6E6FF2D
:10336000B7EC00F0E552E552E55260C4E6FF61C4F7
:10337000E6FF62C4E6FF63C4E6FF220EE66E8A0E35
:10338000E66E000EE66E000EE66E020EE66E70EC65
:103390006CF0006E090EE15E0050010EE66E010E4B
:1033A000E66EE66AB7EC00F0E552E552E5520B0E28
:1033B000E66E8A0EE66E000EE66E000EE66E020EF9
:1033C000E66E70EC6CF0006E050EE15E00500401DC
:1033D0006251631110E1EF0EE66E890EE66E000E8B
:1033E000E66E000EE66E020EE66E70EC6CF0006E9D
:1033F000050EE15E0050010EE66E020EE66EE66A14
:10340000B7EC00F0E552E552E5520B0EE66E8A0E7F
:10341000E66E000EE66E000EE66E020EE66E70ECD4
:103420006CF0006E050EE15E005004016051611108
:1034300010E1D10EE66E890EE66E000EE66E000E0D
:10344000E66E020EE66E70EC6CF0006E050EE15E4C
:103450000050010EE66E030EE66EE66AB7EC00F071
:10346000E552E552E552010EE66E010EE66EC9EC3C
:1034700067F0E552E552020EE66E93EC5CF0E55221
:103480000400000160A5F7D7E66A010EE66EC9ECFC
:1034900067F0E552E552B1EC67F0010EE66ED8EC4C
:1034A00014F0E55289EC5CF0060EE66EE66AE66A18
:1034B000E66A6AEC01F0E552E552E552E5528B927C
:1034C0000601010E1B6F0601206B20C6E6FFB7EC5C
:1034D00067F0E5521CC6E6FF6CEC68F0E552AB0EF7
:1034E000E66E890EE66E000EE66E58EC6EF0E55262
:1034F000E552E5527EEF29F0B1EC67F0060EE66E7C
:10350000E66AE66AE66A6AEC01F0E552E552E552DF
:10351000E552A7EC67F0010EE66EE66AE66AE66A37
:103520006AEC01F0E552E552E552E5520F0EDB6A16
:10353000100EDB6AB4EC67F0010EE66ED950040F92
:10354000E96EDACFEAFFEECFE6FFEECFE6FFEECF91
:10355000E6FFEFCFE6FF6DEC02F0006E050EE15ED8
:1035600000503FEC35F020C6E6FFB7EC67F0E552BF
:10357000D9CFE9FFDACFEAFFEECF00F0EECF01F0CE
:10358000EECF02F0EFCF03F0D00E2F6E070E306EAD
:10359000316A326A00C02AF001C02BF002C02CF060
:1035A00003C02DF080EC6FF026C000F027C001F0C2
:1035B00028C002F029C003F00050011002100310CF
:1035C00001E0B3D25FEC35F0000901E1DBD0810E00
:1035D000E96E000EEA6EEE500001755D046EEE506D
:1035E00000017659056EEE5000017759066EEE50D7
:1035F00000017859076E04C0E6FF05C0E6FF06C06B
:10360000E6FF07C0E6FFD6EC08F0E552E552E552CA
:10361000E5522AC000F02BC001F02CC002F02DC0F2
:1036200003F000C0E6FF01C0E6FF02C0E6FF03C0F2
:10363000E6FF7D0EE96E000EEA6EEE500001715D50
:103640000C6EEE50000172590D6EEE500001735970
:103650000E6EEE50000174590F6E0CC0E6FF0DC0E7
:10366000E6FF0EC0E6FF0FC0E6FFD6EC08F0E5521D
:10367000E552E552E5522AC008F02BC009F02CC0F3
:103680000AF02DC00BF008C0E6FF09C0E6FF0AC033
:10369000E6FF0BC0E6FF790EE96E000EEA6EEE5013
:1036A00000016D5D146EEE5000016E59156EEE5006
:1036B00000016F59166EEE5000017059176E14C05C
:1036C000E6FF15C0E6FF16C0E6FF17C0E6FFD6EC22
:1036D00008F0E552E552E552E5522AC010F02BC041
:1036E00011F02CC012F02DC013F010C0E6FF11C075
:1036F000E6FF12C0E6FF13C0E6FF8E0EE66E890EEF
:10370000E66E000EE66E000EE66E020EE66E70ECE1
:103710006CF0186E110EE15E1850000EE66E020E8F
:10372000E66E12EC6FF0E552E5520001915128E08F
:103730000001925125E00001935122E006011C5145
:1037400007E0010EF36E0F0EF3CFDBFF100EDB6A06
:10375000690EE66E890EE66E000EE66E000EE66EEF
:10376000020EE66E70EC6CF0006E050EE15E00502D
:10377000000EE66E020EE66E12EC6FF0E552E552B8
:103780003FEC35F0000160A531D0B1EC67F0010EDF
:10379000E66ED8EC14F0E55289EC5CF0060EE66EAD
:1037A000E66AE66AE66A6AEC01F0E552E552E5523D
:1037B000E5528B920601010E1B6F0601206B20C69D
:1037C000E6FFB7EC67F0E5521CC6E6FF6CEC68F06C
:1037D000E5525A0EE66E8B0EE66E000EE66E58EC63
:1037E0006EF0E552E552E5527EEF29F088EC29F0C3
:1037F000D9CFE9FFDACFEAFFEECFE6FFEECFE6FF63
:10380000EECFE6FFEFCFE6FF510EE66E890EE66ED5
:10381000000EE66E000EE66E020EE66E70EC6CF0C8
:10382000006E090EE15E0050010EE66EE66A3CC6CF
:10383000E6FFB7EC00F0E552E552E552020E060154
:103840001C5D5AE0880EE66E8F0EE66E000EE66E88
:10385000000EE66E020EE66E70EC6CF0006E050E69
:10386000E15E00500401065146E085C0E6FF86C0D7
:10387000E6FF87C0E6FF88C0E6FF24C400F025C449
:1038800001F00A0E316E326A00C02CF001C02DF03A
:103890004FEC64F02CC000F02DC001F000C0E6FF3A
:1038A00001C0E6FF34C402F035C403F00A0E316EE5
:1038B000326A02C02CF003C02DF04FEC64F02CC033
:1038C00002F02DC003F002C0E6FF03C0E6FF0EC405
:1038D000E6FF0FC4E6FF290EE66E890EE66E000EC7
:1038E000E66E000EE66E020EE66E70EC6CF0046E94
:1038F0000F0EE15E045049D00401065146E085C038
:10390000E6FF86C0E6FF87C0E6FF88C0E6FF24C466
:1039100000F025C401F00A0E316E326A00C02CF0AE
:1039200001C02DF04FEC64F02CC000F02DC001F070
:1039300000C0E6FF01C0E6FF34C402F035C403F066
:103940000A0E316E326A02C02CF003C02DF04FEC2B
:1039500064F02CC002F02DC003F002C0E6FF03C0EB
:10396000E6FF0EC4E6FF0FC4E6FF010EE66E890E09
:10397000E66E000EE66E000EE66E020EE66E70EC6F
:103980006CF0046E0F0EE15E0450010EE66E010E47
:10399000E66EE66AB7EC00F0E552E552E552880EB5
:1039A000E66E8F0EE66E000EE66E000EE66E020EFE
:1039B000E66E70EC6CF0006E050EE15E00500401E6
:1039C000405146E089C0E6FF8AC0E6FF8BC0E6FFB3
:1039D0008CC0E6FF5EC400F05FC401F00A0E316ED9
:1039E000326A00C02CF001C02DF04FEC64F02CC006
:1039F00000F02DC001F000C0E6FF01C0E6FF6EC47C
:103A000002F06FC403F00A0E316E326A02C02CF06D
:103A100003C02DF04FEC64F02CC002F02DC003F079
:103A200002C0E6FF03C0E6FF48C4E6FF49C4E6FF64
:103A3000D90EE66E880EE66E000EE66E000EE66E9D
:103A4000020EE66E70EC6CF0046E0F0EE15E045038
:103A5000010EE66E020EE66EE66AB7EC00F0E55285
:103A6000E552E552880EE66E8F0EE66E000EE66EAB
:103A7000000EE66E020EE66E70EC6CF0006E050E47
:103A8000E15E005004017A5146E08DC0E6FF8EC031
:103A9000E6FF8FC0E6FF90C0E6FF98C400F099C42F
:103AA00001F00A0E316E326A00C02CF001C02DF018
:103AB0004FEC64F02CC000F02DC001F000C0E6FF18
:103AC00001C0E6FFA8C402F0A9C403F00A0E316EDB
:103AD000326A02C02CF003C02DF04FEC64F02CC011
:103AE00002F02DC003F002C0E6FF03C0E6FF82C46F
:103AF000E6FF83C4E6FFB10EE66E880EE66E000EAA
:103B0000E66E000EE66E020EE66E70EC6CF0046E71
:103B10000F0EE15E0450010EE66E030EE66EE66ADD
:103B2000B7EC00F0E552E552E552D9CFE9FFDACF24
:103B3000EAFFEE2A000EEE22EE22EE22E66AD950CD
:103B4000040FE96EDACFEAFFEECFE6FFEECFE6FF35
:103B5000EECFE6FFEFCFE6FF6DEC02F0006E050E54
:103B6000E15E0050000909E1D9500F0FE96EDACF8C
:103B7000EAFFEE50ED1001E1F6D4B1EC67F0060E6D
:103B8000E66EE66AE66AE66A6AEC01F0E552E5523C
:103B9000E552E552AEEC67F0010EE66EE66AE66AC3
:103BA000E66A6AEC01F0E552E552E552E5520F0E85
:103BB000DB6A100EDB6A06011C5101E129D3B4EC6B
:103BC00067F0010EE66ED950040FE96EDACFEAFF16
:103BD000EECFE6FFEECFE6FFEECFE6FFEFCFE6FF5C
:103BE0006DEC02F0006E050EE15E0050DE6ADE6AEA
:103BF000DE6ADD6ADD52DD523FEC35F020C6E6FFBD
:103C0000B7EC67F0E552D9CFE9FFDACFEAFFEECFA4
:103C100000F0EECF01F0EECF02F0EFCF03F0D00EC8
:103C20002F6E070E306E316A326A00C02AF001C072
:103C30002BF002C02CF003C02DF080EC6FF026C0FA
:103C400000F027C001F028C002F029C003F00050A6
:103C500001100210031001E0B3D25FEC35F000094F
:103C600001E1DBD0810EE96E000EEA6EEE5000013C
:103C7000755D046EEE5000017659056EEE50000140
:103C80007759066EEE5000017859076E04C0E6FFC2
:103C900005C0E6FF06C0E6FF07C0E6FFD6EC08F069
:103CA000E552E552E552E5522AC000F02BC001F082
:103CB0002CC002F02DC003F000C0E6FF01C0E6FFFB
:103CC00002C0E6FF03C0E6FF7D0EE96E000EEA6E5D
:103CD000EE500001715D0C6EEE50000172590D6ED8
:103CE000EE50000173590E6EEE50000174590F6EC4
:103CF0000CC0E6FF0DC0E6FF0EC0E6FF0FC0E6FFFA
:103D0000D6EC08F0E552E552E552E5522AC008F03B
:103D10002BC009F02CC00AF02DC00BF008C0E6FF44
:103D200009C0E6FF0AC0E6FF0BC0E6FF790EE96EA8
:103D3000000EEA6EEE5000016D5D146EEE50000153
:103D40006E59156EEE5000016F59166EEE5000015F
:103D50007059176E14C0E6FF15C0E6FF16C0E6FFE7
:103D600017C0E6FFD6EC08F0E552E552E552E55201
:103D70002AC010F02BC011F02CC012F02DC013F08F
:103D800010C0E6FF11C0E6FF12C0E6FF13C0E6FF59
:103D90008E0EE66E890EE66E000EE66E000EE66E84
:103DA000020EE66E70EC6CF0186E110EE15E1850AB
:103DB000000EE66E020EE66E12EC6FF0E552E55272
:103DC0000001915128E00001925125E0000193513A
:103DD00022E006011C5107E0010EF36E0F0EF3CF37
:103DE000DBFF100EDB6A690EE66E890EE66E000ED2
:103DF000E66E000EE66E020EE66E70EC6CF0006E83
:103E0000050EE15E0050000EE66E020EE66E12EC4C
:103E10006FF0E552E5523FEC35F0000160A531D07E
:103E2000B1EC67F0010EE66ED8EC14F0E55289ECC7
:103E30005CF0060EE66EE66AE66AE66A6AEC01F097
:103E4000E552E552E552E5528B920601010E1B6FD9
:103E50000601206B20C6E6FFB7EC67F0E5521CC6F2
:103E6000E6FF6CEC68F0E5525A0EE66E8B0EE66EDD
:103E7000000EE66E58EC6EF0E552E552E5527EEF2C
:103E800029F088EC29F0D9CFE9FFDACFEAFFEECFAD
:103E9000E6FFEECFE6FFEECFE6FFEFCFE6FF9A0EAE
:103EA000E66E880EE66E000EE66E000EE66E020E00
:103EB000E66E70EC6CF0006E090EE15E0050010ED3
:103EC000E66EE66A3CC6E6FFB7EC00F0E552E55266
:103ED000E552880EE66E8F0EE66E000EE66E000E60
:103EE000E66E020EE66E70EC6CF0006E050EE15EA2
:103EF0000050020E06011C5D4AE00401065146E036
:103F000085C0E6FF86C0E6FF87C0E6FF88C0E6FF03
:103F100024C400F025C401F00A0E316E326A00C0DC
:103F20002CF001C02DF04FEC64F02CC000F02DC03F
:103F300001F000C0E6FF01C0E6FF34C402F035C462
:103F400003F00A0E316E326A02C02CF003C02DF06D
:103F50004FEC64F02CC002F02DC003F002C0E6FF6D
:103F600003C0E6FF0EC4E6FF0FC4E6FF290EE66EAF
:103F7000890EE66E000EE66E000EE66E020EE66E2E
:103F800070EC6CF0046E0F0EE15E045049D0040139
:103F9000065146E085C0E6FF86C0E6FF87C0E6FF23
:103FA00088C0E6FF24C400F025C401F00A0E316E7B
:103FB000326A00C02CF001C02DF04FEC64F02CC030
:103FC00000F02DC001F000C0E6FF01C0E6FF34C4E0
:103FD00002F035C403F00A0E316E326A02C02CF0D2
:103FE00003C02DF04FEC64F02CC002F02DC003F0A4
:103FF00002C0E6FF03C0E6FF0EC4E6FF0FC4E6FF03
:10400000010EE66E890EE66E000EE66E000EE66E9E
:10401000020EE66E70EC6CF0046E0F0EE15E045062
:10402000010EE66E010EE66EE66AB7EC00F0E552B0
:10403000E552E552880EE66E8F0EE66E000EE66ED5
:10404000000EE66E020EE66E70EC6CF0006E050E71
:10405000E15E00500401405146E089C0E6FF8AC09D
:10406000E6FF8BC0E6FF8CC0E6FF5EC400F05FC4D5
:1040700001F00A0E316E326A00C02CF001C02DF042
:104080004FEC64F02CC000F02DC001F000C0E6FF42
:1040900001C0E6FF6EC402F06FC403F00A0E316E79
:1040A000326A02C02CF003C02DF04FEC64F02CC03B
:1040B00002F02DC003F002C0E6FF03C0E6FF48C4D3
:1040C000E6FF49C4E6FFD90EE66E880EE66E000EE6
:1040D000E66E000EE66E020EE66E70EC6CF0046E9C
:1040E0000F0EE15E0450010EE66E020EE66EE66A09
:1040F000B7EC00F0E552E552E552880EE66E8F0E01
:10410000E66E000EE66E000EE66E020EE66E70ECD7
:104110006CF0006E050EE15E005004017A5146E03D
:104120008DC0E6FF8EC0E6FF8FC0E6FF90C0E6FFC1
:1041300098C400F099C401F00A0E316E326A00C0D2
:104140002CF001C02DF04FEC64F02CC000F02DC01D
:1041500001F000C0E6FF01C0E6FFA8C402F0A9C458
:1041600003F00A0E316E326A02C02CF003C02DF04B
:104170004FEC64F02CC002F02DC003F002C0E6FF4B
:1041800003C0E6FF82C4E6FF83C4E6FFB10EE66E1D
:10419000880EE66E000EE66E000EE66E020EE66E0D
:1041A00070EC6CF0046E0F0EE15E0450010EE66ED2
:1041B000030EE66EE66AB7EC00F0E552E552E55212
:1041C000D9CFE9FFDACFEAFFEE2A000EEE22EE2287
:1041D000EE22E66AD950040FE96EDACFEAFFEECF9D
:1041E000E6FFEECFE6FFEECFE6FFEFCFE6FF6DECAA
:1041F00002F0006E050EE15E0050000909E1D950A1
:104200000F0FE96EDACFEAFFEE50ED1001E1F6D4C0
:10421000F8EF25F00501296B2A6B2B6B2C6B080E30
:1042200029C5DBFF090E2AC5DBFF0A0E2BC5DBFF04
:104230000B0E2CC5DBFFB4EC67F0140EE66EE66ADD
:10424000E66AE66A6AEC01F0E552E552E552E552AB
:10425000DE6ADE6ADE6ADD6ADD52DD52D9CFE9FF51
:10426000DACFEAFFDE0EEE5C030EEE58000EEE58DB
:10427000000EEE5801E31AD1D9CFE9FFDACFEAFFF9
:10428000EECFE6FFEECFE6FFEECFE6FFEFCFE6FFA5
:104290009A0EE66E880EE66E000EE66E000EE66E74
:1042A000020EE66E70EC6CF0006E090EE15E0050DE
:1042B000010EE66EE66A3CC6E6FFB7EC00F0E5529A
:1042C000E552E552880EE66E8F0EE66E000EE66E43
:1042D000000EE66E020EE66E70EC6CF0006E050EDF
:1042E000E15E00500401065118E029C5E6FF2AC529
:1042F000E6FF2BC5E6FF2CC5E6FF780EE66E880EBE
:10430000E66E000EE66E000EE66E020EE66E70ECD5
:104310006CF0006E090EE15E0050010EE66E010EBB
:10432000E66EE66AB7EC00F0E552E552E552880E1B
:10433000E66E8F0EE66E000EE66E000EE66E020E64
:10434000E66E70EC6CF0006E050EE15E0050010E42
:10435000E66E020EE66EE66AB7EC00F0E552E55254
:10436000E552010EE66E030EE66EE66AB7EC00F06B
:10437000E552E552E552010EE66EE66AE66AE66A45
:104380006AEC01F0E552E552E552E552D9CFE9FF7A
:10439000DACFEAFFEECF00F0EECF01F0EECF02F081
:1043A000EFCF03F0190E2F6E306A316A326A00C007
:1043B0002AF001C02BF002C02CF003C02DF080ECDD
:1043C0006FF026C000F027C001F028C002F029C01D
:1043D00003F000500110021003102AE1D950080F19
:1043E000E96EDACFEAFFEE50050129190CE1EE5033
:1043F00005012A1908E1EE5005012B1904E1EE50E0
:1044000005012C1900E108E1E80EDE6E030EDE6EF8
:10441000DE6ADD6ADD52DD52080E29C5DBFF090EBA
:104420002AC5DBFF0A0E2BC5DBFF0B0E2CC5DBFFFD
:10443000000160A531D0B1EC67F0010EE66ED8EC5A
:1044400014F0E55289EC5CF0060EE66EE66AE66A68
:10445000E66A6AEC01F0E552E552E552E5528B92CC
:104460000601010E1B6F0601206B20C6E6FFB7ECAC
:1044700067F0E5521CC6E6FF6CEC68F0E5525A0E98
:10448000E66E8B0EE66E000EE66E58EC6EF0E552B0
:10449000E552E5527EEF29F0D9CFE9FFDACFEAFF06
:1044A000EE2A000EEE22EE22EE22D8D6B1EC67F014
:1044B000060EE66EE66AE66AE66A6AEC01F0E55226
:1044C000E552E552E552A7EC67F0010EE66EE66AAA
:1044D000E66AE66A6AEC01F0E552E552E552E55219
:1044E0000501296B2A6B2B6B2C6B080E29C5DBFF92
:1044F000090E2AC5DBFF0A0E2BC5DBFF0B0E2CC5F0
:10450000DBFFB4EC67F0140EE66EE66AE66AE66A74
:104510006AEC01F0E552E552E552E552DE6ADE6AE8
:10452000DE6ADD6ADD52DD52D9CFE9FFDACFEAFF7C
:10453000DE0EEE5C030EEE58000EEE58000EEE5846
:1045400001E31AD1D9CFE9FFDACFEAFFEECFE6FFD8
:10455000EECFE6FFEECFE6FFEFCFE6FF510EE66EC1
:10456000890EE66E000EE66E000EE66E020EE66E38
:1045700070EC6CF0006E090EE15E0050010EE66E0C
:10458000E66A3CC6E6FFB7EC00F0E552E552E552BC
:10459000880EE66E8F0EE66E000EE66E000EE66E7C
:1045A000020EE66E70EC6CF0006E050EE15E0050DF
:1045B0000401065118E029C5E6FF2AC5E6FF2BC510
:1045C000E6FF2CC5E6FF780EE66E880EE66E000E5E
:1045D000E66E000EE66E020EE66E70EC6CF0006E9B
:1045E000090EE15E0050010EE66E010EE66EE66A0F
:1045F000B7EC00F0E552E552E552880EE66E8F0EFC
:10460000E66E000EE66E000EE66E020EE66E70ECD2
:104610006CF0006E050EE15E0050010EE66E020EBB
:10462000E66EE66AB7EC00F0E552E552E552010E9F
:10463000E66E030EE66EE66AB7EC00F0E552E55270
:10464000E552010EE66EE66AE66AE66A6AEC01F099
:10465000E552E552E552E552D9CFE9FFDACFEAFF5C
:10466000EECF00F0EECF01F0EECF02F0EFCF03F08F
:10467000190E2F6E306A316A326A00C02AF001C00A
:104680002BF002C02CF003C02DF080EC6FF026C0A0
:1046900000F027C001F028C002F029C003F000504C
:1046A0000110021003102AE1D950080FE96EDACF89
:1046B000EAFFEE50050129190CE1EE5005012A1917
:1046C00008E1EE5005012B1904E1EE5005012C190B
:1046D00000E108E1E80EDE6E030EDE6EDE6ADD6AE2
:1046E000DD52DD52080E29C5DBFF090E2AC5DBFFAE
:1046F0000A0E2BC5DBFF0B0E2CC5DBFF000160A5EE
:1047000031D0B1EC67F0010EE66ED8EC14F0E55252
:1047100089EC5CF0060EE66EE66AE66AE66A6AEC2A
:1047200001F0E552E552E552E5528B920601010E89
:104730001B6F0601206B20C6E6FFB7EC67F0E55261
:104740001CC6E6FF6CEC68F0E5525A0EE66E8B0E66
:10475000E66E000EE66E58EC6EF0E552E552E5525C
:104760007EEF29F0D9CFE9FFDACFEAFFEE2A000E7B
:10477000EE22EE22EE22D8D629C535F52AC536F529
:104780002BC537F52CC538F5B1EC67F006011B6B6E
:104790000601206B35C52AF036C52BF037C52CF045
:1047A00038C52DF0DFEC62F02BC000F02CC001F01A
:1047B0002DC002F02EC003F00A0E306ED70E316EFF
:1047C000230E326E3C0E336E00C02BF001C02CF075
:1047D00002C02DF003C02EF0E2EC63F021EC65F096
:1047E0002AC010F52BC011F52CC012F52DC013F501
:1047F0009AEC0CF035C52AF036C52BF037C52CF0F5
:1048000038C52DF0DFEC62F02BC000F02CC001F0B9
:104810002DC002F02EC003F0FA0E306E7E0E316E07
:104820002A0E326E3F0E336E00C02BF001C02CF00A
:1048300002C02DF003C02EF0E2EC63F021EC65F035
:104840002AC010F52BC011F52CC012F52DC013F5A0
:10485000290EE96E050EEA6EEE500501105D006E40
:10486000EE5005011159016EEE5005011259026E0C
:10487000EE5005011359036E060178513A0DF3CF3E
:10488000E9FFF4CFEAFF000EE926040EEA220D0E3E
:10489000E926000EEA22050EE926000EEA2200C0F3
:1048A000EEFF01C0EDFF9AEC0CF035C52AF036C5DD
:1048B0002BF037C52CF038C52DF0DFEC62F02BC0A3
:1048C00000F02CC001F02DC002F02EC003F0FA0E53
:1048D000306E7E0E316EAA0E326E3E0E336E00C00A
:1048E0002BF001C02CF002C02DF003C02EF0E2EC42
:1048F00063F021EC65F02AC010F52BC011F52CC037
:1049000012F52DC013F5290EE96E050EEA6EEE5074
:104910000501105D006EEE5005011159016EEE505B
:1049200005011259026EEE5005011359036E06017E
:1049300078513A0DF3CFE9FFF4CFEAFF000EE926F4
:10494000040EEA220D0EE926000EEA22050EE926E3
:10495000000EEA2200C0EEFF01C0EDFF9AEC0CF061
:1049600035C52AF036C52BF037C52CF038C52DF0EB
:10497000DFEC62F02BC000F02CC001F02DC002F083
:104980002EC003F0660E306E660E316E660E326E0D
:104990003F0E336E00C02BF001C02CF002C02DF092
:1049A00003C02EF0E2EC63F021EC65F02AC010F5B4
:1049B0002BC011F52CC012F52DC013F5290EE96E90
:1049C000050EEA6EEE500501105D006EEE50050119
:1049D0001159016EEE5005011259026EEE5005019B
:1049E0001359036E060178513A0DF3CFE9FFF4CF66
:1049F000EAFF000EE926040EEA220D0EE926000E5B
:104A0000EA22050EE926000EEA2200C0EEFF01C0F0
:104A1000EDFF9AEC0CF035C52AF036C52BF037C502
:104A20002CF038C52DF0DFEC62F02BC000F02CC06C
:104A300001F02DC002F02EC003F0CD0E306ECC0E72
:104A4000316ECC0E326E3D0E336E00C02BF001C0C5
:104A50002CF002C02DF003C02EF0E2EC63F021EC4C
:104A600065F02AC010F52BC011F52CC012F52DC031
:104A700013F5290EE96E050EEA6EEE500501105D84
:104A8000006EEE5005011159016EEE5005011259EC
:104A9000026EEE5005011359036E060178513A0D6E
:104AA000F3CFE9FFF4CFEAFF000EE926040EEA2275
:104AB0000D0EE926000EEA22050EE926000EEA2276
:104AC00000C0EEFF01C0EDFF9AEC0CF035C52AF0F6
:104AD00036C52BF037C52CF038C52DF0DFEC62F071
:104AE0002BC000F02CC001F02DC002F02EC003F04E
:104AF000306A316A326A3F0E336E00C02BF001C05B
:104B00002CF002C02DF003C02EF0E2EC63F021EC9B
:104B100065F02AC010F52BC011F52CC012F52DC080
:104B200013F5290EE96E050EEA6EEE500501105DD3
:104B3000006EEE5005011159016EEE50050112593B
:104B4000026EEE5005011359036E060178513A0DBD
:104B5000F3CFE9FFF4CFEAFF000EE926040EEA22C4
:104B60000D0EE926000EEA22050EE926000EEA22C5
:104B700000C0EEFF01C0EDFF9AEC0CF0DE6ADE6AC9
:104B8000DE6ADD6ADD52DD52D9CFE9FFDACFEAFF16
:104B9000030EEE5C000EEE58000EEE58000EEE58BE
:104BA00027E2DFCFE9FF010EDBCFEAFF3A0EEA0290
:104BB000F3CFEAFF3A0EE902F3CFE9FFF450EA2619
:104BC000000EE926040EEA220D0EE926000EEA2266
:104BD0001D0EE926000EEA22EE6AED6AD9CFE9FF42
:104BE000DACFEAFFEE2A000EEE22EE22EE22CCD73A
:104BF000DE6ADE6ADE6ADD6ADD52DD52D9CFE9FFA8
:104C0000DACFEAFF030EEE5C000EEE58000EEE580F
:104C1000000EEE5801E3F7D1DFCFE9FF010EDBCF45
:104C2000EAFF3A0EEA02F3CFEAFF3A0EE902F3CFC7
:104C3000E9FFF450EA26000EE926040EEA220D0EE2
:104C4000E926000EEA221D0EE926000EEA22EE50A9
:104C5000ED105CE1DFCFE9FF010EDBCFEAFF3A0E9A
:104C6000EA02F3CFEAFF3A0EE902F3CFE9FFF4508C
:104C7000EA26000EE926040EEA220D0EE926000EB1
:104C8000EA22190EE926000EEA22010EEE6EED6A06
:104C9000DFCFE9FF010EDBCFEAFF3A0EEA02F3CFE6
:104CA000EAFF3A0EE902F3CFE9FFF450EA26000EDC
:104CB000E926040EEA220D0EE926000EEA221B0E5A
:104CC000E926000EEA22010EEE6EED6ADFCFE9FF63
:104CD000010EDBCFEAFF3A0EEA02F3CFEAFF3A0E0B
:104CE000E902F3CFE9FFF450EA26000EE926040EAC
:104CF000EA220D0EE926000EEA22290EE926000E10
:104D0000EA22F40EEE6E010EED6E73D1DFCFE9FFF5
:104D1000010EDBCFEAFF3A0EEA02F3CFEAFF3A0ECA
:104D2000E902F3CFE9FFF450EA26000EE926040E6B
:104D3000EA22060EE926000EEA22EF5001E159D1DF
:104D400000016095020E06011C5D08E0000EDB50BC
:104D5000580FE76E0C0EE7CFDBFF05D0410EF36E68
:104D60000C0EF3CFDBFF0C0EDBCF00F0016A00BEB0
:104D7000016800C0E6FF01C0E6FF620EE66E880E25
:104D8000E66E000EE66E000EE66E020EE66E70EC4B
:104D90006CF0026E070EE15E0250010EE66EE66AEE
:104DA0003CC6E6FFB7EC00F0E552E552E552DFCF36
:104DB000E9FF010EDBCFEAFF3A0EEA02F3CFEAFF8A
:104DC0003A0EE902F3CFE9FFF450EA26000EE92695
:104DD000040EEA220D0EE926000EEA220B0EE92649
:104DE000000EEA22EECFE6FFEFCFE6FFDFCFE9FFCE
:104DF000010EDBCFEAFF3A0EEA02F3CFEAFF3A0EEA
:104E0000E902F3CFE9FFF450EA26000EE926040E8A
:104E1000EA220D0EE926000EEA22090EE926000E0E
:104E2000EA22EECFE6FFEFCFE6FF4F0EE66E880EEA
:104E3000E66E000EE66E000EE66E020EE66E70EC9A
:104E40006CF0006E090EE15E0050010EE66E010E80
:104E5000E66EE66AB7EC00F0E552E552E552DFCFC8
:104E6000E9FF010EDBCFEAFF3A0EEA02F3CFEAFFD9
:104E70003A0EE902F3CFE9FFF450EA26000EE926E4
:104E8000040EEA220D0EE926000EEA220D0EE92696
:104E9000000EEA22EECFE6FFEFCFE6FFDFCFE9FF1D
:104EA000010EDBCFEAFF3A0EEA02F3CFEAFF3A0E39
:104EB000E902F3CFE9FFF450EA26000EE926040EDA
:104EC000EA220D0EE926000EEA22170EE926000E50
:104ED000EA22EECFE6FFEFCFE6FF3C0EE66E880E4D
:104EE000E66E000EE66E000EE66E020EE66E70ECEA
:104EF0006CF0006E090EE15E0050010EE66E020ECF
:104F0000E66EE66AB7EC00F0E552E552E552DFCF17
:104F1000E9FF010EDBCFEAFF3A0EEA02F3CFEAFF28
:104F20003A0EE902F3CFE9FFF450EA26000EE92633
:104F3000040EEA220D0EE926000EEA220F0EE926E3
:104F4000000EEA22EECFE6FFEFCFE6FFDFCFE9FF6C
:104F5000010EDBCFEAFF3A0EEA02F3CFEAFF3A0E88
:104F6000E902F3CFE9FFF450EA26000EE926040E29
:104F7000EA220D0EE926000EEA22150EE926000EA1
:104F8000EA22EECFE6FFEFCFE6FF290EE66E880EAF
:104F9000E66E000EE66E000EE66E020EE66E70EC39
:104FA0006CF0006E090EE15E0050010EE66E030E1D
:104FB000E66EE66AB7EC00F0E552E552E552010E06
:104FC000E66E010EE66EC9EC67F0E552E552020EA0
:104FD000E66E93EC5CF0E5520400000160A5F7D7A3
:104FE000E66A010EE66EC9EC67F0E552E55289EC1F
:104FF0005CF0D9CFE9FFDACFEAFFEE2A000EEE220D
:10500000EE22EE22FBD5B1EC67F0060EE66EE66A04
:10501000E66AE66A6AEC01F0E552E552E552E552CD
:105020008B9206011B6B0601206B89EC5CF006017C
:10503000265101E052D1DE6ADE6ADE6ADD6ADD52A7
:10504000DD52050EE66E93EC5CF0E552140EE66E52
:10505000880EE66E000EE66E000EE66E020EE66E3E
:1050600070EC6CF0006E050EE15E0050010EE66E15
:10507000E66A3CC6E6FFB7EC00F0E552E552E552C1
:10508000000160A59DD08F80FF0EE66E870EE66E54
:10509000000EE66E000EE66E020EE66E70EC6CF030
:1050A000006E050EE15E0050010EE66EE66A3CC63B
:1050B000E6FFB7EC00F0E552E552E552060EE66E6B
:1050C000E66AE66AE66A6AEC01F0E552E552E55204
:1050D000E55289EC5CF0880EE66E8F0EE66E000EEF
:1050E000E66E000EE66E020EE66E70EC6CF0006E80
:1050F000050EE15E0050010EE66EE66AE66AB7EC68
:1051000000F0E552E552E552880EE66E8F0EE66E2F
:10511000000EE66E000EE66E020EE66E70EC6CF0AF
:10512000006E050EE15E0050010EE66E010EE66EA9
:10513000E66AB7EC00F0E552E552E552880EE66EFD
:105140008F0EE66E000EE66E000EE66E020EE66E46
:1051500070EC6CF0006E050EE15E0050010EE66E24
:10516000020EE66EE66AB7EC00F0E552E552E55253
:10517000880EE66E8F0EE66E000EE66E000EE66E90
:10518000020EE66E70EC6CF0006E050EE15E0050F3
:10519000010EE66E030EE66EE66AB7EC00F0E5522D
:1051A000E552E552020EE66EC2EC11F0E552A00E99
:1051B000DE6E860EDE6E010EDE6EDD6ADD52DD52C3
:1051C0000400000100016051040B1BE1D9CFE9FF8D
:1051D000DACFEAFFEFCF00F0EE2A000EEFCF01F0BA
:1051E000EE22EFCF02F0EE22EFCF03F0EF22E80E37
:1051F000005C030E0158000E0258000E035801E235
:1052000025D7880EE66E8F0EE66E000EE66E000E57
:10521000E66E020EE66E70EC6CF0006E050EE15E5E
:105220000050010EE66EE66AE66AB7EC00F0E55261
:10523000E552E552880EE66E8F0EE66E000EE66EC3
:10524000000EE66E020EE66E70EC6CF0006E050E5F
:10525000E15E0050010EE66E010EE66EE66AB7EC06
:1052600000F0E552E552E552880EE66E8F0EE66ECE
:10527000000EE66E000EE66E020EE66E70EC6CF04E
:10528000006E050EE15E0050010EE66E020EE66E47
:10529000E66AB7EC00F0E552E552E552880EE66E9C
:1052A0008F0EE66E000EE66E000EE66E020EE66EE5
:1052B00070EC6CF0006E050EE15E0050010EE66EC3
:1052C000030EE66EE66AB7EC00F0E552E552E552F1
:1052D00089EC5CF011EC15F000D006011B6B0601A7
:1052E000206B89EC5CF0D10EE66E870EE66E000E48
:1052F000E66E58EC6EF0E552E552E552110EE15CB7
:1053000002E2E16AE552E16EE552E7CFD9FF120011
:10531000C0EC35F00601285148E0BBC5E6FFBCC52E
:10532000E6FFB9C5E6FFBAC5E6FFB7C5E6FFB8C5F3
:10533000E6FF27EC33F039EC33F015EC33F09C0E3C
:10534000E66E870EE66E000ECCEC33F030EC33F0F8
:1053500042EC33F01EEC33F0790EE66E870EE66E0B
:10536000000E91EC34F0110E49EC2EF07CEC30F094
:1053700084C4E6FF85C4E6FF30EC31F057EC30F032
:105380004AC4E6FF4BC4E6FFC6EC30F052EC30F006
:1053900010C4E6FF11C4E6FFC1EC30F03B0EE66E30
:1053A000870EE66E000ECCEC33F012000301C80E3F
:1053B000CE6F45EC2FF035EC31F027E02B0EE66E8A
:1053C00015EC6DF0E55235EC31F0FDE145EC2FF0D8
:1053D0002B0EE66E15EC6DF0E55235EC31F0FDE18B
:1053E0000C0EE66EC7EC6FF0E55235EC31F0FDE1E6
:1053F000010EE66EC7EC6FF0E55245EC2FF00601AA
:10540000010E926F0301180ECE6F12000601206B81
:10541000120EE66E220EE66EB0EC6BF0E552E5522F
:10542000260EE66E870EE66E000EE66E000EE66E47
:10543000020EE66E70EC6CF0006E050EE15E005040
:10544000010EE66EE66AE66AB7EC00F0E552E55258
:10545000E552010EE66E010EE66EE66AB7EC00F06C
:10546000E552E552E552010EE66E020EE66EE66A80
:10547000B7EC00F0E552E552E552010EE66E030E80
:10548000E66EE66AB7EC00F0E552E552E552120E20
:10549000E66E220EE66E5BEC6CF0E552E5528F9004
:1054A00085DF8B68FCAE19D0FC9E9D0EE66E970ED4
:1054B000E66E000EE66E58EC6EF0E552E552E552EF
:1054C0002FEC04F0010EE66E870EE66E000EE66E1F
:1054D00058EC6EF0E552E552E552FCAC19D0FC9C5C
:1054E0009D0EE66E970EE66E000EE66E58EC6EF0C0
:1054F000E552E552E5522FEC04F0D70EE66E860E2B
:10550000E66E000EE66E58EC6EF0E552E552E5529E
:105510000601135118E09D0EE66E970EE66E000E22
:10552000E66E58EC6EF0E552E552E5522FEC04F0D1
:10553000AE0EE66E860EE66E000EE66E58EC6EF06F
:10554000E552E552E5520601145118E09D0EE66E53
:10555000970EE66E000EE66E58EC6EF0E552E552E0
:10556000E5522FEC04F0850EE66E860EE66E000E18
:10557000E66E58EC6EF0E552E552E552140EE66E1A
:10558000E66A6D0EE66E860EE66E000EE66E000EA4
:10559000E66E020EE66E7CEC6BF0006E070EE15ECE
:1055A0000050010EE66EE66AE66AB7EC00F0E552DE
:1055B000E552E552980EE66E970EE66E000EE66E28
:1055C00058EC6EF0E552E552E552140EE66EE66ACE
:1055D00039C6E6FF3AC6E6FF3BC6E6FF000EE66EBA
:1055E000020EE66E7CEC6BF0006E070EE15E005082
:1055F000010EE66E010EE66EE66AB7EC00F0E552CB
:10560000E552E552000EE66E020EE66E12EC6FF009
:10561000E552E552960EE66E970EE66E000EE66EC9
:1056200058EC6EF0E552E552E552140EE66EE66A6D
:1056300036C6E6FF37C6E6FF38C6E6FF000EE66E62
:10564000020EE66E7CEC6BF0006E070EE15E005021
:10565000000EE66E020EE66E12EC6FF0E552E552B9
:10566000010EE66E020EE66EE66AB7EC00F0E55259
:10567000E552E552140EE66EE66A800EE66E970E6F
:10568000E66E000EE66E000EE66E020EE66E7CEC36
:105690006BF0006E070EE15E0050000EE66E020E2B
:1056A000E66E12EC6FF0E552E5529D0EE66E970E37
:1056B000E66E000EE66E58EC6EF0E552E552E552ED
:1056C000010EE66E030EE66EE66AB7EC00F0E552F8
:1056D000E552E5522FEC04F04E0EE66E860EE66EB5
:1056E000000EE66E58EC6EF0E552E552E55283A2EC
:1056F00003D00601010E286F83A043D02FEC04F0E5
:10570000350EE66E860EE66E000EE66E58EC6EF016
:10571000E552E552E552000EE66EE66A000EE66ED0
:10572000E66A010EE66EE66A74EC6AF0006E060E3A
:10573000E15E00502FEC04F0180EE66E860EE66E69
:10574000000EE66E58EC6EF0E552E552E5520301AC
:10575000FD6B0F0E0301FD5D14E2080EE66EE66AB6
:105760000301FD51E66EE66A0F0EE66E7F0EE66EF1
:1057700074EC6AF0006E060EE15E00500301FD2B32
:10578000E8D72FEC04F0F80EE66E850EE66E000EFC
:10579000E66E58EC6EF0E552E552E552000EE66E0C
:1057A000E66A000EE66EE66AB7EC6AF0E552E5528C
:1057B000E552E55259080FE1000EE66EE66A020E68
:1057C000E66EE66AB7EC6AF0E552E552E552E5525C
:1057D0000301FC6F29D02FEC04F0D50EE66E850E88
:1057E000E66E000EE66E58EC6EF0E552E552E552BC
:1057F000000EE66EE66A000EE66EE66A010EE66EE2
:10580000E66A74EC6AF0006E060EE15E00502FEC62
:1058100004F0B50EE66E850EE66E000EE66E58ECF0
:105820006EF0E552E552E5522FEC04F09C0EE66E68
:10583000850EE66E000EE66E58EC6EF0E552E5520F
:10584000E552080EE66EE66A000EE66EE66AB7EC12
:105850006AF0E552E552E552E552590822E10301AA
:10586000FD6B0F0E0301FD5D1BE20301FD51E66EB2
:10587000E66A0A0EE66EE66AB7EC6AF0E552E552B1
:10588000E552E552E66E0301FD51EA6A810FE96EC9
:10589000060EEA22E552E750EF6E0301FD2BE1D739
:1058A0003BD02FEC04F0800EE66E850EE66E000E07
:1058B000E66E58EC6EF0E552E552E5520301FD6BE1
:1058C0000F0E0301FD5D1BE2080EE66EE66A0301A2
:1058D000FD51E66EE66A0F0EE66E0301FD51EA6ABF
:1058E000810FE96E060EEA22EF50E66E74EC6AF064
:1058F000006E060EE15E00500301FD2BE1D72FEC98
:1059000004F0670EE66E850EE66E000EE66E58EC4D
:105910006EF0E552E552E55283A403D061EC0BF042
:10592000FFD763EC41F02FEC04F04E0EE66E850ECF
:10593000E66E000EE66E58EC6EF0E552E552E5526A
:10594000050EE66EE66AE66AE66A6AEC01F0E55282
:10595000E552E552E552C0EC35F083A00DD02FECB6
:1059600004F0380EE66E850EE66E000EE66E58EC1C
:105970006EF0E552E552E552740EE66E030EE66EE9
:1059800065C0E6FF66C0E6FF67C0E6FF68C0E6FFE9
:1059900000EC09F0006E060EE15E00507B0EE66E34
:1059A000030EE66E69C0E6FF6AC0E6FF6BC0E6FF65
:1059B0006CC0E6FF00EC09F0006E060EE15E0050E0
:1059C0007B0EE66E030EE66E740EE66E030EE66E5A
:1059D0001F0EE66E850EE66E000EE66E000EE66E9B
:1059E000020EE66E70EC6CF0006E090EE15E005087
:1059F000010EE66EE66AE66AB7EC00F0E552E552A3
:105A0000E5528350800B01E0010EE66EE66A83509A
:105A1000400B01E0010EE66EE66A8350200B01E0C8
:105A2000010EE66EE66A8350100B01E0010EE66E91
:105A3000E66A8350080B01E0010EE66EE66A8350C9
:105A4000040B01E0010EE66EE66A8350020B01E0F2
:105A5000010EE66EE66A8350010BE66EE66AFD0E05
:105A6000E66E840EE66E000EE66E000EE66E020E28
:105A7000E66E70EC6CF0006E150EE15E0050010EEB
:105A8000E66E010EE66EE66AB7EC00F0E552E5520E
:105A9000E55243EC03F0050EE66EE66AE66AE66A56
:105AA0006AEC01F0E552E552E552E552C0EC35F002
:105AB00065C0E6FF66C0E6FF8FEC70F0E552E55288
