:020000040000FA
:06000000DBEF73F01200BB
:020006001200E6
:06000800E4EF57F01200C6
:02000E00C250DE
:08001000020B01E0010E1200D9
:0600180078EF5EF012001B
:02001E000700D9
:100020000FE80000F90400000100000000E90000F2
:10003000F404000002000000FCE80000FB020000E5
:100040000400000063E80000600000009900000068
:1000500051E80000EA030000120000004FE8000031
:10006000F2040000020000001CE80000C2050000CD
:040070003300000059
:0C00740005EC2DF083E941E8015005087F
:1000800001E2016A005003E050EC2EF0EF6A01EB50
:10009000C7F50001FF0E036F9A0E046F000E056F87
:1000A00090EC2EF0E5CF08F0CDEC2FF0000141EC04
:1000B00031F050EC2EF0EFCF09F00A6B0B6B0051D2
:1000C0000925F36E01510A21F46E02510B21F86EDD
:1000D000F4CFF7FFF3CFF6FF0800F550036E50ECB6
:1000E0002EF0EF2AEFCF00F0016B026BB8EC31F08D
:1000F00002C0E6FFFF0E096F9A0E0A6F000E0B6F2B
:1001000090EC2EF0E5CF0EF0E5CF0DF0E7CF0CF040
:10011000000109510C25066F0A510D21076F0B5183
:100120000E21086FE5EC32F0E66EB7EC6DF043E9B6
:10013000E552E7CF02F0E552E7CF01F0E552E7CF15
:1001400000F0FCC303F0FDC304F0FEC305F00001A2
:100150000351005D045101590551025903E350EC6C
:100160002EF0EF6A035042E9E7CFD9FF120005EC09
:100170002DF084E90001F6514FE0005021E00250DB
:1001800001240501C86FD8EC31F0940EE66E990E8B
:10019000E66E000EE66E4AEC2DF00AEC6EF047E9D2
:1001A000D8EC31F0AEEC32F005014AEC2DF0DCEC8D
:1001B0006DF046E905012CEC31F0140ED0EC2EF078
:1001C0000150030A0CE0010A08E0030A04E0010AF6
:1001D00009E1E66A08D0400E03D0140E01D0540E97
:1001E000E66E01D0E66A59EC71F041E90150000178
:1001F000A0250501C86F00016A510EE094EC2FF0B4
:10020000FDE105014AEC2DF088EC72F042E994EC36
:100210002FF0FDE1010E90161EEF2DF000016E5142
:1002200004E062EC41F000016E6B725107E0726B0A
:10023000F85102E0000E01D0010EF86F755104E094
:1002400021EC11F00001756B685103E0A7DA0001A1
:10025000686B715104E001EC07F00001716B6F51A4
:1002600003E0BDDA00016F6B1200D9CFE6FFE1CFEA
:10027000D9FF85E90401766B776B786B796B0401A4
:100280007651005C775101587851025879510358E2
:1002900009E3000004000401762B000E7723782385
:1002A0007923EDD741E9E7CFD9FF1200D9CFE6FF97
:1002B000E1CFD9FF85E9030EE66E95EC6CF041E9DC
:1002C00092C67AF493C67BF494C67CF495C67DF40A
:1002D000E1EC6CF0D9CFE9FFDACFEAFF04017A5103
:1002E000EE240401826F04017B51EE200401836F30
:1002F00004017C51EE200401846F04017D51EE2045
:100300000401856F030EE66E95EC6CF041E992C630
:100310007EF493C67FF494C680F495C681F4E1EC34
:100320006CF004007E0EE96E040EEA6E0401825148
:10033000EE5C8351EE588451EE588551EE58E2E35D
:1003400041E9E7CFD9FF120011EC31F019E03CECA4
:100350002DF092C686F493C687F494C688F495C6A9
:1003600089F47FEC2DF004018651EE248E6F8751C5
:10037000EE208F6F8851EE20906F8951EE20916FA3
:100380003CEC2DF092C68AF493C68BF494C68CF4A0
:1003900095C68DF4E1EC6CF08A0EE96E040EEA6EFF
:1003A00004018E51EE5C8F51EE589051EE589151F0
:1003B000EE5802E2000E01D0010E1EEF2DF011ECFE
:1003C00031F019E03CEC2DF092C692F493C693F410
:1003D00094C694F495C695F47FEC2DF004019251E7
:1003E000EE249A6F9351EE209B6F9451EE209C6FF8
:1003F0009551EE209D6F3CEC2DF092C696F493C67D
:1004000097F494C698F495C699F4E1EC6CF0960EC6
:10041000E96E040EEA6E04019A51EE5C9B51EE58AF
:100420009C51EE589D51EE5802E2000E01D0010E93
:100430001EEF2DF011EC31F019E03CEC2DF092C6DE
:100440009EF493C69FF494C6A0F495C6A1F47FECE5
:100450002DF004019E51EE24A66F9F51EE20A76F50
:10046000A051EE20A86FA151EE20A96F3CEC2DF019
:1004700092C6A2F493C6A3F494C6A4F495C6A5F4B8
:10048000E1EC6CF0A20EE96E040EEA6E0401A651D6
:10049000EE5CA751EE58A851EE58A951EE5802E271
:1004A000000E01D0010E1EEF2DF011EC31F019E01D
:1004B0003CEC2DF092C6AAF493C6ABF494C6ACF40F
:1004C00095C6ADF47FEC2DF00401AA51EE24B26F75
:1004D000AB51EE20B36FAC51EE20B46FAD51EE20B6
:1004E000B56F3CEC2DF092C6AEF493C6AFF494C653
:1004F000B0F495C6B1F4E1EC6CF0AE0EE96E040E0A
:10050000EA6E0401B251EE5CB351EE58B451EE58AC
:10051000B551EE5802E2000E01D0010E1EEF2DF093
:1005200011EC31F019E03CEC2DF092C6B6F493C614
:10053000B7F494C6B8F495C6B9F47FEC2DF0040175
:10054000B651EE24BE6FB751EE20BF6FB851EE200A
:10055000C06FB951EE20C16F3CEC2DF092C6BAF4D9
:1005600093C6BBF494C6BCF495C6BDF4E1EC6CF044
:10057000BA0EE96E040EEA6E0401BE51EE5CBF5184
:10058000EE58C051EE58C151EE5802E2000E01D0B3
:10059000010E1EEF2DF011EC31F019E03CEC2DF0C6
:1005A00092C6C2F493C6C3F494C6C4F495C6C5F407
:1005B0007FEC2DF00401C251EE24CA6FC351EE202E
:1005C000CB6FC451EE20CC6FC551EE20CD6F3CEC0B
:1005D0002DF092C6C6F493C6C7F494C6C8F495C667
:1005E000C9F4E1EC6CF0C60EE96E040EEA6E04018B
:1005F000CA51EE5CCB51EE58CC51EE58CD51EE586D
:1006000002E2000E01D0010E1EEF2DF000000401E9
:10061000CE6B0501C2510401CE5D04E2000004016D
:10062000CE2BF7D712000F0EE66EE6EC72F041E922
:100630001200050EE66EE6EC72F041E9120005ECE0
:100640002DF082E96CA2FED700EBE6FF7EEC73F0A2
:1006500041E91EEF2DF0050E45EF2DF000016A5126
:1006600001E1120094EC2FF0FDE1120005EC2DF0F9
:1006700089E903340EE202500808000E035409E22F
:1006800004EBFCF305EBFDF306EBFEF307EBFFF3E6
:100690005FD00050011009E000018F0E926FC20E72
:1006A000936F750E946F3D0E06D00001926B936BA5
:1006B000800E946F3E0E956FC1EC30F092C0E6FF55
:1006C00093C0E6FF94C0E6FF95C0E6FFC2EC32F0AF
:1006D000C1EC30F004EBE6FF05EBE6FF06EBE6FFCE
:1006E00007EBE6FF42EC63F0C2EC5EF042EC63F035
:1006F000C2EC32F0C4EC5EF0C4EC61F0E552E5CF40
:1007000099F0E5CF98F0E5CF97F0E7CF96F02DEC94
:100710002DF096C0EEFF97C0EEFF98C0EEFF99C097
:10072000EEFF001C0DE1011C0BE10001966B976BC5
:10073000986B996B2DEC2DF0EE6AEE6AEE6AEE6A1C
:1007400096C0FCF397C0FDF398C0FEF399C0FFF389
:100750001EEF2DF004004EC6E6FF4FC6E6FF50C662
:10076000E6FF51C6E6FF66DB44E9F3CFE6FFF4CFD0
:10077000E6FF8D0EE66E990EE66E000EE66E200E1A
:10078000E66E030EE66E1CEC70F047E9200EE66E96
:10079000030EE66E36EC71F042E91200DBDF140E58
:1007A000E66EA50EE66E000E16EC30F00401236B2B
:1007B000040123510AE10A0E8EEC30F056DD44E9C3
:1007C000D2EC33F089EC5EF0F3D7020E235DC2DF8A
:1007D000720EE66EA50EE66E000E16EF30F0040007
:1007E0008A0EE66E990EE66E000EE66E000EE66E5E
:1007F000020EE66E1CEC70F045E9000EE66E020E8D
:10080000E66E36EC71F042E9A5DF850EE66E990ED4
:10081000E66E000EE66EBAEC70F043E99DC0E6FFAE
:100820009EC0E6FF9FC0E6FF000EE66E020EE66E7B
:100830009EEC6DF045E9000EE66E020EE66E36ECBB
:1008400071F042E9830EE66E990EE66E000EE66EDA
:10085000BAEC70F043E99AC0E6FF9BC0E6FF9CC08B
:10086000E6FF000EE66E020EE66E9EEC6DF045E9C8
:10087000000EE66E020EE66E36EC71F042E96D0E89
:10088000E66E990EE66E000EE66E000EE66E020E45
:10089000E66E9EEC6DF045E9000EE66E020EE66E29
:1008A00036EC71F042E900018351E66EE66A000120
:1008B0006051E66EE66A5AC6E6FF5BC6E6FF5CC6B6
:1008C000E6FF5DC6E6FF56C6E6FF57C6E6FF58C61A
:1008D000E6FF59C6E6FF44C6E6FF45C6E6FF01C689
:1008E000E6FF02C6E6FF03C6E6FF04C6E6FF835046
:1008F000800B01E0010EE66EE66A8350400B01E0DA
:10090000010EE66EE66A8350200B01E0010EE66EF2
:10091000E66A8350100B01E0010EE66EE66A835032
:10092000080B01E0010EE66EE66A8350040B01E05D
:10093000010EE66EE66A8350020B01E0010EE66EE0
:10094000E66A8350010BE66EE66A00016351E66ECB
:10095000E66ADE0EE66E980EE66E000EE66E000E9D
:10096000E66E020EE66E1CEC70F069E9000EE66EB3
:10097000020EE66E36EC71F042E90601A651E66E13
:10098000E66A7850E66EE66A6AC6E6FF6BC6E6FF80
:100990006CC6E6FF6DC6E6FF4EC6E6FF4FC6E6FF35
:1009A00050C6E6FF51C6E6FF92C6E6FF93C6E6FFD5
:1009B00094C6E6FF95C6E6FF7EEC61F092C6E6FFC0
:1009C00093C6E6FF94C6E6FF95C6E6FF8EC6E6FF31
:1009D0008FC6E6FF90C6E6FF91C6E6FF52C6E6FF69
:1009E00053C6E6FF54C6E6FF55C6E6FF4AC6E6FF15
:1009F0004BC6E6FF4CC6E6FF4DC6E6FF62C6E6FF05
:100A000063C6E6FF64C6E6FF65C6E6FF8AC6E6FF84
:100A10008BC6E6FF8CC6E6FF8DC6E6FF86C6E6FF00
:100A200087C6E6FF88C6E6FF89C6E6FF6EC6E6FF14
:100A30006FC6E6FF70C6E6FF71C6E6FF4EC6E6FF6C
:100A40004FC6E6FF50C6E6FF51C6E6FF1F0EE66E34
:100A5000980EE66E000EE66E000EE66E020EE66E74
:100A60001CEC70F075E9000EE66E020EE66E36ECD8
:100A700071F042E929C4E6FF2AC4E6FF2BC4E6FF71
:100A80002CC4E6FF66C6E6FF67C6E6FF68C6E6FF5B
:100A900069C6E6FF72C6E6FF73C6E6FF74C6E6FFE8
:100AA00075C6E6FF76C6E6FF77C6E6FF78C6E6FFC0
:100AB00079C6E6FF7AC6E6FF7BC6E6FF7CC6E6FFA0
:100AC0007DC6E6FF7EC6E6FF7FC6E6FF80C6E6FF80
:100AD00081C6E6FFC00EE66E970EE66E000EE66E6D
:100AE000000EE66E020EE66E1CEC70F05DE9000E84
:100AF000E66E020EE66E36EC71F042E90401CF6B51
:100B0000030E0401CF5D01E36ED10401CF51400D0E
:100B1000F3CFE9FFF4CFEAFF000EE926050EEA2243
:100B2000060EE926000EEA22EF5001E159D1040138
:100B3000CF51400DF3CFE9FFF4CFEAFF000EE926D5
:100B4000050EEA220F0EE926000EEA221B0EE92608
:100B5000000EEA22EECFE6FFEECFE6FF0401CF5112
:100B6000400DF3CFE9FFF4CFEAFF000EE926050EB2
:100B7000EA220F0EE926000EEA22190EE926000EDF
:100B8000EA22EECFE6FFEECFE6FF0401CF51400DA3
:100B9000F3CFE9FFF4CFEAFF000EE926050EEA22C3
:100BA0000F0EE926000EEA222D0EE926000EEA229B
:100BB000EECFE6FFEECFE6FF0401CF51400DF3CFBD
:100BC000E9FFF4CFEAFF000EE926050EEA220F0E38
:100BD000E926000EEA222B0EE926000EEA22EECFCD
:100BE000E6FFEECFE6FF0401CF51400DF3CFE9FF62
:100BF000F4CFEAFF000EE926050EEA220F0EE926E1
:100C0000000EEA22090EE926000EEA22EECFE6FFE8
:100C1000EECFE6FF0401CF51400DF3CFE9FFF4CF53
:100C2000EAFF000EE926050EEA220F0EE926000E65
:100C3000EA22150EE926000EEA22EECFE6FFEECFFD
:100C4000E6FF0401CF51400DF3CFE9FFF4CFEAFFF7
:100C5000000EE926050EEA220F0EE926000EEA2212
:100C6000170EE926000EEA22EECFE6FFEECFE6FFF2
:100C70000401CF51400DF3CFE9FFF4CFEAFF000E9E
:100C8000E926050EEA220F0EE926000EEA22050EDD
:100C9000E926000EEA22EECFE6FFEECFE6FF0401E2
:100CA000CF51400DF3CFE9FFF4CFEAFF000EE92664
:100CB000050EEA220F0EE926000EEA22030EE926AF
:100CC000000EEA22EECFE6FFEECFE6FF0401CF51A1
:100CD000400DF3CFE9FFF4CFEAFF000EE926050E41
:100CE000EA220F0EE926000EEA22EE52EECFE6FFD0
:100CF000EECFE6FF0401CF51E66EE66A480EE66EDF
:100D0000970EE66E000EE66E000EE66E020EE66EC2
:100D10001CEC70F05BE9000EE66E020EE66E36EC3F
:100D200071F042E9E66AE66A7A0EE66E440EE66E15
:100D30000401CF51400DF3CFE9FFF4CFEAFF000EDD
:100D4000E926050EEA220F0EE926000EEA22230EFE
:100D5000E926000EEA22EECFE6FFEECFE6FFEECF69
:100D6000E6FFEECFE6FF42EC63F03AEC60F0E66AB5
:100D7000E66A7A0EE66E440EE66E0401CF51400D2F
:100D8000F3CFE9FFF4CFEAFF000EE926050EEA22D1
:100D90000F0EE926000EEA22270EE926000EEA22AF
:100DA000EECFE6FFEECFE6FFEECFE6FFEECFE6FFBB
:100DB00042EC63F03AEC60F0270EE66E970EE66EBA
:100DC000000EE66E000EE66E020EE66E1CEC70F093
:100DD00049E9000EE66E020EE66E36EC71F042E96D
:100DE0000401CF2B8DD60001F85109E00F0EE66EFD
:100DF000970EE66E000EE66EBAEC70F043E9040062
:100E000012001B0EE66EA60EE66E000E16EC30F01B
:100E1000650EE66EA60EE66E000E16EC30F00001D2
:100E2000F85107E00F0EE66E970EE66E000E16EC18
:100E300030F0120005EC2DF0E2EC2EF002E2F6ECC0
:100E40002EF000EBD1F501EBD2F502EBD3F503EB7D
:100E5000D4F557EC2EF09AEC2EF0E5CFCCF5E5CF9B
:100E6000CBF5E5CFCAF5E7CFC9F557EC2EF0FFEC8F
:100E70002EF038EC31F094EC2DF0ADEC2EF09AEC35
:100E80002EF0E5CFD0F5E5CFCFF5E5CFCEF5E7CF26
:100E9000CDF5ADEC2EF008EC2FF038EC31F094EC01
:100EA0002DF0E0EC31F0E66E08EC2FF0FFEC2EF0C8
:100EB000FD0EE66E960EE66E000E9CEC2FF051E9EC
:100EC00066EF31F005EC2DF0E2EC2EF002E2F6ECEC
:100ED0002EF000EBDDF501EBDEF502EBDFF503EBC9
:100EE000E0F557EC2EF0A1EC2EF0E5CFD8F5E5CFEC
:100EF000D7F5E5CFD6F5E7CFD5F557EC2EF011ECC9
:100F00002FF038EC31F0ADEC2DF0ADEC2EF0A1EC83
:100F10002EF0E5CFDCF5E5CFDBF5E5CFDAF5E7CF71
:100F2000D9F5ADEC2EF01AEC2FF038EC31F0ADEC39
:100F30002DF01AEC2FF011EC2FF0F10EE66E960E5C
:100F4000E66E000E9CEC2FF04DE966EF31F005ECFB
:100F50002DF083E901340EE300EB00F001EB01F02A
:100F60000001006D011F000E012300C0F3FF01C04E
:100F7000F4FF02D0D3EC2EF01EEF2DF005EC2DF097
:100F800085E9033413E3E668E668E668E668BFECE3
:100F90002FF003EBE6FF38EC31F000C0FCF301C0AA
:100FA000FDF302C0FEF303C0FFF308D000EBFCF337
:100FB00001EBFDF302EBFEF303EBFFF31EEF2DF06D
:100FC0004BEC31F0C7EC32F05BEC2CF023EC2FF063
:100FD000E90EE66E960EE66E000EE7EF31F04BEC92
:100FE00031F0A0EC32F023EC2FF0E10EE66E960E1D
:100FF000E66E000EE7EF31F0D0EC31F002E32D0E9B
:10100000916F8DEC2DF015EC60F0A8EC2CF0A0ECBD
:1010100032F07BEC30F0F6EC2CF0D890000103516C
:10102000000A08E6DC0E005D050E0159000E0259AB
:10103000000E035917E27BEC30F0F6EC2CF03AECA2
:101040002EF091C004F00001056B04BF0569D2ECDD
:101050002FF0DB0EE66E960EE66E000E0BEC2EF019
:101060004BE934D0E66AE66A7A0EE66E440E77EC17
:101070002DF0A8EC2CF0C7EC32F0ECEC31F0E3C032
:10108000E6FFE66EF6EC2CF03AEC2EF07BEC30F05E
:1010900075DF44E9FCC304F0FDC305F0FEC306F0B0
:1010A000FFC307F03AEC2EF091C008F00001096B85
:1010B00008BF096908C0E6FF09C0E6FFCE0EE66E6C
:1010C000960EE66E000E0BEC2EF04FE9D3EC2EF0F0
:1010D0001EEF2DF0D0EC31F002E32D0E916FE66A99
:1010E000E66A200EE66E410E53EC31F015EC60F02E
:1010F000C4EC61F0E552E5CFCAF0E5CFC9F0E5CF29
:10110000C8F0E7CFC7F029EC2FF0D8EC30F0200E74
:10111000E66E410EE66E29EC2FF0CDEC32F00A0EB1
:10112000ECEC31F0A3EC2FF0EAEC32F0A3EC2FF072
:1011300091C000F00001016B00BF0169B8EC31F013
:10114000C40EE66E960EE66E000E0BEC2EF04BE92A
:10115000D3EC2EF01EEF2DF005EC2DF085E93CECE4
:101160002DF003500001006F016B01354AE2005180
:10117000FA08000E015545E2FF0ED8EC2EF00AE108
:10118000F45008E10001775101E183D1E1EC6CF00A
:10119000010E82D1FE0ED8EC2EF009E1F45007E1E9
:1011A000E1EC6CF0000115EC2DF0040E27D0FD0EE3
:1011B000D8EC2EF009E1F45007E10001010E776F41
:1011C000E1EC6CF0FD0E68D1FC0ED8EC2EF008E1DD
:1011D000F45006E10001776BE1EC6CF0FC0E5CD1A1
:1011E000FB0ED8EC2EF00DE1F4500BE10001776B13
:1011F000E1EC6CF0000115EC2DF0050EBDEC31F0CA
:101200004BD10001775101E144D10001FF510008A9
:1012100001E33FD1FF0715EC2DF0040E70EC32F026
:10122000EFCFE2F5AAEC03F0BFEC2FF0BAEC70F0D0
:1012300043E9000115EC2DF087EC2DF0FF51E66E2F
:10124000E66AB20EE66E960EE66E000EB3EC32F073
:101250000501E16BE151E12BE25D07E1F60EE66E7F
:10126000A80EE66E000E16EC30F00AEC2DF007E149
:10127000160EE66EA90EE66E000E16EC30F00AECC5
:101280002DF007E1460EE66EA90EE66E000E16EC96
:1012900030F00AEC2DF007E1690EE66EA90EE66E5D
:1012A000000E16EC30F00AEC2DF007E18C0EE66E25
:1012B000A90EE66E000E16EC30F00AEC2DF007E1F8
:1012C000BD0EE66EA90EE66E000E16EC30F00AECCE
:1012D0002DF007E1F10EE66EA90EE66E000E16EC9B
:1012E00030F00AEC2DF007E1260EE66EAA0EE66E4F
:1012F000000E16EC30F00AEC2DF007E15F0EE66E02
:10130000AA0EE66E000E16EC30F00AEC2DF007E1A6
:101310008D0EE66EAA0EE66E000E16EC30F00AECAC
:101320002DF007E1B40EE66EA80EE66E000E16EC88
:1013300030F00AEC2DF007E1D40EE66EA80EE66E52
:10134000000E16EC30F00AEC2DF007E1E40EE66E2C
:10135000A70EE66E000E16EC30F00AEC2DF007E159
:10136000BD0EE66EAA0EE66E000E16EC30F00AEC2C
:101370002DF007E1FE0EE66EAA0EE66E000E16ECEC
:1013800030F00AEC2DF007E1240EE66EAB0EE66EAF
:10139000000E16EC30F00AEC2DF007E14A0EE66E76
:1013A000AB0EE66E000E16EC30F00AEC2DF007E105
:1013B000760EE66EAB0EE66E000E16EC30F00AEC22
:1013C0002DF007E18E0EE66EAB0EE66E000E16EC0B
:1013D00030F00AEC2DF007E1A50EE66EAB0EE66EDE
:1013E000000E16EC30F00AEC2DF007E1490EE66E27
:1013F000AF0EE66E000E16EC30F00AEC2DF007E1B1
:10140000870EE66EAF0EE66E000E16EC30F00AECBC
:101410002DF007E1A60EE66EAF0EE66E000E16EC9E
:1014200030F00AEC2DF007E1D20EE66EAB0EE66E60
:10143000000E16EC30F00501E151D880E25517E2BC
:10144000E2510001006F016BFA0ED89001BF03D08A
:10145000005D000E01590BE20501E251E66EE66AFD
:10146000980EE66E960EE66E000E7DEC32F00001F0
:10147000FF5102E10001776B000115EC2DF0050E24
:10148000D0EC2EF015EC2DF0EE6AEE6AEE6AEE6A04
:10149000BCD6E1EC6CF0000E1EEF2DF00001010E49
:1014A000666F83A449D0D2EC33F0640E8EEC30F03A
:1014B00005C6E6FF06C6E6FF07C6E6FF08C6E6FF66
:1014C0007EEC61F043EC2EF0B5DC44E9F3CFE6FFAF
:1014D000F4CFE6FF7E0EE66E960EE66E000E4CEC46
:1014E0002CF04BE9010EE66EE66AC6EC2FF0E66ED4
:1014F000C6EC2FF0020E1BEC30F043EC2EF032EC79
:101500002FF07EEC61F032EC2FF043EC2EF05E0E0B
:10151000E66E960EE66E000E4CEC2CF051E9010ED4
:10152000E66E030E1BEC30F0880EE66E130EF3EC45
:1015300031F089EC5EF0B5D70001666B120005EC66
:101540002DF083E91B0E8FEC2FF05B0E8FEC2FF04C
:10155000320E8FEC2FF04A0E8FEC2FF0070EE66E56
:10156000A50EE66E000E16EC30F0BA0EE66EA40E76
:10157000E66E000E16EC30F01EEF2DF005EC2DF0AF
:1015800082E900017A5128E17B5109E0D8EC31F081
:101590000001090E036F9D0E046F000E08D0D8ECF9
:1015A00031F00001950E036F9E0E046F000E056F63
:1015B000160E01EC33F000EBE6FFE66AE66A91EC0A
:1015C00062F0E552E5CF08F0CDEC2FF0000122ECFF
:1015D0002DF000EB7CF02DD000500501E35D21E003
:1015E0000001816BB8EC69F08B920401D06BD05193
:1015F0000A0814E370EC2EF00401D0250001066FF8
:10160000076B086B22EC2DF0010EE66EE66A5CECCF
:101610002EF0E1EC2DF00401D02BE9D700EBE3F53F
:1016200008D070EC2EF00A0F066F076B086B22ECE7
:101630002DF0010EE66EE66A5CEC2EF0E66A010E15
:10164000E66E5CEC2EF0E66A020EE66E5CEC2EF0C6
:10165000E66A030EE66E5CEC2EF01EEF2DF0040140
:10166000D16B030ED15D07E2D15183EC2FF0FE0E5A
:10167000EF6ED12BF6D70001DC5122EC32F002E103
:10168000765123E076510EE00401D251D22B32087C
:101690000DE20501E42BE451050801E2E46B0401CD
:1016A000D26B04D0030EDC250501E46FE66AE4C5C5
:1016B000E6FF3AEC00F042E9E66E0001DC5183EC13
:1016C0002FF0E552E750EF6E1200DC5183EC2FF063
:1016D000EF68120005EC2DF081E943E8026A000191
:1016E0007B5104E1825102E1855102E0030E69D28F
:1016F000DC51016E0CEC33F0C0EC31F0EE6AED6AB7
:10170000010EE66E31EC2EF00CEC33F03BEC2FF0DA
:10171000EE50ED1006E0B7EC2EF00CE1010EE66E97
:1017200005D0B7EC2EF006E0E66A010EE66ED2ECCC
:1017300069F042E9D950030FE66EDACFE6FF47DAE7
:1017400042E90001F751035C08E18B96010E7B6FC3
:1017500003EBE6FF13DF41E931D2D2EC33F0F1ECD9
:101760000FF00CEC31F00DE200510408000E0155B1
:1017700008E205019A0EE56F990EE66FE76F3E0EDF
:1017800011D0015022EC32F007E00501E56BE66B69
:10179000C00EE76F3F0E06D005014CEC2EF003E0C3
:1017A000BBEC2EF0E86F000186516DE021EC30F0CB
:1017B000ABEC2FF005AF02D00669076934EC31F0CD
:1017C00006E6D8802C0E0055010E62EC2EF014E2D5
:1017D0008DBE25D06FEC31F026EC2EF08D8E000101
:1017E000806FF85107E0440EE66E960EE66E000E2E
:1017F00016EC30F08D8013D08DAE11D06FEC31F03F
:10180000D0EC2EF08D9E0001806BF85107E02B0E7E
:10181000E66E960EE66E000E16EC30F08D8021EC32
:1018200030F0ABEC2FF005AF02D00669076934EC5D
:1018300031F006E6D880900E0055010E62EC2EF0D5
:1018400012E28DB620D08DAE1ED00001010E876F42
:10185000F85107E0070EE66E960EE66E000E16ECE7
:1018600030F08D8610D08DA60ED08DAE0CD000013C
:10187000876BF85107E0E40EE66E950EE66E000EFB
:1018800016EC30F08D968CEC32F0C10EF8EC31F0A5
:1018900004E60051025D0151035901E38FD021ECB0
:1018A00030F0EECF04F0EFCF05F05EEC2DF0410EFE
:1018B000FEEC31F0CDEC2FF0000107350751051992
:1018C00004E60651045D0751055901E377D0025043
:1018D00045E00001865142E00501E951EA1117E0B7
:1018E00005EC32F00001F85112E0CBEC30F001E0F1
:1018F000010E32EC32F03CEC31F0970EE66E950EB4
:10190000E66E000E4CEC2CF04DE927EC30F0015067
:10191000B7EC2CF004013F0551E10150C3EC31F06C
:101920000501E951EA114AE04CEC2EF003E0BBEC72
:101930002EF0E86F0001F8513DE0CBEC30F001E013
:10194000010E32EC32F03CEC31F0500EE66E950EAA
:10195000E66E000E4CEC2CF04DE923D00150C3ECA8
:1019600031F00150B7EC2CF00501E951EA1126E005
:101970004CEC2EF003E0BBEC2EF0E86F0001F851C8
:1019800019E0CBEC30F001E0010E32EC32F086ECE5
:101990002EF0F80EE66E940EE66E000E4CEC2CF077
:1019A0004FE927EC30F0350EE66E950EE66E000E30
:1019B00016EC30F00501E96BEA6B8B968CEC32F09B
:1019C000410EF8EC31F004E60051025D015103597B
:1019D00048E2E6EC30F0BDEC31F014E10CEC33F011
:1019E000C0EC31F0EE2AEF220CEC31F00BE20051AA
:1019F0000108000E015506E20601662B000E672362
:101A0000682369230CEC33F0020E26EC2EF0A7ECD1
:101A100032F004E1000101510501EC1922E021EC52
:101A200030F0B3EC2FF007AF02D008690969CBECB6
:101A30002DF002E6ECEC2EF014E20001F8510FE07C
:101A4000CBEC30F001E0010E32EC32F01BEC31F067
:101A5000AB0EE66E940EE66E000E16EC30F0D3EC94
:101A600032F08CEC32F0C10E1BEC2EF0000103358D
:101A70000351011904E60251005D035101592EE2A0
:101A8000E6EC30F0D0EC2EF0A7EC32F004E10001EF
:101A900001510501EC1922E021EC30F0B3EC2FF0FC
:101AA00007AF02D008690969CBEC2DF002E6ECEC37
:101AB0002EF014E20001F8510FE0CBEC30F001E021
:101AC000010E32EC32F01BEC31F0940EE66E940E07
:101AD000E66E000E16EC30F0D3EC32F00CEC31F088
:101AE0000AE200510108000E015505E20CEC33F04A
:101AF000050E26EC2EF00CEC33F012EC2EF0013536
:101B00000AE200510208000E015505E20CEC33F028
:101B1000090E26EC2EF0015022EC32F010E0060106
:101B20000051010B0CE10051020B09E10051040BC3
:101B300006E1E66A31EC2EF0000901E1FBD5000177
:101B4000865103E0876B8D9E806BE66A31EC2EF048
:101B5000000913E00001F85107E0450EE66E940E0F
:101B6000E66E000E16EC30F00001865102E047EC04
:101B70002FF089EC2FF0040E24D006010051010B48
:101B800006E10051020B03E10051040B19E00001D2
:101B9000F85107E0EF0EE66E930EE66E000E16ECBF
:101BA00030F00001865102E047EC2FF0060100A161
:101BB00005D000910001010E7B6F8B96020E01D0C3
:101BC000000EF36EF46A44E9E7CFD9FF120005EC8A
:101BD0002DF083E983380F0B0001F7150501EE6F37
:101BE0000001F7510501EE5D59E10001F7510501D2
:101BF000ED5D03E0040E45EC2DF050EC2FF03BE1E1
:101C00000001F7510501ED5D11E021EC2EF0070E0A
:101C1000EF6E0CEC32F0C2EC2EF0D50EE66E930EA9
:101C2000E66E000E7DEC32F0F7C0EDF50001845158
:101C300015E0AAEC03F0B60EE66E930EE66E000E0B
:101C40004CEC2CF059EC2FF0F7C0EDF521EC2EF018
:101C5000070EEF6E0001010E7A6F886B846B7CC0FB
:101C6000E6FF6FEC6AF041E97CC0E6FF87DC41E902
:101C7000F7C0F0F510D0C2EC2EF0ED51E66EE66A3A
:101C8000640EE66E930EE66E000E12EC32F0EDC5B9
:101C9000EFFF0501F06B0501F05157D0EE51ED5DFE
:101CA0004FE0030EE66EA0EC5EF041E9040E45EC59
:101CB0002DF050EC2FF038E121EC2EF0EEC5EFFFC7
:101CC0000CEC32F0AAEC03F021EC2EF0EF50E66EB3
:101CD000E66A0501ED51E66EE66A270EE66E930EA2
:101CE000E66E000E12EC32F0EFCFEDF500018451FC
:101CF0000DE1AAEC03F00A0EE66E930EE66E000EFE
:101D00004CEC2CF059EC2FF00001886B010E846F25
:101D10007CC0E6FF6FEC6AF041E900017A6B7CC0A1
:101D2000E6FF2CDC41E910D0C2EC2EF0ED51E66E5E
:101D3000E66AB90EE66E920EE66E000EB3EC32F075
:101D400021EC2EF0EDC5EFFF000E1EEF2DF0C8ECDC
:101D500030F00AE10401D36BD7EC2FF001E3DC6B28
:101D6000D9EC32F0F9E07BDC060100A31ED08B84B5
:101D70000401D36BD7EC2FF001E3DC6BD9EC32F02C
:101D8000F9E06DDCC9EC2EF0A70EE66E920EE66E61
:101D9000000E7DEC32F08C0EE66E920EE66E000EBA
:101DA00016EC30F08B94060100930051010B08E112
:101DB000E66A5CEC2FF000091BE000017A5118E0A4
:101DC00000017A5106E17B5102E0000E01D0010EC4
:101DD0007B6F3CEC30F0620EE66E920EE66E000E0B
:101DE00016EC30F000017A6B060100918B906BD0FD
:101DF00004010F0566E0E66ADFEC32F0000963E0FB
:101E0000010EE66E5CEC2FF00001010E7A6F8B8004
:101E100004010F5129E1F0EC30F002E615EC32F04C
:101E200023E20001010E7A6F8B90845111E10501CC
:101E3000F12B5AEC2DF0110E0501F15D01E3F16B70
:101E400098EC32F04A0EE66E920EE66E000E35D039
:101E50001BEC32F001E3A26BB0EC30F0230EE66E27
:101E6000920EE66E000E29D0F0EC30F002E615EC92
:101E700032F025E20001010E7A6F8B90845112E15D
:101E80000501F1075AEC2DF0110E0501F15D02E399
:101E9000100EF16F98EC32F00C0EE66E920EE66EBC
:101EA000000E0BD01BEC32F001E3A26BB0EC30F073
:101EB000F50EE66E910EE66E000E16EC30F08B809D
:101EC00002D05AEC2DF000017A5102E08B8001D053
:101ED0008B90855170E17B5102E182516AE0B7EC51
:101EE0002EF006E0E66A010EE66ED2EC69F042E9F9
:101EF00004011F0546E0E66A15EC2EF000095BE0E0
:101F00008B8404011F511AE11B35000E1B1909E6D1
:101F1000D880010E1855000E1955000E1A55000EE6
:101F20001B550CE225EC31F026EC2EF081EC30F064
:101F3000AB0EE66E940EE66E000E20D0020E1F5D14
:101F40003AE118C4E6FF19C4E6FF1AC4E6FF1BC451
:101F5000E6FFEFEC32F006E6D880010E0055000EE9
:101F600062EC2EF028E225EC31F0D0EC2EF081EC82
:101F700030F0940EE66E940EE66E000E16EC30F025
:101F80001AD0000182510CE1DC51C3EC31F085EC38
:101F900032F0020E26EC2EF0DC51B7EC2CF003D020
:101FA000DC51C3EC31F0010EE66E15EC2EF08B9493
:101FB00002D06AEC0BF000017B5107E0E66A27ECE7
:101FC00032F00CE1010EE66E05D0E66A27EC32F045
:101FD00005E0E66AE66AD2EC69F042E90501F151F2
:101FE00012002FEC0BF08BC0FBFF8AC0FAFF000140
:101FF00089511400120005EC2DF082E947E8076AC8
:10200000086AB8EC69F000017B5104E10501305128
:10201000311102E0030E09D00001806B040135513B
:1020200036113711381104E1020EF36EF46A72D0E2
:10203000026A0250005C68E360EC30F00A0EE66E63
:10204000D70EE66E230EE66E3C0EE8EC2CF0A6EC06
:1020500030F05AE1036A046A056A066AD8900650AD
:1020600002E662EC2FF00FE2FA0EE66E7E0EE66EEE
:102070002A0EE66E3F0E40EC32F005E1D950030F18
:10208000E6EC2DF0EBD7036A046A056A066AD8907D
:10209000065002E662EC2FF00FE2FA0EE66E7E0EBC
:1020A000E66EAA0EE66E3E0E40EC32F005E1D95027
:1020B000030FE6EC2DF0EBD7660EE66EE66EE66EED
:1020C0003F0EF3EC32F020E1CD0EE66ECC0EE66E64
:1020D000E66E3D0EF3EC32F017E1E66AE66AE66A78
:1020E0003F0EF3EC32F010E106010051010B06E166
:1020F0000051020B03E10051040B04E0010E076ED6
:10210000086A02D0022A95D75DEC31F007EBF3FFA5
:1021100008EBF4FF48E9E7CFD9FF120005EC2DF0FA
:1021200082E948E8086A096AB8EC69F000017B5165
:1021300004E105013051311104E0030EF36EF46A3D
:102140007CD00001806B026A0050025C70E2036A7E
:10215000030E035C6AE203EBDCF0C8EC30F063E0F2
:1021600060EC30F075EC30F0640EEE6EED6AA6ECCB
:1021700030F05BE1046A056A066A076AD890075086
:1021800002E66BEC2FF00DE274EC2FF09A0E0027B4
:10219000020E74EC32F005E1D950040FE6EC2DF09C
:1021A000EDD7046A056A066A076AD890075002E606
:1021B0006BEC2FF00DE274EC2FF04D0E0027010EAA
:1021C00074EC32F005E1D950040FE6EC2DF0EDD7B8
:1021D00075EC30F0840EEE6E030EED6E90EC32F086
:1021E00075EC30F0640EEE6EED6A90EC32F0025059
:1021F00044EC2CF00D0E70EC32F016EC31F075EC76
:1022000030F0D3EC30F090EC32F006010051010BCD
:1022100006E10051020B03E10051040B04E0010E42
:10222000086E096A02D0032A93D7022A8DD75DEC83
:1022300031F008EBF3FF09EBF4FF49E9E7CFD9FFF1
:1022400012002FEC0BF000017C51070A1CE0010A80
:1022500015E0030A11E0080A0FE00E0A0DE0010A7A
:102260000BE0060A05E0050A07E0010A0CE104D0CC
:10227000030EE66EC0DE05D0020E01D0040EE66E3F
:102280004DDF41E912008BC0FBFF8AC0FAFF895184
:10229000140012005CDD0501F26FF20EE66E050E11
:1022A000E66E95DC42E9F2C5E6FFBEEC0AF041E9D4
:1022B000F1EF0FF00001A25120E1C8EC31F0A10EC6
:1022C000E66E910EE66E000E2EEC32F05BEC32F014
:1022D0008BEC2EF08B0EE66E910EE66E000E2EEC61
:1022E00032F06AEC32F0DCEC2FF0750EE66E910EF7
:1022F000E66E000E2EEC32F007D018EC33F042EC14
:102300002DF024EC30F045E97AEF2DF00001A251D8
:102310001AE173EC2DF07CEC2EF0360EE66E910E89
:10232000E66E000EDCEC31F05BEC32F0150EE66E82
:10233000910EE66E000E94EC32F0F80EE66E900E02
:10234000E66E000E1DD06DEC32F00CE084EC2CF04B
:10235000B7EC32F0D10EE66E900EE66E000E4CEC4D
:102360002CF04DE99CEC30F0B70EE66E900EE66E68
:10237000000E94EC32F0B70EE66E900EE66E000E94
:10238000CDEF31F00001A25134E173EC2DF07CEC83
:102390002EF08E0EE66E900EE66E000EDCEC31F046
:1023A0000FEC2DF07CC5E6FF7DC5E6FF7AC5E6FFA4
:1023B0007BC5E6FF8BEC2EF0650EE66E900EE66EAA
:1023C000000EDCEC31F0C6EC2DF0BCC5E6FFBDC55F
:1023D000E6FFBAC5E6FFBBC5E6FFDCEC2FF03C0E1E
:1023E000E66E900EE66E000E4CEC2CF07DEC2FF0BD
:1023F00011D06DEC32F002E02CEC30F05FEC32F0FA
:1024000002E034EC30F039EC32F002E058EC30F01D
:10241000CEEC30F043E912000001A25132E173EC3E
:102420002DF0FCEC2DF09E0EE66E8F0EE66E000E8B
:10243000DCEC31F05BEC32F08BEC2EF0860EE66ECD
:102440008F0EE66E000E2EEC32F0C6EC2DF088EC0E
:1024500032F0BCC5E6FFBDC5E6FFA2EC30F0BAC560
:10246000E6FFBBC5E6FFD8EC60F0DCEC2FF05D0EBC
:10247000E66E8F0EE66E000E4CEC2CF07DEC2FF02D
:1024800011D06DEC32F002E02CEC30F05FEC32F069
:1024900002E034EC30F039EC32F002E058EC30F08D
:1024A000CEEC30F043E912000001A25117E1B5EC87
:1024B00031F00FEC2DF088EC32F07CC5E6FF7DC5E5
:1024C000E6FFA2EC30F07AC5E6FF7BC5E6FFD8EC6C
:1024D00060F08BEC2EF00FEC33F009D018EC33F0F9
:1024E000BBEC2FF002E034EC30F0BCEC32F0CDEF7E
:1024F00031F00001A25109E1B5EC31F00FEC2DF003
:10250000FCEC2DF00FEC33F00BD005EC33F05BEC72
:1025100032F06DEC32F002E02CEC30F0BCEC32F03A
:10252000CDEF31F00001A25149E114C5E6FF15C518
:10253000E6FF10C4E6FF11C4E6FF12C4E6FF13C4B1
:10254000E6FF29C4E6FF2AC4E6FF2BC4E6FF2CC43D
:10255000E6FFC8EC31F0FD0EE66E8E0EE66E000E64
:102560004CEC2CF051E95BEC32F0050101511DE01F
:102570000251E66EE66AD60EE66E8E0EE66E000E2E
:102580002EEC32F06AEC32F031C4E6FF32C4E6FFE2
:1025900033C4E6FF34C4E6FFB50EE66E8E0EE66E7B
:1025A000000E4CEC2CF049E906D02BEC2EF094EC0C
:1025B00032F0B5EC31F063EC32F011D06DEC32F06A
:1025C00002E0FAEC30F05FEC32F002E091EC30F037
:1025D00039EC32F002E003EC31F0CEEC30F043E9BC
:1025E00012000001A2511AE12A0EE66E8E0EE66E6E
:1025F000000E08EC33F05BEC32F0140EE66E8E0E3B
:10260000E66E000E94EC32F0FE0EE66E8D0EE66E77
:10261000000E08EC33F063EC32F011D06DEC32F0C8
:1026200002E02CEC30F05FEC32F002E034EC30F001
:1026300039EC32F002E058EC30F0CEEC30F043E907
:102640001200E70EE66E8D0EE66E000E08EC33F01B
:102650005BEC32F0D00EE66E8D0EE66E000E94EC62
:1026600032F0B90EE66E8D0EE66E000ECDEF31F053
:102670000001A25149E105EC33F0640E0501D89048
:1026800091BF03D0905D000E91590AE2F6EC2DF057
:102690009A0EE66E8D0EE66E000E4CEC2CF047E9BD
:1026A0005BEC32F08DB20AD0F6EC2DF08BEC2EF014
:1026B0007B0EE66E8D0EE66E000E09D0F0EC2DF06E
:1026C0008BEC2EF05C0EE66E8D0EE66E000E4CEC82
:1026D0002CF049E96AEC32F005EC33F0640E0501A8
:1026E000D89011BF03D0105D000E11590AE2F0EC32
:1026F0002DF03E0EE66E8D0EE66E000E4CEC2CF0CC
:1027000047E963EC32F011D06DEC32F002E0FAEC04
:1027100030F05FEC32F002E091EC30F039EC32F066
:1027200002E003EC31F0CEEC30F043E9120005ECAE
:102730002DF082E942E8026A036A030ED89003BED4
:1027400003D0025C000E03581AE20050E66E02EB62
:10275000E9FF03EBEAFF060ED890E936EA36E80611
:10276000FBE1000EE926050EEA223BEC2FF0E552D4
:10277000E750EE6EED6A022A000E0322DED743E92F
:10278000E7CFD9FF1200DCC0D4F40001DC6B85EC8C
:1027900032F068EC2EF002E06AEC0BF0D7EC2FF090
:1027A000F6E3B8EC69F0D4C4DCF0010E45EF2DF08F
:1027B000D9CFE6FFE1CFD9FF81E951E8E80E056EF8
:1027C000030E066E076A086A096A0A6A0B6A0C6ACF
:1027D000580E0D6E106A116A0001816BD2EC33F055
:1027E000D2EC33F00001010E886F06010095000164
:1027F000A26B7CC0E6FF6FEC6AF041E900018551F5
:1028000007E08B9200017B6B0001806B07EF28F0E3
:10281000AAEC03F01A0EE66E8D0EE66E000EE66E62
:10282000BAEC70F043E9020E00017C5D06E1D00EC7
:10283000056E070E066E076A086A0001010E7B6FBF
:102840000501080503E10001010E806FB8EC69F095
:10285000010EE66EE66AE66AE66A56EC01F044E9C5
:1028600000017C5118E1020EE66EE66AE66AE66A4D
:1028700005EBE6FF06EBE6FF07EBE6FF08EBE6FFFE
:10288000F1EC62F0E552E550086EE550076EE55058
:10289000066EE750056E030E00017C5D18E1020E26
:1028A000E66EE66AE66AE66A05EBE6FF06EBE6FF39
:1028B00007EBE6FF08EBE6FFF1EC62F0E552E550CE
:1028C000086EE550076EE550066EE750056E000194
:1028D0007C0518E1020EE66EE66AE66AE66A05EB3A
:1028E000E6FF06EBE6FF07EBE6FF08EBE6FFF1ECA1
:1028F00062F0E552E550086EE550076EE550066E51
:10290000E750056EE66A13DF41E9BBEC69F0010EA2
:10291000E66E05EBE6FF06EBE6FF07EBE6FF08EBEE
:10292000E6FF55EC02F045E9016A026A036A046AAF
:102930000001865102E097EF1DF0060E00017C5D5C
:1029400001E0CDD30E6A0F6A0F3404E20E50010885
:10295000000E0F5401E2A1D2640E056E066A076AEA
:10296000086A010EE66E05EBE6FF06EBE6FF07EBF5
:10297000E6FF08EBE6FF55EC02F045E9BBEC69F039
:10298000016A026A036A046A80C0E6FFBEEC69F06D
:1029900041E9D00EE66E070EE66EE66AE66A01EBE6
:1029A000E6FF02EBE6FF03EBE6FF04EBE6FF81EC5C
:1029B00061F0E552E5CF03F0E5CF02F0E5CF01F09D
:1029C000E7CF00F00001005101110211031101E0F5
:1029D000DAD0060100A52DD0B8EC69F0010EE66E44
:1029E000A6DE41E996EC5EF0060EE66EE66AE66A61
:1029F000E66A56EC01F044E98B920001010E7B6F10
:102A00000001806B80C0E6FFBEEC69F041E97CC04C
:102A1000E6FF6FEC6AF041E9AAEC03F0EC0EE66E1B
:102A20008C0EE66E000EE66EBAEC70F043E907EF2E
:102A300028F00BEC28F00EEBE6FF0FEBE6FFD00ED4
:102A4000E66E8C0EE66E000EE66E000EE66E020E70
:102A5000E66E1CEC70F047E9010EE66EE66AA0C077
:102A6000E6FFB7EC00F043E90A0EE66EE66A90C5B1
:102A7000E6FF91C5E6FFD8EC60F0A50EE66E8C0E81
:102A8000E66E000EE66E000EE66E020EE66E1CECC2
:102A900070F047E9640E0501D89091BF03D0905DB6
:102AA000000E915916E20A0EE66EE66A90C5E6FF40
:102AB00091C5E6FFD8EC60F0860EE66E8C0EE66EF1
:102AC000000EE66E000EE66E020EE66E1CEC70F076
:102AD00047E9010EE66E010EE66EE66AB7EC00F01D
:102AE00043E95E0EE66E8C0EE66E000EE66E000E9C
:102AF000E66E020EE66E1CEC70F045E9010EE66E25
:102B0000020EE66EE66AB7EC00F043E90A0EE66EE6
:102B1000E66A10C5E6FF11C5E6FFD8EC60F0310E9D
:102B2000E66E8C0EE66E000EE66E000EE66E020E8F
:102B3000E66E1CEC70F047E9640E0501D89011BFF9
:102B400003D0105D000E115916E20A0EE66EE66A19
:102B500010C5E6FF11C5E6FFD8EC60F03E0EE66E4C
:102B60008D0EE66E000EE66E000EE66E020EE66E4E
:102B70001CEC70F047E9010EE66E030EE66EE66AA5
:102B8000B7EC00F043E9D950010FE96EDACFEAFF64
:102B9000EE2A000EEE22EE22EE22E66A05EBE6FFBA
:102BA00006EBE6FF07EBE6FF08EBE6FF55EC02F06D
:102BB00045E9000901E1E8D6640E0501D89091BF0E
:102BC00003D0905D000E91590CE20501113504E22D
:102BD00010519008010E115504E2010E05016E6FAF
:102BE0006F6B640E0501D89011BF03D0105D000E0D
:102BF000115903E205016C6B6D6B010EE66E05EB7E
:102C0000E6FF06EBE6FF07EBE6FF08EBE6FF55EC19
:102C100002F045E9B8EC69F0016A026A036A046AE5
:102C200080C0E6FFBEEC69F041E9D00EE66E070E0B
:102C3000E66EE66AE66A01EBE6FF02EBE6FF03EB0F
:102C4000E6FF04EBE6FF81EC61F0E552E5CF03F02F
:102C5000E5CF02F0E5CF01F0E7CF00F00001005131
:102C600001110211031101E0DAD0060100A52DD0F7
:102C7000B8EC69F0010EE66E5ADD41E996EC5EF0C3
:102C8000060EE66EE66AE66AE66A56EC01F044E98C
:102C90008B920001010E7B6F0001806B80C0E6FF0C
:102CA000BEEC69F041E97CC0E6FF6FEC6AF041E9F7
:102CB000AAEC03F0EC0EE66E8C0EE66E000EE66EED
:102CC000BAEC70F043E907EF28F00BEC28F00EEBBC
:102CD000E6FF0FEBE6FF160EE66E8C0EE66E000EBC
:102CE000E66E000EE66E020EE66E1CEC70F047E932
:102CF000010EE66EE66AA0C0E6FFB7EC00F043E91D
:102D00000A0EE66EE66A90C5E6FF91C5E6FFD8ECCE
:102D100060F0A50EE66E8C0EE66E000EE66E000EFE
:102D2000E66E020EE66E1CEC70F047E9640E0501DB
:102D3000D89091BF03D0905D000E915916E20A0E13
:102D4000E66EE66A90C5E6FF91C5E6FFD8EC60F056
:102D5000860EE66E8C0EE66E000EE66E000EE66ED9
:102D6000020EE66E1CEC70F047E9010EE66E010EF5
:102D7000E66EE66AB7EC00F043E9EB0EE66E8B0E0A
:102D8000E66E000EE66E000EE66E020EE66E1CECBF
:102D900070F045E9010EE66E020EE66EE66AB7ECEB
:102DA00000F043E90A0EE66EE66A10C5E6FF11C5BB
:102DB000E6FFD8EC60F0310EE66E8C0EE66E000E8B
:102DC000E66E000EE66E020EE66E1CEC70F047E951
:102DD000640E0501D89011BF03D0105D000E11598B
:102DE00016E20A0EE66EE66A10C5E6FF11C5E6FFBA
:102DF000D8EC60F03E0EE66E8D0EE66E000EE66ECE
:102E0000000EE66E020EE66E1CEC70F047E9010E55
:102E1000E66E030EE66EE66AB7EC00F043E9D950C1
:102E2000010FE96EDACFEAFFEE2A000EEE22EE2263
:102E3000EE22E66A05EBE6FF06EBE6FF07EBE6FFB0
:102E400008EBE6FF55EC02F045E9000901E1E8D6A0
:102E5000640E0501D89011BF03D0105D000E11590A
:102E60000CE20501913504E290519008010E915554
:102E700004E2010E05016C6F6D6B640E0501D890C4
:102E800091BF03D0905D000E915903E205016E6B76
:102E90006F6B0E2A000E0F2257D58B9200017B6BB1
:102EA0000001806B05016C516D1105E005016E514B
:102EB0006F1101E007D10501465101E103D106017F
:102EC0000095590E0D6E0DEB00F00001016B00BF77
:102ED000016900C0E6FF01C0E6FFCB0EE66E8B0E77
:102EE000E66E000EE66E000EE66E020EE66E1CEC5E
:102EF00070F047E9010EE66EE66AA0C0E6FFB7ECA7
:102F000000F043E9000EE66E020EE66E36EC71F05C
:102F100042E98A0EE66E990EE66E000EE66EBAEC97
:102F200070F043E96CC5E6FF6DC5E6FF6EC5E6FFD0
:102F30006FC5E6FFB40EE66E8B0EE66E000EE66E13
:102F4000000EE66E020EE66E1CEC70F049E9010E12
:102F5000E66E010EE66EE66AB7EC00F043E9000E9D
:102F6000E66E020EE66E36EC71F042E98A0EE66E0F
:102F7000990EE66E000EE66EBAEC70F043E99D0E17
:102F8000E66E8B0EE66E000EE66E000EE66E020E2C
:102F9000E66E1CEC70F045E905016E516F110DE114
:102FA000810EE66E8B0EE66E000EE66E000EE66E8D
:102FB000020EE66E1CEC70F045E9010EE66E020EA4
:102FC000E66EE66AB7EC00F043E9000EE66E020E2C
:102FD000E66E36EC71F042E98A0EE66E990EE66E08
:102FE000000EE66EBAEC70F043E99D0EE66E8B0EB5
:102FF000E66E000EE66E000EE66E020EE66E1CEC4D
:1030000070F045E905016C516D110DE1630EE66E3E
:103010008B0EE66E000EE66E000EE66E020EE66E9B
:103020001CEC70F045E9010EE66E030EE66EE66AF2
:10303000B7EC00F043E9000EE66E020EE66E36ECE9
:1030400071F042E98A0EE66E990EE66E000EE66EAB
:10305000BAEC70F043E9010EE66E010EE66ED2ECBA
:1030600069F042E9020EE66EA0EC5EF041E9040070
:10307000060100A5F7D7E66A010EE66ED2EC69F00C
:1030800042E9B8EC69F0010EE66E97EC13F041E905
:1030900096EC5EF0060EE66EE66AE66AE66A56ECC6
:1030A00001F044E98B920001010E7B6F0001806BFF
:1030B00080C0E6FFBEEC69F041E97CC0E6FF6FEC42
:1030C0006AF041E9AAEC03F03D0EE66E8B0EE66E67
:1030D000000EE66EBAEC70F043E907EF28F0B8ECAA
:1030E00069F0060EE66EE66AE66AE66A56EC01F0FC
:1030F00044E9AEEC69F0010EE66EE66AE66AE66A5D
:1031000056EC01F044E9106A116ABBEC69F0010E5B
:10311000E66E05EBE6FF06EBE6FF07EBE6FF08EBE6
:10312000E6FF55EC02F045E935EC33F080C0E6FFF0
:10313000BEEC69F041E9E80EE66E030EE66EE66A63
:10314000E66A01EBE6FF02EBE6FF03EBE6FF04EBCA
:10315000E6FF81EC61F0E552E5CF03F0E5CF02F048
:10316000E5CF01F0E7CF00F000010051011102119D
:10317000031101E027D255EC33F0000901E1D6D06C
:10318000AAEC03F0210EE96E060EEA6EEE5006017F
:10319000155D0001046FEE50060116590001056F20
:1031A000EE50060117590001066FEE50060118593E
:1031B0000001076F04C0E6FF05C0E6FF06C0E6FF9A
:1031C00007C0E6FFBEEC07F044E9FCC300F0FDC316
:1031D00001F0FEC302F0FFC303F000C0E6FF01C030
:1031E000E6FF02C0E6FF03C0E6FF1D0EE96E060E15
:1031F000EA6EEE500601115D00010C6FEE50060103
:10320000125900010D6FEE500601135900010E6FA7
:10321000EE500601145900010F6F0CC0E6FF0DC0FF
:10322000E6FF0EC0E6FF0FC0E6FFBEEC07F044E984
:10323000FCC308F0FDC309F0FEC30AF0FFC30BF0A6
:1032400008C0E6FF09C0E6FF0AC0E6FF0BC0E6FFC4
:10325000190EE96E060EEA6EEE5006010D5D0001D4
:10326000146FEE5006010E590001156FEE50060165
:103270000F590001166FEE50060110590001176F2B
:1032800014C0E6FF15C0E6FF16C0E6FF17C0E6FF54
:10329000BEEC07F044E9FCC310F0FDC311F0FEC31F
:1032A00012F0FFC313F010C0E6FF11C0E6FF12C01A
:1032B000E6FF13C0E6FF200EE66E8B0EE66E000EF4
:1032C000E66E000EE66E020EE66E1CEC70F051E942
:1032D000000EE66E020EE66E36EC71F042E9060173
:1032E0003D5122E006013E511FE006013F511CE026
:1032F00000017C5103E0010E106E116AAAEC03F08C
:10330000FB0EE66E8A0EE66E000EE66E000EE66EB0
:10331000020EE66E1CEC70F045E9000EE66E020E41
:10332000E66E36EC71F042E935EC33F0060100A5AB
:103330002ED0B8EC69F0010EE66E97EC13F041E97F
:1033400096EC5EF0060EE66EE66AE66AE66A56EC13
:1033500001F044E98B920001010E7B6F0001806B4C
:1033600080C0E6FFBEEC69F041E97CC0E6FF6FEC8F
:103370006AF041E9AAEC03F0EC0EE66E8C0EE66E04
:10338000000EE66EBAEC70F043E907EF28F00BECA4
:1033900028F001EBE6FF02EBE6FF03EBE6FF04EBB0
:1033A000E6FFE30EE66E8A0EE66E000EE66E000E97
:1033B000E66E020EE66E1CEC70F049E9010EE66E58
:1033C000E66AA0C0E6FFB7EC00F043E9020E000198
:1033D0007C5D3CE05F0EE66E910EE66E000EE66EE2
:1033E000000EE66E020EE66E1CEC70F045E905017B
:1033F00006512BE031C6E6FF32C6E6FF33C6E6FFD4
:1034000034C6E6FF0A0EE66EE66A2AC5E6FF2BC55D
:10341000E6FFD8EC60F00A0EE66EE66A3AC5E6FF13
:103420003BC5E6FFD8EC60F010C5E6FF11C5E6FF2E
:10343000BB0EE66E8A0EE66E000EE66E000EE66EBF
:10344000020EE66E1CEC70F04FE92ED0050106511D
:103450002BE031C6E6FF32C6E6FF33C6E6FF34C6D0
:10346000E6FF0A0EE66EE66A2AC5E6FF2BC5E6FF12
:10347000D8EC60F00A0EE66EE66A3AC5E6FF3BC598
:10348000E6FFD8EC60F010C5E6FF11C5E6FF930E2D
:10349000E66E8A0EE66E000EE66E000EE66E020E18
:1034A000E66E1CEC70F04FE9010EE66E010EE66E62
:1034B000E66AB7EC00F043E95F0EE66E910EE66E49
:1034C000000EE66E000EE66E020EE66E1CEC70F06C
:1034D00045E9050146512BE035C6E6FF36C6E6FF55
:1034E00037C6E6FF38C6E6FF0A0EE66EE66A6AC52C
:1034F000E6FF6BC5E6FFD8EC60F00A0EE66EE66A02
:103500007AC5E6FF7BC5E6FFD8EC60F050C5E6FF64
:1035100051C5E6FF6B0EE66E8A0EE66E000EE66E95
:10352000000EE66E020EE66E1CEC70F04FE9010E26
:10353000E66E020EE66EE66AB7EC00F043E95F0E57
:10354000E66E910EE66E000EE66E000EE66E020E60
:10355000E66E1CEC70F045E9050186512BE039C69A
:10356000E6FF3AC6E6FF3BC6E6FF3CC6E6FF0A0EAC
:10357000E66EE66AAAC5E6FFABC5E6FFD8EC60F0EA
:103580000A0EE66EE66ABAC5E6FFBBC5E6FFD8ECF2
:1035900060F090C5E6FF91C5E6FF430EE66E8A0E29
:1035A000E66E000EE66E000EE66E020EE66E1CEC97
:1035B00070F04FE9010EE66E030EE66EE66AB7ECB8
:1035C00000F043E9D950010FE96EDACFEAFFEE2AA5
:1035D000000EEE22EE22EE22E66A05EBE6FF06EB97
:1035E000E6FF07EBE6FF08EBE6FF55EC02F045E9E6
:1035F000000904E11050111001E198D5B8EC69F010
:10360000060EE66EE66AE66AE66A56EC01F044E902
:10361000B5EC69F0010EE66EE66AE66AE66A56EC1B
:1036200001F044E9106A116A00017C5101E17DD288
:10363000BBEC69F0010EE66E05EBE6FF06EBE6FF7C
:1036400007EBE6FF08EBE6FF55EC02F045E9016AFF
:10365000026A036A046A35EC33F080C0E6FFBEEC10
:1036600069F041E9E80EE66E030EE66EE66AE66A88
:1036700001EBE6FF02EBE6FF03EBE6FF04EBE6FF00
:1036800081EC61F0E552E5CF03F0E5CF02F0E5CF44
:1036900001F0E7CF00F00001005101110211031108
:1036A00001E027D255EC33F0000901E1D6D0AAECB5
:1036B00003F0210EE96E060EEA6EEE500601155D6E
:1036C0000001046FEE50060116590001056FEE501F
:1036D000060117590001066FEE5006011859000146
:1036E000076F04C0E6FF05C0E6FF06C0E6FF07C09F
:1036F000E6FFBEEC07F044E9FCC300F0FDC301F0B7
:10370000FEC302F0FFC303F000C0E6FF01C0E6FF06
:1037100002C0E6FF03C0E6FF1D0EE96E060EEA6E6C
:10372000EE500601115D00010C6FEE5006011259BA
:1037300000010D6FEE500601135900010E6FEE509F
:103740000601145900010F6F0CC0E6FF0DC0E6FF23
:103750000EC0E6FF0FC0E6FFBEEC07F044E9FCC375
:1037600008F0FDC309F0FEC30AF0FFC30BF008C068
:10377000E6FF09C0E6FF0AC0E6FF0BC0E6FF190E30
:10378000E96E060EEA6EEE5006010D5D0001146F43
:10379000EE5006010E590001156FEE5006010F594B
:1037A0000001166FEE50060110590001176F14C08A
:1037B000E6FF15C0E6FF16C0E6FF17C0E6FFBEEC49
:1037C00007F044E9FCC310F0FDC311F0FEC312F092
:1037D000FFC313F010C0E6FF11C0E6FF12C0E6FF02
:1037E00013C0E6FF200EE66E8B0EE66E000EE66E50
:1037F000000EE66E020EE66E1CEC70F051E9000E53
:10380000E66E020EE66E36EC71F042E906013D51BD
:1038100022E006013E511FE006013F511CE000017D
:103820007C5103E0010E106E116AAAEC03F0FB0E4E
:10383000E66E8A0EE66E000EE66E000EE66E020E74
:10384000E66E1CEC70F045E9000EE66E020EE66EC8
:1038500036EC71F042E935EC33F0060100A52ED0CC
:10386000B8EC69F0010EE66E97EC13F041E996ECC6
:103870005EF0060EE66EE66AE66AE66A56EC01F06F
:1038800044E98B920001010E7B6F0001806B80C0C8
:10389000E6FFBEEC69F041E97CC0E6FF6FEC6AF040
:1038A00041E9AAEC03F0EC0EE66E8C0EE66E000E1B
:1038B000E66EBAEC70F043E907EF28F00BEC28F065
:1038C00001EBE6FF02EBE6FF03EBE6FF04EBE6FFAE
:1038D0002C0EE66E8A0EE66E000EE66E000EE66EAA
:1038E000020EE66E1CEC70F049E9010EE66EE66A27
:1038F000A0C0E6FFB7EC00F043E95F0EE66E910E64
:10390000E66E000EE66E000EE66E020EE66E1CEC33
:1039100070F045E9020E00017C5D2FE005010651C3
:103920002BE031C6E6FF32C6E6FF33C6E6FF34C6FB
:10393000E6FF0A0EE66EE66A2AC5E6FF2BC5E6FF3D
:10394000D8EC60F00A0EE66EE66A3AC5E6FF3BC5C3
:10395000E6FFD8EC60F010C5E6FF11C5E6FFBB0E30
:10396000E66E8A0EE66E000EE66E000EE66E020E43
:10397000E66E1CEC70F04FE92ED0050106512BE0ED
:1039800031C6E6FF32C6E6FF33C6E6FF34C6E6FFC1
:103990000A0EE66EE66A2AC5E6FF2BC5E6FFD8ECFE
:1039A00060F00A0EE66EE66A3AC5E6FF3BC5E6FF42
:1039B000D8EC60F010C5E6FF11C5E6FF930EE66E89
:1039C0008A0EE66E000EE66E000EE66E020EE66EE3
:1039D0001CEC70F04FE9010EE66E010EE66EE66A31
:1039E000B7EC00F043E95F0EE66E910EE66E000E56
:1039F000E66E000EE66E020EE66E1CEC70F045E917
:103A0000050146512BE035C6E6FF36C6E6FF37C650
:103A1000E6FF38C6E6FF0A0EE66EE66A6AC5E6FF0E
:103A20006BC5E6FFD8EC60F00A0EE66EE66A7AC572
:103A3000E6FF7BC5E6FFD8EC60F050C5E6FF51C558
:103A4000E6FF6B0EE66E8A0EE66E000EE66E000E68
:103A5000E66E020EE66E1CEC70F04FE9010EE66EAB
:103A6000020EE66EE66AB7EC00F043E95F0EE66E22
:103A7000910EE66E000EE66E000EE66E020EE66E2B
:103A80001CEC70F045E9050186512BE039C6E6FFD4
:103A90003AC6E6FF3BC6E6FF3CC6E6FF0A0EE66E08
:103AA000E66AAAC5E6FFABC5E6FFD8EC60F00A0EF1
:103AB000E66EE66ABAC5E6FFBBC5E6FFD8EC60F085
:103AC00090C5E6FF91C5E6FF430EE66E8A0EE66EF0
:103AD000000EE66E000EE66E020EE66E1CEC70F056
:103AE0004FE9010EE66E030EE66EE66AB7EC00F0F3
:103AF00043E9D950010FE96EDACFEAFFEE2A000E52
:103B0000EE22EE22EE22E66A05EBE6FF06EBE6FF8A
:103B100007EBE6FF08EBE6FF55EC02F045E900098C
:103B200004E11050111001E198D5ADEF21F004012E
:103B3000296B2A6B2B6B2C6B04012951096E2A51BE
:103B40000A6E2B510B6E2C510C6EBBEC69F0140EEF
:103B5000E66EE66AE66AE66A56EC01F044E9016A56
:103B6000026A036A046ADE0E015C030E0258000E4C
:103B70000358000E045801E3E5D001EBE6FF02EB29
:103B8000E6FF03EBE6FF04EBE6FF2C0EE66E8A0E83
:103B9000E66E000EE66E000EE66E020EE66E1CECA1
:103BA00070F049E9010EE66EE66AA0C0E6FFB7ECE8
:103BB00000F043E95F0EE66E910EE66E000EE66ED3
:103BC000000EE66E020EE66E1CEC70F045E9050193
:103BD000065115E029C4E6FF2AC4E6FF2BC4E6FF20
:103BE0002CC4E6FF0A0EE66E8A0EE66E000EE66E46
:103BF000000EE66E020EE66E1CEC70F049E9010E56
:103C0000E66E010EE66EE66AB7EC00F043E95F0E81
:103C1000E66E910EE66E000EE66E000EE66E020E89
:103C2000E66E1CEC70F045E9010EE66E020EE66EE3
:103C3000E66AB7EC00F043E9010EE66E030EE66EAD
:103C4000E66AB7EC00F043E9010EE66EE66AE66A62
:103C5000E66A56EC01F044E9190EE66EE66AE66A99
:103C6000E66A01EBE6FF02EBE6FF03EBE6FF04EB9F
:103C7000E6FF81EC61F0E552E5CF03F0E5CF02F01D
:103C8000E5CF01F0E7CF00F0000100510111021172
:103C900003111CE109500401291908E10A502A19ED
:103CA00005E10B502B1902E10C502C1906E1E80E2E
:103CB000016E030E026E036A046A04012951096E43
:103CC0002A510A6E2B510B6E2C510C6E060100A569
:103CD0002ED0B8EC69F0010EE66E97EC13F041E9D6
:103CE00096EC5EF0060EE66EE66AE66AE66A56EC6A
:103CF00001F044E98B920001010E7B6F0001806BA3
:103D000080C0E6FFBEEC69F041E97CC0E6FF6FECE5
:103D10006AF041E9AAEC03F0EC0EE66E8C0EE66E5A
:103D2000000EE66EBAEC70F043E907EF28F0D950C8
:103D3000010FE96EDACFEAFFEE2A000EEE22EE2244
:103D4000EE2211D7B8EC69F0060EE66EE66AE66A76
:103D5000E66A56EC01F044E9AEEC69F0010EE66E5D
:103D6000E66AE66AE66A56EC01F044E90401296B6A
:103D70002A6B2B6B2C6B04012951096E2A510A6E98
:103D80002B510B6E2C510C6EBBEC69F0140EE66ED1
:103D9000E66AE66AE66A56EC01F044E9016A026AFC
:103DA000036A046ADE0E015C030E0258000E03581B
:103DB000000E045801E3E5D001EBE6FF02EBE6FF5D
:103DC00003EBE6FF04EBE6FFE30EE66E8A0EE66E1B
:103DD000000EE66E000EE66E020EE66E1CEC70F053
:103DE00049E9010EE66EE66AA0C0E6FFB7EC00F016
:103DF00043E95F0EE66E910EE66E000EE66E000E73
:103E0000E66E020EE66E1CEC70F045E90501065107
:103E100015E029C4E6FF2AC4E6FF2BC4E6FF2CC444
:103E2000E6FF0A0EE66E8A0EE66E000EE66E000EE5
:103E3000E66E020EE66E1CEC70F049E9010EE66ECD
:103E4000010EE66EE66AB7EC00F043E95F0EE66E3F
:103E5000910EE66E000EE66E000EE66E020EE66E47
:103E60001CEC70F045E9010EE66E020EE66EE66AA5
:103E7000B7EC00F043E9010EE66E030EE66EE66A6B
:103E8000B7EC00F043E9010EE66EE66AE66AE66A20
:103E900056EC01F044E9190EE66EE66AE66AE66A57
:103EA00001EBE6FF02EBE6FF03EBE6FF04EBE6FFC8
:103EB00081EC61F0E552E5CF03F0E5CF02F0E5CF0C
:103EC00001F0E7CF00F000010051011102110311D0
:103ED0001CE109500401291908E10A502A1905E1D9
:103EE0000B502B1902E10C502C1906E1E80E016E63
:103EF000030E026E036A046A04012951096E2A51F5
:103F00000A6E2B510B6E2C510C6E060100A52ED0A3
:103F1000B8EC69F0010EE66E97EC13F041E996EC0F
:103F20005EF0060EE66EE66AE66AE66A56EC01F0B8
:103F300044E98B920001010E7B6F0001806B80C011
:103F4000E6FFBEEC69F041E97CC0E6FF6FEC6AF089
:103F500041E9AAEC03F0EC0EE66E8C0EE66E000E64
:103F6000E66EBAEC70F043E907EF28F0D950010F84
:103F7000E96EDACFEAFFEE2A000EEE22EE22EE2202
:103F800011D729C435F42AC436F42BC437F42CC411
:103F900038F4B8EC69F000017B6B0001806B0A0E0D
:103FA000E66ED70EE66E230EE66E3C0EE66E35C468
:103FB000E6FF36C4E6FF37C4E6FF38C4E6FF15EC7B
:103FC00060F042EC63F07DEC60F0E552E5CF13F475
:103FD000E5CF12F4E5CF11F4E7CF10F46AEC0BF063
:103FE000FA0EE66E7E0EE66E2A0EE66E3F0EE66E68
:103FF00035C4E6FF36C4E6FF37C4E6FF38C4E6FF43
:1040000015EC60F042EC63F07DEC60F0E552E5CF3A
:1040100013F4E5CF12F4E5CF11F4E7CF10F4290E35
:10402000E96E040EEA6EEE500401105D0001006FAF
:10403000EE50040111590001016FEE5004011259B4
:104040000001026FEE50040113590001036F0001DB
:10405000DC51400DF3CFE9FFF4CFEAFF000EE92673
:10406000050EEA220F0EE926000EEA22050EE926C9
:10407000000EEA2200C0EEFF01C0EDFF6AEC0BF07B
:10408000FA0EE66E7E0EE66EAA0EE66E3E0EE66E48
:1040900035C4E6FF36C4E6FF37C4E6FF38C4E6FFA2
:1040A00015EC60F042EC63F07DEC60F0E552E5CF9A
:1040B00013F4E5CF12F4E5CF11F4E7CF10F4290E95
:1040C000E96E040EEA6EEE500401105D0001006F0F
:1040D000EE50040111590001016FEE500401125914
:1040E0000001026FEE50040113590001036F00013B
:1040F000DC51400DF3CFE9FFF4CFEAFF000EE926D3
:10410000050EEA220F0EE926000EEA22050EE92628
:10411000000EEA2200C0EEFF01C0EDFF6AEC0BF0DA
:10412000660EE66E660EE66E660EE66E3F0EE66E96
:1041300035C4E6FF36C4E6FF37C4E6FF38C4E6FF01
:1041400015EC60F042EC63F07DEC60F0E552E5CFF9
:1041500013F4E5CF12F4E5CF11F4E7CF10F4290EF4
:10416000E96E040EEA6EEE500401105D0001006F6E
:10417000EE50040111590001016FEE500401125973
:104180000001026FEE50040113590001036F00019A
:10419000DC51400DF3CFE9FFF4CFEAFF000EE92632
:1041A000050EEA220F0EE926000EEA22050EE92688
:1041B000000EEA2200C0EEFF01C0EDFF6AEC0BF03A
:1041C000CD0EE66ECC0EE66ECC0EE66E3D0EE66EC5
:1041D00035C4E6FF36C4E6FF37C4E6FF38C4E6FF61
:1041E00015EC60F042EC63F07DEC60F0E552E5CF59
:1041F00013F4E5CF12F4E5CF11F4E7CF10F4290E54
:10420000E96E040EEA6EEE500401105D0001006FCD
:10421000EE50040111590001016FEE5004011259D2
:104220000001026FEE50040113590001036F0001F9
:10423000DC51400DF3CFE9FFF4CFEAFF000EE92691
:10424000050EEA220F0EE926000EEA22050EE926E7
:10425000000EEA2200C0EEFF01C0EDFF6AEC0BF099
:10426000E66AE66AE66A3F0EE66E35C4E6FF36C4E5
:10427000E6FF37C4E6FF38C4E6FF15EC60F042EC19
:1042800063F07DEC60F0E552E5CF13F4E5CF12F476
:10429000E5CF11F4E7CF10F4290EE96E040EEA6EB3
:1042A000EE500401105D0001006FEE500401115941
:1042B0000001016FEE50040112590001026FEE502F
:1042C000040113590001036F0001DC51400DF3CFCD
:1042D000E9FFF4CFEAFF000EE926050EEA220F0EF1
:1042E000E926000EEA22050EE926000EEA2200C0A9
:1042F000EEFF01C0EDFF6AEC0BF0016A026A036A8F
:10430000046A030E015C000E0258000E0358000EF2
:10431000045823E201EBE9FF02EBEAFF060ED89016
:10432000E936EA36E806FBE1000EE926050EEA2248
:104330000F0EE926000EEA22210EE926000EEA22DF
:10434000EE6AED6AD950010FE96EDACFEAFFEE2A84
:10435000000EEE22EE22EE22D4D7016A026A036A30
:10436000046A030E015C000E0258000E0358000E92
:10437000045802E3A5EF26F001EBE9FF02EBEAFFA8
:10438000060ED890E936EA36E806FBE1000EE9268B
:10439000050EEA22060EE926000EEA22EF5001E1A0
:1043A00057D101EBE9FF02EBEAFF060ED890E936A0
:1043B000EA36E806FBE1000EE926050EEA220F0EBA
:1043C000E926000EEA22090EE926000EEA22EECFC7
:1043D00000F0EFCF01F001EBE9FF02EBEAFF060E80
:1043E000D890E936EA36E806FBE1000EE926050E2C
:1043F000EA220F0EE926000EEA220B0EE926000E35
:10440000EA22EECF02F0EFCF03F0000101350151B7
:104410000001031908E6000100510001025D0001DE
:1044200001510001035919E201EBE9FF02EBEAFF38
:10443000060ED890E936EA36E806FBE1000EE926DA
:10444000050EEA220F0EE926000EEA22210EE926C9
:10445000000EEA22010EEE6EED6A01EBE9FF02EBBF
:10446000EAFF060ED890E936EA36E806FBE1000ED0
:10447000E926050EEA220F0EE926000EEA221B0E9F
:10448000E926000EEA22EECF00F0EFCF01F001EBBB
:10449000E9FF02EBEAFF060ED890E936EA36E806B5
:1044A000FBE1000EE926050EEA220F0EE926000EBA
:1044B000EA220D0EE926000EEA22EECF02F0EFCF3F
:1044C00003F00001033503510001011908E6000162
:1044D00002510001005D000103510001015919E280
:1044E00001EBE9FF02EBEAFF060ED890E936EA3667
:1044F000E806FBE1000EE926050EEA220F0EE9268A
:10450000000EEA22210EE926000EEA22010EEE6ECE
:10451000ED6A01EBE9FF02EBEAFF060ED890E936FF
:10452000EA36E806FBE1000EE926050EEA220F0E48
:10453000E926000EEA22190EE926000EEA22EECF45
:1045400000F0EFCF01F001EBE9FF02EBEAFF060E0E
:10455000D890E936EA36E806FBE1000EE926050EBA
:10456000EA220F0EE926000EEA22110EE926000EBD
:10457000EA22EECF02F0EFCF03F000010335035142
:104580000001011908E6000102510001005D00016F
:1045900003510001015943E301EBE9FF02EBEAFF9C
:1045A000060ED890E936EA36E806FBE1000EE92669
:1045B000050EEA220F0EE926000EEA22190EE92660
:1045C000000EEA22EECF04F0EFCF05F001EBE9FF99
:1045D00002EBEAFF060ED890E936EA36E806FBE180
:1045E000000EE926050EEA220F0EE926000EEA2249
:1045F000130EE926000EEA22EECF06F0EFCF07F009
:104600000001053505510001071908E600010451B4
:104610000001065D000105510001075919E201EB97
:10462000E9FF02EBEAFF060ED890E936EA36E80623
:10463000FBE1000EE926050EEA220F0EE926000E28
:10464000EA22210EE926000EEA22010EEE6EED6A44
:1046500001EBE9FF02EBEAFF060ED890E936EA36F5
:10466000E806FBE1000EE926050EEA220F0EE92618
:10467000000EEA22210EE926000EEA22EE50ED108D
:1046800001E095D101EBE9FF02EBEAFF060ED890BD
:10469000E936EA36E806FBE1000EE926050EEA22D5
:1046A0000F0EE926000EEA221D0EE926000EEA2270
:1046B000010EEE6EED6A01EBE9FF02EBEAFF060E7A
:1046C000D890E936EA36E806FBE1000EE926050E49
:1046D000EA220F0EE926000EEA221F0EE926000E3E
:1046E000EA22010EEE6EED6A01EBE9FF02EBEAFF52
:1046F000060ED890E936EA36E806FBE1000EE92618
:10470000050EEA220D0EE926000EEA22EECF00F099
:10471000EFCF01F001EBE9FF02EBEAFF060ED890C4
:10472000E936EA36E806FBE1000EE926050EEA2244
:104730000F0EE926000EEA222D0EE926000EEA22CF
:1047400000C0EEFF01C0EDFF01EBE9FF02EBEAFF65
:10475000060ED890E936EA36E806FBE1000EE926B7
:10476000050EEA22060EE926000EEA22EF5001E1CC
:104770001DD1020E00017C5D04E0580E01240D6E77
:1047800002D0410E0D6EAAEC03F00DEB00F000011B
:10479000016B00BF016900C0E6FF01C0E6FFDE0E4D
:1047A000E66E890EE66E000EE66E000EE66E020EF6
:1047B000E66E1CEC70F047E9000EE66E020EE66E47
:1047C00036EC71F042E901EBE9FF02EBEAFF060E7D
:1047D000D890E936EA36E806FBE1000EE926050E38
:1047E000EA220F0EE926000EEA220B0EE926000E41
:1047F000EA22EECFE6FFEECFE6FF01EBE9FF02EBA8
:10480000EAFF060ED890E936EA36E806FBE1000E2C
:10481000E926050EEA220F0EE926000EEA22090E0D
:10482000E926000EEA22EECFE6FFEECFE6FFC70E46
:10483000E66E890EE66E000EE66E000EE66E020E65
:10484000E66E1CEC70F049E9000EE66E020EE66EB4
:1048500036EC71F042E98A0EE66E990EE66E000EB5
:10486000E66EBAEC70F043E901EBE9FF02EBEAFF18
:10487000060ED890E936EA36E806FBE1000EE92696
:10488000050EEA220F0EE926000EEA220D0EE92699
:10489000000EEA22EECFE6FFEECFE6FF01EBE9FFE6
:1048A00002EBEAFF060ED890E936EA36E806FBE1AD
:1048B000000EE926050EEA220F0EE926000EEA2276
:1048C0001B0EE926000EEA22EECFE6FFEECFE6FF52
:1048D000B00EE66E890EE66E000EE66E000EE66E17
:1048E000020EE66E1CEC70F049E9000EE66E020E58
:1048F000E66E36EC71F042E98A0EE66E990EE66ECF
:10490000000EE66EBAEC70F043E901EBE9FF02EB52
:10491000EAFF060ED890E936EA36E806FBE1000E1B
:10492000E926050EEA220F0EE926000EEA220F0EF6
:10493000E926000EEA22EECFE6FFEECFE6FF01EB1E
:10494000E9FF02EBEAFF060ED890E936EA36E80600
:10495000FBE1000EE926050EEA220F0EE926000E05
:10496000EA22190EE926000EEA22EECFE6FFEECF8C
:10497000E6FF9B0EE66E890EE66E000EE66E000EFA
:10498000E66E020EE66E1CEC70F049E9000EE66E73
:10499000020EE66E36EC71F042E98A0EE66E990E72
:1049A000E66E000EE66EBAEC70F043E9C2D101EBA0
:1049B000E9FF02EBEAFF060ED890E936EA36E80690
:1049C000FBE1000EE926050EEA22060EE926000E9E
:1049D000EA22EF5001E1ADD106010095020E00017F
:1049E0007C5D04E0580E01240D6E02D0410E0D6E68
:1049F000AAEC03F0830EE66E990EE66E000EE66EEC
:104A0000BAEC70F043E90DEB00F00001016B00BF60
:104A1000016900C0E6FF01C0E6FF850EE66E890E63
:104A2000E66E000EE66E000EE66E020EE66E1CEC02
:104A300070F047E9010EE66EE66AA0C0E6FFB7EC4B
:104A400000F043E9000EE66E020EE66E36EC71F001
:104A500042E98A0EE66E990EE66E000EE66EBAEC3C
:104A600070F043E901EBE9FF02EBEAFF060ED89094
:104A7000E936EA36E806FBE1000EE926050EEA22F1
:104A80000F0EE926000EEA220B0EE926000EEA229E
:104A9000EECFE6FFEECFE6FF01EBE9FF02EBEAFF28
:104AA000060ED890E936EA36E806FBE1000EE92664
:104AB000050EEA220F0EE926000EEA22090EE9266B
:104AC000000EEA22EECFE6FFEECFE6FF6E0EE66EB8
:104AD000890EE66E000EE66E000EE66E020EE66EC3
:104AE0001CEC70F049E9010EE66E010EE66EE66A16
:104AF000B7EC00F043E9000EE66E020EE66E36EC0F
:104B000071F042E98A0EE66E990EE66E000EE66ED0
:104B1000BAEC70F043E901EBE9FF02EBEAFF060EA5
:104B2000D890E936EA36E806FBE1000EE926050EE4
:104B3000EA220F0EE926000EEA220D0EE926000EEB
:104B4000EA22EECFE6FFEECFE6FF01EBE9FF02EB54
:104B5000EAFF060ED890E936EA36E806FBE1000ED9
:104B6000E926050EEA220F0EE926000EEA221B0EA8
:104B7000E926000EEA22EECFE6FFEECFE6FF570E63
:104B8000E66E890EE66E000EE66E000EE66E020E12
:104B9000E66E1CEC70F049E9010EE66E020EE66E60
:104BA000E66AB7EC00F043E9000EE66E020EE66E30
:104BB00036EC71F042E98A0EE66E990EE66E000E52
:104BC000E66EBAEC70F043E901EBE9FF02EBEAFFB5
:104BD000060ED890E936EA36E806FBE1000EE92633
:104BE000050EEA220F0EE926000EEA22130EE92630
:104BF000000EEA22EECFE6FFEECFE6FF01EBE9FF83
:104C000002EBEAFF060ED890E936EA36E806FBE149
:104C1000000EE926050EEA220F0EE926000EEA2212
:104C2000110EE926000EEA22EECFE6FFEECFE6FFF8
:104C300001EBE9FF02EBEAFF060ED890E936EA360F
:104C4000E806FBE1000EE926050EEA220F0EE92632
:104C5000000EEA22190EE926000EEA22EECFE6FF48
:104C6000EECFE6FF400EE66E890EE66E000EE66EB3
:104C7000000EE66E020EE66E1CEC70F04BE9010EC3
:104C8000E66E030EE66EE66AB7EC00F043E9000E4E
:104C9000E66E020EE66E36EC71F042E98A0EE66EC2
:104CA000990EE66E000EE66EBAEC70F043E9010E66
:104CB000E66E010EE66ED2EC69F042E9020E0001EA
:104CC0007C5D04E0580E01240D6E02D0410E0D6E85
:104CD000AAEC03F00DEB00F00001016B00BF0169CD
:104CE00000C0E6FF01C0E6FF140EE66E890EE66E18
:104CF000000EE66E000EE66E020EE66E1CEC70F024
:104D000047E9000EE66E020EE66E36EC71F042E9FF
:104D1000020EE66EA0EC5EF041E90400060100A57B
:104D2000F7D7E66A010EE66ED2EC69F042E996EC3E
:104D30005EF0D950010FE96EDACFEAFFEE2A000EDD
:104D4000EE22EE22EE22B1EF21F0B8EC69F0060E71
:104D5000E66EE66AE66AE66A56EC01F044E98B9292
:104D600000017B6B0001806B96EC5EF000018651C8
:104D700001E032D1016A026A036A046A050EE66E36
:104D8000A0EC5EF041E9FF0EE66E880EE66E000EC6
:104D9000E66E000EE66E020EE66E1CEC70F045E963
:104DA000010EE66EE66AA0C0E6FFB7EC00F043E94C
:104DB000060100A59AD08F80AAEC03F0E10EE66E02
:104DC000880EE66E000EE66E000EE66E020EE66ED1
:104DD0001CEC70F045E9000EE66E020EE66E36EC55
:104DE00071F042E9010EE66EE66AA0C0E6FFB7EC9C
:104DF00000F043E9060EE66EE66AE66AE66A56ECFD
:104E000001F044E996EC5EF05F0EE66E910EE66E00
:104E1000000EE66E000EE66E020EE66E1CEC70F002
:104E200045E9010EE66E010EE66EE66AB7EC00F0AB
:104E300043E95F0EE66E910EE66E000EE66E000E22
:104E4000E66E020EE66E1CEC70F045E9010EE66EB1
:104E5000020EE66EE66AB7EC00F043E95F0EE66E1E
:104E6000910EE66E000EE66E000EE66E020EE66E27
:104E70001CEC70F045E9010EE66E030EE66EE66A84
:104E8000B7EC00F043E9020EE66E8EEC10F041E95B
:104E9000AAEC03F0C40EE66E880EE66E000EE66E17
:104EA000000EE66E020EE66E1CEC70F045E9000E98
:104EB000E66E020EE66E36EC71F042E9010EE66E29
:104EC000E66AA0C0E6FFB7EC00F043E9060EE66E26
:104ED000E66AE66AE66A56EC01F044E9A00E016E65
:104EE000860E026E010E036E046A040006010601BE
:104EF0000051040B1DE1D950010FE96EDACFEAFF32
:104F0000EFCF00F0EE2A000EEFCF01F0EE22EFCF50
:104F100002F0EE22EFCF03F0EF22E80E0001005D79
:104F2000030E0159000E0259000E035901E22BD75E
:104F3000A60EE66E880EE66E000EE66E000EE66EBB
:104F4000020EE66E1CEC70F045E9010EE66EE66AB4
:104F5000E66AB7EC00F043E95F0EE66E910EE66E8E
:104F6000000EE66E000EE66E020EE66E1CEC70F0B1
:104F700045E9010EE66E010EE66EE66AB7EC00F05A
:104F800043E95F0EE66E910EE66E000EE66E000ED1
:104F9000E66E020EE66E1CEC70F045E9010EE66E60
:104FA000020EE66EE66AB7EC00F043E95F0EE66ECD
:104FB000910EE66E000EE66E000EE66E020EE66ED6
:104FC0001CEC70F045E9010EE66E030EE66EE66A33
:104FD000B7EC00F043E900D000017B6B0001806B6F
:104FE000060EE66EE66AE66AE66A56EC01F044E909
:104FF00096EC5EF0C3EC13F0AAEC03F03D0EE66E07
:105000008B0EE66E000EE66EBAEC70F043E952E9E4
:10501000E7CFD9FF1200D2EC33F000018C5151E000
:10502000EAC4E6FFEBC4E6FFE8C4E6FFE9C4E6FF36
:10503000E6C4E6FFE7C4E6FF9AEC31F076EC31F027
:1050400088EC31F0710EE66E880EE66E000E4CECC8
:105050002CF080EC2FF0A3EC31F07FEC31F091ECF0
:1050600031F04E0EE66E880EE66E000E4CEC2CF023
:1050700051E927EC30F098C5E6FF99C5E6FF92C5E7
:10508000E6FF93C5E6FFF7EC32F058C5E6FF59C5D9
:10509000E6FF52C5E6FF53C5E6FF6BEC2EF018C5E0
:1050A000E6FF19C5E6FF12C5E6FF13C5E6FFB7EC3C
:1050B00032F0100EE66E880EE66E000EEDDB80EC30
:1050C0002FF012000501C80EC26FE1EC2DF094EC38
:1050D0002FF027E02B0EE66E50EC6FF041E994ECD8
:1050E0002FF0FDE1E1EC2DF02B0EE66E50EC6FF0B1
:1050F00041E994EC2FF0FDE10C0EE66EC1EC71F08D
:1051000041E994EC2FF0FDE1010EE66EC1EC71F087
:1051100041E9E1EC2DF00001010EF66F0501180EDA
:10512000C26F12000001806B120EE66E220EE66E58
:105130003EEC6EF042E9FB0EE66E870EE66E000E68
:10514000E66E000EE66E020EE66E1CEC70F045E9AF
:10515000010EE66EE66AE66AB7EC00F043E9010E7E
:10516000E66E010EE66EE66AB7EC00F043E9010E6A
:10517000E66E020EE66EE66AB7EC00F043E9010E59
:10518000E66E030EE66EE66AB7EC00F043E9120E37
:10519000E66E220EE66EEFEC6EF042E98F9092DF43
:1051A0008B68FCAE15D0FC9E8A0EE66E990EE66EFC
:1051B000000EE66EBAEC70F043E9AAEC03F0D60EEE
:1051C000E66E870EE66E000EE66EBAEC70F043E90E
:1051D000FCAC15D0FC9C8A0EE66E990EE66E000EB5
:1051E000E66EBAEC70F043E9AAEC03F0AC0EE66EA2
:1051F000870EE66E000EE66EBAEC70F043E9000131
:10520000735114E08A0EE66E990EE66E000EE66E9D
:10521000BAEC70F043E9AAEC03F0830EE66E870E59
:10522000E66E000EE66EBAEC70F043E900017451D0
:1052300014E08A0EE66E990EE66E000EE66EBAEC8B
:1052400070F043E9AAEC03F05A0EE66E870EE66EA4
:10525000000EE66EBAEC70F043E9140EE66EE66AF4
:10526000420EE66E870EE66E000EE66E000EE66EED
:10527000020EE66E0AEC6EF047E9010EE66EE66A93
:10528000E66AB7EC00F043E9850EE66E990EE66E2D
:10529000000EE66EBAEC70F043E9140EE66EE66AB4
:1052A0009DC0E6FF9EC0E6FF9FC0E6FF000EE66ED3
:1052B000020EE66E0AEC6EF047E9010EE66E010E94
:1052C000E66EE66AB7EC00F043E9000EE66E020E09
:1052D000E66E36EC71F042E9830EE66E990EE66EEC
:1052E000000EE66EBAEC70F043E9140EE66EE66A64
:1052F0009AC0E6FF9BC0E6FF9CC0E6FF000EE66E8C
:10530000020EE66E0AEC6EF047E9000EE66E020E43
:10531000E66E36EC71F042E9010EE66E020EE66EC4
:10532000E66AB7EC00F043E9140EE66EE66A6D0E2D
:10533000E66E990EE66E000EE66E000EE66E020E4A
:10534000E66E0AEC6EF047E9000EE66E020EE66EBF
:1053500036EC71F042E98A0EE66E990EE66E000EAA
:10536000E66EBAEC70F043E9010EE66E030EE66EEF
:10537000E66AB7EC00F043E9AAEC03F0230EE66E10
:10538000870EE66E000EE66EBAEC70F043E983A27B
:105390000CD00001010E8C6F0B0EE66E870EE66ED0
:1053A000000EE66EBAEC70F043E983A039D0AAECA7
:1053B00003F0F20EE66E860EE66E000EE66EBAECB6
:1053C00070F043E9000EE66EE66A000EE66EE66AED
:1053D000010EE66EE66A1AEC6DF046E9AAEC03F0FF
:1053E000D50EE66E860EE66E000EE66EBAEC70F036
:1053F00043E90501F46B0F0E0501F45D11E2080E9F
:10540000E66EE66A0501F451E66EE66A0F0EE66E98
:105410007F0EE66E1AEC6DF046E90501F42BEBD732
:10542000AAEC03F0B50EE66E860EE66E000EE66E92
:10543000BAEC70F043E9000EE66EE66A000EE66E26
:10544000E66A4CEC6DF044E959080CE1000EE66E9A
:10545000E66A020EE66EE66A4CEC6DF044E9050180
:10546000F36F22D0AAEC03F0920EE66E860EE66E83
:10547000000EE66EBAEC70F043E9000EE66EE66AE6
:10548000000EE66EE66A010EE66EE66A1AEC6DF054
:1054900046E9AAEC03F0720EE66E860EE66E000E8A
:1054A000E66EBAEC70F043E9AAEC03F0590EE66E32
:1054B000860EE66E000EE66EBAEC70F043E9080E5A
:1054C000E66EE66A000EE66EE66A4CEC6DF044E9C4
:1054D00059081FE10501F46B0F0E0501F45D18E298
:1054E0000501F451E66EE66A0A0EE66EE66A4CECD9
:1054F0006DF044E9E66E0501F451EA6AE50FE96EE4
:10550000000EEA22E552E750EF6E0501F42BE4D7D6
:1055100034D0AAEC03F03D0EE66E860EE66E000E69
:10552000E66EBAEC70F043E90501F46B0F0E05016D
:10553000F45D18E2080EE66EE66A0501F451E66EC7
:10554000E66A0F0EE66E0501F451EA6AE50FE96EB0
:10555000000EEA22EFCFE6FF1AEC6DF046E90501F6
:10556000F42BE4D7AAEC03F0240EE66E860EE66E6A
:10557000000EE66EBAEC70F043E983A403D04EEC63
:105580000AF0FFD762EC41F0AAEC03F00B0EE66ED6
:10559000860EE66E000EE66EBAEC70F043E9050E7C
:1055A000E66EE66AE66AE66A56EC01F044E9D2EC99
:1055B00033F083A00BD0AAEC03F0F50EE66E850E57
:1055C000E66E000EE66EBAEC70F043E983A60ED0EC
:1055D000AAEC03F0D80EE66E850EE66E000EE66EBF
:1055E000BAEC70F043E900010F0EF76F740EE66E2F
:1055F000030EE66E05C6E6FF06C6E6FF07C6E6FF33
:1056000008C6E6FFEFEC07F046E97B0EE66E030EF8
:10561000E66E09C6E6FF0AC6E6FF0BC6E6FF0CC645
:10562000E6FFEFEC07F046E97B0EE66E030EE66E52
:10563000740EE66E030EE66EBF0EE66E850EE66E27
:10564000000EE66E000EE66E020EE66E1CEC70F0CA
:1056500049E9010EE66EE66AE66AB7EC00F043E956
:105660008350010BE66EE66A8350020B01E0010EE7
:10567000E66EE66A8350040B01E0010EE66EE66A10
:105680008350080B01E0010EE66EE66A8350100BB2
:1056900001E0010EE66EE66A8350200B01E0010E88
:1056A000E66EE66A8350400B01E0010EE66EE66AA4
:1056B0008350800B01E0010EE66EE66A960EE66E00
:1056C000850EE66E000EE66E000EE66E020EE66ECB
:1056D0001CEC70F055E9010EE66E010EE66EE66A0E
:1056E000B7EC00F043E9AAEC03F0000EE66E020E00
:1056F000E66E36EC71F042E92BEC03F0050EE66E37
:10570000E66AE66AE66A56EC01F044E9D2EC33F068
:1057100005C6E6FF06C6E6FF48EC72F042E9FFEC7C
:105720006EF08B6A0001846B0001886B00017A6B5C
:1057300000017C51E66EE66AE7EC0DF042E97CC0C0
:10574000E6FF6FEC6AF041E90001010E676F740E2D
:10575000E66E030EE66E05C6E6FF06C6E6FF07C662
:10576000E6FF08C6E6FFEFEC07F046E97B0EE66EC3
:10577000030EE66E09C6E6FF0AC6E6FF0BC6E6FFA5
:105780000CC6E6FFEFEC07F046E910C4E6FF11C4D3
:10579000E6FF12C4E6FF13C4E6FF00C4E6FF01C43F
:1057A000E6FF02C4E6FF03C4E6FF7B0EE66E030ECF
:1057B000E66E740EE66E030EE66E750EE66E850EF0
:1057C000E66E000EE66E000EE66E020EE66E1CEC55
:1057D00070F051E9010EE66EE66AE66AB7EC00F099
:1057E00043E9AAEC03F0000EE66E020EE66E36EC1C
:1057F00071F042E92BEC03F0280EE66EA5EC5EF0AA
:1058000041E9050EE66EE66AE66AE66A56EC01F0E4
:1058100044E92FEC0BF0010EE66E010EE66EE66A2F
:10582000E66AE66A90EC02F045E9D2EC33F0A9ECC6
:1058300069F0000905E00001655102E062EC41F009
:105840004AEC11F004000001815112E0D8EC13F091
:10585000A7EC0EF00401D56FD50EE66E040EE66ED1
:10586000E7EC0DF042E9D5C4E6FFBEEC0AF041E9F1
:1058700004000EEC01F06AEC0BF00001835102E031
:105880000001A26BD2D71200400DFCEC32F0000EEA
:10589000E926050EEA221200E66EAEEC32F01CEFAD
:1058A00070F0C9DBD4DB8A0EE66E990EE66E000E50
:1058B000E66EBAEF70F08EEC30F07BEC30F0F1EC8D
:1058C00062F0E552E5CF07F0E5CF06F0E5CF05F051
:1058D000E7CF04F000010451005D0001E16F000119
:1058E000055101590001E26F000106510259000102
:1058F000E36F0001075103590001E46F12001CEC33
:1059000033F0050E2CEF32F018C5E6FF19C5E6FF9F
:1059100088EC32F02AC5E6FF2BC5E6FFA2EC30F09A
:1059200028C5E6FF29C5E6FFD8EF60F058C5E6FFB9
:1059300059C5E6FF88EC32F06AC5E6FF6BC5E6FFA5
:10594000A2EC30F068C5E6FF69C5E6FFD8EF60F06D
:10595000C4EC61F0E552E5CFC6F0E5CFC5F0E5CF88
:10596000C4F0E7CFC3F0ACEC31F0D8EF30F0400D2D
:10597000F3CF00F0F4CF01F0000E00010027050E78
:105980000123B8EC31F04FEC68F042E9120098C501
:10599000E6FF99C5E6FF88EC32F0AAC5E6FFABC585
:1059A000E6FFD0DBA8C5E6FFA9C5E6FFD8EF60F0AB
:1059B0005F0EE66E910EE66E000E1200E552E5CF28
:1059C00003F0E5CF02F0E5CF01F0E7CF00F01200E1
:1059D00060DBE552E5CF13F4E5CF12F4E5CF11F427
:1059E000E7CF10F41200DFDBA6EF30F0BEEC07F0DB
:1059F00044E9FCC300F0FDC301F0FEC302F0FFC3A5
:105A000003F0120047E927EF30F0D9CFE6FFE1CFEE
:105A1000D9FF12000501E151E12BE25D12005BECC0
:105A200032F076EC31F07FEF31F0FF51060DFCECF7
:105A300032F0A00EE926030EEA22120041E9E7CF78
:105A4000D9FF120041EC31F0B8EC31F0E66EAEEC6B
:105A500032F00AEC6EF047E9120002EBE9FF03EBCB
:105A6000EAFFD890E936EA36D890E936EA36CA0E27
:105A7000E926030EEA221200030EE66E95EC6CF0A6
:105A800041E9120045E96AEF32F048DB56EC01F0DB
:105A900044E91200E1DBE9CF00F0EACF01F0E9CF01
:105AA000E6FFEACFE6FF1200C0EC31F0E5DB8D50F7
:105AB000080B1200010EE66EDFEF32F0E5C5E6FFDF
