:020000040000FA
:0600000028EF77F012006A
:020006001200E6
:060008004DEF5BF0120059
:02000E00C250DE
:08001000020B01E0010E1200D9
:06001800E1EF61F01200AF
:02001E000700D9
:10002000A9EE0000FA050000010000009AEF0000B0
:10003000F40500000200000096EF0000FB03000042
:1000400004000000FDEE00006000000099000000C8
:10005000EBEE0000EE04000012000000E9EE0000EC
:10006000F205000002000000B6EE0000A706000046
:040070003300000059
:0C007400BBEC2FF083E941E801500508C7
:1000800001E2016A005003E006EC31F0EF6A01EB97
:10009000ACF60001D10E036FA10E046F000E056FC8
:1000A00046EC31F0E5CF08F083EC32F00001FCECD7
:1000B00033F006EC31F0EFCF09F00A6B0B6B005117
:1000C0000925F36E01510A21F46E02510B21F86EDD
:1000D000F4CFF7FFF3CFF6FF0800F550036E06EC00
:1000E00031F0EF2AEFCF00F0016B026B73EC34F0CC
:1000F00002C0E6FFD10E096FA10E0A6F000E0B6F52
:1001000046EC31F0E5CF0EF0E5CF0DF0E7CF0CF087
:10011000000109510C25066F0A510D21076F0B5183
:100120000E21086FA0EC35F0E66E04EC71F043E9A7
:10013000E552E7CF02F0E552E7CF01F0E552E7CF15
:1001400000F0FBC203F0FCC204F0FDC205F00001A8
:100150000351005D045101590551025903E306ECB6
:1001600031F0EF6A035042E9E7CFD9FF1200BBEC50
:100170002FF084E90001F6514FE0005021E00250D9
:1001800001240601AD6F93EC34F0660EE66EA00E0E
:10019000E66E000EE66E00EC30F057EC71F047E9C9
:1001A00093EC34F069EC35F0060100EC30F029EC0A
:1001B00071F046E90601E7EC33F0140E86EC31F0FD
:1001C0000150030A0CE0010A08E0030A04E0010AF6
:1001D00009E1E66A08D0400E03D0140E01D0540E97
:1001E000E66E01D0E66AA6EC74F041E90150000128
:1001F000A0250601AD6F00016A510EE04AEC32F015
:10020000FDE1060100EC30F0D5EC75F042E94AEC76
:1002100032F0FDE1010E9016D4EF2FF000016E5187
:1002200004E0E1EC44F000016E6B725107E0726B88
:10023000F85102E0000E01D0010EF86F755104E094
:100240001BEC11F00001756B685103E0A7DA0001A7
:10025000686B715104E001EC07F00001716B6F51A4
:1002600003E0BDDA00016F6B1200D9CFE6FFE1CFEA
:10027000D9FF85E90401766B776B786B796B0401A4
:100280007651005C775101587851025879510358E2
:1002900009E3000004000401762B000E7723782385
:1002A0007923EDD741E9E7CFD9FF1200D9CFE6FF97
:1002B000E1CFD9FF85E9030EE66EE2EC6FF041E98C
:1002C00092C67AF493C67BF494C67CF495C67DF40A
:1002D0002EEC70F0D9CFE9FFDACFEAFF04017A51B2
:1002E000EE240401826F04017B51EE200401836F30
:1002F00004017C51EE200401846F04017D51EE2045
:100300000401856F030EE66EE2EC6FF041E992C6E0
:100310007EF493C67FF494C680F495C681F42EECE7
:1003200070F004007E0EE96E040EEA6E0401825144
:10033000EE5C8351EE588451EE588551EE58E2E35D
:1003400041E9E7CFD9FF1200CCEC33F019E0F2EC31
:100350002FF092C686F493C687F494C688F495C6A7
:1003600089F435EC30F004018651EE248E6F87510C
:10037000EE208F6F8851EE20906F8951EE20916FA3
:10038000F2EC2FF092C68AF493C68BF494C68CF4E8
:1003900095C68DF42EEC70F08A0EE96E040EEA6EAE
:1003A00004018E51EE5C8F51EE589051EE589151F0
:1003B000EE5802E2000E01D0010ED4EF2FF0CCEC8B
:1003C00033F019E0F2EC2FF092C692F493C693F456
:1003D00094C694F495C695F435EC30F0040192512E
:1003E000EE249A6F9351EE209B6F9451EE209C6FF8
:1003F0009551EE209D6FF2EC2FF092C696F493C6C5
:1004000097F494C698F495C699F42EEC70F0960E75
:10041000E96E040EEA6E04019A51EE5C9B51EE58AF
:100420009C51EE589D51EE5802E2000E01D0010E93
:10043000D4EF2FF0CCEC33F019E0F2EC2FF092C6B1
:100440009EF493C69FF494C6A0F495C6A1F435EC2F
:1004500030F004019E51EE24A66F9F51EE20A76F4D
:10046000A051EE20A86FA151EE20A96FF2EC2FF061
:1004700092C6A2F493C6A3F494C6A4F495C6A5F4B8
:100480002EEC70F0A20EE96E040EEA6E0401A65185
:10049000EE5CA751EE58A851EE58A951EE5802E271
:1004A000000E01D0010ED4EF2FF0CCEC33F019E0A8
:1004B000F2EC2FF092C6AAF493C6ABF494C6ACF457
:1004C00095C6ADF435EC30F00401AA51EE24B26FBC
:1004D000AB51EE20B36FAC51EE20B46FAD51EE20B6
:1004E000B56FF2EC2FF092C6AEF493C6AFF494C69B
:1004F000B0F495C6B1F42EEC70F0AE0EE96E040EB9
:10050000EA6E0401B251EE5CB351EE58B451EE58AC
:10051000B551EE5802E2000E01D0010ED4EF2FF0DB
:10052000CCEC33F019E0F2EC2FF092C6B6F493C69F
:10053000B7F494C6B8F495C6B9F435EC30F00401BC
:10054000B651EE24BE6FB751EE20BF6FB851EE200A
:10055000C06FB951EE20C16FF2EC2FF092C6BAF421
:1005600093C6BBF494C6BCF495C6BDF42EEC70F0F3
:10057000BA0EE96E040EEA6E0401BE51EE5CBF5184
:10058000EE58C051EE58C151EE5802E2000E01D0B3
:10059000010ED4EF2FF0CCEC33F019E0F2EC2FF099
:1005A00092C6C2F493C6C3F494C6C4F495C6C5F407
:1005B00035EC30F00401C251EE24CA6FC351EE2075
:1005C000CB6FC451EE20CC6FC551EE20CD6FF2EC55
:1005D0002FF092C6C6F493C6C7F494C6C8F495C665
:1005E000C9F42EEC70F0C60EE96E040EEA6E04013A
:1005F000CA51EE5CCB51EE58CC51EE58CD51EE586D
:1006000002E2000E01D0010ED4EF2FF00000040131
:10061000CE6B0601A7510401CE5D04E20000040187
:10062000CE2BF7D712000F0EE66E33EC76F041E9D1
:100630001200050EE66E33EC76F041E91200BBECD9
:100640002FF082E96CA2FED700EBE6FFCBEC76F050
:1006500041E9D4EF2FF0050EFBEF2FF000016A51B6
:1006600001E112004AEC32F0FDE11200BBEC2FF088
:1006700089E903340EE202500808000E035409E22F
:1006800004EBFBF205EBFCF206EBFDF207EBFEF2EE
:100690005FD00050011009E000018F0E926FC20E72
:1006A000936F750E946F3D0E06D00001926B936BA5
:1006B000800E946F3E0E956F7CEC33F092C0E6FF97
:1006C00093C0E6FF94C0E6FF95C0E6FF7DEC35F0F1
:1006D0007CEC33F004EBE6FF05EBE6FF06EBE6FF10
:1006E00007EBE6FFABEC66F02BEC62F0ABEC66F0F0
:1006F0007DEC35F02DEC62F02DEC65F0E552E5CFA8
:1007000099F0E5CF98F0E5CF97F0E7CF96F0E3ECDE
:100710002FF096C0EEFF97C0EEFF98C0EEFF99C095
:10072000EEFF001C0DE1011C0BE10001966B976BC5
:10073000986B996BE3EC2FF0EE6AEE6AEE6AEE6A64
:1007400096C0FBF297C0FCF298C0FDF299C0FEF291
:10075000D4EF2FF004004EC6E6FF4FC6E6FF50C6AA
:10076000E6FF51C6E6FF66DB44E9F3CFE6FFF4CFD0
:10077000E6FF5F0EE66EA00EE66E000EE66E200E41
:10078000E66E030EE66E69EC73F047E9200EE66E46
:10079000030EE66E83EC74F042E91200DBDFE60E36
:1007A000E66EAB0EE66E000ED0EC32F00401236B69
:1007B000040123510AE10A0E48EC33F056DD44E906
:1007C0008DEC36F0F2EC61F0F3D7020E235DC2DF60
:1007D000440EE66EAC0EE66E000ED0EF32F0040072
:1007E0005C0EE66EA00EE66E000EE66E000EE66E85
:1007F000020EE66E69EC73F045E9000EE66E020E3D
:10080000E66E83EC74F042E9A5DF570EE66EA00EAB
:10081000E66E000EE66E07EC74F043E99DC0E6FF5D
:100820009EC0E6FF9FC0E6FF000EE66E020EE66E7B
:10083000EBEC70F045E9000EE66E020EE66E83EC1E
:1008400074F042E9550EE66EA00EE66E000EE66EFE
:1008500007EC74F043E99AC0E6FF9BC0E6FF9CC03A
:10086000E6FF000EE66E020EE66EEBEC70F045E978
:10087000000EE66E020EE66E83EC74F042E93F0E67
:10088000E66EA00EE66E000EE66E000EE66E020E3E
:10089000E66EEBEC70F045E9000EE66E020EE66ED9
:1008A00083EC74F042E900018351E66EE66A0001D0
:1008B0006051E66EE66A5AC6E6FF5BC6E6FF5CC6B6
:1008C000E6FF5DC6E6FF56C6E6FF57C6E6FF58C61A
:1008D000E6FF59C6E6FF44C6E6FF45C6E6FF01C689
:1008E000E6FF02C6E6FF03C6E6FF04C6E6FF835046
:1008F000800B01E0010EE66EE66A8350400B01E0DA
:10090000010EE66EE66A8350200B01E0010EE66EF2
:10091000E66A8350100B01E0010EE66EE66A835032
:10092000080B01E0010EE66EE66A8350040B01E05D
:10093000010EE66EE66A8350020B01E0010EE66EE0
:10094000E66A8350010BE66EE66A00016351E66ECB
:10095000E66AB00EE66E9F0EE66E000EE66E000EC4
:10096000E66E020EE66E69EC73F069E9000EE66E63
:10097000020EE66E83EC74F042E90601A651E66EC3
:10098000E66A7850E66EE66A6AC6E6FF6BC6E6FF80
:100990006CC6E6FF6DC6E6FF4EC6E6FF4FC6E6FF35
:1009A00050C6E6FF51C6E6FF92C6E6FF93C6E6FFD5
:1009B00094C6E6FF95C6E6FFE7EC64F092C6E6FF54
:1009C00093C6E6FF94C6E6FF95C6E6FF8EC6E6FF31
:1009D0008FC6E6FF90C6E6FF91C6E6FF52C6E6FF69
:1009E00053C6E6FF54C6E6FF55C6E6FF4AC6E6FF15
:1009F0004BC6E6FF4CC6E6FF4DC6E6FF62C6E6FF05
:100A000063C6E6FF64C6E6FF65C6E6FF8AC6E6FF84
:100A10008BC6E6FF8CC6E6FF8DC6E6FF86C6E6FF00
:100A200087C6E6FF88C6E6FF89C6E6FF6EC6E6FF14
:100A30006FC6E6FF70C6E6FF71C6E6FF4EC6E6FF6C
:100A40004FC6E6FF50C6E6FF51C6E6FFF10EE66E62
:100A50009E0EE66E000EE66E000EE66E020EE66E6E
:100A600069EC73F075E9000EE66E020EE66E83EC3B
:100A700074F042E929C4E6FF2AC4E6FF2BC4E6FF6E
:100A80002CC4E6FF66C6E6FF67C6E6FF68C6E6FF5B
:100A900069C6E6FF72C6E6FF73C6E6FF74C6E6FFE8
:100AA00075C6E6FF76C6E6FF77C6E6FF78C6E6FFC0
:100AB00079C6E6FF7AC6E6FF7BC6E6FF7CC6E6FFA0
:100AC0007DC6E6FF7EC6E6FF7FC6E6FF80C6E6FF80
:100AD00081C6E6FF920EE66E9E0EE66E000EE66E94
:100AE000000EE66E020EE66E69EC73F05DE9000E34
:100AF000E66E020EE66E83EC74F042E90401CF6B01
:100B0000030E0401CF5D01E36ED10401CF513C0D12
:100B1000F3CFE9FFF4CFEAFF000EE926050EEA2243
:100B2000060EE926000EEA22EF5001E159D1040138
:100B3000CF513C0DF3CFE9FFF4CFEAFF000EE926D9
:100B4000050EEA220F0EE926000EEA22170EE9260C
:100B5000000EEA22EECFE6FFEECFE6FF0401CF5112
:100B60003C0DF3CFE9FFF4CFEAFF000EE926050EB6
:100B7000EA220F0EE926000EEA22150EE926000EE3
:100B8000EA22EECFE6FFEECFE6FF0401CF513C0DA7
:100B9000F3CFE9FFF4CFEAFF000EE926050EEA22C3
:100BA0000F0EE926000EEA22290EE926000EEA229F
:100BB000EECFE6FFEECFE6FF0401CF513C0DF3CFC1
:100BC000E9FFF4CFEAFF000EE926050EEA220F0E38
:100BD000E926000EEA22270EE926000EEA22EECFD1
:100BE000E6FFEECFE6FF0401CF513C0DF3CFE9FF66
:100BF000F4CFEAFF000EE926050EEA220F0EE926E1
:100C0000000EEA22090EE926000EEA22EECFE6FFE8
:100C1000EECFE6FF0401CF513C0DF3CFE9FFF4CF57
:100C2000EAFF000EE926050EEA220F0EE926000E65
:100C3000EA22110EE926000EEA22EECFE6FFEECF01
:100C4000E6FF0401CF513C0DF3CFE9FFF4CFEAFFFB
:100C5000000EE926050EEA220F0EE926000EEA2212
:100C6000130EE926000EEA22EECFE6FFEECFE6FFF6
:100C70000401CF513C0DF3CFE9FFF4CFEAFF000EA2
:100C8000E926050EEA220F0EE926000EEA22050EDD
:100C9000E926000EEA22EECFE6FFEECFE6FF0401E2
:100CA000CF513C0DF3CFE9FFF4CFEAFF000EE92668
:100CB000050EEA220F0EE926000EEA22030EE926AF
:100CC000000EEA22EECFE6FFEECFE6FF0401CF51A1
:100CD0003C0DF3CFE9FFF4CFEAFF000EE926050E45
:100CE000EA220F0EE926000EEA22EE52EECFE6FFD0
:100CF000EECFE6FF0401CF51E66EE66A1A0EE66E0D
:100D00009E0EE66E000EE66E000EE66E020EE66EBB
:100D100069EC73F05BE9000EE66E020EE66E83ECA2
:100D200074F042E9E66AE66A7A0EE66E440EE66E12
:100D30000401CF513C0DF3CFE9FFF4CFEAFF000EE1
:100D4000E926050EEA220F0EE926000EEA221F0E02
:100D5000E926000EEA22EECFE6FFEECFE6FFEECF69
:100D6000E6FFEECFE6FFABEC66F0A3EC63F0E66ADD
:100D7000E66A7A0EE66E440EE66E0401CF513C0D33
:100D8000F3CFE9FFF4CFEAFF000EE926050EEA22D1
:100D90000F0EE926000EEA22230EE926000EEA22B3
:100DA000EECFE6FFEECFE6FFEECFE6FFEECFE6FFBB
:100DB000ABEC66F0A3EC63F0F90EE66E9D0EE66E0A
:100DC000000EE66E000EE66E020EE66E69EC73F043
:100DD00049E9000EE66E020EE66E83EC74F042E91D
:100DE0000401CF2B8DD60001F85109E0E10EE66E2B
:100DF0009D0EE66E000EE66E07EC74F043E904000B
:100E00001200ED0EE66EAC0EE66E000ED0EC32F087
:100E1000370EE66EAD0EE66E000ED0EC32F000013D
:100E2000F85107E0E10EE66E9D0EE66E000ED0EC86
:100E300032F01200BBEC2FF098EC31F002E2ACEC97
:100E400031F000EBB6F601EBB7F602EBB8F603EBC8
:100E5000B9F60DEC31F050EC31F0E5CFB1F6E5CF5D
:100E6000B0F6E5CFAFF6E7CFAEF60DEC31F0B5EC6E
:100E700031F0F3EC33F04AEC30F063EC31F050EC4D
:100E800031F0E5CFB5F6E5CFB4F6E5CFB3F6E7CF71
:100E9000B2F663EC31F0BEEC31F0F3EC33F04AEC37
:100EA00030F09BEC34F0E66EBEEC31F0B5EC31F096
:100EB000CF0EE66E9D0EE66E000E52EC32F051E95A
:100EC00021EF34F0BBEC2FF098EC31F002E2ACEC07
:100ED00031F000EBC2F601EBC3F602EBC4F603EB14
:100EE000C5F60DEC31F057EC31F0E5CFBDF6E5CFAE
:100EF000BCF6E5CFBBF6E7CFBAF60DEC31F0C7ECA8
:100F000031F0F3EC33F063EC30F063EC31F057EC9C
:100F100031F0E5CFC1F6E5CFC0F6E5CFBFF6E7CFBC
:100F2000BEF663EC31F0D0EC31F0F3EC33F063EC6F
:100F300030F0D0EC31F0C7EC31F0C30EE66E9D0E10
:100F4000E66E000E52EC32F04DE921EF34F0BBECCE
:100F50002FF083E901340EE300EB00F001EB01F028
:100F60000001006D011F000E012300C0F3FF01C04E
:100F7000F4FF02D089EC31F0D4EF2FF0BBEC2FF06E
:100F800085E9033413E3E668E668E668E66875EC2D
:100F900032F003EBE6FFF3EC33F000C0FBF201C0EC
:100FA000FCF202C0FDF203C0FEF208D000EBFBF23F
:100FB00001EBFCF202EBFDF203EBFEF2D4EF2FF0BB
:100FC00006EC34F082EC35F011EC2FF0D9EC31F076
:100FD000BB0EE66E9D0EE66E000EA2EF34F006EC40
:100FE00034F05BEC35F0D9EC31F0B30EE66E9D0ECB
:100FF000E66E000EA2EF34F08BEC34F002E32D0E1F
:10100000916F43EC30F07EEC63F05EEC2FF05BEC24
:1010100035F035EC33F0ACEC2FF0D89000010351F3
:10102000000A08E6DC0E005D050E0159000E0259AB
:10103000000E035917E235EC33F0ACEC2FF0F0EC76
:1010400030F091C004F00001056B04BF056988EC25
:1010500032F0AD0EE66E9D0EE66E000EC1EC30F085
:101060004BE934D0E66AE66A7A0EE66E440E2DEC61
:1010700030F05EEC2FF082EC35F0A7EC34F0E3C0FA
:10108000E6FFE66EACEC2FF0F0EC30F035EC33F030
:1010900075DF44E9FBC204F0FCC205F0FDC206F0B6
:1010A000FEC207F0F0EC30F091C008F00001096BCF
:1010B00008BF096908C0E6FF09C0E6FFA00EE66E9A
:1010C0009D0EE66E000EC1EC30F04FE989EC31F078
:1010D000D4EF2FF08BEC34F002E32D0E916FE66A23
:1010E000E66A200EE66E410E0EEC34F07EEC63F004
:1010F0002DEC65F0E552E5CFCAF0E5CFC9F0E5CFBC
:10110000C8F0E7CFC7F0DFEC31F093EC33F0200EFE
:10111000E66E410EE66EDFEC31F088EC35F00A0E3B
:10112000A7EC34F059EC32F0A5EC35F059EC32F084
:1011300091C000F00001016B00BF016973EC34F055
:10114000960EE66E9D0EE66E000EC1EC30F04BE999
:1011500089EC31F0D4EF2FF0BBEC2FF085E9F2EC05
:101160002FF003500001006F016B01354AE200517E
:10117000FA08000E015545E2FF0E8EEC31F00AE14F
:10118000F45008E10001775101E183D12EEC70F0B9
:10119000010E82D1FE0E8EEC31F009E1F45007E130
:1011A0002EEC70F00001CBEC2FF0040E27D0FD0EDA
:1011B0008EEC31F009E1F45007E10001010E776F88
:1011C0002EEC70F0FD0E68D1FC0E8EEC31F008E1D3
:1011D000F45006E10001776B2EEC70F0FC0E5CD150
:1011E000FB0E8EEC31F00DE1F4500BE10001776B5A
:1011F0002EEC70F00001CBEC2FF0050E78EC34F003
:101200004BD10001775101E144D10001FF510008A9
:1012100001E33FD1FF07CBEC2FF0040E2BEC35F0B0
:10122000EFCFC7F6AAEC03F075EC32F007EC74F0E0
:1012300043E90001CBEC2FF03DEC30F0FF51E66EBE
:10124000E66A840EE66E9D0EE66E000E6EEC35F0DC
:101250000601C66BC651C62BC75D07E1C80EE66E18
:10126000AF0EE66E000ED0EC32F0C0EC2FF007E1CE
:10127000E80EE66EAF0EE66E000ED0EC32F0C0EC7B
:101280002FF007E1180EE66EB00EE66E000ED0EC01
:1012900032F0C0EC2FF007E13B0EE66EB00EE66ECA
:1012A000000ED0EC32F0C0EC2FF007E15E0EE66EDF
:1012B000B00EE66E000ED0EC32F0C0EC2FF007E17D
:1012C0008F0EE66EB00EE66E000ED0EC32F0C0EC83
:1012D0002FF007E1C30EE66EB00EE66E000ED0EC06
:1012E00032F0C0EC2FF007E1F80EE66EB00EE66EBD
:1012F000000ED0EC32F0C0EC2FF007E1310EE66EBC
:10130000B10EE66E000ED0EC32F0C0EC2FF007E12B
:101310005F0EE66EB10EE66E000ED0EC32F0C0EC61
:101320002FF007E1860EE66EAF0EE66E000ED0ECF3
:1013300032F0C0EC2FF007E1A60EE66EAF0EE66EBF
:10134000000ED0EC32F0C0EC2FF007E1B60EE66EE6
:10135000AE0EE66E000ED0EC32F0C0EC2FF007E1DE
:101360008F0EE66EB10EE66E000ED0EC32F0C0ECE1
:101370002FF007E1D00EE66EB10EE66E000ED0EC57
:1013800032F0C0EC2FF007E1F60EE66EB10EE66E1D
:10139000000ED0EC32F0C0EC2FF007E11C0EE66E30
:1013A000B20EE66E000ED0EC32F0C0EC2FF007E18A
:1013B000480EE66EB20EE66E000ED0EC32F0C0ECD7
:1013C0002FF007E1600EE66EB20EE66E000ED0EC76
:1013D00032F0C0EC2FF007E1770EE66EB20EE66E4B
:1013E000000ED0EC32F0C0EC2FF007E11B0EE66EE1
:1013F000B60EE66E000ED0EC32F0C0EC2FF007E136
:10140000590EE66EB60EE66E000ED0EC32F0C0EC71
:101410002FF007E1780EE66EB60EE66E000ED0EC09
:1014200032F0C0EC2FF007E1A40EE66EB20EE66ECD
:10143000000ED0EC32F00601C651D880C75517E235
:10144000C7510001006F016BFA0ED89001BF03D0A5
:10145000005D000E01590BE20601C751E66EE66A17
:101460006A0EE66E9D0EE66E000E38EC35F0000159
:10147000FF5102E10001776B0001CBEC2FF0050E6C
:1014800086EC31F0CBEC2FF0EE6AEE6AEE6AEE6A93
:10149000BCD62EEC70F0000ED4EF2FF00001010E40
:1014A000666F83A449D08DEC36F0640E48EC33F0BF
:1014B00005C6E6FF06C6E6FF07C6E6FF08C6E6FF66
:1014C000E7EC64F0F9EC30F0B5DC44E9F3CFE6FF8B
:1014D000F4CFE6FF500EE66E9D0EE66E000E02ECB7
:1014E0002FF04BE9010EE66EE66A7CEC32F0E66E18
:1014F0007CEC32F0020ED5EC32F0F9EC30F0E8EC96
:1015000031F0E7EC64F0E8EC31F0F9EC30F0300E5B
:10151000E66E9D0EE66E000E02EC2FF051E9010E14
:10152000E66E030ED5EC32F0880EE66E130EAEECCE
:1015300034F0F2EC61F0B5D70001666B1200BBEC41
:101540002FF083E91B0E45EC32F05B0E45EC32F0D8
:10155000320E45EC32F04A0E45EC32F0D90EE66E12
:10156000AB0EE66E000ED0EC32F08C0EE66EAB0EDB
:10157000E66E000ED0EC32F0D4EF2FF0BBEC2FF083
:1015800082E900017A5128E17B5109E093EC34F0C3
:101590000001DB0E036FA30E046F000E08D093EC66
:1015A00034F00001670E036FA50E046F000E056F87
:1015B000160EBCEC35F000EBE6FFE66AE66AFAECE4
:1015C00065F0E552E5CF08F083EC32F00001D8EC8D
:1015D0002FF000EB7CF02DD000500601C85D21E01B
:1015E0000001816B19EC6DF08B920401D06BD0512E
:1015F0000A0814E326EC31F00401D0250001066F3F
:10160000076B086BD8EC2FF0010EE66EE66A12EC61
:1016100031F097EC30F00401D02BE9D700EBC8F69D
:1016200008D026EC31F00A0F066F076B086BD8EC78
:101630002FF0010EE66EE66A12EC31F0E66A010E5A
:10164000E66E12EC31F0E66A020EE66E12EC31F054
:10165000E66A030EE66E12EC31F0D4EF2FF00401CF
:10166000D16B030ED15D07E2D15139EC32F0FE0EA1
:10167000EF6ED12BF6D70001DC51DDEC34F002E146
:10168000765123E076510EE00401D251D22B32087C
:101690000DE20601C92BC951050801E2C96B04011D
:1016A000D26B04D0030EDC250601C96FE66AC9C6F9
:1016B000E6FF3AEC00F042E9E66E0001DC5139EC5D
:1016C00032F0E552E750EF6E1200DC5139EC32F0A7
:1016D000EF681200BBEC2FF081E943E8026A0001D9
:1016E0007B5104E1825102E1855102E0030E69D28F
:1016F000DC51016EC7EC35F07BEC34F0EE6AED6A3C
:10170000010EE66EE7EC30F0C7EC35F0F1EC31F0AD
:10171000EE50ED1006E06DEC31F00CE1010EE66EDE
:1017200005D06DEC31F006E0E66A010EE66E33ECB2
:101730006DF042E9D950030FE66EDACFE6FF47DAE3
:1017400042E90001F751035C08E18B96010E7B6FC3
:1017500003EBE6FF13DF41E931D28DEC36F0EBEC21
:101760000FF0C7EC33F00DE200510408000E0155F4
:1017700008E206019A0ECA6F990ECB6FCC6F3E0E2F
:1017800011D00150DDEC34F007E00601CA6BCB6BE1
:10179000C00ECC6F3F0E06D0060102EC31F003E024
:1017A00071EC31F0CD6F000186516DE0DBEC32F071
:1017B00061EC32F005AF02D006690769EFEC33F057
:1017C00006E6D8802C0E0055010E18EC31F014E21C
:1017D0008DBE25D02AEC34F0DCEC30F08D8E00018B
:1017E000806FF85107E0160EE66E9D0EE66E000E55
:1017F000D0EC32F08D8013D08DAE11D02AEC34F0C5
:1018000086EC31F08D9E0001806BF85107E0FD0EF3
:10181000E66E9C0EE66E000ED0EC32F08D80DBECB6
:1018200032F061EC32F005AF02D006690769EFECE7
:1018300033F006E6D880900E0055010E18EC31F01A
:1018400012E28DB620D08DAE1ED00001010E876F42
:10185000F85107E0D90EE66E9C0EE66E000ED0EC55
:1018600032F08D8610D08DA60ED08DAE0CD000013A
:10187000876BF85107E0B60EE66E9C0EE66E000E22
:10188000D0EC32F08D9647EC35F0C10EB3EC34F06D
:1018900004E60051025D0151035901E38FD0DBECF6
:1018A00032F0EECF04F0EFCF05F014EC30F0410E43
:1018B000B9EC34F083EC32F000010735075105191B
:1018C00004E60651045D0751055901E377D0025043
:1018D00045E00001865142E00601CE51CF1117E0EC
:1018E000C0EC34F00001F85112E086EC33F001E076
:1018F000010EEDEC34F0F7EC33F0690EE66E9C0E61
:10190000E66E000E02EC2FF04DE9E1EC32F00150F2
:101910006DEC2FF004013F0551E101507EEC34F0F5
:101920000601CE51CF114AE002EC31F003E071EC38
:1019300031F0CD6F0001F8513DE086EC33F001E06D
:10194000010EEDEC34F0F7EC33F0220EE66E9C0E57
:10195000E66E000E02EC2FF04DE923D001507EEC34
:1019600034F001506DEC2FF00601CE51CF1126E07E
:1019700002EC31F003E071EC31F0CD6F0001F85171
:1019800019E086EC33F001E0010EEDEC34F03CECB4
:1019900031F0CA0EE66E9B0EE66E000E02EC2FF0E2
:1019A0004FE9E1EC32F0070EE66E9C0EE66E000E9B
:1019B000D0EC32F00601CE6BCF6B8B9647EC35F056
:1019C000410EB3EC34F004E60051025D01510359BD
:1019D00048E2A1EC33F078EC34F014E1C7EC35F0D8
:1019E0007BEC34F0EE2AEF22C7EC33F00BE200512F
:1019F0000108000E015506E20601662B000E672362
:101A000068236923C7EC35F0020EDCEC30F062ECA1
:101A100035F004E1000101510601D11922E0DBECAF
:101A200032F069EC32F007AF02D00869096981EC45
:101A300030F002E6A2EC31F014E20001F8510FE0C0
:101A400086EC33F001E0010EEDEC34F0D6EC33F02F
:101A50007D0EE66E9B0EE66E000ED0EC32F08EEC44
:101A600035F047EC35F0C10ED1EC30F00001033514
:101A70000351011904E60251005D035101592EE2A0
:101A8000A1EC33F086EC31F062EC35F004E10001BA
:101A900001510601D11922E0DBEC32F069EC32F0A1
:101AA00007AF02D00869096981EC30F002E6A2ECC8
:101AB00031F014E20001F8510FE086EC33F001E060
:101AC000010EEDEC34F0D6EC33F0660EE66E9B0EB4
:101AD000E66E000ED0EC32F08EEC35F0C7EC33F051
:101AE0000AE200510108000E015505E2C7EC35F08D
:101AF000050EDCEC30F0C7EC35F0C8EC30F0013509
:101B00000AE200510208000E015505E2C7EC35F06B
:101B1000090EDCEC30F00150DDEC34F010E0060191
:101B20000051010B0CE10051020B09E10051040BC3
:101B300006E1E66AE7EC30F0000901E1FBD50001BF
:101B4000865103E0876B8D9E806BE66AE7EC30F090
:101B5000000913E00001F85107E0170EE66E9B0E36
:101B6000E66E000ED0EC32F00001865102E0FDEC92
:101B700031F03FEC32F0040E24D006010051010B8D
:101B800006E10051020B03E10051040B19E00001D2
:101B9000F85107E0C10EE66E9A0EE66E000ED0EC2C
:101BA00032F00001865102E0FDEC31F0060100A1A7
:101BB00005D000910001010E7B6F8B96020E01D0C3
:101BC000000EF36EF46A44E9E7CFD9FF1200BBECD4
:101BD0002FF083E983380F0B0001F7150601D36F4F
:101BE0000001F7510601D35D56E10001F7510601EE
:101BF000D25D03E0040EFBEC2FF006EC32F038E18E
:101C00000001F7510601D25D0FE0D7EC30F0070E6E
:101C1000EF6EC7EC34F078EC31F0A70EE66E9A0E5A
:101C2000E66E000E38EC35F00001845114E0AAECA9
:101C300003F0870EE66E9A0EE66E000E02EC2FF0B1
:101C40000FEC32F0F7C0D2F6D7EC30F0070EEF6EA3
:101C500097EC32F0886B846B7CC0E6FFD0EC6DF0C3
:101C600041E97CC0E6FF8ADC41E9F7C0D5F610D037
:101C700078EC31F0D251E66EE66A340EE66E9A0EDA
:101C8000E66E000ECDEC34F0D2C6EFFF0601D56B48
:101C90000601D55157D0D351D25D4FE0030EE66E09
:101CA00009EC62F041E9040EFBEC2FF006EC32F097
:101CB00038E1D7EC30F0D3C6EFFFC7EC34F0AAEC34
:101CC00003F0D7EC30F0EF50E66EE66A0601D25131
:101CD000E66EE66AF60EE66E990EE66E000ECDEC46
:101CE00034F0EFCFD2F6000184510DE1AAEC03F0FD
:101CF000D80EE66E990EE66E000E02EC2FF00FEC99
:101D000032F00001886B010E846F7CC0E6FFD0ECDE
:101D10006DF041E997EC32F07CC0E6FF2FDC41E941
:101D200010D078EC31F0D251E66EE66A860EE66E9F
:101D3000990EE66E000E6EEC35F0D7EC30F0D2C6A0
:101D4000EFFF000ED4EF2FF083EC33F00AE1040133
:101D5000D36B8DEC32F001E3DC6B94EC35F0F9E001
:101D60007EDC060100A31ED08B840401D36B8DECB6
:101D700032F001E3DC6B94EC35F0F9E070DC7FECE1
:101D800031F0740EE66E990EE66E000E38EC35F00A
:101D9000590EE66E990EE66E000ED0EC32F08B9482
:101DA000060100930051010B08E1E66A12EC32F0E3
:101DB00000091BE000017A5118E000017A5106E1A8
:101DC0007B5102E0000E01D0010E7B6FF6EC32F089
:101DD0002F0EE66E990EE66E000ED0EC32F000018A
:101DE0007A6B060100918B9068D004010F0563E0C7
:101DF000E66A9AEC35F0000960E0010EE66E12EC3E
:101E000032F097EC32F08B8004010F5128E1ABECFB
:101E100033F002E6D0EC34F022E297EC32F08B9013
:101E2000845111E10601D62B10EC30F0110E0601A1
:101E3000D65D01E3D66B53EC35F0170EE66E990EC6
:101E4000E66E000E34D0D6EC34F001E3A26B6BECFE
:101E500033F0F00EE66E980EE66E000E28D0ABEC76
:101E600033F002E6D0EC34F024E297EC32F08B90C1
:101E7000845112E10601D60710EC30F0110E060174
:101E8000D65D02E3100ED66F53EC35F0D90EE66E38
:101E9000980EE66E000E0BD0D6EC34F001E3A26B88
:101EA0006BEC33F0C20EE66E980EE66E000ED0ECD0
:101EB00032F08B8002D010EC30F000017A5102E059
:101EC0008B8001D08B90855170E17B5102E1825172
:101ED0006AE06DEC31F006E0E66A010EE66E33EC86
:101EE0006DF042E904011F0546E0E66ACBEC30F0F4
:101EF00000095BE08B8404011F511AE11B35000EC1
:101F00001B1909E6D880010E1855000E1955000E50
:101F10001A55000E1B550CE2E0EC33F0DCEC30F00F
:101F20003BEC33F07D0EE66E9B0EE66E000E20D08D
:101F3000020E1F5D3AE118C4E6FF19C4E6FF1AC499
:101F4000E6FF1BC4E6FFAAEC35F006E6D880010EDA
:101F50000055000E18EC31F028E2E0EC33F086EC8E
:101F600031F03BEC33F0660EE66E9B0EE66E000E33
:101F7000D0EC32F01AD0000182510CE1DC517EEC41
:101F800034F040EC35F0020EDCEC30F0DC516DEC5E
:101F90002FF003D0DC517EEC34F0010EE66ECBEC7A
:101FA00030F08B9402D06AEC0BF000017B5107E01B
:101FB000E66AE2EC34F00CE1010EE66E05D0E66A6A
:101FC000E2EC34F005E0E66AE66A33EC6DF042E9F3
:101FD0000601D65112002FEC0BF08BC0FBFF8AC01C
:101FE000FAFF0001895114001200BBEC2FF082E9C6
:101FF00047E8076A086A19EC6DF000017B5104E1BB
:1020000005012C512D1102E0030E09D00001806B57
:102010000401355136113711381104E1020EF36E07
:10202000F46A72D0026A0250005C68E31AEC33F082
:102030000A0EE66ED70EE66E230EE66E3C0E9EECA2
:102040002FF061EC33F05AE1036A046A056A066A0C
:10205000D890065002E618EC32F00FE2FA0EE66E67
:102060007E0EE66E2A0EE66E3F0EFBEC34F005E1C6
:10207000D950030F9CEC30F0EBD7036A046A056A71
:10208000066AD890065002E618EC32F00FE2FA0E1B
:10209000E66E7E0EE66EAA0EE66E3E0EFBEC34F0A9
:1020A00005E1D950030F9CEC30F0EBD7660EE66EDD
:1020B000E66EE66E3F0EAEEC35F020E1CD0EE66E3C
:1020C000CC0EE66EE66E3D0EAEEC35F017E1E66A3C
:1020D000E66AE66A3F0EAEEC35F010E1060100510B
:1020E000010B06E10051020B03E10051040B04E077
:1020F000010E076E086A02D0022A95D718EC34F058
:1021000007EBF3FF08EBF4FF48E9E7CFD9FF120034
:10211000BBEC2FF082E948E8086A096A19EC6DF017
:1021200000017B5104E105012C512D1104E0030E47
:10213000F36EF46A7CD00001806B026A0050025C8E
:1021400070E2036A030E035C6AE203EBDCF083ECEB
:1021500033F063E01AEC33F02FEC33F0640EEE6EE4
:10216000ED6A61EC33F05BE1046A056A066A076AAE
:10217000D890075002E621EC32F00DE22AEC32F062
:102180009A0E0027020E2FEC35F005E1D950040F0E
:102190009CEC30F0EDD7046A056A066A076AD890AD
:1021A000075002E621EC32F00DE22AEC32F04D0E3F
:1021B0000027010E2FEC35F005E1D950040F9CECFF
:1021C00030F0EDD72FEC33F0840EEE6E030EED6E93
:1021D0004BEC35F02FEC33F0640EEE6EED6A4BEC09
:1021E00035F00250FAEC2EF00D0E2BEC35F0D1EC60
:1021F00033F02FEC33F08EEC33F04BEC35F006017E
:102200000051010B06E10051020B03E10051040BE8
:1022100004E0010E086E096A02D0032A93D7022A4D
:102220008DD718EC34F008EBF3FF09EBF4FF49E924
:10223000E7CFD9FF12002FEC0BF000017C51070A09
:102240001AE0010A13E0030A0FE0060A0DE0010A92
:102250000BE0060A05E0050A07E0010A0CE104D0DC
:10226000030EE66EC2DE05D0020E01D0040EE66E4D
:102270004FDF41E912008BC0FBFF8AC0FAFF895192
:102280001400120061DD0601D76FD70EE66E060E50
:10229000E66E9DDC42E9D7C6E6FFBEEC0AF041E9F6
:1022A000EBEF0FF00001A25120E183EC34F06E0E51
:1022B000E66E980EE66E000EE9EC34F016EC35F0A2
:1022C00041EC31F0580EE66E980EE66E000EE9EC29
:1022D00034F025EC35F092EC32F0420EE66E980EBA
:1022E000E66E000EE9EC34F007D0D3EC35F0F8ECF4
:1022F0002FF0DEEC32F045E930EF30F00001A25172
:102300001AE129EC30F032EC31F0030EE66E980E53
:10231000E66E000E97EC34F016EC35F0E20EE66E49
:10232000970EE66E000E4FEC35F0C50EE66E970E7A
:10233000E66E000E1DD028EC35F00CE03AEC2FF0E4
:1023400072EC35F09E0EE66E970EE66E000E02EC15
:102350002FF04DE957EC33F0840EE66E970EE66EE3
:10236000000E4FEC35F0840EE66E970EE66E000E12
:1023700088EF34F00001A25134E129EC30F032EC66
:1023800031F05B0EE66E970EE66E000E97EC34F0C1
:10239000C5EC2FF074C5E6FF75C5E6FF72C5E6FF14
:1023A00073C5E6FF41EC31F0320EE66E970EE66E35
:1023B000000E97EC34F07CEC30F0B0C5E6FFB1C510
:1023C000E6FFAEC5E6FFAFC5E6FF92EC32F0090EC0
:1023D000E66E970EE66E000E02EC2FF033EC32F054
:1023E00011D028EC35F002E0E6EC32F01AEC35F0D2
:1023F00002E0EEEC32F0F4EC34F002E012EC33F0F8
:1024000089EC33F043E912000001A25132E129ECDA
:1024100030F0B2EC30F06B0EE66E960EE66E000E0B
:1024200097EC34F016EC35F041EC31F0530EE66EDB
:10243000960EE66E000EE9EC34F07CEC30F043ECE6
:1024400035F0B0C5E6FFB1C5E6FF5DEC33F0AEC5D3
:10245000E6FFAFC5E6FF41EC64F092EC32F02A0EE5
:10246000E66E960EE66E000E02EC2FF033EC32F0C4
:1024700011D028EC35F002E0E6EC32F01AEC35F041
:1024800002E0EEEC32F0F4EC34F002E012EC33F067
:1024900089EC33F043E912000001A25117E170EC1E
:1024A00034F0C5EC2FF043EC35F074C5E6FF75C58C
:1024B000E6FF5DEC33F072C5E6FF73C5E6FF41EC65
:1024C00064F041EC31F0CAEC35F009D0D3EC35F0D2
:1024D00071EC32F002E0EEEC32F077EC35F088EFA0
:1024E00034F00001A25109E170EC34F0C5EC2FF09A
:1024F000B2EC30F0CAEC35F00BD0C0EC35F016EC95
:1025000035F028EC35F002E0E6EC32F077EC35F00F
:1025100088EF34F00001A25149E114C5E6FF15C56A
:10252000E6FF10C4E6FF11C4E6FF12C4E6FF13C4C1
:10253000E6FF29C4E6FF2AC4E6FF2BC4E6FF2CC44D
:10254000E6FF83EC34F0CA0EE66E950EE66E000EE2
:1025500002EC2FF051E916EC35F0050101511DE0B8
:102560000251E66EE66AA30EE66E950EE66E000E6A
:10257000E9EC34F025EC35F031C4E6FF32C4E6FF77
:1025800033C4E6FF34C4E6FF820EE66E950EE66EB7
:10259000000E02EC2FF049E906D0E1EC30F04FECF0
:1025A00035F070EC34F01EEC35F011D028EC35F03D
:1025B00002E0B5EC33F01AEC35F002E04BEC33F00E
:1025C000F4EC34F002E0BEEC33F089EC33F043E994
:1025D00012000001A2511AE1F70EE66E940EE66EAB
:1025E000000EC3EC35F016EC35F0E10EE66E940EFD
:1025F000E66E000E4FEC35F0CB0EE66E940EE66EF6
:10260000000EC3EC35F01EEC35F011D028EC35F09F
:1026100002E0E6EC32F01AEC35F002E0EEEC32F0DB
:10262000F4EC34F002E012EC33F089EC33F043E9DF
:102630001200B40EE66E940EE66E000EC3EC35F09A
:1026400016EC35F09D0EE66E940EE66E000E4FEC25
:1026500035F0860EE66E940EE66E000E88EF34F0CE
:102660000001A25149E1C0EC35F0640E0501D8909B
:1026700089BF03D0885D000E89590AE2ACEC30F0C6
:10268000670EE66E940EE66E000E02EC2FF047E940
:1026900016EC35F08DB20AD0ACEC30F041EC31F0F4
:1026A000480EE66E940EE66E000E09D0A6EC30F0F1
:1026B00041EC31F0290EE66E940EE66E000E02EC4F
:1026C0002FF049E925EC35F0C0EC35F0640E05013A
:1026D000D89011BF03D0105D000E11590AE2A6EC8C
:1026E00030F00B0EE66E940EE66E000E02EC2FF04C
:1026F00047E91EEC35F011D028EC35F002E0B5ECDE
:1027000033F01AEC35F002E04BEC33F0F4EC34F03B
:1027100002E0BEEC33F089EC33F043E91200BBEC8D
:102720002FF082E942E8026A036A030ED89003BEE2
:1027300003D0025C000E03581DE20050E66E02EB6F
:10274000E9FF03EBEAFF3C0EEA02F3CFEAFFE902FE
:10275000F3CFE9FFF450EA26000EE926050EEA223F
:10276000F1EC31F0E552E750EE6EED6A022A000E10
:102770000322DBD743E9E7CFD9FF1200DCC0D4F452
:102780000001DC6B40EC35F01EEC31F002E06AEC4D
:102790000BF08DEC32F0F6E319EC6DF0D4C4DCF004
:1027A000010EFBEF2FF0D9CFE6FFE1CFD9FF81E992
:1027B00051E8E80E056E030E066E076A086A096A9C
:1027C0000A6A0B6A0C6A580E0D6E106A116A0001D3
:1027D000816B8DEC36F08DEC36F00001010E886FC8
:1027E000060100950001A26B7CC0E6FFD0EC6DF005
:1027F00041E90001855107E08B9200017B6B0001EC
:10280000806BC9EF2AF0AAEC03F0E70EE66E930E98
:10281000E66E000EE66E07EC74F043E9020E00016E
:102820007C5D06E1D00E056E070E066E076A086A2B
:102830000001010E7B6F0501080503E10001010E97
:10284000806F19EC6DF0010EE66EE66AE66AE66AE4
:1028500056EC01F044E900017C5118E1020EE66EED
:10286000E66AE66AE66A05EBE6FF06EBE6FF07EBDB
:10287000E6FF08EBE6FF5AEC66F0E552E550086E1D
:10288000E550076EE550066EE750056E030E000139
:102890007C5D18E1020EE66EE66AE66AE66A05EB22
:1028A000E6FF06EBE6FF07EBE6FF08EBE6FF5AEC78
:1028B00066F0E552E550086EE550076EE550066E8D
:1028C000E750056E050E00017C5D18E1020EE66E14
:1028D000E66AE66AE66A05EBE6FF06EBE6FF07EB6B
:1028E000E6FF08EBE6FF5AEC66F0E552E550086EAD
:1028F000E550076EE550066EE750056EE66A0FDF9D
:1029000041E91CEC6DF0010EE66E05EBE6FF06EB0F
:10291000E6FF07EBE6FF08EBE6FF55EC02F045E9C2
:10292000016A026A036A046A0001865102E08FEFBD
:102930001DF0060E00017C5D01E0CDD30E6A0F6A2A
:102940000F3404E20E500108000E0F5401E2A1D230
:10295000640E056E066A076A086A010EE66E05EBEC
:10296000E6FF06EBE6FF07EBE6FF08EBE6FF55ECBC
:1029700002F045E91CEC6DF0016A026A036A046A20
:1029800080C0E6FF1FEC6DF041E9D00EE66E070E49
:10299000E66EE66AE66A01EBE6FF02EBE6FF03EBB2
:1029A000E6FF04EBE6FFEAEC64F0E552E5CF03F066
:1029B000E5CF02F0E5CF01F0E7CF00F000010051D4
:1029C00001110211031101E0DAD0060100A52DD09A
:1029D00019EC6DF0010EE66EA2DE41E9FFEC61F04C
:1029E000060EE66EE66AE66AE66A56EC01F044E92F
:1029F0008B920001010E7B6F0001806B80C0E6FFAF
:102A00001FEC6DF041E97CC0E6FFD0EC6DF041E9D0
:102A1000AAEC03F0B90EE66E930EE66E000EE66EBB
:102A200007EC74F043E9C9EF2AF0CDEC2AF00EEB85
:102A3000E6FF0FEBE6FF9D0EE66E930EE66E000ED0
:102A4000E66E000EE66E020EE66E69EC73F047E984
:102A5000010EE66EE66AA0C0E6FFB7EC00F043E9BF
:102A60000A0EE66EE66A88C5E6FF89C5E6FF41EC18
:102A700064F0720EE66E930EE66E000EE66E000EC9
:102A8000E66E020EE66E69EC73F047E9640E05012E
:102A9000D89089BF03D0885D000E895916E20A0ECE
:102AA000E66EE66A88C5E6FF89C5E6FF41EC64F09C
:102AB000530EE66E930EE66E000EE66E000EE66EA8
:102AC000020EE66E69EC73F047E9010EE66E010E48
:102AD000E66EE66AB7EC00F043E92B0EE66E930E65
:102AE000E66E000EE66E000EE66E020EE66E69EC15
:102AF00073F045E9010EE66E020EE66EE66AB7EC8B
:102B000000F043E90A0EE66EE66A10C5E6FF11C55D
:102B1000E6FF41EC64F0FE0EE66E920EE66E000EED
:102B2000E66E000EE66E020EE66E69EC73F047E9A3
:102B3000640E0501D89011BF03D0105D000E11592D
:102B400016E20A0EE66EE66A10C5E6FF11C5E6FF5C
:102B500041EC64F00B0EE66E940EE66E000EE66E2F
:102B6000000EE66E020EE66E69EC73F047E9010EA8
:102B7000E66E030EE66EE66AB7EC00F043E9D95064
:102B8000010FE96EDACFEAFFEE2A000EEE22EE2206
:102B9000EE22E66A05EBE6FF06EBE6FF07EBE6FF53
:102BA00008EBE6FF55EC02F045E9000901E1E8D643
:102BB000640E0501D89089BF03D0885D000E895945
:102BC0000CE20501113504E210519008010E115577
:102BD00004E2010E0501666F676B640E0501D89073
:102BE00011BF03D0105D000E115903E20501646BA3
:102BF000656B010EE66E05EBE6FF06EBE6FF07EB05
:102C0000E6FF08EBE6FF55EC02F045E919EC6DF044
:102C1000016A026A036A046A80C0E6FF1FEC6DF075
:102C200041E9D00EE66E070EE66EE66AE66A01EB53
:102C3000E6FF02EBE6FF03EBE6FF04EBE6FFEAEC60
:102C400064F0E552E5CF03F0E5CF02F0E5CF01F007
:102C5000E7CF00F00001005101110211031101E062
:102C6000DAD0060100A52DD019EC6DF0010EE66E4C
:102C700056DD41E9FFEC61F0060EE66EE66AE66AB3
:102C8000E66A56EC01F044E98B920001010E7B6F7D
:102C90000001806B80C0E6FF1FEC6DF041E97CC055
:102CA000E6FFD0EC6DF041E9AAEC03F0B90EE66E58
:102CB000930EE66E000EE66E07EC74F043E9C9EF82
:102CC0002AF0CDEC2AF00EEBE6FF0FEBE6FFE30E69
:102CD000E66E920EE66E000EE66E000EE66E020ED8
:102CE000E66E69EC73F047E9010EE66EE66AA0C095
:102CF000E6FFB7EC00F043E90A0EE66EE66A88C527
:102D0000E6FF89C5E6FF41EC64F0720EE66E930EB5
:102D1000E66E000EE66E000EE66E020EE66E69ECE2
:102D200073F047E9640E0501D89089BF03D0885D30
:102D3000000E895916E20A0EE66EE66A88C5E6FFBD
:102D400089C5E6FF41EC64F0530EE66E930EE66E25
:102D5000000EE66E000EE66E020EE66E69EC73F093
:102D600047E9010EE66E010EE66EE66AB7EC00F08A
:102D700043E9B80EE66E920EE66E000EE66E000EA9
:102D8000E66E020EE66E69EC73F045E9010EE66E42
:102D9000020EE66EE66AB7EC00F043E90A0EE66E54
:102DA000E66A10C5E6FF11C5E6FF41EC64F0FE0ED1
:102DB000E66E920EE66E000EE66E000EE66E020EF7
:102DC000E66E69EC73F047E9640E0501D89011BF17
:102DD00003D0105D000E115916E20A0EE66EE66A87
:102DE00010C5E6FF11C5E6FF41EC64F00B0EE66E80
:102DF000940EE66E000EE66E000EE66E020EE66EB5
:102E000069EC73F047E9010EE66E030EE66EE66AC2
:102E1000B7EC00F043E9D950010FE96EDACFEAFFD1
:102E2000EE2A000EEE22EE22EE22E66A05EBE6FF27
:102E300006EBE6FF07EBE6FF08EBE6FF55EC02F0DA
:102E400045E9000901E1E8D6640E0501D89011BFFB
:102E500003D0105D000E11590CE20501893504E222
:102E600088519008010E895504E2010E0501646F36
:102E7000656B640E0501D89089BF03D0885D000E94
:102E8000895903E20501666B676B0E2A000E0F225B
:102E900057D58B9200017B6B0001806B050164515B
:102EA000651105E005016651671101E007D10501D3
:102EB000425101E103D106010095590E0D6E0DEB53
:102EC00000F00001016B00BF016900C0E6FF01C016
:102ED000E6FF980EE66E920EE66E000EE66E000EAF
:102EE000E66E020EE66E69EC73F047E9010EE66EDF
:102EF000E66AA0C0E6FFB7EC00F043E9000EE66E1C
:102F0000020EE66E83EC74F042E95C0EE66EA00EF3
:102F1000E66E000EE66E07EC74F043E964C5E6FF6A
:102F200065C5E6FF66C5E6FF67C5E6FF810EE66E8E
:102F3000920EE66E000EE66E000EE66E020EE66E75
:102F400069EC73F049E9010EE66E010EE66EE66A81
:102F5000B7EC00F043E9000EE66E020EE66E83EC7D
:102F600074F042E95C0EE66EA00EE66E000EE66EB0
:102F700007EC74F043E96A0EE66E920EE66E000E00
:102F8000E66E000EE66E020EE66E69EC73F045E941
:102F90000501665167110DE14E0EE66E920EE66E6A
:102FA000000EE66E000EE66E020EE66E69EC73F041
:102FB00045E9010EE66E020EE66EE66AB7EC00F039
:102FC00043E9000EE66E020EE66E83EC74F042E911
:102FD0005C0EE66EA00EE66E000EE66E07EC74F078
:102FE00043E96A0EE66E920EE66E000EE66E000E85
:102FF000E66E020EE66E69EC73F045E90501645178
:1030000065110DE1300EE66E920EE66E000EE66E74
:10301000000EE66E020EE66E69EC73F045E9010EF5
:10302000E66E030EE66EE66AB7EC00F043E9000ECA
:10303000E66E020EE66E83EC74F042E95C0EE66E1C
:10304000A00EE66E000EE66E07EC74F043E9010E8A
:10305000E66E010EE66E33EC6DF042E9020EE66EAE
:1030600009EC62F041E90400060100A5F7D7E66A21
:10307000010EE66E33EC6DF042E919EC6DF0010ED5
:10308000E66E8FEC13F041E9FFEC61F0060EE66EA0
:10309000E66AE66AE66A56EC01F044E98B920001C2
:1030A000010E7B6F0001806B80C0E6FF1FEC6DF0AE
:1030B00041E97CC0E6FFD0EC6DF041E9AAEC03F0F9
:1030C0000A0EE66E920EE66E000EE66E07EC74F0E7
:1030D00043E9C9EF2AF019EC6DF0060EE66EE66AD8
:1030E000E66AE66A56EC01F044E90FEC6DF0010E79
:1030F000E66EE66AE66AE66A56EC01F044E9106AB2
:10310000116A1CEC6DF0010EE66E05EBE6FF06EBB6
:10311000E6FF07EBE6FF08EBE6FF55EC02F045E9BA
:10312000F0EC35F080C0E6FF1FEC6DF041E9E80EF1
:10313000E66E030EE66EE66AE66A01EBE6FF02EB78
:10314000E6FF03EBE6FF04EBE6FFEAEC64F0E55292
:10315000E5CF03F0E5CF02F0E5CF01F0E7CF00F0D7
:103160000001005101110211031101E025D210EC00
:1031700036F0000901E1D4D0210EE96E060EEA6EA8
:10318000EE500601155D0001046FEE500601165960
:103190000001056FEE50060117590001066FEE5051
:1031A000060118590001076F04C0E6FF05C0E6FFDD
:1031B00006C0E6FF07C0E6FFBEEC07F044E9FBC22D
:1031C00000F0FCC201F0FDC202F0FEC203F000C03C
:1031D000E6FF01C0E6FF02C0E6FF03C0E6FF1D0EEA
:1031E000E96E060EEA6EEE500601115D00010C6FED
:1031F000EE500601125900010D6FEE5006011359F1
:1032000000010E6FEE500601145900010F6F0CC043
:10321000E6FF0DC0E6FF0EC0E6FF0FC0E6FFBEEC06
:1032200007F044E9FBC208F0FCC209F0FDC20AF055
:10323000FEC20BF008C0E6FF09C0E6FF0AC0E6FFC9
:103240000BC0E6FF190EE96E060EEA6EEE5006019F
:103250000D5D0001146FEE5006010E590001156F4F
:10326000EE5006010F590001166FEE50060110597D
:103270000001176F14C0E6FF15C0E6FF16C0E6FF99
:1032800017C0E6FFBEEC07F044E9FBC210F0FCC239
:1032900011F0FDC212F0FEC213F010C0E6FF11C023
:1032A000E6FF12C0E6FF13C0E6FFED0EE66E910EDC
:1032B000E66E000EE66E000EE66E020EE66E69EC3D
:1032C00073F051E9000EE66E020EE66E83EC74F0C8
:1032D00042E906013D5122E006013E511FE0060190
:1032E0003F511CE000017C5103E0010E106E116A99
:1032F000AAEC03F0C80EE66E910EE66E000EE66EC6
:10330000000EE66E020EE66E69EC73F045E9000E03
:10331000E66E020EE66E83EC74F042E9F0EC35F0F6
:10332000060100A52ED019EC6DF0010EE66E8FECB3
:1033300013F041E9FFEC61F0060EE66EE66AE66A1C
:10334000E66A56EC01F044E98B920001010E7B6FB6
:103350000001806B80C0E6FF1FEC6DF041E97CC08E
:10336000E6FFD0EC6DF041E9AAEC03F0B90EE66E91
:10337000930EE66E000EE66E07EC74F043E9C9EFBB
:103380002AF0CDEC2AF001EBE6FF02EBE6FF03EBBF
:10339000E6FF04EBE6FFB00EE66E910EE66E000E61
:1033A000E66E000EE66E020EE66E69EC73F049E919
:1033B000010EE66EE66AA0C0E6FFB7EC00F043E956
:1033C000020E00017C5D3CE02C0EE66E980EE66E6F
:1033D000000EE66E000EE66E020EE66E69EC73F00D
:1033E00045E9050106512BE031C6E6FF32C6E6FF8E
:1033F00033C6E6FF34C6E6FF0A0EE66EE66A26C569
:10340000E6FF27C5E6FF41EC64F00A0EE66EE66AC9
:1034100036C5E6FF37C5E6FF41EC64F010C5E6FFB0
:1034200011C5E6FF880EE66E910EE66E000EE66EA2
:10343000000EE66E020EE66E69EC73F04FE92ED0D8
:10344000050106512BE031C6E6FF32C6E6FF33C662
:10345000E6FF34C6E6FF0A0EE66EE66A26C5E6FF1C
:1034600027C5E6FF41EC64F00A0EE66EE66A36C553
:10347000E6FF37C5E6FF41EC64F010C5E6FF11C575
:10348000E6FF600EE66E910EE66E000EE66E000E32
:10349000E66E020EE66E69EC73F04FE9010EE66E21
:1034A000010EE66EE66AB7EC00F043E92C0EE66E1C
:1034B000980EE66E000EE66E000EE66E020EE66EEA
:1034C00069EC73F045E9050142512BE035C6E6FF92
:1034D00036C6E6FF37C6E6FF38C6E6FF0A0EE66EDA
:1034E000E66A62C5E6FF63C5E6FF41EC64F00A0EDA
:1034F000E66EE66A72C5E6FF73C5E6FF41EC64F06E
:103500004CC5E6FF4DC5E6FF380EE66E910EE66E41
:10351000000EE66E000EE66E020EE66E69EC73F0CB
:103520004FE9010EE66E020EE66EE66AB7EC00F0B9
:1035300043E92C0EE66E980EE66E000EE66E000E67
:10354000E66E020EE66E69EC73F045E905017E5108
:103550002BE039C6E6FF3AC6E6FF3BC6E6FF3CC6AF
:10356000E6FF0A0EE66EE66A9EC5E6FF9FC5E6FF29
:1035700041EC64F00A0EE66EE66AAEC5E6FFAFC542
:10358000E6FF41EC64F088C5E6FF89C5E6FF100E52
:10359000E66E910EE66E000EE66E000EE66E020E10
:1035A000E66E69EC73F04FE9010EE66E030EE66E0F
:1035B000E66AB7EC00F043E9D950010FE96EDACFC3
:1035C000EAFFEE2A000EEE22EE22EE22E66A05EB7C
:1035D000E6FF06EBE6FF07EBE6FF08EBE6FF55EC40
:1035E00002F045E9000904E11050111001E19AD5FB
:1035F00019EC6DF0060EE66EE66AE66AE66A56ECCF
:1036000001F044E916EC6DF0010EE66EE66AE66A3A
:10361000E66A56EC01F044E9106A116A00017C5137
:1036200001E17BD21CEC6DF0010EE66E05EBE6FFCE
:1036300006EBE6FF07EBE6FF08EBE6FF55EC02F0D2
:1036400045E9016A026A036A046AF0EC35F080C059
:10365000E6FF1FEC6DF041E9E80EE66E030EE66E44
:10366000E66AE66A01EBE6FF02EBE6FF03EBE6FF44
:1036700004EBE6FFEAEC64F0E552E5CF03F0E5CFBA
:1036800002F0E5CF01F0E7CF00F000010051011199
:103690000211031101E025D210EC36F0000901E11E
:1036A000D4D0210EE96E060EEA6EEE500601155DCD
:1036B0000001046FEE50060116590001056FEE502F
:1036C000060117590001066FEE5006011859000156
:1036D000076F04C0E6FF05C0E6FF06C0E6FF07C0AF
:1036E000E6FFBEEC07F044E9FBC200F0FCC201F0CB
:1036F000FDC202F0FEC203F000C0E6FF01C0E6FF1B
:1037000002C0E6FF03C0E6FF1D0EE96E060EEA6E7C
:10371000EE500601115D00010C6FEE5006011259CA
:1037200000010D6FEE500601135900010E6FEE50AF
:103730000601145900010F6F0CC0E6FF0DC0E6FF33
:103740000EC0E6FF0FC0E6FFBEEC07F044E9FBC287
:1037500008F0FCC209F0FDC20AF0FEC20BF008C07E
:10376000E6FF09C0E6FF0AC0E6FF0BC0E6FF190E40
:10377000E96E060EEA6EEE5006010D5D0001146F53
:10378000EE5006010E590001156FEE5006010F595B
:103790000001166FEE50060110590001176F14C09A
:1037A000E6FF15C0E6FF16C0E6FF17C0E6FFBEEC59
:1037B00007F044E9FBC210F0FCC211F0FDC212F0A8
:1037C000FEC213F010C0E6FF11C0E6FF12C0E6FF14
:1037D00013C0E6FFED0EE66E910EE66E000EE66E8D
:1037E000000EE66E020EE66E69EC73F051E9000E13
:1037F000E66E020EE66E83EC74F042E906013D517E
:1038000022E006013E511FE006013F511CE000018D
:103810007C5103E0010E106E116AAAEC03F0C80E91
:10382000E66E910EE66E000EE66E000EE66E020E7D
:10383000E66E69EC73F045E9000EE66E020EE66E88
:1038400083EC74F042E9F0EC35F0060100A52ED0CF
:1038500019EC6DF0010EE66E8FEC13F041E9FFEC10
:1038600061F0060EE66EE66AE66AE66A56EC01F07C
:1038700044E98B920001010E7B6F0001806B80C0D8
:10388000E6FF1FEC6DF041E97CC0E6FFD0EC6DF087
:1038900041E9AAEC03F0B90EE66E930EE66E000E57
:1038A000E66E07EC74F043E9C9EF2AF0CDEC2AF09C
:1038B00001EBE6FF02EBE6FF03EBE6FF04EBE6FFBE
:1038C000F90EE66E900EE66E000EE66E000EE66EE7
:1038D000020EE66E69EC73F049E9010EE66EE66AE7
:1038E000A0C0E6FFB7EC00F043E92C0EE66E980EA0
:1038F000E66E000EE66E000EE66E020EE66E69ECF7
:1039000073F045E9020E00017C5D2FE005010651D0
:103910002BE031C6E6FF32C6E6FF33C6E6FF34C60B
:10392000E6FF0A0EE66EE66A26C5E6FF27C5E6FF55
:1039300041EC64F00A0EE66EE66A36C5E6FF37C56E
:10394000E6FF41EC64F010C5E6FF11C5E6FF880E06
:10395000E66E910EE66E000EE66E000EE66E020E4C
:10396000E66E69EC73F04FE92ED0050106512BE0AD
:1039700031C6E6FF32C6E6FF33C6E6FF34C6E6FFD1
:103980000A0EE66EE66A26C5E6FF27C5E6FF41ECAD
:1039900064F00A0EE66EE66A36C5E6FF37C5E6FF56
:1039A00041EC64F010C5E6FF11C5E6FF600EE66E5F
:1039B000910EE66E000EE66E000EE66E020EE66EEC
:1039C00069EC73F04FE9010EE66E010EE66EE66AF1
:1039D000B7EC00F043E92C0EE66E980EE66E000E92
:1039E000E66E000EE66E020EE66E69EC73F045E9D7
:1039F000050142512BE035C6E6FF36C6E6FF37C665
:103A0000E6FF38C6E6FF0A0EE66EE66A62C5E6FF26
:103A100063C5E6FF41EC64F00A0EE66EE66A72C525
:103A2000E6FF73C5E6FF41EC64F04CC5E6FF4DC50B
:103A3000E6FF380EE66E910EE66E000EE66E000EA4
:103A4000E66E020EE66E69EC73F04FE9010EE66E6B
:103A5000020EE66EE66AB7EC00F043E92C0EE66E65
:103A6000980EE66E000EE66E000EE66E020EE66E34
:103A700069EC73F045E905017E512BE039C6E6FF9C
:103A80003AC6E6FF3BC6E6FF3CC6E6FF0A0EE66E18
:103A9000E66A9EC5E6FF9FC5E6FF41EC64F00A0EAC
:103AA000E66EE66AAEC5E6FFAFC5E6FF41EC64F040
:103AB00088C5E6FF89C5E6FF100EE66E910EE66E3C
:103AC000000EE66E000EE66E020EE66E69EC73F016
:103AD0004FE9010EE66E030EE66EE66AB7EC00F003
:103AE00043E9D950010FE96EDACFEAFFEE2A000E62
:103AF000EE22EE22EE22E66A05EBE6FF06EBE6FF9B
:103B000007EBE6FF08EBE6FF55EC02F045E900099C
:103B100004E11050111001E19AD5A9EF21F0040140
:103B2000296B2A6B2B6B2C6B04012951096E2A51CE
:103B30000A6E2B510B6E2C510C6E1CEC6DF0140E9A
:103B4000E66EE66AE66AE66A56EC01F044E9016A66
:103B5000026A036A046ADE0E015C030E0258000E5C
:103B60000358000E045801E3E5D001EBE6FF02EB39
:103B7000E6FF03EBE6FF04EBE6FFF90EE66E900EC0
:103B8000E66E000EE66E000EE66E020EE66E69EC64
:103B900073F049E9010EE66EE66AA0C0E6FFB7ECF5
:103BA00000F043E92C0EE66E980EE66E000EE66E0F
:103BB000000EE66E020EE66E69EC73F045E9050153
:103BC000065115E029C4E6FF2AC4E6FF2BC4E6FF30
:103BD0002CC4E6FFD70EE66E900EE66E000EE66E83
:103BE000000EE66E020EE66E69EC73F049E9010E16
:103BF000E66E010EE66EE66AB7EC00F043E92C0EC5
:103C0000E66E980EE66E000EE66E000EE66E020E92
:103C1000E66E69EC73F045E9010EE66E020EE66EA3
:103C2000E66AB7EC00F043E9010EE66E030EE66EBD
:103C3000E66AB7EC00F043E9010EE66EE66AE66A72
:103C4000E66A56EC01F044E9190EE66EE66AE66AA9
:103C5000E66A01EBE6FF02EBE6FF03EBE6FF04EBAF
:103C6000E6FFEAEC64F0E552E5CF03F0E5CF02F0C1
:103C7000E5CF01F0E7CF00F0000100510111021182
:103C800003111CE109500401291908E10A502A19FD
:103C900005E10B502B1902E10C502C1906E1E80E3E
:103CA000016E030E026E036A046A04012951096E53
:103CB0002A510A6E2B510B6E2C510C6E060100A579
:103CC0002ED019EC6DF0010EE66E8FEC13F041E989
:103CD000FFEC61F0060EE66EE66AE66AE66A56EC0E
:103CE00001F044E98B920001010E7B6F0001806BB3
:103CF00080C0E6FF1FEC6DF041E97CC0E6FFD0EC30
:103D00006DF041E9AAEC03F0B90EE66E930EE66E93
:103D1000000EE66E07EC74F043E9C9EF2AF0D950C3
:103D2000010FE96EDACFEAFFEE2A000EEE22EE2254
:103D3000EE2211D719EC6DF0060EE66EE66AE66A21
:103D4000E66A56EC01F044E90FEC6DF0010EE66E08
:103D5000E66AE66AE66A56EC01F044E90401296B7A
:103D60002A6B2B6B2C6B04012951096E2A510A6EA8
:103D70002B510B6E2C510C6E1CEC6DF0140EE66E7C
:103D8000E66AE66AE66A56EC01F044E9016A026A0C
:103D9000036A046ADE0E015C030E0258000E03582B
:103DA000000E045801E3E5D001EBE6FF02EBE6FF6D
:103DB00003EBE6FF04EBE6FFB00EE66E910EE66E57
:103DC000000EE66E000EE66E020EE66E69EC73F013
:103DD00049E9010EE66EE66AA0C0E6FFB7EC00F026
:103DE00043E92C0EE66E980EE66E000EE66E000EAF
:103DF000E66E020EE66E69EC73F045E905010651C8
:103E000015E029C4E6FF2AC4E6FF2BC4E6FF2CC454
:103E1000E6FFD70EE66E900EE66E000EE66E000E22
:103E2000E66E020EE66E69EC73F049E9010EE66E8D
:103E3000010EE66EE66AB7EC00F043E92C0EE66E82
:103E4000980EE66E000EE66E000EE66E020EE66E50
:103E500069EC73F045E9010EE66E020EE66EE66A65
:103E6000B7EC00F043E9010EE66E030EE66EE66A7B
:103E7000B7EC00F043E9010EE66EE66AE66AE66A30
:103E800056EC01F044E9190EE66EE66AE66AE66A67
:103E900001EBE6FF02EBE6FF03EBE6FF04EBE6FFD8
:103EA000EAEC64F0E552E5CF03F0E5CF02F0E5CFB0
:103EB00001F0E7CF00F000010051011102110311E0
:103EC0001CE109500401291908E10A502A1905E1E9
:103ED0000B502B1902E10C502C1906E1E80E016E73
:103EE000030E026E036A046A04012951096E2A5105
:103EF0000A6E2B510B6E2C510C6E060100A52ED0B4
:103F000019EC6DF0010EE66E8FEC13F041E9FFEC59
:103F100061F0060EE66EE66AE66AE66A56EC01F0C5
:103F200044E98B920001010E7B6F0001806B80C021
:103F3000E6FF1FEC6DF041E97CC0E6FFD0EC6DF0D0
:103F400041E9AAEC03F0B90EE66E930EE66E000EA0
:103F5000E66E07EC74F043E9C9EF2AF0D950010F7F
:103F6000E96EDACFEAFFEE2A000EEE22EE22EE2212
:103F700011D729C435F42AC436F42BC437F42CC421
:103F800038F419EC6DF000017B6B0001806B0A0EB8
:103F9000E66ED70EE66E230EE66E3C0EE66E35C478
:103FA000E6FF36C4E6FF37C4E6FF38C4E6FF7EEC22
:103FB00063F0ABEC66F0E6EC63F0E552E5CF13F4AA
:103FC000E5CF12F4E5CF11F4E7CF10F46AEC0BF073
:103FD000FA0EE66E7E0EE66E2A0EE66E3F0EE66E78
:103FE00035C4E6FF36C4E6FF37C4E6FF38C4E6FF53
:103FF0007EEC63F0ABEC66F0E6EC63F0E552E5CF07
:1040000013F4E5CF12F4E5CF11F4E7CF10F4290E45
:10401000E96E040EEA6EEE500401105D0001006FBF
:10402000EE50040111590001016FEE5004011259C4
:104030000001026FEE50040113590001036F0001EB
:10404000DC513C0DF3CFE9FFF4CFEAFF000EE92687
:10405000050EEA220F0EE926000EEA22050EE926D9
:10406000000EEA2200C0EEFF01C0EDFF6AEC0BF08B
:10407000FA0EE66E7E0EE66EAA0EE66E3E0EE66E58
:1040800035C4E6FF36C4E6FF37C4E6FF38C4E6FFB2
:104090007EEC63F0ABEC66F0E6EC63F0E552E5CF66
:1040A00013F4E5CF12F4E5CF11F4E7CF10F4290EA5
:1040B000E96E040EEA6EEE500401105D0001006F1F
:1040C000EE50040111590001016FEE500401125924
:1040D0000001026FEE50040113590001036F00014B
:1040E000DC513C0DF3CFE9FFF4CFEAFF000EE926E7
:1040F000050EEA220F0EE926000EEA22050EE92639
:10410000000EEA2200C0EEFF01C0EDFF6AEC0BF0EA
:10411000660EE66E660EE66E660EE66E3F0EE66EA6
:1041200035C4E6FF36C4E6FF37C4E6FF38C4E6FF11
:104130007EEC63F0ABEC66F0E6EC63F0E552E5CFC5
:1041400013F4E5CF12F4E5CF11F4E7CF10F4290E04
:10415000E96E040EEA6EEE500401105D0001006F7E
:10416000EE50040111590001016FEE500401125983
:104170000001026FEE50040113590001036F0001AA
:10418000DC513C0DF3CFE9FFF4CFEAFF000EE92646
:10419000050EEA220F0EE926000EEA22050EE92698
:1041A000000EEA2200C0EEFF01C0EDFF6AEC0BF04A
:1041B000CD0EE66ECC0EE66ECC0EE66E3D0EE66ED5
:1041C00035C4E6FF36C4E6FF37C4E6FF38C4E6FF71
:1041D0007EEC63F0ABEC66F0E6EC63F0E552E5CF25
:1041E00013F4E5CF12F4E5CF11F4E7CF10F4290E64
:1041F000E96E040EEA6EEE500401105D0001006FDE
:10420000EE50040111590001016FEE5004011259E2
:104210000001026FEE50040113590001036F000109
:10422000DC513C0DF3CFE9FFF4CFEAFF000EE926A5
:10423000050EEA220F0EE926000EEA22050EE926F7
:10424000000EEA2200C0EEFF01C0EDFF6AEC0BF0A9
:10425000E66AE66AE66A3F0EE66E35C4E6FF36C4F5
:10426000E6FF37C4E6FF38C4E6FF7EEC63F0ABEC54
:1042700066F0E6EC63F0E552E5CF13F4E5CF12F417
:10428000E5CF11F4E7CF10F4290EE96E040EEA6EC3
:10429000EE500401105D0001006FEE500401115951
:1042A0000001016FEE50040112590001026FEE503F
:1042B000040113590001036F0001DC513C0DF3CFE1
:1042C000E9FFF4CFEAFF000EE926050EEA220F0E01
:1042D000E926000EEA22050EE926000EEA2200C0B9
:1042E000EEFF01C0EDFF6AEC0BF0016A026A036A9F
:1042F000046A030E015C000E0258000E0358000E03
:10430000045827E201EBE9FF02EBEAFF3C0EEA0268
:10431000F3CFEAFF3C0EE902F3CFE9FFF450EA26BF
:10432000000EE926050EEA220F0EE926000EEA220B
:104330001D0EE926000EEA22EE6AED6AD950010F41
:10434000E96EDACFEAFFEE2A000EEE22EE22EE222E
:10435000D0D7016A026A036A046A030E015C000E88
:104360000258000E0358000E045802E379EF29F0BA
:1043700000017C5101E000D101EBE9FF02EBEAFF13
:104380003C0EEA02F3CFEAFF3C0EE902F3CFE9FF6D
:10439000F450EA26000EE926050EEA220F0EE92661
:1043A000000EEA22090EE926000EEA22EECF00F006
:1043B000EFCF01F001EBE9FF02EBEAFF3C0EEA026E
:1043C000F3CFEAFF3C0EE902F3CFE9FFF450EA260F
:1043D000000EE926050EEA220F0EE926000EEA225B
:1043E0000B0EE926000EEA22EECF02F0EFCF03F02B
:1043F0000001013501510001031908E600010051D7
:104400000001025D000101510001035935E201EB99
:10441000E9FF02EBEAFF3C0EEA02F3CFEAFF3C0EB3
:10442000E902F3CFE9FFF450EA26000EE926050E73
:10443000EA22060EE926000EEA22EF501DE001EB0B
:10444000E9FF02EBEAFF3C0EEA02F3CFEAFF3C0E83
:10445000E902F3CFE9FFF450EA26000EE926050E43
:10446000EA220F0EE926000EEA221D0EE926000EB2
:10447000EA22010EEE6EED6A01EBE9FF02EBEAFFC4
:104480003C0EEA02F3CFEAFF3C0EE902F3CFE9FF6C
:10449000F450EA26000EE926050EEA220F0EE92660
:1044A000000EEA22170EE926000EEA22EECF00F0F7
:1044B000EFCF01F001EBE9FF02EBEAFF3C0EEA026D
:1044C000F3CFEAFF3C0EE902F3CFE9FFF450EA260E
:1044D000000EE926050EEA220F0EE926000EEA225A
:1044E0000D0EE926000EEA22EECF02F0EFCF03F028
:1044F0000001033503510001011908E600010251D2
:104500000001005D000103510001015935E201EB9A
:10451000E9FF02EBEAFF3C0EEA02F3CFEAFF3C0EB2
:10452000E902F3CFE9FFF450EA26000EE926050E72
:10453000EA22060EE926000EEA22EF501DE001EB0A
:10454000E9FF02EBEAFF3C0EEA02F3CFEAFF3C0E82
:10455000E902F3CFE9FFF450EA26000EE926050E42
:10456000EA220F0EE926000EEA221D0EE926000EB1
:10457000EA22010EEE6EED6A030E00017C5D01E0A1
:1045800000D101EBE9FF02EBEAFF3C0EEA02F3CFB8
:10459000EAFF3C0EE902F3CFE9FFF450EA26000EF1
:1045A000E926050EEA220F0EE926000EEA22090E80
:1045B000E926000EEA22EECF00F0EFCF01F001EB8A
:1045C000E9FF02EBEAFF3C0EEA02F3CFEAFF3C0E02
:1045D000E902F3CFE9FFF450EA26000EE926050EC2
:1045E000EA220F0EE926000EEA220B0EE926000E43
:1045F000EA22EECF02F0EFCF03F0000101350151C6
:104600000001031908E6000100510001025D0001EC
:1046100001510001035935E201EBE9FF02EBEAFF2A
:104620003C0EEA02F3CFEAFF3C0EE902F3CFE9FFCA
:10463000F450EA26000EE926050EEA22060EE926C7
:10464000000EEA22EF501DE001EBE9FF02EBEAFF6A
:104650003C0EEA02F3CFEAFF3C0EE902F3CFE9FF9A
:10466000F450EA26000EE926050EEA220F0EE9268E
:10467000000EEA221D0EE926000EEA22010EEE6E61
:10468000ED6A01EBE9FF02EBEAFF3C0EEA02F3CF31
:10469000EAFF3C0EE902F3CFE9FFF450EA26000EF0
:1046A000E926050EEA220F0EE926000EEA22170E71
:1046B000E926000EEA22EECF00F0EFCF01F001EB89
:1046C000E9FF02EBEAFF3C0EEA02F3CFEAFF3C0E01
:1046D000E902F3CFE9FFF450EA26000EE926050EC1
:1046E000EA220F0EE926000EEA220D0EE926000E40
:1046F000EA22EECF02F0EFCF03F0000103350351C1
:104700000001011908E6000102510001005D0001ED
:1047100003510001015935E201EBE9FF02EBEAFF29
:104720003C0EEA02F3CFEAFF3C0EE902F3CFE9FFC9
:10473000F450EA26000EE926050EEA22060EE926C6
:10474000000EEA22EF501DE001EBE9FF02EBEAFF69
:104750003C0EEA02F3CFEAFF3C0EE902F3CFE9FF99
:10476000F450EA26000EE926050EEA220F0EE9268D
:10477000000EEA221D0EE926000EEA22010EEE6E60
:10478000ED6A050E00017C5D01E000D101EBE9FF5F
:1047900002EBEAFF3C0EEA02F3CFEAFF3C0EE9022D
:1047A000F3CFE9FFF450EA26000EE926050EEA22CF
:1047B0000F0EE926000EEA22090EE926000EEA2273
:1047C000EECF00F0EFCF01F001EBE9FF02EBEAFFE3
:1047D0003C0EEA02F3CFEAFF3C0EE902F3CFE9FF19
:1047E000F450EA26000EE926050EEA220F0EE9260D
:1047F000000EEA220B0EE926000EEA22EECF02F0AE
:10480000EFCF03F00001013501510001031908E663
:10481000000100510001025D000101510001035936
:1048200035E201EBE9FF02EBEAFF3C0EEA02F3CFCF
:10483000EAFF3C0EE902F3CFE9FFF450EA26000E4E
:10484000E926050EEA22060EE926000EEA22EF50BE
:104850001DE001EBE9FF02EBEAFF3C0EEA02F3CFB9
:10486000EAFF3C0EE902F3CFE9FFF450EA26000E1E
:10487000E926050EEA220F0EE926000EEA221D0E99
:10488000E926000EEA22010EEE6EED6A01EBE9FF69
:1048900002EBEAFF3C0EEA02F3CFEAFF3C0EE9022C
:1048A000F3CFE9FFF450EA26000EE926050EEA22CE
:1048B0000F0EE926000EEA22170EE926000EEA2264
:1048C000EECF00F0EFCF01F001EBE9FF02EBEAFFE2
:1048D0003C0EEA02F3CFEAFF3C0EE902F3CFE9FF18
:1048E000F450EA26000EE926050EEA220F0EE9260C
:1048F000000EEA220D0EE926000EEA22EECF02F0AB
:10490000EFCF03F00001033503510001011908E660
:10491000000102510001005D000103510001015935
:1049200035E201EBE9FF02EBEAFF3C0EEA02F3CFCE
:10493000EAFF3C0EE902F3CFE9FFF450EA26000E4D
:10494000E926050EEA22060EE926000EEA22EF50BD
:104950001DE001EBE9FF02EBEAFF3C0EEA02F3CFB8
:10496000EAFF3C0EE902F3CFE9FFF450EA26000E1D
:10497000E926050EEA220F0EE926000EEA221D0E98
:10498000E926000EEA22010EEE6EED6A00017C05BA
:1049900001E000D101EBE9FF02EBEAFF3C0EEA0285
:1049A000F3CFEAFF3C0EE902F3CFE9FFF450EA2629
:1049B000000EE926050EEA220F0EE926000EEA2275
:1049C000090EE926000EEA22EECF00F0EFCF01F04B
:1049D00001EBE9FF02EBEAFF3C0EEA02F3CFEAFF4C
:1049E0003C0EE902F3CFE9FFF450EA26000EE92677
:1049F000050EEA220F0EE926000EEA220B0EE9262A
:104A0000000EEA22EECF02F0EFCF03F000010135F5
:104A100001510001031908E6000100510001025D87
:104A2000000101510001035935E201EBE9FF02EBFE
:104A3000EAFF3C0EEA02F3CFEAFF3C0EE902F3CFB5
:104A4000E9FFF450EA26000EE926050EEA22060EDA
:104A5000E926000EEA22EF501DE001EBE9FF02EB30
:104A6000EAFF3C0EEA02F3CFEAFF3C0EE902F3CF85
:104A7000E9FFF450EA26000EE926050EEA220F0EA1
:104A8000E926000EEA221D0EE926000EEA22010E9A
:104A9000EE6EED6A01EBE9FF02EBEAFF3C0EEA0283
:104AA000F3CFEAFF3C0EE902F3CFE9FFF450EA2628
:104AB000000EE926050EEA220F0EE926000EEA2274
:104AC000170EE926000EEA22EECF00F0EFCF01F03C
:104AD00001EBE9FF02EBEAFF3C0EEA02F3CFEAFF4B
:104AE0003C0EE902F3CFE9FFF450EA26000EE92676
:104AF000050EEA220F0EE926000EEA220D0EE92627
:104B0000000EEA22EECF02F0EFCF03F000010335F2
:104B100003510001011908E6000102510001005D86
:104B2000000103510001015935E201EBE9FF02EBFD
:104B3000EAFF3C0EEA02F3CFEAFF3C0EE902F3CFB4
:104B4000E9FFF450EA26000EE926050EEA22060ED9
:104B5000E926000EEA22EF501DE001EBE9FF02EB2F
:104B6000EAFF3C0EEA02F3CFEAFF3C0EE902F3CF84
:104B7000E9FFF450EA26000EE926050EEA220F0EA0
:104B8000E926000EEA221D0EE926000EEA22010E99
:104B9000EE6EED6A01EBE9FF02EBEAFF3C0EEA0282
:104BA000F3CFEAFF3C0EE902F3CFE9FFF450EA2627
:104BB000000EE926050EEA220F0EE926000EEA2273
:104BC0001D0EE926000EEA22EE50ED1001E0C1D1E3
:104BD00001EBE9FF02EBEAFF3C0EEA02F3CFEAFF4A
:104BE0003C0EE902F3CFE9FFF450EA26000EE92675
:104BF000050EEA220F0EE926000EEA22190EE9261A
:104C0000000EEA22010EEE6EED6A01EBE9FF02EB07
:104C1000EAFF3C0EEA02F3CFEAFF3C0EE902F3CFD3
:104C2000E9FFF450EA26000EE926050EEA220F0EEF
:104C3000E926000EEA221B0EE926000EEA22010EEA
:104C4000EE6EED6A01EBE9FF02EBEAFF3C0EEA02D1
:104C5000F3CFEAFF3C0EE902F3CFE9FFF450EA2676
:104C6000000EE926050EEA220D0EE926000EEA22C4
:104C7000EECF00F0EFCF01F001EBE9FF02EBEAFF2E
:104C80003C0EEA02F3CFEAFF3C0EE902F3CFE9FF64
:104C9000F450EA26000EE926050EEA220F0EE92658
:104CA000000EEA22290EE926000EEA2200C0EEFFDD
:104CB00001C0EDFF01EBE9FF02EBEAFF3C0EEA0267
:104CC000F3CFEAFF3C0EE902F3CFE9FFF450EA2606
:104CD000000EE926050EEA22060EE926000EEA225B
:104CE000EF5001E135D1020E00017C5D04E0580E69
:104CF00001240D6E02D0410E0D6EAAEC03F00DEBF7
:104D000000F00001016B00BF016900C0E6FF01C0B7
:104D1000E6FFAB0EE66E900EE66E000EE66E000E3F
:104D2000E66E020EE66E69EC73F047E9000EE66E81
:104D3000020EE66E83EC74F042E901EBE9FF02EB50
:104D4000EAFF3C0EEA02F3CFEAFF3C0EE902F3CFA2
:104D5000E9FFF450EA26000EE926050EEA220F0EBE
:104D6000E926000EEA220B0EE926000EEA22EECF1B
:104D7000E6FFEECFE6FF01EBE9FF02EBEAFF3C0EB8
:104D8000EA02F3CFEAFF3C0EE902F3CFE9FFF45069
:104D9000EA26000EE926050EEA220F0EE926000E8D
:104DA000EA22090EE926000EEA22EECFE6FFEECF58
:104DB000E6FF950EE66E900EE66E000EE66E000EB5
:104DC000E66E020EE66E69EC73F049E9000EE66EDF
:104DD000020EE66E83EC74F042E95C0EE66EA00E05
:104DE000E66E000EE66E07EC74F043E901EBE9FFB6
:104DF00002EBEAFF3C0EEA02F3CFEAFF3C0EE902C7
:104E0000F3CFE9FFF450EA26000EE926050EEA2268
:104E10000F0EE926000EEA220D0EE926000EEA2208
:104E2000EECFE6FFEECFE6FF01EBE9FF02EBEAFF94
:104E30003C0EEA02F3CFEAFF3C0EE902F3CFE9FFB2
:104E4000F450EA26000EE926050EEA220F0EE926A6
:104E5000000EEA22170EE926000EEA22EECFE6FF48
:104E6000EECFE6FF7F0EE66E900EE66E000EE66E6B
:104E7000000EE66E020EE66E69EC73F049E9000E74
:104E8000E66E020EE66E83EC74F042E95C0EE66EAE
:104E9000A00EE66E000EE66E07EC74F043E901EB3F
:104EA000E9FF02EBEAFF3C0EEA02F3CFEAFF3C0E19
:104EB000E902F3CFE9FFF450EA26000EE926050ED9
:104EC000EA220F0EE926000EEA220F0EE926000E56
:104ED000EA22EECFE6FFEECFE6FF01EBE9FF02EBC1
:104EE000EAFF3C0EEA02F3CFEAFF3C0EE902F3CF01
:104EF000E9FFF450EA26000EE926050EEA220F0E1D
:104F0000E926000EEA22150EE926000EEA22EECF6F
:104F1000E6FFEECFE6FF6B0EE66E900EE66E000E3D
:104F2000E66E000EE66E020EE66E69EC73F049E97D
:104F3000000EE66E020EE66E83EC74F042E95C0E43
:104F4000E66EA00EE66E000EE66E07EC74F043E926
:104F5000C4D101EBE9FF02EBEAFF3C0EEA02F3CF1A
:104F6000EAFF3C0EE902F3CFE9FFF450EA26000E17
:104F7000E926050EEA22060EE926000EEA22EF5087
:104F800001E1ABD106010095020E00017C5D04E059
:104F9000580E01240D6E02D0410E0D6EAAEC03F0E6
:104FA000550EE66EA00EE66E000EE66E07EC74F08F
:104FB00043E90DEB00F00001016B00BF016900C087
:104FC000E6FF01C0E6FF550EE66E900EE66E000E9F
:104FD000E66E000EE66E020EE66E69EC73F047E9CF
:104FE000010EE66EE66AA0C0E6FFB7EC00F043E90A
:104FF000000EE66E020EE66E83EC74F042E95C0E83
:10500000E66EA00EE66E000EE66E07EC74F043E965
:1050100001EBE9FF02EBEAFF3C0EEA02F3CFEAFF05
:105020003C0EE902F3CFE9FFF450EA26000EE92630
:10503000050EEA220F0EE926000EEA220B0EE926E3
:10504000000EEA22EECFE6FFEECFE6FF01EBE9FF2E
:1050500002EBEAFF3C0EEA02F3CFEAFF3C0EE90264
:10506000F3CFE9FFF450EA26000EE926050EEA2206
:105070000F0EE926000EEA22090EE926000EEA22AA
:10508000EECFE6FFEECFE6FF3F0EE66E900EE66E49
:10509000000EE66E000EE66E020EE66E69EC73F030
:1050A00049E9010EE66E010EE66EE66AB7EC00F025
:1050B00043E9000EE66E020EE66E83EC74F042E900
:1050C0005C0EE66EA00EE66E000EE66E07EC74F067
:1050D00043E901EBE9FF02EBEAFF3C0EEA02F3CF02
:1050E000EAFF3C0EE902F3CFE9FFF450EA26000E96
:1050F000E926050EEA220F0EE926000EEA220D0E21
:10510000E926000EEA22EECFE6FFEECFE6FF01EB46
:10511000E9FF02EBEAFF3C0EEA02F3CFEAFF3C0EA6
:10512000E902F3CFE9FFF450EA26000EE926050E66
:10513000EA220F0EE926000EEA22170EE926000EDB
:10514000EA22EECFE6FFEECFE6FF290EE66E900EE6
:10515000E66E000EE66E000EE66E020EE66E69EC7E
:1051600073F049E9010EE66E020EE66EE66AB7ECF0
:1051700000F043E9000EE66E020EE66E83EC74F07A
:1051800042E95C0EE66EA00EE66E000EE66E07ECDF
:1051900074F043E901EBE9FF02EBEAFF3C0EEA029F
:1051A000F3CFEAFF3C0EE902F3CFE9FFF450EA2621
:1051B000000EE926050EEA220F0EE926000EEA226D
:1051C0000F0EE926000EEA22EECFE6FFEECFE6FF55
:1051D00001EBE9FF02EBEAFF3C0EEA02F3CFEAFF44
:1051E0003C0EE902F3CFE9FFF450EA26000EE9266F
:1051F000050EEA220F0EE926000EEA22150EE92618
:10520000000EEA22EECFE6FFEECFE6FF6B0EE66E73
:10521000900EE66E000EE66E000EE66E020EE66E74
:1052200069EC73F049E9010EE66E030EE66EE66A7C
:10523000B7EC00F043E9000EE66E020EE66E83EC7A
:1052400074F042E95C0EE66EA00EE66E000EE66EAD
:1052500007EC74F043E9010EE66E010EE66E33ECE6
:105260006DF042E9020E00017C5D04E0580E01245D
:105270000D6E02D0410E0D6EAAEC03F00DEB00F0A6
:105280000001016B00BF016900C0E6FF01C0E6FF3D
:10529000FD0EE66E8F0EE66E000EE66E000EE66EFA
:1052A000020EE66E69EC73F047E9000EE66E020E40
:1052B000E66E83EC74F042E9020EE66E09EC62F0F1
:1052C00041E90400060100A5F7D7E66A010EE66E83
:1052D00033EC6DF042E9FFEC61F0D950010FE96E5B
:1052E000DACFEAFFEE2A000EEE22EE22EE22ADEF3A
:1052F00021F019EC6DF0060EE66EE66AE66AE66AE3
:1053000056EC01F044E98B9200017B6B0001806B4D
:10531000FFEC61F00001865101E020D1016A026AD0
:10532000036A046A050EE66E09EC62F041E9E80ED4
:10533000E66E8F0EE66E000EE66E000EE66E020E54
:10534000E66E69EC73F045E9010EE66EE66AA0C010
:10535000E6FFB7EC00F043E9060100A588D08F8096
:10536000D30EE66E8F0EE66E000EE66E000EE66E53
:10537000020EE66E69EC73F045E9010EE66EE66A30
:10538000A0C0E6FFB7EC00F043E9060EE66EE66A61
:10539000E66AE66A56EC01F044E9FFEC61F02C0E97
:1053A000E66E980EE66E000EE66E000EE66E020EDB
:1053B000E66E69EC73F045E9010EE66E010EE66EED
:1053C000E66AB7EC00F043E92C0EE66E980EE66E46
:1053D000000EE66E000EE66E020EE66E69EC73F0ED
:1053E00045E9010EE66E020EE66EE66AB7EC00F0E5
:1053F00043E92C0EE66E980EE66E000EE66E000E89
:10540000E66E020EE66E69EC73F045E9010EE66E9B
:10541000030EE66EE66AB7EC00F043E9020EE66EB4
:1054200088EC10F041E9BB0EE66E8F0EE66E000EC2
:10543000E66E000EE66E020EE66E69EC73F045E96C
:10544000010EE66EE66AA0C0E6FFB7EC00F043E9A5
:10545000060EE66EE66AE66AE66A56EC01F044E994
:10546000A00E016E860E026E010E036E046A040029
:10547000060106010051040B1DE1D950010FE96E30
:10548000DACFEAFFEFCF00F0EE2A000EEFCF01F007
:10549000EE22EFCF02F0EE22EFCF03F0EF22E80E84
:1054A0000001005D030E0159000E0259000E035960
:1054B00001E23DD79D0EE66E8F0EE66E000EE66EA3
:1054C000000EE66E020EE66E69EC73F045E9010E21
:1054D000E66EE66AE66AB7EC00F043E92C0EE66E8B
:1054E000980EE66E000EE66E000EE66E020EE66E9A
:1054F00069EC73F045E9010EE66E010EE66EE66AB0
:10550000B7EC00F043E92C0EE66E980EE66E000E46
:10551000E66E000EE66E020EE66E69EC73F045E98B
:10552000010EE66E020EE66EE66AB7EC00F043E9A5
:105530002C0EE66E980EE66E000EE66E000EE66E1F
:10554000020EE66E69EC73F045E9010EE66E030E9D
:10555000E66EE66AB7EC00F043E900D000017B6B31
:105560000001806B060EE66EE66AE66AE66A56ECB5
:1055700001F044E9FFEC61F0BEEC13F0AAEC03F09B
:105580000A0EE66E920EE66E000EE66E07EC74F002
:1055900043E952E9E7CFD9FF12008DEC36F0000164
:1055A0008C5151E0EEC6E6FFEFC6E6FFECC6E6FF23
:1055B000EDC6E6FFEAC6E6FFEBC6E6FF55EC34F0C3
:1055C00031EC34F043EC34F0680EE66E8F0EE66E8C
:1055D000000E02EC2FF036EC32F05EEC34F03AECD8
:1055E00034F04CEC34F0450EE66E8F0EE66E000E95
:1055F00002EC2FF051E9E1EC32F090C5E6FF91C5E5
:10560000E6FF8AC5E6FF8BC5E6FFB2EC35F054C570
:10561000E6FF55C5E6FF4EC5E6FF4FC5E6FF21ECA8
:1056200031F018C5E6FF19C5E6FF12C5E6FF13C540
:10563000E6FF72EC35F0070EE66E8F0EE66E000E9A
:10564000E1DB36EC32F012000601C80EA76F97ECD2
:1056500030F04AEC32F027E02B0EE66E9DEC72F053
:1056600041E94AEC32F0FDE197EC30F02B0EE66EAA
:105670009DEC72F041E94AEC32F0FDE10C0EE66E71
:105680000EEC75F041E94AEC32F0FDE1010EE66EF8
:105690000EEC75F041E997EC30F00001010EF66F69
:1056A0000601180EA76F12000001806B120EE66E45
:1056B000220EE66E8BEC71F042E9F20EE66E8E0E73
:1056C000E66E000EE66E000EE66E020EE66E69EC09
:1056D00073F045E9010EE66EE66AE66AB7EC00F0A3
:1056E00043E9010EE66E010EE66EE66AB7EC00F0E5
:1056F00043E9010EE66E020EE66EE66AB7EC00F0D4
:1057000043E9010EE66E030EE66EE66AB7EC00F0C2
:1057100043E9120EE66E220EE66E3CEC72F042E9B0
:105720008F9092DF8B68FCAE15D0FC9E5C0EE66E0F
:10573000A00EE66E000EE66E07EC74F043E9AAECEC
:1057400003F0CD0EE66E8E0EE66E000EE66E07ECF2
:1057500074F043E9FCAC15D0FC9C5C0EE66EA00E28
:10576000E66E000EE66E07EC74F043E9AAEC03F077
:10577000A30EE66E8E0EE66E000EE66E07EC74F07B
:1057800043E90001735114E05C0EE66EA00EE66E74
:10579000000EE66E07EC74F043E9AAEC03F07A0E13
:1057A000E66E8E0EE66E000EE66E07EC74F043E9D0
:1057B0000001745114E05C0EE66EA00EE66E000E61
:1057C000E66E07EC74F043E9AAEC03F0510EE66EC6
:1057D0008E0EE66E000EE66E07EC74F043E9140ED2
:1057E000E66EE66A390EE66E8E0EE66E000EE66E28
:1057F000000EE66E020EE66E57EC71F047E9010E00
:10580000E66EE66AE66AB7EC00F043E9570EE66E2C
:10581000A00EE66E000EE66E07EC74F043E9140E7F
:10582000E66EE66A9DC0E6FF9EC0E6FF9FC0E6FF0B
:10583000000EE66E020EE66E57EC71F047E9010EBF
:10584000E66E010EE66EE66AB7EC00F043E9000E84
:10585000E66E020EE66E83EC74F042E9550EE66EDB
:10586000A00EE66E000EE66E07EC74F043E9140E2F
:10587000E66EE66A9AC0E6FF9BC0E6FF9CC0E6FFC4
:10588000000EE66E020EE66E57EC71F047E9000E70
:10589000E66E020EE66E83EC74F042E9010EE66EEF
:1058A000020EE66EE66AB7EC00F043E9140EE66E0F
:1058B000E66A3F0EE66EA00EE66E000EE66E000E85
:1058C000E66E020EE66E57EC71F047E9000EE66EEA
:1058D000020EE66E83EC74F042E95C0EE66EA00EFA
:1058E000E66E000EE66E07EC74F043E9010EE66E1C
:1058F000030EE66EE66AB7EC00F043E9AAEC03F0AB
:105900001A0EE66E8E0EE66E000EE66E07EC74F072
:1059100043E983A20CD00001010E8C6F020EE66EEB
:105920008E0EE66E000EE66E07EC74F043E983A07F
:1059300039D0AAEC03F0E90EE66E8D0EE66E000E8D
:10594000E66E07EC74F043E9000EE66EE66A000EC0
:10595000E66EE66A010EE66EE66A67EC70F046E90E
:10596000AAEC03F0CC0EE66E8D0EE66E000EE66E2F
:1059700007EC74F043E90601D96B0F0E0601D95DFF
:1059800011E2080EE66EE66A0601D951E66EE66A95
:105990000F0EE66E7F0EE66E67EC70F046E90601CC
:1059A000D92BEBD7AAEC03F0AC0EE66E8D0EE66EAB
:1059B000000EE66E07EC74F043E9000EE66EE66A50
:1059C000000EE66EE66A99EC70F044E959080CE1C5
:1059D000000EE66EE66A020EE66EE66A99EC70F07C
:1059E00044E90601D86F22D0AAEC03F0890EE66ED6
:1059F0008D0EE66E000EE66E07EC74F043E9000EC5
:105A0000E66EE66A000EE66EE66A010EE66EE66A8D
:105A100067EC70F046E9AAEC03F0690EE66E8D0EB5
:105A2000E66E000EE66E07EC74F043E9AAEC03F0B4
:105A3000500EE66E8D0EE66E000EE66E07EC74F00C
:105A400043E9080EE66EE66A000EE66EE66A99EC39
:105A500070F044E959081FE10601D96B0F0E0601E9
:105A6000D95D18E20601D951E66EE66A0A0EE66EC5
:105A7000E66A99EC70F044E9E66E0601D951EA6AEB
:105A8000E50FE96E000EEA22E552E750EF6E0601DF
:105A9000D92BE4D734D0AAEC03F0340EE66E8D0E89
:105AA000E66E000EE66E07EC74F043E90601D96B72
:105AB0000F0E0601D95D18E2080EE66EE66A0601D1
