:020000040000FA
:0600000094EF77F01200FE
:020006001200E6
:060008007FEF5BF0120027
:02000E00C250DE
:08001000020B01E0010E1200D9
:0600180046EF62F0120049
:02001E000600DA
:10002000A7F00000FE03000002000000A3F00000A3
:10003000FC010000040000000EF000006000000061
:1000400095000000FCEF0000EA0300001200000031
:10005000FAEF0000FC03000002000000CAEF0000FD
:08006000A706000030000000BB
:0800680029EC32F0E652FE0E15
:10007000DB50050802E2FE0EDB6AFD0EDB5003E0FA
:1000800077EC33F0EF6AFE0EDBCFACF6C30E036EF7
:10009000A30E046E000EBFEC34F0140EFAEC33F035
:1000A00045EC36F0026E77EC33F0EFCF09F00A6AD8
:1000B0000B6A00500924F36E01500A20F46E0250BE
:1000C0000B20F86EF4CFF7FFF3CFF6FF0800F550E2
:1000D000DF6E77EC33F0EF2AEFCF00F0016A026AAF
:1000E00010EC34F0C30E066EA30E076E000E086E01
:1000F000FE0EDBCF09F00A6A0B6A140E306E316A0D
:10010000326A09C02BF00AC02CF00BC02DF084EC31
:100110006AF028C009F029C00AF02AC00BF0065086
:100120002824036E07502920046E08502A20056EEB
:1001300003C0E6FF04C0E6FFE66E1EEC71F08FEC34
:1001400035F0E7CF02F0E552E7CF01F0E552E7CF17
:1001500000F02B50005C2C5001582D50025803E346
:1001600077EC33F0EF6ADF50E5522EEF32F029ECF6
:1001700032F00001F2515CE0FC0EDB502AE0FD0E93
:10018000DBCFE6FFFE0EDB50E552E7240601AD6F44
:1001900040EC37F0820EE66EA20EE66E000EE66EC2
:1001A000A6EC32F071EC71F0D8EC34F040EC37F0A2
:1001B0001BEC36F00601A6EC32F043EC71F0026E57
:1001C000060EE15E02500601FFEC35F0140E34EC31
:1001D00034F0FD0EDB50030A0CE0010A08E0030ACC
:1001E00004E0010A09E1E66A08D0400E03D0140ECB
:1001F00001D0540EE66E01D0E66A2DEC75F0E552A2
:10020000FD0EDB5000019C250601AD6F00016A5117
:100210000FE0B1EC34F0FDE10601A6EC32F044EC65
:1002200076F0E552E552B1EC34F0FDE1010E9016A6
:100230002EEF32F000016E5104E047EC46F0000171
:100240006E6B725107E0726BF45102E0000E01D048
:10025000010EF46F755104E08EEC12F00001756B25
:10026000685103E02CDB0001686B715104E0DFECA6
:1002700007F00001716B6F5103E043DB00016F6B0E
:100280001200D9CFE6FFE1CFD9FF0401766B776B7F
:10029000786B796BD950FB0FE96EFF0EDA20EA6EAE
:1002A00004017651EE5C04017751EE580401785157
:1002B000EE5804017951EE5809E3000004000401EE
:1002C000762B000E772378237923E4D7E552E7CF06
:1002D000D9FF1200D9CFE6FFE1CFD9FF030EE66EBA
:1002E000E3EC6FF0E55292C67AF493C67BF494C6C1
:1002F0007CF495C67DF430EC70F0D950FB0FE96EBC
:10030000FF0EDA20EA6E04017A51EE240401826FB6
:1003100004017B51EE200401836F04017C51EE2027
:100320000401846F04017D51EE200401856F030EEA
:10033000E66EE3EC6FF0E55292C67EF493C67FF46E
:1003400094C680F495C681F430EC70F004007E0E03
:10035000E96E040EEA6E04018251EE5C04018351E1
:10036000EE5804018451EE5804018551EE58DFE344
:10037000E552E7CFD9FF1200E1EC35F019E082EC4D
:1003800032F092C686F493C687F494C688F495C674
:1003900089F4BCEC32F004018651EE248E6F875153
:1003A000EE208F6F8851EE20906F8951EE20916F73
:1003B00082EC32F092C68AF493C68BF494C68CF425
:1003C00095C68DF430EC70F08A0EE96E040EEA6E7C
:1003D00004018E51EE5C8F51EE589051EE589151C0
:1003E000EE5802E2000E01D0010E2EEF32F0E1ECE9
:1003F00035F019E082EC32F092C692F493C693F491
:1004000094C694F495C695F4BCEC32F00401925174
:10041000EE249A6F9351EE209B6F9451EE209C6FC7
:100420009551EE209D6F82EC32F092C696F493C601
:1004300097F494C698F495C699F430EC70F0960E43
:10044000E96E040EEA6E04019A51EE5C9B51EE587F
:100450009C51EE589D51EE5802E2000E01D0010E63
:100460002EEF32F0E1EC35F019E082EC32F092C67A
:100470009EF493C69FF494C6A0F495C6A1F4BCEC78
:1004800032F004019E51EE24A66F9F51EE20A76F1B
:10049000A051EE20A86FA151EE20A96F82EC32F09E
:1004A00092C6A2F493C6A3F494C6A4F495C6A5F488
:1004B00030EC70F0A20EE96E040EEA6E0401A65153
:1004C000EE5CA751EE58A851EE58A951EE5802E241
:1004D000000E01D0010E2EEF32F0E1EC35F019E004
:1004E00082EC32F092C6AAF493C6ABF494C6ACF494
:1004F00095C6ADF4BCEC32F00401AA51EE24B26F03
:10050000AB51EE20B36FAC51EE20B46FAD51EE2085
:10051000B56F82EC32F092C6AEF493C6AFF494C6D7
:10052000B0F495C6B1F430EC70F0AE0EE96E040E86
:10053000EA6E0401B251EE5CB351EE58B451EE587C
:10054000B551EE5802E2000E01D0010E2EEF32F04E
:10055000E1EC35F019E082EC32F092C6B6F493C6C5
:10056000B7F494C6B8F495C6B9F4BCEC32F0040103
:10057000B651EE24BE6FB751EE20BF6FB851EE20DA
:10058000C06FB951EE20C16F82EC32F092C6BAF45E
:1005900093C6BBF494C6BCF495C6BDF430EC70F0C1
:1005A000BA0EE96E040EEA6E0401BE51EE5CBF5154
:1005B000EE58C051EE58C151EE5802E2000E01D083
:1005C000010E2EEF32F0E1EC35F019E082EC32F062
:1005D00092C6C2F493C6C3F494C6C4F495C6C5F4D7
:1005E000BCEC32F00401C251EE24CA6FC351EE20BC
:1005F000CB6FC451EE20CC6FC551EE20CD6F82EC95
:1006000032F092C6C6F493C6C7F494C6C8F495C631
:10061000C9F430EC70F0C60EE96E040EEA6E040107
:10062000CA51EE5CCB51EE58CC51EE58CD51EE583C
:1006300002E2000E01D0010E2EEF32F000000401A4
:10064000CE6B0601A7510401CE5D04E20000040157
:10065000CE2BF7D712000F0EE66E11EC77F0E552B5
:100660001200050EE66E11EC77F0E552120029EC4F
:1006700032F06CA2FED7FE0EDBCFE6FF28EC77F05F
:10068000E5522EEF32F0050E0EEF32F000016A5106
:1006900001E11200B1EC34F0FDE1120029EC32F07E
:1006A000F90EDBCF00F0FA0EDBCF01F001340AE2E5
:1006B00000500808000E015405E2FDEC32F041EC58
:1006C00034F0CCD0C6EC34F0EE50ED1009E000016F
:1006D0008F0E8E6FC20E8F6F750E906F3D0E06D00F
:1006E00000018E6B8F6B800E906F3E0E916F4EEC03
:1006F00032F0EECF08F0EECF09F0EECF0AF0EFCFF8
:100700000BF0A4EC38F008C02BF009C02CF00AC0A4
:100710002DF00BC02EF0BDEC69F04EEC36F0FB0E68
:10072000DBCF18F0FC0EDBCF19F0FD0EDBCF1AF09B
:10073000FE0EDBCF1BF0A4EC38F018C02BF019C074
:100740002CF01AC02DF01BC02EF0BDEC69F02BC0B0
:1007500014F02CC015F02DC016F02EC017F04EEC82
:1007600032F0EECF20F0EECF21F0EECF22F0EFCF3F
:1007700023F0A4EC38F020C02BF021C02CF022C0D4
:100780002DF023C02EF0BDEC69F02BC01CF02CC066
:100790001DF02DC01EF02EC01FF04AEC34F014C026
:1007A0002BF015C02CF016C02DF017C02EF0D3EC96
:1007B00068F02BC010F02CC011F02DC012F02EC02C
:1007C00013F08EC030F08FC031F090C032F091C085
:1007D00033F0BDEC69F02BC00CF02CC00DF02DC037
:1007E0000EF02EC00FF04AEC34F0E5EC36F007C006
:1007F0002EF0D4EC68F076EC35F020EC36F06AECB4
:1008000069F02BC092F02CC093F02DC094F02EC054
:1008100095F04EEC32F02BC0EEFF93C0EEFF94C08B
:10082000EEFF95C0EEFFC6EC34F0FF0EEE180EE1C1
:10083000FF0EED180BE10001926B936B946B956BBF
:100840004EEC32F0EE6AEE6AEE6AEE6A92C02AF080
:1008500093C02BF094C02CF095C02DF02EEF32F009
:1008600004004EC6E6FF4FC6E6FF50C6E6FF51C67F
:10087000E6FFB3DBE552E552E552E552F3CF00F077
:10088000F4CF01F000C0E6FF01C0E6FF7B0EE66E8C
:10089000A20EE66E000EE66E200EE66E030EE66E0B
:1008A00065EC72F0026E070EE15E0250200EE66EFD
:1008B000030EE66E07EC75F0E552E5521200D0DF4C
:1008C0004A0EE66EAC0EE66E000EF6EC34F0040155
:1008D000236B040123510BE10A0E25EC36F0D1DC29
:1008E0008FEC35F043EC39F057EC62F0F2D7020EA2
:1008F000235DB6DFA80EE66EAC0EE66E000EB5EF19
:1009000034F00400780EE66EA20EE66E000EE66E7F
:10091000000EE66E020EE66E65EC72F0006E050EDD
:10092000E15E0050000EE66E020EE66E07EC75F01A
:10093000E552E55295DF730EE66EA20EE66E000EEE
:10094000E66E4DEC74F0E552E552E55299C0E6FFD3
:100950009AC0E6FF9BC0E6FF000EE66E020EE66E52
:1009600005EC71F0006E050EE15E0050000EE66EC3
:10097000020EE66E07EC75F0E552E552710EE66E7A
:10098000A20EE66E000EE66E4DEC74F0E552E552F6
:10099000E55296C0E6FF97C0E6FF98C0E6FF000E5E
:1009A000E66E020EE66E05EC71F0006E050EE15E7D
:1009B0000050000EE66E020EE66E07EC75F0E55292
:1009C000E5525B0EE66EA20EE66E000EE66E000EBF
:1009D000E66E020EE66E05EC71F0006E050EE15E4D
:1009E0000050000EE66E020EE66E07EC75F0E55262
:1009F000E55200018351E66EE66A00016451E66E3D
:100A0000E66A5AC6E6FF5BC6E6FF5CC6E6FF5DC661
:100A1000E6FF56C6E6FF57C6E6FF58C6E6FF59C6CC
:100A2000E6FF44C6E6FF45C6E6FF01C6E6FF02C68E
:100A3000E6FF03C6E6FF04C6E6FF8350800B01E035
:100A4000010EE66EE66A8350400B01E0010EE66E91
:100A5000E66A8350200B01E0010EE66EE66A8350E1
:100A6000100B01E0010EE66EE66A8350080B01E010
:100A7000010EE66EE66A8350040B01E0010EE66E9D
:100A8000E66A8350020B01E0010EE66EE66A8350CF
:100A9000010BE66EE66A00016151E66EE66ACC0E75
:100AA000E66EA10EE66E000EE66E000EE66E020E1B
:100AB000E66E65EC72F0006E290EE15E0050000EED
:100AC000E66E020EE66E07EC75F0E552E5520601A1
:100AD000A651E66EE66A7850E66EE66A6AC6E6FFFA
:100AE0006BC6E6FF6CC6E6FF6DC6E6FF92C62AF04F
:100AF00093C62BF094C62CF095C62DF04EC62FF061
:100B00004FC630F050C631F051C632F075EC75F07A
:100B10002AC000F02BC001F02CC002F02DC003F061
:100B200000C0E6FF01C0E6FF02C0E6FF03C0E6FF2B
:100B300092C6E6FF93C6E6FF94C6E6FF95C6E6FFBB
:100B40008EC6E6FF8FC6E6FF90C6E6FF91C6E6FFBB
:100B500052C6E6FF53C6E6FF54C6E6FF55C6E6FF9B
:100B60004AC6E6FF4BC6E6FF4CC6E6FF4DC6E6FFAB
:100B700062C6E6FF63C6E6FF64C6E6FF65C6E6FF3B
:100B80008AC6E6FF8BC6E6FF8CC6E6FF8DC6E6FF8B
:100B900086C6E6FF87C6E6FF88C6E6FF89C6E6FF8B
:100BA0006EC6E6FF6FC6E6FF70C6E6FF71C6E6FFDB
:100BB0004EC6E6FF4FC6E6FF50C6E6FF51C6E6FF4B
:100BC0000D0EE66EA10EE66E000EE66E000EE66EEF
:100BD000020EE66E65EC72F0046E350EE15E0450B6
:100BE000000EE66E020EE66E07EC75F0E552E55279
:100BF00029C4E6FF2AC4E6FF2BC4E6FF2CC4E6FFA7
:100C000066C6E6FF67C6E6FF68C6E6FF69C6E6FF9A
:100C100072C6E6FF73C6E6FF74C6E6FF75C6E6FF5A
:100C200076C6E6FF77C6E6FF78C6E6FF79C6E6FF3A
:100C30007AC6E6FF7BC6E6FF7CC6E6FF7DC6E6FF1A
:100C40007EC6E6FF7FC6E6FF80C6E6FF81C6E6FFFA
:100C5000AE0EE66EA00EE66E000EE66E000EE66EBE
:100C6000020EE66E65EC72F0006E1D0EE15E005045
:100C7000000EE66E020EE66E07EC75F0E552E552E8
:100C80000401CF6B030E0401CF5D01E396D1040193
:100C9000CF513A0DF3CFE9FFF4CFEAFF000EE9267A
:100CA000050EEA22060EE926000EEA22EF5001E1C7
:100CB00081D10401CF513A0DF3CFE9FFF4CFEAFF20
:100CC000000EE926050EEA220D0EE926000EEA22A4
:100CD000170EE926000EEA22EECFE6FFEFCFE6FF81
:100CE0000401CF513A0DF3CFE9FFF4CFEAFF000E34
:100CF000E926050EEA220D0EE926000EEA22150E5F
:100D0000E926000EEA22EECFE6FFEFCFE6FF040170
:100D1000CF513A0DF3CFE9FFF4CFEAFF000EE926F9
:100D2000050EEA220D0EE926000EEA22290EE9261A
:100D3000000EEA22EECFE6FFEFCFE6FF0401CF512F
:100D40003A0DF3CFE9FFF4CFEAFF000EE926050ED6
:100D5000EA220D0EE926000EEA22270EE926000EF1
:100D6000EA22EECFE6FFEFCFE6FF0401CF513A0DC6
:100D7000F3CFE9FFF4CFEAFF000EE926050EEA22E1
:100D80000D0EE926000EEA22090EE926000EEA22DF
:100D9000EECFE6FFEFCFE6FF0401CF513A0DF3CFE0
:100DA000E9FFF4CFEAFF000EE926050EEA220D0E58
:100DB000E926000EEA22110EE926000EEA22EECF05
:100DC000E6FFEFCFE6FF0401CF513A0DF3CFE9FF85
:100DD000F4CFEAFF000EE926050EEA220D0EE92601
:100DE000000EEA22130EE926000EEA22EECFE6FFFD
:100DF000EFCFE6FF0401CF513A0DF3CFE9FFF4CF77
:100E0000EAFF000EE926050EEA220D0EE926000E85
:100E1000EA22050EE926000EEA22EECFE6FFEFCF2A
:100E2000E6FF0401CF513A0DF3CFE9FFF4CFEAFF1B
:100E3000000EE926050EEA220D0EE926000EEA2232
:100E4000030EE926000EEA22EECFE6FFEFCFE6FF23
:100E50000401CF513A0DF3CFE9FFF4CFEAFF000EC2
:100E6000E926050EEA220D0EE926000EEA22EE52D0
:100E7000EECFE6FFEFCFE6FF0401CF51E66EE66A64
:100E8000360EE66EA00EE66E000EE66E000EE66E04
:100E9000020EE66E65EC72F0006E1B0EE15E005015
:100EA000000EE66E020EE66E07EC75F0E552E552B6
:100EB0000401CF513A0DF3CFE9FFF4CFEAFF000E62
:100EC000E926050EEA220D0EE926000EEA221F0E83
:100ED000E926000EEA22EECF02F0EECF03F0EECFCD
:100EE00004F0EFCF05F0306A316A7A0E326E440EAC
:100EF000336E02C02BF003C02CF004C02DF005C0EF
:100F00002EF0BDEC69F0CDEC6AF02CC000F02DC0E5
:100F100001F000C0E6FF01C0E6FF0401CF513A0D29
:100F2000F3CFE9FFF4CFEAFF000EE926050EEA222F
:100F30000D0EE926000EEA22230EE926000EEA2213
:100F4000EECF08F0EECF09F0EECF0AF0EFCF0BF0C6
:100F5000306A316A7A0E326E440E336E08C02BF05E
:100F600009C02CF00AC02DF00BC02EF0BDEC69F0CA
:100F7000CDEC6AF02CC006F02DC007F006C0E6FFED
:100F800007C0E6FF150EE66EA00EE66E000EE66EDA
:100F9000000EE66E020EE66E65EC72F00C6E090E47
:100FA000E15E0C50000EE66E020EE66E07EC75F088
:100FB000E552E5520401CF2B65D604001200510E14
:100FC000E66EAD0EE66E000EF6EC34F09B0EE66EAD
:100FD000AD0EE66E000EB5EF34F029EC32F092EC77
:100FE00033F002E232EC33F0FB0EDBCFB6F6FC0E50
:100FF000DBCFB7F6FD0EDBCFB8F6FE0EDBCFB9F6D2
:10100000B6C6AEF6B7C6AFF6B8C6B0F6B9C6B1F654
:10101000AFEC36F053EC34F0B9C62DF075EC75F04A
:101020002AC0AEF62BC0AFF62CC0B0F62DC0B1F67C
:10103000AFEC36F057EC33F0B6C6B2F6B7C6B3F63F
:10104000B8C6B4F6B56F3C0E2F6E306A53EC34F070
:10105000B5C62DF075EC75F02AC0B2F62BC0B3F60C
:101060002CC0B4F62DC0B5F63C0E2F6E306A57EC8E
:1010700033F0B6C6E6FFB7C6E6FFB8C6E6FFE66ED3
:10108000B2C6E6FFB3C6E6FFB4C6E6FFB5C6E6FFE6
:10109000AEC6E6FFAFC6E6FFB0C6E6FFB1C6E6FFE6
:1010A000030EE66EA00EE66E000E5CEC34F0110E40
:1010B0002EEF36F029EC32F092EC33F002E232EC13
:1010C00033F0FB0EDBCFC2F6FC0EDBCFC3F6FD0E1A
:1010D000DBCFC4F6FE0EDBCFC5F6C2C6BAF6C3C67A
:1010E000BBF6C4C6BCF6C5C6BDF6AFEC36F065ECC3
:1010F00034F0C5C62DF075EC75F02AC0BAF62BC0D9
:10110000BBF62CC0BCF62DC0BDF6AFEC36F067ECDC
:1011100033F0C2C6BEF6C3C6BFF6C4C6C0F6C16FC2
:101120003C0E2F6E306A65EC34F0C1C62DF075ECC4
:1011300075F02AC0BEF62BC0BFF62CC0C0F62DC07D
:10114000C1F63C0E2F6E306A67EC33F0BEC6E6FF88
:10115000BFC6E6FFC0C6E6FFC1C6E6FFBAC6E6FFE9
:10116000BBC6E6FFBCC6E6FFBDC6E6FFF70EE66EF1
:101170009F0EE66E000E5CEC34F00D0E2EEF36F096
:1011800029EC32F0FE0EDBCF01F0800E011407E0F7
:10119000CDEC34F0006C011E000E012202D0CDEC2B
:1011A00034F000C0F3FF01C0F4FF2EEF32F029EC61
:1011B00032F04BEC33F002E69EEC33F00BE2FDEC48
:1011C00032F0000E006C011E0122021E0222031EDC
:1011D000032202D0FDEC32F041EC34F02EEF32F07D
:1011E000ECEC36F076EC35F01DEC37F0E4EC31F059
:1011F000B4EC36F0EF0EE66E9F0EE66E000E33EFA7
:1012000038F0ECEC36F0C7EC31F022EC37F0B4EC0F
:1012100036F0E70EE66E9F0EE66E000E33EF38F006
:10122000D3EC36F002E69EEC33F002E22D0E8D6F29
:1012300014EC32F0BAEC68F0C7EC31F0E8EC32F0C4
:10124000D8902D50000A08E6DC0E2A5C050E2B58BB
:10125000000E2C58000E2D5815E2E8EC32F05FEC31
:1012600032F08DC004F0056A04BE0568A2EC34F0CB
:10127000E10EE66E9F0EE66E000ED5EC32F0DDEC70
:1012800034F035D0306A316A1DEC37F0ADEC35F012
:10129000E4EC31F0DFC0E6FFE66E65EC38F05FECC1
:1012A00032F0E8EC32F02AC004F02BC005F02CC07C
:1012B00006F02DC007F02AC0E6FF2BC0E6FF2CC0C9
:1012C000E6FF2DC0E6FF8DC008F0096A08BE096878
:1012D00008C0E6FF09C0E6FFD40EE66E9F0EE66E7C
:1012E000000ED5EC32F00A6E0F0EE15E0A5091EF5F
:1012F00035F0D3EC36F002E69EEC33F002E22D0E30
:101300008D6F14EC32F0BAEC68F076EC35F0200E0C
:10131000326E410E336E6AEC69F02BC0C3F02CC004
:10132000C4F02DC0C5F02EC0C6F062EC35F0C3C0CD
:101330002BF0C4C02CF0C5C02DF0C6C02EF044EC7C
:1013400035F022EC37F01CDFE552E55269EC38F05D
:10135000E2EC34F0B4EC36F013DFE552E552F3CFB3
:1013600002F0F4CF03F0E2EC34F08DC004F0056A33
:1013700004BE0568A2EC34F0CA0EE66E9F0EE66E5F
:10138000000ED5EC32F0DDEC34F091EF35F029ECC5
:1013900032F082EC32F0E6EC33F001344FE20050F0
:1013A000FA08000E01544AE2E6EC33F0FF0E001892
:1013B0000AE1015008E10001775101E191D130ECDF
:1013C00070F0010E90D1E6EC33F0FE0E001809E14A
:1013D000015007E130EC70F0000172EC32F0040EC5
:1013E0002AD0E6EC33F0FD0E001809E1015007E1C8
:1013F0000001010E776F30EC70F0FD0E74D1E6EC59
:1014000033F0FC0E001808E1015006E10001776B93
:1014100030EC70F0FC0E67D1E6EC33F0FB0E0018F8
:101420000DE101500BE10001776B30EC70F0000131
:1014300072EC32F0050EB9EC36F055D1000177515F
:1014400001E14ED10001FF51000801E349D1FF073E
:1014500072EC32F0040ECEEC37F0EFCFC7F630EC82
:1014600004F0FB0EDBCFE6FFFC0EDBCFE6FFFD0E4C
:10147000DBCFE6FF4DEC74F0E552E552E55200019A
:1014800072EC32F0E3EC32F0FF51E66EE66AB80E31
:10149000E66E9F0EE66E000E13EC38F00601C66B8A
:1014A000C651C62BC75D07E12C0EE66EB00EE66E88
:1014B000000EF6EC34F049EC32F007E14C0EE66E2B
:1014C000B00EE66E000EF6EC34F049EC32F007E1B7
:1014D0007C0EE66EB00EE66E000EF6EC34F049ECD3
:1014E00032F007E19F0EE66EB00EE66E000EF6ECEF
:1014F00034F049EC32F007E1C20EE66EB00EE66E53
:10150000000EF6EC34F049EC32F007E1F30EE66E33
:10151000B00EE66E000EF6EC34F049EC32F007E166
:10152000270EE66EB10EE66E000EF6EC34F049ECD6
:1015300032F007E15C0EE66EB10EE66E000EF6ECE0
:1015400034F049EC32F007E1950EE66EB10EE66E2E
:10155000000EF6EC34F049EC32F007E1C30EE66E13
:10156000B10EE66E000EF6EC34F049EC32F007E115
:10157000EA0EE66EAF0EE66E000EF6EC34F049ECC5
:1015800032F007E10A0EE66EB00EE66E000EF6ECE3
:1015900034F049EC32F007E11A0EE66EAF0EE66E5B
:1015A000000EF6EC34F049EC32F007E1F30EE66E93
:1015B000B10EE66E000EF6EC34F049EC32F007E1C5
:1015C000340EE66EB20EE66E000EF6EC34F049EC28
:1015D00032F007E15A0EE66EB20EE66E000EF6EC41
:1015E00034F049EC32F007E1800EE66EB20EE66EA2
:1015F000000EF6EC34F049EC32F007E1AC0EE66E8A
:10160000B20EE66E000EF6EC34F049EC32F007E173
:10161000C40EE66EB20EE66E000EF6EC34F049EC47
:1016200032F007E1DB0EE66EB20EE66E000EF6EC6F
:1016300034F049EC32F007E17F0EE66EB60EE66E4E
:10164000000EF6EC34F049EC32F007E1BD0EE66E28
:10165000B60EE66E000EF6EC34F049EC32F007E11F
:10166000DC0EE66EB60EE66E000EF6EC34F049ECDB
:1016700032F007E1080EE66EB30EE66E000EF6ECF1
:1016800034F00601C651D880C75518E2C751006E24
:10169000016AD890015004E6FA0E005C000E015871
:1016A0000DE2C751E66EE66A9E0EE66E9F0EE66E8E
:1016B000000E32EC35F0070EBEEC31F00001FF51A8
:1016C00002E10001776B000172EC32F0050E34ECA0
:1016D00034F072EC32F0EE6AEE6AEE6AEE6AB2D67E
:1016E00030EC70F0000E2EEF32F00001010E666F4C
:1016F00083A470D043EC39F005C600F006C601F0B3
:1017000007C602F008C603F0640E2F6E306A316A15
:10171000326A05C62AF006C62BF007C62CF008C6AA
:101720002DF075EC75F05FEC32F06EEC34F055DCBA
:101730008FEC35F0F3CF04F0F4CF05F0E2EC34F0A9
:10174000840EE66E9F0EE66E000E90EC31F0DDEC3E
:1017500034F0010EE66EE66A77EC34F0E66E77EC74
:1017600034F0020E5DEC35F092C62AF093C62BF0F1
:1017700094C62CF095C62DF04EC62FF04FC630F013
:1017800050C631F051C632F075EC75F05FEC32F0B6
:1017900092C6E6FF93C6E6FF94C6E6FF95C6E6FF4F
:1017A0006EEC34F0640EE66E9F0EE66E000E90EC6A
:1017B00031F0046E110EE15E0450010EE66E030E70
:1017C0005DEC35F0880EE66E130E3AEC38F057EC0F
:1017D00062F08ED70001666B120029EC32F01B0E0E
:1017E000A7EC34F05B0EA7EC34F0320EA7EC34F02B
:1017F0004A0EA7EC34F03D0EE66EAC0EE66E000E1F
:10180000F6EC34F0F00EE66EAB0EE66E000EF6EC83
:1018100034F02EEF32F029EC32F000017A5124E15D
:101820007B5108E040EC37F0CB0E036EA50E046E42
:10183000000E07D040EC37F0910E036EA60E046E3A
:10184000000EBFEC34F0160EFAEC33F028C006F0B0
:1018500029C007F02AC008F045EC36F0C6EC32F09B
:10186000FE0EDBCF7CF027D0FE0EDB500601C85DFC
:101870001DE00001816B8CEC6DF08B920401D06B4C
:10188000D0510A080FE3CBEC33F0D025CAEC35F089
:10189000010EE66EE66A13EC33F0B7EC32F00401A9
:1018A000D02BEED7FE0EDBCFC8F605D0CBEC33F055
:1018B0000A0FCAEC35F0010EE66EE66A13EC33F05F
:1018C000E66A010EE66E13EC33F0E66A020EE66E8F
:1018D00013EC33F0E66A030EE66E13EC33F02EEFF2
:1018E00032F00401D16B030ED15D07E2D15196ECC9
:1018F00034F0FE0EEF6ED12BF6D70001D85127EC55
:1019000037F002E1765124E076510EE00401D25125
:10191000D22B32080DE20601C92BC951050801E29C
:10192000C96B0401D26B04D0030ED8250601C96F20
:10193000E66AC9C6E6FF34EC00F0E552E552E66E11
:101940000001D85196EC34F0E552E750EF6E1200EA
:10195000D85196EC34F0EF68120029EC32F0030E07
:10196000E126010EDB6A00017B5104E1825102E1B4
:10197000855102E0030E79D2D8C0DFFF84EC38F045
:10198000BCEC36F0EE6AED6A010EE66E0AEC33F05E
:1019900084EC38F080EC34F0EE50ED1006E014ECFE
:1019A00034F00BE1010EE66E05D014EC34F005E0E6
:1019B000E66A010EE66EE7EC34F0D950020FE66EEF
:1019C000000EDA20E66E5DDAE552E552020EDB50DB
:1019D0000001F35D0AE18B96010E7B6F020EDBCFF7
:1019E000E6FF19DFE552020E40D243EC39F021EC5C
:1019F00011F0F5EC35F00DE200500408000E015432
:101A000008E206019A0ECA6F990ECB6FCC6F3E0E9C
:101A100011D0DF5027EC37F007E00601CA6BCB6B23
:101A2000C00ECC6F3F0E06D00601A2EC33F003E0EF
:101A300018EC34F0CD6F0001865169E041EC35F0CF
:101A4000D4EC34F001AE02D002680368F2EC36F058
:101A500004E6D8802C0EB7EC34F014E28DBE25D00D
:101A600057EC36F087EC33F08D8E0001806FF45127
:101A700007E04A0EE66E9F0EE66E000EF6EC34F0BE
:101A80008D8013D08DAE11D057EC36F034EC34F09D
:101A90008D9E0001806BF45107E0310EE66E9F0EC3
:101AA000E66E000EF6EC34F08D8041EC35F0D4ECAF
:101AB00034F001AE02D002680368F2EC36F004E6BE
:101AC000D880900EB7EC34F012E28DB620D08DAEF7
:101AD0001ED00001010E876FF45107E00D0EE66E77
:101AE0009F0EE66E000EF6EC34F08D8610D08DA6BB
:101AF0000ED08DAE0CD00001876BF45107E0EA0EDA
:101B0000E66E9E0EE66E000EF6EC34F08D9641EC1D
:101B100038F02D500118E8AE02D0013404D0005046
:101B2000025C0150035801E3A1D041EC35F0EECF47
:101B300008F0EFCF09F00C6A0D6A200E0E6E410E10
:101B40000F6E5EEC36F00CC02BF00DC02CF00EC00A
:101B50002DF02E6E6AEC69F0CDEC6AF02CC00AF024
:101B60002DC00BF009502D18E8AE02D00B3404D074
:101B70000A50085C0B50095801E378D0010EDB5085
:101B800045E00001865142E00601CE51CF1117E039
:101B9000F7EC36F00001F45112E0C2EC35F001E050
:101BA000010E47EC37F0BFEC36F09D0EE66E9E0E50
:101BB000E66E000E32EC35F00D0EBEEC31F0DF506B
:101BC000D0EC31F004013F0551E1DF50C4EC36F0B8
:101BD0000601CE51CF114AE0A2EC33F003E018EC3D
:101BE00034F0CD6F0001F4513DE0C2EC35F001E07E
:101BF000010E47EC37F0BFEC36F0560EE66E9E0E47
:101C0000E66E000E32EC35F00D0E23D0DF50C4EC42
:101C100036F0DF50D0EC31F00601CE51CF1126E086
:101C2000A2EC33F003E018EC34F0CD6F0001F45176
:101C300019E0C2EC35F001E0010E47EC37F0E1ECC1
:101C400033F0FE0EE66E9D0EE66E000E32EC35F0C1
:101C50000F0EBEEC31F03B0EE66E9E0EE66E000EF1
:101C6000F6EC34F00601CE6BCF6B8B9641EC35F081
:101C7000A6EC33F0410E3AEC32F02D500118E8AEEC
:101C800002D0013404D00050025C0150035846E2F7
:101C9000D7EC35F0B9EC36F014E184EC38F0BCEC5C
:101CA00036F0EE2AEF22F5EC35F00BE20050010899
:101CB000000E015406E20601662B000E672368231E
:101CC000692384EC38F0020E87EC33F003EC38F033
:101CD00002E10150D11922E047EC38F003AE02D006
:101CE0000468056867EC36F004E6D880E10E19EC6C
:101CF00033F014E20001F4510FE0C2EC35F001E0E2
:101D0000010E47EC37F0D2EC37F0B10EE66E9D0EC7
:101D1000E66E000EF6EC34F04DEC38F041EC38F0A5
:101D200001502D18E8AE02D0033404D00250005CFC
:101D3000035001582CE2D7EC35F034EC34F003ECCE
:101D400038F002E10150D11922E047EC38F003AE3F
:101D500002D00468056867EC36F004E6D880E10E2E
:101D600019EC33F014E20001F4510FE0C2EC35F04D
:101D700001E0010E47EC37F0D2EC37F09A0EE66E38
:101D80009D0EE66E000EF6EC34F04DEC38F0F5ECFE
:101D900035F00AE200500108000E015405E284EC1F
:101DA00038F0050E87EC33F0F5EC35F00AE2005020
:101DB0000208000E015405E284EC38F0090E87ECAD
:101DC00033F0DF5027EC37F010E006010051010B33
:101DD0000CE10051020B09E10051040B06E1E66A37
:101DE0000AEC33F0000901E1E8D50001865103E077
:101DF000876B8D9E806BE66A0AEC33F0000913E076
:101E00000001F45107E04B0EE66E9D0EE66E000EEB
:101E1000F6EC34F00001865102E084EC34F09CECE6
:101E200034F0040E22D006010051010B06E10051EE
:101E3000020B03E10051040B1AE00001F45107E02A
:101E4000F50EE66E9C0EE66E000EF6EC34F0000128
:101E5000865102E084EC34F0060100A105D0009127
:101E60000001010E7B6F8B96020EF36E01D0F36AB8
:101E7000F46A030EE15C02E2E16AE552E16E2EEFE4
:101E800032F029EC32F083380F0B0001F315040116
:101E9000D36F0001F3510401D35D43E10001F3511D
:101EA0000601D25D03E0040E0EEC32F08DEC34F04E
:101EB0002FE10001F3510601D25D13E07BEC32F01B
:101EC000070EEF6EFEEC36F00401D451E66EE66AC2
:101ED000D90EE66E9C0EE66E000E87EC38F0DAEC5A
:101EE00036F00001845110E0B90EE66E9C0EE66EED
:101EF000000E32EC35F0050EBEEC31F0F3C0D2F638
:101F00007BEC32F0070EEF6E0001846BF35150D082
:101F1000D4511FEC34F0650EE66E9C0EE66E000E9A
:101F200040D0D3510601D25D3EE0030EE66E6EEC6A
:101F300062F0E552040E0EEC32F08DEC34F029E143
:101F40007BEC32F0D3C4EFFFFEEC36F07BEC32F0EA
:101F5000EF501FEC34F0260EE66E9C0EE66E000E7F
:101F600013EC38F07BEC32F0EFCFD2F6DAEC36F04F
:101F7000000184510AE1040EE66E9C0EE66E000E2E
:101F800032EC35F0050EBEEC31F00001010E846F2D
:101F90000ED0D4511FEC34F0B10EE66E9B0EE66EFF
:101FA000000E13EC38F07BEC32F0D2C6EFFF000EDF
:101FB0002EEF32F0BCEC35F00AE10401D56BECEC0D
:101FC00034F001E3D86B53EC38F0F9E08ADC060119
:101FD00000A31ED08B840401D56BECEC34F001E33C
:101FE000D86B53EC38F0F9E07CDC26EC34F09F0E33
:101FF000E66E9B0EE66E000E87EC38F0840EE66E01
:102000009B0EE66E000EF6EC34F08B940601009306
:102010000051010B08E1E66A05EC34F000091BE011
:1020200000017A5118E000017A5106E17B5102E08B
:10203000000E01D0010E7B6F4EEC37F05A0EE66EAB
:102040009B0EE66E000EF6EC34F000017A6B060192
:1020500000918B906FD004010F056AE0E66A35ECC1
:1020600032F0000967E0010EE66E05EC34F0000185
:10207000010E7A6F8B8004010F512BE107EC36F0D3
:1020800004E6D880230E19EC33F023E20001010EA0
:102090007A6F8B90845111E10601D32B2AEC36F034
:1020A000080E0601D35D01E3D36B8AEC38F0420ED3
:1020B000E66E9B0EE66E000E37D059EC38F001E369
:1020C0009E6BB4EC37F01B0EE66E9B0EE66E000EB8
:1020D0002BD007EC36F004E6D880230E19EC33F051
:1020E00025E20001010E7A6F8B90845112E1060106
:1020F000D3072AEC36F0080E0601D35D02E3070E83
:10210000D36F8AEC38F0040EE66E9B0EE66E000E7E
:102110000BD059EC38F001E39E6BB4EC37F0ED0EC8
:10212000E66E9A0EE66E000EF6EC34F08B8002D06E
:102130002AEC36F000017A5102E08B8001D08B90BE
:1021400085516AE17B5102E1825164E014EC34F084
:1021500005E0E66A010EE66EE7EC34F004011F05C7
:1021600043E0E66ADEEC32F0000956E08B840401BD
:102170001F511AE11B35000E1B1909E6D880010E0C
:102180001855000E1955000E1A55000E1B550CE27D
:10219000EDEC35F087EC33F09AEC37F0B10EE66EEB
:1021A0009D0EE66E000E1DD01F5136E118C4E6FFED
:1021B00019C4E6FF1AC4E6FF1BC4E6FF66EC32F062
:1021C00004E6D880010E19EC33F026E2EDEC35F090
:1021D00034EC34F09AEC37F09A0EE66E9D0EE66E13
:1021E000000EF6EC34F018D0000182510CE1D85109
:1021F000C4EC36F0F1EC37F0020E87EC33F0D85136
:10220000D0EC31F003D0D851C4EC36F02CEC37F0E0
:102210008B9402D0ADEC0CF000017B5107E0E66A34
:1022200030EC37F00BE1010EE66E05D0E66A30ECDB
:1022300037F004E0E66AE66AE7EC34F00601D351D1
:10224000120071EC0CF000017C51070A18E0010A41
:1022500014E0050A10E0010A0CE0060A08E0050A8D
:1022600004E0010A0EE182EF13F031EF13F00BEFFF
:1022700014F0F1EF12F0D4EF13F0B5EF14F0C1EF5A
:1022800012F06DEF14F029EC32F0070EE126050E86
:10229000DB6A060EDB6A8CEC6DF000017B5104E119
:1022A00005012A512B1102E0030E09D00001806BB9
:1022B0000401355136113711381104E1020EF36E65
:1022C000F46A82D0DF6AFE0EDB50D880DF5474E3FC
:1022D000DCEC37F032EC32F00A0E306ED70E316E95
:1022E000230E326E3C0E88EC32F0B6EC35F064E131
:1022F000010EDB6AACEC33F0D950010F7FEC33F008
:1023000002E647EC33F00DE293EC32F02A0E326E27
:102310003F0E74EC37F005E1D950010FF3EC32F0C9
:10232000EBD7010EDB6AACEC33F0D950010F7FEC38
:1023300033F002E647EC33F00DE293EC32F0AA0EF4
:10234000326E3E0E74EC37F005E1D950010FF3EC1C
:1023500032F0EBD732EC32F0660E306E316E326E08
:102360003F0EE6EC37F028E132EC32F0CD0E306E65
:10237000CC0E316E326E3D0EE6EC37F01DE132ECE4
:1023800032F0306A316A326A3F0EE6EC37F014E11F
:1023900006010051010B06E10051020B03E100515F
:1023A000040B08E0010EF36E050EF3CFDBFF060E03
:1023B000DB6A02D0DF2A87D738EC36F0050EDBCF98
:1023C00000F0060E1CEC33F0070EE15C02E2E16A5D
:1023D000E552E16E2EEF32F029EC32F0080EE126E4
:1023E000060EDB6A070EDB6A8CEC6DF000017B5198
:1023F00004E105012A512B1104E0030EF36EF46A87
:1024000085D00001806BDF6AFE0EDB50DF5C76E278
:10241000010EDB6A030EF36E010EDBCFF4FFF35007
:10242000F45C6AE2010EDBCFD8F0BCEC35F061E081
:10243000DCEC37F07AEC35F0640EEE6EED6AB6EC5B
:1024400035F05AE1ACEC33F0050EDB6AD950020FDF
:102450007FEC33F002E647EC33F00BE29A0E006EAD
:10246000020E5BEC37F005E1D950020FF3EC32F0CD
:10247000EDD7ACEC33F0050EDB6AD950020F7FECE0
:1024800033F002E647EC33F00BE24D0E006E010E26
:102490005BEC37F005E1D950020FF3EC32F0EDD7E9
:1024A0007AEC35F0840EEE6E030EED6EFFEC37F035
:1024B0007AEC35F0640EEE6EED6AFFEC37F07AECF4
:1024C00035F0F40EEE6E010EED6EFFEC37F0060106
:1024D0000051010B06E10051020B03E10051040B16
:1024E00008E0010EF36E060EF3CFDBFF070EDB6A8A
:1024F00003D0010EDB2A8ED7DF2A86D738EC36F0E0
:10250000060EDBCF00F0070E1CEC33F0080EE15C8A
:1025100002E2E16AE552E16E2EEF32F071EC0CF06E
:1025200000017C51070A18E0010A11E0050A0DE0DC
:10253000010A0BE0060A05E0050A07E0010A0EE1C0
:1025400004D0030EE66E9FDE05D0020E01D0040E0D
:10255000E66E42DFE5521200C1EF12F06DEF14F0AB
:1025600029DD0601D46FD40EE66E060EE66E89DC18
:10257000E552E552D4C6E6FF0BEC0CF0E55221EF34
:1025800011F000019E5120E1C9EC36F09F0EE66E7D
:102590009A0EE66E000E32EC35F0070EFFEC31F0CD
:1025A000EBEC33F0890EE66E9A0EE66E000E17EC39
:1025B00038F0F1EC34F0730EE66E9A0EE66E000E13
:1025C00032EC35F0070E0BD0EDEC37F044EC37F081
:1025D000EDEC37F0E2EC36F0EDEC37F0050EC0EF45
:1025E00035F000019E511BE1D2EC32F0D7EC33F014
:1025F000340EE66E9A0EE66E000E32EC35F0130ED7
:10260000FFEC31F0130EE66E9A0EE66E000E9BECB8
:1026100038F0F60EE66E990EE66E000E20D07EECD7
:1026200035F00DE026EC35F037EC34F0CF0EE66EE9
:10263000990EE66E000E90EC31F02DEC33F0010EA9
:10264000E66E1BEC38F0B50EE66E990EE66E000EE7
:102650009BEC38F0B50EE66E990EE66E000E6EEF4E
:1026600038F000019E513BE1D2EC32F0D7EC33F070
:102670008C0EE66E990EE66E000E32EC35F0130EFF
:10268000FFEC31F08FEC33F070C5E6FF71C5E6FF6B
:102690006EC5E6FF6FC5E6FFEBEC33F0630EE66E4A
:1026A000990EE66E000E32EC35F0130EDEEC31F0D2
:1026B0008CEC33F0AAC5E6FFABC5E6FFA8C5E6FF84
:1026C000A9C5E6FFF1EC34F03A0EE66E990EE66E1F
:1026D000000E32EC35F0130E6CEC32F011D07EECC3
:1026E00035F002E071EC38F091EC37F002E00BECE1
:1026F00035F096EC37F002E074EC38F0C5EC35F0CC
:1027000070EF37F000019E513CE1D2EC32F036C55B
:1027100000F037C501F095EC31F034C502F035C555
:1027200003F0AFEC31F0C9EC36F09C0EE66E980E7B
:10273000E66E000E35EC37F05DEC35F0EBEC33F087
:10274000840EE66E980EE66E000E17EC38F08CECF8
:1027500033F0AAC500F0ABC501F095EC31F0A8C587
:1027600002F0A9C503F0AFEC31F0F1EC34F05B0EF0
:10277000E66E980EE66E000E35EC37F021EC38F080
:1027800011D07EEC35F002E071EC38F091EC37F0CE
:1027900002E00BEC35F096EC37F002E074EC38F028
:1027A000C5EC35F070EF37F000019E5121E177EC78
:1027B00038F044EC37F08FEC33F070C500F071C5A1
:1027C00001F095EC31F06EC502F06FC503F0AFEC8F
:1027D00031F0EBEC33F01D0EE66E980EE66E000E57
:1027E00035EC37F0020E5DEC35F00AEC34F011D028
:1027F000EDEC37F044EC37F07BEC38F028EC33F0BC
:1028000002E00BEC35F041EC36F01BEC38F005EC57
:1028100032F06EEF38F000019E5148E112C5E6FF3C
:1028200013C5E6FF10C4E6FF11C4E6FF12C4E6FFBD
:1028300013C4E6FF29C4E6FF2AC4E6FF2BC4E6FF63
:102840002CC4E6FFC9EC36F0FB0EE66E970EE66E82
:10285000000E32EC35F0110EFFEC31F005010151A4
:102860001BE00251E66EE66AD40EE66E970EE66E47
:10287000000E17EC38F031C4E6FF32C4E6FF33C473
:10288000E6FF34C4E6FFB30EE66E970EE66E000E6A
:1028900032EC35F0090E07D077EC38F0E2EC36F088
:1028A00077EC38F0050E6CEC32F015D07EEC35F09C
:1028B00004E026EC35F097EC35F091EC37F002E0CF
:1028C0006AEC35F096EC37F004E035EC35F0A2EC2C
:1028D00035F0C5EC35F070EF37F000019E511BE18B
:1028E000280EE66E970EE66E000E32EC35F044ECE4
:1028F00037F0120EE66E970EE66E000E9BEC38F087
:10290000FC0EE66E960EE66E000E32EC35F0050E0D
:102910006CEC32F011D07EEC35F002E071EC38F066
:1029200091EC37F002E00BEC35F096EC37F002E07A
:1029300074EC38F0C5EC35F070EF37F0E50EE66E6C
:10294000960EE66E000E32EC35F044EC37F0CE0E0B
:10295000E66E960EE66E000E9BEC38F0B70EE66E55
:10296000960EE66E000E6EEF38F000019E5154E1B7
:102970009EEC38F0050183AF02D0D89003D0825D81
:10298000000E83590BE205EC37F0980EE66E960EBA
:10299000E66E000E90EC31F0D8EC34F0010EE66EED
:1029A0005DEC35F08DB20AD005EC37F0EBEC33F08E
:1029B000790EE66E960EE66E000E09D00BEC37F03F
:1029C000EBEC33F05A0EE66E960EE66E000E90ECCF
:1029D00031F0026E090EE15E025041EC36F05DEC22
:1029E00035F09EEC38F005010FAF02D0D89003D03F
:1029F0000E5D000E0F590BE20BEC37F03C0EE66E4D
:102A0000960EE66E000E90EC31F0D8EC34F0010E2C
:102A1000E66E21EC38F015D07EEC35F004E026ECC3
:102A200035F097EC35F091EC37F002E06AEC35F0D8
:102A300096EC37F004E035EC35F0A2EC35F0C5EC5F
:102A400035F070EF37F029EC32F0020EE126DE6A45
:102A5000DD6ADECF00F0DDCF01F0D890015004E652
:102A6000030E005C000E01581FE2FE0EDB50E66E06
:102A7000DECFE9FFDDCFEAFF3A0EEA02F3CFEAFF4D
:102A8000E902F3CFE9FFF450EA26000EE926050E2D
:102A9000EA2280EC34F0E552E750EE6EED6ADF2A70
:102AA000010ED7E3DB2AD5D7020EE15C02E2E16A30
:102AB000E552E16E2EEF32F0D8C0D6F40001D86BAB
:102AC000F1EC37F0B3EC33F002E0ADEC0CF0ECECF1
:102AD00034F0F6E38CEC6DF0D6C4D8F0010E0EEFB6
:102AE00032F0D9CFE6FFE1CFD9FF110EE126E80E93
:102AF000F36E040EF3CFDBFF030EF36E050EF3CF80
:102B0000DBFF060EDB6A070EDB6A080EDB6A090EC6
:102B1000DB6A0A0EDB6A0B0EDB6A580EF36E0C0ED4
:102B2000F3CFDBFF0F0EDB6A100EDB6A0001816B57
:102B300043EC39F043EC39F00601009500019E6B3F
:102B40007CC0E6FF47EC6EF0E5520001855107E0DE
:102B50008B9200017B6B0001806BDDEF2CF0180E77
:102B6000E66E960EE66E000EE66E4DEC74F0E552E3
:102B7000E552E552020E00017C5D0EE1D00EF36ECF
:102B8000040EF3CFDBFF070EF36E050EF3CFDBFF72
:102B9000060EDB6A070EDB6A0001010E7B6F050182
:102BA000080503E10001010E806F8CEC6DF0010E51
:102BB000E66EE66AE66AE66A6AEC01F0E552E5521C
:102BC000E552E55200017C510DE1D950040FE96E48
:102BD000DACFEAFFD890EF36010EEB36020EEB3675
:102BE000030EEB36E66A2FDFE5528FEC6DF0010E37
:102BF000E66ED950040FE96EDACFEAFFEECFE6FFBA
:102C0000EECFE6FFEECFE6FFEFCFE6FF6DEC02F092
:102C1000006E050EE15E0050DE6ADE6ADE6ADD6A85
:102C2000DD52DD520001865102E092EF21F0060EE6
:102C300000017C5D02E004EF1BF00D0EDB6A0E0E5E
:102C4000DB6A0D0EDBCF00F00E0EDBCF01F001349E
:102C500004E200500108000E015401E285D3640E25
:102C6000F36E040EF3CFDBFF050EDB6A060EDB6AA4
:102C7000070EDB6A010EE66ED950040FE96EDACF5B
:102C8000EAFFEECFE6FFEECFE6FFEECFE6FFEFCFB7
:102C9000E6FF6DEC02F0006E050EE15E00508FEC79
:102CA0006DF0DE6ADE6ADE6ADD6ADD52DD5280C00A
:102CB000E6FF92EC6DF0E552D9CFE9FFDACFEAFFFB
:102CC000EECF00F0EECF01F0EECF02F0EFCF03F049
:102CD000D00E2F6E070E306E316A326A00C02AF0B5
:102CE00001C02BF002C02CF003C02DF075EC75F084
:102CF00026C000F027C001F028C002F029C003F070
:102D0000005001100210031001E02BD1060100A5B4
:102D100030D08CEC6DF0010EE66E95DEE55264EC81
:102D200062F0060EE66EE66AE66AE66A6AEC01F0B2
:102D3000E552E552E552E5528B920001010E7B6FA0
:102D40000001806B80C0E6FF92EC6DF0E5527CC024
:102D5000E6FF47EC6EF0E552EA0EE66E950EE66E83
:102D6000000EE66E4DEC74F0E552E552E552DDEFF3
:102D70002CF0E7EC2CF00D0EDBCFE6FF0E0EDBCFD8
:102D8000E6FFCE0EE66E950EE66E000EE66E000EC7
:102D9000E66E020EE66E65EC72F0006E070EE15E06
:102DA0000050010EE66EE66A9CC0E6FFB7EC00F04C
:102DB000E552E552E55282C500F083C501F00A0EE6
:102DC000316E326A00C02CF001C02DF02AEC6AF09E
:102DD0002CC000F02DC001F000C0E6FF01C0E6FFEE
:102DE000A30EE66E950EE66E000EE66E000EE66E23
:102DF000020EE66E65EC72F0026E070EE15E0250A6
:102E0000640E050183AF02D0D89003D0825D000E1E
:102E1000835925E282C500F083C501F00A0E316EA8
:102E2000326A00C02CF001C02DF02AEC6AF02CC0F0
:102E300000F02DC001F000C0E6FF01C0E6FF840EE7
:102E4000E66E950EE66E000EE66E000EE66E020E63
:102E5000E66E65EC72F0026E070EE15E0250010E46
:102E6000E66E010EE66EE66AB7EC00F0E552E5525A
:102E7000E5525C0EE66E950EE66E000EE66E000EF6
:102E8000E66E020EE66E65EC72F0006E050EE15E17
:102E90000050010EE66E020EE66EE66AB7EC00F038
:102EA000E552E552E5520EC500F00FC501F00A0EDD
:102EB000316E326A00C02CF001C02DF02AEC6AF0AD
:102EC0002CC000F02DC001F000C0E6FF01C0E6FFFD
:102ED0002F0EE66E950EE66E000EE66E000EE66EA6
:102EE000020EE66E65EC72F0026E070EE15E0250B5
:102EF000640E05010FAF02D0D89003D00E5D000E16
:102F00000F5925E20EC500F00FC501F00A0E316E13
:102F1000326A00C02CF001C02DF02AEC6AF02CC0FF
:102F200000F02DC001F000C0E6FF01C0E6FF3C0E3E
:102F3000E66E960EE66E000EE66E000EE66E020E71
:102F4000E66E65EC72F0026E070EE15E0250010E55
:102F5000E66E030EE66EE66AB7EC00F0E552E55267
:102F6000E552D9CFE9FFDACFEAFFEE2A000EEE22D2
:102F7000EE22EE22E66AD950040FE96EDACFEAFFBC
:102F8000EECFE6FFEECFE6FFEECFE6FFEFCFE6FFB8
:102F90006DEC02F0006E050EE15E0050000901E1EB
:102FA00086D6640E050183AF02D0D89003D0825D2F
:102FB000000E83590CE205010F3504E20E51900812
:102FC000010E0F5504E2010E0501626F636B640E82
:102FD00005010FAF02D0D89003D00E5D000E0F593F
:102FE00003E20501606B616B010EE66ED950040FC0
:102FF000E96EDACFEAFFEECFE6FFEECFE6FFEECFE7
:10300000E6FFEFCFE6FF6DEC02F0006E050EE15E2D
:1030100000508CEC6DF0DE6ADE6ADE6ADD6ADD523D
:10302000DD5280C0E6FF92EC6DF0E552D9CFE9FFAA
:10303000DACFEAFFEECF00F0EECF01F0EECF02F0F4
:10304000EFCF03F0D00E2F6E070E306E316A326A6A
:1030500000C02AF001C02BF002C02CF003C02DF0FC
:1030600075EC75F026C000F027C001F028C002F012
:1030700029C003F0005001100210031001E02BD111
:10308000060100A530D08CEC6DF0010EE66EDBDCA5
:10309000E55264EC62F0060EE66EE66AE66AE66AFF
:1030A0006AEC01F0E552E552E552E5528B920001DF
:1030B000010E7B6F0001806B80C0E6FF92EC6DF02B
:1030C000E5527CC0E6FF47EC6EF0E552EA0EE66E94
:1030D000950EE66E000EE66E4DEC74F0E552E5528C
:1030E000E552DDEF2CF0E7EC2CF00D0EDBCFE6FF28
:1030F0000E0EDBCFE6FF140EE66E950EE66E000EAA
:10310000E66E000EE66E020EE66E65EC72F0006E84
:10311000070EE15E0050010EE66EE66A9CC0E6FF17
:10312000B7EC00F0E552E552E55282C500F083C5E8
:1031300001F00A0E316E326A00C02CF001C02DF091
:103140002AEC6AF02CC000F02DC001F000C0E6FFB0
:1031500001C0E6FFA30EE66E950EE66E000EE66E6B
:10316000000EE66E020EE66E65EC72F0026E070E61
:10317000E15E0250640E050183AF02D0D89003D007
:10318000825D000E835925E282C500F083C501F0FF
:103190000A0E316E326A00C02CF001C02DF02AEC0C
:1031A0006AF02CC000F02DC001F000C0E6FF01C0A5
:1031B000E6FF840EE66E950EE66E000EE66E000EDD
:1031C000E66E020EE66E65EC72F0026E070EE15ED0
:1031D0000250010EE66E010EE66EE66AB7EC00F0F4
:1031E000E552E552E552E90EE66E940EE66E000EEB
:1031F000E66E000EE66E020EE66E65EC72F0006E94
:10320000050EE15E0050010EE66E020EE66EE66A05
:10321000B7EC00F0E552E552E5520EC500F00FC5DF
:1032200001F00A0E316E326A00C02CF001C02DF0A0
:103230002AEC6AF02CC000F02DC001F000C0E6FFBF
:1032400001C0E6FF2F0EE66E950EE66E000EE66EEE
:10325000000EE66E020EE66E65EC72F0026E070E70
:10326000E15E0250640E05010FAF02D0D89003D08A
:103270000E5D000E0F5925E20EC500F00FC501F0DE
:103280000A0E316E326A00C02CF001C02DF02AEC1B
:103290006AF02CC000F02DC001F000C0E6FF01C0B4
:1032A000E6FF3C0EE66E960EE66E000EE66E000E33
:1032B000E66E020EE66E65EC72F0026E070EE15EDF
:1032C0000250010EE66E030EE66EE66AB7EC00F001
:1032D000E552E552E552D9CFE9FFDACFEAFFEE2A0F
:1032E000000EEE22EE22EE22E66AD950040FE96EBD
:1032F000DACFEAFFEECFE6FFEECFE6FFEECFE6FF56
:10330000EFCFE6FF6DEC02F0006E050EE15E0050BF
:10331000000901E186D6640E05010FAF02D0D890F6
:1033200003D00E5D000E0F590CE20501833504E257
:1033300082519008010E835504E2010E0501606F71
:10334000616B640E050183AF02D0D89003D0825D1B
:10335000000E835903E20501626B636B0D0EDB2ADD
:103360000E0E01E3DB2A6DD48B9200017B6B000112
:10337000806B05016051611105E005016251631127
:1033800001E035D10501405101E131D1060100953F
:10339000590EF36E0C0EF3CFDBFF0C0EDBCF00F0FB
:1033A000016A00BE016800C0E6FF01C0E6FFC90E69
:1033B000E66E940EE66E000EE66E000EE66E020EEF
:1033C000E66E65EC72F0026E070EE15E0250010ED1
:1033D000E66EE66A9CC0E6FFB7EC00F0E552E55207
:1033E000E552000EE66E020EE66E07EC75F0E55251
:1033F000E552780EE66EA20EE66E000EE66E4DEC1D
:1034000074F0E552E552E55260C5E6FF61C5E6FF9E
:1034100062C5E6FF63C5E6FFB20EE66E940EE66E89
:10342000000EE66E000EE66E020EE66E65EC72F0C1
:10343000006E090EE15E0050010EE66E010EE66EB2
:10344000E66AB7EC00F0E552E552E552000EE66E92
:10345000020EE66E07EC75F0E552E552780EE66E68
:10346000A20EE66E000EE66E4DEC74F0E552E552EB
:10347000E5529B0EE66E940EE66E000EE66E000EB2
:10348000E66E020EE66E65EC72F0006E050EE15E11
:10349000005005016251631110E17F0EE66E940E3B
:1034A000E66E000EE66E000EE66E020EE66E65EC4F
:1034B00072F0006E050EE15E0050010EE66E020E27
:1034C000E66EE66AB7EC00F0E552E552E552000E12
:1034D000E66E020EE66E07EC75F0E552E552780EE8
:1034E000E66EA20EE66E000EE66E4DEC74F0E5524E
:1034F000E552E5529B0EE66E940EE66E000EE66E09
:10350000000EE66E020EE66E65EC72F0006E050EC1
:10351000E15E005005016051611110E1610EE66E3F
:10352000940EE66E000EE66E000EE66E020EE66E7D
:1035300065EC72F0006E050EE15E0050010EE66E65
:10354000030EE66EE66AB7EC00F0E552E552E5528E
:10355000000EE66E020EE66E07EC75F0E552E552DF
:10356000780EE66EA20EE66E000EE66E4DEC74F07E
:10357000E552E552E552010EE66E010EE66EA4EC50
:103580006DF0E552E552020EE66E6EEC62F0E55229
:103590000400060100A5F7D7E66A010EE66EA4EC6A
:1035A0006DF0E552E5528CEC6DF0010EE66E23EC09
:1035B00015F0E55264EC62F0060EE66EE66AE66A25
:1035C000E66A6AEC01F0E552E552E552E5528B926B
:1035D0000001010E7B6F0001806B80C0E6FF92EC62
:1035E0006DF0E5527CC0E6FF47EC6EF0E5523B0E15
:1035F000E66E940EE66E000EE66E4DEC74F0E5524B
:10360000E552E552DDEF2CF08CEC6DF0060EE66E27
:10361000E66AE66AE66A6AEC01F0E552E552E552CE
:10362000E55282EC6DF0010EE66EE66AE66AE66A45
:103630006AEC01F0E552E552E552E5520F0EDB6A05
:10364000100EDB6A8FEC6DF0010EE66ED950040FA0
:10365000E96EDACFEAFFEECFE6FFEECFE6FFEECF80
:10366000E6FFEFCFE6FF6DEC02F0006E050EE15EC7
:103670000050C2EC38F080C0E6FF92EC6DF0E552ED
:10368000D9CFE9FFDACFEAFFEECF00F0EECF01F0BD
:10369000EECF02F0EFCF03F0D00E2F6E070E306E9C
:1036A000316A326A00C02AF001C02BF002C02CF04F
:1036B00003C02DF075EC75F026C000F027C001F0B6
:1036C00028C002F029C003F00050011002100310BE
:1036D00001E0B3D2E2EC38F0000901E1DBD0210EC9
:1036E000E96E060EEA6EEE500601155D046EEE50B0
:1036F00006011659056EEE5006011759066EEE507A
:1037000006011859076E04C0E6FF05C0E6FF06C0B3
:10371000E6FF07C0E6FFD7EC08F0E552E552E552B8
:10372000E5522AC000F02BC001F02CC002F02DC0E1
:1037300003F000C0E6FF01C0E6FF02C0E6FF03C0E1
:10374000E6FF1D0EE96E060EEA6EEE500601115DF3
:103750000C6EEE50060112590D6EEE500601135913
:103760000E6EEE50060114590F6E0CC0E6FF0DC030
:10377000E6FF0EC0E6FF0FC0E6FFD7EC08F0E5520B
:10378000E552E552E5522AC008F02BC009F02CC0E2
:103790000AF02DC00BF008C0E6FF09C0E6FF0AC022
:1037A000E6FF0BC0E6FF190EE96E060EEA6EEE505C
:1037B00006010D5D146EEE5006010E59156EEE50A9
:1037C00006010F59166EEE5006011059176E14C0FF
:1037D000E6FF15C0E6FF16C0E6FF17C0E6FFD7EC10
:1037E00008F0E552E552E552E5522AC010F02BC030
:1037F00011F02CC012F02DC013F010C0E6FF11C064
:10380000E6FF12C0E6FF13C0E6FF1E0EE66E940E42
:10381000E66E000EE66E000EE66E020EE66E65ECDB
:1038200072F0186E110EE15E1850000EE66E020E78
:10383000E66E07EC75F0E552E55206013D5128E0D1
:1038400006013E5125E006013F5122E000017C5176
:1038500007E0010EF36E0F0EF3CFDBFF100EDB6AF5
:10386000F90EE66E930EE66E000EE66E000EE66E44
:10387000020EE66E65EC72F0006E050EE15E005021
:10388000000EE66E020EE66E07EC75F0E552E552AC
:10389000C2EC38F0060100A531D08CEC6DF0010EC1
:1038A000E66E23EC15F0E55264EC62F0060EE66E6F
:1038B000E66AE66AE66A6AEC01F0E552E552E5522C
:1038C000E5528B920001010E7B6F0001806B80C07E
:1038D000E6FF92EC6DF0E5527CC0E6FF47EC6EF03F
:1038E000E552EA0EE66E950EE66E000EE66E4DECC3
:1038F00074F0E552E552E552DDEF2CF0E7EC2CF0E8
:10390000D9CFE9FFDACFEAFFEECFE6FFEECFE6FF51
:10391000EECFE6FFEFCFE6FFE10EE66E930EE66E2A
:10392000000EE66E000EE66E020EE66E65EC72F0BC
:10393000006E090EE15E0050010EE66EE66A9CC064
:10394000E6FFB7EC00F0E552E552E552020E000149
:103950007C5D5AE05D0EE66E9A0EE66E000EE66E37
:10396000000EE66E020EE66E65EC72F0006E050E5D
:10397000E15E00500501065146E031C6E6FF32C661
:10398000E6FF33C6E6FF34C6E6FF24C500F025C5D2
:1039900001F00A0E316E326A00C02CF001C02DF029
:1039A0002AEC6AF02CC000F02DC001F000C0E6FF48
:1039B00001C0E6FF34C502F035C503F00A0E316ED2
:1039C000326A02C02CF003C02DF02AEC6AF02CC041
:1039D00002F02DC003F002C0E6FF03C0E6FF0EC5F3
:1039E000E6FF0FC5E6FFB90EE66E930EE66E000E1B
:1039F000E66E000EE66E020EE66E65EC72F0046E88
:103A00000F0EE15E045049D00501065146E031C673
:103A1000E6FF32C6E6FF33C6E6FF34C6E6FF24C53E
:103A200000F025C501F00A0E316E326A00C02CF09C
:103A300001C02DF02AEC6AF02CC000F02DC001F07E
:103A400000C0E6FF01C0E6FF34C502F035C503F053
:103A50000A0E316E326A02C02CF003C02DF02AEC3F
:103A60006AF02CC002F02DC003F002C0E6FF03C0D4
:103A7000E6FF0EC5E6FF0FC5E6FF910EE66E930E5C
:103A8000E66E000EE66E000EE66E020EE66E65EC69
:103A900072F0046E0F0EE15E0450010EE66E010E30
:103AA000E66EE66AB7EC00F0E552E552E5525D0ECF
:103AB000E66E9A0EE66E000EE66E000EE66E020EE2
:103AC000E66E65EC72F0006E050EE15E00500501D9
:103AD000405146E035C6E6FF36C6E6FF37C6E6FF8C
:103AE00038C6E6FF5EC500F05FC501F00A0E316E14
:103AF000326A00C02CF001C02DF02AEC6AF02CC014
:103B000000F02DC001F000C0E6FF01C0E6FF6EC569
:103B100002F06FC503F00A0E316E326A02C02CF05B
:103B200003C02DF02AEC6AF02CC002F02DC003F087
:103B300002C0E6FF03C0E6FF48C5E6FF49C5E6FF51
:103B4000690EE66E930EE66E000EE66E000EE66EF1
:103B5000020EE66E65EC72F0046E0F0EE15E04502C
:103B6000010EE66E020EE66EE66AB7EC00F0E55274
:103B7000E552E5525D0EE66E9A0EE66E000EE66EBA
:103B8000000EE66E020EE66E65EC72F0006E050E3B
:103B9000E15E005005017A5146E039C6E6FF3AC6BB
:103BA000E6FF3BC6E6FF3CC6E6FF98C500F099C5B8
:103BB00001F00A0E316E326A00C02CF001C02DF007
:103BC0002AEC6AF02CC000F02DC001F000C0E6FF26
:103BD00001C0E6FFA8C502F0A9C503F00A0E316EC8
:103BE000326A02C02CF003C02DF02AEC6AF02CC01F
:103BF00002F02DC003F002C0E6FF03C0E6FF82C55D
:103C0000E6FF83C5E6FF410EE66E930EE66E000EFC
:103C1000E66E000EE66E020EE66E65EC72F0046E65
:103C20000F0EE15E0450010EE66E030EE66EE66ACC
:103C3000B7EC00F0E552E552E552D9CFE9FFDACF13
:103C4000EAFFEE2A000EEE22EE22EE22E66AD950BC
:103C5000040FE96EDACFEAFFEECFE6FFEECFE6FF24
:103C6000EECFE6FFEFCFE6FF6DEC02F0006E050E43
:103C7000E15E0050000909E1D9500F0FE96EDACF7B
:103C8000EAFFEE50ED1001E1F6D48CEC6DF0060E7B
:103C9000E66EE66AE66AE66A6AEC01F0E552E5522B
:103CA000E552E55289EC6DF0010EE66EE66AE66AD1
:103CB000E66A6AEC01F0E552E552E552E5520F0E74
:103CC000DB6A100EDB6A00017C5101E129D38FEC25
:103CD0006DF0010EE66ED950040FE96EDACFEAFFFF
:103CE000EECFE6FFEECFE6FFEECFE6FFEFCFE6FF4B
:103CF0006DEC02F0006E050EE15E0050DE6ADE6AD9
:103D0000DE6ADD6ADD52DD52C2EC38F080C0E6FFCB
:103D100092EC6DF0E552D9CFE9FFDACFEAFFEECFB2
:103D200000F0EECF01F0EECF02F0EFCF03F0D00EB7
:103D30002F6E070E306E316A326A00C02AF001C061
:103D40002BF002C02CF003C02DF075EC75F026C0EE
:103D500000F027C001F028C002F029C003F0005095
:103D600001100210031001E0B3D2E2EC38F00009B8
:103D700001E1DBD0210EE96E060EEA6EEE5006017F
:103D8000155D046EEE5006011659056EEE500601E3
:103D90001759066EEE5006011859076E04C0E6FF6B
:103DA00005C0E6FF06C0E6FF07C0E6FFD7EC08F057
:103DB000E552E552E552E5522AC000F02BC001F071
:103DC0002CC002F02DC003F000C0E6FF01C0E6FFEA
:103DD00002C0E6FF03C0E6FF1D0EE96E060EEA6EA6
:103DE000EE500601115D0C6EEE50060112590D6E7B
:103DF000EE50060113590E6EEE50060114590F6E67
:103E00000CC0E6FF0DC0E6FF0EC0E6FF0FC0E6FFE8
:103E1000D7EC08F0E552E552E552E5522AC008F029
:103E20002BC009F02CC00AF02DC00BF008C0E6FF33
:103E300009C0E6FF0AC0E6FF0BC0E6FF190EE96EF7
:103E4000060EEA6EEE5006010D5D146EEE50060190
:103E50000E59156EEE5006010F59166EEE50060102
:103E60001059176E14C0E6FF15C0E6FF16C0E6FF36
:103E700017C0E6FFD7EC08F0E552E552E552E552EF
:103E80002AC010F02BC011F02CC012F02DC013F07E
:103E900010C0E6FF11C0E6FF12C0E6FF13C0E6FF48
:103EA0001E0EE66E940EE66E000EE66E000EE66ED8
:103EB000020EE66E65EC72F0186E110EE15E18509F
:103EC000000EE66E020EE66E07EC75F0E552E55266
:103ED00006013D5128E006013E5125E006013F5113
:103EE00022E000017C5107E0010EF36E0F0EF3CFCC
:103EF000DBFF100EDB6AF90EE66E930EE66E000E27
:103F0000E66E000EE66E020EE66E65EC72F0006E76
:103F1000050EE15E0050000EE66E020EE66E07EC46
:103F200075F0E552E552C2EC38F0060100A531D03B
:103F30008CEC6DF0010EE66E23EC15F0E55264ECAE
:103F400062F0060EE66EE66AE66AE66A6AEC01F080
:103F5000E552E552E552E5528B920001010E7B6F6E
:103F60000001806B80C0E6FF92EC6DF0E5527CC0F2
:103F7000E6FF47EC6EF0E552EA0EE66E950EE66E51
:103F8000000EE66E4DEC74F0E552E552E552DDEFC1
:103F90002CF0E7EC2CF0D9CFE9FFDACFEAFFEECF37
:103FA000E6FFEECFE6FFEECFE6FFEFCFE6FF2A0E0D
:103FB000E66E930EE66E000EE66E000EE66E020EE4
:103FC000E66E65EC72F0006E090EE15E0050010EC7
:103FD000E66EE66A9CC0E6FFB7EC00F0E552E552FB
:103FE000E5525D0EE66E9A0EE66E000EE66E000E6F
:103FF000E66E020EE66E65EC72F0006E050EE15E96
:104000000050020E00017C5D4AE00501065146E0C9
:1040100031C6E6FF32C6E6FF33C6E6FF34C6E6FF2A
:1040200024C500F025C501F00A0E316E326A00C0C9
:104030002CF001C02DF02AEC6AF02CC000F02DC04D
:1040400001F000C0E6FF01C0E6FF34C502F035C54F
:1040500003F00A0E316E326A02C02CF003C02DF05C
:104060002AEC6AF02CC002F02DC003F002C0E6FF7B
:1040700003C0E6FF0EC5E6FF0FC5E6FFB90EE66E0C
:10408000930EE66E000EE66E000EE66E020EE66E13
:1040900065EC72F0046E0F0EE15E045049D005012C
:1040A000065146E031C6E6FF32C6E6FF33C6E6FFFC
:1040B00034C6E6FF24C500F025C501F00A0E316EB6
:1040C000326A00C02CF001C02DF02AEC6AF02CC03E
:1040D00000F02DC001F000C0E6FF01C0E6FF34C5CE
:1040E00002F035C503F00A0E316E326A02C02CF0C0
:1040F00003C02DF02AEC6AF02CC002F02DC003F0B2
:1041000002C0E6FF03C0E6FF0EC5E6FF0FC5E6FFEF
:10411000910EE66E930EE66E000EE66E000EE66EF3
:10412000020EE66E65EC72F0046E0F0EE15E045056
:10413000010EE66E010EE66EE66AB7EC00F0E5529F
:10414000E552E5525D0EE66E9A0EE66E000EE66EE4
:10415000000EE66E020EE66E65EC72F0006E050E65
:10416000E15E00500501405146E035C6E6FF36C627
:10417000E6FF37C6E6FF38C6E6FF5EC500F05FC55E
:1041800001F00A0E316E326A00C02CF001C02DF031
:104190002AEC6AF02CC000F02DC001F000C0E6FF50
:1041A00001C0E6FF6EC502F06FC503F00A0E316E66
:1041B000326A02C02CF003C02DF02AEC6AF02CC049
:1041C00002F02DC003F002C0E6FF03C0E6FF48C5C1
:1041D000E6FF49C5E6FF690EE66E930EE66E000E39
:1041E000E66E000EE66E020EE66E65EC72F0046E90
:1041F0000F0EE15E0450010EE66E020EE66EE66AF8
:10420000B7EC00F0E552E552E5525D0EE66E9A0E0F
:10421000E66E000EE66E000EE66E020EE66E65ECD1
:1042200072F0006E050EE15E005005017A5146E025
:1042300039C6E6FF3AC6E6FF3BC6E6FF3CC6E6FFE8
:1042400098C500F099C501F00A0E316E326A00C0BF
:104250002CF001C02DF02AEC6AF02CC000F02DC02B
:1042600001F000C0E6FF01C0E6FFA8C502F0A9C545
:1042700003F00A0E316E326A02C02CF003C02DF03A
:104280002AEC6AF02CC002F02DC003F002C0E6FF59
:1042900003C0E6FF82C5E6FF83C5E6FF410EE66E7A
:1042A000930EE66E000EE66E000EE66E020EE66EF1
:1042B00065EC72F0046E0F0EE15E0450010EE66EC6
:1042C000030EE66EE66AB7EC00F0E552E552E55201
:1042D000D9CFE9FFDACFEAFFEE2A000EEE22EE2276
:1042E000EE22E66AD950040FE96EDACFEAFFEECF8C
:1042F000E6FFEECFE6FFEECFE6FFEFCFE6FF6DEC99
:1043000002F0006E050EE15E0050000909E1D9508F
:104310000F0FE96EDACFEAFFEE50ED1001E1F6D4AF
:1043200080EF26F00401296B2A6B2B6B2C6B080E97
:1043300029C4DBFF090E2AC4DBFF0A0E2BC4DBFFF6
:104340000B0E2CC4DBFF8FEC6DF0140EE66EE66AEC
:10435000E66AE66A6AEC01F0E552E552E552E5529A
:10436000DE6ADE6ADE6ADD6ADD52DD52D9CFE9FF40
:10437000DACFEAFFDE0EEE5C030EEE58000EEE58CA
:10438000000EEE5801E31AD1D9CFE9FFDACFEAFFE8
:10439000EECFE6FFEECFE6FFEECFE6FFEFCFE6FF94
:1043A0002A0EE66E930EE66E000EE66E000EE66EC8
:1043B000020EE66E65EC72F0006E090EE15E0050D2
:1043C000010EE66EE66A9CC0E6FFB7EC00F0E5522F
:1043D000E552E5525D0EE66E9A0EE66E000EE66E52
:1043E000000EE66E020EE66E65EC72F0006E050ED3
:1043F000E15E00500501065118E029C4E6FF2AC419
:10440000E6FF2BC4E6FF2CC4E6FF080EE66E930E13
:10441000E66E000EE66E000EE66E020EE66E65ECCF
:1044200072F0006E090EE15E0050010EE66E010EA4
:10443000E66EE66AB7EC00F0E552E552E5525D0E35
:10444000E66E9A0EE66E000EE66E000EE66E020E48
:10445000E66E65EC72F0006E050EE15E0050010E36
:10446000E66E020EE66EE66AB7EC00F0E552E55243
:10447000E552010EE66E030EE66EE66AB7EC00F05A
:10448000E552E552E552010EE66EE66AE66AE66A34
:104490006AEC01F0E552E552E552E552D9CFE9FF69
:1044A000DACFEAFFEECF00F0EECF01F0EECF02F070
:1044B000EFCF03F0190E2F6E306A316A326A00C0F6
:1044C0002AF001C02BF002C02CF003C02DF075ECD7
:1044D00075F026C000F027C001F028C002F029C006
:1044E00003F000500110021003102AE1D950080F08
:1044F000E96EDACFEAFFEE50040129190CE1EE5023
:1045000004012A1908E1EE5004012B1904E1EE50D0
:1045100004012C1900E108E1E80EDE6E030EDE6EE8
:10452000DE6ADD6ADD52DD52080E29C4DBFF090EAA
:104530002AC4DBFF0A0E2BC4DBFF0B0E2CC4DBFFEF
:10454000060100A531D08CEC6DF0010EE66E23EC77
:1045500015F0E55264EC62F0060EE66EE66AE66A75
:10456000E66A6AEC01F0E552E552E552E5528B92BB
:104570000001010E7B6F0001806B80C0E6FF92ECB2
:104580006DF0E5527CC0E6FF47EC6EF0E552EA0EB6
:10459000E66E950EE66E000EE66E4DEC74F0E5529A
:1045A000E552E552DDEF2CF0D9CFE9FFDACFEAFF93
:1045B000EE2A000EEE22EE22EE22D8D68CEC6DF022
:1045C000060EE66EE66AE66AE66A6AEC01F0E55215
:1045D000E552E552E55282EC6DF0010EE66EE66AB8
:1045E000E66AE66A6AEC01F0E552E552E552E55208
:1045F0000401296B2A6B2B6B2C6B080E29C4DBFF83
:10460000090E2AC4DBFF0A0E2BC4DBFF0B0E2CC4E1
:10461000DBFF8FEC6DF0140EE66EE66AE66AE66A82
:104620006AEC01F0E552E552E552E552DE6ADE6AD7
:10463000DE6ADD6ADD52DD52D9CFE9FFDACFEAFF6B
:10464000DE0EEE5C030EEE58000EEE58000EEE5835
:1046500001E31AD1D9CFE9FFDACFEAFFEECFE6FFC7
:10466000EECFE6FFEECFE6FFEFCFE6FFE10EE66E20
:10467000930EE66E000EE66E000EE66E020EE66E1D
:1046800065EC72F0006E090EE15E0050010EE66E00
:10469000E66A9CC0E6FFB7EC00F0E552E552E55251
:1046A0005D0EE66E9A0EE66E000EE66E000EE66E8B
:1046B000020EE66E65EC72F0006E050EE15E0050D3
:1046C0000501065118E029C4E6FF2AC4E6FF2BC401
:1046D000E6FF2CC4E6FF080EE66E930EE66E000EB3
:1046E000E66E000EE66E020EE66E65EC72F0006E8F
:1046F000090EE15E0050010EE66E010EE66EE66AFE
:10470000B7EC00F0E552E552E5525D0EE66E9A0E0A
:10471000E66E000EE66E000EE66E020EE66E65ECCC
:1047200072F0006E050EE15E0050010EE66E020EA4
:10473000E66EE66AB7EC00F0E552E552E552010E8E
:10474000E66E030EE66EE66AB7EC00F0E552E5525F
:10475000E552010EE66EE66AE66AE66A6AEC01F088
:10476000E552E552E552E552D9CFE9FFDACFEAFF4B
:10477000EECF00F0EECF01F0EECF02F0EFCF03F07E
:10478000190E2F6E306A316A326A00C02AF001C0F9
:104790002BF002C02CF003C02DF075EC75F026C094
:1047A00000F027C001F028C002F029C003F000503B
:1047B0000110021003102AE1D950080FE96EDACF78
:1047C000EAFFEE50040129190CE1EE5004012A1908
:1047D00008E1EE5004012B1904E1EE5004012C19FC
:1047E00000E108E1E80EDE6E030EDE6EDE6ADD6AD1
:1047F000DD52DD52080E29C4DBFF090E2AC4DBFF9F
:104800000A0E2BC4DBFF0B0E2CC4DBFF060100A538
:1048100031D08CEC6DF0010EE66E23EC15F0E55214
:1048200064EC62F0060EE66EE66AE66AE66A6AEC38
:1048300001F0E552E552E552E5528B920001010E7E
:104840007B6F0001806B80C0E6FF92EC6DF0E5525B
:104850007CC0E6FF47EC6EF0E552EA0EE66E950E80
:10486000E66E000EE66E4DEC74F0E552E552E55250
:10487000DDEF2CF0D9CFE9FFDACFEAFFEE2A000E08
:10488000EE22EE22EE22D8D629C435F42AC436F41C
:104890002BC437F42CC438F48CEC6DF000017B6B26
:1048A0000001806B35C42AF036C42BF037C42CF0DD
:1048B00038C42DF0BAEC68F02BC000F02CC001F029
:1048C0002DC002F02EC003F00A0E306ED70E316EEE
:1048D000230E326E3C0E336E00C02BF001C02CF064
:1048E00002C02DF003C02EF0BDEC69F0FCEC6AF0C4
:1048F0002AC010F42BC011F42CC012F42DC013F4F4
:10490000ADEC0CF035C42AF036C42BF037C42CF0D3
:1049100038C42DF0BAEC68F02BC000F02CC001F0C8
:104920002DC002F02EC003F0FA0E306E7E0E316EF6
:104930002A0E326E3F0E336E00C02BF001C02CF0F9
:1049400002C02DF003C02EF0BDEC69F0FCEC6AF063
:104950002AC010F42BC011F42CC012F42DC013F493
:10496000290EE96E040EEA6EEE500401105D006E31
:10497000EE5004011159016EEE5004011259026EFD
:10498000EE5004011359036E0001D8513A0DF3CFD4
:10499000E9FFF4CFEAFF000EE926050EEA220D0E2C
:1049A000E926000EEA22050EE926000EEA2200C0E2
:1049B000EEFF01C0EDFFADEC0CF035C42AF036C4BB
:1049C0002BF037C42CF038C42DF0BAEC68F02BC0B3
:1049D00000F02CC001F02DC002F02EC003F0FA0E42
:1049E000306E7E0E316EAA0E326E3E0E336E00C0F9
:1049F0002BF001C02CF002C02DF003C02EF0BDEC56
:104A000069F0FCEC6AF02AC010F42BC011F42CC041
:104A100012F42DC013F4290EE96E040EEA6EEE5066
:104A20000401105D006EEE5004011159016EEE504C
:104A300004011259026EEE5004011359036E000175
:104A4000D8513A0DF3CFE9FFF4CFEAFF000EE92683
:104A5000050EEA220D0EE926000EEA22050EE926D1
:104A6000000EEA2200C0EEFF01C0EDFFADEC0CF03D
:104A700035C42AF036C42BF037C42CF038C42DF0DE
:104A8000BAEC68F02BC000F02CC001F02DC002F091
:104A90002EC003F0660E306E660E316E660E326EFC
:104AA0003F0E336E00C02BF001C02CF002C02DF081
:104AB00003C02EF0BDEC69F0FCEC6AF02AC010F4E3
:104AC0002BC011F42CC012F42DC013F4290EE96E82
:104AD000040EEA6EEE500401105D006EEE5004010B
:104AE0001159016EEE5004011259026EEE5004018C
:104AF0001359036E0001D8513A0DF3CFE9FFF4CFFB
:104B0000EAFF000EE926050EEA220D0EE926000E48
:104B1000EA22050EE926000EEA2200C0EEFF01C0DF
:104B2000EDFFADEC0CF035C42AF036C42BF037C4E1
:104B30002CF038C42DF0BAEC68F02BC000F02CC07B
:104B400001F02DC002F02EC003F0CD0E306ECC0E61
:104B5000316ECC0E326E3D0E336E00C02BF001C0B4
:104B60002CF002C02DF003C02EF0BDEC69F0FCEC7F
:104B70006AF02AC010F42BC011F42CC012F42DC01E
:104B800013F4290EE96E040EEA6EEE500401105D76
:104B9000006EEE5004011159016EEE5004011259DD
:104BA000026EEE5004011359036E0001D8513A0D04
:104BB000F3CFE9FFF4CFEAFF000EE926050EEA2263
:104BC0000D0EE926000EEA22050EE926000EEA2265
:104BD00000C0EEFF01C0EDFFADEC0CF035C42AF0D3
:104BE00036C42BF037C42CF038C42DF0BAEC68F082
:104BF0002BC000F02CC001F02DC002F02EC003F03D
:104C0000306A316A326A3F0E336E00C02BF001C049
:104C10002CF002C02DF003C02EF0BDEC69F0FCECCE
:104C20006AF02AC010F42BC011F42CC012F42DC06D
:104C300013F4290EE96E040EEA6EEE500401105DC5
:104C4000006EEE5004011159016EEE50040112592C
:104C5000026EEE5004011359036E0001D8513A0D53
:104C6000F3CFE9FFF4CFEAFF000EE926050EEA22B2
:104C70000D0EE926000EEA22050EE926000EEA22B4
:104C800000C0EEFF01C0EDFFADEC0CF0DE6ADE6AA5
:104C9000DE6ADD6ADD52DD52D9CFE9FFDACFEAFF05
:104CA000030EEE5C000EEE58000EEE58000EEE58AD
:104CB00027E2DFCFE9FF010EDBCFEAFF3A0EEA027F
:104CC000F3CFEAFF3A0EE902F3CFE9FFF450EA2608
:104CD000000EE926050EEA220D0EE926000EEA2254
:104CE0001D0EE926000EEA22EE6AED6AD9CFE9FF31
:104CF000DACFEAFFEE2A000EEE22EE22EE22CCD729
:104D0000DE6ADE6ADE6ADD6ADD52DD52D9CFE9FF96
:104D1000DACFEAFF030EEE5C000EEE58000EEE58FE
:104D2000000EEE5802E362EF2BF000017C5101E02F
:104D300000D1DFCFE9FF010EDBCFEAFF3A0EEA0236
:104D4000F3CFEAFF3A0EE902F3CFE9FFF450EA2687
:104D5000000EE926050EEA220D0EE926000EEA22D3
:104D6000090EE926000EEA22EECF00F0EFCF01F0A7
:104D7000DFCFE9FF010EDBCFEAFF3A0EEA02F3CF05
:104D8000EAFF3A0EE902F3CFE9FFF450EA26000EFB
:104D9000E926050EEA220D0EE926000EEA220B0E88
:104DA000E926000EEA22EECF02F0EFCF03F0035027
:104DB0000118E8AE02D0013404D00050025C01506A
:104DC000035837E2DFCFE9FF010EDBCFEAFF3A0EEF
:104DD000EA02F3CFEAFF3A0EE902F3CFE9FFF4501B
:104DE000EA26000EE926050EEA22060EE926000E46
:104DF000EA22EF501EE0DFCFE9FF010EDBCFEAFF32
:104E00003A0EEA02F3CFEAFF3A0EE902F3CFE9FFE6
:104E1000F450EA26000EE926050EEA220D0EE926D8
:104E2000000EEA221D0EE926000EEA22010EEE6EA9
:104E3000ED6ADFCFE9FF010EDBCFEAFF3A0EEA02AF
:104E4000F3CFEAFF3A0EE902F3CFE9FFF450EA2686
:104E5000000EE926050EEA220D0EE926000EEA22D2
:104E6000170EE926000EEA22EECF00F0EFCF01F098
:104E7000DFCFE9FF010EDBCFEAFF3A0EEA02F3CF04
:104E8000EAFF3A0EE902F3CFE9FFF450EA26000EFA
:104E9000E926050EEA220D0EE926000EEA220D0E85
:104EA000E926000EEA22EECF02F0EFCF03F0015028
:104EB0000318E8AE02D0033404D00250005C035063
:104EC000015837E2DFCFE9FF010EDBCFEAFF3A0EF0
:104ED000EA02F3CFEAFF3A0EE902F3CFE9FFF4501A
:104EE000EA26000EE926050EEA22060EE926000E45
:104EF000EA22EF501EE0DFCFE9FF010EDBCFEAFF31
:104F00003A0EEA02F3CFEAFF3A0EE902F3CFE9FFE5
:104F1000F450EA26000EE926050EEA220D0EE926D7
:104F2000000EEA221D0EE926000EEA22010EEE6EA8
:104F3000ED6A030E00017C5D01E000D1DFCFE9FFE7
:104F4000010EDBCFEAFF3A0EEA02F3CFEAFF3A0E98
:104F5000E902F3CFE9FFF450EA26000EE926050E38
:104F6000EA220D0EE926000EEA22090EE926000EBD
:104F7000EA22EECF00F0EFCF01F0DFCFE9FF010E24
:104F8000DBCFEAFF3A0EEA02F3CFEAFF3A0EE9027C
:104F9000F3CFE9FFF450EA26000EE926050EEA22D7
:104FA0000D0EE926000EEA220B0EE926000EEA227B
:104FB000EECF02F0EFCF03F003500118E8AE02D0BD
:104FC000013404D00050025C0150035837E2DFCFB7
:104FD000E9FF010EDBCFEAFF3A0EEA02F3CFEAFF68
:104FE0003A0EE902F3CFE9FFF450EA26000EE92673
:104FF000050EEA22060EE926000EEA22EF501EE018
:10500000DFCFE9FF010EDBCFEAFF3A0EEA02F3CF72
:10501000EAFF3A0EE902F3CFE9FFF450EA26000E68
:10502000E926050EEA220D0EE926000EEA221D0EE3
:10503000E926000EEA22010EEE6EED6ADFCFE9FFEF
:10504000010EDBCFEAFF3A0EEA02F3CFEAFF3A0E97
:10505000E902F3CFE9FFF450EA26000EE926050E37
:10506000EA220D0EE926000EEA22170EE926000EAE
:10507000EA22EECF00F0EFCF01F0DFCFE9FF010E23
:10508000DBCFEAFF3A0EEA02F3CFEAFF3A0EE9027B
:10509000F3CFE9FFF450EA26000EE926050EEA22D6
:1050A0000D0EE926000EEA220D0EE926000EEA2278
:1050B000EECF02F0EFCF03F001500318E8AE02D0BC
:1050C000033404D00250005C0350015837E2DFCFB4
:1050D000E9FF010EDBCFEAFF3A0EEA02F3CFEAFF67
:1050E0003A0EE902F3CFE9FFF450EA26000EE92672
:1050F000050EEA22060EE926000EEA22EF501EE017
:10510000DFCFE9FF010EDBCFEAFF3A0EEA02F3CF71
:10511000EAFF3A0EE902F3CFE9FFF450EA26000E67
:10512000E926050EEA220D0EE926000EEA221D0EE2
:10513000E926000EEA22010EEE6EED6ADFCFE9FFEE
:10514000010EDBCFEAFF3A0EEA02F3CFEAFF3A0E96
:10515000E902F3CFE9FFF450EA26000EE926050E36
:10516000EA220D0EE926000EEA221D0EE926000EA7
:10517000EA22EE50ED1001E0A8D0DFCFE9FF010EEA
:10518000DBCFEAFF3A0EEA02F3CFEAFF3A0EE9027A
:10519000F3CFE9FFF450EA26000EE926050EEA22D5
:1051A0000D0EE926000EEA22190EE926000EEA226B
:1051B000010EEE6EED6ADFCFE9FF010EDBCFEAFFF5
:1051C0003A0EEA02F3CFEAFF3A0EE902F3CFE9FF23
:1051D000F450EA26000EE926050EEA220D0EE92615
:1051E000000EEA221B0EE926000EEA22010EEE6EE8
:1051F000ED6ADFCFE9FF010EDBCFEAFF3A0EEA02EC
:10520000F3CFEAFF3A0EE902F3CFE9FFF450EA26C2
:10521000000EE926050EEA220D0EE926000EEA220E
:10522000290EE926000EEA22F40EEE6E010EED6E56
:10523000DFCFE9FF010EDBCFEAFF3A0EEA02F3CF40
:10524000EAFF3A0EE902F3CFE9FFF450EA26000E36
:10525000E926050EEA22060EE926000EEA22EF50A4
:1052600033E0020E00017C5D08E0000EDB50580FB9
:10527000E76E0C0EE7CFDBFF05D0410EF36E0C0E90
:10528000F3CFDBFF0C0EDBCF00F0016A00BE01683C
:1052900000C0E6FF01C0E6FFDC0EE66E920EE66E91
:1052A000000EE66E000EE66E020EE66E65EC72F023
:1052B000026E070EE15E0250000EE66E020EE66E12
:1052C00007EC75F0E552E552F2D1DFCFE9FF010EB0
:1052D000DBCFEAFF3A0EEA02F3CFEAFF3A0EE90229
:1052E000F3CFE9FFF450EA26000EE926050EEA2284
:1052F000060EE926000EEA22EF5001E1D8D10601A0
:105300000095020E00017C5D08E0000EDB50580F96
:10531000E76E0C0EE7CFDBFF05D0410EF36E0C0EEF
:10532000F3CFDBFF0C0EDBCF00F0016A00BE01689B
:1053300000C0E6FF01C0E6FFC60EE66E920EE66E06
:10534000000EE66E000EE66E020EE66E65EC72F082
:10535000026E070EE15E0250010EE66EE66A9CC028
:10536000E6FFB7EC00F0E552E552E552000EE66EBE
:10537000020EE66E07EC75F0E552E552780EE66E29
:10538000A20EE66E000EE66E4DEC74F0E552E552AC
:10539000E552DFCFE9FF010EDBCFEAFF3A0EEA026A
:1053A000F3CFEAFF3A0EE902F3CFE9FFF450EA2621
:1053B000000EE926050EEA220D0EE926000EEA226D
:1053C0000B0EE926000EEA22EECFE6FFEFCFE6FF56
:1053D000DFCFE9FF010EDBCFEAFF3A0EEA02F3CF9F
:1053E000EAFF3A0EE902F3CFE9FFF450EA26000E95
:1053F000E926050EEA220D0EE926000EEA22090E24
:10540000E926000EEA22EECFE6FFEFCFE6FFB00E70
:10541000E66E920EE66E000EE66E000EE66E020E70
:10542000E66E65EC72F0006E090EE15E0050010E52
:10543000E66E010EE66EE66AB7EC00F0E552E55264
:10544000E552000EE66E020EE66E07EC75F0E552D0
:10545000E552780EE66EA20EE66E000EE66E4DEC9C
:1054600074F0E552E552E552DFCFE9FF010EDBCFE4
:10547000EAFF3A0EEA02F3CFEAFF3A0EE902F3CF6F
:10548000E9FFF450EA26000EE926050EEA220D0E89
:10549000E926000EEA220D0EE926000EEA22EECFE2
:1054A000E6FFEFCFE6FFDFCFE9FF010EDBCFEAFF3C
:1054B0003A0EEA02F3CFEAFF3A0EE902F3CFE9FF30
:1054C000F450EA26000EE926050EEA220D0EE92622
:1054D000000EEA22170EE926000EEA22EECFE6FFC2
:1054E000EFCFE6FF9A0EE66E920EE66E000EE66EC7
:1054F000000EE66E020EE66E65EC72F0006E090EAE
:10550000E15E0050010EE66E020EE66EE66AB7EC52
:1055100000F0E552E552E552000EE66E020EE66E30
:1055200007EC75F0E552E552780EE66EA20EE66ED7
:10553000000EE66E4DEC74F0E552E552E552DFCF19
:10554000E9FF010EDBCFEAFF3A0EEA02F3CFEAFFF2
:105550003A0EE902F3CFE9FFF450EA26000EE926FD
:10556000050EEA220D0EE926000EEA220F0EE926AC
:10557000000EEA22EECFE6FFEFCFE6FFDFCFE9FF36
:10558000010EDBCFEAFF3A0EEA02F3CFEAFF3A0E52
:10559000E902F3CFE9FFF450EA26000EE926050EF2
:1055A000EA220D0EE926000EEA22150EE926000E6B
:1055B000EA22EECFE6FFEFCFE6FF860EE66E920E12
:1055C000E66E000EE66E000EE66E020EE66E65EC0E
:1055D00072F0006E090EE15E0050010EE66E030EE1
:1055E000E66EE66AB7EC00F0E552E552E552000ED1
:1055F000E66E020EE66E07EC75F0E552E552780EA7
:10560000E66EA20EE66E000EE66E4DEC74F0E5520C
:10561000E552E552010EE66E010EE66EA4EC6DF069
:10562000E552E552020E00017C5D08E0000EDB5001
:10563000580FE76E0C0EE7CFDBFF05D0410EF36E7F
:105640000C0EF3CFDBFF0C0EDBCF00F0016A00BEC7
:10565000016800C0E6FF01C0E6FF5A0EE66E920E3A
:10566000E66E000EE66E000EE66E020EE66E65EC6D
:1056700072F0026E070EE15E0250000EE66E020E40
:10568000E66E07EC75F0E552E552020EE66E6EEC42
:1056900062F0E5520400060100A5F7D7E66A010EA4
:1056A000E66EA4EC6DF0E552E55264EC62F0D9CF01
:1056B000E9FFDACFEAFFEE2A000EEE22EE22EE221A
:1056C00086EF26F08CEC6DF0060EE66EE66AE66A72
:1056D000E66A6AEC01F0E552E552E552E5528B923A
:1056E00000017B6B0001806B64EC62F0000186516D
:1056F00001E052D1DE6ADE6ADE6ADD6ADD52DD5229
:10570000050EE66E6EEC62F0E552450EE66E920E08
:10571000E66E000EE66E000EE66E020EE66E65ECBC
:1057200072F0006E050EE15E0050010EE66EE66A54
:105730009CC0E6FFB7EC00F0E552E552E5520601E9
:1057400000A59DD08F80300EE66E920EE66E000EA4
:10575000E66E000EE66E020EE66E65EC72F0006E0E
:10576000050EE15E0050010EE66EE66A9CC0E6FFA3
:10577000B7EC00F0E552E552E552060EE66EE66A39
:10578000E66AE66A6AEC01F0E552E552E552E55256
:1057900064EC62F05D0EE66E9A0EE66E000EE66E4A
:1057A000000EE66E020EE66E65EC72F0006E050EFF
:1057B000E15E0050010EE66EE66AE66AB7EC00F0C4
:1057C000E552E552E5525D0EE66E9A0EE66E000E6B
:1057D000E66E000EE66E020EE66E65EC72F0006E8E
:1057E000050EE15E0050010EE66E010EE66EE66A01
:1057F000B7EC00F0E552E552E5525D0EE66E9A0E0A
:10580000E66E000EE66E000EE66E020EE66E65ECCB
:1058100072F0006E050EE15E0050010EE66E020EA3
:10582000E66EE66AB7EC00F0E552E552E5525D0E31
:10583000E66E9A0EE66E000EE66E000EE66E020E44
:10584000E66E65EC72F0006E050EE15E0050010E32
:10585000E66E030EE66EE66AB7EC00F0E552E5523E
:10586000E552020EE66EECEC11F0E552A00EDE6E93
:10587000860EDE6E010EDE6EDD6ADD52DD52040044
:10588000060106010051040B1BE1D9CFE9FFDACF75
:10589000EAFFEFCF00F0EE2A000EEFCF01F0EE228C
:1058A000EFCF02F0EE22EFCF03F0EF22E80E005C24
:1058B000030E0158000E0258000E035801E225D7CE
:1058C0005D0EE66E9A0EE66E000EE66E000EE66E59
:1058D000020EE66E65EC72F0006E050EE15E0050A1
:1058E000010EE66EE66AE66AB7EC00F0E552E552B4
:1058F000E5525D0EE66E9A0EE66E000EE66E000E46
:10590000E66E020EE66E65EC72F0006E050EE15E6C
:105910000050010EE66E010EE66EE66AB7EC00F08E
:10592000E552E552E5525D0EE66E9A0EE66E000E09
:10593000E66E000EE66E020EE66E65EC72F0006E2C
:10594000050EE15E0050010EE66E020EE66EE66A9E
:10595000B7EC00F0E552E552E5525D0EE66E9A0EA8
:10596000E66E000EE66E000EE66E020EE66E65EC6A
:1059700072F0006E050EE15E0050010EE66E030E41
:10598000E66EE66AB7EC00F0E552E552E55264ECEB
:1059900062F05CEC15F000D000017B6B0001806BC5
:1059A00064EC62F03B0EE66E940EE66E000EE66E60
:1059B0004DEC74F0E552E552E552110EE15C02E265
:1059C000E16AE552E16EE552E7CFD9FF120043EC00
:1059D00039F0000188514EE0ECC4E6FFEDC4E6FF6B
:1059E000EAC4E6FFEBC4E6FFE8C4E6FFE9C4E6FF6D
:1059F00080EC36F092EC36F06EEC36F0FB0EE66E94
:105A0000910EE66E000E32EC35F0170EBEEC31F062
:105A100089EC36F09BEC36F077EC36F0D80EE66E7B
:105A2000910EE66E000E32EC35F0110EBEEC31F048
:105A3000F0EC33F084C5E6FF85C5E6FFACEC34F04E
:105A4000C6EC33F04AC5E6FF4BC5E6FF3CEC34F04C
:105A5000C1EC33F010C5E6FF11C5E6FF37EC34F0BA
:105A60009A0EE66E910EE66E000E32EC35F0170ED1
:105A7000BEEC31F012000601C80EA76FB7EC32F091
:105A8000B1EC34F027E02B0EE66E0AEC73F0E55231
:105A9000B1EC34F0FDE1B7EC32F02B0EE66E0AEC1F
:105AA00073F0E552B1EC34F0FDE10C0EE66EBCECA7
:105AB00075F0E552B1EC34F0FDE1010EE66EBCECA0
