:020000040000FA
:0600000067EF74F012002E
:020006001200E6
:06000800D4EF58F01200D5
:02000E00C250DE
:08001000020B01E0010E1200D9
:0600180068EF5FF012002A
:02001E000600DA
:1000200014EA0000FE0400000200000010EA0000D4
:10003000FB0200000400000078E9000060000000FE
:100040009800000066E90000EA03000012000000CA
:1000500064E90000FE0000000200000034E9000036
:08006000A706000030000000BB
:0800680062EC2FF083E941E88E
:100070000150050801E2016A005003E0ADEC30F0E8
:10008000EF6A01EBACF600016B0E036F9E0E046F7E
:10009000000E056FEDEC30F0E5CF08F02AEC32F001
:1000A00000019CEC33F0ADEC30F0EFCF09F00A6BBF
:1000B0000B6B00510925F36E01510A21F46E0251B8
:1000C0000B21F86EF4CFF7FFF3CFF6FF0800F550E1
:1000D000036EADEC30F0EF2AEFCF00F0016B026B56
:1000E00013EC34F002C0E6FF6B0E096F9E0E0A6F30
:1000F000000E0B6FEDEC30F0E5CF0EF0E5CF0DF01C
:10010000E7CF0CF0000109510C25066F0A510D21B3
:10011000076F0B510E21086F44EC35F0E66E43EC8F
:100120006EF043E9E552E7CF02F0E552E7CF01F088
:10013000E552E7CF00F0FCC303F0FDC304F0FEC3BB
:1001400005F000010351005D0451015905510259A8
:1001500003E3ADEC30F0EF6A035042E9E7CFD9FF9B
:10016000120062EC2FF084E90001F5514FE00050DD
:1001700021E0025001240601AD6F3AEC34F0080E84
:10018000E66E9D0EE66E000EE66EA7EC2FF096EC86
:100190006EF047E93AEC34F00DEC35F00601A7ECCF
:1001A0002FF068EC6EF046E9060187EC33F0140E90
:1001B0002DEC31F00150030A0CE0010A08E0030ABB
:1001C00004E0010A09E1E66A08D0400E03D0140EEB
:1001D00001D0540EE66E01D0E66AE5EC71F041E91B
:1001E000015000019F250601AD6F00016A510EE02C
:1001F000F1EC31F0FDE10601A7EC2FF014EC73F007
:1002000042E9F1EC31F0FDE1010E90167BEF2FF0A9
:1002100000016E5104E066EC43F000016E6B725118
:1002200007E0726BF75102E0000E01D0010EF76F8C
:10023000755104E013EC11F00001756B685103E097
:10024000A7DA0001686B715104E0FBEC06F00001D5
:10025000716B6F5103E0BDDA00016F6B1200D9CFF3
:10026000E6FFE1CFD9FF85E90401766B776B786B08
:10027000796B04017651005C77510158785102582E
:100280007951035809E3000004000401762B000EA5
:10029000772378237923EDD741E9E7CFD9FF1200FF
:1002A000D9CFE6FFE1CFD9FF85E9030EE66E21EC59
:1002B0006DF041E992C67AF493C67BF494C67CF45F
:1002C00095C67DF46DEC6DF0D9CFE9FFDACFEAFF8A
:1002D00004017A51EE240401826F04017B51EE2067
:1002E0000401836F04017C51EE200401846F04013A
:1002F0007D51EE200401856F030EE66E21EC6DF05A
:1003000041E992C67EF493C67FF494C680F495C604
:1003100081F46DEC6DF004007E0EE96E040EEA6E61
:1003200004018251EE5C8351EE588451EE588551A0
:10033000EE58E2E341E9E7CFD9FF12006CEC33F06D
:1003400019E099EC2FF092C686F493C687F494C610
:1003500088F495C689F4D9EC2FF004018651EE2477
:100360008E6F8751EE208F6F8851EE20906F8951EC
:10037000EE20916F99EC2FF092C68AF493C68BF41D
:1003800094C68CF495C68DF46DEC6DF08A0EE96E12
:10039000040EEA6E04018E51EE5C8F51EE589051BE
:1003A000EE589151EE5802E2000E01D0010E7BEFA3
:1003B0002FF06CEC33F019E099EC2FF092C692F428
:1003C00093C693F494C694F495C695F4D9EC2FF0A3
:1003D00004019251EE249A6F9351EE209B6F945139
:1003E000EE209C6F9551EE209D6F99EC2FF092C6F8
:1003F00096F493C697F494C698F495C699F46DEC68
:100400006DF0960EE96E040EEA6E04019A51EE5CF0
:100410009B51EE589C51EE589D51EE5802E2000E51
:1004200001D0010E7BEF2FF06CEC33F019E099EC6A
:100430002FF092C69EF493C69FF494C6A0F495C67E
:10044000A1F4D9EC2FF004019E51EE24A66F9F5128
:10045000EE20A76FA051EE20A86FA151EE20A96F4A
:1004600099EC2FF092C6A2F493C6A3F494C6A4F418
:1004700095C6A5F46DEC6DF0A20EE96E040EEA6E61
:100480000401A651EE5CA751EE58A851EE58A951AF
:10049000EE5802E2000E01D0010E7BEF2FF06CEC63
:1004A00033F019E099EC2FF092C6AAF493C6ABF49E
:1004B00094C6ACF495C6ADF4D9EC2FF00401AA5162
:1004C000EE24B26FAB51EE20B36FAC51EE20B46F9F
:1004D000AD51EE20B56F99EC2FF092C6AEF493C6F5
:1004E000AFF494C6B0F495C6B1F46DEC6DF0AE0EF9
:1004F000E96E040EEA6E0401B251EE5CB351EE589F
:10050000B451EE58B551EE5802E2000E01D0010E82
:100510007BEF2FF06CEC33F019E099EC2FF092C6E2
:10052000B6F493C6B7F494C6B8F495C6B9F4D9EC4A
:100530002FF00401B651EE24BE6FB751EE20BF6F0D
:10054000B851EE20C06FB951EE20C16F99EC2FF079
:1005500092C6BAF493C6BBF494C6BCF495C6BDF477
:100560006DEC6DF0BA0EE96E040EEA6E0401BE5138
:10057000EE5CBF51EE58C051EE58C151EE5802E248
:10058000000E01D0010E7BEF2FF06CEC33F019E080
:1005900099EC2FF092C6C2F493C6C3F494C6C4F487
:1005A00095C6C5F4D9EC2FF00401C251EE24CA6FF0
:1005B000C351EE20CB6FC451EE20CC6FC551EE205D
:1005C000CD6F99EC2FF092C6C6F493C6C7F494C6CB
:1005D000C8F495C6C9F46DEC6DF0C60EE96E040E54
:1005E000EA6E0401CA51EE5CCB51EE58CC51EE5884
:1005F000CD51EE5802E2000E01D0010E7BEF2FF03C
:1006000000000401CE6B0601A7510401CE5D04E297
:1006100000000401CE2BF7D712000F0EE66E72EC2D
:1006200073F041E91200050EE66E72EC73F041E9D9
:10063000120062EC2FF082E96CA2FED700EBE6FF1D
:100640000AEC74F041E97BEF2FF0050EA2EF2FF0DA
:1006500000016A5101E11200F1EC31F0FDE11200FC
:1006600062EC2FF089E903340EE202500808000E14
:10067000035409E204EBFCF305EBFDF306EBFEF398
:1006800007EBFFF35FD00050011009E000018F0E6F
:10069000916FC20E926F750E936F3D0E06D00001E2
:1006A000916B926B800E936F3E0E946F1CEC33F047
:1006B00091C0E6FF92C0E6FF93C0E6FF94C0E6FF5C
:1006C00021EC35F01CEC33F004EBE6FF05EBE6FF24
:1006D00006EBE6FF07EBE6FF32EC64F0B2EC5FF00E
:1006E00032EC64F021EC35F0B4EC5FF0B4EC62F085
:1006F000E552E5CF98F0E5CF97F0E5CF96F0E7CF5C
:1007000095F08AEC2FF095C0EEFF96C0EEFF97C0F3
:10071000EEFF98C0EEFF001C0DE1011C0BE1000193
:10072000956B966B976B986B8AEC2FF0EE6AEE6A7E
:10073000EE6AEE6A95C0FCF396C0FDF397C0FEF337
:1007400098C0FFF37BEF2FF004004EC6E6FF4FC6C4
:10075000E6FF50C6E6FF51C6E6FF66DB44E9F3CF8D
:10076000E6FFF4CFE6FF010EE66E9D0EE66E000E8C
:10077000E66E200EE66E030EE66EA8EC70F047E91A
:10078000200EE66E030EE66EC2EC71F042E9120036
:10079000DBDFF50EE66EA60EE66E000E73EC32F0B1
:1007A0000401236B040123510AE10A0EE9EC32F043
:1007B00056DD44E931EC36F079EC5FF0F3D7020E08
:1007C000235DC2DF530EE66EA70EE66E000E73EFDA
:1007D00032F00400FE0EE66E9C0EE66E000EE66E33
:1007E000000EE66E020EE66EA8EC70F045E9000E13
:1007F000E66E020EE66EC2EC71F042E9A5DFF90E7C
:10080000E66E9C0EE66E000EE66E46EC71F043E975
:100810009CC0E6FF9DC0E6FF9EC0E6FF000EE66EB0
:10082000020EE66E2AEC6EF045E9000EE66E020E50
:10083000E66EC2EC71F042E9F70EE66E9C0EE66ED3
:10084000000EE66E46EC71F043E999C0E6FF9AC0EF
:10085000E6FF9BC0E6FF000EE66E020EE66E2AEC97
:100860006EF045E9000EE66E020EE66EC2EC71F027
:1008700042E9E10EE66E9C0EE66E000EE66E000E9C
:10088000E66E020EE66E2AEC6EF045E9000EE66EAC
:10089000020EE66EC2EC71F042E900018351E66E91
:1008A000E66A00016051E66EE66A5AC6E6FF5BC67C
:1008B000E6FF5CC6E6FF5DC6E6FF56C6E6FF57C626
:1008C000E6FF58C6E6FF59C6E6FF44C6E6FF45C642
:1008D000E6FF01C6E6FF02C6E6FF03C6E6FF04C662
:1008E000E6FF8350800B01E0010EE66EE66A83505E
:1008F000400B01E0010EE66EE66A8350200B01E03A
:10090000010EE66EE66A8350100B01E0010EE66E02
:10091000E66A8350080B01E0010EE66EE66A83503A
:10092000040B01E0010EE66EE66A8350020B01E063
:10093000010EE66EE66A8350010BE66EE66A000180
:100940006351E66EE66A520EE66E9C0EE66E000E8F
:10095000E66E000EE66E020EE66EA8EC70F069E937
:10096000000EE66E020EE66EC2EC71F042E9060180
:10097000A651E66EE66A7850E66EE66A6AC6E6FF5B
:100980006BC6E6FF6CC6E6FF6DC6E6FF4EC6E6FF29
:100990004FC6E6FF50C6E6FF51C6E6FF92C6E6FF29
:1009A00093C6E6FF94C6E6FF95C6E6FF6EEC62F0DE
:1009B00092C6E6FF93C6E6FF94C6E6FF95C6E6FF3D
:1009C0008EC6E6FF8FC6E6FF90C6E6FF91C6E6FF3D
:1009D00052C6E6FF53C6E6FF54C6E6FF55C6E6FF1D
:1009E0004AC6E6FF4BC6E6FF4CC6E6FF4DC6E6FF2D
:1009F00062C6E6FF63C6E6FF64C6E6FF65C6E6FFBD
:100A00008AC6E6FF8BC6E6FF8CC6E6FF8DC6E6FF0C
:100A100086C6E6FF87C6E6FF88C6E6FF89C6E6FF0C
:100A20006EC6E6FF6FC6E6FF70C6E6FF71C6E6FF5C
:100A30004EC6E6FF4FC6E6FF50C6E6FF51C6E6FFCC
:100A4000930EE66E9B0EE66E000EE66E000EE66EF0
:100A5000020EE66EA8EC70F075E9000EE66E020E6E
:100A6000E66EC2EC71F042E929C4E6FF2AC4E6FF53
:100A70002BC4E6FF2CC4E6FF66C6E6FF67C6E6FFAA
:100A800068C6E6FF69C6E6FF72C6E6FF73C6E6FF04
:100A900074C6E6FF75C6E6FF76C6E6FF77C6E6FFD4
:100AA00078C6E6FF79C6E6FF7AC6E6FF7BC6E6FFB4
:100AB0007CC6E6FF7DC6E6FF7EC6E6FF7FC6E6FF94
:100AC00080C6E6FF81C6E6FF340EE66E9B0EE66E3C
:100AD000000EE66E000EE66E020EE66EA8EC70F0FA
:100AE0005DE9000EE66E020EE66EC2EC71F042E9C0
:100AF0000401CF6B030E0401CF5D01E36ED104014D
:100B0000CF513C0DF3CFE9FFF4CFEAFF000EE92609
:100B1000050EEA22060EE926000EEA22EF5001E158
:100B200059D10401CF513C0DF3CFE9FFF4CFEAFFD7
:100B3000000EE926050EEA220F0EE926000EEA2233
:100B4000170EE926000EEA22EECFE6FFEECFE6FF13
:100B50000401CF513C0DF3CFE9FFF4CFEAFF000EC3
:100B6000E926050EEA220F0EE926000EEA22150EEE
:100B7000E926000EEA22EECFE6FFEECFE6FF040103
:100B8000CF513C0DF3CFE9FFF4CFEAFF000EE92689
:100B9000050EEA220F0EE926000EEA22290EE926AA
:100BA000000EEA22EECFE6FFEECFE6FF0401CF51C2
:100BB0003C0DF3CFE9FFF4CFEAFF000EE926050E66
:100BC000EA220F0EE926000EEA22270EE926000E81
:100BD000EA22EECFE6FFEECFE6FF0401CF513C0D57
:100BE000F3CFE9FFF4CFEAFF000EE926050EEA2273
:100BF0000F0EE926000EEA22090EE926000EEA226F
:100C0000EECFE6FFEECFE6FF0401CF513C0DF3CF70
:100C1000E9FFF4CFEAFF000EE926050EEA220F0EE7
:100C2000E926000EEA22110EE926000EEA22EECF96
:100C3000E6FFEECFE6FF0401CF513C0DF3CFE9FF15
:100C4000F4CFEAFF000EE926050EEA220F0EE92690
:100C5000000EEA22130EE926000EEA22EECFE6FF8E
:100C6000EECFE6FF0401CF513C0DF3CFE9FFF4CF07
:100C7000EAFF000EE926050EEA220F0EE926000E15
:100C8000EA22050EE926000EEA22EECFE6FFEECFBD
:100C9000E6FF0401CF513C0DF3CFE9FFF4CFEAFFAB
:100CA000000EE926050EEA220F0EE926000EEA22C2
:100CB000030EE926000EEA22EECFE6FFEECFE6FFB6
:100CC0000401CF513C0DF3CFE9FFF4CFEAFF000E52
:100CD000E926050EEA220F0EE926000EEA22EE5260
:100CE000EECFE6FFEECFE6FF0401CF51E66EE66AF7
:100CF000BC0EE66E9A0EE66E000EE66E000EE66E16
:100D0000020EE66EA8EC70F05BE9000EE66E020ED5
:100D1000E66EC2EC71F042E9E66AE66A7A0EE66EC9
:100D2000440EE66E0401CF513C0DF3CFE9FFF4CF42
:100D3000EAFF000EE926050EEA220F0EE926000E54
:100D4000EA221F0EE926000EEA22EECFE6FFEECFE2
:100D5000E6FFEECFE6FFEECFE6FF32EC64F02AECE2
:100D600061F0E66AE66A7A0EE66E440EE66E04010B
:100D7000CF513C0DF3CFE9FFF4CFEAFF000EE92697
:100D8000050EEA220F0EE926000EEA22230EE926BE
:100D9000000EEA22EECFE6FFEECFE6FFEECFE6FF53
:100DA000EECFE6FF32EC64F02AEC61F09B0EE66ECB
:100DB0009A0EE66E000EE66E000EE66E020EE66E0F
:100DC000A8EC70F049E9000EE66E020EE66EC2EC89
:100DD00071F042E90401CF2B8DD60001F75109E0F3
:100DE000830EE66E9A0EE66E000EE66E46EC71F02D
:100DF00043E904001200FC0EE66EA70EE66E000E3C
:100E000073EC32F0460EE66EA80EE66E000E73EC42
:100E100032F00001F75107E0830EE66E9A0EE66E9F
:100E2000000E73EC32F0120062EC2FF03FEC31F068
:100E300002E253EC31F000EBB6F601EBB7F602EB51
:100E4000B8F603EBB9F6B4EC30F0F7EC30F0E5CFE0
:100E5000B1F6E5CFB0F6E5CFAFF6E7CFAEF6B4EC3E
:100E600030F05CEC31F093EC33F0F1EC2FF00AEC65
:100E700031F0F7EC30F0E5CFB5F6E5CFB4F6E5CFDD
:100E8000B3F6E7CFB2F60AEC31F065EC31F093EC53
:100E900033F0F1EC2FF042EC34F0E66E65EC31F01B
:100EA0005CEC31F0710EE66E9A0EE66E000EF9EC17
:100EB00031F051E9C1EF33F062EC2FF03FEC31F04B
:100EC00002E253EC31F000EBC2F601EBC3F602EBA9
:100ED000C4F603EBC5F6B4EC30F0FEEC30F0E5CF31
:100EE000BDF6E5CFBCF6E5CFBBF6E7CFBAF6B4EC7E
:100EF00030F06EEC31F093EC33F00AEC30F00AECA9
:100F000031F0FEEC30F0E5CFC1F6E5CFC0F6E5CF2D
:100F1000BFF6E7CFBEF60AEC31F077EC31F093EC98
:100F200033F00AEC30F077EC31F06EEC31F0650E16
:100F3000E66E9A0EE66E000EF9EC31F04DE9C1EF67
:100F400033F062EC2FF083E901340EE300EB00F0A4
:100F500001EB01F00001006D011F000E012300C034
:100F6000F3FF01C0F4FF02D030EC31F07BEF2FF043
:100F700062EC2FF085E9033413E3E668E668E6687F
:100F8000E6681CEC32F003EBE6FF93EC33F000C0B4
:100F9000FCF301C0FDF302C0FEF303C0FFF308D071
:100FA00000EBFCF301EBFDF302EBFEF303EBFFF3CD
:100FB0007BEF2FF0A6EC33F026EC35F0B8EC2EF0FA
:100FC00080EC31F05D0EE66E9A0EE66E000E49EF93
:100FD00034F0A6EC33F0FFEC34F080EC31F0550E39
:100FE000E66E9A0EE66E000E49EF34F02BEC34F00C
:100FF00002E32D0E906FE7EC2FF005EC61F005ECAD
:101000002FF0FFEC34F0D6EC32F053EC2FF0D89008
:1010100000010351000A08E6DC0E005D050E0159CF
:10102000000E0259000E035917E2D6EC32F053ECD1
:101030002FF097EC30F090C004F00001056B04BF76
:1010400005692FEC32F04F0EE66E9A0EE66E000E3A
:1010500068EC30F04BE934D0E66AE66A7A0EE66E68
:10106000440ED1EC2FF005EC2FF026EC35F04EECD1
:1010700034F0E2C0E6FFE66E53EC2FF097EC30F070
:10108000D6EC32F075DF44E9FCC304F0FDC305F093
:10109000FEC306F0FFC307F097EC30F090C008F0F5
:1010A0000001096B08BF096908C0E6FF09C0E6FF37
:1010B000420EE66E9A0EE66E000E68EC30F04FE9D6
:1010C00030EC31F07BEF2FF02BEC34F002E32D0EFF
:1010D000906FE66AE66A200EE66E410EAEEC33F0E3
:1010E00005EC61F0B4EC62F0E552E5CFC9F0E5CF74
:1010F000C8F0E5CFC7F0E7CFC6F086EC31F033ECAF
:1011000033F0200EE66E410EE66E86EC31F02CECEC
:1011100035F00A0E4EEC34F000EC32F049EC35F0CC
:1011200000EC32F090C000F00001016B00BF0169DB
:1011300013EC34F0380EE66E9A0EE66E000E68EC94
:1011400030F04BE930EC31F07BEF2FF062EC2FF018
:1011500085E999EC2FF003500001006F016B013518
:101160004AE20051FA08000E015545E2FF0E35EC47
:1011700031F00AE1F45008E10001775101E183D137
:101180006DEC6DF0010E82D1FE0E35EC31F009E10F
:10119000F45007E16DEC6DF0020172EC2FF0040EDB
:1011A00027D0FD0E35EC31F009E1F45007E10001E4
:1011B000010E776F6DEC6DF0FD0E68D1FC0E35EC15
:1011C00031F008E1F45006E10001776B6DEC6DF051
:1011D000FC0E5CD1FB0E35EC31F00DE1F4500BE16F
:1011E0000001776B6DEC6DF0020172EC2FF0050ED3
:1011F00018EC34F04BD10001775101E144D10201E8
:10120000FF51000801E33FD1FF0772EC2FF0040EFD
:10121000CFEC34F0EFCFC7F6A4EC03F01CEC32F0C7
:1012200046EC71F043E9020172EC2FF0E1EC2FF093
:10123000FF51E66EE66A260EE66E9A0EE66E000E28
:1012400012EC35F00601C66BC651C62BC75D07E12F
:10125000D70EE66EAA0EE66E000E73EC32F067EC67
:101260002FF007E1F70EE66EAA0EE66E000E73ECA5
:1012700032F067EC2FF007E1270EE66EAB0EE66E5C
:10128000000E73EC32F067EC2FF007E14A0EE66EC9
:10129000AB0EE66E000E73EC32F067EC2FF007E158
:1012A0006D0EE66EAB0EE66E000E73EC32F067EC80
:1012B0002FF007E19E0EE66EAB0EE66E000E73ECAD
:1012C00032F067EC2FF007E1D20EE66EAB0EE66E61
:1012D000000E73EC32F067EC2FF007E1070EE66EBC
:1012E000AC0EE66E000E73EC32F067EC2FF007E107
:1012F000400EE66EAC0EE66E000E73EC32F067EC5C
:101300002FF007E16E0EE66EAC0EE66E000E73EC8B
:1013100032F067EC2FF007E1950EE66EAA0EE66E4E
:10132000000E73EC32F067EC2FF007E1B50EE66EBD
:10133000AA0EE66E000E73EC32F067EC2FF007E1B8
:10134000C50EE66EA90EE66E000E73EC32F067EC89
:101350002FF007E19E0EE66EAC0EE66E000E73EC0B
:1013600032F067EC2FF007E1DF0EE66EAC0EE66EB2
:10137000000E73EC32F067EC2FF007E1050EE66E1D
:10138000AD0EE66E000E73EC32F067EC2FF007E165
:101390002B0EE66EAD0EE66E000E73EC32F067ECCF
:1013A0002FF007E1570EE66EAD0EE66E000E73EC01
:1013B00032F067EC2FF007E16F0EE66EAD0EE66ED1
:1013C000000E73EC32F067EC2FF007E1860EE66E4C
:1013D000AD0EE66E000E73EC32F067EC2FF007E115
:1013E0002A0EE66EB10EE66E000E73EC32F067EC7C
:1013F0002FF007E1680EE66EB10EE66E000E73EC9C
:1014000032F067EC2FF007E1870EE66EB10EE66E64
:10141000000E73EC32F067EC2FF007E1B30EE66ECE
:10142000AD0EE66E000E73EC32F00601C651D880A8
:10143000C75517E2C7510001006F016BFA0ED89033
:1014400001BF03D0005D000E01590BE20601C75138
:10145000E66EE66A0C0EE66E9A0EE66E000EDCECA8
:1014600034F00201FF5102E10001776B020172ECDE
:101470002FF0050E2DEC31F072EC2FF0EE6AEE6AD3
:10148000EE6AEE6ABCD66DEC6DF0000E7BEF2FF0CD
:101490000001010E666F83A449D031EC36F0640E72
:1014A000E9EC32F005C6E6FF06C6E6FF07C6E6FF32
:1014B00008C6E6FF6EEC62F0A0EC30F0B5DC44E963
:1014C000F3CFE6FFF4CFE6FFF20EE66E990EE66E7E
:1014D000000EA9EC2EF04BE9010EE66EE66A23EC55
:1014E00032F0E66E23EC32F0020E78EC32F0A0EC33
:1014F00030F08FEC31F06EEC62F08FEC31F0A0EC5C
:1015000030F0D20EE66E990EE66E000EA9EC2EF0CB
:1015100051E9010EE66E030E78EC32F0880EE66EAD
:10152000130E55EC34F079EC5FF0B5D70001666B23
:10153000120062EC2FF083E91B0EECEC31F05B0E35
:10154000ECEC31F0320EECEC31F04A0EECEC31F018
:10155000E80EE66EA60EE66E000E73EC32F09B0E01
:10156000E66EA60EE66E000E73EC32F07BEF2FF007
:1015700062EC2FF082E900017A5128E17B5109E009
:101580003AEC34F00001760E036FA00E046F000EEB
:1015900008D03AEC34F000013C0E036FA10E046F4A
:1015A000000E056F160E60EC35F000EBE6FFE66A04
:1015B000E66A81EC63F0E552E5CF08F02AEC32F000
:1015C00000017FEC2FF000EB7CF02DD000500601E5
:1015D000C85D21E00001816BA0EC6AF08B920401F0
:1015E000D06BD0510A0814E3CDEC30F00401D025C3
:1015F0000001066F076B086B7FEC2FF0010EE66EA3
:10160000E66AB9EC30F03EEC30F00401D02BE9D7BB
:1016100000EBC8F608D0CDEC30F00A0F066F076B70
:10162000086B7FEC2FF0010EE66EE66AB9EC30F045
:10163000E66A010EE66EB9EC30F0E66A020EE66E7E
:10164000B9EC30F0E66A030EE66EB9EC30F07BEFF1
:101650002FF00401D16B030ED15D07E2D151E0EC14
:1016600031F0FE0EEF6ED12BF6D70001DB5181EC8D
:1016700034F002E1765123E076510EE00401D251BC
:10168000D22B32080DE20601C92BC951050801E22F
:10169000C96B0401D26B04D0030EDB250601C96FB0
:1016A000E66AC9C6E6FF34EC00F042E9E66E0001E6
:1016B000DB51E0EC31F0E552E750EF6E1200DB5108
:1016C000E0EC31F0EF68120062EC2FF081E943E8C2
:1016D000026A00017B5104E1825102E1855102E07E
:1016E000030E69D2DB51016E6BEC35F01BEC34F06C
:1016F000EE6AED6A010EE66E8EEC30F06BEC35F0C2
:1017000098EC31F0EE50ED1006E014EC31F00CE105
:10171000010EE66E05D014EC31F006E0E66A010E2B
:10172000E66EBAEC6AF042E9D950030FE66EDACF02
:10173000E6FF47DA42E90001F651035C08E18B96C7
:10174000010E7B6F03EBE6FF13DF41E931D231EC91
:1017500036F0C3EC0FF067EC33F00DE200510408F3
:10176000000E015508E206019A0ECA6F990ECB6F62
:10177000CC6F3E0E11D0015081EC34F007E0060131
:10178000CA6BCB6BC00ECC6F3F0E06D00601A9EC26
:1017900030F003E018EC31F0CD6F000186516DE0C0
:1017A0007EEC32F008EC32F005AF02D00669076932
:1017B0008FEC33F006E6D8802C0E0055010EBFECFE
:1017C00030F014E28DBE25D0CAEC33F083EC30F05B
:1017D0008D8E0001806FF75107E0B80EE66E990E0E
:1017E000E66E000E73EC32F08D8013D08DAE11D00A
:1017F000CAEC33F02DEC31F08D9E0001806BF75177
:1018000007E09F0EE66E990EE66E000E73EC32F066
:101810008D807EEC32F008EC32F005AF02D0066924
:1018200007698FEC33F006E6D880900E0055010E64
:10183000BFEC30F012E28DB620D08DAE1ED000018C
:10184000010E876FF75107E07B0EE66E990EE66E8C
:10185000000E73EC32F08D8610D08DA60ED08DAEBA
:101860000CD00001876BF75107E0580EE66E990E19
:10187000E66E000E73EC32F08D96EBEC34F0C10E98
:101880005AEC34F004E60051025D0151035901E3C2
:101890008FD07EEC32F0EECF04F0EFCF05F0BBEC52
:1018A0002FF0410E60EC34F02AEC32F000010735E5
:1018B0000751051904E60651045D0751055901E376
:1018C00077D0025045E00001865142E00601CE513A
:1018D000CF1117E067EC34F00001F75112E026EC6D
:1018E00033F001E0010E91EC34F097EC33F00B0E85
:1018F000E66E990EE66E000EA9EC2EF04DE984EC32
:1019000032F0015014EC2FF004013F0551E1015079
:101910001EEC34F00601CE51CF114AE0A9EC30F0B4
:1019200003E018EC31F0CD6F0001F7513DE026ECFB
:1019300033F001E0010E91EC34F097EC33F0C40E7B
:10194000E66E980EE66E000EA9EC2EF04DE923D05F
:1019500001501EEC34F0015014EC2FF00601CE5172
:10196000CF1126E0A9EC30F003E018EC31F0CD6F98
:101970000001F75119E026EC33F001E0010E91EC83
:1019800034F0E3EC30F06C0EE66E980EE66E000E6E
:10199000A9EC2EF04FE984EC32F0A90EE66E980E19
:1019A000E66E000E73EC32F00601CE6BCF6B8B96B9
:1019B000EBEC34F0410E5AEC34F004E60051025DD9
:1019C0000151035948E241EC33F018EC34F014E1D2
:1019D0006BEC35F01BEC34F0EE2AEF2267EC33F0C1
:1019E0000BE200510108000E015506E20601662BCC
:1019F000000E6723682369236BEC35F0020E83EC3D
:101A000030F006EC35F004E1000101510601D11976
:101A100022E07EEC32F010EC32F007AF02D0086921
:101A2000096928EC30F002E649EC31F014E20001DB
:101A3000F7510FE026EC33F001E0010E91EC34F0A9
:101A400076EC33F01F0EE66E980EE66E000E73EC29
:101A500032F032EC35F0EBEC34F0C10E7DEC30F0CE
:101A6000000103350351011904E60251005D0351E1
:101A700001592EE241EC33F02DEC31F006EC35F05B
:101A800004E1000101510601D11922E07EEC32F09F
:101A900010EC32F007AF02D00869096928EC30F089
:101AA00002E649EC31F014E20001F7510FE026ECB8
:101AB00033F001E0010E91EC34F076EC33F0080ED7
:101AC000E66E980EE66E000E73EC32F032EC35F0F6
:101AD00067EC33F00AE200510108000E015505E2FF
:101AE0006BEC35F0050E83EC30F06BEC35F06FEC01
:101AF00030F001350AE200510208000E015505E2FE
:101B00006BEC35F0090E83EC30F0015081EC34F0D1
:101B100010E006010051010B0CE10051020B09E13C
:101B20000051040B06E1E66A8EEC30F0000901E199
:101B3000FBD50001865103E0876B8D9E806BE66AC2
:101B40008EEC30F0000913E00001F75107E0B90E08
:101B5000E66E970EE66E000E73EC32F000018651D1
:101B600002E0A4EC31F0E6EC31F0040E24D00601E2
:101B70000051010B06E10051020B03E10051040B7F
:101B800019E00001F75107E0630EE66E970EE66E6E
:101B9000000E73EC32F00001865102E0A4EC31F04B
:101BA000060100A105D000910001010E7B6F8B960C
:101BB000020E01D0000EF36EF46A44E9E7CFD9FFBC
:101BC000120062EC2FF083E983380F0B0001F61549
:101BD0000401D36F0001F6510401D35D42E100011D
:101BE000F6510601D25D03E0040EA2EC2FF0ADEC3D
:101BF00031F02EE10001F6510601D25D13E078ECE0
:101C000030F0070EEF6E6EEC34F00401D451E66E46
:101C1000E66A470EE66E970EE66E000EDCEC34F0D8
:101C200033EC34F0000184510FE0260EE66E970E7F
:101C3000E66E000EA9EC2EF0B6EC31F0F6C0D2F64E
:101C400078EC30F0070EEF6E0001846BF6514FD048
:101C5000D4511FEC31F0D20EE66E960EE66E000EF9
:101C60003FD0D3510601D25D3DE0030EE66E90EC0D
:101C70005FF041E9040EA2EC2FF0ADEC31F028E169
:101C800078EC30F0D3C4EFFF6EEC34F078EC30F049
:101C9000EF501FEC31F0930EE66E960EE66E000EDE
:101CA00012EC35F078EC30F0EFCFD2F633EC34F0C4
:101CB0000001845109E1740EE66E960EE66E000E88
:101CC000A9EC2EF0B6EC31F00001010E846F0ED0BD
:101CD000D4511FEC31F0210EE66E960EE66E000E2A
:101CE00012EC35F078EC30F0D2C6EFFF000E7BEF4F
:101CF0002FF023EC33F00AE10401D56B34EC32F021
:101D000001E3DB6B38EC35F0F9E0A3DC060100A35E
:101D10001ED08B840401D56B34EC32F001E3DB6B15
:101D200038EC35F0F9E095DC26EC31F00F0EE66E7C
:101D3000960EE66E000EDCEC34F0F40EE66E950EB8
:101D4000E66E000E73EC32F08B94060100930051A6
:101D5000010B08E1E66AB9EC31F000091BE0000173
:101D60007A5118E000017A5106E17B5102E0000E41
:101D700001D0010E7B6F99EC32F0CA0EE66E950E23
:101D8000E66E000E73EC32F000017A6B06010091F2
:101D90008B906BD004010F0566E0E66A3EEC35F0EF
:101DA000000963E0010EE66EB9EC31F00001010EAE
:101DB0007A6F8B8004010F5129E14BEC33F002E67E
:101DC00074EC34F023E20001010E7A6F8B908451A1
:101DD00011E10601D32BB7EC2FF0080E0601D35DFD
:101DE00001E3D36BF7EC34F0B20EE66E950EE66EBF
:101DF000000E35D07AEC34F001E3A16B0BEC33F03C
:101E00008B0EE66E950EE66E000E29D04BEC33F08D
:101E100002E674EC34F025E20001010E7A6F8B903B
:101E2000845112E10601D307B7EC2FF0080E06012A
:101E3000D35D02E3070ED36FF7EC34F0740EE66E59
:101E4000950EE66E000E0BD07AEC34F001E3A16B38
:101E50000BEC33F05D0EE66E950EE66E000E73EC45
:101E600032F08B8002D0B7EC2FF000017A5102E003
:101E70008B8001D08B90855170E17B5102E18251C2
:101E80006AE014EC31F006E0E66A010EE66EBAECA8
:101E90006AF042E904011F0546E0E66A72EC30F0A0
:101EA00000095BE08B8404011F511AE11B35000E11
:101EB0001B1909E6D880010E1855000E1955000EA1
:101EC0001A55000E1B550CE280EC33F083EC30F019
:101ED000DCEC32F01F0EE66E980EE66E000E20D09F
:101EE000020E1F5D3AE118C4E6FF19C4E6FF1AC4EA
:101EF000E6FF1BC4E6FF4EEC35F006E6D880010E87
:101F00000055000EBFEC30F028E280EC33F02DECF1
:101F100031F0DCEC32F0080EE66E980EE66E000E44
:101F200073EC32F01AD0000182510CE1DB511EEC4F
:101F300034F0E4EC34F0020E83EC30F0DB5114ECBE
:101F40002FF003D0DB511EEC34F0010EE66E72EC84
:101F500030F08B9402D064EC0BF000017B5107E071
:101F6000E66A86EC34F00CE1010EE66E05D0E66A16
:101F700086EC34F005E0E66AE66ABAEC6AF042E91B
:101F80000601D351120029EC0BF0070E00017C5D15
:101F900002E147EF11F07C51060A16E0030A16E051
:101FA000060A10E0010A0CE0060A08E0050A04E04F
:101FB000010A0CE1F9EF11F0AFEF11F07FEF12F031
:101FC00073EF11F041EF12F025EF13F08AC0FBFF21
:101FD00089C0FAFF88511400120062EC2FF082E9E8
:101FE00047E8076A086AA0EC6AF000017B5104E147
:101FF00005012C512D1102E0030E09D00001806B68
:102000000401355136113711381104E1020EF36E17
:10201000F46A72D0026A0250005C68E3C0EC32F0ED
:102020000A0EE66ED70EE66E230EE66E3C0E45EC0B
:102030002FF001EC33F05AE1036A046A056A066A7C
:10204000D890065002E6BFEC31F00FE2FA0EE66ED1
:102050007E0EE66E2A0EE66E3F0E9FEC34F005E132
:10206000D950030F43EC30F0EBD7036A046A056ADA
:10207000066AD890065002E6BFEC31F00FE2FA0E85
:10208000E66E7E0EE66EAA0EE66E3E0E9FEC34F015
:1020900005E1D950030F43EC30F0EBD7660EE66E46
:1020A000E66EE66E3F0E52EC35F020E1CD0EE66EA8
:1020B000CC0EE66EE66E3D0E52EC35F017E1E66AA8
:1020C000E66AE66A3F0E52EC35F010E10601005177
:1020D000010B06E10051020B03E10051040B04E087
:1020E000010E076E086A02D0022A95D7B8EC33F0C9
:1020F00007EBF3FF08EBF4FF48E9E7CFD9FF120045
:1021000062EC2FF082E948E8086A096AA0EC6AF0FC
:1021100000017B5104E105012C512D1104E0030E57
:10212000F36EF46A7CD00001806B026A0050025C9E
:1021300070E2036A030E035C6AE203EBDBF023EC5C
:1021400033F063E0C0EC32F0BDEC32F0640EEE6EC2
:10215000ED6A01EC33F05BE1046A056A066A076A1E
:10216000D890075002E6C8EC31F00DE2D1EC31F026
:102170009A0E0027020ED3EC34F005E1D950040F7B
:1021800043EC30F0EDD7046A056A066A076AD89016
:10219000075002E6C8EC31F00DE2D1EC31F04D0E03
:1021A0000027010ED3EC34F005E1D950040F43ECC5
:1021B00030F0EDD7BDEC32F0840EEE6E030EED6E16
:1021C000EFEC34F0BDEC32F0640EEE6EED6AEFEC45
:1021D00034F00250A1EC2EF00D0ECFEC34F071EC87
:1021E00033F0BDEC32F02EEC33F0EFEC34F00601BE
:1021F0000051010B06E10051020B03E10051040BF9
:1022000004E0010E086E096A02D0032A93D7022A5D
:102210008DD7B8EC33F008EBF3FF09EBF4FF49E995
:10222000E7CFD9FF120029EC0BF000017C51070A1F
:102230001AE0010A13E0030A0FE0060A0DE0010AA2
:102240000BE0060A05E0050A07E0010A0EE104D0EA
:10225000030EE66EC2DE05D0020E01D0040EE66E5D
:102260004FDF41E9120047EF11F0DEEF12F041DDE0
:102270000601D46FD40EE66E060EE66EA2DC42E9CD
:10228000D4C6E6FFB8EC0AF041E9C3EF0FF0000155
:10229000A15120E123EC34F0090EE66E950EE66EB6
:1022A000000E8DEC34F0BAEC34F0E8EC30F0F30EC4
:1022B000E66E940EE66E000E8DEC34F0C9EC34F050
:1022C00039EC32F0DD0EE66E940EE66E000E8DEC0B
:1022D00034F007D077EC35F09FEC2FF081EC32F042
:1022E00045E9D4EF2FF00001A1511AE1CDEC2FF018
:1022F000D9EC30F09E0EE66E940EE66E000E3EECCB
:1023000034F0BAEC34F07D0EE66E940EE66E000EFC
:10231000F3EC34F0600EE66E940EE66E000E1DD007
:10232000CCEC34F00CE0E1EC2EF016EC35F0390E8C
:10233000E66E940EE66E000EA9EC2EF04DE9F7EC79
:1023400032F01F0EE66E940EE66E000EF3EC34F0E3
:102350001F0EE66E940EE66E000E28EF34F00001BC
:10236000A15134E1CDEC2FF0D9EC30F0F60EE66E51
:10237000930EE66E000E3EEC34F06CEC2FF074C55C
:10238000E6FF75C5E6FF72C5E6FF73C5E6FFE8EC3C
:1023900030F0CD0EE66E930EE66E000E3EEC34F09D
:1023A00023EC30F0B0C5E6FFB1C5E6FFAEC5E6FFF1
:1023B000AFC5E6FF39EC32F0A40EE66E930EE66E82
:1023C000000EA9EC2EF0DAEC31F011D0CCEC34F0A8
:1023D00002E089EC32F0BEEC34F002E091EC32F035
:1023E00098EC34F002E0B5EC32F029EC33F043E93C
:1023F00012000001A15132E1CDEC2FF059EC30F088
:10240000060EE66E930EE66E000E3EEC34F0BAEC6D
:1024100034F0E8EC30F0EE0EE66E920EE66E000E52
:102420008DEC34F023EC30F0E7EC34F0B0C5E6FF8F
:10243000B1C5E6FFFDEC32F0AEC5E6FFAFC5E6FF85
:10244000C8EC61F039EC32F0C50EE66E920EE66E25
:10245000000EA9EC2EF0DAEC31F011D0CCEC34F017
:1024600002E089EC32F0BEEC34F002E091EC32F0A4
:1024700098EC34F002E0B5EC32F029EC33F043E9AB
:1024800012000001A15117E110EC34F06CEC2FF0B8
:10249000E7EC34F074C5E6FF75C5E6FFFDEC32F0FD
:1024A00072C5E6FF73C5E6FFC8EC61F0E8EC30F0FA
:1024B0006EEC35F009D077EC35F018EC32F002E034
:1024C00091EC32F01BEC35F028EF34F00001A15113
:1024D00009E110EC34F06CEC2FF059EC30F06EECBC
:1024E00035F00BD064EC35F0BAEC34F0CCEC34F0D1
:1024F00002E089EC32F01BEC35F028EF34F00001FB
:10250000A15149E114C5E6FF15C5E6FF10C4E6FF79
:1025100011C4E6FF12C4E6FF13C4E6FF29C4E6FFB8
:102520002AC4E6FF2BC4E6FF2CC4E6FF23EC34F0FC
:10253000650EE66E920EE66E000EA9EC2EF051E9E5
:10254000BAEC34F0050101511DE00251E66EE66A75
:102550003E0EE66E920EE66E000E8DEC34F0C9EC87
:1025600034F031C4E6FF32C4E6FF33C4E6FF34C4BE
:10257000E6FF1D0EE66E920EE66E000EA9EC2EF042
:1025800049E906D088EC30F0F3EC34F010EC34F08C
:10259000C2EC34F011D0CCEC34F002E055EC33F066
:1025A000BEEC34F002E0ECEC32F098EC34F002E0F7
:1025B0005EEC33F029EC33F043E912000001A15145
:1025C0001AE1920EE66E910EE66E000E67EC35F0A3
:1025D000BAEC34F07C0EE66E910EE66E000EF3EC73
:1025E00034F0660EE66E910EE66E000E67EC35F086
:1025F000C2EC34F011D0CCEC34F002E089EC32F0D3
:10260000BEEC34F002E091EC32F098EC34F002E0F1
:10261000B5EC32F029EC33F043E912004F0EE66ED0
:10262000910EE66E000E67EC35F0BAEC34F0380E21
:10263000E66E910EE66E000EF3EC34F0210EE66EBF
:10264000910EE66E000E28EF34F00001A15149E131
:1026500064EC35F0640E0501D89089BF03D0885D25
:10266000000E89590AE253EC30F0020EE66E910E2C
:10267000E66E000EA9EC2EF047E9BAEC34F08DB20C
:102680000AD053EC30F0E8EC30F0E30EE66E900E3A
:10269000E66E000E09D04DEC30F0E8EC30F0C40EE0
:1026A000E66E900EE66E000EA9EC2EF049E9C9EC3C
:1026B00034F064EC35F0640E0501D89011BF03D0FE
:1026C000105D000E11590AE24DEC30F0A60EE66ED8
:1026D000900EE66E000EA9EC2EF047E9C2EC34F045
:1026E00011D0CCEC34F002E055EC33F0BEEC34F019
:1026F00002E0ECEC32F098EC34F002E05EEC33F007
:1027000029EC33F043E9120062EC2FF082E942E851
:10271000026A036A030ED89003BE03D0025C000E67
:1027200003581DE20050E66E02EBE9FF03EBEAFFFF
:102730003C0EEA02F3CFEAFFE902F3CFE9FFF450DF
:10274000EA26000EE926050EEA2298EC31F0E55261
:10275000E750EE6EED6A022A000E0322DBD743E952
:10276000E7CFD9FF1200DBC0D6F40001DB6BE4EC4D
:1027700034F0C5EC30F002E064EC0BF034EC32F0F5
:10278000F6E3A0EC6AF0D6C4DBF0010EA2EF2FF066
:10279000D9CFE6FFE1CFD9FF81E951E8E80E056E18
:1027A000030E066E076A086A096A0A6A0B6A0C6AEF
:1027B000580E0D6E106A116A0001816B31EC36F013
:1027C00031EC36F0060100950001A16B7CC0E6FFFC
:1027D00057EC6BF041E90001855107E08B92000155
:1027E0007B6B0001806B87EF2AF0820EE66E900E05
:1027F000E66E000EE66E46EC71F043E9020E000153
:102800007C5D06E1D00E056E070E066E076A086A4B
:102810000001010E7B6F0501080503E10001010EB7
:10282000806FA0EC6AF0010EE66EE66AE66AE66A80
:1028300050EC01F044E900017C5118E1020EE66E13
:10284000E66AE66AE66A05EBE6FF06EBE6FF07EBFB
:10285000E6FF08EBE6FFE1EC63F0E552E550086EB9
:10286000E550076EE550066EE750056E030E000159
:102870007C5D18E1020EE66EE66AE66AE66A05EB42
:10288000E6FF06EBE6FF07EBE6FF08EBE6FFE1EC11
:1028900063F0E552E550086EE550076EE550066EB0
:1028A000E750056E050E00017C5D18E1020EE66E34
:1028B000E66AE66AE66A05EBE6FF06EBE6FF07EB8B
:1028C000E6FF08EBE6FFE1EC63F0E552E550086E49
:1028D000E550076EE550066EE750056EE66A14DFB8
:1028E00041E9A3EC6AF0010EE66E05EBE6FF06EBAC
:1028F000E6FF07EBE6FF08EBE6FF4FEC02F045E9E9
:10290000016A026A036A046A0001865102E071EFFB
:102910001DF0060E00017C5D01E0C7D30E6A0F6A50
:102920000F3404E20E500108000E0F5401E29DD254
:10293000640E056E066A076A086A010EE66E05EB0C
:10294000E6FF06EBE6FF07EBE6FF08EBE6FF4FECE2
:1029500002F045E9A3EC6AF0016A026A036A046ABC
:1029600080C0E6FFA6EC6AF041E9D00EE66E070EE5
:10297000E66EE66AE66A01EBE6FF02EBE6FF03EBD2
:10298000E6FF04EBE6FF71EC62F0E552E5CF03F001
:10299000E5CF02F0E5CF01F0E7CF00F000010051F4
:1029A00001110211031101E0D8D0060100A52BD0BE
:1029B000A0EC6AF0010EE66EA7DE41E986EC5FF05E
:1029C000060EE66EE66AE66AE66A50EC01F044E955
:1029D0008B920001010E7B6F0001806B80C0E6FFCF
:1029E000A6EC6AF041E97CC0E6FF57EC6BF041E9E8
:1029F000540EE66E900EE66E000EE66E46EC71F03A
:102A000043E987EF2AF08BEC2AF00EEBE6FF0FEBA1
:102A1000E6FF380EE66E900EE66E000EE66E000ED5
:102A2000E66E020EE66EA8EC70F047E9010EE66E67
:102A3000E66A9FC0E6FFB1EC00F043E90A0EE66EDD
:102A4000E66A88C5E6FF89C5E6FFC8EC61F00D0EB1
:102A5000E66E900EE66E000EE66E000EE66E020E5C
:102A6000E66EA8EC70F047E9640E0501D89089BFC6
:102A700003D0885D000E895916E20A0EE66EE66AFA
:102A800088C5E6FF89C5E6FFC8EC61F0EE0EE66E8C
:102A90008F0EE66E000EE66E000EE66E020EE66E1D
:102AA000A8EC70F047E9010EE66E010EE66EE66AEC
:102AB000B1EC00F043E9C60EE66E8F0EE66E000E36
:102AC000E66E000EE66E020EE66EA8EC70F045E9CA
:102AD000010EE66E020EE66EE66AB1EC00F043E926
:102AE0000A0EE66EE66A10C5E6FF11C5E6FFC8EC01
:102AF00061F0990EE66E8F0EE66E000EE66E000E29
:102B0000E66E020EE66EA8EC70F047E9640E050171
:102B1000D89011BF03D0105D000E115916E20A0EB5
:102B2000E66EE66A10C5E6FF11C5E6FFC8EC61F087
:102B3000A60EE66E900EE66E000EE66E000EE66ED7
:102B4000020EE66EA8EC70F047E9010EE66E030E89
:102B5000E66EE66AB1EC00F043E9D950010FE96E88
:102B6000DACFEAFFEE2A000EEE22EE22EE22E66A2D
:102B700005EBE6FF06EBE6FF07EBE6FF08EBE6FFFB
:102B80004FEC02F045E9000901E1EAD6640E0501C7
:102B9000D89089BF03D0885D000E89590CE20501E9
:102BA000113504E210519008010E115504E2010E96
:102BB0000501666F676B640E0501D89011BF03D0E5
:102BC000105D000E115903E20501646B656B010E87
:102BD000E66E05EBE6FF06EBE6FF07EBE6FF08EB2C
:102BE000E6FF4FEC02F045E9A0EC6AF0016A026AE8
:102BF000036A046A80C0E6FFA6EC6AF041E9D00EE1
:102C0000E66E070EE66EE66AE66A01EBE6FF02EBA9
:102C1000E6FF03EBE6FF04EBE6FF71EC62F0E55242
:102C2000E5CF03F0E5CF02F0E5CF01F0E7CF00F00C
:102C30000001005101110211031101E0D8D0060179
:102C400000A52BD0A0EC6AF0010EE66E5DDD41E937
:102C500086EC5FF0060EE66EE66AE66AE66A50EC1F
:102C600001F044E98B920001010E7B6F0001806B43
:102C700080C0E6FFA6EC6AF041E97CC0E6FF57ECB5
:102C80006BF041E9540EE66E900EE66E000EE66EB5
:102C900046EC71F043E987EF2AF08BEC2AF00EEB5B
:102CA000E6FF0FEBE6FF7E0EE66E8F0EE66E000E81
:102CB000E66E000EE66E020EE66EA8EC70F047E9D6
:102CC000010EE66EE66A9FC0E6FFB1EC00F043E954
:102CD0000A0EE66EE66A88C5E6FF89C5E6FFC8EC1F
:102CE00061F00D0EE66E900EE66E000EE66E000EC2
:102CF000E66E020EE66EA8EC70F047E9640E050180
:102D0000D89089BF03D0885D000E895916E20A0E5B
:102D1000E66EE66A88C5E6FF89C5E6FFC8EC61F0A5
:102D2000EE0EE66E8F0EE66E000EE66E000EE66E9E
:102D3000020EE66EA8EC70F047E9010EE66E010E99
:102D4000E66EE66AB1EC00F043E9530EE66E8F0ED4
:102D5000E66E000EE66E000EE66E020EE66EA8EC63
:102D600070F045E9010EE66E020EE66EE66AB1EC21
:102D700000F043E90A0EE66EE66A10C5E6FF11C5EB
:102D8000E6FFC8EC61F0990EE66E8F0EE66E000E5F
:102D9000E66E000EE66E020EE66EA8EC70F047E9F5
:102DA000640E0501D89011BF03D0105D000E1159BB
:102DB00016E20A0EE66EE66A10C5E6FF11C5E6FFEA
:102DC000C8EC61F0A60EE66E900EE66E000EE66EA2
:102DD000000EE66E020EE66EA8EC70F047E9010EFA
:102DE000E66E030EE66EE66AB1EC00F043E9D950F8
:102DF000010FE96EDACFEAFFEE2A000EEE22EE2294
:102E0000EE22E66A05EBE6FF06EBE6FF07EBE6FFE0
:102E100008EBE6FF4FEC02F045E9000901E1EAD6D4
:102E2000640E0501D89011BF03D0105D000E11593A
:102E30000CE20501893504E288519008010E89559C
:102E400004E2010E0501646F656B640E0501D89004
:102E500089BF03D0885D000E895903E20501666BC6
:102E6000676B0E2A000E0F225BD58B9200017B6BE5
:102E70000001806B05016451651105E00501665193
:102E8000671101E007D10501425101E103D10601BB
:102E90000095590E0D6E0DEB00F00001016B00BFA7
:102EA000016900C0E6FF01C0E6FF330EE66E8F0E3B
:102EB000E66E000EE66E000EE66E020EE66EA8EC02
:102EC00070F047E9010EE66EE66A9FC0E6FFB1ECDE
:102ED00000F043E9000EE66E020EE66EC2EC71F001
:102EE00042E9FE0EE66E9C0EE66E000EE66E46ECC5
:102EF00071F043E964C5E6FF65C5E6FF66C5E6FF18
:102F000067C5E6FF1C0EE66E8F0EE66E000EE66EDF
:102F1000000EE66E020EE66EA8EC70F049E9010EB6
:102F2000E66E010EE66EE66AB1EC00F043E9000ED3
:102F3000E66E020EE66EC2EC71F042E9FE0EE66E3F
:102F40009C0EE66E000EE66E46EC71F043E9050E4F
:102F5000E66E8F0EE66E000EE66E000EE66E020E58
:102F6000E66EA8EC70F045E90501665167110DE1C8
:102F7000E90EE66E8E0EE66E000EE66E000EE66E52
:102F8000020EE66EA8EC70F045E9010EE66E020E48
:102F9000E66EE66AB1EC00F043E9000EE66E020E62
:102FA000E66EC2EC71F042E9FE0EE66E9C0EE66E35
:102FB000000EE66E46EC71F043E9050EE66E8F0EEC
:102FC000E66E000EE66E000EE66E020EE66EA8ECF1
:102FD00070F045E90501645165110DE1CB0EE66E17
:102FE0008E0EE66E000EE66E000EE66E020EE66EC9
:102FF000A8EC70F045E9010EE66E030EE66EE66A97
:10300000B1EC00F043E9000EE66E020EE66EC2EC93
:1030100071F042E9FE0EE66E9C0EE66E000EE66E64
:1030200046EC71F043E9010EE66E010EE66EBAEC75
:103030006AF042E9020EE66E90EC5FF041E90400AE
:10304000060100A5F7D7E66A010EE66EBAEC6AF053
:1030500042E9A0EC6AF0010EE66E84EC13F041E95F
:1030600086EC5FF0060EE66EE66AE66AE66A50EC0B
:1030700001F044E98B920001010E7B6F0001806B2F
:1030800080C0E6FFA6EC6AF041E97CC0E6FF57ECA1
:103090006BF041E9A50EE66E8E0EE66E000EE66E52
:1030A00046EC71F043E987EF2AF0A0EC6AF0060ED7
:1030B000E66EE66AE66AE66A50EC01F044E996ECF0
:1030C0006AF0010EE66EE66AE66AE66A50EC01F026
:1030D00044E9106A116AA3EC6AF0010EE66E05EB92
:1030E000E6FF06EBE6FF07EBE6FF08EBE6FF4FEC3B
:1030F00002F045E994EC35F080C0E6FFA6EC6AF0FA
:1031000041E9D00EE66E070EE66EE66AE66A01EB6E
:10311000E6FF02EBE6FF03EBE6FF04EBE6FF71ECF4
:1031200062F0E552E5CF03F0E5CF02F0E5CF01F024
:10313000E7CF00F00001005101110211031101E07D
:1031400021D2B4EC35F0000901E1D2D0210EE96EB4
:10315000060EEA6EEE500601155D0001046FEE509A
:10316000060116590001056FEE50060117590001BE
:10317000066FEE50060118590001076F04C0E6FF04
:1031800005C0E6FF06C0E6FF07C0E6FFB8EC07F0A3
:1031900044E9FCC300F0FDC301F0FEC302F0FFC32D
:1031A00003F000C0E6FF01C0E6FF02C0E6FF03C077
:1031B000E6FF1D0EE96E060EEA6EEE500601115D89
:1031C00000010C6FEE500601125900010D6FEE5018
:1031D0000601135900010E6FEE500601145900014B
:1031E0000F6F0CC0E6FF0DC0E6FF0EC0E6FF0FC07C
:1031F000E6FFB8EC07F044E9FCC308F0FDC309F0B2
:10320000FEC30AF0FFC30BF008C0E6FF09C0E6FFEB
:103210000AC0E6FF0BC0E6FF190EE96E060EEA6E65
:10322000EE5006010D5D0001146FEE5006010E59BF
:103230000001156FEE5006010F590001166FEE5098
:10324000060110590001176F14C0E6FF15C0E6FF14
:1032500016C0E6FF17C0E6FFB8EC07F044E9FCC370
:1032600010F0FDC311F0FEC312F0FFC313F010C045
:10327000E6FF11C0E6FF12C0E6FF13C0E6FF880EAE
:10328000E66E8E0EE66E000EE66E000EE66E020E26
:10329000E66EA8EC70F051E9000EE66E020EE66EE6
:1032A000C2EC71F042E906013D5120E006013E51B9
:1032B0001DE006013F511AE000017C5103E0010EC0
:1032C000106E116A630EE66E8E0EE66E000EE66EEE
:1032D000000EE66E020EE66EA8EC70F045E9000EF8
:1032E000E66E020EE66EC2EC71F042E994EC35F047
:1032F000060100A52CD0A0EC6AF0010EE66E84EC6D
:1033000013F041E986EC5FF0060EE66EE66AE66AC7
:10331000E66A50EC01F044E98B920001010E7B6FEC
:103320000001806B80C0E6FFA6EC6AF041E97CC03A
:10333000E6FF57EC6BF041E9540EE66E900EE66E38
:10334000000EE66E46EC71F043E987EF2AF08BEC55
:103350002AF001EBE6FF02EBE6FF03EBE6FF04EBEE
:10336000E6FF4B0EE66E8E0EE66E000EE66E000E6B
:10337000E66E020EE66EA8EC70F049E9010EE66E0C
:10338000E66A9FC0E6FFB1EC00F043E9020E0001DF
:103390007C5D3CE0C70EE66E940EE66E000EE66EB7
:1033A000000EE66E020EE66EA8EC70F045E905012F
:1033B00006512BE031C6E6FF32C6E6FF33C6E6FF14
:1033C00034C6E6FF0A0EE66EE66A26C5E6FF27C5A6
:1033D000E6FFC8EC61F00A0EE66EE66A36C5E6FF67
:1033E00037C5E6FFC8EC61F010C5E6FF11C5E6FF82
:1033F000230EE66E8E0EE66E000EE66E000EE66E94
:10340000020EE66EA8EC70F04FE92ED005010651D1
:103410002BE031C6E6FF32C6E6FF33C6E6FF34C610
:10342000E6FF0A0EE66EE66A26C5E6FF27C5E6FF5A
:10343000C8EC61F00A0EE66EE66A36C5E6FF37C5EF
:10344000E6FFC8EC61F010C5E6FF11C5E6FFFB0E14
:10345000E66E8D0EE66E000EE66E000EE66E020E55
:10346000E66EA8EC70F04FE9010EE66E010EE66E16
:10347000E66AB1EC00F043E9C70EE66E940EE66E24
:10348000000EE66E000EE66E020EE66EA8EC70F020
:1034900045E9050142512BE035C6E6FF36C6E6FF99
:1034A00037C6E6FF38C6E6FF0A0EE66EE66A62C574
:1034B000E6FF63C5E6FFC8EC61F00A0EE66EE66A59
:1034C00072C5E6FF73C5E6FFC8EC61F04CC5E6FFC8
:1034D0004DC5E6FFD30EE66E8D0EE66E000EE66E6F
:1034E000000EE66E020EE66EA8EC70F04FE9010EDB
:1034F000E66E020EE66EE66AB1EC00F043E9C70E36
:10350000E66E940EE66E000EE66E000EE66E020E9D
:10351000E66EA8EC70F045E905017E512BE039C656
:10352000E6FF3AC6E6FF3BC6E6FF3CC6E6FF0A0EEC
:10353000E66EE66A9EC5E6FF9FC5E6FFC8EC61F051
:103540000A0EE66EE66AAEC5E6FFAFC5E6FFC8EC5A
:1035500061F088C5E6FF89C5E6FFAB0EE66E8D0E0D
:10356000E66E000EE66E000EE66E020EE66EA8EC4B
:1035700070F04FE9010EE66E030EE66EE66AB1ECFE
:1035800000F043E9D950010FE96EDACFEAFFEE2AE5
:10359000000EEE22EE22EE22E66A05EBE6FF06EBD7
:1035A000E6FF07EBE6FF08EBE6FF4FEC02F045E92C
:1035B000000904E11050111001E19ED5A0EC6AF061
:1035C000060EE66EE66AE66AE66A50EC01F044E949
:1035D0009DEC6AF0010EE66EE66AE66AE66A50EC79
:1035E00001F044E9106A116A00017C5101E177D2CF
:1035F000A3EC6AF0010EE66E05EBE6FF06EBE6FFD4
:1036000007EBE6FF08EBE6FF4FEC02F045E9016A45
:10361000026A036A046A94EC35F080C0E6FFA6EC07
:103620006AF041E9D00EE66E070EE66EE66AE66ADB
:1036300001EBE6FF02EBE6FF03EBE6FF04EBE6FF40
:1036400071EC62F0E552E5CF03F0E5CF02F0E5CF93
:1036500001F0E7CF00F00001005101110211031148
:1036600001E021D2B4EC35F0000901E1D2D0210E05
:10367000E96E060EEA6EEE500601155D0001046F5C
:10368000EE50060116590001056FEE50060117595C
:103690000001066FEE50060118590001076F04C0C3
:1036A000E6FF05C0E6FF06C0E6FF07C0E6FFB8EC90
:1036B00007F044E9FCC300F0FDC301F0FEC302F0D3
:1036C000FFC303F000C0E6FF01C0E6FF02C0E6FF53
:1036D00003C0E6FF1D0EE96E060EEA6EEE5006010F
:1036E000115D00010C6FEE500601125900010D6FC3
:1036F000EE500601135900010E6FEE5006011459E9
:1037000000010F6F0CC0E6FF0DC0E6FF0EC0E6FF24
:103710000FC0E6FFB8EC07F044E9FCC308F0FDC3B6
:1037200009F0FEC30AF0FFC30BF008C0E6FF09C0B2
:10373000E6FF0AC0E6FF0BC0E6FF190EE96E060EB3
:10374000EA6EEE5006010D5D0001146FEE500601A9
:103750000E590001156FEE5006010F590001166F4A
:10376000EE50060110590001176F14C0E6FF15C096
:10377000E6FF16C0E6FF17C0E6FFB8EC07F044E925
:10378000FCC310F0FDC311F0FEC312F0FFC313F031
:1037900010C0E6FF11C0E6FF12C0E6FF13C0E6FF4F
:1037A000880EE66E8E0EE66E000EE66E000EE66E7B
:1037B000020EE66EA8EC70F051E9000EE66E020E05
:1037C000E66EC2EC71F042E906013D5120E00601CF
:1037D0003E511DE006013F511AE000017C5103E01B
:1037E000010E106E116A630EE66E8E0EE66E000E0E
:1037F000E66E000EE66E020EE66EA8EC70F045E98D
:10380000000EE66E020EE66EC2EC71F042E994EC38
:1038100035F0060100A52CD0A0EC6AF0010EE66E92
:1038200084EC13F041E986EC5FF0060EE66EE66A82
:10383000E66AE66A50EC01F044E98B920001010E61
:103840007B6F0001806B80C0E6FFA6EC6AF041E967
:103850007CC0E6FF57EC6BF041E9540EE66E900E2B
:10386000E66E000EE66E46EC71F043E987EF2AF053
:103870008BEC2AF001EBE6FF02EBE6FF03EBE6FF41
:1038800004EBE6FF940EE66E8D0EE66E000EE66E1D
:10389000000EE66E020EE66EA8EC70F049E9010E2D
:1038A000E66EE66A9FC0E6FFB1EC00F043E9C70EA2
:1038B000E66E940EE66E000EE66E000EE66E020EEA
:1038C000E66EA8EC70F045E9020E00017C5D2FE089
:1038D000050106512BE031C6E6FF32C6E6FF33C6CE
:1038E000E6FF34C6E6FF0A0EE66EE66A26C5E6FF88
:1038F00027C5E6FFC8EC61F00A0EE66EE66A36C53B
:10390000E6FF37C5E6FFC8EC61F010C5E6FF11C55C
:10391000E6FF230EE66E8E0EE66E000EE66E000EDD
:10392000E66E020EE66EA8EC70F04FE92ED00501AF
:1039300006512BE031C6E6FF32C6E6FF33C6E6FF8E
:1039400034C6E6FF0A0EE66EE66A26C5E6FF27C520
:10395000E6FFC8EC61F00A0EE66EE66A36C5E6FFE1
:1039600037C5E6FFC8EC61F010C5E6FF11C5E6FFFC
:10397000FB0EE66E8D0EE66E000EE66E000EE66E37
:10398000020EE66EA8EC70F04FE9010EE66E010E35
:10399000E66EE66AB1EC00F043E9C70EE66E940EFF
:1039A000E66E000EE66E000EE66E020EE66EA8EC07
:1039B00070F045E9050142512BE035C6E6FF36C6F9
:1039C000E6FF37C6E6FF38C6E6FF0A0EE66EE66A91
:1039D00062C5E6FF63C5E6FFC8EC61F00A0EE66E5D
:1039E000E66A72C5E6FF73C5E6FFC8EC61F04CC538
:1039F000E6FF4DC5E6FFD30EE66E8D0EE66E000EB9
:103A0000E66E000EE66E020EE66EA8EC70F04FE970
:103A1000010EE66E020EE66EE66AB1EC00F043E9D6
:103A2000C70EE66E940EE66E000EE66E000EE66EB3
:103A3000020EE66EA8EC70F045E905017E512BE020
:103A400039C6E6FF3AC6E6FF3BC6E6FF3CC6E6FFE0
:103A50000A0EE66EE66A9EC5E6FF9FC5E6FFC8EC65
:103A600061F00A0EE66EE66AAEC5E6FFAFC5E6FF98
:103A7000C8EC61F088C5E6FF89C5E6FFAB0EE66ECF
:103A80008D0EE66E000EE66E000EE66E020EE66E1F
:103A9000A8EC70F04FE9010EE66E030EE66EE66AE2
:103AA000B1EC00F043E9D950010FE96EDACFEAFF3B
:103AB000EE2A000EEE22EE22EE22E66A05EBE6FF8B
:103AC00006EBE6FF07EBE6FF08EBE6FF4FEC02F044
:103AD00045E9000904E11050111001E19ED587EF7E
:103AE00021F00401296B2A6B2B6B2C6B04012951EB
:103AF000096E2A510A6E2B510B6E2C510C6EA3ECE1
:103B00006AF0140EE66EE66AE66AE66A50EC01F0C8
:103B100044E9016A026A036A046ADE0E015C030E6C
:103B20000258000E0358000E045801E3E3D001EBE5
:103B3000E6FF02EBE6FF03EBE6FF04EBE6FF940E85
:103B4000E66E8D0EE66E000EE66E000EE66E020E5E
:103B5000E66EA8EC70F049E9010EE66EE66A9FC0D9
:103B6000E6FFB1EC00F043E9C70EE66E940EE66E98
:103B7000000EE66E000EE66E020EE66EA8EC70F029
:103B800045E90501065115E029C4E6FF2AC4E6FF10
:103B90002BC4E6FF2CC4E6FF720EE66E8D0EE66EB9
:103BA000000EE66E000EE66E020EE66EA8EC70F0F9
:103BB00049E9010EE66E010EE66EE66AB1EC00F030
:103BC00043E9C70EE66E940EE66E000EE66E000E3A
:103BD000E66E020EE66EA8EC70F045E9010EE66EA8
:103BE000020EE66EE66AB1EC00F043E9010EE66E05
:103BF000030EE66EE66AB1EC00F043E9010EE66EF4
:103C0000E66AE66AE66A50EC01F044E9190EE66EEF
:103C1000E66AE66AE66A01EBE6FF02EBE6FF03EB23
:103C2000E6FF04EBE6FF71EC62F0E552E5CF03F04E
:103C3000E5CF02F0E5CF01F0E7CF00F00001005141
:103C40000111021103111CE109500401291908E1B5
:103C50000A502A1905E10B502B1902E10C502C19BE
:103C600006E1E80E016E030E026E036A046A0401A7
:103C70002951096E2A510A6E2B510B6E2C510C6E74
:103C8000060100A52CD0A0EC6AF0010EE66E84ECD3
:103C900013F041E986EC5FF0060EE66EE66AE66A2E
:103CA000E66A50EC01F044E98B920001010E7B6F53
:103CB0000001806B80C0E6FFA6EC6AF041E97CC0A1
:103CC000E6FF57EC6BF041E9540EE66E900EE66E9F
:103CD000000EE66E46EC71F043E987EF2AF0D9500A
:103CE000010FE96EDACFEAFFEE2A000EEE22EE2295
:103CF000EE2213D7A0EC6AF0060EE66EE66AE66ADC
:103D0000E66A50EC01F044E996EC6AF0010EE66ECA
:103D1000E66AE66AE66A50EC01F044E90401296BC0
:103D20002A6B2B6B2C6B04012951096E2A510A6EE8
:103D30002B510B6E2C510C6EA3EC6AF0140EE66E38
:103D4000E66AE66AE66A50EC01F044E9016A026A52
:103D5000036A046ADE0E015C030E0258000E03586B
:103D6000000E045801E3E3D001EBE6FF02EBE6FFAF
:103D700003EBE6FF04EBE6FF4B0EE66E8E0EE66EFF
:103D8000000EE66E000EE66E020EE66EA8EC70F017
:103D900049E9010EE66EE66A9FC0E6FFB1EC00F06D
:103DA00043E9C70EE66E940EE66E000EE66E000E58
:103DB000E66E020EE66EA8EC70F045E905010651CC
:103DC00015E029C4E6FF2AC4E6FF2BC4E6FF2CC495
:103DD000E6FF720EE66E8D0EE66E000EE66E000ECB
:103DE000E66E020EE66EA8EC70F049E9010EE66E92
:103DF000010EE66EE66AB1EC00F043E9C70EE66E2E
:103E0000940EE66E000EE66E000EE66E020EE66E94
:103E1000A8EC70F045E9010EE66E020EE66EE66A69
:103E2000B1EC00F043E9010EE66E030EE66EE66AC1
:103E3000B1EC00F043E9010EE66EE66AE66AE66A76
:103E400050EC01F044E9190EE66EE66AE66AE66AAD
:103E500001EBE6FF02EBE6FF03EBE6FF04EBE6FF18
:103E600071EC62F0E552E5CF03F0E5CF02F0E5CF6B
:103E700001F0E7CF00F00001005101110211031120
:103E80001CE109500401291908E10A502A1905E129
:103E90000B502B1902E10C502C1906E1E80E016EB3
:103EA000030E026E036A046A04012951096E2A5145
:103EB0000A6E2B510B6E2C510C6E060100A52CD0F6
:103EC000A0EC6AF0010EE66E84EC13F041E986EC9A
:103ED0005FF0060EE66EE66AE66AE66A50EC01F00E
:103EE00044E98B920001010E7B6F0001806B80C062
:103EF000E6FFA6EC6AF041E97CC0E6FF57EC6BF008
:103F000041E9540EE66E900EE66E000EE66E46EC4B
:103F100071F043E987EF2AF0D950010FE96EDACF4B
:103F2000EAFFEE2A000EEE22EE22EE2213D729C47B
:103F300035F42AC436F42BC437F42CC438F4A0EC7E
:103F40006AF000017B6B0001806B0A0EE66ED70EF3
:103F5000E66E230EE66E3C0EE66E35C4E6FF36C412
:103F6000E6FF37C4E6FF38C4E6FF05EC61F032EC4B
:103F700064F06DEC61F0E552E5CF13F4E5CF12F497
:103F8000E5CF11F4E7CF10F464EC0BF0FA0EE66E17
:103F90007E0EE66E2A0EE66E3F0EE66E35C4E6FF36
:103FA00036C4E6FF37C4E6FF38C4E6FF05EC61F02F
:103FB00032EC64F06DEC61F0E552E5CF13F4E5CF3F
:103FC00012F4E5CF11F4E7CF10F4290EE96E040ED8
:103FD000EA6EEE500401105D0001006FEE50040126
:103FE00011590001016FEE50040112590001026FD6
:103FF000EE50040113590001036F0001DB513C0D29
:10400000F3CFE9FFF4CFEAFF000EE926050EEA221E
:104010000F0EE926000EEA22050EE926000EEA221E
:1040200000C0EEFF01C0EDFF64EC0BF0FA0EE66E8F
:104030007E0EE66EAA0EE66E3E0EE66E35C4E6FF16
:1040400036C4E6FF37C4E6FF38C4E6FF05EC61F08E
:1040500032EC64F06DEC61F0E552E5CF13F4E5CF9E
:1040600012F4E5CF11F4E7CF10F4290EE96E040E37
:10407000EA6EEE500401105D0001006FEE50040185
:1040800011590001016FEE50040112590001026F35
:10409000EE50040113590001036F0001DB513C0D88
:1040A000F3CFE9FFF4CFEAFF000EE926050EEA227E
:1040B0000F0EE926000EEA22050EE926000EEA227E
:1040C00000C0EEFF01C0EDFF64EC0BF0660EE66E83
:1040D000660EE66E660EE66E3F0EE66E35C4E6FFD1
:1040E00036C4E6FF37C4E6FF38C4E6FF05EC61F0EE
:1040F00032EC64F06DEC61F0E552E5CF13F4E5CFFE
:1041000012F4E5CF11F4E7CF10F4290EE96E040E96
:10411000EA6EEE500401105D0001006FEE500401E4
:1041200011590001016FEE50040112590001026F94
:10413000EE50040113590001036F0001DB513C0DE7
:10414000F3CFE9FFF4CFEAFF000EE926050EEA22DD
:104150000F0EE926000EEA22050EE926000EEA22DD
:1041600000C0EEFF01C0EDFF64EC0BF0CD0EE66E7B
:10417000CC0EE66ECC0EE66E3D0EE66E35C4E6FF66
:1041800036C4E6FF37C4E6FF38C4E6FF05EC61F04D
:1041900032EC64F06DEC61F0E552E5CF13F4E5CF5D
:1041A00012F4E5CF11F4E7CF10F4290EE96E040EF6
:1041B000EA6EEE500401105D0001006FEE50040144
:1041C00011590001016FEE50040112590001026FF4
:1041D000EE50040113590001036F0001DB513C0D47
:1041E000F3CFE9FFF4CFEAFF000EE926050EEA223D
:1041F0000F0EE926000EEA22050EE926000EEA223D
:1042000000C0EEFF01C0EDFF64EC0BF0E66AE66A69
:10421000E66A3F0EE66E35C4E6FF36C4E6FF37C4F5
:10422000E6FF38C4E6FF05EC61F032EC64F06DECBB
:1042300061F0E552E5CF13F4E5CF12F4E5CF11F4C8
:10424000E7CF10F4290EE96E040EEA6EEE50040179
:10425000105D0001006FEE50040111590001016F63
:10426000EE50040112590001026FEE50040113597F
:104270000001036F0001DB513C0DF3CFE9FFF4CFE8
:10428000EAFF000EE926050EEA220F0EE926000ECF
:10429000EA22050EE926000EEA2200C0EEFF01C068
:1042A000EDFF64EC0BF0016A026A036A046A030E14
:1042B000015C000E0258000E0358000E045827E25D
:1042C00001EBE9FF02EBEAFF3C0EEA02F3CFEAFF63
:1042D0003C0EE902F3CFE9FFF450EA26000EE9268E
:1042E000050EEA220F0EE926000EEA221D0EE9262F
:1042F000000EEA22EE6AED6AD950010FE96EDACFBC
:10430000EAFFEE2A000EEE22EE22EE22D0D7016A5C
:10431000026A036A046A030E015C000E0258000E72
:104320000358000E045802E348EF29F000017C51C5
:1043300001E000D101EBE9FF02EBEAFF3C0EEA02EB
:10434000F3CFEAFF3C0EE902F3CFE9FFF450EA268F
:10435000000EE926050EEA220F0EE926000EEA22DB
:10436000090EE926000EEA22EECF00F0EFCF01F0B1
:1043700001EBE9FF02EBEAFF3C0EEA02F3CFEAFFB2
:104380003C0EE902F3CFE9FFF450EA26000EE926DD
:10439000050EEA220F0EE926000EEA220B0EE92690
:1043A000000EEA22EECF02F0EFCF03F0000101355C
:1043B00001510001031908E6000100510001025DEE
:1043C000000101510001035935E201EBE9FF02EB65
:1043D000EAFF3C0EEA02F3CFEAFF3C0EE902F3CF1C
:1043E000E9FFF450EA26000EE926050EEA22060E41
:1043F000E926000EEA22EF501DE001EBE9FF02EB97
:10440000EAFF3C0EEA02F3CFEAFF3C0EE902F3CFEB
:10441000E9FFF450EA26000EE926050EEA220F0E07
:10442000E926000EEA221D0EE926000EEA22010E00
:10443000EE6EED6A01EBE9FF02EBEAFF3C0EEA02E9
:10444000F3CFEAFF3C0EE902F3CFE9FFF450EA268E
:10445000000EE926050EEA220F0EE926000EEA22DA
:10446000170EE926000EEA22EECF00F0EFCF01F0A2
:1044700001EBE9FF02EBEAFF3C0EEA02F3CFEAFFB1
:104480003C0EE902F3CFE9FFF450EA26000EE926DC
:10449000050EEA220F0EE926000EEA220D0EE9268D
:1044A000000EEA22EECF02F0EFCF03F00001033559
:1044B00003510001011908E6000102510001005DED
:1044C000000103510001015935E201EBE9FF02EB64
:1044D000EAFF3C0EEA02F3CFEAFF3C0EE902F3CF1B
:1044E000E9FFF450EA26000EE926050EEA22060E40
:1044F000E926000EEA22EF501DE001EBE9FF02EB96
:10450000EAFF3C0EEA02F3CFEAFF3C0EE902F3CFEA
:10451000E9FFF450EA26000EE926050EEA220F0E06
:10452000E926000EEA221D0EE926000EEA22010EFF
:10453000EE6EED6A030E00017C5D01E000D101EB3F
:10454000E9FF02EBEAFF3C0EEA02F3CFEAFF3C0E82
:10455000E902F3CFE9FFF450EA26000EE926050E42
:10456000EA220F0EE926000EEA22090EE926000EC5
:10457000EA22EECF00F0EFCF01F001EBE9FF02EB12
:10458000EAFF3C0EEA02F3CFEAFF3C0EE902F3CF6A
:10459000E9FFF450EA26000EE926050EEA220F0E86
:1045A000E926000EEA220B0EE926000EEA22EECFE3
:1045B00002F0EFCF03F000010135015100010319B2
:1045C00008E6000100510001025D000101510001F7
:1045D000035935E201EBE9FF02EBEAFF3C0EEA0288
:1045E000F3CFEAFF3C0EE902F3CFE9FFF450EA26ED
:1045F000000EE926050EEA22060EE926000EEA2242
:10460000EF501DE001EBE9FF02EBEAFF3C0EEA028E
:10461000F3CFEAFF3C0EE902F3CFE9FFF450EA26BC
:10462000000EE926050EEA220F0EE926000EEA2208
:104630001D0EE926000EEA22010EEE6EED6A01EB78
:10464000E9FF02EBEAFF3C0EEA02F3CFEAFF3C0E81
:10465000E902F3CFE9FFF450EA26000EE926050E41
:10466000EA220F0EE926000EEA22170EE926000EB6
:10467000EA22EECF00F0EFCF01F001EBE9FF02EB11
:10468000EAFF3C0EEA02F3CFEAFF3C0EE902F3CF69
:10469000E9FFF450EA26000EE926050EEA220F0E85
:1046A000E926000EEA220D0EE926000EEA22EECFE0
:1046B00002F0EFCF03F000010335035100010119AF
:1046C00008E6000102510001005D000103510001F4
:1046D000015935E201EBE9FF02EBEAFF3C0EEA0289
:1046E000F3CFEAFF3C0EE902F3CFE9FFF450EA26EC
:1046F000000EE926050EEA22060EE926000EEA2241
:10470000EF501DE001EBE9FF02EBEAFF3C0EEA028D
:10471000F3CFEAFF3C0EE902F3CFE9FFF450EA26BB
:10472000000EE926050EEA220F0EE926000EEA2207
:104730001D0EE926000EEA22010EEE6EED6A050E50
:1047400000017C5D01E000D101EBE9FF02EBEAFF33
:104750003C0EEA02F3CFEAFF3C0EE902F3CFE9FF99
:10476000F450EA26000EE926050EEA220F0EE9268D
:10477000000EEA22090EE926000EEA22EECF00F032
:10478000EFCF01F001EBE9FF02EBEAFF3C0EEA029A
:10479000F3CFEAFF3C0EE902F3CFE9FFF450EA263B
:1047A000000EE926050EEA220F0EE926000EEA2287
:1047B0000B0EE926000EEA22EECF02F0EFCF03F057
:1047C0000001013501510001031908E60001005103
:1047D0000001025D000101510001035935E201EBC6
:1047E000E9FF02EBEAFF3C0EEA02F3CFEAFF3C0EE0
:1047F000E902F3CFE9FFF450EA26000EE926050EA0
:10480000EA22060EE926000EEA22EF501DE001EB37
:10481000E9FF02EBEAFF3C0EEA02F3CFEAFF3C0EAF
:10482000E902F3CFE9FFF450EA26000EE926050E6F
:10483000EA220F0EE926000EEA221D0EE926000EDE
:10484000EA22010EEE6EED6A01EBE9FF02EBEAFFF0
:104850003C0EEA02F3CFEAFF3C0EE902F3CFE9FF98
:10486000F450EA26000EE926050EEA220F0EE9268C
:10487000000EEA22170EE926000EEA22EECF00F023
:10488000EFCF01F001EBE9FF02EBEAFF3C0EEA0299
:10489000F3CFEAFF3C0EE902F3CFE9FFF450EA263A
:1048A000000EE926050EEA220F0EE926000EEA2286
:1048B0000D0EE926000EEA22EECF02F0EFCF03F054
:1048C0000001033503510001011908E600010251FE
:1048D0000001005D000103510001015935E201EBC7
:1048E000E9FF02EBEAFF3C0EEA02F3CFEAFF3C0EDF
:1048F000E902F3CFE9FFF450EA26000EE926050E9F
:10490000EA22060EE926000EEA22EF501DE001EB36
:10491000E9FF02EBEAFF3C0EEA02F3CFEAFF3C0EAE
:10492000E902F3CFE9FFF450EA26000EE926050E6E
:10493000EA220F0EE926000EEA221D0EE926000EDD
:10494000EA22010EEE6EED6A00017C0501E000D165
:1049500001EBE9FF02EBEAFF3C0EEA02F3CFEAFFCC
:104960003C0EE902F3CFE9FFF450EA26000EE926F7
:10497000050EEA220F0EE926000EEA22090EE926AC
:10498000000EEA22EECF00F0EFCF01F001EBE9FFDD
:1049900002EBEAFF3C0EEA02F3CFEAFF3C0EE9022B
:1049A000F3CFE9FFF450EA26000EE926050EEA22CD
:1049B0000F0EE926000EEA220B0EE926000EEA226F
:1049C000EECF02F0EFCF03F00001013501510001FD
:1049D000031908E6000100510001025D00010151C8
:1049E0000001035935E201EBE9FF02EBEAFF3C0E5F
:1049F000EA02F3CFEAFF3C0EE902F3CFE9FFF450FD
:104A0000EA26000EE926050EEA22060EE926000E29
:104A1000EA22EF501DE001EBE9FF02EBEAFF3C0E5A
:104A2000EA02F3CFEAFF3C0EE902F3CFE9FFF450CC
:104A3000EA26000EE926050EEA220F0EE926000EF0
:104A4000EA221D0EE926000EEA22010EEE6EED6A44
:104A500001EBE9FF02EBEAFF3C0EEA02F3CFEAFFCB
:104A60003C0EE902F3CFE9FFF450EA26000EE926F6
:104A7000050EEA220F0EE926000EEA22170EE9269D
:104A8000000EEA22EECF00F0EFCF01F001EBE9FFDC
:104A900002EBEAFF3C0EEA02F3CFEAFF3C0EE9022A
:104AA000F3CFE9FFF450EA26000EE926050EEA22CC
:104AB0000F0EE926000EEA220D0EE926000EEA226C
:104AC000EECF02F0EFCF03F00001033503510001F8
:104AD000011908E6000102510001005D00010351C7
:104AE0000001015935E201EBE9FF02EBEAFF3C0E60
:104AF000EA02F3CFEAFF3C0EE902F3CFE9FFF450FC
:104B0000EA26000EE926050EEA22060EE926000E28
:104B1000EA22EF501DE001EBE9FF02EBEAFF3C0E59
:104B2000EA02F3CFEAFF3C0EE902F3CFE9FFF450CB
:104B3000EA26000EE926050EEA220F0EE926000EEF
:104B4000EA221D0EE926000EEA22010EEE6EED6A43
:104B500001EBE9FF02EBEAFF3C0EEA02F3CFEAFFCA
:104B60003C0EE902F3CFE9FFF450EA26000EE926F5
:104B7000050EEA220F0EE926000EEA221D0EE92696
:104B8000000EEA22EE50ED1001E0BFD101EBE9FF8B
:104B900002EBEAFF3C0EEA02F3CFEAFF3C0EE90229
:104BA000F3CFE9FFF450EA26000EE926050EEA22CB
:104BB0000F0EE926000EEA22190EE926000EEA225F
:104BC000010EEE6EED6A01EBE9FF02EBEAFF3C0E2F
:104BD000EA02F3CFEAFF3C0EE902F3CFE9FFF4501B
:104BE000EA26000EE926050EEA220F0EE926000E3F
:104BF000EA221B0EE926000EEA22010EEE6EED6A95
:104C000001EBE9FF02EBEAFF3C0EEA02F3CFEAFF19
:104C10003C0EE902F3CFE9FFF450EA26000EE92644
:104C2000050EEA220D0EE926000EEA22EECF00F074
:104C3000EFCF01F001EBE9FF02EBEAFF3C0EEA02E5
:104C4000F3CFEAFF3C0EE902F3CFE9FFF450EA2686
:104C5000000EE926050EEA220F0EE926000EEA22D2
:104C6000290EE926000EEA2200C0EEFF01C0EDFF8A
:104C700001EBE9FF02EBEAFF3C0EEA02F3CFEAFFA9
:104C80003C0EE902F3CFE9FFF450EA26000EE926D4
:104C9000050EEA22060EE926000EEA22EF5001E197
:104CA00033D1020E00017C5D04E0580E01240D6E2C
:104CB00002D0410E0D6E0DEB00F00001016B00BF44
:104CC000016900C0E6FF01C0E6FF460EE66E8D0EEC
:104CD000E66E000EE66E000EE66E020EE66EA8ECC4
:104CE00070F047E9000EE66E020EE66EC2EC71F05F
:104CF00042E901EBE9FF02EBEAFF3C0EEA02F3CFE7
:104D0000EAFF3C0EE902F3CFE9FFF450EA26000E79
:104D1000E926050EEA220F0EE926000EEA220B0E06
:104D2000E926000EEA22EECFE6FFEECFE6FF01EB2A
:104D3000E9FF02EBEAFF3C0EEA02F3CFEAFF3C0E8A
:104D4000E902F3CFE9FFF450EA26000EE926050E4A
:104D5000EA220F0EE926000EEA22090EE926000ECD
:104D6000EA22EECFE6FFEECFE6FF300EE66E8D0EC6
:104D7000E66E000EE66E000EE66E020EE66EA8EC23
:104D800070F049E9000EE66E020EE66EC2EC71F0BC
:104D900042E9FE0EE66E9C0EE66E000EE66E46ECF6
:104DA00071F043E901EBE9FF02EBEAFF3C0EEA0296
:104DB000F3CFEAFF3C0EE902F3CFE9FFF450EA2615
:104DC000000EE926050EEA220F0EE926000EEA2261
:104DD0000D0EE926000EEA22EECFE6FFEECFE6FF4B
:104DE00001EBE9FF02EBEAFF3C0EEA02F3CFEAFF38
:104DF0003C0EE902F3CFE9FFF450EA26000EE92663
:104E0000050EEA220F0EE926000EEA22170EE92609
:104E1000000EEA22EECFE6FFEECFE6FF1A0EE66EB8
:104E20008D0EE66E000EE66E000EE66E020EE66E6B
:104E3000A8EC70F049E9000EE66E020EE66EC2ECD8
:104E400071F042E9FE0EE66E9C0EE66E000EE66E16
:104E500046EC71F043E901EBE9FF02EBEAFF3C0E9F
:104E6000EA02F3CFEAFF3C0EE902F3CFE9FFF45088
:104E7000EA26000EE926050EEA220F0EE926000EAC
:104E8000EA220F0EE926000EEA22EECFE6FFEECF71
:104E9000E6FF01EBE9FF02EBEAFF3C0EEA02F3CF8B
:104EA000EAFF3C0EE902F3CFE9FFF450EA26000ED8
:104EB000E926050EEA220F0EE926000EEA22150E5B
:104EC000E926000EEA22EECFE6FFEECFE6FF060E61
:104ED000E66E8D0EE66E000EE66E000EE66E020EBB
:104EE000E66EA8EC70F049E9000EE66E020EE66E82
:104EF000C2EC71F042E9FE0EE66E9C0EE66E000E0C
:104F0000E66E46EC71F043E9B7D101EBE9FF02EB45
:104F1000EAFF3C0EEA02F3CFEAFF3C0EE902F3CFD0
:104F2000E9FFF450EA26000EE926050EEA22060EF5
:104F3000E926000EEA22EF5001E19ED1060100951C
:104F4000020E00017C5D04E0580E01240D6E02D0BB
:104F5000410E0D6E0DEB00F00001016B00BF016909
:104F600000C0E6FF01C0E6FFF00EE66E8C0EE66EB6
:104F7000000EE66E000EE66E020EE66EA8EC70F015
:104F800047E9010EE66EE66A9FC0E6FFB1EC00F06D
:104F900043E9000EE66E020EE66EC2EC71F042E9E5
:104FA000FE0EE66E9C0EE66E000EE66E46EC71F0AE
:104FB00043E901EBE9FF02EBEAFF3C0EEA02F3CF23
:104FC000EAFF3C0EE902F3CFE9FFF450EA26000EB7
:104FD000E926050EEA220F0EE926000EEA220B0E44
:104FE000E926000EEA22EECFE6FFEECFE6FF01EB68
:104FF000E9FF02EBEAFF3C0EEA02F3CFEAFF3C0EC8
:10500000E902F3CFE9FFF450EA26000EE926050E87
:10501000EA220F0EE926000EEA22090EE926000E0A
:10502000EA22EECFE6FFEECFE6FFDA0EE66E8C0E5A
:10503000E66E000EE66E000EE66E020EE66EA8EC60
:1050400070F049E9010EE66E010EE66EE66AB1EC1B
:1050500000F043E9000EE66E020EE66EC2EC71F05F
:1050600042E9FE0EE66E9C0EE66E000EE66E46EC23
:1050700071F043E901EBE9FF02EBEAFF3C0EEA02C3
:10508000F3CFEAFF3C0EE902F3CFE9FFF450EA2642
:10509000000EE926050EEA220F0EE926000EEA228E
:1050A0000D0EE926000EEA22EECFE6FFEECFE6FF78
:1050B00001EBE9FF02EBEAFF3C0EEA02F3CFEAFF65
:1050C0003C0EE902F3CFE9FFF450EA26000EE92690
:1050D000050EEA220F0EE926000EEA22170EE92637
:1050E000000EEA22EECFE6FFEECFE6FFC40EE66E3C
:1050F0008C0EE66E000EE66E000EE66E020EE66E9A
:10510000A8EC70F049E9010EE66E020EE66EE66A62
:10511000B1EC00F043E9000EE66E020EE66EC2EC62
:1051200071F042E9FE0EE66E9C0EE66E000EE66E33
:1051300046EC71F043E901EBE9FF02EBEAFF3C0EBC
:10514000EA02F3CFEAFF3C0EE902F3CFE9FFF450A5
:10515000EA26000EE926050EEA220F0EE926000EC9
:10516000EA220F0EE926000EEA22EECFE6FFEECF8E
:10517000E6FF01EBE9FF02EBEAFF3C0EEA02F3CFA8
:10518000EAFF3C0EE902F3CFE9FFF450EA26000EF5
:10519000E926050EEA220F0EE926000EEA22150E78
:1051A000E926000EEA22EECFE6FFEECFE6FF060E7E
:1051B000E66E8D0EE66E000EE66E000EE66E020ED8
:1051C000E66EA8EC70F049E9010EE66E030EE66E9D
:1051D000E66AB1EC00F043E9000EE66E020EE66E00
:1051E000C2EC71F042E9FE0EE66E9C0EE66E000E19
:1051F000E66E46EC71F043E9010EE66E010EE66ED6
:10520000BAEC6AF042E9020E00017C5D04E0580E3F
:1052100001240D6E02D0410E0D6E0DEB00F0000169
:10522000016B00BF016900C0E6FF01C0E6FF980EF8
:10523000E66E8C0EE66E000EE66E000EE66E020E58
:10524000E66EA8EC70F047E9000EE66E020EE66E20
:10525000C2EC71F042E9020EE66E90EC5FF041E9BB
:105260000400060100A5F7D7E66A010EE66EBAEC67
:105270006AF042E986EC5FF0D950010FE96EDACFAF
:10528000EAFFEE2A000EEE22EE22EE228BEF21F054
:10529000A0EC6AF0060EE66EE66AE66AE66A50EC94
:1052A00001F044E98B9200017B6B0001806B86EC7E
:1052B0005FF00001865101E01BD1016A026A036AB6
:1052C000046A050EE66E90EC5FF041E9830EE66E2F
:1052D0008C0EE66E000EE66E000EE66E020EE66EB8
:1052E000A8EC70F045E9010EE66EE66A9FC0E6FFA5
:1052F000B1EC00F043E9060100A57FD08F806E0E6F
:10530000E66E8C0EE66E000EE66E000EE66E020E87
:10531000E66EA8EC70F045E9010EE66EE66A9FC005
:10532000E6FFB1EC00F043E9060EE66EE66AE66AD7
:10533000E66A50EC01F044E986EC5FF0C70EE66ED9
:10534000940EE66E000EE66E000EE66E020EE66E3F
:10535000A8EC70F045E9010EE66EE66AE66AB1EC8B
:1053600000F043E9C70EE66E940EE66E000EE66EA0
:10537000000EE66E020EE66EA8EC70F045E9010E36
:10538000E66E010EE66EE66AB1EC00F043E9C70E88
:10539000E66E940EE66E000EE66E000EE66E020EEF
:1053A000E66EA8EC70F045E9010EE66E020EE66EC0
:1053B000E66AB1EC00F043E9C70EE66E940EE66EC5
:1053C000000EE66E000EE66E020EE66EA8EC70F0C1
:1053D00045E9010EE66E030EE66EE66AB1EC00F0FA
:1053E00043E9020EE66E80EC10F041E9A00E016E7A
:1053F000860E026E010E036E046A040006010601A9
:105400000051040B1DE1D950010FE96EDACFEAFF1C
:10541000EFCF00F0EE2A000EEFCF01F0EE22EFCF3B
:1054200002F0EE22EFCF03F0EF22E80E0001005D64
:10543000030E0159000E0259000E035901E246D72E
:10544000C70EE66E940EE66E000EE66E000EE66E79
:10545000020EE66EA8EC70F045E9010EE66EE66A13
:10546000E66AB1EC00F043E9C70EE66E940EE66E14
:10547000000EE66E000EE66E020EE66EA8EC70F010
:1054800045E9010EE66E010EE66EE66AB1EC00F04B
:1054900043E9C70EE66E940EE66E000EE66E000E51
:1054A000E66E020EE66EA8EC70F045E9010EE66EBF
:1054B000020EE66EE66AB1EC00F043E9C70EE66E56
:1054C000940EE66E000EE66E000EE66E020EE66EBE
:1054D000A8EC70F045E9010EE66E030EE66EE66A92
:1054E000B1EC00F043E986EC5FF0B3EC13F000D0D0
:1054F00000017B6B0001806B86EC5FF0A50EE66E11
:105500008E0EE66E000EE66E46EC71F043E952E94F
:10551000E7CFD9FF120031EC36F000018B5150E09B
:10552000ECC4E6FFEDC4E6FFEAC4E6FFEBC4E6FF29
:10553000E8C4E6FFE9C4E6FFF5EC33F0D1EC33F064
:10554000E3EC33F0390EE66E8C0EE66E000EA9EC3D
:105550002EF0DDEC31F0FEEC33F0DAEC33F0ECEC75
:1055600033F0160EE66E8C0EE66E000EF2DB51E99D
:1055700084EC32F090C5E6FF91C5E6FF8AC5E6FFF0
:105580008BC5E6FF56EC35F054C5E6FF55C5E6FF82
:105590004EC5E6FF4FC5E6FFC8EC30F018C5E6FF84
:1055A00019C5E6FF12C5E6FF13C5E6FF16EC35F098
:1055B000D80EE66E8B0EE66E000ECBDBDDEC31F026
:1055C00012000601C80EA76F3EEC30F0F1EC31F08E
:1055D00027E02B0EE66EDCEC6FF041E9F1EC31F0E8
:1055E000FDE13EEC30F02B0EE66EDCEC6FF041E9B5
:1055F000F1EC31F0FDE10C0EE66E4DEC72F041E99C
:10560000F1EC31F0FDE1010EE66E4DEC72F041E996
:105610003EEC30F00001010EF56F0601180EA76F89
:1056200012000001806B120EE66E220EE66ECAECCE
:105630006EF042E9C30EE66E8B0EE66E000EE66E6D
:10564000000EE66E020EE66EA8EC70F045E9010E63
:10565000E66EE66AE66AB1EC00F043E9010EE66E3A
:10566000010EE66EE66AB1EC00F043E9010EE66E6B
:10567000020EE66EE66AB1EC00F043E9010EE66E5A
:10568000030EE66EE66AB1EC00F043E9120EE66E38
:10569000220EE66E7BEC6FF042E98F9092DF8B6812
:1056A000FCAE15D0FC9EFE0EE66E9C0EE66E000E65
:1056B000E66E46EC71F043E9A4EC03F09E0EE66E54
:1056C0008B0EE66E000EE66E46EC71F043E9FCAC24
:1056D00015D0FC9CFE0EE66E9C0EE66E000EE66E8D
:1056E00046EC71F043E9A4EC03F0740EE66E8B0E09
:1056F000E66E000EE66E46EC71F043E90001735170
:1057000014E0FE0EE66E9C0EE66E000EE66E46ECB3
:1057100071F043E9A4EC03F04B0EE66E8B0EE66EDF
:10572000000EE66E46EC71F043E90001745114E09E
:10573000FE0EE66E9C0EE66E000EE66E46EC71F016
:1057400043E9A4EC03F0220EE66E8B0EE66E000E2B
:10575000E66E46EC71F043E9140EE66EE66A0A0E58
:10576000E66E8B0EE66E000EE66E000EE66E020E24
:10577000E66E96EC6EF047E9010EE66EE66AE66AC2
:10578000B1EC00F043E9F90EE66E9C0EE66E000EF9
:10579000E66E46EC71F043E9140EE66EE66A9CC0D4
:1057A000E6FF9DC0E6FF9EC0E6FF000EE66E020E1D
:1057B000E66E96EC6EF047E9010EE66E010EE66EBF
:1057C000E66AB1EC00F043E9000EE66E020EE66E0A
:1057D000C2EC71F042E9F70EE66E9C0EE66E000E2A
:1057E000E66E46EC71F043E9140EE66EE66A99C087
:1057F000E6FF9AC0E6FF9BC0E6FF000EE66E020ED3
:10580000E66E96EC6EF047E9000EE66E020EE66E6E
:10581000C2EC71F042E9010EE66E020EE66EE66A37
:10582000B1EC00F043E9140EE66EE66AE10EE66EB6
:105830009C0EE66E000EE66E000EE66E020EE66E42
:1058400096EC6EF047E9000EE66E020EE66EC2ECD4
:1058500071F042E9FE0EE66E9C0EE66E000EE66EFC
:1058600046EC71F043E9010EE66E030EE66EE66A61
:10587000B1EC00F043E9A4EC03F0EB0EE66E8A0E07
:10588000E66E000EE66E46EC71F043E983A20CD0A2
:105890000001010E8B6FD30EE66E8A0EE66E000ECF
:1058A000E66E46EC71F043E983A039D0A4EC03F036
:1058B000BA0EE66E8A0EE66E000EE66E46EC71F0EB
:1058C00043E9000EE66EE66A000EE66EE66A010E39
:1058D000E66EE66AA6EC6DF046E9A4EC03F09D0ED8
:1058E000E66E8A0EE66E000EE66E46EC71F043E957
:1058F0000601D66B0F0E0601D65D11E2080EE66EAC
:10590000E66A0601D651E66EE66A0F0EE66E7F0E77
:10591000E66EA6EC6DF046E90601D62BEBD7A4ECBB
:1059200003F07D0EE66E8A0EE66E000EE66E46EC25
:1059300071F043E9000EE66EE66A000EE66EE66A76
:10594000D8EC6DF044E959080CE1000EE66EE66A09
:10595000020EE66EE66AD8EC6DF044E90601D56FFA
:1059600022D0A4EC03F05A0EE66E8A0EE66E000E0C
:10597000E66E46EC71F043E9000EE66EE66A000E54
:10598000E66EE66A010EE66EE66AA6EC6DF046E9A2
:10599000A4EC03F03A0EE66E8A0EE66E000EE66E9A
:1059A00046EC71F043E9A4EC03F0210EE66E8A0E9A
:1059B000E66E000EE66E46EC71F043E9080EE66E08
:1059C000E66A000EE66EE66AD8EC6DF044E9590826
:1059D0001FE10601D66B0F0E0601D65D18E2060127
:1059E000D651E66EE66A0A0EE66EE66AD8EC6DF00F
:1059F00044E9E66E0601D651EA6AE40FE96E000E4C
:105A0000EA22E552E750EF6E0601D62BE4D734D0F8
:105A1000A4EC03F0050EE66E8A0EE66E000EE66E4E
:105A200046EC71F043E90601D66B0F0E0601D65D18
:105A300018E2080EE66EE66A0601D651E66EE66AE0
:105A40000F0EE66E0601D651EA6AE40FE96E000E0B
:105A5000EA22EFCFE6FFA6EC6DF046E90601D62B71
:105A6000E4D7A4EC03F0EC0EE66E890EE66E000EB1
:105A7000E66E46EC71F043E983A403D048EC0AF0EB
:105A8000FFD766EC43F0A4EC03F0D30EE66E890E6C
:105A9000E66E000EE66E46EC71F043E9050EE66E2A
:105AA000E66AE66AE66A50EC01F044E931EC36F069
:105AB00083A00BD0A4EC03F0BD0EE66E890EE66E5B
